{
  "contractName": "resumo_final",
  "abi": [
    {
      "inputs": [],
      "name": "age",
      "outputs": [
        {
          "internalType": "uint256",
          "name": "",
          "type": "uint256"
        }
      ],
      "stateMutability": "view",
      "type": "function",
      "constant": true
    },
    {
      "inputs": [],
      "name": "name",
      "outputs": [
        {
          "internalType": "string",
          "name": "",
          "type": "string"
        }
      ],
      "stateMutability": "view",
      "type": "function",
      "constant": true
    },
    {
      "inputs": [],
      "name": "getName",
      "outputs": [
        {
          "internalType": "string",
          "name": "",
          "type": "string"
        }
      ],
      "stateMutability": "view",
      "type": "function",
      "constant": true
    },
    {
      "inputs": [],
      "name": "getAge",
      "outputs": [
        {
          "internalType": "uint256",
          "name": "",
          "type": "uint256"
        }
      ],
      "stateMutability": "view",
      "type": "function",
      "constant": true
    },
    {
      "inputs": [
        {
          "internalType": "string",
          "name": "_name",
          "type": "string"
        }
      ],
      "name": "setName",
      "outputs": [],
      "stateMutability": "nonpayable",
      "type": "function"
    },
    {
      "inputs": [
        {
          "internalType": "uint256",
          "name": "_age",
          "type": "uint256"
        }
      ],
      "name": "setage",
      "outputs": [],
      "stateMutability": "nonpayable",
      "type": "function"
    }
  ],
  "bytecode": "0x608060405234801561001057600080fd5b50610849806100206000396000f3fe608060405234801561001057600080fd5b50600436106100625760003560e01c806306fdde031461006757806317d7de7c14610085578063262a9dff146100a35780636e424d5a146100c1578063967e6e65146100dd578063c47f0027146100fb575b600080fd5b61006f610117565b60405161007c91906102f4565b60405180910390f35b61008d6101a5565b60405161009a91906102f4565b60405180910390f35b6100ab610237565b6040516100b8919061032f565b60405180910390f35b6100db60048036038101906100d6919061038a565b61023d565b005b6100e5610247565b6040516100f2919061032f565b60405180910390f35b610115600480360381019061011091906104ec565b610251565b005b6000805461012490610564565b80601f016020809104026020016040519081016040528092919081815260200182805461015090610564565b801561019d5780601f106101725761010080835404028352916020019161019d565b820191906000526020600020905b81548152906001019060200180831161018057829003601f168201915b505050505081565b6060600080546101b490610564565b80601f01602080910402602001604051908101604052809291908181526020018280546101e090610564565b801561022d5780601f106102025761010080835404028352916020019161022d565b820191906000526020600020905b81548152906001019060200180831161021057829003601f168201915b5050505050905090565b60015481565b8060018190555050565b6000600154905090565b80600090816102609190610741565b5050565b600081519050919050565b600082825260208201905092915050565b60005b8381101561029e578082015181840152602081019050610283565b60008484015250505050565b6000601f19601f8301169050919050565b60006102c682610264565b6102d0818561026f565b93506102e0818560208601610280565b6102e9816102aa565b840191505092915050565b6000602082019050818103600083015261030e81846102bb565b905092915050565b6000819050919050565b61032981610316565b82525050565b60006020820190506103446000830184610320565b92915050565b6000604051905090565b600080fd5b600080fd5b61036781610316565b811461037257600080fd5b50565b6000813590506103848161035e565b92915050565b6000602082840312156103a05761039f610354565b5b60006103ae84828501610375565b91505092915050565b600080fd5b600080fd5b7f4e487b7100000000000000000000000000000000000000000000000000000000600052604160045260246000fd5b6103f9826102aa565b810181811067ffffffffffffffff82111715610418576104176103c1565b5b80604052505050565b600061042b61034a565b905061043782826103f0565b919050565b600067ffffffffffffffff821115610457576104566103c1565b5b610460826102aa565b9050602081019050919050565b82818337600083830152505050565b600061048f61048a8461043c565b610421565b9050828152602081018484840111156104ab576104aa6103bc565b5b6104b684828561046d565b509392505050565b600082601f8301126104d3576104d26103b7565b5b81356104e384826020860161047c565b91505092915050565b60006020828403121561050257610501610354565b5b600082013567ffffffffffffffff8111156105205761051f610359565b5b61052c848285016104be565b91505092915050565b7f4e487b7100000000000000000000000000000000000000000000000000000000600052602260045260246000fd5b6000600282049050600182168061057c57607f821691505b60208210810361058f5761058e610535565b5b50919050565b60008190508160005260206000209050919050565b60006020601f8301049050919050565b600082821b905092915050565b6000600883026105f77fffffffffffffffffffffffffffffffffffffffffffffffffffffffffffffffff826105ba565b61060186836105ba565b95508019841693508086168417925050509392505050565b6000819050919050565b600061063e61063961063484610316565b610619565b610316565b9050919050565b6000819050919050565b61065883610623565b61066c61066482610645565b8484546105c7565b825550505050565b600090565b610681610674565b61068c81848461064f565b505050565b5b818110156106b0576106a5600082610679565b600181019050610692565b5050565b601f8211156106f5576106c681610595565b6106cf846105aa565b810160208510156106de578190505b6106f26106ea856105aa565b830182610691565b50505b505050565b600082821c905092915050565b6000610718600019846008026106fa565b1980831691505092915050565b60006107318383610707565b9150826002028217905092915050565b61074a82610264565b67ffffffffffffffff811115610763576107626103c1565b5b61076d8254610564565b6107788282856106b4565b600060209050601f8311600181146107ab5760008415610799578287015190505b6107a38582610725565b86555061080b565b601f1984166107b986610595565b60005b828110156107e1578489015182556001820191506020850194506020810190506107bc565b868310156107fe57848901516107fa601f891682610707565b8355505b6001600288020188555050505b50505050505056fea264697066735822122082304fd25d7bb1a581e9e1780567355406364dfa28227e9c8bf6f57f949c06b464736f6c63430008130033",
  "immutableReferences": {},
  "source": "// SPDX-License-Identifier: MIT \npragma solidity ^0.8.19;\n\ncontract resumo_final{\n\n    string public name;\n    uint public age;\n\n    function getName() public view returns(string memory) {\n        return name;\n    }\n\n    function getAge() public view returns(uint) {\n        return age;\n    }\n\n    function setName(string memory _name) public {\n        name = _name;\n    }\n\n    function setage(uint _age) public {\n        age = _age;\n    }\n}",
  "sourcePath": "/home/eryc/Documentos/GitHub/Estudos-sobre-Blockchian-Web3-Solidity/Progamação em Blockchain/resumo-final/contracts/final.sol",
  "compiler": {
    "name": "solc",
    "version": "0.8.19+commit.7dd6d404.Emscripten.clang"
  },
  "schemaVersion": "3.4.16",
  "updatedAt": "2026-02-27T16:32:40.356Z",
  "networkType": "ethereum",
  "devdoc": {
    "kind": "dev",
    "methods": {},
    "version": 1
  },
  "userdoc": {
    "kind": "user",
    "methods": {},
    "version": 1
  }
}