{
	"ExerciciosDeTeste/teste.sol": {
		"ListaDeAmigo": {
			"abi": [
				{
					"inputs": [
						{
							"internalType": "string",
							"name": "_nome",
							"type": "string"
						},
						{
							"internalType": "uint256",
							"name": "_idade",
							"type": "uint256"
						}
					],
					"name": "addfriends",
					"outputs": [],
					"stateMutability": "nonpayable",
					"type": "function"
				},
				{
					"inputs": [
						{
							"internalType": "uint256",
							"name": "",
							"type": "uint256"
						}
					],
					"name": "friends",
					"outputs": [
						{
							"internalType": "string",
							"name": "nome",
							"type": "string"
						},
						{
							"internalType": "enum ListaDeAmigo.Status",
							"name": "status",
							"type": "uint8"
						},
						{
							"internalType": "uint256",
							"name": "idade",
							"type": "uint256"
						}
					],
					"stateMutability": "view",
					"type": "function"
				},
				{
					"inputs": [],
					"name": "friendsCount",
					"outputs": [
						{
							"internalType": "uint256",
							"name": "",
							"type": "uint256"
						}
					],
					"stateMutability": "view",
					"type": "function"
				}
			],
			"devdoc": {
				"kind": "dev",
				"methods": {},
				"version": 1
			},
			"evm": {
				"assembly": "    /* \"ExerciciosDeTeste/teste.sol\":60:602  contract ListaDeAmigo{... */\n  mstore(0x40, 0x80)\n  callvalue\n  dup1\n  iszero\n  tag_1\n  jumpi\n  revert(0x00, 0x00)\ntag_1:\n  pop\n  dataSize(sub_0)\n  dup1\n  dataOffset(sub_0)\n  0x00\n  codecopy\n  0x00\n  return\nstop\n\nsub_0: assembly {\n        /* \"ExerciciosDeTeste/teste.sol\":60:602  contract ListaDeAmigo{... */\n      mstore(0x40, 0x80)\n      callvalue\n      dup1\n      iszero\n      tag_1\n      jumpi\n      revert(0x00, 0x00)\n    tag_1:\n      pop\n      jumpi(tag_2, lt(calldatasize, 0x04))\n      shr(0xe0, calldataload(0x00))\n      dup1\n      0x9fd84a48\n      eq\n      tag_3\n      jumpi\n      dup1\n      0xce146828\n      eq\n      tag_4\n      jumpi\n      dup1\n      0xe555134f\n      eq\n      tag_5\n      jumpi\n    tag_2:\n      revert(0x00, 0x00)\n        /* \"ExerciciosDeTeste/teste.sol\":310:599  function addfriends(string memory _nome, uint _idade) public {... */\n    tag_3:\n      tag_6\n      0x04\n      dup1\n      calldatasize\n      sub\n      dup2\n      add\n      swap1\n      tag_7\n      swap2\n      swap1\n      tag_8\n      jump\t// in\n    tag_7:\n      tag_9\n      jump\t// in\n    tag_6:\n      stop\n        /* \"ExerciciosDeTeste/teste.sol\":247:270  Amigos[] public friends */\n    tag_4:\n      tag_10\n      0x04\n      dup1\n      calldatasize\n      sub\n      dup2\n      add\n      swap1\n      tag_11\n      swap2\n      swap1\n      tag_12\n      jump\t// in\n    tag_11:\n      tag_13\n      jump\t// in\n    tag_10:\n      mload(0x40)\n      tag_14\n      swap4\n      swap3\n      swap2\n      swap1\n      tag_15\n      jump\t// in\n    tag_14:\n      mload(0x40)\n      dup1\n      swap2\n      sub\n      swap1\n      return\n        /* \"ExerciciosDeTeste/teste.sol\":277:301  uint public friendsCount */\n    tag_5:\n      tag_16\n      tag_17\n      jump\t// in\n    tag_16:\n      mload(0x40)\n      tag_18\n      swap2\n      swap1\n      tag_19\n      jump\t// in\n    tag_18:\n      mload(0x40)\n      dup1\n      swap2\n      sub\n      swap1\n      return\n        /* \"ExerciciosDeTeste/teste.sol\":310:599  function addfriends(string memory _nome, uint _idade) public {... */\n    tag_9:\n        /* \"ExerciciosDeTeste/teste.sol\":381:405  Amigos memory Novo_amigo */\n      tag_21\n      tag_22\n      jump\t// in\n    tag_21:\n        /* \"ExerciciosDeTeste/teste.sol\":433:438  _nome */\n      dup3\n        /* \"ExerciciosDeTeste/teste.sol\":415:425  Novo_amigo */\n      dup2\n        /* \"ExerciciosDeTeste/teste.sol\":415:430  Novo_amigo.nome */\n      0x00\n      add\n        /* \"ExerciciosDeTeste/teste.sol\":415:438  Novo_amigo.nome = _nome */\n      dup2\n      swap1\n      mstore\n      pop\n        /* \"ExerciciosDeTeste/teste.sol\":467:473  _idade */\n      dup2\n        /* \"ExerciciosDeTeste/teste.sol\":448:458  Novo_amigo */\n      dup2\n        /* \"ExerciciosDeTeste/teste.sol\":448:464  Novo_amigo.idade */\n      0x40\n      add\n        /* \"ExerciciosDeTeste/teste.sol\":448:473  Novo_amigo.idade = _idade */\n      dup2\n      dup2\n      mstore\n      pop\n      pop\n        /* \"ExerciciosDeTeste/teste.sol\":483:490  friends */\n      0x00\n        /* \"ExerciciosDeTeste/teste.sol\":496:506  Novo_amigo */\n      dup2\n        /* \"ExerciciosDeTeste/teste.sol\":483:507  friends.push(Novo_amigo) */\n      swap1\n      dup1\n      0x01\n      dup2\n      sload\n      add\n      dup1\n      dup3\n      sstore\n      dup1\n      swap2\n      pop\n      pop\n      0x01\n      swap1\n      sub\n      swap1\n      0x00\n      mstore\n      keccak256(0x00, 0x20)\n      swap1\n      0x03\n      mul\n      add\n      0x00\n      swap1\n      swap2\n      swap1\n      swap2\n      swap1\n      swap2\n      pop\n      0x00\n      dup3\n      add\n      mload\n      dup2\n      0x00\n      add\n      swap1\n      dup2\n      tag_24\n      swap2\n      swap1\n      tag_25\n      jump\t// in\n    tag_24:\n      pop\n      0x20\n      dup3\n      add\n      mload\n      dup2\n      0x01\n      add\n      exp(0x0100, 0x00)\n      dup2\n      sload\n      dup2\n      0xff\n      mul\n      not\n      and\n      swap1\n      dup4\n      0x01\n      dup2\n      gt\n      iszero\n      tag_26\n      jumpi\n      tag_27\n      tag_28\n      jump\t// in\n    tag_27:\n    tag_26:\n      mul\n      or\n      swap1\n      sstore\n      pop\n      0x40\n      dup3\n      add\n      mload\n      dup2\n      0x02\n      add\n      sstore\n      pop\n      pop\n        /* \"ExerciciosDeTeste/teste.sol\":517:524  friends */\n      0x00\n        /* \"ExerciciosDeTeste/teste.sol\":530:566  Amigos(_nome, Status.online, _idade) */\n      mload(0x40)\n      dup1\n      0x60\n      add\n      0x40\n      mstore\n      dup1\n        /* \"ExerciciosDeTeste/teste.sol\":537:542  _nome */\n      dup6\n        /* \"ExerciciosDeTeste/teste.sol\":530:566  Amigos(_nome, Status.online, _idade) */\n      dup2\n      mstore\n      0x20\n      add\n        /* \"ExerciciosDeTeste/teste.sol\":544:557  Status.online */\n      0x00\n        /* \"ExerciciosDeTeste/teste.sol\":530:566  Amigos(_nome, Status.online, _idade) */\n      0x01\n      dup2\n      gt\n      iszero\n      tag_29\n      jumpi\n      tag_30\n      tag_28\n      jump\t// in\n    tag_30:\n    tag_29:\n      dup2\n      mstore\n      0x20\n      add\n        /* \"ExerciciosDeTeste/teste.sol\":559:565  _idade */\n      dup5\n        /* \"ExerciciosDeTeste/teste.sol\":530:566  Amigos(_nome, Status.online, _idade) */\n      dup2\n      mstore\n      pop\n        /* \"ExerciciosDeTeste/teste.sol\":517:567  friends.push(Amigos(_nome, Status.online, _idade)) */\n      swap1\n      dup1\n      0x01\n      dup2\n      sload\n      add\n      dup1\n      dup3\n      sstore\n      dup1\n      swap2\n      pop\n      pop\n      0x01\n      swap1\n      sub\n      swap1\n      0x00\n      mstore\n      keccak256(0x00, 0x20)\n      swap1\n      0x03\n      mul\n      add\n      0x00\n      swap1\n      swap2\n      swap1\n      swap2\n      swap1\n      swap2\n      pop\n      0x00\n      dup3\n      add\n      mload\n      dup2\n      0x00\n      add\n      swap1\n      dup2\n      tag_32\n      swap2\n      swap1\n      tag_25\n      jump\t// in\n    tag_32:\n      pop\n      0x20\n      dup3\n      add\n      mload\n      dup2\n      0x01\n      add\n      exp(0x0100, 0x00)\n      dup2\n      sload\n      dup2\n      0xff\n      mul\n      not\n      and\n      swap1\n      dup4\n      0x01\n      dup2\n      gt\n      iszero\n      tag_33\n      jumpi\n      tag_34\n      tag_28\n      jump\t// in\n    tag_34:\n    tag_33:\n      mul\n      or\n      swap1\n      sstore\n      pop\n      0x40\n      dup3\n      add\n      mload\n      dup2\n      0x02\n      add\n      sstore\n      pop\n      pop\n        /* \"ExerciciosDeTeste/teste.sol\":577:589  friendsCount */\n      0x01\n      0x00\n        /* \"ExerciciosDeTeste/teste.sol\":577:591  friendsCount++ */\n      dup2\n      sload\n      dup1\n      swap3\n      swap2\n      swap1\n      tag_35\n      swap1\n      tag_36\n      jump\t// in\n    tag_35:\n      swap2\n      swap1\n      pop\n      sstore\n      pop\n        /* \"ExerciciosDeTeste/teste.sol\":371:599  {... */\n      pop\n        /* \"ExerciciosDeTeste/teste.sol\":310:599  function addfriends(string memory _nome, uint _idade) public {... */\n      pop\n      pop\n      jump\t// out\n        /* \"ExerciciosDeTeste/teste.sol\":247:270  Amigos[] public friends */\n    tag_13:\n      0x00\n      dup2\n      dup2\n      sload\n      dup2\n      lt\n      tag_37\n      jumpi\n      0x00\n      dup1\n      revert\n    tag_37:\n      swap1\n      0x00\n      mstore\n      keccak256(0x00, 0x20)\n      swap1\n      0x03\n      mul\n      add\n      0x00\n      swap2\n      pop\n      swap1\n      pop\n      dup1\n      0x00\n      add\n      dup1\n      sload\n      tag_39\n      swap1\n      tag_40\n      jump\t// in\n    tag_39:\n      dup1\n      0x1f\n      add\n      0x20\n      dup1\n      swap2\n      div\n      mul\n      0x20\n      add\n      mload(0x40)\n      swap1\n      dup2\n      add\n      0x40\n      mstore\n      dup1\n      swap3\n      swap2\n      swap1\n      dup2\n      dup2\n      mstore\n      0x20\n      add\n      dup3\n      dup1\n      sload\n      tag_41\n      swap1\n      tag_40\n      jump\t// in\n    tag_41:\n      dup1\n      iszero\n      tag_42\n      jumpi\n      dup1\n      0x1f\n      lt\n      tag_43\n      jumpi\n      0x0100\n      dup1\n      dup4\n      sload\n      div\n      mul\n      dup4\n      mstore\n      swap2\n      0x20\n      add\n      swap2\n      jump(tag_42)\n    tag_43:\n      dup3\n      add\n      swap2\n      swap1\n      0x00\n      mstore\n      keccak256(0x00, 0x20)\n      swap1\n    tag_44:\n      dup2\n      sload\n      dup2\n      mstore\n      swap1\n      0x01\n      add\n      swap1\n      0x20\n      add\n      dup1\n      dup4\n      gt\n      tag_44\n      jumpi\n      dup3\n      swap1\n      sub\n      0x1f\n      and\n      dup3\n      add\n      swap2\n    tag_42:\n      pop\n      pop\n      pop\n      pop\n      pop\n      swap1\n      dup1\n      0x01\n      add\n      0x00\n      swap1\n      sload\n      swap1\n      0x0100\n      exp\n      swap1\n      div\n      0xff\n      and\n      swap1\n      dup1\n      0x02\n      add\n      sload\n      swap1\n      pop\n      dup4\n      jump\t// out\n        /* \"ExerciciosDeTeste/teste.sol\":277:301  uint public friendsCount */\n    tag_17:\n      sload(0x01)\n      dup2\n      jump\t// out\n    tag_22:\n      mload(0x40)\n      dup1\n      0x60\n      add\n      0x40\n      mstore\n      dup1\n      0x60\n      dup2\n      mstore\n      0x20\n      add\n      0x00\n      0x01\n      dup2\n      gt\n      iszero\n      tag_45\n      jumpi\n      tag_46\n      tag_28\n      jump\t// in\n    tag_46:\n    tag_45:\n      dup2\n      mstore\n      0x20\n      add\n      0x00\n      dup2\n      mstore\n      pop\n      swap1\n      jump\t// out\n        /* \"#utility.yul\":7:82   */\n    tag_47:\n        /* \"#utility.yul\":40:46   */\n      0x00\n        /* \"#utility.yul\":73:75   */\n      0x40\n        /* \"#utility.yul\":67:76   */\n      mload\n        /* \"#utility.yul\":57:76   */\n      swap1\n      pop\n        /* \"#utility.yul\":7:82   */\n      swap1\n      jump\t// out\n        /* \"#utility.yul\":88:205   */\n    tag_48:\n        /* \"#utility.yul\":197:198   */\n      0x00\n        /* \"#utility.yul\":194:195   */\n      0x00\n        /* \"#utility.yul\":187:199   */\n      revert\n        /* \"#utility.yul\":211:328   */\n    tag_49:\n        /* \"#utility.yul\":320:321   */\n      0x00\n        /* \"#utility.yul\":317:318   */\n      0x00\n        /* \"#utility.yul\":310:322   */\n      revert\n        /* \"#utility.yul\":334:451   */\n    tag_50:\n        /* \"#utility.yul\":443:444   */\n      0x00\n        /* \"#utility.yul\":440:441   */\n      0x00\n        /* \"#utility.yul\":433:445   */\n      revert\n        /* \"#utility.yul\":457:574   */\n    tag_51:\n        /* \"#utility.yul\":566:567   */\n      0x00\n        /* \"#utility.yul\":563:564   */\n      0x00\n        /* \"#utility.yul\":556:568   */\n      revert\n        /* \"#utility.yul\":580:682   */\n    tag_52:\n        /* \"#utility.yul\":621:627   */\n      0x00\n        /* \"#utility.yul\":672:674   */\n      0x1f\n        /* \"#utility.yul\":668:675   */\n      not\n        /* \"#utility.yul\":663:665   */\n      0x1f\n        /* \"#utility.yul\":656:661   */\n      dup4\n        /* \"#utility.yul\":652:666   */\n      add\n        /* \"#utility.yul\":648:676   */\n      and\n        /* \"#utility.yul\":638:676   */\n      swap1\n      pop\n        /* \"#utility.yul\":580:682   */\n      swap2\n      swap1\n      pop\n      jump\t// out\n        /* \"#utility.yul\":688:868   */\n    tag_53:\n        /* \"#utility.yul\":736:813   */\n      0x4e487b7100000000000000000000000000000000000000000000000000000000\n        /* \"#utility.yul\":733:734   */\n      0x00\n        /* \"#utility.yul\":726:814   */\n      mstore\n        /* \"#utility.yul\":833:837   */\n      0x41\n        /* \"#utility.yul\":830:831   */\n      0x04\n        /* \"#utility.yul\":823:838   */\n      mstore\n        /* \"#utility.yul\":857:861   */\n      0x24\n        /* \"#utility.yul\":854:855   */\n      0x00\n        /* \"#utility.yul\":847:862   */\n      revert\n        /* \"#utility.yul\":874:1155   */\n    tag_54:\n        /* \"#utility.yul\":957:984   */\n      tag_98\n        /* \"#utility.yul\":979:983   */\n      dup3\n        /* \"#utility.yul\":957:984   */\n      tag_52\n      jump\t// in\n    tag_98:\n        /* \"#utility.yul\":949:955   */\n      dup2\n        /* \"#utility.yul\":945:985   */\n      add\n        /* \"#utility.yul\":1087:1093   */\n      dup2\n        /* \"#utility.yul\":1075:1085   */\n      dup2\n        /* \"#utility.yul\":1072:1094   */\n      lt\n        /* \"#utility.yul\":1051:1069   */\n      0xffffffffffffffff\n        /* \"#utility.yul\":1039:1049   */\n      dup3\n        /* \"#utility.yul\":1036:1070   */\n      gt\n        /* \"#utility.yul\":1033:1095   */\n      or\n        /* \"#utility.yul\":1030:1118   */\n      iszero\n      tag_99\n      jumpi\n        /* \"#utility.yul\":1098:1116   */\n      tag_100\n      tag_53\n      jump\t// in\n    tag_100:\n        /* \"#utility.yul\":1030:1118   */\n    tag_99:\n        /* \"#utility.yul\":1138:1148   */\n      dup1\n        /* \"#utility.yul\":1134:1136   */\n      0x40\n        /* \"#utility.yul\":1127:1149   */\n      mstore\n        /* \"#utility.yul\":917:1155   */\n      pop\n        /* \"#utility.yul\":874:1155   */\n      pop\n      pop\n      jump\t// out\n        /* \"#utility.yul\":1161:1290   */\n    tag_55:\n        /* \"#utility.yul\":1195:1201   */\n      0x00\n        /* \"#utility.yul\":1222:1242   */\n      tag_102\n      tag_47\n      jump\t// in\n    tag_102:\n        /* \"#utility.yul\":1212:1242   */\n      swap1\n      pop\n        /* \"#utility.yul\":1251:1284   */\n      tag_103\n        /* \"#utility.yul\":1279:1283   */\n      dup3\n        /* \"#utility.yul\":1271:1277   */\n      dup3\n        /* \"#utility.yul\":1251:1284   */\n      tag_54\n      jump\t// in\n    tag_103:\n        /* \"#utility.yul\":1161:1290   */\n      swap2\n      swap1\n      pop\n      jump\t// out\n        /* \"#utility.yul\":1296:1604   */\n    tag_56:\n        /* \"#utility.yul\":1358:1362   */\n      0x00\n        /* \"#utility.yul\":1448:1466   */\n      0xffffffffffffffff\n        /* \"#utility.yul\":1440:1446   */\n      dup3\n        /* \"#utility.yul\":1437:1467   */\n      gt\n        /* \"#utility.yul\":1434:1490   */\n      iszero\n      tag_105\n      jumpi\n        /* \"#utility.yul\":1470:1488   */\n      tag_106\n      tag_53\n      jump\t// in\n    tag_106:\n        /* \"#utility.yul\":1434:1490   */\n    tag_105:\n        /* \"#utility.yul\":1508:1537   */\n      tag_107\n        /* \"#utility.yul\":1530:1536   */\n      dup3\n        /* \"#utility.yul\":1508:1537   */\n      tag_52\n      jump\t// in\n    tag_107:\n        /* \"#utility.yul\":1500:1537   */\n      swap1\n      pop\n        /* \"#utility.yul\":1592:1596   */\n      0x20\n        /* \"#utility.yul\":1586:1590   */\n      dup2\n        /* \"#utility.yul\":1582:1597   */\n      add\n        /* \"#utility.yul\":1574:1597   */\n      swap1\n      pop\n        /* \"#utility.yul\":1296:1604   */\n      swap2\n      swap1\n      pop\n      jump\t// out\n        /* \"#utility.yul\":1610:1758   */\n    tag_57:\n        /* \"#utility.yul\":1708:1714   */\n      dup3\n        /* \"#utility.yul\":1703:1706   */\n      dup2\n        /* \"#utility.yul\":1698:1701   */\n      dup4\n        /* \"#utility.yul\":1685:1715   */\n      calldatacopy\n        /* \"#utility.yul\":1749:1750   */\n      0x00\n        /* \"#utility.yul\":1740:1746   */\n      dup4\n        /* \"#utility.yul\":1735:1738   */\n      dup4\n        /* \"#utility.yul\":1731:1747   */\n      add\n        /* \"#utility.yul\":1724:1751   */\n      mstore\n        /* \"#utility.yul\":1610:1758   */\n      pop\n      pop\n      pop\n      jump\t// out\n        /* \"#utility.yul\":1764:2189   */\n    tag_58:\n        /* \"#utility.yul\":1842:1847   */\n      0x00\n        /* \"#utility.yul\":1867:1933   */\n      tag_110\n        /* \"#utility.yul\":1883:1932   */\n      tag_111\n        /* \"#utility.yul\":1925:1931   */\n      dup5\n        /* \"#utility.yul\":1883:1932   */\n      tag_56\n      jump\t// in\n    tag_111:\n        /* \"#utility.yul\":1867:1933   */\n      tag_55\n      jump\t// in\n    tag_110:\n        /* \"#utility.yul\":1858:1933   */\n      swap1\n      pop\n        /* \"#utility.yul\":1956:1962   */\n      dup3\n        /* \"#utility.yul\":1949:1954   */\n      dup2\n        /* \"#utility.yul\":1942:1963   */\n      mstore\n        /* \"#utility.yul\":1994:1998   */\n      0x20\n        /* \"#utility.yul\":1987:1992   */\n      dup2\n        /* \"#utility.yul\":1983:1999   */\n      add\n        /* \"#utility.yul\":2032:2035   */\n      dup5\n        /* \"#utility.yul\":2023:2029   */\n      dup5\n        /* \"#utility.yul\":2018:2021   */\n      dup5\n        /* \"#utility.yul\":2014:2030   */\n      add\n        /* \"#utility.yul\":2011:2036   */\n      gt\n        /* \"#utility.yul\":2008:2120   */\n      iszero\n      tag_112\n      jumpi\n        /* \"#utility.yul\":2039:2118   */\n      tag_113\n      tag_51\n      jump\t// in\n    tag_113:\n        /* \"#utility.yul\":2008:2120   */\n    tag_112:\n        /* \"#utility.yul\":2129:2183   */\n      tag_114\n        /* \"#utility.yul\":2176:2182   */\n      dup5\n        /* \"#utility.yul\":2171:2174   */\n      dup3\n        /* \"#utility.yul\":2166:2169   */\n      dup6\n        /* \"#utility.yul\":2129:2183   */\n      tag_57\n      jump\t// in\n    tag_114:\n        /* \"#utility.yul\":1848:2189   */\n      pop\n        /* \"#utility.yul\":1764:2189   */\n      swap4\n      swap3\n      pop\n      pop\n      pop\n      jump\t// out\n        /* \"#utility.yul\":2209:2549   */\n    tag_59:\n        /* \"#utility.yul\":2265:2270   */\n      0x00\n        /* \"#utility.yul\":2314:2317   */\n      dup3\n        /* \"#utility.yul\":2307:2311   */\n      0x1f\n        /* \"#utility.yul\":2299:2305   */\n      dup4\n        /* \"#utility.yul\":2295:2312   */\n      add\n        /* \"#utility.yul\":2291:2318   */\n      slt\n        /* \"#utility.yul\":2281:2403   */\n      tag_116\n      jumpi\n        /* \"#utility.yul\":2322:2401   */\n      tag_117\n      tag_50\n      jump\t// in\n    tag_117:\n        /* \"#utility.yul\":2281:2403   */\n    tag_116:\n        /* \"#utility.yul\":2439:2445   */\n      dup2\n        /* \"#utility.yul\":2426:2446   */\n      calldataload\n        /* \"#utility.yul\":2464:2543   */\n      tag_118\n        /* \"#utility.yul\":2539:2542   */\n      dup5\n        /* \"#utility.yul\":2531:2537   */\n      dup3\n        /* \"#utility.yul\":2524:2528   */\n      0x20\n        /* \"#utility.yul\":2516:2522   */\n      dup7\n        /* \"#utility.yul\":2512:2529   */\n      add\n        /* \"#utility.yul\":2464:2543   */\n      tag_58\n      jump\t// in\n    tag_118:\n        /* \"#utility.yul\":2455:2543   */\n      swap2\n      pop\n        /* \"#utility.yul\":2271:2549   */\n      pop\n        /* \"#utility.yul\":2209:2549   */\n      swap3\n      swap2\n      pop\n      pop\n      jump\t// out\n        /* \"#utility.yul\":2555:2632   */\n    tag_60:\n        /* \"#utility.yul\":2592:2599   */\n      0x00\n        /* \"#utility.yul\":2621:2626   */\n      dup2\n        /* \"#utility.yul\":2610:2626   */\n      swap1\n      pop\n        /* \"#utility.yul\":2555:2632   */\n      swap2\n      swap1\n      pop\n      jump\t// out\n        /* \"#utility.yul\":2638:2760   */\n    tag_61:\n        /* \"#utility.yul\":2711:2735   */\n      tag_121\n        /* \"#utility.yul\":2729:2734   */\n      dup2\n        /* \"#utility.yul\":2711:2735   */\n      tag_60\n      jump\t// in\n    tag_121:\n        /* \"#utility.yul\":2704:2709   */\n      dup2\n        /* \"#utility.yul\":2701:2736   */\n      eq\n        /* \"#utility.yul\":2691:2754   */\n      tag_122\n      jumpi\n        /* \"#utility.yul\":2750:2751   */\n      0x00\n        /* \"#utility.yul\":2747:2748   */\n      0x00\n        /* \"#utility.yul\":2740:2752   */\n      revert\n        /* \"#utility.yul\":2691:2754   */\n    tag_122:\n        /* \"#utility.yul\":2638:2760   */\n      pop\n      jump\t// out\n        /* \"#utility.yul\":2766:2905   */\n    tag_62:\n        /* \"#utility.yul\":2812:2817   */\n      0x00\n        /* \"#utility.yul\":2850:2856   */\n      dup2\n        /* \"#utility.yul\":2837:2857   */\n      calldataload\n        /* \"#utility.yul\":2828:2857   */\n      swap1\n      pop\n        /* \"#utility.yul\":2866:2899   */\n      tag_124\n        /* \"#utility.yul\":2893:2898   */\n      dup2\n        /* \"#utility.yul\":2866:2899   */\n      tag_61\n      jump\t// in\n    tag_124:\n        /* \"#utility.yul\":2766:2905   */\n      swap3\n      swap2\n      pop\n      pop\n      jump\t// out\n        /* \"#utility.yul\":2911:3565   */\n    tag_8:\n        /* \"#utility.yul\":2989:2995   */\n      0x00\n        /* \"#utility.yul\":2997:3003   */\n      0x00\n        /* \"#utility.yul\":3046:3048   */\n      0x40\n        /* \"#utility.yul\":3034:3043   */\n      dup4\n        /* \"#utility.yul\":3025:3032   */\n      dup6\n        /* \"#utility.yul\":3021:3044   */\n      sub\n        /* \"#utility.yul\":3017:3049   */\n      slt\n        /* \"#utility.yul\":3014:3133   */\n      iszero\n      tag_126\n      jumpi\n        /* \"#utility.yul\":3052:3131   */\n      tag_127\n      tag_48\n      jump\t// in\n    tag_127:\n        /* \"#utility.yul\":3014:3133   */\n    tag_126:\n        /* \"#utility.yul\":3200:3201   */\n      0x00\n        /* \"#utility.yul\":3189:3198   */\n      dup4\n        /* \"#utility.yul\":3185:3202   */\n      add\n        /* \"#utility.yul\":3172:3203   */\n      calldataload\n        /* \"#utility.yul\":3230:3248   */\n      0xffffffffffffffff\n        /* \"#utility.yul\":3222:3228   */\n      dup2\n        /* \"#utility.yul\":3219:3249   */\n      gt\n        /* \"#utility.yul\":3216:3333   */\n      iszero\n      tag_128\n      jumpi\n        /* \"#utility.yul\":3252:3331   */\n      tag_129\n      tag_49\n      jump\t// in\n    tag_129:\n        /* \"#utility.yul\":3216:3333   */\n    tag_128:\n        /* \"#utility.yul\":3357:3420   */\n      tag_130\n        /* \"#utility.yul\":3412:3419   */\n      dup6\n        /* \"#utility.yul\":3403:3409   */\n      dup3\n        /* \"#utility.yul\":3392:3401   */\n      dup7\n        /* \"#utility.yul\":3388:3410   */\n      add\n        /* \"#utility.yul\":3357:3420   */\n      tag_59\n      jump\t// in\n    tag_130:\n        /* \"#utility.yul\":3347:3420   */\n      swap3\n      pop\n        /* \"#utility.yul\":3143:3430   */\n      pop\n        /* \"#utility.yul\":3469:3471   */\n      0x20\n        /* \"#utility.yul\":3495:3548   */\n      tag_131\n        /* \"#utility.yul\":3540:3547   */\n      dup6\n        /* \"#utility.yul\":3531:3537   */\n      dup3\n        /* \"#utility.yul\":3520:3529   */\n      dup7\n        /* \"#utility.yul\":3516:3538   */\n      add\n        /* \"#utility.yul\":3495:3548   */\n      tag_62\n      jump\t// in\n    tag_131:\n        /* \"#utility.yul\":3485:3548   */\n      swap2\n      pop\n        /* \"#utility.yul\":3440:3558   */\n      pop\n        /* \"#utility.yul\":2911:3565   */\n      swap3\n      pop\n      swap3\n      swap1\n      pop\n      jump\t// out\n        /* \"#utility.yul\":3571:3900   */\n    tag_12:\n        /* \"#utility.yul\":3630:3636   */\n      0x00\n        /* \"#utility.yul\":3679:3681   */\n      0x20\n        /* \"#utility.yul\":3667:3676   */\n      dup3\n        /* \"#utility.yul\":3658:3665   */\n      dup5\n        /* \"#utility.yul\":3654:3677   */\n      sub\n        /* \"#utility.yul\":3650:3682   */\n      slt\n        /* \"#utility.yul\":3647:3766   */\n      iszero\n      tag_133\n      jumpi\n        /* \"#utility.yul\":3685:3764   */\n      tag_134\n      tag_48\n      jump\t// in\n    tag_134:\n        /* \"#utility.yul\":3647:3766   */\n    tag_133:\n        /* \"#utility.yul\":3805:3806   */\n      0x00\n        /* \"#utility.yul\":3830:3883   */\n      tag_135\n        /* \"#utility.yul\":3875:3882   */\n      dup5\n        /* \"#utility.yul\":3866:3872   */\n      dup3\n        /* \"#utility.yul\":3855:3864   */\n      dup6\n        /* \"#utility.yul\":3851:3873   */\n      add\n        /* \"#utility.yul\":3830:3883   */\n      tag_62\n      jump\t// in\n    tag_135:\n        /* \"#utility.yul\":3820:3883   */\n      swap2\n      pop\n        /* \"#utility.yul\":3776:3893   */\n      pop\n        /* \"#utility.yul\":3571:3900   */\n      swap3\n      swap2\n      pop\n      pop\n      jump\t// out\n        /* \"#utility.yul\":3906:4005   */\n    tag_63:\n        /* \"#utility.yul\":3958:3964   */\n      0x00\n        /* \"#utility.yul\":3992:3997   */\n      dup2\n        /* \"#utility.yul\":3986:3998   */\n      mload\n        /* \"#utility.yul\":3976:3998   */\n      swap1\n      pop\n        /* \"#utility.yul\":3906:4005   */\n      swap2\n      swap1\n      pop\n      jump\t// out\n        /* \"#utility.yul\":4011:4180   */\n    tag_64:\n        /* \"#utility.yul\":4095:4106   */\n      0x00\n        /* \"#utility.yul\":4129:4135   */\n      dup3\n        /* \"#utility.yul\":4124:4127   */\n      dup3\n        /* \"#utility.yul\":4117:4136   */\n      mstore\n        /* \"#utility.yul\":4169:4173   */\n      0x20\n        /* \"#utility.yul\":4164:4167   */\n      dup3\n        /* \"#utility.yul\":4160:4174   */\n      add\n        /* \"#utility.yul\":4145:4174   */\n      swap1\n      pop\n        /* \"#utility.yul\":4011:4180   */\n      swap3\n      swap2\n      pop\n      pop\n      jump\t// out\n        /* \"#utility.yul\":4186:4325   */\n    tag_65:\n        /* \"#utility.yul\":4275:4281   */\n      dup3\n        /* \"#utility.yul\":4270:4273   */\n      dup2\n        /* \"#utility.yul\":4265:4268   */\n      dup4\n        /* \"#utility.yul\":4259:4282   */\n      mcopy\n        /* \"#utility.yul\":4316:4317   */\n      0x00\n        /* \"#utility.yul\":4307:4313   */\n      dup4\n        /* \"#utility.yul\":4302:4305   */\n      dup4\n        /* \"#utility.yul\":4298:4314   */\n      add\n        /* \"#utility.yul\":4291:4318   */\n      mstore\n        /* \"#utility.yul\":4186:4325   */\n      pop\n      pop\n      pop\n      jump\t// out\n        /* \"#utility.yul\":4331:4708   */\n    tag_66:\n        /* \"#utility.yul\":4419:4422   */\n      0x00\n        /* \"#utility.yul\":4447:4486   */\n      tag_140\n        /* \"#utility.yul\":4480:4485   */\n      dup3\n        /* \"#utility.yul\":4447:4486   */\n      tag_63\n      jump\t// in\n    tag_140:\n        /* \"#utility.yul\":4502:4573   */\n      tag_141\n        /* \"#utility.yul\":4566:4572   */\n      dup2\n        /* \"#utility.yul\":4561:4564   */\n      dup6\n        /* \"#utility.yul\":4502:4573   */\n      tag_64\n      jump\t// in\n    tag_141:\n        /* \"#utility.yul\":4495:4573   */\n      swap4\n      pop\n        /* \"#utility.yul\":4582:4647   */\n      tag_142\n        /* \"#utility.yul\":4640:4646   */\n      dup2\n        /* \"#utility.yul\":4635:4638   */\n      dup6\n        /* \"#utility.yul\":4628:4632   */\n      0x20\n        /* \"#utility.yul\":4621:4626   */\n      dup7\n        /* \"#utility.yul\":4617:4633   */\n      add\n        /* \"#utility.yul\":4582:4647   */\n      tag_65\n      jump\t// in\n    tag_142:\n        /* \"#utility.yul\":4672:4701   */\n      tag_143\n        /* \"#utility.yul\":4694:4700   */\n      dup2\n        /* \"#utility.yul\":4672:4701   */\n      tag_52\n      jump\t// in\n    tag_143:\n        /* \"#utility.yul\":4667:4670   */\n      dup5\n        /* \"#utility.yul\":4663:4702   */\n      add\n        /* \"#utility.yul\":4656:4702   */\n      swap2\n      pop\n        /* \"#utility.yul\":4423:4708   */\n      pop\n        /* \"#utility.yul\":4331:4708   */\n      swap3\n      swap2\n      pop\n      pop\n      jump\t// out\n        /* \"#utility.yul\":4714:4894   */\n    tag_28:\n        /* \"#utility.yul\":4762:4839   */\n      0x4e487b7100000000000000000000000000000000000000000000000000000000\n        /* \"#utility.yul\":4759:4760   */\n      0x00\n        /* \"#utility.yul\":4752:4840   */\n      mstore\n        /* \"#utility.yul\":4859:4863   */\n      0x21\n        /* \"#utility.yul\":4856:4857   */\n      0x04\n        /* \"#utility.yul\":4849:4864   */\n      mstore\n        /* \"#utility.yul\":4883:4887   */\n      0x24\n        /* \"#utility.yul\":4880:4881   */\n      0x00\n        /* \"#utility.yul\":4873:4888   */\n      revert\n        /* \"#utility.yul\":4900:5013   */\n    tag_67:\n        /* \"#utility.yul\":4981:4982   */\n      0x02\n        /* \"#utility.yul\":4974:4979   */\n      dup2\n        /* \"#utility.yul\":4971:4983   */\n      lt\n        /* \"#utility.yul\":4961:5007   */\n      tag_146\n      jumpi\n        /* \"#utility.yul\":4987:5005   */\n      tag_147\n      tag_28\n      jump\t// in\n    tag_147:\n        /* \"#utility.yul\":4961:5007   */\n    tag_146:\n        /* \"#utility.yul\":4900:5013   */\n      pop\n      jump\t// out\n        /* \"#utility.yul\":5019:5146   */\n    tag_68:\n        /* \"#utility.yul\":5064:5071   */\n      0x00\n        /* \"#utility.yul\":5093:5098   */\n      dup2\n        /* \"#utility.yul\":5082:5098   */\n      swap1\n      pop\n        /* \"#utility.yul\":5099:5140   */\n      tag_149\n        /* \"#utility.yul\":5134:5139   */\n      dup3\n        /* \"#utility.yul\":5099:5140   */\n      tag_67\n      jump\t// in\n    tag_149:\n        /* \"#utility.yul\":5019:5146   */\n      swap2\n      swap1\n      pop\n      jump\t// out\n        /* \"#utility.yul\":5152:5279   */\n    tag_69:\n        /* \"#utility.yul\":5208:5217   */\n      0x00\n        /* \"#utility.yul\":5241:5273   */\n      tag_151\n        /* \"#utility.yul\":5267:5272   */\n      dup3\n        /* \"#utility.yul\":5241:5273   */\n      tag_68\n      jump\t// in\n    tag_151:\n        /* \"#utility.yul\":5228:5273   */\n      swap1\n      pop\n        /* \"#utility.yul\":5152:5279   */\n      swap2\n      swap1\n      pop\n      jump\t// out\n        /* \"#utility.yul\":5285:5428   */\n    tag_70:\n        /* \"#utility.yul\":5378:5421   */\n      tag_153\n        /* \"#utility.yul\":5415:5420   */\n      dup2\n        /* \"#utility.yul\":5378:5421   */\n      tag_69\n      jump\t// in\n    tag_153:\n        /* \"#utility.yul\":5373:5376   */\n      dup3\n        /* \"#utility.yul\":5366:5422   */\n      mstore\n        /* \"#utility.yul\":5285:5428   */\n      pop\n      pop\n      jump\t// out\n        /* \"#utility.yul\":5434:5552   */\n    tag_71:\n        /* \"#utility.yul\":5521:5545   */\n      tag_155\n        /* \"#utility.yul\":5539:5544   */\n      dup2\n        /* \"#utility.yul\":5521:5545   */\n      tag_60\n      jump\t// in\n    tag_155:\n        /* \"#utility.yul\":5516:5519   */\n      dup3\n        /* \"#utility.yul\":5509:5546   */\n      mstore\n        /* \"#utility.yul\":5434:5552   */\n      pop\n      pop\n      jump\t// out\n        /* \"#utility.yul\":5558:6103   */\n    tag_15:\n        /* \"#utility.yul\":5733:5737   */\n      0x00\n        /* \"#utility.yul\":5771:5773   */\n      0x60\n        /* \"#utility.yul\":5760:5769   */\n      dup3\n        /* \"#utility.yul\":5756:5774   */\n      add\n        /* \"#utility.yul\":5748:5774   */\n      swap1\n      pop\n        /* \"#utility.yul\":5820:5829   */\n      dup2\n        /* \"#utility.yul\":5814:5818   */\n      dup2\n        /* \"#utility.yul\":5810:5830   */\n      sub\n        /* \"#utility.yul\":5806:5807   */\n      0x00\n        /* \"#utility.yul\":5795:5804   */\n      dup4\n        /* \"#utility.yul\":5791:5808   */\n      add\n        /* \"#utility.yul\":5784:5831   */\n      mstore\n        /* \"#utility.yul\":5848:5926   */\n      tag_157\n        /* \"#utility.yul\":5921:5925   */\n      dup2\n        /* \"#utility.yul\":5912:5918   */\n      dup7\n        /* \"#utility.yul\":5848:5926   */\n      tag_66\n      jump\t// in\n    tag_157:\n        /* \"#utility.yul\":5840:5926   */\n      swap1\n      pop\n        /* \"#utility.yul\":5936:6014   */\n      tag_158\n        /* \"#utility.yul\":6010:6012   */\n      0x20\n        /* \"#utility.yul\":5999:6008   */\n      dup4\n        /* \"#utility.yul\":5995:6013   */\n      add\n        /* \"#utility.yul\":5986:5992   */\n      dup6\n        /* \"#utility.yul\":5936:6014   */\n      tag_70\n      jump\t// in\n    tag_158:\n        /* \"#utility.yul\":6024:6096   */\n      tag_159\n        /* \"#utility.yul\":6092:6094   */\n      0x40\n        /* \"#utility.yul\":6081:6090   */\n      dup4\n        /* \"#utility.yul\":6077:6095   */\n      add\n        /* \"#utility.yul\":6068:6074   */\n      dup5\n        /* \"#utility.yul\":6024:6096   */\n      tag_71\n      jump\t// in\n    tag_159:\n        /* \"#utility.yul\":5558:6103   */\n      swap5\n      swap4\n      pop\n      pop\n      pop\n      pop\n      jump\t// out\n        /* \"#utility.yul\":6109:6331   */\n    tag_19:\n        /* \"#utility.yul\":6202:6206   */\n      0x00\n        /* \"#utility.yul\":6240:6242   */\n      0x20\n        /* \"#utility.yul\":6229:6238   */\n      dup3\n        /* \"#utility.yul\":6225:6243   */\n      add\n        /* \"#utility.yul\":6217:6243   */\n      swap1\n      pop\n        /* \"#utility.yul\":6253:6324   */\n      tag_161\n        /* \"#utility.yul\":6321:6322   */\n      0x00\n        /* \"#utility.yul\":6310:6319   */\n      dup4\n        /* \"#utility.yul\":6306:6323   */\n      add\n        /* \"#utility.yul\":6297:6303   */\n      dup5\n        /* \"#utility.yul\":6253:6324   */\n      tag_71\n      jump\t// in\n    tag_161:\n        /* \"#utility.yul\":6109:6331   */\n      swap3\n      swap2\n      pop\n      pop\n      jump\t// out\n        /* \"#utility.yul\":6337:6517   */\n    tag_72:\n        /* \"#utility.yul\":6385:6462   */\n      0x4e487b7100000000000000000000000000000000000000000000000000000000\n        /* \"#utility.yul\":6382:6383   */\n      0x00\n        /* \"#utility.yul\":6375:6463   */\n      mstore\n        /* \"#utility.yul\":6482:6486   */\n      0x22\n        /* \"#utility.yul\":6479:6480   */\n      0x04\n        /* \"#utility.yul\":6472:6487   */\n      mstore\n        /* \"#utility.yul\":6506:6510   */\n      0x24\n        /* \"#utility.yul\":6503:6504   */\n      0x00\n        /* \"#utility.yul\":6496:6511   */\n      revert\n        /* \"#utility.yul\":6523:6843   */\n    tag_40:\n        /* \"#utility.yul\":6567:6573   */\n      0x00\n        /* \"#utility.yul\":6604:6605   */\n      0x02\n        /* \"#utility.yul\":6598:6602   */\n      dup3\n        /* \"#utility.yul\":6594:6606   */\n      div\n        /* \"#utility.yul\":6584:6606   */\n      swap1\n      pop\n        /* \"#utility.yul\":6651:6652   */\n      0x01\n        /* \"#utility.yul\":6645:6649   */\n      dup3\n        /* \"#utility.yul\":6641:6653   */\n      and\n        /* \"#utility.yul\":6672:6690   */\n      dup1\n        /* \"#utility.yul\":6662:6743   */\n      tag_164\n      jumpi\n        /* \"#utility.yul\":6728:6732   */\n      0x7f\n        /* \"#utility.yul\":6720:6726   */\n      dup3\n        /* \"#utility.yul\":6716:6733   */\n      and\n        /* \"#utility.yul\":6706:6733   */\n      swap2\n      pop\n        /* \"#utility.yul\":6662:6743   */\n    tag_164:\n        /* \"#utility.yul\":6790:6792   */\n      0x20\n        /* \"#utility.yul\":6782:6788   */\n      dup3\n        /* \"#utility.yul\":6779:6793   */\n      lt\n        /* \"#utility.yul\":6759:6777   */\n      dup2\n        /* \"#utility.yul\":6756:6794   */\n      sub\n        /* \"#utility.yul\":6753:6837   */\n      tag_165\n      jumpi\n        /* \"#utility.yul\":6809:6827   */\n      tag_166\n      tag_72\n      jump\t// in\n    tag_166:\n        /* \"#utility.yul\":6753:6837   */\n    tag_165:\n        /* \"#utility.yul\":6574:6843   */\n      pop\n        /* \"#utility.yul\":6523:6843   */\n      swap2\n      swap1\n      pop\n      jump\t// out\n        /* \"#utility.yul\":6849:6990   */\n    tag_73:\n        /* \"#utility.yul\":6898:6902   */\n      0x00\n        /* \"#utility.yul\":6921:6924   */\n      dup2\n        /* \"#utility.yul\":6913:6924   */\n      swap1\n      pop\n        /* \"#utility.yul\":6944:6947   */\n      dup2\n        /* \"#utility.yul\":6941:6942   */\n      0x00\n        /* \"#utility.yul\":6934:6948   */\n      mstore\n        /* \"#utility.yul\":6978:6982   */\n      0x20\n        /* \"#utility.yul\":6975:6976   */\n      0x00\n        /* \"#utility.yul\":6965:6983   */\n      keccak256\n        /* \"#utility.yul\":6957:6983   */\n      swap1\n      pop\n        /* \"#utility.yul\":6849:6990   */\n      swap2\n      swap1\n      pop\n      jump\t// out\n        /* \"#utility.yul\":6996:7089   */\n    tag_74:\n        /* \"#utility.yul\":7033:7039   */\n      0x00\n        /* \"#utility.yul\":7080:7082   */\n      0x20\n        /* \"#utility.yul\":7075:7077   */\n      0x1f\n        /* \"#utility.yul\":7068:7073   */\n      dup4\n        /* \"#utility.yul\":7064:7078   */\n      add\n        /* \"#utility.yul\":7060:7083   */\n      div\n        /* \"#utility.yul\":7050:7083   */\n      swap1\n      pop\n        /* \"#utility.yul\":6996:7089   */\n      swap2\n      swap1\n      pop\n      jump\t// out\n        /* \"#utility.yul\":7095:7202   */\n    tag_75:\n        /* \"#utility.yul\":7139:7147   */\n      0x00\n        /* \"#utility.yul\":7189:7194   */\n      dup3\n        /* \"#utility.yul\":7183:7187   */\n      dup3\n        /* \"#utility.yul\":7179:7195   */\n      shl\n        /* \"#utility.yul\":7158:7195   */\n      swap1\n      pop\n        /* \"#utility.yul\":7095:7202   */\n      swap3\n      swap2\n      pop\n      pop\n      jump\t// out\n        /* \"#utility.yul\":7208:7601   */\n    tag_76:\n        /* \"#utility.yul\":7277:7283   */\n      0x00\n        /* \"#utility.yul\":7327:7328   */\n      0x08\n        /* \"#utility.yul\":7315:7325   */\n      dup4\n        /* \"#utility.yul\":7311:7329   */\n      mul\n        /* \"#utility.yul\":7350:7447   */\n      tag_171\n        /* \"#utility.yul\":7380:7446   */\n      0xffffffffffffffffffffffffffffffffffffffffffffffffffffffffffffffff\n        /* \"#utility.yul\":7369:7378   */\n      dup3\n        /* \"#utility.yul\":7350:7447   */\n      tag_75\n      jump\t// in\n    tag_171:\n        /* \"#utility.yul\":7468:7507   */\n      tag_172\n        /* \"#utility.yul\":7498:7506   */\n      dup7\n        /* \"#utility.yul\":7487:7496   */\n      dup4\n        /* \"#utility.yul\":7468:7507   */\n      tag_75\n      jump\t// in\n    tag_172:\n        /* \"#utility.yul\":7456:7507   */\n      swap6\n      pop\n        /* \"#utility.yul\":7540:7544   */\n      dup1\n        /* \"#utility.yul\":7536:7545   */\n      not\n        /* \"#utility.yul\":7529:7534   */\n      dup5\n        /* \"#utility.yul\":7525:7546   */\n      and\n        /* \"#utility.yul\":7516:7546   */\n      swap4\n      pop\n        /* \"#utility.yul\":7589:7593   */\n      dup1\n        /* \"#utility.yul\":7579:7587   */\n      dup7\n        /* \"#utility.yul\":7575:7594   */\n      and\n        /* \"#utility.yul\":7568:7573   */\n      dup5\n        /* \"#utility.yul\":7565:7595   */\n      or\n        /* \"#utility.yul\":7555:7595   */\n      swap3\n      pop\n        /* \"#utility.yul\":7284:7601   */\n      pop\n      pop\n        /* \"#utility.yul\":7208:7601   */\n      swap4\n      swap3\n      pop\n      pop\n      pop\n      jump\t// out\n        /* \"#utility.yul\":7607:7667   */\n    tag_77:\n        /* \"#utility.yul\":7635:7638   */\n      0x00\n        /* \"#utility.yul\":7656:7661   */\n      dup2\n        /* \"#utility.yul\":7649:7661   */\n      swap1\n      pop\n        /* \"#utility.yul\":7607:7667   */\n      swap2\n      swap1\n      pop\n      jump\t// out\n        /* \"#utility.yul\":7673:7815   */\n    tag_78:\n        /* \"#utility.yul\":7723:7732   */\n      0x00\n        /* \"#utility.yul\":7756:7809   */\n      tag_175\n        /* \"#utility.yul\":7774:7808   */\n      tag_176\n        /* \"#utility.yul\":7783:7807   */\n      tag_177\n        /* \"#utility.yul\":7801:7806   */\n      dup5\n        /* \"#utility.yul\":7783:7807   */\n      tag_60\n      jump\t// in\n    tag_177:\n        /* \"#utility.yul\":7774:7808   */\n      tag_77\n      jump\t// in\n    tag_176:\n        /* \"#utility.yul\":7756:7809   */\n      tag_60\n      jump\t// in\n    tag_175:\n        /* \"#utility.yul\":7743:7809   */\n      swap1\n      pop\n        /* \"#utility.yul\":7673:7815   */\n      swap2\n      swap1\n      pop\n      jump\t// out\n        /* \"#utility.yul\":7821:7896   */\n    tag_79:\n        /* \"#utility.yul\":7864:7867   */\n      0x00\n        /* \"#utility.yul\":7885:7890   */\n      dup2\n        /* \"#utility.yul\":7878:7890   */\n      swap1\n      pop\n        /* \"#utility.yul\":7821:7896   */\n      swap2\n      swap1\n      pop\n      jump\t// out\n        /* \"#utility.yul\":7902:8171   */\n    tag_80:\n        /* \"#utility.yul\":8012:8051   */\n      tag_180\n        /* \"#utility.yul\":8043:8050   */\n      dup4\n        /* \"#utility.yul\":8012:8051   */\n      tag_78\n      jump\t// in\n    tag_180:\n        /* \"#utility.yul\":8073:8164   */\n      tag_181\n        /* \"#utility.yul\":8122:8163   */\n      tag_182\n        /* \"#utility.yul\":8146:8162   */\n      dup3\n        /* \"#utility.yul\":8122:8163   */\n      tag_79\n      jump\t// in\n    tag_182:\n        /* \"#utility.yul\":8114:8120   */\n      dup5\n        /* \"#utility.yul\":8107:8111   */\n      dup5\n        /* \"#utility.yul\":8101:8112   */\n      sload\n        /* \"#utility.yul\":8073:8164   */\n      tag_76\n      jump\t// in\n    tag_181:\n        /* \"#utility.yul\":8067:8071   */\n      dup3\n        /* \"#utility.yul\":8060:8165   */\n      sstore\n        /* \"#utility.yul\":7978:8171   */\n      pop\n        /* \"#utility.yul\":7902:8171   */\n      pop\n      pop\n      pop\n      jump\t// out\n        /* \"#utility.yul\":8177:8250   */\n    tag_81:\n        /* \"#utility.yul\":8222:8225   */\n      0x00\n        /* \"#utility.yul\":8243:8244   */\n      0x00\n        /* \"#utility.yul\":8236:8244   */\n      swap1\n      pop\n        /* \"#utility.yul\":8177:8250   */\n      swap1\n      jump\t// out\n        /* \"#utility.yul\":8256:8445   */\n    tag_82:\n        /* \"#utility.yul\":8333:8365   */\n      tag_185\n      tag_81\n      jump\t// in\n    tag_185:\n        /* \"#utility.yul\":8374:8439   */\n      tag_186\n        /* \"#utility.yul\":8432:8438   */\n      dup2\n        /* \"#utility.yul\":8424:8430   */\n      dup5\n        /* \"#utility.yul\":8418:8422   */\n      dup5\n        /* \"#utility.yul\":8374:8439   */\n      tag_80\n      jump\t// in\n    tag_186:\n        /* \"#utility.yul\":8309:8445   */\n      pop\n        /* \"#utility.yul\":8256:8445   */\n      pop\n      pop\n      jump\t// out\n        /* \"#utility.yul\":8451:8637   */\n    tag_83:\n        /* \"#utility.yul\":8511:8631   */\n    tag_188:\n        /* \"#utility.yul\":8528:8531   */\n      dup2\n        /* \"#utility.yul\":8521:8526   */\n      dup2\n        /* \"#utility.yul\":8518:8532   */\n      lt\n        /* \"#utility.yul\":8511:8631   */\n      iszero\n      tag_190\n      jumpi\n        /* \"#utility.yul\":8582:8621   */\n      tag_191\n        /* \"#utility.yul\":8619:8620   */\n      0x00\n        /* \"#utility.yul\":8612:8617   */\n      dup3\n        /* \"#utility.yul\":8582:8621   */\n      tag_82\n      jump\t// in\n    tag_191:\n        /* \"#utility.yul\":8555:8556   */\n      0x01\n        /* \"#utility.yul\":8548:8553   */\n      dup2\n        /* \"#utility.yul\":8544:8557   */\n      add\n        /* \"#utility.yul\":8535:8557   */\n      swap1\n      pop\n        /* \"#utility.yul\":8511:8631   */\n      jump(tag_188)\n    tag_190:\n        /* \"#utility.yul\":8451:8637   */\n      pop\n      pop\n      jump\t// out\n        /* \"#utility.yul\":8643:9186   */\n    tag_84:\n        /* \"#utility.yul\":8744:8746   */\n      0x1f\n        /* \"#utility.yul\":8739:8742   */\n      dup3\n        /* \"#utility.yul\":8736:8747   */\n      gt\n        /* \"#utility.yul\":8733:9179   */\n      iszero\n      tag_193\n      jumpi\n        /* \"#utility.yul\":8778:8816   */\n      tag_194\n        /* \"#utility.yul\":8810:8815   */\n      dup2\n        /* \"#utility.yul\":8778:8816   */\n      tag_73\n      jump\t// in\n    tag_194:\n        /* \"#utility.yul\":8862:8891   */\n      tag_195\n        /* \"#utility.yul\":8880:8890   */\n      dup5\n        /* \"#utility.yul\":8862:8891   */\n      tag_74\n      jump\t// in\n    tag_195:\n        /* \"#utility.yul\":8852:8860   */\n      dup2\n        /* \"#utility.yul\":8848:8892   */\n      add\n        /* \"#utility.yul\":9045:9047   */\n      0x20\n        /* \"#utility.yul\":9033:9043   */\n      dup6\n        /* \"#utility.yul\":9030:9048   */\n      lt\n        /* \"#utility.yul\":9027:9076   */\n      iszero\n      tag_196\n      jumpi\n        /* \"#utility.yul\":9066:9074   */\n      dup2\n        /* \"#utility.yul\":9051:9074   */\n      swap1\n      pop\n        /* \"#utility.yul\":9027:9076   */\n    tag_196:\n        /* \"#utility.yul\":9089:9169   */\n      tag_197\n        /* \"#utility.yul\":9145:9167   */\n      tag_198\n        /* \"#utility.yul\":9163:9166   */\n      dup6\n        /* \"#utility.yul\":9145:9167   */\n      tag_74\n      jump\t// in\n    tag_198:\n        /* \"#utility.yul\":9135:9143   */\n      dup4\n        /* \"#utility.yul\":9131:9168   */\n      add\n        /* \"#utility.yul\":9118:9129   */\n      dup3\n        /* \"#utility.yul\":9089:9169   */\n      tag_83\n      jump\t// in\n    tag_197:\n        /* \"#utility.yul\":8748:9179   */\n      pop\n      pop\n        /* \"#utility.yul\":8733:9179   */\n    tag_193:\n        /* \"#utility.yul\":8643:9186   */\n      pop\n      pop\n      pop\n      jump\t// out\n        /* \"#utility.yul\":9192:9309   */\n    tag_85:\n        /* \"#utility.yul\":9246:9254   */\n      0x00\n        /* \"#utility.yul\":9296:9301   */\n      dup3\n        /* \"#utility.yul\":9290:9294   */\n      dup3\n        /* \"#utility.yul\":9286:9302   */\n      shr\n        /* \"#utility.yul\":9265:9302   */\n      swap1\n      pop\n        /* \"#utility.yul\":9192:9309   */\n      swap3\n      swap2\n      pop\n      pop\n      jump\t// out\n        /* \"#utility.yul\":9315:9484   */\n    tag_86:\n        /* \"#utility.yul\":9359:9365   */\n      0x00\n        /* \"#utility.yul\":9392:9443   */\n      tag_201\n        /* \"#utility.yul\":9440:9441   */\n      0x00\n        /* \"#utility.yul\":9436:9442   */\n      not\n        /* \"#utility.yul\":9428:9433   */\n      dup5\n        /* \"#utility.yul\":9425:9426   */\n      0x08\n        /* \"#utility.yul\":9421:9434   */\n      mul\n        /* \"#utility.yul\":9392:9443   */\n      tag_85\n      jump\t// in\n    tag_201:\n        /* \"#utility.yul\":9388:9444   */\n      not\n        /* \"#utility.yul\":9473:9477   */\n      dup1\n        /* \"#utility.yul\":9467:9471   */\n      dup4\n        /* \"#utility.yul\":9463:9478   */\n      and\n        /* \"#utility.yul\":9453:9478   */\n      swap2\n      pop\n        /* \"#utility.yul\":9366:9484   */\n      pop\n        /* \"#utility.yul\":9315:9484   */\n      swap3\n      swap2\n      pop\n      pop\n      jump\t// out\n        /* \"#utility.yul\":9489:9784   */\n    tag_87:\n        /* \"#utility.yul\":9565:9569   */\n      0x00\n        /* \"#utility.yul\":9711:9740   */\n      tag_203\n        /* \"#utility.yul\":9736:9739   */\n      dup4\n        /* \"#utility.yul\":9730:9734   */\n      dup4\n        /* \"#utility.yul\":9711:9740   */\n      tag_86\n      jump\t// in\n    tag_203:\n        /* \"#utility.yul\":9703:9740   */\n      swap2\n      pop\n        /* \"#utility.yul\":9773:9776   */\n      dup3\n        /* \"#utility.yul\":9770:9771   */\n      0x02\n        /* \"#utility.yul\":9766:9777   */\n      mul\n        /* \"#utility.yul\":9760:9764   */\n      dup3\n        /* \"#utility.yul\":9757:9778   */\n      or\n        /* \"#utility.yul\":9749:9778   */\n      swap1\n      pop\n        /* \"#utility.yul\":9489:9784   */\n      swap3\n      swap2\n      pop\n      pop\n      jump\t// out\n        /* \"#utility.yul\":9789:11184   */\n    tag_25:\n        /* \"#utility.yul\":9906:9943   */\n      tag_205\n        /* \"#utility.yul\":9939:9942   */\n      dup3\n        /* \"#utility.yul\":9906:9943   */\n      tag_63\n      jump\t// in\n    tag_205:\n        /* \"#utility.yul\":10008:10026   */\n      0xffffffffffffffff\n        /* \"#utility.yul\":10000:10006   */\n      dup2\n        /* \"#utility.yul\":9997:10027   */\n      gt\n        /* \"#utility.yul\":9994:10050   */\n      iszero\n      tag_206\n      jumpi\n        /* \"#utility.yul\":10030:10048   */\n      tag_207\n      tag_53\n      jump\t// in\n    tag_207:\n        /* \"#utility.yul\":9994:10050   */\n    tag_206:\n        /* \"#utility.yul\":10074:10112   */\n      tag_208\n        /* \"#utility.yul\":10106:10110   */\n      dup3\n        /* \"#utility.yul\":10100:10111   */\n      sload\n        /* \"#utility.yul\":10074:10112   */\n      tag_40\n      jump\t// in\n    tag_208:\n        /* \"#utility.yul\":10159:10226   */\n      tag_209\n        /* \"#utility.yul\":10219:10225   */\n      dup3\n        /* \"#utility.yul\":10211:10217   */\n      dup3\n        /* \"#utility.yul\":10205:10209   */\n      dup6\n        /* \"#utility.yul\":10159:10226   */\n      tag_84\n      jump\t// in\n    tag_209:\n        /* \"#utility.yul\":10253:10254   */\n      0x00\n        /* \"#utility.yul\":10277:10281   */\n      0x20\n        /* \"#utility.yul\":10264:10281   */\n      swap1\n      pop\n        /* \"#utility.yul\":10309:10311   */\n      0x1f\n        /* \"#utility.yul\":10301:10307   */\n      dup4\n        /* \"#utility.yul\":10298:10312   */\n      gt\n        /* \"#utility.yul\":10326:10327   */\n      0x01\n        /* \"#utility.yul\":10321:10939   */\n      dup2\n      eq\n      tag_211\n      jumpi\n        /* \"#utility.yul\":10983:10984   */\n      0x00\n        /* \"#utility.yul\":11000:11006   */\n      dup5\n        /* \"#utility.yul\":10997:11074   */\n      iszero\n      tag_212\n      jumpi\n        /* \"#utility.yul\":11049:11058   */\n      dup3\n        /* \"#utility.yul\":11044:11047   */\n      dup8\n        /* \"#utility.yul\":11040:11059   */\n      add\n        /* \"#utility.yul\":11034:11060   */\n      mload\n        /* \"#utility.yul\":11025:11060   */\n      swap1\n      pop\n        /* \"#utility.yul\":10997:11074   */\n    tag_212:\n        /* \"#utility.yul\":11100:11167   */\n      tag_213\n        /* \"#utility.yul\":11160:11166   */\n      dup6\n        /* \"#utility.yul\":11153:11158   */\n      dup3\n        /* \"#utility.yul\":11100:11167   */\n      tag_87\n      jump\t// in\n    tag_213:\n        /* \"#utility.yul\":11094:11098   */\n      dup7\n        /* \"#utility.yul\":11087:11168   */\n      sstore\n        /* \"#utility.yul\":10956:11178   */\n      pop\n        /* \"#utility.yul\":10291:11178   */\n      jump(tag_210)\n        /* \"#utility.yul\":10321:10939   */\n    tag_211:\n        /* \"#utility.yul\":10373:10377   */\n      0x1f\n        /* \"#utility.yul\":10369:10378   */\n      not\n        /* \"#utility.yul\":10361:10367   */\n      dup5\n        /* \"#utility.yul\":10357:10379   */\n      and\n        /* \"#utility.yul\":10407:10444   */\n      tag_214\n        /* \"#utility.yul\":10439:10443   */\n      dup7\n        /* \"#utility.yul\":10407:10444   */\n      tag_73\n      jump\t// in\n    tag_214:\n        /* \"#utility.yul\":10466:10467   */\n      0x00\n        /* \"#utility.yul\":10480:10688   */\n    tag_215:\n        /* \"#utility.yul\":10494:10501   */\n      dup3\n        /* \"#utility.yul\":10491:10492   */\n      dup2\n        /* \"#utility.yul\":10488:10502   */\n      lt\n        /* \"#utility.yul\":10480:10688   */\n      iszero\n      tag_217\n      jumpi\n        /* \"#utility.yul\":10573:10582   */\n      dup5\n        /* \"#utility.yul\":10568:10571   */\n      dup10\n        /* \"#utility.yul\":10564:10583   */\n      add\n        /* \"#utility.yul\":10558:10584   */\n      mload\n        /* \"#utility.yul\":10550:10556   */\n      dup3\n        /* \"#utility.yul\":10543:10585   */\n      sstore\n        /* \"#utility.yul\":10624:10625   */\n      0x01\n        /* \"#utility.yul\":10616:10622   */\n      dup3\n        /* \"#utility.yul\":10612:10626   */\n      add\n        /* \"#utility.yul\":10602:10626   */\n      swap2\n      pop\n        /* \"#utility.yul\":10671:10673   */\n      0x20\n        /* \"#utility.yul\":10660:10669   */\n      dup6\n        /* \"#utility.yul\":10656:10674   */\n      add\n        /* \"#utility.yul\":10643:10674   */\n      swap5\n      pop\n        /* \"#utility.yul\":10517:10521   */\n      0x20\n        /* \"#utility.yul\":10514:10515   */\n      dup2\n        /* \"#utility.yul\":10510:10522   */\n      add\n        /* \"#utility.yul\":10505:10522   */\n      swap1\n      pop\n        /* \"#utility.yul\":10480:10688   */\n      jump(tag_215)\n    tag_217:\n        /* \"#utility.yul\":10716:10722   */\n      dup7\n        /* \"#utility.yul\":10707:10714   */\n      dup4\n        /* \"#utility.yul\":10704:10723   */\n      lt\n        /* \"#utility.yul\":10701:10880   */\n      iszero\n      tag_218\n      jumpi\n        /* \"#utility.yul\":10774:10783   */\n      dup5\n        /* \"#utility.yul\":10769:10772   */\n      dup10\n        /* \"#utility.yul\":10765:10784   */\n      add\n        /* \"#utility.yul\":10759:10785   */\n      mload\n        /* \"#utility.yul\":10817:10865   */\n      tag_219\n        /* \"#utility.yul\":10859:10863   */\n      0x1f\n        /* \"#utility.yul\":10851:10857   */\n      dup10\n        /* \"#utility.yul\":10847:10864   */\n      and\n        /* \"#utility.yul\":10836:10845   */\n      dup3\n        /* \"#utility.yul\":10817:10865   */\n      tag_86\n      jump\t// in\n    tag_219:\n        /* \"#utility.yul\":10809:10815   */\n      dup4\n        /* \"#utility.yul\":10802:10866   */\n      sstore\n        /* \"#utility.yul\":10724:10880   */\n      pop\n        /* \"#utility.yul\":10701:10880   */\n    tag_218:\n        /* \"#utility.yul\":10926:10927   */\n      0x01\n        /* \"#utility.yul\":10922:10923   */\n      0x02\n        /* \"#utility.yul\":10914:10920   */\n      dup9\n        /* \"#utility.yul\":10910:10924   */\n      mul\n        /* \"#utility.yul\":10906:10928   */\n      add\n        /* \"#utility.yul\":10900:10904   */\n      dup9\n        /* \"#utility.yul\":10893:10929   */\n      sstore\n        /* \"#utility.yul\":10328:10939   */\n      pop\n      pop\n      pop\n        /* \"#utility.yul\":10291:11178   */\n    tag_210:\n      pop\n        /* \"#utility.yul\":9881:11184   */\n      pop\n      pop\n      pop\n        /* \"#utility.yul\":9789:11184   */\n      pop\n      pop\n      jump\t// out\n        /* \"#utility.yul\":11190:11370   */\n    tag_88:\n        /* \"#utility.yul\":11238:11315   */\n      0x4e487b7100000000000000000000000000000000000000000000000000000000\n        /* \"#utility.yul\":11235:11236   */\n      0x00\n        /* \"#utility.yul\":11228:11316   */\n      mstore\n        /* \"#utility.yul\":11335:11339   */\n      0x11\n        /* \"#utility.yul\":11332:11333   */\n      0x04\n        /* \"#utility.yul\":11325:11340   */\n      mstore\n        /* \"#utility.yul\":11359:11363   */\n      0x24\n        /* \"#utility.yul\":11356:11357   */\n      0x00\n        /* \"#utility.yul\":11349:11364   */\n      revert\n        /* \"#utility.yul\":11376:11609   */\n    tag_36:\n        /* \"#utility.yul\":11415:11418   */\n      0x00\n        /* \"#utility.yul\":11438:11462   */\n      tag_222\n        /* \"#utility.yul\":11456:11461   */\n      dup3\n        /* \"#utility.yul\":11438:11462   */\n      tag_60\n      jump\t// in\n    tag_222:\n        /* \"#utility.yul\":11429:11462   */\n      swap2\n      pop\n        /* \"#utility.yul\":11484:11550   */\n      0xffffffffffffffffffffffffffffffffffffffffffffffffffffffffffffffff\n        /* \"#utility.yul\":11477:11482   */\n      dup3\n        /* \"#utility.yul\":11474:11551   */\n      sub\n        /* \"#utility.yul\":11471:11574   */\n      tag_223\n      jumpi\n        /* \"#utility.yul\":11554:11572   */\n      tag_224\n      tag_88\n      jump\t// in\n    tag_224:\n        /* \"#utility.yul\":11471:11574   */\n    tag_223:\n        /* \"#utility.yul\":11601:11602   */\n      0x01\n        /* \"#utility.yul\":11594:11599   */\n      dup3\n        /* \"#utility.yul\":11590:11603   */\n      add\n        /* \"#utility.yul\":11583:11603   */\n      swap1\n      pop\n        /* \"#utility.yul\":11376:11609   */\n      swap2\n      swap1\n      pop\n      jump\t// out\n\n    auxdata: 0xa2646970667358221220ccd49e6a2f5c4a97ab62bd5c055cad37e744e234d4f78a3774626c568dd9e02e64736f6c634300081e0033\n}\n",
				"bytecode": {
					"linkReferences": {},
					"object": "6080604052348015600e575f5ffd5b506109ae8061001c5f395ff3fe608060405234801561000f575f5ffd5b506004361061003f575f3560e01c80639fd84a4814610043578063ce1468281461005f578063e555134f14610091575b5f5ffd5b61005d6004803603810190610058919061047c565b6100af565b005b610079600480360381019061007491906104d6565b6101ff565b604051610088939291906105e3565b60405180910390f35b6100996102c5565b6040516100a6919061061f565b60405180910390f35b6100b76102cb565b82815f0181905250818160400181815250505f81908060018154018082558091505060019003905f5260205f2090600302015f909190919091505f820151815f0190816101049190610835565b506020820151816001015f6101000a81548160ff0219169083600181111561012f5761012e610561565b5b02179055506040820151816002015550505f60405180606001604052808581526020015f600181111561016557610164610561565b5b815260200184815250908060018154018082558091505060019003905f5260205f2090600302015f909190919091505f820151815f0190816101a79190610835565b506020820151816001015f6101000a81548160ff021916908360018111156101d2576101d1610561565b5b021790555060408201518160020155505060015f8154809291906101f590610931565b9190505550505050565b5f818154811061020d575f80fd5b905f5260205f2090600302015f91509050805f01805461022c90610665565b80601f016020809104026020016040519081016040528092919081815260200182805461025890610665565b80156102a35780601f1061027a576101008083540402835291602001916102a3565b820191905f5260205f20905b81548152906001019060200180831161028657829003601f168201915b505050505090806001015f9054906101000a900460ff16908060020154905083565b60015481565b6040518060600160405280606081526020015f60018111156102f0576102ef610561565b5b81526020015f81525090565b5f604051905090565b5f5ffd5b5f5ffd5b5f5ffd5b5f5ffd5b5f601f19601f8301169050919050565b7f4e487b71000000000000000000000000000000000000000000000000000000005f52604160045260245ffd5b61035b82610315565b810181811067ffffffffffffffff8211171561037a57610379610325565b5b80604052505050565b5f61038c6102fc565b90506103988282610352565b919050565b5f67ffffffffffffffff8211156103b7576103b6610325565b5b6103c082610315565b9050602081019050919050565b828183375f83830152505050565b5f6103ed6103e88461039d565b610383565b90508281526020810184848401111561040957610408610311565b5b6104148482856103cd565b509392505050565b5f82601f8301126104305761042f61030d565b5b81356104408482602086016103db565b91505092915050565b5f819050919050565b61045b81610449565b8114610465575f5ffd5b50565b5f8135905061047681610452565b92915050565b5f5f6040838503121561049257610491610305565b5b5f83013567ffffffffffffffff8111156104af576104ae610309565b5b6104bb8582860161041c565b92505060206104cc85828601610468565b9150509250929050565b5f602082840312156104eb576104ea610305565b5b5f6104f884828501610468565b91505092915050565b5f81519050919050565b5f82825260208201905092915050565b8281835e5f83830152505050565b5f61053382610501565b61053d818561050b565b935061054d81856020860161051b565b61055681610315565b840191505092915050565b7f4e487b71000000000000000000000000000000000000000000000000000000005f52602160045260245ffd5b6002811061059f5761059e610561565b5b50565b5f8190506105af8261058e565b919050565b5f6105be826105a2565b9050919050565b6105ce816105b4565b82525050565b6105dd81610449565b82525050565b5f6060820190508181035f8301526105fb8186610529565b905061060a60208301856105c5565b61061760408301846105d4565b949350505050565b5f6020820190506106325f8301846105d4565b92915050565b7f4e487b71000000000000000000000000000000000000000000000000000000005f52602260045260245ffd5b5f600282049050600182168061067c57607f821691505b60208210810361068f5761068e610638565b5b50919050565b5f819050815f5260205f209050919050565b5f6020601f8301049050919050565b5f82821b905092915050565b5f600883026106f17fffffffffffffffffffffffffffffffffffffffffffffffffffffffffffffffff826106b6565b6106fb86836106b6565b95508019841693508086168417925050509392505050565b5f819050919050565b5f61073661073161072c84610449565b610713565b610449565b9050919050565b5f819050919050565b61074f8361071c565b61076361075b8261073d565b8484546106c2565b825550505050565b5f5f905090565b61077a61076b565b610785818484610746565b505050565b5b818110156107a85761079d5f82610772565b60018101905061078b565b5050565b601f8211156107ed576107be81610695565b6107c7846106a7565b810160208510156107d6578190505b6107ea6107e2856106a7565b83018261078a565b50505b505050565b5f82821c905092915050565b5f61080d5f19846008026107f2565b1980831691505092915050565b5f61082583836107fe565b9150826002028217905092915050565b61083e82610501565b67ffffffffffffffff81111561085757610856610325565b5b6108618254610665565b61086c8282856107ac565b5f60209050601f83116001811461089d575f841561088b578287015190505b610895858261081a565b8655506108fc565b601f1984166108ab86610695565b5f5b828110156108d2578489015182556001820191506020850194506020810190506108ad565b868310156108ef57848901516108eb601f8916826107fe565b8355505b6001600288020188555050505b505050505050565b7f4e487b71000000000000000000000000000000000000000000000000000000005f52601160045260245ffd5b5f61093b82610449565b91507fffffffffffffffffffffffffffffffffffffffffffffffffffffffffffffffff820361096d5761096c610904565b5b60018201905091905056fea2646970667358221220ccd49e6a2f5c4a97ab62bd5c055cad37e744e234d4f78a3774626c568dd9e02e64736f6c634300081e0033",
					"opcodes": "PUSH1 0x80 PUSH1 0x40 MSTORE CALLVALUE DUP1 ISZERO PUSH1 0xE JUMPI PUSH0 PUSH0 REVERT JUMPDEST POP PUSH2 0x9AE DUP1 PUSH2 0x1C PUSH0 CODECOPY PUSH0 RETURN INVALID PUSH1 0x80 PUSH1 0x40 MSTORE CALLVALUE DUP1 ISZERO PUSH2 0xF JUMPI PUSH0 PUSH0 REVERT JUMPDEST POP PUSH1 0x4 CALLDATASIZE LT PUSH2 0x3F JUMPI PUSH0 CALLDATALOAD PUSH1 0xE0 SHR DUP1 PUSH4 0x9FD84A48 EQ PUSH2 0x43 JUMPI DUP1 PUSH4 0xCE146828 EQ PUSH2 0x5F JUMPI DUP1 PUSH4 0xE555134F EQ PUSH2 0x91 JUMPI JUMPDEST PUSH0 PUSH0 REVERT JUMPDEST PUSH2 0x5D PUSH1 0x4 DUP1 CALLDATASIZE SUB DUP2 ADD SWAP1 PUSH2 0x58 SWAP2 SWAP1 PUSH2 0x47C JUMP JUMPDEST PUSH2 0xAF JUMP JUMPDEST STOP JUMPDEST PUSH2 0x79 PUSH1 0x4 DUP1 CALLDATASIZE SUB DUP2 ADD SWAP1 PUSH2 0x74 SWAP2 SWAP1 PUSH2 0x4D6 JUMP JUMPDEST PUSH2 0x1FF JUMP JUMPDEST PUSH1 0x40 MLOAD PUSH2 0x88 SWAP4 SWAP3 SWAP2 SWAP1 PUSH2 0x5E3 JUMP JUMPDEST PUSH1 0x40 MLOAD DUP1 SWAP2 SUB SWAP1 RETURN JUMPDEST PUSH2 0x99 PUSH2 0x2C5 JUMP JUMPDEST PUSH1 0x40 MLOAD PUSH2 0xA6 SWAP2 SWAP1 PUSH2 0x61F JUMP JUMPDEST PUSH1 0x40 MLOAD DUP1 SWAP2 SUB SWAP1 RETURN JUMPDEST PUSH2 0xB7 PUSH2 0x2CB JUMP JUMPDEST DUP3 DUP2 PUSH0 ADD DUP2 SWAP1 MSTORE POP DUP2 DUP2 PUSH1 0x40 ADD DUP2 DUP2 MSTORE POP POP PUSH0 DUP2 SWAP1 DUP1 PUSH1 0x1 DUP2 SLOAD ADD DUP1 DUP3 SSTORE DUP1 SWAP2 POP POP PUSH1 0x1 SWAP1 SUB SWAP1 PUSH0 MSTORE PUSH1 0x20 PUSH0 KECCAK256 SWAP1 PUSH1 0x3 MUL ADD PUSH0 SWAP1 SWAP2 SWAP1 SWAP2 SWAP1 SWAP2 POP PUSH0 DUP3 ADD MLOAD DUP2 PUSH0 ADD SWAP1 DUP2 PUSH2 0x104 SWAP2 SWAP1 PUSH2 0x835 JUMP JUMPDEST POP PUSH1 0x20 DUP3 ADD MLOAD DUP2 PUSH1 0x1 ADD PUSH0 PUSH2 0x100 EXP DUP2 SLOAD DUP2 PUSH1 0xFF MUL NOT AND SWAP1 DUP4 PUSH1 0x1 DUP2 GT ISZERO PUSH2 0x12F JUMPI PUSH2 0x12E PUSH2 0x561 JUMP JUMPDEST JUMPDEST MUL OR SWAP1 SSTORE POP PUSH1 0x40 DUP3 ADD MLOAD DUP2 PUSH1 0x2 ADD SSTORE POP POP PUSH0 PUSH1 0x40 MLOAD DUP1 PUSH1 0x60 ADD PUSH1 0x40 MSTORE DUP1 DUP6 DUP2 MSTORE PUSH1 0x20 ADD PUSH0 PUSH1 0x1 DUP2 GT ISZERO PUSH2 0x165 JUMPI PUSH2 0x164 PUSH2 0x561 JUMP JUMPDEST JUMPDEST DUP2 MSTORE PUSH1 0x20 ADD DUP5 DUP2 MSTORE POP SWAP1 DUP1 PUSH1 0x1 DUP2 SLOAD ADD DUP1 DUP3 SSTORE DUP1 SWAP2 POP POP PUSH1 0x1 SWAP1 SUB SWAP1 PUSH0 MSTORE PUSH1 0x20 PUSH0 KECCAK256 SWAP1 PUSH1 0x3 MUL ADD PUSH0 SWAP1 SWAP2 SWAP1 SWAP2 SWAP1 SWAP2 POP PUSH0 DUP3 ADD MLOAD DUP2 PUSH0 ADD SWAP1 DUP2 PUSH2 0x1A7 SWAP2 SWAP1 PUSH2 0x835 JUMP JUMPDEST POP PUSH1 0x20 DUP3 ADD MLOAD DUP2 PUSH1 0x1 ADD PUSH0 PUSH2 0x100 EXP DUP2 SLOAD DUP2 PUSH1 0xFF MUL NOT AND SWAP1 DUP4 PUSH1 0x1 DUP2 GT ISZERO PUSH2 0x1D2 JUMPI PUSH2 0x1D1 PUSH2 0x561 JUMP JUMPDEST JUMPDEST MUL OR SWAP1 SSTORE POP PUSH1 0x40 DUP3 ADD MLOAD DUP2 PUSH1 0x2 ADD SSTORE POP POP PUSH1 0x1 PUSH0 DUP2 SLOAD DUP1 SWAP3 SWAP2 SWAP1 PUSH2 0x1F5 SWAP1 PUSH2 0x931 JUMP JUMPDEST SWAP2 SWAP1 POP SSTORE POP POP POP POP JUMP JUMPDEST PUSH0 DUP2 DUP2 SLOAD DUP2 LT PUSH2 0x20D JUMPI PUSH0 DUP1 REVERT JUMPDEST SWAP1 PUSH0 MSTORE PUSH1 0x20 PUSH0 KECCAK256 SWAP1 PUSH1 0x3 MUL ADD PUSH0 SWAP2 POP SWAP1 POP DUP1 PUSH0 ADD DUP1 SLOAD PUSH2 0x22C SWAP1 PUSH2 0x665 JUMP JUMPDEST DUP1 PUSH1 0x1F ADD PUSH1 0x20 DUP1 SWAP2 DIV MUL PUSH1 0x20 ADD PUSH1 0x40 MLOAD SWAP1 DUP2 ADD PUSH1 0x40 MSTORE DUP1 SWAP3 SWAP2 SWAP1 DUP2 DUP2 MSTORE PUSH1 0x20 ADD DUP3 DUP1 SLOAD PUSH2 0x258 SWAP1 PUSH2 0x665 JUMP JUMPDEST DUP1 ISZERO PUSH2 0x2A3 JUMPI DUP1 PUSH1 0x1F LT PUSH2 0x27A JUMPI PUSH2 0x100 DUP1 DUP4 SLOAD DIV MUL DUP4 MSTORE SWAP2 PUSH1 0x20 ADD SWAP2 PUSH2 0x2A3 JUMP JUMPDEST DUP3 ADD SWAP2 SWAP1 PUSH0 MSTORE PUSH1 0x20 PUSH0 KECCAK256 SWAP1 JUMPDEST DUP2 SLOAD DUP2 MSTORE SWAP1 PUSH1 0x1 ADD SWAP1 PUSH1 0x20 ADD DUP1 DUP4 GT PUSH2 0x286 JUMPI DUP3 SWAP1 SUB PUSH1 0x1F AND DUP3 ADD SWAP2 JUMPDEST POP POP POP POP POP SWAP1 DUP1 PUSH1 0x1 ADD PUSH0 SWAP1 SLOAD SWAP1 PUSH2 0x100 EXP SWAP1 DIV PUSH1 0xFF AND SWAP1 DUP1 PUSH1 0x2 ADD SLOAD SWAP1 POP DUP4 JUMP JUMPDEST PUSH1 0x1 SLOAD DUP2 JUMP JUMPDEST PUSH1 0x40 MLOAD DUP1 PUSH1 0x60 ADD PUSH1 0x40 MSTORE DUP1 PUSH1 0x60 DUP2 MSTORE PUSH1 0x20 ADD PUSH0 PUSH1 0x1 DUP2 GT ISZERO PUSH2 0x2F0 JUMPI PUSH2 0x2EF PUSH2 0x561 JUMP JUMPDEST JUMPDEST DUP2 MSTORE PUSH1 0x20 ADD PUSH0 DUP2 MSTORE POP SWAP1 JUMP JUMPDEST PUSH0 PUSH1 0x40 MLOAD SWAP1 POP SWAP1 JUMP JUMPDEST PUSH0 PUSH0 REVERT JUMPDEST PUSH0 PUSH0 REVERT JUMPDEST PUSH0 PUSH0 REVERT JUMPDEST PUSH0 PUSH0 REVERT JUMPDEST PUSH0 PUSH1 0x1F NOT PUSH1 0x1F DUP4 ADD AND SWAP1 POP SWAP2 SWAP1 POP JUMP JUMPDEST PUSH32 0x4E487B7100000000000000000000000000000000000000000000000000000000 PUSH0 MSTORE PUSH1 0x41 PUSH1 0x4 MSTORE PUSH1 0x24 PUSH0 REVERT JUMPDEST PUSH2 0x35B DUP3 PUSH2 0x315 JUMP JUMPDEST DUP2 ADD DUP2 DUP2 LT PUSH8 0xFFFFFFFFFFFFFFFF DUP3 GT OR ISZERO PUSH2 0x37A JUMPI PUSH2 0x379 PUSH2 0x325 JUMP JUMPDEST JUMPDEST DUP1 PUSH1 0x40 MSTORE POP POP POP JUMP JUMPDEST PUSH0 PUSH2 0x38C PUSH2 0x2FC JUMP JUMPDEST SWAP1 POP PUSH2 0x398 DUP3 DUP3 PUSH2 0x352 JUMP JUMPDEST SWAP2 SWAP1 POP JUMP JUMPDEST PUSH0 PUSH8 0xFFFFFFFFFFFFFFFF DUP3 GT ISZERO PUSH2 0x3B7 JUMPI PUSH2 0x3B6 PUSH2 0x325 JUMP JUMPDEST JUMPDEST PUSH2 0x3C0 DUP3 PUSH2 0x315 JUMP JUMPDEST SWAP1 POP PUSH1 0x20 DUP2 ADD SWAP1 POP SWAP2 SWAP1 POP JUMP JUMPDEST DUP3 DUP2 DUP4 CALLDATACOPY PUSH0 DUP4 DUP4 ADD MSTORE POP POP POP JUMP JUMPDEST PUSH0 PUSH2 0x3ED PUSH2 0x3E8 DUP5 PUSH2 0x39D JUMP JUMPDEST PUSH2 0x383 JUMP JUMPDEST SWAP1 POP DUP3 DUP2 MSTORE PUSH1 0x20 DUP2 ADD DUP5 DUP5 DUP5 ADD GT ISZERO PUSH2 0x409 JUMPI PUSH2 0x408 PUSH2 0x311 JUMP JUMPDEST JUMPDEST PUSH2 0x414 DUP5 DUP3 DUP6 PUSH2 0x3CD JUMP JUMPDEST POP SWAP4 SWAP3 POP POP POP JUMP JUMPDEST PUSH0 DUP3 PUSH1 0x1F DUP4 ADD SLT PUSH2 0x430 JUMPI PUSH2 0x42F PUSH2 0x30D JUMP JUMPDEST JUMPDEST DUP2 CALLDATALOAD PUSH2 0x440 DUP5 DUP3 PUSH1 0x20 DUP7 ADD PUSH2 0x3DB JUMP JUMPDEST SWAP2 POP POP SWAP3 SWAP2 POP POP JUMP JUMPDEST PUSH0 DUP2 SWAP1 POP SWAP2 SWAP1 POP JUMP JUMPDEST PUSH2 0x45B DUP2 PUSH2 0x449 JUMP JUMPDEST DUP2 EQ PUSH2 0x465 JUMPI PUSH0 PUSH0 REVERT JUMPDEST POP JUMP JUMPDEST PUSH0 DUP2 CALLDATALOAD SWAP1 POP PUSH2 0x476 DUP2 PUSH2 0x452 JUMP JUMPDEST SWAP3 SWAP2 POP POP JUMP JUMPDEST PUSH0 PUSH0 PUSH1 0x40 DUP4 DUP6 SUB SLT ISZERO PUSH2 0x492 JUMPI PUSH2 0x491 PUSH2 0x305 JUMP JUMPDEST JUMPDEST PUSH0 DUP4 ADD CALLDATALOAD PUSH8 0xFFFFFFFFFFFFFFFF DUP2 GT ISZERO PUSH2 0x4AF JUMPI PUSH2 0x4AE PUSH2 0x309 JUMP JUMPDEST JUMPDEST PUSH2 0x4BB DUP6 DUP3 DUP7 ADD PUSH2 0x41C JUMP JUMPDEST SWAP3 POP POP PUSH1 0x20 PUSH2 0x4CC DUP6 DUP3 DUP7 ADD PUSH2 0x468 JUMP JUMPDEST SWAP2 POP POP SWAP3 POP SWAP3 SWAP1 POP JUMP JUMPDEST PUSH0 PUSH1 0x20 DUP3 DUP5 SUB SLT ISZERO PUSH2 0x4EB JUMPI PUSH2 0x4EA PUSH2 0x305 JUMP JUMPDEST JUMPDEST PUSH0 PUSH2 0x4F8 DUP5 DUP3 DUP6 ADD PUSH2 0x468 JUMP JUMPDEST SWAP2 POP POP SWAP3 SWAP2 POP POP JUMP JUMPDEST PUSH0 DUP2 MLOAD SWAP1 POP SWAP2 SWAP1 POP JUMP JUMPDEST PUSH0 DUP3 DUP3 MSTORE PUSH1 0x20 DUP3 ADD SWAP1 POP SWAP3 SWAP2 POP POP JUMP JUMPDEST DUP3 DUP2 DUP4 MCOPY PUSH0 DUP4 DUP4 ADD MSTORE POP POP POP JUMP JUMPDEST PUSH0 PUSH2 0x533 DUP3 PUSH2 0x501 JUMP JUMPDEST PUSH2 0x53D DUP2 DUP6 PUSH2 0x50B JUMP JUMPDEST SWAP4 POP PUSH2 0x54D DUP2 DUP6 PUSH1 0x20 DUP7 ADD PUSH2 0x51B JUMP JUMPDEST PUSH2 0x556 DUP2 PUSH2 0x315 JUMP JUMPDEST DUP5 ADD SWAP2 POP POP SWAP3 SWAP2 POP POP JUMP JUMPDEST PUSH32 0x4E487B7100000000000000000000000000000000000000000000000000000000 PUSH0 MSTORE PUSH1 0x21 PUSH1 0x4 MSTORE PUSH1 0x24 PUSH0 REVERT JUMPDEST PUSH1 0x2 DUP2 LT PUSH2 0x59F JUMPI PUSH2 0x59E PUSH2 0x561 JUMP JUMPDEST JUMPDEST POP JUMP JUMPDEST PUSH0 DUP2 SWAP1 POP PUSH2 0x5AF DUP3 PUSH2 0x58E JUMP JUMPDEST SWAP2 SWAP1 POP JUMP JUMPDEST PUSH0 PUSH2 0x5BE DUP3 PUSH2 0x5A2 JUMP JUMPDEST SWAP1 POP SWAP2 SWAP1 POP JUMP JUMPDEST PUSH2 0x5CE DUP2 PUSH2 0x5B4 JUMP JUMPDEST DUP3 MSTORE POP POP JUMP JUMPDEST PUSH2 0x5DD DUP2 PUSH2 0x449 JUMP JUMPDEST DUP3 MSTORE POP POP JUMP JUMPDEST PUSH0 PUSH1 0x60 DUP3 ADD SWAP1 POP DUP2 DUP2 SUB PUSH0 DUP4 ADD MSTORE PUSH2 0x5FB DUP2 DUP7 PUSH2 0x529 JUMP JUMPDEST SWAP1 POP PUSH2 0x60A PUSH1 0x20 DUP4 ADD DUP6 PUSH2 0x5C5 JUMP JUMPDEST PUSH2 0x617 PUSH1 0x40 DUP4 ADD DUP5 PUSH2 0x5D4 JUMP JUMPDEST SWAP5 SWAP4 POP POP POP POP JUMP JUMPDEST PUSH0 PUSH1 0x20 DUP3 ADD SWAP1 POP PUSH2 0x632 PUSH0 DUP4 ADD DUP5 PUSH2 0x5D4 JUMP JUMPDEST SWAP3 SWAP2 POP POP JUMP JUMPDEST PUSH32 0x4E487B7100000000000000000000000000000000000000000000000000000000 PUSH0 MSTORE PUSH1 0x22 PUSH1 0x4 MSTORE PUSH1 0x24 PUSH0 REVERT JUMPDEST PUSH0 PUSH1 0x2 DUP3 DIV SWAP1 POP PUSH1 0x1 DUP3 AND DUP1 PUSH2 0x67C JUMPI PUSH1 0x7F DUP3 AND SWAP2 POP JUMPDEST PUSH1 0x20 DUP3 LT DUP2 SUB PUSH2 0x68F JUMPI PUSH2 0x68E PUSH2 0x638 JUMP JUMPDEST JUMPDEST POP SWAP2 SWAP1 POP JUMP JUMPDEST PUSH0 DUP2 SWAP1 POP DUP2 PUSH0 MSTORE PUSH1 0x20 PUSH0 KECCAK256 SWAP1 POP SWAP2 SWAP1 POP JUMP JUMPDEST PUSH0 PUSH1 0x20 PUSH1 0x1F DUP4 ADD DIV SWAP1 POP SWAP2 SWAP1 POP JUMP JUMPDEST PUSH0 DUP3 DUP3 SHL SWAP1 POP SWAP3 SWAP2 POP POP JUMP JUMPDEST PUSH0 PUSH1 0x8 DUP4 MUL PUSH2 0x6F1 PUSH32 0xFFFFFFFFFFFFFFFFFFFFFFFFFFFFFFFFFFFFFFFFFFFFFFFFFFFFFFFFFFFFFFFF DUP3 PUSH2 0x6B6 JUMP JUMPDEST PUSH2 0x6FB DUP7 DUP4 PUSH2 0x6B6 JUMP JUMPDEST SWAP6 POP DUP1 NOT DUP5 AND SWAP4 POP DUP1 DUP7 AND DUP5 OR SWAP3 POP POP POP SWAP4 SWAP3 POP POP POP JUMP JUMPDEST PUSH0 DUP2 SWAP1 POP SWAP2 SWAP1 POP JUMP JUMPDEST PUSH0 PUSH2 0x736 PUSH2 0x731 PUSH2 0x72C DUP5 PUSH2 0x449 JUMP JUMPDEST PUSH2 0x713 JUMP JUMPDEST PUSH2 0x449 JUMP JUMPDEST SWAP1 POP SWAP2 SWAP1 POP JUMP JUMPDEST PUSH0 DUP2 SWAP1 POP SWAP2 SWAP1 POP JUMP JUMPDEST PUSH2 0x74F DUP4 PUSH2 0x71C JUMP JUMPDEST PUSH2 0x763 PUSH2 0x75B DUP3 PUSH2 0x73D JUMP JUMPDEST DUP5 DUP5 SLOAD PUSH2 0x6C2 JUMP JUMPDEST DUP3 SSTORE POP POP POP POP JUMP JUMPDEST PUSH0 PUSH0 SWAP1 POP SWAP1 JUMP JUMPDEST PUSH2 0x77A PUSH2 0x76B JUMP JUMPDEST PUSH2 0x785 DUP2 DUP5 DUP5 PUSH2 0x746 JUMP JUMPDEST POP POP POP JUMP JUMPDEST JUMPDEST DUP2 DUP2 LT ISZERO PUSH2 0x7A8 JUMPI PUSH2 0x79D PUSH0 DUP3 PUSH2 0x772 JUMP JUMPDEST PUSH1 0x1 DUP2 ADD SWAP1 POP PUSH2 0x78B JUMP JUMPDEST POP POP JUMP JUMPDEST PUSH1 0x1F DUP3 GT ISZERO PUSH2 0x7ED JUMPI PUSH2 0x7BE DUP2 PUSH2 0x695 JUMP JUMPDEST PUSH2 0x7C7 DUP5 PUSH2 0x6A7 JUMP JUMPDEST DUP2 ADD PUSH1 0x20 DUP6 LT ISZERO PUSH2 0x7D6 JUMPI DUP2 SWAP1 POP JUMPDEST PUSH2 0x7EA PUSH2 0x7E2 DUP6 PUSH2 0x6A7 JUMP JUMPDEST DUP4 ADD DUP3 PUSH2 0x78A JUMP JUMPDEST POP POP JUMPDEST POP POP POP JUMP JUMPDEST PUSH0 DUP3 DUP3 SHR SWAP1 POP SWAP3 SWAP2 POP POP JUMP JUMPDEST PUSH0 PUSH2 0x80D PUSH0 NOT DUP5 PUSH1 0x8 MUL PUSH2 0x7F2 JUMP JUMPDEST NOT DUP1 DUP4 AND SWAP2 POP POP SWAP3 SWAP2 POP POP JUMP JUMPDEST PUSH0 PUSH2 0x825 DUP4 DUP4 PUSH2 0x7FE JUMP JUMPDEST SWAP2 POP DUP3 PUSH1 0x2 MUL DUP3 OR SWAP1 POP SWAP3 SWAP2 POP POP JUMP JUMPDEST PUSH2 0x83E DUP3 PUSH2 0x501 JUMP JUMPDEST PUSH8 0xFFFFFFFFFFFFFFFF DUP2 GT ISZERO PUSH2 0x857 JUMPI PUSH2 0x856 PUSH2 0x325 JUMP JUMPDEST JUMPDEST PUSH2 0x861 DUP3 SLOAD PUSH2 0x665 JUMP JUMPDEST PUSH2 0x86C DUP3 DUP3 DUP6 PUSH2 0x7AC JUMP JUMPDEST PUSH0 PUSH1 0x20 SWAP1 POP PUSH1 0x1F DUP4 GT PUSH1 0x1 DUP2 EQ PUSH2 0x89D JUMPI PUSH0 DUP5 ISZERO PUSH2 0x88B JUMPI DUP3 DUP8 ADD MLOAD SWAP1 POP JUMPDEST PUSH2 0x895 DUP6 DUP3 PUSH2 0x81A JUMP JUMPDEST DUP7 SSTORE POP PUSH2 0x8FC JUMP JUMPDEST PUSH1 0x1F NOT DUP5 AND PUSH2 0x8AB DUP7 PUSH2 0x695 JUMP JUMPDEST PUSH0 JUMPDEST DUP3 DUP2 LT ISZERO PUSH2 0x8D2 JUMPI DUP5 DUP10 ADD MLOAD DUP3 SSTORE PUSH1 0x1 DUP3 ADD SWAP2 POP PUSH1 0x20 DUP6 ADD SWAP5 POP PUSH1 0x20 DUP2 ADD SWAP1 POP PUSH2 0x8AD JUMP JUMPDEST DUP7 DUP4 LT ISZERO PUSH2 0x8EF JUMPI DUP5 DUP10 ADD MLOAD PUSH2 0x8EB PUSH1 0x1F DUP10 AND DUP3 PUSH2 0x7FE JUMP JUMPDEST DUP4 SSTORE POP JUMPDEST PUSH1 0x1 PUSH1 0x2 DUP9 MUL ADD DUP9 SSTORE POP POP POP JUMPDEST POP POP POP POP POP POP JUMP JUMPDEST PUSH32 0x4E487B7100000000000000000000000000000000000000000000000000000000 PUSH0 MSTORE PUSH1 0x11 PUSH1 0x4 MSTORE PUSH1 0x24 PUSH0 REVERT JUMPDEST PUSH0 PUSH2 0x93B DUP3 PUSH2 0x449 JUMP JUMPDEST SWAP2 POP PUSH32 0xFFFFFFFFFFFFFFFFFFFFFFFFFFFFFFFFFFFFFFFFFFFFFFFFFFFFFFFFFFFFFFFF DUP3 SUB PUSH2 0x96D JUMPI PUSH2 0x96C PUSH2 0x904 JUMP JUMPDEST JUMPDEST PUSH1 0x1 DUP3 ADD SWAP1 POP SWAP2 SWAP1 POP JUMP INVALID LOG2 PUSH5 0x6970667358 0x22 SLT KECCAK256 0xCC 0xD4 SWAP15 PUSH11 0x2F5C4A97AB62BD5C055CAD CALLDATACOPY SWAPN 0x44 0xE2 CALLVALUE 0xD4 0xF7 DUP11 CALLDATACOPY PUSH21 0x626C568DD9E02E64736F6C634300081E0033000000 "
				},
				"gasEstimates": {
					"creation": {
						"codeDepositCost": "495600",
						"executionCost": "528",
						"totalCost": "496128"
					},
					"external": {
						"addfriends(string,uint256)": "infinite",
						"friends(uint256)": "infinite",
						"friendsCount()": "2447"
					}
				},
				"methodIdentifiers": {
					"addfriends(string,uint256)": "9fd84a48",
					"friends(uint256)": "ce146828",
					"friendsCount()": "e555134f"
				}
			},
			"storageLayout": {
				"storage": [
					{
						"astId": 16,
						"contract": "ExerciciosDeTeste/teste.sol:ListaDeAmigo",
						"label": "friends",
						"offset": 0,
						"slot": "0",
						"type": "t_array(t_struct(Amigos)12_storage)dyn_storage"
					},
					{
						"astId": 18,
						"contract": "ExerciciosDeTeste/teste.sol:ListaDeAmigo",
						"label": "friendsCount",
						"offset": 0,
						"slot": "1",
						"type": "t_uint256"
					}
				],
				"types": {
					"t_array(t_struct(Amigos)12_storage)dyn_storage": {
						"base": "t_struct(Amigos)12_storage",
						"encoding": "dynamic_array",
						"label": "struct ListaDeAmigo.Amigos[]",
						"numberOfBytes": "32"
					},
					"t_enum(Status)4": {
						"encoding": "inplace",
						"label": "enum ListaDeAmigo.Status",
						"numberOfBytes": "1"
					},
					"t_string_storage": {
						"encoding": "bytes",
						"label": "string",
						"numberOfBytes": "32"
					},
					"t_struct(Amigos)12_storage": {
						"encoding": "inplace",
						"label": "struct ListaDeAmigo.Amigos",
						"members": [
							{
								"astId": 6,
								"contract": "ExerciciosDeTeste/teste.sol:ListaDeAmigo",
								"label": "nome",
								"offset": 0,
								"slot": "0",
								"type": "t_string_storage"
							},
							{
								"astId": 9,
								"contract": "ExerciciosDeTeste/teste.sol:ListaDeAmigo",
								"label": "status",
								"offset": 0,
								"slot": "1",
								"type": "t_enum(Status)4"
							},
							{
								"astId": 11,
								"contract": "ExerciciosDeTeste/teste.sol:ListaDeAmigo",
								"label": "idade",
								"offset": 0,
								"slot": "2",
								"type": "t_uint256"
							}
						],
						"numberOfBytes": "96"
					},
					"t_uint256": {
						"encoding": "inplace",
						"label": "uint256",
						"numberOfBytes": "32"
					}
				}
			},
			"userdoc": {
				"kind": "user",
				"methods": {},
				"version": 1
			}
		}
	}
}