{
	"ExerciciosDeTeste/Estrutura.sol": {
		"Estrutura": {
			"abi": [
				{
					"inputs": [
						{
							"internalType": "uint256",
							"name": "_initialBalance",
							"type": "uint256"
						}
					],
					"stateMutability": "nonpayable",
					"type": "constructor"
				},
				{
					"inputs": [
						{
							"internalType": "address",
							"name": "owner",
							"type": "address"
						}
					],
					"name": "OwnableInvalidOwner",
					"type": "error"
				},
				{
					"inputs": [
						{
							"internalType": "address",
							"name": "account",
							"type": "address"
						}
					],
					"name": "OwnableUnauthorizedAccount",
					"type": "error"
				},
				{
					"anonymous": false,
					"inputs": [
						{
							"indexed": true,
							"internalType": "address",
							"name": "from",
							"type": "address"
						},
						{
							"indexed": false,
							"internalType": "uint256",
							"name": "valor",
							"type": "uint256"
						}
					],
					"name": "Deposito",
					"type": "event"
				},
				{
					"anonymous": false,
					"inputs": [
						{
							"indexed": true,
							"internalType": "address",
							"name": "previousOwner",
							"type": "address"
						},
						{
							"indexed": true,
							"internalType": "address",
							"name": "newOwner",
							"type": "address"
						}
					],
					"name": "OwnershipTransferred",
					"type": "event"
				},
				{
					"inputs": [],
					"name": "balance",
					"outputs": [
						{
							"internalType": "uint256",
							"name": "",
							"type": "uint256"
						}
					],
					"stateMutability": "view",
					"type": "function"
				},
				{
					"inputs": [
						{
							"internalType": "uint256",
							"name": "_valor",
							"type": "uint256"
						}
					],
					"name": "depositar",
					"outputs": [],
					"stateMutability": "nonpayable",
					"type": "function"
				},
				{
					"inputs": [],
					"name": "owner",
					"outputs": [
						{
							"internalType": "address",
							"name": "",
							"type": "address"
						}
					],
					"stateMutability": "view",
					"type": "function"
				},
				{
					"inputs": [],
					"name": "renounceOwnership",
					"outputs": [],
					"stateMutability": "nonpayable",
					"type": "function"
				},
				{
					"inputs": [
						{
							"internalType": "address",
							"name": "newOwner",
							"type": "address"
						}
					],
					"name": "transferOwnership",
					"outputs": [],
					"stateMutability": "nonpayable",
					"type": "function"
				}
			],
			"devdoc": {
				"details": "Este contrato herda a biblioteca Ownable do OpenZeppelin para controle de acesso",
				"errors": {
					"OwnableInvalidOwner(address)": [
						{
							"details": "The owner is not a valid owner account. (eg. `address(0)`)"
						}
					],
					"OwnableUnauthorizedAccount(address)": [
						{
							"details": "The caller account is not authorized to perform an operation."
						}
					]
				},
				"events": {
					"Deposito(address,uint256)": {
						"params": {
							"from": "Endereço que fez o depósito",
							"valor": "Valor depositado"
						}
					}
				},
				"kind": "dev",
				"methods": {
					"constructor": {
						"details": "Define o dono do contrato usando o Ownable e inicializa o saldo"
					},
					"depositar(uint256)": {
						"params": {
							"_valor": "O valor a ser adicionado ao saldo"
						}
					},
					"owner()": {
						"details": "Returns the address of the current owner."
					},
					"renounceOwnership()": {
						"details": "Leaves the contract without owner. It will not be possible to call `onlyOwner` functions. Can only be called by the current owner. NOTE: Renouncing ownership will leave the contract without an owner, thereby disabling any functionality that is only available to the owner."
					},
					"transferOwnership(address)": {
						"details": "Transfers ownership of the contract to a new account (`newOwner`). Can only be called by the current owner."
					}
				},
				"title": "Exemplo de Contrato Básico",
				"version": 1
			},
			"evm": {
				"assembly": "    /* \"ExerciciosDeTeste/Estrutura.sol\":329:1132  contract Estrutura is Ownable {... */\n  mstore(0x40, 0x80)\n    /* \"ExerciciosDeTeste/Estrutura.sol\":798:896  constructor(uint _initialBalance) Ownable(msg.sender) {... */\n  callvalue\n  dup1\n  iszero\n  tag_1\n  jumpi\n  revert(0x00, 0x00)\ntag_1:\n  pop\n  mload(0x40)\n  sub(codesize, bytecodeSize)\n  dup1\n  bytecodeSize\n  dup4\n  codecopy\n  dup2\n  dup2\n  add\n  0x40\n  mstore\n  dup2\n  add\n  swap1\n  tag_2\n  swap2\n  swap1\n  tag_3\n  jump\t// in\ntag_2:\n    /* \"ExerciciosDeTeste/Estrutura.sol\":840:850  msg.sender */\n  caller\n    /* \"@openzeppelin/contracts/access/Ownable.sol\":1297:1298  0 */\n  0x00\n    /* \"@openzeppelin/contracts/access/Ownable.sol\":1273:1299  initialOwner == address(0) */\n  0xffffffffffffffffffffffffffffffffffffffff\n  and\n    /* \"@openzeppelin/contracts/access/Ownable.sol\":1273:1285  initialOwner */\n  dup2\n    /* \"@openzeppelin/contracts/access/Ownable.sol\":1273:1299  initialOwner == address(0) */\n  0xffffffffffffffffffffffffffffffffffffffff\n  and\n  sub\n    /* \"@openzeppelin/contracts/access/Ownable.sol\":1269:1364  if (initialOwner == address(0)) {... */\n  tag_7\n  jumpi\n    /* \"@openzeppelin/contracts/access/Ownable.sol\":1350:1351  0 */\n  0x00\n    /* \"@openzeppelin/contracts/access/Ownable.sol\":1322:1353  OwnableInvalidOwner(address(0)) */\n  mload(0x40)\n  0x1e4fbdf700000000000000000000000000000000000000000000000000000000\n  dup2\n  mstore\n  0x04\n  add\n  tag_8\n  swap2\n  swap1\n  tag_9\n  jump\t// in\ntag_8:\n  mload(0x40)\n  dup1\n  swap2\n  sub\n  swap1\n  revert\n    /* \"@openzeppelin/contracts/access/Ownable.sol\":1269:1364  if (initialOwner == address(0)) {... */\ntag_7:\n    /* \"@openzeppelin/contracts/access/Ownable.sol\":1373:1405  _transferOwnership(initialOwner) */\n  tag_10\n    /* \"@openzeppelin/contracts/access/Ownable.sol\":1392:1404  initialOwner */\n  dup2\n    /* \"@openzeppelin/contracts/access/Ownable.sol\":1373:1391  _transferOwnership */\n  shl(0x20, tag_11)\n    /* \"@openzeppelin/contracts/access/Ownable.sol\":1373:1405  _transferOwnership(initialOwner) */\n  0x20\n  shr\n  jump\t// in\ntag_10:\n    /* \"@openzeppelin/contracts/access/Ownable.sol\":1225:1412  constructor(address initialOwner) {... */\n  pop\n    /* \"ExerciciosDeTeste/Estrutura.sol\":873:888  _initialBalance */\n  dup1\n    /* \"ExerciciosDeTeste/Estrutura.sol\":863:870  balance */\n  0x01\n    /* \"ExerciciosDeTeste/Estrutura.sol\":863:888  balance = _initialBalance */\n  dup2\n  swap1\n  sstore\n  pop\n    /* \"ExerciciosDeTeste/Estrutura.sol\":798:896  constructor(uint _initialBalance) Ownable(msg.sender) {... */\n  pop\n    /* \"ExerciciosDeTeste/Estrutura.sol\":329:1132  contract Estrutura is Ownable {... */\n  jump(tag_13)\n    /* \"@openzeppelin/contracts/access/Ownable.sol\":2912:3099  function _transferOwnership(address newOwner) internal virtual {... */\ntag_11:\n    /* \"@openzeppelin/contracts/access/Ownable.sol\":2985:3001  address oldOwner */\n  0x00\n    /* \"@openzeppelin/contracts/access/Ownable.sol\":3004:3010  _owner */\n  0x00\n  0x00\n  swap1\n  sload\n  swap1\n  0x0100\n  exp\n  swap1\n  div\n  0xffffffffffffffffffffffffffffffffffffffff\n  and\n    /* \"@openzeppelin/contracts/access/Ownable.sol\":2985:3010  address oldOwner = _owner */\n  swap1\n  pop\n    /* \"@openzeppelin/contracts/access/Ownable.sol\":3029:3037  newOwner */\n  dup2\n    /* \"@openzeppelin/contracts/access/Ownable.sol\":3020:3026  _owner */\n  0x00\n  0x00\n    /* \"@openzeppelin/contracts/access/Ownable.sol\":3020:3037  _owner = newOwner */\n  0x0100\n  exp\n  dup2\n  sload\n  dup2\n  0xffffffffffffffffffffffffffffffffffffffff\n  mul\n  not\n  and\n  swap1\n  dup4\n  0xffffffffffffffffffffffffffffffffffffffff\n  and\n  mul\n  or\n  swap1\n  sstore\n  pop\n    /* \"@openzeppelin/contracts/access/Ownable.sol\":3083:3091  newOwner */\n  dup2\n    /* \"@openzeppelin/contracts/access/Ownable.sol\":3052:3092  OwnershipTransferred(oldOwner, newOwner) */\n  0xffffffffffffffffffffffffffffffffffffffff\n  and\n    /* \"@openzeppelin/contracts/access/Ownable.sol\":3073:3081  oldOwner */\n  dup2\n    /* \"@openzeppelin/contracts/access/Ownable.sol\":3052:3092  OwnershipTransferred(oldOwner, newOwner) */\n  0xffffffffffffffffffffffffffffffffffffffff\n  and\n  0x8be0079c531659141344cd1fd0a4f28419497f9722a3daafe3b4186f6b6457e0\n  mload(0x40)\n  mload(0x40)\n  dup1\n  swap2\n  sub\n  swap1\n  log3\n    /* \"@openzeppelin/contracts/access/Ownable.sol\":2975:3099  {... */\n  pop\n    /* \"@openzeppelin/contracts/access/Ownable.sol\":2912:3099  function _transferOwnership(address newOwner) internal virtual {... */\n  pop\n  jump\t// out\n    /* \"#utility.yul\":88:205   */\ntag_16:\n    /* \"#utility.yul\":197:198   */\n  0x00\n    /* \"#utility.yul\":194:195   */\n  0x00\n    /* \"#utility.yul\":187:199   */\n  revert\n    /* \"#utility.yul\":334:411   */\ntag_18:\n    /* \"#utility.yul\":371:378   */\n  0x00\n    /* \"#utility.yul\":400:405   */\n  dup2\n    /* \"#utility.yul\":389:405   */\n  swap1\n  pop\n    /* \"#utility.yul\":334:411   */\n  swap2\n  swap1\n  pop\n  jump\t// out\n    /* \"#utility.yul\":417:539   */\ntag_19:\n    /* \"#utility.yul\":490:514   */\n  tag_30\n    /* \"#utility.yul\":508:513   */\n  dup2\n    /* \"#utility.yul\":490:514   */\n  tag_18\n  jump\t// in\ntag_30:\n    /* \"#utility.yul\":483:488   */\n  dup2\n    /* \"#utility.yul\":480:515   */\n  eq\n    /* \"#utility.yul\":470:533   */\n  tag_31\n  jumpi\n    /* \"#utility.yul\":529:530   */\n  0x00\n    /* \"#utility.yul\":526:527   */\n  0x00\n    /* \"#utility.yul\":519:531   */\n  revert\n    /* \"#utility.yul\":470:533   */\ntag_31:\n    /* \"#utility.yul\":417:539   */\n  pop\n  jump\t// out\n    /* \"#utility.yul\":545:688   */\ntag_20:\n    /* \"#utility.yul\":602:607   */\n  0x00\n    /* \"#utility.yul\":633:639   */\n  dup2\n    /* \"#utility.yul\":627:640   */\n  mload\n    /* \"#utility.yul\":618:640   */\n  swap1\n  pop\n    /* \"#utility.yul\":649:682   */\n  tag_33\n    /* \"#utility.yul\":676:681   */\n  dup2\n    /* \"#utility.yul\":649:682   */\n  tag_19\n  jump\t// in\ntag_33:\n    /* \"#utility.yul\":545:688   */\n  swap3\n  swap2\n  pop\n  pop\n  jump\t// out\n    /* \"#utility.yul\":694:1045   */\ntag_3:\n    /* \"#utility.yul\":764:770   */\n  0x00\n    /* \"#utility.yul\":813:815   */\n  0x20\n    /* \"#utility.yul\":801:810   */\n  dup3\n    /* \"#utility.yul\":792:799   */\n  dup5\n    /* \"#utility.yul\":788:811   */\n  sub\n    /* \"#utility.yul\":784:816   */\n  slt\n    /* \"#utility.yul\":781:900   */\n  iszero\n  tag_35\n  jumpi\n    /* \"#utility.yul\":819:898   */\n  tag_36\n  tag_16\n  jump\t// in\ntag_36:\n    /* \"#utility.yul\":781:900   */\ntag_35:\n    /* \"#utility.yul\":939:940   */\n  0x00\n    /* \"#utility.yul\":964:1028   */\n  tag_37\n    /* \"#utility.yul\":1020:1027   */\n  dup5\n    /* \"#utility.yul\":1011:1017   */\n  dup3\n    /* \"#utility.yul\":1000:1009   */\n  dup6\n    /* \"#utility.yul\":996:1018   */\n  add\n    /* \"#utility.yul\":964:1028   */\n  tag_20\n  jump\t// in\ntag_37:\n    /* \"#utility.yul\":954:1028   */\n  swap2\n  pop\n    /* \"#utility.yul\":910:1038   */\n  pop\n    /* \"#utility.yul\":694:1045   */\n  swap3\n  swap2\n  pop\n  pop\n  jump\t// out\n    /* \"#utility.yul\":1051:1177   */\ntag_21:\n    /* \"#utility.yul\":1088:1095   */\n  0x00\n    /* \"#utility.yul\":1128:1170   */\n  0xffffffffffffffffffffffffffffffffffffffff\n    /* \"#utility.yul\":1121:1126   */\n  dup3\n    /* \"#utility.yul\":1117:1171   */\n  and\n    /* \"#utility.yul\":1106:1171   */\n  swap1\n  pop\n    /* \"#utility.yul\":1051:1177   */\n  swap2\n  swap1\n  pop\n  jump\t// out\n    /* \"#utility.yul\":1183:1279   */\ntag_22:\n    /* \"#utility.yul\":1220:1227   */\n  0x00\n    /* \"#utility.yul\":1249:1273   */\n  tag_40\n    /* \"#utility.yul\":1267:1272   */\n  dup3\n    /* \"#utility.yul\":1249:1273   */\n  tag_21\n  jump\t// in\ntag_40:\n    /* \"#utility.yul\":1238:1273   */\n  swap1\n  pop\n    /* \"#utility.yul\":1183:1279   */\n  swap2\n  swap1\n  pop\n  jump\t// out\n    /* \"#utility.yul\":1285:1403   */\ntag_23:\n    /* \"#utility.yul\":1372:1396   */\n  tag_42\n    /* \"#utility.yul\":1390:1395   */\n  dup2\n    /* \"#utility.yul\":1372:1396   */\n  tag_22\n  jump\t// in\ntag_42:\n    /* \"#utility.yul\":1367:1370   */\n  dup3\n    /* \"#utility.yul\":1360:1397   */\n  mstore\n    /* \"#utility.yul\":1285:1403   */\n  pop\n  pop\n  jump\t// out\n    /* \"#utility.yul\":1409:1631   */\ntag_9:\n    /* \"#utility.yul\":1502:1506   */\n  0x00\n    /* \"#utility.yul\":1540:1542   */\n  0x20\n    /* \"#utility.yul\":1529:1538   */\n  dup3\n    /* \"#utility.yul\":1525:1543   */\n  add\n    /* \"#utility.yul\":1517:1543   */\n  swap1\n  pop\n    /* \"#utility.yul\":1553:1624   */\n  tag_44\n    /* \"#utility.yul\":1621:1622   */\n  0x00\n    /* \"#utility.yul\":1610:1619   */\n  dup4\n    /* \"#utility.yul\":1606:1623   */\n  add\n    /* \"#utility.yul\":1597:1603   */\n  dup5\n    /* \"#utility.yul\":1553:1624   */\n  tag_23\n  jump\t// in\ntag_44:\n    /* \"#utility.yul\":1409:1631   */\n  swap3\n  swap2\n  pop\n  pop\n  jump\t// out\n    /* \"ExerciciosDeTeste/Estrutura.sol\":329:1132  contract Estrutura is Ownable {... */\ntag_13:\n  dataSize(sub_0)\n  dup1\n  dataOffset(sub_0)\n  0x00\n  codecopy\n  0x00\n  return\nstop\n\nsub_0: assembly {\n        /* \"ExerciciosDeTeste/Estrutura.sol\":329:1132  contract Estrutura is Ownable {... */\n      mstore(0x40, 0x80)\n      callvalue\n      dup1\n      iszero\n      tag_1\n      jumpi\n      revert(0x00, 0x00)\n    tag_1:\n      pop\n      jumpi(tag_2, lt(calldatasize, 0x04))\n      shr(0xe0, calldataload(0x00))\n      dup1\n      0x715018a6\n      eq\n      tag_3\n      jumpi\n      dup1\n      0x8da5cb5b\n      eq\n      tag_4\n      jumpi\n      dup1\n      0xb69ef8a8\n      eq\n      tag_5\n      jumpi\n      dup1\n      0xd5ca6228\n      eq\n      tag_6\n      jumpi\n      dup1\n      0xf2fde38b\n      eq\n      tag_7\n      jumpi\n    tag_2:\n      revert(0x00, 0x00)\n        /* \"@openzeppelin/contracts/access/Ownable.sol\":2293:2394  function renounceOwnership() public virtual onlyOwner {... */\n    tag_3:\n      tag_8\n      tag_9\n      jump\t// in\n    tag_8:\n      stop\n        /* \"@openzeppelin/contracts/access/Ownable.sol\":1638:1723  function owner() public view virtual returns (address) {... */\n    tag_4:\n      tag_10\n      tag_11\n      jump\t// in\n    tag_10:\n      mload(0x40)\n      tag_12\n      swap2\n      swap1\n      tag_13\n      jump\t// in\n    tag_12:\n      mload(0x40)\n      dup1\n      swap2\n      sub\n      swap1\n      return\n        /* \"ExerciciosDeTeste/Estrutura.sol\":395:417  uint256 public balance */\n    tag_5:\n      tag_14\n      tag_15\n      jump\t// in\n    tag_14:\n      mload(0x40)\n      tag_16\n      swap2\n      swap1\n      tag_17\n      jump\t// in\n    tag_16:\n      mload(0x40)\n      dup1\n      swap2\n      sub\n      swap1\n      return\n        /* \"ExerciciosDeTeste/Estrutura.sol\":1007:1129  function depositar(uint256 _valor) public {... */\n    tag_6:\n      tag_18\n      0x04\n      dup1\n      calldatasize\n      sub\n      dup2\n      add\n      swap1\n      tag_19\n      swap2\n      swap1\n      tag_20\n      jump\t// in\n    tag_19:\n      tag_21\n      jump\t// in\n    tag_18:\n      stop\n        /* \"@openzeppelin/contracts/access/Ownable.sol\":2543:2758  function transferOwnership(address newOwner) public virtual onlyOwner {... */\n    tag_7:\n      tag_22\n      0x04\n      dup1\n      calldatasize\n      sub\n      dup2\n      add\n      swap1\n      tag_23\n      swap2\n      swap1\n      tag_24\n      jump\t// in\n    tag_23:\n      tag_25\n      jump\t// in\n    tag_22:\n      stop\n        /* \"@openzeppelin/contracts/access/Ownable.sol\":2293:2394  function renounceOwnership() public virtual onlyOwner {... */\n    tag_9:\n        /* \"@openzeppelin/contracts/access/Ownable.sol\":1531:1544  _checkOwner() */\n      tag_27\n        /* \"@openzeppelin/contracts/access/Ownable.sol\":1531:1542  _checkOwner */\n      tag_28\n        /* \"@openzeppelin/contracts/access/Ownable.sol\":1531:1544  _checkOwner() */\n      jump\t// in\n    tag_27:\n        /* \"@openzeppelin/contracts/access/Ownable.sol\":2357:2387  _transferOwnership(address(0)) */\n      tag_30\n        /* \"@openzeppelin/contracts/access/Ownable.sol\":2384:2385  0 */\n      0x00\n        /* \"@openzeppelin/contracts/access/Ownable.sol\":2357:2375  _transferOwnership */\n      tag_31\n        /* \"@openzeppelin/contracts/access/Ownable.sol\":2357:2387  _transferOwnership(address(0)) */\n      jump\t// in\n    tag_30:\n        /* \"@openzeppelin/contracts/access/Ownable.sol\":2293:2394  function renounceOwnership() public virtual onlyOwner {... */\n      jump\t// out\n        /* \"@openzeppelin/contracts/access/Ownable.sol\":1638:1723  function owner() public view virtual returns (address) {... */\n    tag_11:\n        /* \"@openzeppelin/contracts/access/Ownable.sol\":1684:1691  address */\n      0x00\n        /* \"@openzeppelin/contracts/access/Ownable.sol\":1710:1716  _owner */\n      0x00\n      0x00\n      swap1\n      sload\n      swap1\n      0x0100\n      exp\n      swap1\n      div\n      0xffffffffffffffffffffffffffffffffffffffff\n      and\n        /* \"@openzeppelin/contracts/access/Ownable.sol\":1703:1716  return _owner */\n      swap1\n      pop\n        /* \"@openzeppelin/contracts/access/Ownable.sol\":1638:1723  function owner() public view virtual returns (address) {... */\n      swap1\n      jump\t// out\n        /* \"ExerciciosDeTeste/Estrutura.sol\":395:417  uint256 public balance */\n    tag_15:\n      sload(0x01)\n      dup2\n      jump\t// out\n        /* \"ExerciciosDeTeste/Estrutura.sol\":1007:1129  function depositar(uint256 _valor) public {... */\n    tag_21:\n        /* \"ExerciciosDeTeste/Estrutura.sol\":1071:1077  _valor */\n      dup1\n        /* \"ExerciciosDeTeste/Estrutura.sol\":1060:1067  balance */\n      0x01\n      0x00\n        /* \"ExerciciosDeTeste/Estrutura.sol\":1060:1077  balance += _valor */\n      dup3\n      dup3\n      sload\n      tag_34\n      swap2\n      swap1\n      tag_35\n      jump\t// in\n    tag_34:\n      swap3\n      pop\n      pop\n      dup2\n      swap1\n      sstore\n      pop\n        /* \"ExerciciosDeTeste/Estrutura.sol\":1102:1112  msg.sender */\n      caller\n        /* \"ExerciciosDeTeste/Estrutura.sol\":1093:1121  Deposito(msg.sender, _valor) */\n      0xffffffffffffffffffffffffffffffffffffffff\n      and\n      0x453529dac6ef979a41d67fbeeabdfae29903c185f64d77aa690df9eca5f1aa60\n        /* \"ExerciciosDeTeste/Estrutura.sol\":1114:1120  _valor */\n      dup3\n        /* \"ExerciciosDeTeste/Estrutura.sol\":1093:1121  Deposito(msg.sender, _valor) */\n      mload(0x40)\n      tag_36\n      swap2\n      swap1\n      tag_17\n      jump\t// in\n    tag_36:\n      mload(0x40)\n      dup1\n      swap2\n      sub\n      swap1\n      log2\n        /* \"ExerciciosDeTeste/Estrutura.sol\":1007:1129  function depositar(uint256 _valor) public {... */\n      pop\n      jump\t// out\n        /* \"@openzeppelin/contracts/access/Ownable.sol\":2543:2758  function transferOwnership(address newOwner) public virtual onlyOwner {... */\n    tag_25:\n        /* \"@openzeppelin/contracts/access/Ownable.sol\":1531:1544  _checkOwner() */\n      tag_38\n        /* \"@openzeppelin/contracts/access/Ownable.sol\":1531:1542  _checkOwner */\n      tag_28\n        /* \"@openzeppelin/contracts/access/Ownable.sol\":1531:1544  _checkOwner() */\n      jump\t// in\n    tag_38:\n        /* \"@openzeppelin/contracts/access/Ownable.sol\":2647:2648  0 */\n      0x00\n        /* \"@openzeppelin/contracts/access/Ownable.sol\":2627:2649  newOwner == address(0) */\n      0xffffffffffffffffffffffffffffffffffffffff\n      and\n        /* \"@openzeppelin/contracts/access/Ownable.sol\":2627:2635  newOwner */\n      dup2\n        /* \"@openzeppelin/contracts/access/Ownable.sol\":2627:2649  newOwner == address(0) */\n      0xffffffffffffffffffffffffffffffffffffffff\n      and\n      sub\n        /* \"@openzeppelin/contracts/access/Ownable.sol\":2623:2714  if (newOwner == address(0)) {... */\n      tag_40\n      jumpi\n        /* \"@openzeppelin/contracts/access/Ownable.sol\":2700:2701  0 */\n      0x00\n        /* \"@openzeppelin/contracts/access/Ownable.sol\":2672:2703  OwnableInvalidOwner(address(0)) */\n      mload(0x40)\n      0x1e4fbdf700000000000000000000000000000000000000000000000000000000\n      dup2\n      mstore\n      0x04\n      add\n      tag_41\n      swap2\n      swap1\n      tag_13\n      jump\t// in\n    tag_41:\n      mload(0x40)\n      dup1\n      swap2\n      sub\n      swap1\n      revert\n        /* \"@openzeppelin/contracts/access/Ownable.sol\":2623:2714  if (newOwner == address(0)) {... */\n    tag_40:\n        /* \"@openzeppelin/contracts/access/Ownable.sol\":2723:2751  _transferOwnership(newOwner) */\n      tag_42\n        /* \"@openzeppelin/contracts/access/Ownable.sol\":2742:2750  newOwner */\n      dup2\n        /* \"@openzeppelin/contracts/access/Ownable.sol\":2723:2741  _transferOwnership */\n      tag_31\n        /* \"@openzeppelin/contracts/access/Ownable.sol\":2723:2751  _transferOwnership(newOwner) */\n      jump\t// in\n    tag_42:\n        /* \"@openzeppelin/contracts/access/Ownable.sol\":2543:2758  function transferOwnership(address newOwner) public virtual onlyOwner {... */\n      pop\n      jump\t// out\n        /* \"@openzeppelin/contracts/access/Ownable.sol\":1796:1958  function _checkOwner() internal view virtual {... */\n    tag_28:\n        /* \"@openzeppelin/contracts/access/Ownable.sol\":1866:1878  _msgSender() */\n      tag_44\n        /* \"@openzeppelin/contracts/access/Ownable.sol\":1866:1876  _msgSender */\n      tag_45\n        /* \"@openzeppelin/contracts/access/Ownable.sol\":1866:1878  _msgSender() */\n      jump\t// in\n    tag_44:\n        /* \"@openzeppelin/contracts/access/Ownable.sol\":1855:1878  owner() != _msgSender() */\n      0xffffffffffffffffffffffffffffffffffffffff\n      and\n        /* \"@openzeppelin/contracts/access/Ownable.sol\":1855:1862  owner() */\n      tag_46\n        /* \"@openzeppelin/contracts/access/Ownable.sol\":1855:1860  owner */\n      tag_11\n        /* \"@openzeppelin/contracts/access/Ownable.sol\":1855:1862  owner() */\n      jump\t// in\n    tag_46:\n        /* \"@openzeppelin/contracts/access/Ownable.sol\":1855:1878  owner() != _msgSender() */\n      0xffffffffffffffffffffffffffffffffffffffff\n      and\n      eq\n        /* \"@openzeppelin/contracts/access/Ownable.sol\":1851:1952  if (owner() != _msgSender()) {... */\n      tag_47\n      jumpi\n        /* \"@openzeppelin/contracts/access/Ownable.sol\":1928:1940  _msgSender() */\n      tag_48\n        /* \"@openzeppelin/contracts/access/Ownable.sol\":1928:1938  _msgSender */\n      tag_45\n        /* \"@openzeppelin/contracts/access/Ownable.sol\":1928:1940  _msgSender() */\n      jump\t// in\n    tag_48:\n        /* \"@openzeppelin/contracts/access/Ownable.sol\":1901:1941  OwnableUnauthorizedAccount(_msgSender()) */\n      mload(0x40)\n      0x118cdaa700000000000000000000000000000000000000000000000000000000\n      dup2\n      mstore\n      0x04\n      add\n      tag_49\n      swap2\n      swap1\n      tag_13\n      jump\t// in\n    tag_49:\n      mload(0x40)\n      dup1\n      swap2\n      sub\n      swap1\n      revert\n        /* \"@openzeppelin/contracts/access/Ownable.sol\":1851:1952  if (owner() != _msgSender()) {... */\n    tag_47:\n        /* \"@openzeppelin/contracts/access/Ownable.sol\":1796:1958  function _checkOwner() internal view virtual {... */\n      jump\t// out\n        /* \"@openzeppelin/contracts/access/Ownable.sol\":2912:3099  function _transferOwnership(address newOwner) internal virtual {... */\n    tag_31:\n        /* \"@openzeppelin/contracts/access/Ownable.sol\":2985:3001  address oldOwner */\n      0x00\n        /* \"@openzeppelin/contracts/access/Ownable.sol\":3004:3010  _owner */\n      0x00\n      0x00\n      swap1\n      sload\n      swap1\n      0x0100\n      exp\n      swap1\n      div\n      0xffffffffffffffffffffffffffffffffffffffff\n      and\n        /* \"@openzeppelin/contracts/access/Ownable.sol\":2985:3010  address oldOwner = _owner */\n      swap1\n      pop\n        /* \"@openzeppelin/contracts/access/Ownable.sol\":3029:3037  newOwner */\n      dup2\n        /* \"@openzeppelin/contracts/access/Ownable.sol\":3020:3026  _owner */\n      0x00\n      0x00\n        /* \"@openzeppelin/contracts/access/Ownable.sol\":3020:3037  _owner = newOwner */\n      0x0100\n      exp\n      dup2\n      sload\n      dup2\n      0xffffffffffffffffffffffffffffffffffffffff\n      mul\n      not\n      and\n      swap1\n      dup4\n      0xffffffffffffffffffffffffffffffffffffffff\n      and\n      mul\n      or\n      swap1\n      sstore\n      pop\n        /* \"@openzeppelin/contracts/access/Ownable.sol\":3083:3091  newOwner */\n      dup2\n        /* \"@openzeppelin/contracts/access/Ownable.sol\":3052:3092  OwnershipTransferred(oldOwner, newOwner) */\n      0xffffffffffffffffffffffffffffffffffffffff\n      and\n        /* \"@openzeppelin/contracts/access/Ownable.sol\":3073:3081  oldOwner */\n      dup2\n        /* \"@openzeppelin/contracts/access/Ownable.sol\":3052:3092  OwnershipTransferred(oldOwner, newOwner) */\n      0xffffffffffffffffffffffffffffffffffffffff\n      and\n      0x8be0079c531659141344cd1fd0a4f28419497f9722a3daafe3b4186f6b6457e0\n      mload(0x40)\n      mload(0x40)\n      dup1\n      swap2\n      sub\n      swap1\n      log3\n        /* \"@openzeppelin/contracts/access/Ownable.sol\":2975:3099  {... */\n      pop\n        /* \"@openzeppelin/contracts/access/Ownable.sol\":2912:3099  function _transferOwnership(address newOwner) internal virtual {... */\n      pop\n      jump\t// out\n        /* \"@openzeppelin/contracts/utils/Context.sol\":656:752  function _msgSender() internal view virtual returns (address) {... */\n    tag_45:\n        /* \"@openzeppelin/contracts/utils/Context.sol\":709:716  address */\n      0x00\n        /* \"@openzeppelin/contracts/utils/Context.sol\":735:745  msg.sender */\n      caller\n        /* \"@openzeppelin/contracts/utils/Context.sol\":728:745  return msg.sender */\n      swap1\n      pop\n        /* \"@openzeppelin/contracts/utils/Context.sol\":656:752  function _msgSender() internal view virtual returns (address) {... */\n      swap1\n      jump\t// out\n        /* \"#utility.yul\":7:133   */\n    tag_52:\n        /* \"#utility.yul\":44:51   */\n      0x00\n        /* \"#utility.yul\":84:126   */\n      0xffffffffffffffffffffffffffffffffffffffff\n        /* \"#utility.yul\":77:82   */\n      dup3\n        /* \"#utility.yul\":73:127   */\n      and\n        /* \"#utility.yul\":62:127   */\n      swap1\n      pop\n        /* \"#utility.yul\":7:133   */\n      swap2\n      swap1\n      pop\n      jump\t// out\n        /* \"#utility.yul\":139:235   */\n    tag_53:\n        /* \"#utility.yul\":176:183   */\n      0x00\n        /* \"#utility.yul\":205:229   */\n      tag_68\n        /* \"#utility.yul\":223:228   */\n      dup3\n        /* \"#utility.yul\":205:229   */\n      tag_52\n      jump\t// in\n    tag_68:\n        /* \"#utility.yul\":194:229   */\n      swap1\n      pop\n        /* \"#utility.yul\":139:235   */\n      swap2\n      swap1\n      pop\n      jump\t// out\n        /* \"#utility.yul\":241:359   */\n    tag_54:\n        /* \"#utility.yul\":328:352   */\n      tag_70\n        /* \"#utility.yul\":346:351   */\n      dup2\n        /* \"#utility.yul\":328:352   */\n      tag_53\n      jump\t// in\n    tag_70:\n        /* \"#utility.yul\":323:326   */\n      dup3\n        /* \"#utility.yul\":316:353   */\n      mstore\n        /* \"#utility.yul\":241:359   */\n      pop\n      pop\n      jump\t// out\n        /* \"#utility.yul\":365:587   */\n    tag_13:\n        /* \"#utility.yul\":458:462   */\n      0x00\n        /* \"#utility.yul\":496:498   */\n      0x20\n        /* \"#utility.yul\":485:494   */\n      dup3\n        /* \"#utility.yul\":481:499   */\n      add\n        /* \"#utility.yul\":473:499   */\n      swap1\n      pop\n        /* \"#utility.yul\":509:580   */\n      tag_72\n        /* \"#utility.yul\":577:578   */\n      0x00\n        /* \"#utility.yul\":566:575   */\n      dup4\n        /* \"#utility.yul\":562:579   */\n      add\n        /* \"#utility.yul\":553:559   */\n      dup5\n        /* \"#utility.yul\":509:580   */\n      tag_54\n      jump\t// in\n    tag_72:\n        /* \"#utility.yul\":365:587   */\n      swap3\n      swap2\n      pop\n      pop\n      jump\t// out\n        /* \"#utility.yul\":593:670   */\n    tag_55:\n        /* \"#utility.yul\":630:637   */\n      0x00\n        /* \"#utility.yul\":659:664   */\n      dup2\n        /* \"#utility.yul\":648:664   */\n      swap1\n      pop\n        /* \"#utility.yul\":593:670   */\n      swap2\n      swap1\n      pop\n      jump\t// out\n        /* \"#utility.yul\":676:794   */\n    tag_56:\n        /* \"#utility.yul\":763:787   */\n      tag_75\n        /* \"#utility.yul\":781:786   */\n      dup2\n        /* \"#utility.yul\":763:787   */\n      tag_55\n      jump\t// in\n    tag_75:\n        /* \"#utility.yul\":758:761   */\n      dup3\n        /* \"#utility.yul\":751:788   */\n      mstore\n        /* \"#utility.yul\":676:794   */\n      pop\n      pop\n      jump\t// out\n        /* \"#utility.yul\":800:1022   */\n    tag_17:\n        /* \"#utility.yul\":893:897   */\n      0x00\n        /* \"#utility.yul\":931:933   */\n      0x20\n        /* \"#utility.yul\":920:929   */\n      dup3\n        /* \"#utility.yul\":916:934   */\n      add\n        /* \"#utility.yul\":908:934   */\n      swap1\n      pop\n        /* \"#utility.yul\":944:1015   */\n      tag_77\n        /* \"#utility.yul\":1012:1013   */\n      0x00\n        /* \"#utility.yul\":1001:1010   */\n      dup4\n        /* \"#utility.yul\":997:1014   */\n      add\n        /* \"#utility.yul\":988:994   */\n      dup5\n        /* \"#utility.yul\":944:1015   */\n      tag_56\n      jump\t// in\n    tag_77:\n        /* \"#utility.yul\":800:1022   */\n      swap3\n      swap2\n      pop\n      pop\n      jump\t// out\n        /* \"#utility.yul\":1109:1226   */\n    tag_58:\n        /* \"#utility.yul\":1218:1219   */\n      0x00\n        /* \"#utility.yul\":1215:1216   */\n      0x00\n        /* \"#utility.yul\":1208:1220   */\n      revert\n        /* \"#utility.yul\":1355:1477   */\n    tag_60:\n        /* \"#utility.yul\":1428:1452   */\n      tag_82\n        /* \"#utility.yul\":1446:1451   */\n      dup2\n        /* \"#utility.yul\":1428:1452   */\n      tag_55\n      jump\t// in\n    tag_82:\n        /* \"#utility.yul\":1421:1426   */\n      dup2\n        /* \"#utility.yul\":1418:1453   */\n      eq\n        /* \"#utility.yul\":1408:1471   */\n      tag_83\n      jumpi\n        /* \"#utility.yul\":1467:1468   */\n      0x00\n        /* \"#utility.yul\":1464:1465   */\n      0x00\n        /* \"#utility.yul\":1457:1469   */\n      revert\n        /* \"#utility.yul\":1408:1471   */\n    tag_83:\n        /* \"#utility.yul\":1355:1477   */\n      pop\n      jump\t// out\n        /* \"#utility.yul\":1483:1622   */\n    tag_61:\n        /* \"#utility.yul\":1529:1534   */\n      0x00\n        /* \"#utility.yul\":1567:1573   */\n      dup2\n        /* \"#utility.yul\":1554:1574   */\n      calldataload\n        /* \"#utility.yul\":1545:1574   */\n      swap1\n      pop\n        /* \"#utility.yul\":1583:1616   */\n      tag_85\n        /* \"#utility.yul\":1610:1615   */\n      dup2\n        /* \"#utility.yul\":1583:1616   */\n      tag_60\n      jump\t// in\n    tag_85:\n        /* \"#utility.yul\":1483:1622   */\n      swap3\n      swap2\n      pop\n      pop\n      jump\t// out\n        /* \"#utility.yul\":1628:1957   */\n    tag_20:\n        /* \"#utility.yul\":1687:1693   */\n      0x00\n        /* \"#utility.yul\":1736:1738   */\n      0x20\n        /* \"#utility.yul\":1724:1733   */\n      dup3\n        /* \"#utility.yul\":1715:1722   */\n      dup5\n        /* \"#utility.yul\":1711:1734   */\n      sub\n        /* \"#utility.yul\":1707:1739   */\n      slt\n        /* \"#utility.yul\":1704:1823   */\n      iszero\n      tag_87\n      jumpi\n        /* \"#utility.yul\":1742:1821   */\n      tag_88\n      tag_58\n      jump\t// in\n    tag_88:\n        /* \"#utility.yul\":1704:1823   */\n    tag_87:\n        /* \"#utility.yul\":1862:1863   */\n      0x00\n        /* \"#utility.yul\":1887:1940   */\n      tag_89\n        /* \"#utility.yul\":1932:1939   */\n      dup5\n        /* \"#utility.yul\":1923:1929   */\n      dup3\n        /* \"#utility.yul\":1912:1921   */\n      dup6\n        /* \"#utility.yul\":1908:1930   */\n      add\n        /* \"#utility.yul\":1887:1940   */\n      tag_61\n      jump\t// in\n    tag_89:\n        /* \"#utility.yul\":1877:1940   */\n      swap2\n      pop\n        /* \"#utility.yul\":1833:1950   */\n      pop\n        /* \"#utility.yul\":1628:1957   */\n      swap3\n      swap2\n      pop\n      pop\n      jump\t// out\n        /* \"#utility.yul\":1963:2085   */\n    tag_62:\n        /* \"#utility.yul\":2036:2060   */\n      tag_91\n        /* \"#utility.yul\":2054:2059   */\n      dup2\n        /* \"#utility.yul\":2036:2060   */\n      tag_53\n      jump\t// in\n    tag_91:\n        /* \"#utility.yul\":2029:2034   */\n      dup2\n        /* \"#utility.yul\":2026:2061   */\n      eq\n        /* \"#utility.yul\":2016:2079   */\n      tag_92\n      jumpi\n        /* \"#utility.yul\":2075:2076   */\n      0x00\n        /* \"#utility.yul\":2072:2073   */\n      0x00\n        /* \"#utility.yul\":2065:2077   */\n      revert\n        /* \"#utility.yul\":2016:2079   */\n    tag_92:\n        /* \"#utility.yul\":1963:2085   */\n      pop\n      jump\t// out\n        /* \"#utility.yul\":2091:2230   */\n    tag_63:\n        /* \"#utility.yul\":2137:2142   */\n      0x00\n        /* \"#utility.yul\":2175:2181   */\n      dup2\n        /* \"#utility.yul\":2162:2182   */\n      calldataload\n        /* \"#utility.yul\":2153:2182   */\n      swap1\n      pop\n        /* \"#utility.yul\":2191:2224   */\n      tag_94\n        /* \"#utility.yul\":2218:2223   */\n      dup2\n        /* \"#utility.yul\":2191:2224   */\n      tag_62\n      jump\t// in\n    tag_94:\n        /* \"#utility.yul\":2091:2230   */\n      swap3\n      swap2\n      pop\n      pop\n      jump\t// out\n        /* \"#utility.yul\":2236:2565   */\n    tag_24:\n        /* \"#utility.yul\":2295:2301   */\n      0x00\n        /* \"#utility.yul\":2344:2346   */\n      0x20\n        /* \"#utility.yul\":2332:2341   */\n      dup3\n        /* \"#utility.yul\":2323:2330   */\n      dup5\n        /* \"#utility.yul\":2319:2342   */\n      sub\n        /* \"#utility.yul\":2315:2347   */\n      slt\n        /* \"#utility.yul\":2312:2431   */\n      iszero\n      tag_96\n      jumpi\n        /* \"#utility.yul\":2350:2429   */\n      tag_97\n      tag_58\n      jump\t// in\n    tag_97:\n        /* \"#utility.yul\":2312:2431   */\n    tag_96:\n        /* \"#utility.yul\":2470:2471   */\n      0x00\n        /* \"#utility.yul\":2495:2548   */\n      tag_98\n        /* \"#utility.yul\":2540:2547   */\n      dup5\n        /* \"#utility.yul\":2531:2537   */\n      dup3\n        /* \"#utility.yul\":2520:2529   */\n      dup6\n        /* \"#utility.yul\":2516:2538   */\n      add\n        /* \"#utility.yul\":2495:2548   */\n      tag_63\n      jump\t// in\n    tag_98:\n        /* \"#utility.yul\":2485:2548   */\n      swap2\n      pop\n        /* \"#utility.yul\":2441:2558   */\n      pop\n        /* \"#utility.yul\":2236:2565   */\n      swap3\n      swap2\n      pop\n      pop\n      jump\t// out\n        /* \"#utility.yul\":2571:2751   */\n    tag_64:\n        /* \"#utility.yul\":2619:2696   */\n      0x4e487b7100000000000000000000000000000000000000000000000000000000\n        /* \"#utility.yul\":2616:2617   */\n      0x00\n        /* \"#utility.yul\":2609:2697   */\n      mstore\n        /* \"#utility.yul\":2716:2720   */\n      0x11\n        /* \"#utility.yul\":2713:2714   */\n      0x04\n        /* \"#utility.yul\":2706:2721   */\n      mstore\n        /* \"#utility.yul\":2740:2744   */\n      0x24\n        /* \"#utility.yul\":2737:2738   */\n      0x00\n        /* \"#utility.yul\":2730:2745   */\n      revert\n        /* \"#utility.yul\":2757:2948   */\n    tag_35:\n        /* \"#utility.yul\":2797:2800   */\n      0x00\n        /* \"#utility.yul\":2816:2836   */\n      tag_101\n        /* \"#utility.yul\":2834:2835   */\n      dup3\n        /* \"#utility.yul\":2816:2836   */\n      tag_55\n      jump\t// in\n    tag_101:\n        /* \"#utility.yul\":2811:2836   */\n      swap2\n      pop\n        /* \"#utility.yul\":2850:2870   */\n      tag_102\n        /* \"#utility.yul\":2868:2869   */\n      dup4\n        /* \"#utility.yul\":2850:2870   */\n      tag_55\n      jump\t// in\n    tag_102:\n        /* \"#utility.yul\":2845:2870   */\n      swap3\n      pop\n        /* \"#utility.yul\":2893:2894   */\n      dup3\n        /* \"#utility.yul\":2890:2891   */\n      dup3\n        /* \"#utility.yul\":2886:2895   */\n      add\n        /* \"#utility.yul\":2879:2895   */\n      swap1\n      pop\n        /* \"#utility.yul\":2914:2917   */\n      dup1\n        /* \"#utility.yul\":2911:2912   */\n      dup3\n        /* \"#utility.yul\":2908:2918   */\n      gt\n        /* \"#utility.yul\":2905:2941   */\n      iszero\n      tag_103\n      jumpi\n        /* \"#utility.yul\":2921:2939   */\n      tag_104\n      tag_64\n      jump\t// in\n    tag_104:\n        /* \"#utility.yul\":2905:2941   */\n    tag_103:\n        /* \"#utility.yul\":2757:2948   */\n      swap3\n      swap2\n      pop\n      pop\n      jump\t// out\n\n    auxdata: 0xa2646970667358221220903ce0740bff034f1a505dbf1e711916e16ca2aee5c80bec6ea15151be5e62f664736f6c634300081e0033\n}\n",
				"bytecode": {
					"linkReferences": {},
					"object": "608060405234801561000f575f5ffd5b50604051610767380380610767833981810160405281019061003191906101b7565b335f73ffffffffffffffffffffffffffffffffffffffff168173ffffffffffffffffffffffffffffffffffffffff16036100a2575f6040517f1e4fbdf70000000000000000000000000000000000000000000000000000000081526004016100999190610221565b60405180910390fd5b6100b1816100bf60201b60201c565b50806001819055505061023a565b5f5f5f9054906101000a900473ffffffffffffffffffffffffffffffffffffffff169050815f5f6101000a81548173ffffffffffffffffffffffffffffffffffffffff021916908373ffffffffffffffffffffffffffffffffffffffff1602179055508173ffffffffffffffffffffffffffffffffffffffff168173ffffffffffffffffffffffffffffffffffffffff167f8be0079c531659141344cd1fd0a4f28419497f9722a3daafe3b4186f6b6457e060405160405180910390a35050565b5f5ffd5b5f819050919050565b61019681610184565b81146101a0575f5ffd5b50565b5f815190506101b18161018d565b92915050565b5f602082840312156101cc576101cb610180565b5b5f6101d9848285016101a3565b91505092915050565b5f73ffffffffffffffffffffffffffffffffffffffff82169050919050565b5f61020b826101e2565b9050919050565b61021b81610201565b82525050565b5f6020820190506102345f830184610212565b92915050565b610520806102475f395ff3fe608060405234801561000f575f5ffd5b5060043610610055575f3560e01c8063715018a6146100595780638da5cb5b14610063578063b69ef8a814610081578063d5ca62281461009f578063f2fde38b146100bb575b5f5ffd5b6100616100d7565b005b61006b6100ea565b6040516100789190610392565b60405180910390f35b610089610111565b60405161009691906103c3565b60405180910390f35b6100b960048036038101906100b4919061040a565b610117565b005b6100d560048036038101906100d0919061045f565b610180565b005b6100df610204565b6100e85f61028b565b565b5f5f5f9054906101000a900473ffffffffffffffffffffffffffffffffffffffff16905090565b60015481565b8060015f82825461012891906104b7565b925050819055503373ffffffffffffffffffffffffffffffffffffffff167f453529dac6ef979a41d67fbeeabdfae29903c185f64d77aa690df9eca5f1aa608260405161017591906103c3565b60405180910390a250565b610188610204565b5f73ffffffffffffffffffffffffffffffffffffffff168173ffffffffffffffffffffffffffffffffffffffff16036101f8575f6040517f1e4fbdf70000000000000000000000000000000000000000000000000000000081526004016101ef9190610392565b60405180910390fd5b6102018161028b565b50565b61020c61034c565b73ffffffffffffffffffffffffffffffffffffffff1661022a6100ea565b73ffffffffffffffffffffffffffffffffffffffff16146102895761024d61034c565b6040517f118cdaa70000000000000000000000000000000000000000000000000000000081526004016102809190610392565b60405180910390fd5b565b5f5f5f9054906101000a900473ffffffffffffffffffffffffffffffffffffffff169050815f5f6101000a81548173ffffffffffffffffffffffffffffffffffffffff021916908373ffffffffffffffffffffffffffffffffffffffff1602179055508173ffffffffffffffffffffffffffffffffffffffff168173ffffffffffffffffffffffffffffffffffffffff167f8be0079c531659141344cd1fd0a4f28419497f9722a3daafe3b4186f6b6457e060405160405180910390a35050565b5f33905090565b5f73ffffffffffffffffffffffffffffffffffffffff82169050919050565b5f61037c82610353565b9050919050565b61038c81610372565b82525050565b5f6020820190506103a55f830184610383565b92915050565b5f819050919050565b6103bd816103ab565b82525050565b5f6020820190506103d65f8301846103b4565b92915050565b5f5ffd5b6103e9816103ab565b81146103f3575f5ffd5b50565b5f81359050610404816103e0565b92915050565b5f6020828403121561041f5761041e6103dc565b5b5f61042c848285016103f6565b91505092915050565b61043e81610372565b8114610448575f5ffd5b50565b5f8135905061045981610435565b92915050565b5f60208284031215610474576104736103dc565b5b5f6104818482850161044b565b91505092915050565b7f4e487b71000000000000000000000000000000000000000000000000000000005f52601160045260245ffd5b5f6104c1826103ab565b91506104cc836103ab565b92508282019050808211156104e4576104e361048a565b5b9291505056fea2646970667358221220903ce0740bff034f1a505dbf1e711916e16ca2aee5c80bec6ea15151be5e62f664736f6c634300081e0033",
					"opcodes": "PUSH1 0x80 PUSH1 0x40 MSTORE CALLVALUE DUP1 ISZERO PUSH2 0xF JUMPI PUSH0 PUSH0 REVERT JUMPDEST POP PUSH1 0x40 MLOAD PUSH2 0x767 CODESIZE SUB DUP1 PUSH2 0x767 DUP4 CODECOPY DUP2 DUP2 ADD PUSH1 0x40 MSTORE DUP2 ADD SWAP1 PUSH2 0x31 SWAP2 SWAP1 PUSH2 0x1B7 JUMP JUMPDEST CALLER PUSH0 PUSH20 0xFFFFFFFFFFFFFFFFFFFFFFFFFFFFFFFFFFFFFFFF AND DUP2 PUSH20 0xFFFFFFFFFFFFFFFFFFFFFFFFFFFFFFFFFFFFFFFF AND SUB PUSH2 0xA2 JUMPI PUSH0 PUSH1 0x40 MLOAD PUSH32 0x1E4FBDF700000000000000000000000000000000000000000000000000000000 DUP2 MSTORE PUSH1 0x4 ADD PUSH2 0x99 SWAP2 SWAP1 PUSH2 0x221 JUMP JUMPDEST PUSH1 0x40 MLOAD DUP1 SWAP2 SUB SWAP1 REVERT JUMPDEST PUSH2 0xB1 DUP2 PUSH2 0xBF PUSH1 0x20 SHL PUSH1 0x20 SHR JUMP JUMPDEST POP DUP1 PUSH1 0x1 DUP2 SWAP1 SSTORE POP POP PUSH2 0x23A JUMP JUMPDEST PUSH0 PUSH0 PUSH0 SWAP1 SLOAD SWAP1 PUSH2 0x100 EXP SWAP1 DIV PUSH20 0xFFFFFFFFFFFFFFFFFFFFFFFFFFFFFFFFFFFFFFFF AND SWAP1 POP DUP2 PUSH0 PUSH0 PUSH2 0x100 EXP DUP2 SLOAD DUP2 PUSH20 0xFFFFFFFFFFFFFFFFFFFFFFFFFFFFFFFFFFFFFFFF MUL NOT AND SWAP1 DUP4 PUSH20 0xFFFFFFFFFFFFFFFFFFFFFFFFFFFFFFFFFFFFFFFF AND MUL OR SWAP1 SSTORE POP DUP2 PUSH20 0xFFFFFFFFFFFFFFFFFFFFFFFFFFFFFFFFFFFFFFFF AND DUP2 PUSH20 0xFFFFFFFFFFFFFFFFFFFFFFFFFFFFFFFFFFFFFFFF AND PUSH32 0x8BE0079C531659141344CD1FD0A4F28419497F9722A3DAAFE3B4186F6B6457E0 PUSH1 0x40 MLOAD PUSH1 0x40 MLOAD DUP1 SWAP2 SUB SWAP1 LOG3 POP POP JUMP JUMPDEST PUSH0 PUSH0 REVERT JUMPDEST PUSH0 DUP2 SWAP1 POP SWAP2 SWAP1 POP JUMP JUMPDEST PUSH2 0x196 DUP2 PUSH2 0x184 JUMP JUMPDEST DUP2 EQ PUSH2 0x1A0 JUMPI PUSH0 PUSH0 REVERT JUMPDEST POP JUMP JUMPDEST PUSH0 DUP2 MLOAD SWAP1 POP PUSH2 0x1B1 DUP2 PUSH2 0x18D JUMP JUMPDEST SWAP3 SWAP2 POP POP JUMP JUMPDEST PUSH0 PUSH1 0x20 DUP3 DUP5 SUB SLT ISZERO PUSH2 0x1CC JUMPI PUSH2 0x1CB PUSH2 0x180 JUMP JUMPDEST JUMPDEST PUSH0 PUSH2 0x1D9 DUP5 DUP3 DUP6 ADD PUSH2 0x1A3 JUMP JUMPDEST SWAP2 POP POP SWAP3 SWAP2 POP POP JUMP JUMPDEST PUSH0 PUSH20 0xFFFFFFFFFFFFFFFFFFFFFFFFFFFFFFFFFFFFFFFF DUP3 AND SWAP1 POP SWAP2 SWAP1 POP JUMP JUMPDEST PUSH0 PUSH2 0x20B DUP3 PUSH2 0x1E2 JUMP JUMPDEST SWAP1 POP SWAP2 SWAP1 POP JUMP JUMPDEST PUSH2 0x21B DUP2 PUSH2 0x201 JUMP JUMPDEST DUP3 MSTORE POP POP JUMP JUMPDEST PUSH0 PUSH1 0x20 DUP3 ADD SWAP1 POP PUSH2 0x234 PUSH0 DUP4 ADD DUP5 PUSH2 0x212 JUMP JUMPDEST SWAP3 SWAP2 POP POP JUMP JUMPDEST PUSH2 0x520 DUP1 PUSH2 0x247 PUSH0 CODECOPY PUSH0 RETURN INVALID PUSH1 0x80 PUSH1 0x40 MSTORE CALLVALUE DUP1 ISZERO PUSH2 0xF JUMPI PUSH0 PUSH0 REVERT JUMPDEST POP PUSH1 0x4 CALLDATASIZE LT PUSH2 0x55 JUMPI PUSH0 CALLDATALOAD PUSH1 0xE0 SHR DUP1 PUSH4 0x715018A6 EQ PUSH2 0x59 JUMPI DUP1 PUSH4 0x8DA5CB5B EQ PUSH2 0x63 JUMPI DUP1 PUSH4 0xB69EF8A8 EQ PUSH2 0x81 JUMPI DUP1 PUSH4 0xD5CA6228 EQ PUSH2 0x9F JUMPI DUP1 PUSH4 0xF2FDE38B EQ PUSH2 0xBB JUMPI JUMPDEST PUSH0 PUSH0 REVERT JUMPDEST PUSH2 0x61 PUSH2 0xD7 JUMP JUMPDEST STOP JUMPDEST PUSH2 0x6B PUSH2 0xEA JUMP JUMPDEST PUSH1 0x40 MLOAD PUSH2 0x78 SWAP2 SWAP1 PUSH2 0x392 JUMP JUMPDEST PUSH1 0x40 MLOAD DUP1 SWAP2 SUB SWAP1 RETURN JUMPDEST PUSH2 0x89 PUSH2 0x111 JUMP JUMPDEST PUSH1 0x40 MLOAD PUSH2 0x96 SWAP2 SWAP1 PUSH2 0x3C3 JUMP JUMPDEST PUSH1 0x40 MLOAD DUP1 SWAP2 SUB SWAP1 RETURN JUMPDEST PUSH2 0xB9 PUSH1 0x4 DUP1 CALLDATASIZE SUB DUP2 ADD SWAP1 PUSH2 0xB4 SWAP2 SWAP1 PUSH2 0x40A JUMP JUMPDEST PUSH2 0x117 JUMP JUMPDEST STOP JUMPDEST PUSH2 0xD5 PUSH1 0x4 DUP1 CALLDATASIZE SUB DUP2 ADD SWAP1 PUSH2 0xD0 SWAP2 SWAP1 PUSH2 0x45F JUMP JUMPDEST PUSH2 0x180 JUMP JUMPDEST STOP JUMPDEST PUSH2 0xDF PUSH2 0x204 JUMP JUMPDEST PUSH2 0xE8 PUSH0 PUSH2 0x28B JUMP JUMPDEST JUMP JUMPDEST PUSH0 PUSH0 PUSH0 SWAP1 SLOAD SWAP1 PUSH2 0x100 EXP SWAP1 DIV PUSH20 0xFFFFFFFFFFFFFFFFFFFFFFFFFFFFFFFFFFFFFFFF AND SWAP1 POP SWAP1 JUMP JUMPDEST PUSH1 0x1 SLOAD DUP2 JUMP JUMPDEST DUP1 PUSH1 0x1 PUSH0 DUP3 DUP3 SLOAD PUSH2 0x128 SWAP2 SWAP1 PUSH2 0x4B7 JUMP JUMPDEST SWAP3 POP POP DUP2 SWAP1 SSTORE POP CALLER PUSH20 0xFFFFFFFFFFFFFFFFFFFFFFFFFFFFFFFFFFFFFFFF AND PUSH32 0x453529DAC6EF979A41D67FBEEABDFAE29903C185F64D77AA690DF9ECA5F1AA60 DUP3 PUSH1 0x40 MLOAD PUSH2 0x175 SWAP2 SWAP1 PUSH2 0x3C3 JUMP JUMPDEST PUSH1 0x40 MLOAD DUP1 SWAP2 SUB SWAP1 LOG2 POP JUMP JUMPDEST PUSH2 0x188 PUSH2 0x204 JUMP JUMPDEST PUSH0 PUSH20 0xFFFFFFFFFFFFFFFFFFFFFFFFFFFFFFFFFFFFFFFF AND DUP2 PUSH20 0xFFFFFFFFFFFFFFFFFFFFFFFFFFFFFFFFFFFFFFFF AND SUB PUSH2 0x1F8 JUMPI PUSH0 PUSH1 0x40 MLOAD PUSH32 0x1E4FBDF700000000000000000000000000000000000000000000000000000000 DUP2 MSTORE PUSH1 0x4 ADD PUSH2 0x1EF SWAP2 SWAP1 PUSH2 0x392 JUMP JUMPDEST PUSH1 0x40 MLOAD DUP1 SWAP2 SUB SWAP1 REVERT JUMPDEST PUSH2 0x201 DUP2 PUSH2 0x28B JUMP JUMPDEST POP JUMP JUMPDEST PUSH2 0x20C PUSH2 0x34C JUMP JUMPDEST PUSH20 0xFFFFFFFFFFFFFFFFFFFFFFFFFFFFFFFFFFFFFFFF AND PUSH2 0x22A PUSH2 0xEA JUMP JUMPDEST PUSH20 0xFFFFFFFFFFFFFFFFFFFFFFFFFFFFFFFFFFFFFFFF AND EQ PUSH2 0x289 JUMPI PUSH2 0x24D PUSH2 0x34C JUMP JUMPDEST PUSH1 0x40 MLOAD PUSH32 0x118CDAA700000000000000000000000000000000000000000000000000000000 DUP2 MSTORE PUSH1 0x4 ADD PUSH2 0x280 SWAP2 SWAP1 PUSH2 0x392 JUMP JUMPDEST PUSH1 0x40 MLOAD DUP1 SWAP2 SUB SWAP1 REVERT JUMPDEST JUMP JUMPDEST PUSH0 PUSH0 PUSH0 SWAP1 SLOAD SWAP1 PUSH2 0x100 EXP SWAP1 DIV PUSH20 0xFFFFFFFFFFFFFFFFFFFFFFFFFFFFFFFFFFFFFFFF AND SWAP1 POP DUP2 PUSH0 PUSH0 PUSH2 0x100 EXP DUP2 SLOAD DUP2 PUSH20 0xFFFFFFFFFFFFFFFFFFFFFFFFFFFFFFFFFFFFFFFF MUL NOT AND SWAP1 DUP4 PUSH20 0xFFFFFFFFFFFFFFFFFFFFFFFFFFFFFFFFFFFFFFFF AND MUL OR SWAP1 SSTORE POP DUP2 PUSH20 0xFFFFFFFFFFFFFFFFFFFFFFFFFFFFFFFFFFFFFFFF AND DUP2 PUSH20 0xFFFFFFFFFFFFFFFFFFFFFFFFFFFFFFFFFFFFFFFF AND PUSH32 0x8BE0079C531659141344CD1FD0A4F28419497F9722A3DAAFE3B4186F6B6457E0 PUSH1 0x40 MLOAD PUSH1 0x40 MLOAD DUP1 SWAP2 SUB SWAP1 LOG3 POP POP JUMP JUMPDEST PUSH0 CALLER SWAP1 POP SWAP1 JUMP JUMPDEST PUSH0 PUSH20 0xFFFFFFFFFFFFFFFFFFFFFFFFFFFFFFFFFFFFFFFF DUP3 AND SWAP1 POP SWAP2 SWAP1 POP JUMP JUMPDEST PUSH0 PUSH2 0x37C DUP3 PUSH2 0x353 JUMP JUMPDEST SWAP1 POP SWAP2 SWAP1 POP JUMP JUMPDEST PUSH2 0x38C DUP2 PUSH2 0x372 JUMP JUMPDEST DUP3 MSTORE POP POP JUMP JUMPDEST PUSH0 PUSH1 0x20 DUP3 ADD SWAP1 POP PUSH2 0x3A5 PUSH0 DUP4 ADD DUP5 PUSH2 0x383 JUMP JUMPDEST SWAP3 SWAP2 POP POP JUMP JUMPDEST PUSH0 DUP2 SWAP1 POP SWAP2 SWAP1 POP JUMP JUMPDEST PUSH2 0x3BD DUP2 PUSH2 0x3AB JUMP JUMPDEST DUP3 MSTORE POP POP JUMP JUMPDEST PUSH0 PUSH1 0x20 DUP3 ADD SWAP1 POP PUSH2 0x3D6 PUSH0 DUP4 ADD DUP5 PUSH2 0x3B4 JUMP JUMPDEST SWAP3 SWAP2 POP POP JUMP JUMPDEST PUSH0 PUSH0 REVERT JUMPDEST PUSH2 0x3E9 DUP2 PUSH2 0x3AB JUMP JUMPDEST DUP2 EQ PUSH2 0x3F3 JUMPI PUSH0 PUSH0 REVERT JUMPDEST POP JUMP JUMPDEST PUSH0 DUP2 CALLDATALOAD SWAP1 POP PUSH2 0x404 DUP2 PUSH2 0x3E0 JUMP JUMPDEST SWAP3 SWAP2 POP POP JUMP JUMPDEST PUSH0 PUSH1 0x20 DUP3 DUP5 SUB SLT ISZERO PUSH2 0x41F JUMPI PUSH2 0x41E PUSH2 0x3DC JUMP JUMPDEST JUMPDEST PUSH0 PUSH2 0x42C DUP5 DUP3 DUP6 ADD PUSH2 0x3F6 JUMP JUMPDEST SWAP2 POP POP SWAP3 SWAP2 POP POP JUMP JUMPDEST PUSH2 0x43E DUP2 PUSH2 0x372 JUMP JUMPDEST DUP2 EQ PUSH2 0x448 JUMPI PUSH0 PUSH0 REVERT JUMPDEST POP JUMP JUMPDEST PUSH0 DUP2 CALLDATALOAD SWAP1 POP PUSH2 0x459 DUP2 PUSH2 0x435 JUMP JUMPDEST SWAP3 SWAP2 POP POP JUMP JUMPDEST PUSH0 PUSH1 0x20 DUP3 DUP5 SUB SLT ISZERO PUSH2 0x474 JUMPI PUSH2 0x473 PUSH2 0x3DC JUMP JUMPDEST JUMPDEST PUSH0 PUSH2 0x481 DUP5 DUP3 DUP6 ADD PUSH2 0x44B JUMP JUMPDEST SWAP2 POP POP SWAP3 SWAP2 POP POP JUMP JUMPDEST PUSH32 0x4E487B7100000000000000000000000000000000000000000000000000000000 PUSH0 MSTORE PUSH1 0x11 PUSH1 0x4 MSTORE PUSH1 0x24 PUSH0 REVERT JUMPDEST PUSH0 PUSH2 0x4C1 DUP3 PUSH2 0x3AB JUMP JUMPDEST SWAP2 POP PUSH2 0x4CC DUP4 PUSH2 0x3AB JUMP JUMPDEST SWAP3 POP DUP3 DUP3 ADD SWAP1 POP DUP1 DUP3 GT ISZERO PUSH2 0x4E4 JUMPI PUSH2 0x4E3 PUSH2 0x48A JUMP JUMPDEST JUMPDEST SWAP3 SWAP2 POP POP JUMP INVALID LOG2 PUSH5 0x6970667358 0x22 SLT KECCAK256 SWAP1 EXTCODECOPY RJUMP 0x740B SELFDESTRUCT SUB 0x4F BYTE POP TSTORE 0xBF 0x1E PUSH18 0x1916E16CA2AEE5C80BEC6EA15151BE5E62F6 PUSH5 0x736F6C6343 STOP ADDMOD 0x1E STOP CALLER "
				},
				"gasEstimates": {
					"creation": {
						"codeDepositCost": "262400",
						"executionCost": "infinite",
						"totalCost": "infinite"
					},
					"external": {
						"balance()": "2447",
						"depositar(uint256)": "infinite",
						"owner()": "2514",
						"renounceOwnership()": "infinite",
						"transferOwnership(address)": "infinite"
					}
				},
				"methodIdentifiers": {
					"balance()": "b69ef8a8",
					"depositar(uint256)": "d5ca6228",
					"owner()": "8da5cb5b",
					"renounceOwnership()": "715018a6",
					"transferOwnership(address)": "f2fde38b"
				}
			},
			"storageLayout": {
				"storage": [
					{
						"astId": 8,
						"contract": "ExerciciosDeTeste/Estrutura.sol:Estrutura",
						"label": "_owner",
						"offset": 0,
						"slot": "0",
						"type": "t_address"
					},
					{
						"astId": 185,
						"contract": "ExerciciosDeTeste/Estrutura.sol:Estrutura",
						"label": "balance",
						"offset": 0,
						"slot": "1",
						"type": "t_uint256"
					}
				],
				"types": {
					"t_address": {
						"encoding": "inplace",
						"label": "address",
						"numberOfBytes": "20"
					},
					"t_uint256": {
						"encoding": "inplace",
						"label": "uint256",
						"numberOfBytes": "32"
					}
				}
			},
			"userdoc": {
				"events": {
					"Deposito(address,uint256)": {
						"notice": "Evento emitido quando um depósito é feito"
					}
				},
				"kind": "user",
				"methods": {
					"constructor": {
						"notice": "Construtor para inicializar o contrato"
					},
					"depositar(uint256)": {
						"notice": "Atualiza o saldo do contrato"
					}
				},
				"notice": "Um contrato de exemplo para mostrar a estrutura básica em Solidity",
				"version": 1
			}
		}
	}
}