{
	"Função pura, overflow e ERC20.sol": {
		"Matematica": {
			"abi": [
				{
					"inputs": [
						{
							"internalType": "uint8",
							"name": "_x",
							"type": "uint8"
						},
						{
							"internalType": "uint256",
							"name": "_y",
							"type": "uint256"
						}
					],
					"name": "Soma",
					"outputs": [
						{
							"internalType": "uint256",
							"name": "",
							"type": "uint256"
						}
					],
					"stateMutability": "pure",
					"type": "function"
				}
			],
			"devdoc": {
				"kind": "dev",
				"methods": {},
				"version": 1
			},
			"evm": {
				"assembly": "    /* \"Fun\\xc3\\xa7\\xc3\\xa3o pura, overflow e ERC20.sol\":60:419  contract Matematica{... */\n  mstore(0x40, 0x80)\n  callvalue\n  dup1\n  iszero\n  tag_1\n  jumpi\n  revert(0x00, 0x00)\ntag_1:\n  pop\n  dataSize(sub_0)\n  dup1\n  dataOffset(sub_0)\n  0x00\n  codecopy\n  0x00\n  return\nstop\n\nsub_0: assembly {\n        /* \"Fun\\xc3\\xa7\\xc3\\xa3o pura, overflow e ERC20.sol\":60:419  contract Matematica{... */\n      mstore(0x40, 0x80)\n      callvalue\n      dup1\n      iszero\n      tag_1\n      jumpi\n      revert(0x00, 0x00)\n    tag_1:\n      pop\n      jumpi(tag_2, lt(calldatasize, 0x04))\n      shr(0xe0, calldataload(0x00))\n      dup1\n      0x981dbb24\n      eq\n      tag_3\n      jumpi\n    tag_2:\n      revert(0x00, 0x00)\n        /* \"Fun\\xc3\\xa7\\xc3\\xa3o pura, overflow e ERC20.sol\":159:251  function Soma(uint8 _x, uint _y) public pure returns (uint){... */\n    tag_3:\n      tag_4\n      0x04\n      dup1\n      calldatasize\n      sub\n      dup2\n      add\n      swap1\n      tag_5\n      swap2\n      swap1\n      tag_6\n      jump\t// in\n    tag_5:\n      tag_7\n      jump\t// in\n    tag_4:\n      mload(0x40)\n      tag_8\n      swap2\n      swap1\n      tag_9\n      jump\t// in\n    tag_8:\n      mload(0x40)\n      dup1\n      swap2\n      sub\n      swap1\n      return\n    tag_7:\n        /* \"Fun\\xc3\\xa7\\xc3\\xa3o pura, overflow e ERC20.sol\":213:217  uint */\n      0x00\n        /* \"Fun\\xc3\\xa7\\xc3\\xa3o pura, overflow e ERC20.sol\":241:243  _y */\n      dup2\n        /* \"Fun\\xc3\\xa7\\xc3\\xa3o pura, overflow e ERC20.sol\":236:238  _x */\n      dup4\n        /* \"Fun\\xc3\\xa7\\xc3\\xa3o pura, overflow e ERC20.sol\":236:243  _x + _y */\n      0xff\n      and\n      tag_11\n      swap2\n      swap1\n      tag_12\n      jump\t// in\n    tag_11:\n        /* \"Fun\\xc3\\xa7\\xc3\\xa3o pura, overflow e ERC20.sol\":229:243  return _x + _y */\n      swap1\n      pop\n        /* \"Fun\\xc3\\xa7\\xc3\\xa3o pura, overflow e ERC20.sol\":159:251  function Soma(uint8 _x, uint _y) public pure returns (uint){... */\n      swap3\n      swap2\n      pop\n      pop\n      jump\t// out\n        /* \"#utility.yul\":88:205   */\n    tag_14:\n        /* \"#utility.yul\":197:198   */\n      0x00\n        /* \"#utility.yul\":194:195   */\n      0x00\n        /* \"#utility.yul\":187:199   */\n      revert\n        /* \"#utility.yul\":334:420   */\n    tag_16:\n        /* \"#utility.yul\":369:376   */\n      0x00\n        /* \"#utility.yul\":409:413   */\n      0xff\n        /* \"#utility.yul\":402:407   */\n      dup3\n        /* \"#utility.yul\":398:414   */\n      and\n        /* \"#utility.yul\":387:414   */\n      swap1\n      pop\n        /* \"#utility.yul\":334:420   */\n      swap2\n      swap1\n      pop\n      jump\t// out\n        /* \"#utility.yul\":426:544   */\n    tag_17:\n        /* \"#utility.yul\":497:519   */\n      tag_30\n        /* \"#utility.yul\":513:518   */\n      dup2\n        /* \"#utility.yul\":497:519   */\n      tag_16\n      jump\t// in\n    tag_30:\n        /* \"#utility.yul\":490:495   */\n      dup2\n        /* \"#utility.yul\":487:520   */\n      eq\n        /* \"#utility.yul\":477:538   */\n      tag_31\n      jumpi\n        /* \"#utility.yul\":534:535   */\n      0x00\n        /* \"#utility.yul\":531:532   */\n      0x00\n        /* \"#utility.yul\":524:536   */\n      revert\n        /* \"#utility.yul\":477:538   */\n    tag_31:\n        /* \"#utility.yul\":426:544   */\n      pop\n      jump\t// out\n        /* \"#utility.yul\":550:685   */\n    tag_18:\n        /* \"#utility.yul\":594:599   */\n      0x00\n        /* \"#utility.yul\":632:638   */\n      dup2\n        /* \"#utility.yul\":619:639   */\n      calldataload\n        /* \"#utility.yul\":610:639   */\n      swap1\n      pop\n        /* \"#utility.yul\":648:679   */\n      tag_33\n        /* \"#utility.yul\":673:678   */\n      dup2\n        /* \"#utility.yul\":648:679   */\n      tag_17\n      jump\t// in\n    tag_33:\n        /* \"#utility.yul\":550:685   */\n      swap3\n      swap2\n      pop\n      pop\n      jump\t// out\n        /* \"#utility.yul\":691:768   */\n    tag_19:\n        /* \"#utility.yul\":728:735   */\n      0x00\n        /* \"#utility.yul\":757:762   */\n      dup2\n        /* \"#utility.yul\":746:762   */\n      swap1\n      pop\n        /* \"#utility.yul\":691:768   */\n      swap2\n      swap1\n      pop\n      jump\t// out\n        /* \"#utility.yul\":774:896   */\n    tag_20:\n        /* \"#utility.yul\":847:871   */\n      tag_36\n        /* \"#utility.yul\":865:870   */\n      dup2\n        /* \"#utility.yul\":847:871   */\n      tag_19\n      jump\t// in\n    tag_36:\n        /* \"#utility.yul\":840:845   */\n      dup2\n        /* \"#utility.yul\":837:872   */\n      eq\n        /* \"#utility.yul\":827:890   */\n      tag_37\n      jumpi\n        /* \"#utility.yul\":886:887   */\n      0x00\n        /* \"#utility.yul\":883:884   */\n      0x00\n        /* \"#utility.yul\":876:888   */\n      revert\n        /* \"#utility.yul\":827:890   */\n    tag_37:\n        /* \"#utility.yul\":774:896   */\n      pop\n      jump\t// out\n        /* \"#utility.yul\":902:1041   */\n    tag_21:\n        /* \"#utility.yul\":948:953   */\n      0x00\n        /* \"#utility.yul\":986:992   */\n      dup2\n        /* \"#utility.yul\":973:993   */\n      calldataload\n        /* \"#utility.yul\":964:993   */\n      swap1\n      pop\n        /* \"#utility.yul\":1002:1035   */\n      tag_39\n        /* \"#utility.yul\":1029:1034   */\n      dup2\n        /* \"#utility.yul\":1002:1035   */\n      tag_20\n      jump\t// in\n    tag_39:\n        /* \"#utility.yul\":902:1041   */\n      swap3\n      swap2\n      pop\n      pop\n      jump\t// out\n        /* \"#utility.yul\":1047:1517   */\n    tag_6:\n        /* \"#utility.yul\":1113:1119   */\n      0x00\n        /* \"#utility.yul\":1121:1127   */\n      0x00\n        /* \"#utility.yul\":1170:1172   */\n      0x40\n        /* \"#utility.yul\":1158:1167   */\n      dup4\n        /* \"#utility.yul\":1149:1156   */\n      dup6\n        /* \"#utility.yul\":1145:1168   */\n      sub\n        /* \"#utility.yul\":1141:1173   */\n      slt\n        /* \"#utility.yul\":1138:1257   */\n      iszero\n      tag_41\n      jumpi\n        /* \"#utility.yul\":1176:1255   */\n      tag_42\n      tag_14\n      jump\t// in\n    tag_42:\n        /* \"#utility.yul\":1138:1257   */\n    tag_41:\n        /* \"#utility.yul\":1296:1297   */\n      0x00\n        /* \"#utility.yul\":1321:1372   */\n      tag_43\n        /* \"#utility.yul\":1364:1371   */\n      dup6\n        /* \"#utility.yul\":1355:1361   */\n      dup3\n        /* \"#utility.yul\":1344:1353   */\n      dup7\n        /* \"#utility.yul\":1340:1362   */\n      add\n        /* \"#utility.yul\":1321:1372   */\n      tag_18\n      jump\t// in\n    tag_43:\n        /* \"#utility.yul\":1311:1372   */\n      swap3\n      pop\n        /* \"#utility.yul\":1267:1382   */\n      pop\n        /* \"#utility.yul\":1421:1423   */\n      0x20\n        /* \"#utility.yul\":1447:1500   */\n      tag_44\n        /* \"#utility.yul\":1492:1499   */\n      dup6\n        /* \"#utility.yul\":1483:1489   */\n      dup3\n        /* \"#utility.yul\":1472:1481   */\n      dup7\n        /* \"#utility.yul\":1468:1490   */\n      add\n        /* \"#utility.yul\":1447:1500   */\n      tag_21\n      jump\t// in\n    tag_44:\n        /* \"#utility.yul\":1437:1500   */\n      swap2\n      pop\n        /* \"#utility.yul\":1392:1510   */\n      pop\n        /* \"#utility.yul\":1047:1517   */\n      swap3\n      pop\n      swap3\n      swap1\n      pop\n      jump\t// out\n        /* \"#utility.yul\":1523:1641   */\n    tag_22:\n        /* \"#utility.yul\":1610:1634   */\n      tag_46\n        /* \"#utility.yul\":1628:1633   */\n      dup2\n        /* \"#utility.yul\":1610:1634   */\n      tag_19\n      jump\t// in\n    tag_46:\n        /* \"#utility.yul\":1605:1608   */\n      dup3\n        /* \"#utility.yul\":1598:1635   */\n      mstore\n        /* \"#utility.yul\":1523:1641   */\n      pop\n      pop\n      jump\t// out\n        /* \"#utility.yul\":1647:1869   */\n    tag_9:\n        /* \"#utility.yul\":1740:1744   */\n      0x00\n        /* \"#utility.yul\":1778:1780   */\n      0x20\n        /* \"#utility.yul\":1767:1776   */\n      dup3\n        /* \"#utility.yul\":1763:1781   */\n      add\n        /* \"#utility.yul\":1755:1781   */\n      swap1\n      pop\n        /* \"#utility.yul\":1791:1862   */\n      tag_48\n        /* \"#utility.yul\":1859:1860   */\n      0x00\n        /* \"#utility.yul\":1848:1857   */\n      dup4\n        /* \"#utility.yul\":1844:1861   */\n      add\n        /* \"#utility.yul\":1835:1841   */\n      dup5\n        /* \"#utility.yul\":1791:1862   */\n      tag_22\n      jump\t// in\n    tag_48:\n        /* \"#utility.yul\":1647:1869   */\n      swap3\n      swap2\n      pop\n      pop\n      jump\t// out\n        /* \"#utility.yul\":1875:2055   */\n    tag_23:\n        /* \"#utility.yul\":1923:2000   */\n      0x4e487b7100000000000000000000000000000000000000000000000000000000\n        /* \"#utility.yul\":1920:1921   */\n      0x00\n        /* \"#utility.yul\":1913:2001   */\n      mstore\n        /* \"#utility.yul\":2020:2024   */\n      0x11\n        /* \"#utility.yul\":2017:2018   */\n      0x04\n        /* \"#utility.yul\":2010:2025   */\n      mstore\n        /* \"#utility.yul\":2044:2048   */\n      0x24\n        /* \"#utility.yul\":2041:2042   */\n      0x00\n        /* \"#utility.yul\":2034:2049   */\n      revert\n        /* \"#utility.yul\":2061:2252   */\n    tag_12:\n        /* \"#utility.yul\":2101:2104   */\n      0x00\n        /* \"#utility.yul\":2120:2140   */\n      tag_51\n        /* \"#utility.yul\":2138:2139   */\n      dup3\n        /* \"#utility.yul\":2120:2140   */\n      tag_19\n      jump\t// in\n    tag_51:\n        /* \"#utility.yul\":2115:2140   */\n      swap2\n      pop\n        /* \"#utility.yul\":2154:2174   */\n      tag_52\n        /* \"#utility.yul\":2172:2173   */\n      dup4\n        /* \"#utility.yul\":2154:2174   */\n      tag_19\n      jump\t// in\n    tag_52:\n        /* \"#utility.yul\":2149:2174   */\n      swap3\n      pop\n        /* \"#utility.yul\":2197:2198   */\n      dup3\n        /* \"#utility.yul\":2194:2195   */\n      dup3\n        /* \"#utility.yul\":2190:2199   */\n      add\n        /* \"#utility.yul\":2183:2199   */\n      swap1\n      pop\n        /* \"#utility.yul\":2218:2221   */\n      dup1\n        /* \"#utility.yul\":2215:2216   */\n      dup3\n        /* \"#utility.yul\":2212:2222   */\n      gt\n        /* \"#utility.yul\":2209:2245   */\n      iszero\n      tag_53\n      jumpi\n        /* \"#utility.yul\":2225:2243   */\n      tag_54\n      tag_23\n      jump\t// in\n    tag_54:\n        /* \"#utility.yul\":2209:2245   */\n    tag_53:\n        /* \"#utility.yul\":2061:2252   */\n      swap3\n      swap2\n      pop\n      pop\n      jump\t// out\n\n    auxdata: 0xa26469706673582212202585bd768fcfc01198f5089b19407be36ae12b3cef623664e4b8e035df32d76864736f6c634300081e0033\n}\n",
				"bytecode": {
					"linkReferences": {},
					"object": "6080604052348015600e575f5ffd5b506101de8061001c5f395ff3fe608060405234801561000f575f5ffd5b5060043610610029575f3560e01c8063981dbb241461002d575b5f5ffd5b610047600480360381019061004291906100e2565b61005d565b604051610054919061012f565b60405180910390f35b5f818360ff1661006d9190610175565b905092915050565b5f5ffd5b5f60ff82169050919050565b61008e81610079565b8114610098575f5ffd5b50565b5f813590506100a981610085565b92915050565b5f819050919050565b6100c1816100af565b81146100cb575f5ffd5b50565b5f813590506100dc816100b8565b92915050565b5f5f604083850312156100f8576100f7610075565b5b5f6101058582860161009b565b9250506020610116858286016100ce565b9150509250929050565b610129816100af565b82525050565b5f6020820190506101425f830184610120565b92915050565b7f4e487b71000000000000000000000000000000000000000000000000000000005f52601160045260245ffd5b5f61017f826100af565b915061018a836100af565b92508282019050808211156101a2576101a1610148565b5b9291505056fea26469706673582212202585bd768fcfc01198f5089b19407be36ae12b3cef623664e4b8e035df32d76864736f6c634300081e0033",
					"opcodes": "PUSH1 0x80 PUSH1 0x40 MSTORE CALLVALUE DUP1 ISZERO PUSH1 0xE JUMPI PUSH0 PUSH0 REVERT JUMPDEST POP PUSH2 0x1DE DUP1 PUSH2 0x1C PUSH0 CODECOPY PUSH0 RETURN INVALID PUSH1 0x80 PUSH1 0x40 MSTORE CALLVALUE DUP1 ISZERO PUSH2 0xF JUMPI PUSH0 PUSH0 REVERT JUMPDEST POP PUSH1 0x4 CALLDATASIZE LT PUSH2 0x29 JUMPI PUSH0 CALLDATALOAD PUSH1 0xE0 SHR DUP1 PUSH4 0x981DBB24 EQ PUSH2 0x2D JUMPI JUMPDEST PUSH0 PUSH0 REVERT JUMPDEST PUSH2 0x47 PUSH1 0x4 DUP1 CALLDATASIZE SUB DUP2 ADD SWAP1 PUSH2 0x42 SWAP2 SWAP1 PUSH2 0xE2 JUMP JUMPDEST PUSH2 0x5D JUMP JUMPDEST PUSH1 0x40 MLOAD PUSH2 0x54 SWAP2 SWAP1 PUSH2 0x12F JUMP JUMPDEST PUSH1 0x40 MLOAD DUP1 SWAP2 SUB SWAP1 RETURN JUMPDEST PUSH0 DUP2 DUP4 PUSH1 0xFF AND PUSH2 0x6D SWAP2 SWAP1 PUSH2 0x175 JUMP JUMPDEST SWAP1 POP SWAP3 SWAP2 POP POP JUMP JUMPDEST PUSH0 PUSH0 REVERT JUMPDEST PUSH0 PUSH1 0xFF DUP3 AND SWAP1 POP SWAP2 SWAP1 POP JUMP JUMPDEST PUSH2 0x8E DUP2 PUSH2 0x79 JUMP JUMPDEST DUP2 EQ PUSH2 0x98 JUMPI PUSH0 PUSH0 REVERT JUMPDEST POP JUMP JUMPDEST PUSH0 DUP2 CALLDATALOAD SWAP1 POP PUSH2 0xA9 DUP2 PUSH2 0x85 JUMP JUMPDEST SWAP3 SWAP2 POP POP JUMP JUMPDEST PUSH0 DUP2 SWAP1 POP SWAP2 SWAP1 POP JUMP JUMPDEST PUSH2 0xC1 DUP2 PUSH2 0xAF JUMP JUMPDEST DUP2 EQ PUSH2 0xCB JUMPI PUSH0 PUSH0 REVERT JUMPDEST POP JUMP JUMPDEST PUSH0 DUP2 CALLDATALOAD SWAP1 POP PUSH2 0xDC DUP2 PUSH2 0xB8 JUMP JUMPDEST SWAP3 SWAP2 POP POP JUMP JUMPDEST PUSH0 PUSH0 PUSH1 0x40 DUP4 DUP6 SUB SLT ISZERO PUSH2 0xF8 JUMPI PUSH2 0xF7 PUSH2 0x75 JUMP JUMPDEST JUMPDEST PUSH0 PUSH2 0x105 DUP6 DUP3 DUP7 ADD PUSH2 0x9B JUMP JUMPDEST SWAP3 POP POP PUSH1 0x20 PUSH2 0x116 DUP6 DUP3 DUP7 ADD PUSH2 0xCE JUMP JUMPDEST SWAP2 POP POP SWAP3 POP SWAP3 SWAP1 POP JUMP JUMPDEST PUSH2 0x129 DUP2 PUSH2 0xAF JUMP JUMPDEST DUP3 MSTORE POP POP JUMP JUMPDEST PUSH0 PUSH1 0x20 DUP3 ADD SWAP1 POP PUSH2 0x142 PUSH0 DUP4 ADD DUP5 PUSH2 0x120 JUMP JUMPDEST SWAP3 SWAP2 POP POP JUMP JUMPDEST PUSH32 0x4E487B7100000000000000000000000000000000000000000000000000000000 PUSH0 MSTORE PUSH1 0x11 PUSH1 0x4 MSTORE PUSH1 0x24 PUSH0 REVERT JUMPDEST PUSH0 PUSH2 0x17F DUP3 PUSH2 0xAF JUMP JUMPDEST SWAP2 POP PUSH2 0x18A DUP4 PUSH2 0xAF JUMP JUMPDEST SWAP3 POP DUP3 DUP3 ADD SWAP1 POP DUP1 DUP3 GT ISZERO PUSH2 0x1A2 JUMPI PUSH2 0x1A1 PUSH2 0x148 JUMP JUMPDEST JUMPDEST SWAP3 SWAP2 POP POP JUMP INVALID LOG2 PUSH5 0x6970667358 0x22 SLT KECCAK256 0x25 DUP6 0xBD PUSH23 0x8FCFC01198F5089B19407BE36AE12B3CEF623664E4B8E0 CALLDATALOAD 0xDF ORIGIN 0xD7 PUSH9 0x64736F6C634300081E STOP CALLER "
				},
				"gasEstimates": {
					"creation": {
						"codeDepositCost": "95600",
						"executionCost": "139",
						"totalCost": "95739"
					},
					"external": {
						"Soma(uint8,uint256)": "infinite"
					}
				},
				"methodIdentifiers": {
					"Soma(uint8,uint256)": "981dbb24"
				}
			},
			"storageLayout": {
				"storage": [],
				"types": null
			},
			"userdoc": {
				"kind": "user",
				"methods": {},
				"version": 1
			}
		}
	}
}