{
	"Address, msg.sender, require e deploy.sol": {
		"Heranca_2": {
			"abi": [
				{
					"inputs": [
						{
							"internalType": "string",
							"name": "Coloque_o_Nome",
							"type": "string"
						}
					],
					"name": "Busca_idade",
					"outputs": [
						{
							"internalType": "uint256",
							"name": "",
							"type": "uint256"
						}
					],
					"stateMutability": "view",
					"type": "function"
				},
				{
					"inputs": [
						{
							"internalType": "string",
							"name": "_nome",
							"type": "string"
						},
						{
							"internalType": "uint256",
							"name": "_idade",
							"type": "uint256"
						}
					],
					"name": "Coloque_Seu_Nome_e_idade",
					"outputs": [],
					"stateMutability": "nonpayable",
					"type": "function"
				},
				{
					"inputs": [],
					"name": "owner",
					"outputs": [
						{
							"internalType": "address",
							"name": "",
							"type": "address"
						}
					],
					"stateMutability": "view",
					"type": "function"
				}
			],
			"devdoc": {
				"kind": "dev",
				"methods": {},
				"version": 1
			},
			"evm": {
				"assembly": "    /* \"Address, msg.sender, require e deploy.sol\":60:731  contract Heranca_2{... */\n  mstore(0x40, 0x80)\n    /* \"Address, msg.sender, require e deploy.sol\":269:279  msg.sender */\n  caller\n    /* \"Address, msg.sender, require e deploy.sol\":246:279  address public owner = msg.sender */\n  0x01\n  exp(0x0100, 0x00)\n  dup2\n  sload\n  dup2\n  0xffffffffffffffffffffffffffffffffffffffff\n  mul\n  not\n  and\n  swap1\n  dup4\n  0xffffffffffffffffffffffffffffffffffffffff\n  and\n  mul\n  or\n  swap1\n  sstore\n  pop\n    /* \"Address, msg.sender, require e deploy.sol\":60:731  contract Heranca_2{... */\n  callvalue\n  dup1\n  iszero\n  tag_1\n  jumpi\n  revert(0x00, 0x00)\ntag_1:\n  pop\n  dataSize(sub_0)\n  dup1\n  dataOffset(sub_0)\n  0x00\n  codecopy\n  0x00\n  return\nstop\n\nsub_0: assembly {\n        /* \"Address, msg.sender, require e deploy.sol\":60:731  contract Heranca_2{... */\n      mstore(0x40, 0x80)\n      callvalue\n      dup1\n      iszero\n      tag_1\n      jumpi\n      revert(0x00, 0x00)\n    tag_1:\n      pop\n      jumpi(tag_2, lt(calldatasize, 0x04))\n      shr(0xe0, calldataload(0x00))\n      dup1\n      0x04fcb3a4\n      eq\n      tag_3\n      jumpi\n      dup1\n      0x37936958\n      eq\n      tag_4\n      jumpi\n      dup1\n      0x8da5cb5b\n      eq\n      tag_5\n      jumpi\n    tag_2:\n      revert(0x00, 0x00)\n        /* \"Address, msg.sender, require e deploy.sol\":598:728  function Busca_idade( string memory Coloque_o_Nome) public view returns (uint){... */\n    tag_3:\n      tag_6\n      0x04\n      dup1\n      calldatasize\n      sub\n      dup2\n      add\n      swap1\n      tag_7\n      swap2\n      swap1\n      tag_8\n      jump\t// in\n    tag_7:\n      tag_9\n      jump\t// in\n    tag_6:\n      mload(0x40)\n      tag_10\n      swap2\n      swap1\n      tag_11\n      jump\t// in\n    tag_10:\n      mload(0x40)\n      dup1\n      swap2\n      sub\n      swap1\n      return\n        /* \"Address, msg.sender, require e deploy.sol\":350:590  function Coloque_Seu_Nome_e_idade( string memory _nome, uint _idade ) public {... */\n    tag_4:\n      tag_12\n      0x04\n      dup1\n      calldatasize\n      sub\n      dup2\n      add\n      swap1\n      tag_13\n      swap2\n      swap1\n      tag_14\n      jump\t// in\n    tag_13:\n      tag_15\n      jump\t// in\n    tag_12:\n      stop\n        /* \"Address, msg.sender, require e deploy.sol\":246:279  address public owner = msg.sender */\n    tag_5:\n      tag_16\n      tag_17\n      jump\t// in\n    tag_16:\n      mload(0x40)\n      tag_18\n      swap2\n      swap1\n      tag_19\n      jump\t// in\n    tag_18:\n      mload(0x40)\n      dup1\n      swap2\n      sub\n      swap1\n      return\n        /* \"Address, msg.sender, require e deploy.sol\":598:728  function Busca_idade( string memory Coloque_o_Nome) public view returns (uint){... */\n    tag_9:\n        /* \"Address, msg.sender, require e deploy.sol\":671:675  uint */\n      0x00\n        /* \"Address, msg.sender, require e deploy.sol\":694:704  Nome_Idade */\n      0x00\n        /* \"Address, msg.sender, require e deploy.sol\":705:719  Coloque_o_Nome */\n      dup3\n        /* \"Address, msg.sender, require e deploy.sol\":694:720  Nome_Idade[Coloque_o_Nome] */\n      mload(0x40)\n      tag_21\n      swap2\n      swap1\n      tag_22\n      jump\t// in\n    tag_21:\n      swap1\n      dup2\n      mstore\n      0x20\n      add\n      mload(0x40)\n      dup1\n      swap2\n      sub\n      swap1\n      keccak256\n      sload\n        /* \"Address, msg.sender, require e deploy.sol\":687:720  return Nome_Idade[Coloque_o_Nome] */\n      swap1\n      pop\n        /* \"Address, msg.sender, require e deploy.sol\":598:728  function Busca_idade( string memory Coloque_o_Nome) public view returns (uint){... */\n      swap2\n      swap1\n      pop\n      jump\t// out\n        /* \"Address, msg.sender, require e deploy.sol\":350:590  function Coloque_Seu_Nome_e_idade( string memory _nome, uint _idade ) public {... */\n    tag_15:\n        /* \"Address, msg.sender, require e deploy.sol\":533:543  msg.sender */\n      caller\n        /* \"Address, msg.sender, require e deploy.sol\":524:543  owner == msg.sender */\n      0xffffffffffffffffffffffffffffffffffffffff\n      and\n        /* \"Address, msg.sender, require e deploy.sol\":524:529  owner */\n      0x01\n      0x00\n      swap1\n      sload\n      swap1\n      0x0100\n      exp\n      swap1\n      div\n      0xffffffffffffffffffffffffffffffffffffffff\n      and\n        /* \"Address, msg.sender, require e deploy.sol\":524:543  owner == msg.sender */\n      0xffffffffffffffffffffffffffffffffffffffff\n      and\n      eq\n        /* \"Address, msg.sender, require e deploy.sol\":516:544  require(owner == msg.sender) */\n      tag_24\n      jumpi\n      revert(0x00, 0x00)\n    tag_24:\n        /* \"Address, msg.sender, require e deploy.sol\":575:581  _idade */\n      dup1\n        /* \"Address, msg.sender, require e deploy.sol\":555:565  Nome_Idade */\n      0x00\n        /* \"Address, msg.sender, require e deploy.sol\":566:571  _nome */\n      dup4\n        /* \"Address, msg.sender, require e deploy.sol\":555:572  Nome_Idade[_nome] */\n      mload(0x40)\n      tag_25\n      swap2\n      swap1\n      tag_22\n      jump\t// in\n    tag_25:\n      swap1\n      dup2\n      mstore\n      0x20\n      add\n      mload(0x40)\n      dup1\n      swap2\n      sub\n      swap1\n      keccak256\n        /* \"Address, msg.sender, require e deploy.sol\":555:581  Nome_Idade[_nome] = _idade */\n      dup2\n      swap1\n      sstore\n      pop\n        /* \"Address, msg.sender, require e deploy.sol\":350:590  function Coloque_Seu_Nome_e_idade( string memory _nome, uint _idade ) public {... */\n      pop\n      pop\n      jump\t// out\n        /* \"Address, msg.sender, require e deploy.sol\":246:279  address public owner = msg.sender */\n    tag_17:\n      0x01\n      0x00\n      swap1\n      sload\n      swap1\n      0x0100\n      exp\n      swap1\n      div\n      0xffffffffffffffffffffffffffffffffffffffff\n      and\n      dup2\n      jump\t// out\n        /* \"#utility.yul\":7:82   */\n    tag_26:\n        /* \"#utility.yul\":40:46   */\n      0x00\n        /* \"#utility.yul\":73:75   */\n      0x40\n        /* \"#utility.yul\":67:76   */\n      mload\n        /* \"#utility.yul\":57:76   */\n      swap1\n      pop\n        /* \"#utility.yul\":7:82   */\n      swap1\n      jump\t// out\n        /* \"#utility.yul\":88:205   */\n    tag_27:\n        /* \"#utility.yul\":197:198   */\n      0x00\n        /* \"#utility.yul\":194:195   */\n      0x00\n        /* \"#utility.yul\":187:199   */\n      revert\n        /* \"#utility.yul\":211:328   */\n    tag_28:\n        /* \"#utility.yul\":320:321   */\n      0x00\n        /* \"#utility.yul\":317:318   */\n      0x00\n        /* \"#utility.yul\":310:322   */\n      revert\n        /* \"#utility.yul\":334:451   */\n    tag_29:\n        /* \"#utility.yul\":443:444   */\n      0x00\n        /* \"#utility.yul\":440:441   */\n      0x00\n        /* \"#utility.yul\":433:445   */\n      revert\n        /* \"#utility.yul\":457:574   */\n    tag_30:\n        /* \"#utility.yul\":566:567   */\n      0x00\n        /* \"#utility.yul\":563:564   */\n      0x00\n        /* \"#utility.yul\":556:568   */\n      revert\n        /* \"#utility.yul\":580:682   */\n    tag_31:\n        /* \"#utility.yul\":621:627   */\n      0x00\n        /* \"#utility.yul\":672:674   */\n      0x1f\n        /* \"#utility.yul\":668:675   */\n      not\n        /* \"#utility.yul\":663:665   */\n      0x1f\n        /* \"#utility.yul\":656:661   */\n      dup4\n        /* \"#utility.yul\":652:666   */\n      add\n        /* \"#utility.yul\":648:676   */\n      and\n        /* \"#utility.yul\":638:676   */\n      swap1\n      pop\n        /* \"#utility.yul\":580:682   */\n      swap2\n      swap1\n      pop\n      jump\t// out\n        /* \"#utility.yul\":688:868   */\n    tag_32:\n        /* \"#utility.yul\":736:813   */\n      0x4e487b7100000000000000000000000000000000000000000000000000000000\n        /* \"#utility.yul\":733:734   */\n      0x00\n        /* \"#utility.yul\":726:814   */\n      mstore\n        /* \"#utility.yul\":833:837   */\n      0x41\n        /* \"#utility.yul\":830:831   */\n      0x04\n        /* \"#utility.yul\":823:838   */\n      mstore\n        /* \"#utility.yul\":857:861   */\n      0x24\n        /* \"#utility.yul\":854:855   */\n      0x00\n        /* \"#utility.yul\":847:862   */\n      revert\n        /* \"#utility.yul\":874:1155   */\n    tag_33:\n        /* \"#utility.yul\":957:984   */\n      tag_59\n        /* \"#utility.yul\":979:983   */\n      dup3\n        /* \"#utility.yul\":957:984   */\n      tag_31\n      jump\t// in\n    tag_59:\n        /* \"#utility.yul\":949:955   */\n      dup2\n        /* \"#utility.yul\":945:985   */\n      add\n        /* \"#utility.yul\":1087:1093   */\n      dup2\n        /* \"#utility.yul\":1075:1085   */\n      dup2\n        /* \"#utility.yul\":1072:1094   */\n      lt\n        /* \"#utility.yul\":1051:1069   */\n      0xffffffffffffffff\n        /* \"#utility.yul\":1039:1049   */\n      dup3\n        /* \"#utility.yul\":1036:1070   */\n      gt\n        /* \"#utility.yul\":1033:1095   */\n      or\n        /* \"#utility.yul\":1030:1118   */\n      iszero\n      tag_60\n      jumpi\n        /* \"#utility.yul\":1098:1116   */\n      tag_61\n      tag_32\n      jump\t// in\n    tag_61:\n        /* \"#utility.yul\":1030:1118   */\n    tag_60:\n        /* \"#utility.yul\":1138:1148   */\n      dup1\n        /* \"#utility.yul\":1134:1136   */\n      0x40\n        /* \"#utility.yul\":1127:1149   */\n      mstore\n        /* \"#utility.yul\":917:1155   */\n      pop\n        /* \"#utility.yul\":874:1155   */\n      pop\n      pop\n      jump\t// out\n        /* \"#utility.yul\":1161:1290   */\n    tag_34:\n        /* \"#utility.yul\":1195:1201   */\n      0x00\n        /* \"#utility.yul\":1222:1242   */\n      tag_63\n      tag_26\n      jump\t// in\n    tag_63:\n        /* \"#utility.yul\":1212:1242   */\n      swap1\n      pop\n        /* \"#utility.yul\":1251:1284   */\n      tag_64\n        /* \"#utility.yul\":1279:1283   */\n      dup3\n        /* \"#utility.yul\":1271:1277   */\n      dup3\n        /* \"#utility.yul\":1251:1284   */\n      tag_33\n      jump\t// in\n    tag_64:\n        /* \"#utility.yul\":1161:1290   */\n      swap2\n      swap1\n      pop\n      jump\t// out\n        /* \"#utility.yul\":1296:1604   */\n    tag_35:\n        /* \"#utility.yul\":1358:1362   */\n      0x00\n        /* \"#utility.yul\":1448:1466   */\n      0xffffffffffffffff\n        /* \"#utility.yul\":1440:1446   */\n      dup3\n        /* \"#utility.yul\":1437:1467   */\n      gt\n        /* \"#utility.yul\":1434:1490   */\n      iszero\n      tag_66\n      jumpi\n        /* \"#utility.yul\":1470:1488   */\n      tag_67\n      tag_32\n      jump\t// in\n    tag_67:\n        /* \"#utility.yul\":1434:1490   */\n    tag_66:\n        /* \"#utility.yul\":1508:1537   */\n      tag_68\n        /* \"#utility.yul\":1530:1536   */\n      dup3\n        /* \"#utility.yul\":1508:1537   */\n      tag_31\n      jump\t// in\n    tag_68:\n        /* \"#utility.yul\":1500:1537   */\n      swap1\n      pop\n        /* \"#utility.yul\":1592:1596   */\n      0x20\n        /* \"#utility.yul\":1586:1590   */\n      dup2\n        /* \"#utility.yul\":1582:1597   */\n      add\n        /* \"#utility.yul\":1574:1597   */\n      swap1\n      pop\n        /* \"#utility.yul\":1296:1604   */\n      swap2\n      swap1\n      pop\n      jump\t// out\n        /* \"#utility.yul\":1610:1758   */\n    tag_36:\n        /* \"#utility.yul\":1708:1714   */\n      dup3\n        /* \"#utility.yul\":1703:1706   */\n      dup2\n        /* \"#utility.yul\":1698:1701   */\n      dup4\n        /* \"#utility.yul\":1685:1715   */\n      calldatacopy\n        /* \"#utility.yul\":1749:1750   */\n      0x00\n        /* \"#utility.yul\":1740:1746   */\n      dup4\n        /* \"#utility.yul\":1735:1738   */\n      dup4\n        /* \"#utility.yul\":1731:1747   */\n      add\n        /* \"#utility.yul\":1724:1751   */\n      mstore\n        /* \"#utility.yul\":1610:1758   */\n      pop\n      pop\n      pop\n      jump\t// out\n        /* \"#utility.yul\":1764:2189   */\n    tag_37:\n        /* \"#utility.yul\":1842:1847   */\n      0x00\n        /* \"#utility.yul\":1867:1933   */\n      tag_71\n        /* \"#utility.yul\":1883:1932   */\n      tag_72\n        /* \"#utility.yul\":1925:1931   */\n      dup5\n        /* \"#utility.yul\":1883:1932   */\n      tag_35\n      jump\t// in\n    tag_72:\n        /* \"#utility.yul\":1867:1933   */\n      tag_34\n      jump\t// in\n    tag_71:\n        /* \"#utility.yul\":1858:1933   */\n      swap1\n      pop\n        /* \"#utility.yul\":1956:1962   */\n      dup3\n        /* \"#utility.yul\":1949:1954   */\n      dup2\n        /* \"#utility.yul\":1942:1963   */\n      mstore\n        /* \"#utility.yul\":1994:1998   */\n      0x20\n        /* \"#utility.yul\":1987:1992   */\n      dup2\n        /* \"#utility.yul\":1983:1999   */\n      add\n        /* \"#utility.yul\":2032:2035   */\n      dup5\n        /* \"#utility.yul\":2023:2029   */\n      dup5\n        /* \"#utility.yul\":2018:2021   */\n      dup5\n        /* \"#utility.yul\":2014:2030   */\n      add\n        /* \"#utility.yul\":2011:2036   */\n      gt\n        /* \"#utility.yul\":2008:2120   */\n      iszero\n      tag_73\n      jumpi\n        /* \"#utility.yul\":2039:2118   */\n      tag_74\n      tag_30\n      jump\t// in\n    tag_74:\n        /* \"#utility.yul\":2008:2120   */\n    tag_73:\n        /* \"#utility.yul\":2129:2183   */\n      tag_75\n        /* \"#utility.yul\":2176:2182   */\n      dup5\n        /* \"#utility.yul\":2171:2174   */\n      dup3\n        /* \"#utility.yul\":2166:2169   */\n      dup6\n        /* \"#utility.yul\":2129:2183   */\n      tag_36\n      jump\t// in\n    tag_75:\n        /* \"#utility.yul\":1848:2189   */\n      pop\n        /* \"#utility.yul\":1764:2189   */\n      swap4\n      swap3\n      pop\n      pop\n      pop\n      jump\t// out\n        /* \"#utility.yul\":2209:2549   */\n    tag_38:\n        /* \"#utility.yul\":2265:2270   */\n      0x00\n        /* \"#utility.yul\":2314:2317   */\n      dup3\n        /* \"#utility.yul\":2307:2311   */\n      0x1f\n        /* \"#utility.yul\":2299:2305   */\n      dup4\n        /* \"#utility.yul\":2295:2312   */\n      add\n        /* \"#utility.yul\":2291:2318   */\n      slt\n        /* \"#utility.yul\":2281:2403   */\n      tag_77\n      jumpi\n        /* \"#utility.yul\":2322:2401   */\n      tag_78\n      tag_29\n      jump\t// in\n    tag_78:\n        /* \"#utility.yul\":2281:2403   */\n    tag_77:\n        /* \"#utility.yul\":2439:2445   */\n      dup2\n        /* \"#utility.yul\":2426:2446   */\n      calldataload\n        /* \"#utility.yul\":2464:2543   */\n      tag_79\n        /* \"#utility.yul\":2539:2542   */\n      dup5\n        /* \"#utility.yul\":2531:2537   */\n      dup3\n        /* \"#utility.yul\":2524:2528   */\n      0x20\n        /* \"#utility.yul\":2516:2522   */\n      dup7\n        /* \"#utility.yul\":2512:2529   */\n      add\n        /* \"#utility.yul\":2464:2543   */\n      tag_37\n      jump\t// in\n    tag_79:\n        /* \"#utility.yul\":2455:2543   */\n      swap2\n      pop\n        /* \"#utility.yul\":2271:2549   */\n      pop\n        /* \"#utility.yul\":2209:2549   */\n      swap3\n      swap2\n      pop\n      pop\n      jump\t// out\n        /* \"#utility.yul\":2555:3064   */\n    tag_8:\n        /* \"#utility.yul\":2624:2630   */\n      0x00\n        /* \"#utility.yul\":2673:2675   */\n      0x20\n        /* \"#utility.yul\":2661:2670   */\n      dup3\n        /* \"#utility.yul\":2652:2659   */\n      dup5\n        /* \"#utility.yul\":2648:2671   */\n      sub\n        /* \"#utility.yul\":2644:2676   */\n      slt\n        /* \"#utility.yul\":2641:2760   */\n      iszero\n      tag_81\n      jumpi\n        /* \"#utility.yul\":2679:2758   */\n      tag_82\n      tag_27\n      jump\t// in\n    tag_82:\n        /* \"#utility.yul\":2641:2760   */\n    tag_81:\n        /* \"#utility.yul\":2827:2828   */\n      0x00\n        /* \"#utility.yul\":2816:2825   */\n      dup3\n        /* \"#utility.yul\":2812:2829   */\n      add\n        /* \"#utility.yul\":2799:2830   */\n      calldataload\n        /* \"#utility.yul\":2857:2875   */\n      0xffffffffffffffff\n        /* \"#utility.yul\":2849:2855   */\n      dup2\n        /* \"#utility.yul\":2846:2876   */\n      gt\n        /* \"#utility.yul\":2843:2960   */\n      iszero\n      tag_83\n      jumpi\n        /* \"#utility.yul\":2879:2958   */\n      tag_84\n      tag_28\n      jump\t// in\n    tag_84:\n        /* \"#utility.yul\":2843:2960   */\n    tag_83:\n        /* \"#utility.yul\":2984:3047   */\n      tag_85\n        /* \"#utility.yul\":3039:3046   */\n      dup5\n        /* \"#utility.yul\":3030:3036   */\n      dup3\n        /* \"#utility.yul\":3019:3028   */\n      dup6\n        /* \"#utility.yul\":3015:3037   */\n      add\n        /* \"#utility.yul\":2984:3047   */\n      tag_38\n      jump\t// in\n    tag_85:\n        /* \"#utility.yul\":2974:3047   */\n      swap2\n      pop\n        /* \"#utility.yul\":2770:3057   */\n      pop\n        /* \"#utility.yul\":2555:3064   */\n      swap3\n      swap2\n      pop\n      pop\n      jump\t// out\n        /* \"#utility.yul\":3070:3147   */\n    tag_39:\n        /* \"#utility.yul\":3107:3114   */\n      0x00\n        /* \"#utility.yul\":3136:3141   */\n      dup2\n        /* \"#utility.yul\":3125:3141   */\n      swap1\n      pop\n        /* \"#utility.yul\":3070:3147   */\n      swap2\n      swap1\n      pop\n      jump\t// out\n        /* \"#utility.yul\":3153:3271   */\n    tag_40:\n        /* \"#utility.yul\":3240:3264   */\n      tag_88\n        /* \"#utility.yul\":3258:3263   */\n      dup2\n        /* \"#utility.yul\":3240:3264   */\n      tag_39\n      jump\t// in\n    tag_88:\n        /* \"#utility.yul\":3235:3238   */\n      dup3\n        /* \"#utility.yul\":3228:3265   */\n      mstore\n        /* \"#utility.yul\":3153:3271   */\n      pop\n      pop\n      jump\t// out\n        /* \"#utility.yul\":3277:3499   */\n    tag_11:\n        /* \"#utility.yul\":3370:3374   */\n      0x00\n        /* \"#utility.yul\":3408:3410   */\n      0x20\n        /* \"#utility.yul\":3397:3406   */\n      dup3\n        /* \"#utility.yul\":3393:3411   */\n      add\n        /* \"#utility.yul\":3385:3411   */\n      swap1\n      pop\n        /* \"#utility.yul\":3421:3492   */\n      tag_90\n        /* \"#utility.yul\":3489:3490   */\n      0x00\n        /* \"#utility.yul\":3478:3487   */\n      dup4\n        /* \"#utility.yul\":3474:3491   */\n      add\n        /* \"#utility.yul\":3465:3471   */\n      dup5\n        /* \"#utility.yul\":3421:3492   */\n      tag_40\n      jump\t// in\n    tag_90:\n        /* \"#utility.yul\":3277:3499   */\n      swap3\n      swap2\n      pop\n      pop\n      jump\t// out\n        /* \"#utility.yul\":3505:3627   */\n    tag_41:\n        /* \"#utility.yul\":3578:3602   */\n      tag_92\n        /* \"#utility.yul\":3596:3601   */\n      dup2\n        /* \"#utility.yul\":3578:3602   */\n      tag_39\n      jump\t// in\n    tag_92:\n        /* \"#utility.yul\":3571:3576   */\n      dup2\n        /* \"#utility.yul\":3568:3603   */\n      eq\n        /* \"#utility.yul\":3558:3621   */\n      tag_93\n      jumpi\n        /* \"#utility.yul\":3617:3618   */\n      0x00\n        /* \"#utility.yul\":3614:3615   */\n      0x00\n        /* \"#utility.yul\":3607:3619   */\n      revert\n        /* \"#utility.yul\":3558:3621   */\n    tag_93:\n        /* \"#utility.yul\":3505:3627   */\n      pop\n      jump\t// out\n        /* \"#utility.yul\":3633:3772   */\n    tag_42:\n        /* \"#utility.yul\":3679:3684   */\n      0x00\n        /* \"#utility.yul\":3717:3723   */\n      dup2\n        /* \"#utility.yul\":3704:3724   */\n      calldataload\n        /* \"#utility.yul\":3695:3724   */\n      swap1\n      pop\n        /* \"#utility.yul\":3733:3766   */\n      tag_95\n        /* \"#utility.yul\":3760:3765   */\n      dup2\n        /* \"#utility.yul\":3733:3766   */\n      tag_41\n      jump\t// in\n    tag_95:\n        /* \"#utility.yul\":3633:3772   */\n      swap3\n      swap2\n      pop\n      pop\n      jump\t// out\n        /* \"#utility.yul\":3778:4432   */\n    tag_14:\n        /* \"#utility.yul\":3856:3862   */\n      0x00\n        /* \"#utility.yul\":3864:3870   */\n      0x00\n        /* \"#utility.yul\":3913:3915   */\n      0x40\n        /* \"#utility.yul\":3901:3910   */\n      dup4\n        /* \"#utility.yul\":3892:3899   */\n      dup6\n        /* \"#utility.yul\":3888:3911   */\n      sub\n        /* \"#utility.yul\":3884:3916   */\n      slt\n        /* \"#utility.yul\":3881:4000   */\n      iszero\n      tag_97\n      jumpi\n        /* \"#utility.yul\":3919:3998   */\n      tag_98\n      tag_27\n      jump\t// in\n    tag_98:\n        /* \"#utility.yul\":3881:4000   */\n    tag_97:\n        /* \"#utility.yul\":4067:4068   */\n      0x00\n        /* \"#utility.yul\":4056:4065   */\n      dup4\n        /* \"#utility.yul\":4052:4069   */\n      add\n        /* \"#utility.yul\":4039:4070   */\n      calldataload\n        /* \"#utility.yul\":4097:4115   */\n      0xffffffffffffffff\n        /* \"#utility.yul\":4089:4095   */\n      dup2\n        /* \"#utility.yul\":4086:4116   */\n      gt\n        /* \"#utility.yul\":4083:4200   */\n      iszero\n      tag_99\n      jumpi\n        /* \"#utility.yul\":4119:4198   */\n      tag_100\n      tag_28\n      jump\t// in\n    tag_100:\n        /* \"#utility.yul\":4083:4200   */\n    tag_99:\n        /* \"#utility.yul\":4224:4287   */\n      tag_101\n        /* \"#utility.yul\":4279:4286   */\n      dup6\n        /* \"#utility.yul\":4270:4276   */\n      dup3\n        /* \"#utility.yul\":4259:4268   */\n      dup7\n        /* \"#utility.yul\":4255:4277   */\n      add\n        /* \"#utility.yul\":4224:4287   */\n      tag_38\n      jump\t// in\n    tag_101:\n        /* \"#utility.yul\":4214:4287   */\n      swap3\n      pop\n        /* \"#utility.yul\":4010:4297   */\n      pop\n        /* \"#utility.yul\":4336:4338   */\n      0x20\n        /* \"#utility.yul\":4362:4415   */\n      tag_102\n        /* \"#utility.yul\":4407:4414   */\n      dup6\n        /* \"#utility.yul\":4398:4404   */\n      dup3\n        /* \"#utility.yul\":4387:4396   */\n      dup7\n        /* \"#utility.yul\":4383:4405   */\n      add\n        /* \"#utility.yul\":4362:4415   */\n      tag_42\n      jump\t// in\n    tag_102:\n        /* \"#utility.yul\":4352:4415   */\n      swap2\n      pop\n        /* \"#utility.yul\":4307:4425   */\n      pop\n        /* \"#utility.yul\":3778:4432   */\n      swap3\n      pop\n      swap3\n      swap1\n      pop\n      jump\t// out\n        /* \"#utility.yul\":4438:4564   */\n    tag_43:\n        /* \"#utility.yul\":4475:4482   */\n      0x00\n        /* \"#utility.yul\":4515:4557   */\n      0xffffffffffffffffffffffffffffffffffffffff\n        /* \"#utility.yul\":4508:4513   */\n      dup3\n        /* \"#utility.yul\":4504:4558   */\n      and\n        /* \"#utility.yul\":4493:4558   */\n      swap1\n      pop\n        /* \"#utility.yul\":4438:4564   */\n      swap2\n      swap1\n      pop\n      jump\t// out\n        /* \"#utility.yul\":4570:4666   */\n    tag_44:\n        /* \"#utility.yul\":4607:4614   */\n      0x00\n        /* \"#utility.yul\":4636:4660   */\n      tag_105\n        /* \"#utility.yul\":4654:4659   */\n      dup3\n        /* \"#utility.yul\":4636:4660   */\n      tag_43\n      jump\t// in\n    tag_105:\n        /* \"#utility.yul\":4625:4660   */\n      swap1\n      pop\n        /* \"#utility.yul\":4570:4666   */\n      swap2\n      swap1\n      pop\n      jump\t// out\n        /* \"#utility.yul\":4672:4790   */\n    tag_45:\n        /* \"#utility.yul\":4759:4783   */\n      tag_107\n        /* \"#utility.yul\":4777:4782   */\n      dup2\n        /* \"#utility.yul\":4759:4783   */\n      tag_44\n      jump\t// in\n    tag_107:\n        /* \"#utility.yul\":4754:4757   */\n      dup3\n        /* \"#utility.yul\":4747:4784   */\n      mstore\n        /* \"#utility.yul\":4672:4790   */\n      pop\n      pop\n      jump\t// out\n        /* \"#utility.yul\":4796:5018   */\n    tag_19:\n        /* \"#utility.yul\":4889:4893   */\n      0x00\n        /* \"#utility.yul\":4927:4929   */\n      0x20\n        /* \"#utility.yul\":4916:4925   */\n      dup3\n        /* \"#utility.yul\":4912:4930   */\n      add\n        /* \"#utility.yul\":4904:4930   */\n      swap1\n      pop\n        /* \"#utility.yul\":4940:5011   */\n      tag_109\n        /* \"#utility.yul\":5008:5009   */\n      0x00\n        /* \"#utility.yul\":4997:5006   */\n      dup4\n        /* \"#utility.yul\":4993:5010   */\n      add\n        /* \"#utility.yul\":4984:4990   */\n      dup5\n        /* \"#utility.yul\":4940:5011   */\n      tag_45\n      jump\t// in\n    tag_109:\n        /* \"#utility.yul\":4796:5018   */\n      swap3\n      swap2\n      pop\n      pop\n      jump\t// out\n        /* \"#utility.yul\":5024:5123   */\n    tag_46:\n        /* \"#utility.yul\":5076:5082   */\n      0x00\n        /* \"#utility.yul\":5110:5115   */\n      dup2\n        /* \"#utility.yul\":5104:5116   */\n      mload\n        /* \"#utility.yul\":5094:5116   */\n      swap1\n      pop\n        /* \"#utility.yul\":5024:5123   */\n      swap2\n      swap1\n      pop\n      jump\t// out\n        /* \"#utility.yul\":5129:5277   */\n    tag_47:\n        /* \"#utility.yul\":5231:5242   */\n      0x00\n        /* \"#utility.yul\":5268:5271   */\n      dup2\n        /* \"#utility.yul\":5253:5271   */\n      swap1\n      pop\n        /* \"#utility.yul\":5129:5277   */\n      swap3\n      swap2\n      pop\n      pop\n      jump\t// out\n        /* \"#utility.yul\":5283:5422   */\n    tag_48:\n        /* \"#utility.yul\":5372:5378   */\n      dup3\n        /* \"#utility.yul\":5367:5370   */\n      dup2\n        /* \"#utility.yul\":5362:5365   */\n      dup4\n        /* \"#utility.yul\":5356:5379   */\n      mcopy\n        /* \"#utility.yul\":5413:5414   */\n      0x00\n        /* \"#utility.yul\":5404:5410   */\n      dup4\n        /* \"#utility.yul\":5399:5402   */\n      dup4\n        /* \"#utility.yul\":5395:5411   */\n      add\n        /* \"#utility.yul\":5388:5415   */\n      mstore\n        /* \"#utility.yul\":5283:5422   */\n      pop\n      pop\n      pop\n      jump\t// out\n        /* \"#utility.yul\":5428:5818   */\n    tag_49:\n        /* \"#utility.yul\":5534:5537   */\n      0x00\n        /* \"#utility.yul\":5562:5601   */\n      tag_114\n        /* \"#utility.yul\":5595:5600   */\n      dup3\n        /* \"#utility.yul\":5562:5601   */\n      tag_46\n      jump\t// in\n    tag_114:\n        /* \"#utility.yul\":5617:5706   */\n      tag_115\n        /* \"#utility.yul\":5699:5705   */\n      dup2\n        /* \"#utility.yul\":5694:5697   */\n      dup6\n        /* \"#utility.yul\":5617:5706   */\n      tag_47\n      jump\t// in\n    tag_115:\n        /* \"#utility.yul\":5610:5706   */\n      swap4\n      pop\n        /* \"#utility.yul\":5715:5780   */\n      tag_116\n        /* \"#utility.yul\":5773:5779   */\n      dup2\n        /* \"#utility.yul\":5768:5771   */\n      dup6\n        /* \"#utility.yul\":5761:5765   */\n      0x20\n        /* \"#utility.yul\":5754:5759   */\n      dup7\n        /* \"#utility.yul\":5750:5766   */\n      add\n        /* \"#utility.yul\":5715:5780   */\n      tag_48\n      jump\t// in\n    tag_116:\n        /* \"#utility.yul\":5805:5811   */\n      dup1\n        /* \"#utility.yul\":5800:5803   */\n      dup5\n        /* \"#utility.yul\":5796:5812   */\n      add\n        /* \"#utility.yul\":5789:5812   */\n      swap2\n      pop\n        /* \"#utility.yul\":5538:5818   */\n      pop\n        /* \"#utility.yul\":5428:5818   */\n      swap3\n      swap2\n      pop\n      pop\n      jump\t// out\n        /* \"#utility.yul\":5824:6099   */\n    tag_22:\n        /* \"#utility.yul\":5956:5959   */\n      0x00\n        /* \"#utility.yul\":5978:6073   */\n      tag_118\n        /* \"#utility.yul\":6069:6072   */\n      dup3\n        /* \"#utility.yul\":6060:6066   */\n      dup5\n        /* \"#utility.yul\":5978:6073   */\n      tag_49\n      jump\t// in\n    tag_118:\n        /* \"#utility.yul\":5971:6073   */\n      swap2\n      pop\n        /* \"#utility.yul\":6090:6093   */\n      dup2\n        /* \"#utility.yul\":6083:6093   */\n      swap1\n      pop\n        /* \"#utility.yul\":5824:6099   */\n      swap3\n      swap2\n      pop\n      pop\n      jump\t// out\n\n    auxdata: 0xa26469706673582212201b283ca4fef888946f04872e9d6fa212aab9b32883166a193be30d5be63e7c8764736f6c634300081e0033\n}\n",
				"bytecode": {
					"linkReferences": {},
					"object": "60806040523360015f6101000a81548173ffffffffffffffffffffffffffffffffffffffff021916908373ffffffffffffffffffffffffffffffffffffffff160217905550348015604e575f5ffd5b506104b58061005c5f395ff3fe608060405234801561000f575f5ffd5b506004361061003f575f3560e01c806304fcb3a41461004357806337936958146100735780638da5cb5b1461008f575b5f5ffd5b61005d600480360381019061005891906102c3565b6100ad565b60405161006a9190610322565b60405180910390f35b61008d60048036038101906100889190610365565b6100d3565b005b610097610151565b6040516100a491906103fe565b60405180910390f35b5f5f826040516100bd9190610469565b9081526020016040518091039020549050919050565b3373ffffffffffffffffffffffffffffffffffffffff1660015f9054906101000a900473ffffffffffffffffffffffffffffffffffffffff1673ffffffffffffffffffffffffffffffffffffffff161461012b575f5ffd5b805f8360405161013b9190610469565b9081526020016040518091039020819055505050565b60015f9054906101000a900473ffffffffffffffffffffffffffffffffffffffff1681565b5f604051905090565b5f5ffd5b5f5ffd5b5f5ffd5b5f5ffd5b5f601f19601f8301169050919050565b7f4e487b71000000000000000000000000000000000000000000000000000000005f52604160045260245ffd5b6101d58261018f565b810181811067ffffffffffffffff821117156101f4576101f361019f565b5b80604052505050565b5f610206610176565b905061021282826101cc565b919050565b5f67ffffffffffffffff8211156102315761023061019f565b5b61023a8261018f565b9050602081019050919050565b828183375f83830152505050565b5f61026761026284610217565b6101fd565b9050828152602081018484840111156102835761028261018b565b5b61028e848285610247565b509392505050565b5f82601f8301126102aa576102a9610187565b5b81356102ba848260208601610255565b91505092915050565b5f602082840312156102d8576102d761017f565b5b5f82013567ffffffffffffffff8111156102f5576102f4610183565b5b61030184828501610296565b91505092915050565b5f819050919050565b61031c8161030a565b82525050565b5f6020820190506103355f830184610313565b92915050565b6103448161030a565b811461034e575f5ffd5b50565b5f8135905061035f8161033b565b92915050565b5f5f6040838503121561037b5761037a61017f565b5b5f83013567ffffffffffffffff81111561039857610397610183565b5b6103a485828601610296565b92505060206103b585828601610351565b9150509250929050565b5f73ffffffffffffffffffffffffffffffffffffffff82169050919050565b5f6103e8826103bf565b9050919050565b6103f8816103de565b82525050565b5f6020820190506104115f8301846103ef565b92915050565b5f81519050919050565b5f81905092915050565b8281835e5f83830152505050565b5f61044382610417565b61044d8185610421565b935061045d81856020860161042b565b80840191505092915050565b5f6104748284610439565b91508190509291505056fea26469706673582212201b283ca4fef888946f04872e9d6fa212aab9b32883166a193be30d5be63e7c8764736f6c634300081e0033",
					"opcodes": "PUSH1 0x80 PUSH1 0x40 MSTORE CALLER PUSH1 0x1 PUSH0 PUSH2 0x100 EXP DUP2 SLOAD DUP2 PUSH20 0xFFFFFFFFFFFFFFFFFFFFFFFFFFFFFFFFFFFFFFFF MUL NOT AND SWAP1 DUP4 PUSH20 0xFFFFFFFFFFFFFFFFFFFFFFFFFFFFFFFFFFFFFFFF AND MUL OR SWAP1 SSTORE POP CALLVALUE DUP1 ISZERO PUSH1 0x4E JUMPI PUSH0 PUSH0 REVERT JUMPDEST POP PUSH2 0x4B5 DUP1 PUSH2 0x5C PUSH0 CODECOPY PUSH0 RETURN INVALID PUSH1 0x80 PUSH1 0x40 MSTORE CALLVALUE DUP1 ISZERO PUSH2 0xF JUMPI PUSH0 PUSH0 REVERT JUMPDEST POP PUSH1 0x4 CALLDATASIZE LT PUSH2 0x3F JUMPI PUSH0 CALLDATALOAD PUSH1 0xE0 SHR DUP1 PUSH4 0x4FCB3A4 EQ PUSH2 0x43 JUMPI DUP1 PUSH4 0x37936958 EQ PUSH2 0x73 JUMPI DUP1 PUSH4 0x8DA5CB5B EQ PUSH2 0x8F JUMPI JUMPDEST PUSH0 PUSH0 REVERT JUMPDEST PUSH2 0x5D PUSH1 0x4 DUP1 CALLDATASIZE SUB DUP2 ADD SWAP1 PUSH2 0x58 SWAP2 SWAP1 PUSH2 0x2C3 JUMP JUMPDEST PUSH2 0xAD JUMP JUMPDEST PUSH1 0x40 MLOAD PUSH2 0x6A SWAP2 SWAP1 PUSH2 0x322 JUMP JUMPDEST PUSH1 0x40 MLOAD DUP1 SWAP2 SUB SWAP1 RETURN JUMPDEST PUSH2 0x8D PUSH1 0x4 DUP1 CALLDATASIZE SUB DUP2 ADD SWAP1 PUSH2 0x88 SWAP2 SWAP1 PUSH2 0x365 JUMP JUMPDEST PUSH2 0xD3 JUMP JUMPDEST STOP JUMPDEST PUSH2 0x97 PUSH2 0x151 JUMP JUMPDEST PUSH1 0x40 MLOAD PUSH2 0xA4 SWAP2 SWAP1 PUSH2 0x3FE JUMP JUMPDEST PUSH1 0x40 MLOAD DUP1 SWAP2 SUB SWAP1 RETURN JUMPDEST PUSH0 PUSH0 DUP3 PUSH1 0x40 MLOAD PUSH2 0xBD SWAP2 SWAP1 PUSH2 0x469 JUMP JUMPDEST SWAP1 DUP2 MSTORE PUSH1 0x20 ADD PUSH1 0x40 MLOAD DUP1 SWAP2 SUB SWAP1 KECCAK256 SLOAD SWAP1 POP SWAP2 SWAP1 POP JUMP JUMPDEST CALLER PUSH20 0xFFFFFFFFFFFFFFFFFFFFFFFFFFFFFFFFFFFFFFFF AND PUSH1 0x1 PUSH0 SWAP1 SLOAD SWAP1 PUSH2 0x100 EXP SWAP1 DIV PUSH20 0xFFFFFFFFFFFFFFFFFFFFFFFFFFFFFFFFFFFFFFFF AND PUSH20 0xFFFFFFFFFFFFFFFFFFFFFFFFFFFFFFFFFFFFFFFF AND EQ PUSH2 0x12B JUMPI PUSH0 PUSH0 REVERT JUMPDEST DUP1 PUSH0 DUP4 PUSH1 0x40 MLOAD PUSH2 0x13B SWAP2 SWAP1 PUSH2 0x469 JUMP JUMPDEST SWAP1 DUP2 MSTORE PUSH1 0x20 ADD PUSH1 0x40 MLOAD DUP1 SWAP2 SUB SWAP1 KECCAK256 DUP2 SWAP1 SSTORE POP POP POP JUMP JUMPDEST PUSH1 0x1 PUSH0 SWAP1 SLOAD SWAP1 PUSH2 0x100 EXP SWAP1 DIV PUSH20 0xFFFFFFFFFFFFFFFFFFFFFFFFFFFFFFFFFFFFFFFF AND DUP2 JUMP JUMPDEST PUSH0 PUSH1 0x40 MLOAD SWAP1 POP SWAP1 JUMP JUMPDEST PUSH0 PUSH0 REVERT JUMPDEST PUSH0 PUSH0 REVERT JUMPDEST PUSH0 PUSH0 REVERT JUMPDEST PUSH0 PUSH0 REVERT JUMPDEST PUSH0 PUSH1 0x1F NOT PUSH1 0x1F DUP4 ADD AND SWAP1 POP SWAP2 SWAP1 POP JUMP JUMPDEST PUSH32 0x4E487B7100000000000000000000000000000000000000000000000000000000 PUSH0 MSTORE PUSH1 0x41 PUSH1 0x4 MSTORE PUSH1 0x24 PUSH0 REVERT JUMPDEST PUSH2 0x1D5 DUP3 PUSH2 0x18F JUMP JUMPDEST DUP2 ADD DUP2 DUP2 LT PUSH8 0xFFFFFFFFFFFFFFFF DUP3 GT OR ISZERO PUSH2 0x1F4 JUMPI PUSH2 0x1F3 PUSH2 0x19F JUMP JUMPDEST JUMPDEST DUP1 PUSH1 0x40 MSTORE POP POP POP JUMP JUMPDEST PUSH0 PUSH2 0x206 PUSH2 0x176 JUMP JUMPDEST SWAP1 POP PUSH2 0x212 DUP3 DUP3 PUSH2 0x1CC JUMP JUMPDEST SWAP2 SWAP1 POP JUMP JUMPDEST PUSH0 PUSH8 0xFFFFFFFFFFFFFFFF DUP3 GT ISZERO PUSH2 0x231 JUMPI PUSH2 0x230 PUSH2 0x19F JUMP JUMPDEST JUMPDEST PUSH2 0x23A DUP3 PUSH2 0x18F JUMP JUMPDEST SWAP1 POP PUSH1 0x20 DUP2 ADD SWAP1 POP SWAP2 SWAP1 POP JUMP JUMPDEST DUP3 DUP2 DUP4 CALLDATACOPY PUSH0 DUP4 DUP4 ADD MSTORE POP POP POP JUMP JUMPDEST PUSH0 PUSH2 0x267 PUSH2 0x262 DUP5 PUSH2 0x217 JUMP JUMPDEST PUSH2 0x1FD JUMP JUMPDEST SWAP1 POP DUP3 DUP2 MSTORE PUSH1 0x20 DUP2 ADD DUP5 DUP5 DUP5 ADD GT ISZERO PUSH2 0x283 JUMPI PUSH2 0x282 PUSH2 0x18B JUMP JUMPDEST JUMPDEST PUSH2 0x28E DUP5 DUP3 DUP6 PUSH2 0x247 JUMP JUMPDEST POP SWAP4 SWAP3 POP POP POP JUMP JUMPDEST PUSH0 DUP3 PUSH1 0x1F DUP4 ADD SLT PUSH2 0x2AA JUMPI PUSH2 0x2A9 PUSH2 0x187 JUMP JUMPDEST JUMPDEST DUP2 CALLDATALOAD PUSH2 0x2BA DUP5 DUP3 PUSH1 0x20 DUP7 ADD PUSH2 0x255 JUMP JUMPDEST SWAP2 POP POP SWAP3 SWAP2 POP POP JUMP JUMPDEST PUSH0 PUSH1 0x20 DUP3 DUP5 SUB SLT ISZERO PUSH2 0x2D8 JUMPI PUSH2 0x2D7 PUSH2 0x17F JUMP JUMPDEST JUMPDEST PUSH0 DUP3 ADD CALLDATALOAD PUSH8 0xFFFFFFFFFFFFFFFF DUP2 GT ISZERO PUSH2 0x2F5 JUMPI PUSH2 0x2F4 PUSH2 0x183 JUMP JUMPDEST JUMPDEST PUSH2 0x301 DUP5 DUP3 DUP6 ADD PUSH2 0x296 JUMP JUMPDEST SWAP2 POP POP SWAP3 SWAP2 POP POP JUMP JUMPDEST PUSH0 DUP2 SWAP1 POP SWAP2 SWAP1 POP JUMP JUMPDEST PUSH2 0x31C DUP2 PUSH2 0x30A JUMP JUMPDEST DUP3 MSTORE POP POP JUMP JUMPDEST PUSH0 PUSH1 0x20 DUP3 ADD SWAP1 POP PUSH2 0x335 PUSH0 DUP4 ADD DUP5 PUSH2 0x313 JUMP JUMPDEST SWAP3 SWAP2 POP POP JUMP JUMPDEST PUSH2 0x344 DUP2 PUSH2 0x30A JUMP JUMPDEST DUP2 EQ PUSH2 0x34E JUMPI PUSH0 PUSH0 REVERT JUMPDEST POP JUMP JUMPDEST PUSH0 DUP2 CALLDATALOAD SWAP1 POP PUSH2 0x35F DUP2 PUSH2 0x33B JUMP JUMPDEST SWAP3 SWAP2 POP POP JUMP JUMPDEST PUSH0 PUSH0 PUSH1 0x40 DUP4 DUP6 SUB SLT ISZERO PUSH2 0x37B JUMPI PUSH2 0x37A PUSH2 0x17F JUMP JUMPDEST JUMPDEST PUSH0 DUP4 ADD CALLDATALOAD PUSH8 0xFFFFFFFFFFFFFFFF DUP2 GT ISZERO PUSH2 0x398 JUMPI PUSH2 0x397 PUSH2 0x183 JUMP JUMPDEST JUMPDEST PUSH2 0x3A4 DUP6 DUP3 DUP7 ADD PUSH2 0x296 JUMP JUMPDEST SWAP3 POP POP PUSH1 0x20 PUSH2 0x3B5 DUP6 DUP3 DUP7 ADD PUSH2 0x351 JUMP JUMPDEST SWAP2 POP POP SWAP3 POP SWAP3 SWAP1 POP JUMP JUMPDEST PUSH0 PUSH20 0xFFFFFFFFFFFFFFFFFFFFFFFFFFFFFFFFFFFFFFFF DUP3 AND SWAP1 POP SWAP2 SWAP1 POP JUMP JUMPDEST PUSH0 PUSH2 0x3E8 DUP3 PUSH2 0x3BF JUMP JUMPDEST SWAP1 POP SWAP2 SWAP1 POP JUMP JUMPDEST PUSH2 0x3F8 DUP2 PUSH2 0x3DE JUMP JUMPDEST DUP3 MSTORE POP POP JUMP JUMPDEST PUSH0 PUSH1 0x20 DUP3 ADD SWAP1 POP PUSH2 0x411 PUSH0 DUP4 ADD DUP5 PUSH2 0x3EF JUMP JUMPDEST SWAP3 SWAP2 POP POP JUMP JUMPDEST PUSH0 DUP2 MLOAD SWAP1 POP SWAP2 SWAP1 POP JUMP JUMPDEST PUSH0 DUP2 SWAP1 POP SWAP3 SWAP2 POP POP JUMP JUMPDEST DUP3 DUP2 DUP4 MCOPY PUSH0 DUP4 DUP4 ADD MSTORE POP POP POP JUMP JUMPDEST PUSH0 PUSH2 0x443 DUP3 PUSH2 0x417 JUMP JUMPDEST PUSH2 0x44D DUP2 DUP6 PUSH2 0x421 JUMP JUMPDEST SWAP4 POP PUSH2 0x45D DUP2 DUP6 PUSH1 0x20 DUP7 ADD PUSH2 0x42B JUMP JUMPDEST DUP1 DUP5 ADD SWAP2 POP POP SWAP3 SWAP2 POP POP JUMP JUMPDEST PUSH0 PUSH2 0x474 DUP3 DUP5 PUSH2 0x439 JUMP JUMPDEST SWAP2 POP DUP2 SWAP1 POP SWAP3 SWAP2 POP POP JUMP INVALID LOG2 PUSH5 0x6970667358 0x22 SLT KECCAK256 SHL 0x28 EXTCODECOPY LOG4 INVALID EXTCALL DUP9 SWAP5 PUSH16 0x4872E9D6FA212AAB9B32883166A193B CALLF 0xD5B DUPN 0x3E PUSH29 0x8764736F6C634300081E00330000000000000000000000000000000000 "
				},
				"gasEstimates": {
					"creation": {
						"codeDepositCost": "241000",
						"executionCost": "24544",
						"totalCost": "265544"
					},
					"external": {
						"Busca_idade(string)": "infinite",
						"Coloque_Seu_Nome_e_idade(string,uint256)": "infinite",
						"owner()": "2530"
					}
				},
				"methodIdentifiers": {
					"Busca_idade(string)": "04fcb3a4",
					"Coloque_Seu_Nome_e_idade(string,uint256)": "37936958",
					"owner()": "8da5cb5b"
				}
			},
			"storageLayout": {
				"storage": [
					{
						"astId": 5,
						"contract": "Address, msg.sender, require e deploy.sol:Heranca_2",
						"label": "Nome_Idade",
						"offset": 0,
						"slot": "0",
						"type": "t_mapping(t_string_memory_ptr,t_uint256)"
					},
					{
						"astId": 9,
						"contract": "Address, msg.sender, require e deploy.sol:Heranca_2",
						"label": "owner",
						"offset": 0,
						"slot": "1",
						"type": "t_address"
					}
				],
				"types": {
					"t_address": {
						"encoding": "inplace",
						"label": "address",
						"numberOfBytes": "20"
					},
					"t_mapping(t_string_memory_ptr,t_uint256)": {
						"encoding": "mapping",
						"key": "t_string_memory_ptr",
						"label": "mapping(string => uint256)",
						"numberOfBytes": "32",
						"value": "t_uint256"
					},
					"t_string_memory_ptr": {
						"encoding": "bytes",
						"label": "string",
						"numberOfBytes": "32"
					},
					"t_uint256": {
						"encoding": "inplace",
						"label": "uint256",
						"numberOfBytes": "32"
					}
				}
			},
			"userdoc": {
				"kind": "user",
				"methods": {},
				"version": 1
			}
		}
	}
}