{
	"Introdução ao Solidity/Aprenda Solidity/Utilizando instâncias de contratos.sol": {
		"Original": {
			"abi": [
				{
					"inputs": [
						{
							"internalType": "uint256",
							"name": "x",
							"type": "uint256"
						},
						{
							"internalType": "uint256",
							"name": "y",
							"type": "uint256"
						}
					],
					"name": "Calculo",
					"outputs": [
						{
							"internalType": "uint256",
							"name": "",
							"type": "uint256"
						}
					],
					"stateMutability": "pure",
					"type": "function"
				},
				{
					"inputs": [
						{
							"internalType": "uint256",
							"name": "indice",
							"type": "uint256"
						}
					],
					"name": "P_array",
					"outputs": [
						{
							"internalType": "uint256",
							"name": "",
							"type": "uint256"
						}
					],
					"stateMutability": "view",
					"type": "function"
				}
			],
			"devdoc": {
				"kind": "dev",
				"methods": {},
				"version": 1
			},
			"evm": {
				"assembly": "    /* \"Introdu\\xc3\\xa7\\xc3\\xa3o ao Solidity/Aprenda Solidity/Utilizando inst\\xc3\\xa2ncias de contratos.sol\":58:297  contract  Original{... */\n  mstore(0x40, 0x80)\n  callvalue\n  dup1\n  iszero\n  tag_1\n  jumpi\n  revert(0x00, 0x00)\ntag_1:\n  pop\n  dataSize(sub_0)\n  dup1\n  dataOffset(sub_0)\n  0x00\n  codecopy\n  0x00\n  return\nstop\n\nsub_0: assembly {\n        /* \"Introdu\\xc3\\xa7\\xc3\\xa3o ao Solidity/Aprenda Solidity/Utilizando inst\\xc3\\xa2ncias de contratos.sol\":58:297  contract  Original{... */\n      mstore(0x40, 0x80)\n      callvalue\n      dup1\n      iszero\n      tag_1\n      jumpi\n      revert(0x00, 0x00)\n    tag_1:\n      pop\n      jumpi(tag_2, lt(calldatasize, 0x04))\n      shr(0xe0, calldataload(0x00))\n      dup1\n      0x6bf14f42\n      eq\n      tag_3\n      jumpi\n      dup1\n      0xc469c6fb\n      eq\n      tag_4\n      jumpi\n    tag_2:\n      revert(0x00, 0x00)\n        /* \"Introdu\\xc3\\xa7\\xc3\\xa3o ao Solidity/Aprenda Solidity/Utilizando inst\\xc3\\xa2ncias de contratos.sol\":199:295  function P_array(uint indice) public view returns (uint){... */\n    tag_3:\n      tag_5\n      0x04\n      dup1\n      calldatasize\n      sub\n      dup2\n      add\n      swap1\n      tag_6\n      swap2\n      swap1\n      tag_7\n      jump\t// in\n    tag_6:\n      tag_8\n      jump\t// in\n    tag_5:\n      mload(0x40)\n      tag_9\n      swap2\n      swap1\n      tag_10\n      jump\t// in\n    tag_9:\n      mload(0x40)\n      dup1\n      swap2\n      sub\n      swap1\n      return\n        /* \"Introdu\\xc3\\xa7\\xc3\\xa3o ao Solidity/Aprenda Solidity/Utilizando inst\\xc3\\xa2ncias de contratos.sol\":104:193  function Calculo(uint x, uint y) public  pure returns (uint){... */\n    tag_4:\n      tag_11\n      0x04\n      dup1\n      calldatasize\n      sub\n      dup2\n      add\n      swap1\n      tag_12\n      swap2\n      swap1\n      tag_13\n      jump\t// in\n    tag_12:\n      tag_14\n      jump\t// in\n    tag_11:\n      mload(0x40)\n      tag_15\n      swap2\n      swap1\n      tag_10\n      jump\t// in\n    tag_15:\n      mload(0x40)\n      dup1\n      swap2\n      sub\n      swap1\n      return\n        /* \"Introdu\\xc3\\xa7\\xc3\\xa3o ao Solidity/Aprenda Solidity/Utilizando inst\\xc3\\xa2ncias de contratos.sol\":199:295  function P_array(uint indice) public view returns (uint){... */\n    tag_8:\n        /* \"Introdu\\xc3\\xa7\\xc3\\xa3o ao Solidity/Aprenda Solidity/Utilizando inst\\xc3\\xa2ncias de contratos.sol\":250:254  uint */\n      0x00\n        /* \"Introdu\\xc3\\xa7\\xc3\\xa3o ao Solidity/Aprenda Solidity/Utilizando inst\\xc3\\xa2ncias de contratos.sol\":272:279  aarrray */\n      0x00\n        /* \"Introdu\\xc3\\xa7\\xc3\\xa3o ao Solidity/Aprenda Solidity/Utilizando inst\\xc3\\xa2ncias de contratos.sol\":280:286  indice */\n      dup3\n        /* \"Introdu\\xc3\\xa7\\xc3\\xa3o ao Solidity/Aprenda Solidity/Utilizando inst\\xc3\\xa2ncias de contratos.sol\":272:287  aarrray[indice] */\n      dup2\n      sload\n      dup2\n      lt\n      tag_17\n      jumpi\n      tag_18\n      tag_19\n      jump\t// in\n    tag_18:\n    tag_17:\n      swap1\n      0x00\n      mstore\n      keccak256(0x00, 0x20)\n      add\n      sload\n        /* \"Introdu\\xc3\\xa7\\xc3\\xa3o ao Solidity/Aprenda Solidity/Utilizando inst\\xc3\\xa2ncias de contratos.sol\":265:287  return aarrray[indice] */\n      swap1\n      pop\n        /* \"Introdu\\xc3\\xa7\\xc3\\xa3o ao Solidity/Aprenda Solidity/Utilizando inst\\xc3\\xa2ncias de contratos.sol\":199:295  function P_array(uint indice) public view returns (uint){... */\n      swap2\n      swap1\n      pop\n      jump\t// out\n        /* \"Introdu\\xc3\\xa7\\xc3\\xa3o ao Solidity/Aprenda Solidity/Utilizando inst\\xc3\\xa2ncias de contratos.sol\":104:193  function Calculo(uint x, uint y) public  pure returns (uint){... */\n    tag_14:\n        /* \"Introdu\\xc3\\xa7\\xc3\\xa3o ao Solidity/Aprenda Solidity/Utilizando inst\\xc3\\xa2ncias de contratos.sol\":159:163  uint */\n      0x00\n        /* \"Introdu\\xc3\\xa7\\xc3\\xa3o ao Solidity/Aprenda Solidity/Utilizando inst\\xc3\\xa2ncias de contratos.sol\":185:186  y */\n      dup2\n        /* \"Introdu\\xc3\\xa7\\xc3\\xa3o ao Solidity/Aprenda Solidity/Utilizando inst\\xc3\\xa2ncias de contratos.sol\":181:182  x */\n      dup4\n        /* \"Introdu\\xc3\\xa7\\xc3\\xa3o ao Solidity/Aprenda Solidity/Utilizando inst\\xc3\\xa2ncias de contratos.sol\":181:186  x * y */\n      tag_22\n      swap2\n      swap1\n      tag_23\n      jump\t// in\n    tag_22:\n        /* \"Introdu\\xc3\\xa7\\xc3\\xa3o ao Solidity/Aprenda Solidity/Utilizando inst\\xc3\\xa2ncias de contratos.sol\":174:186  return x * y */\n      swap1\n      pop\n        /* \"Introdu\\xc3\\xa7\\xc3\\xa3o ao Solidity/Aprenda Solidity/Utilizando inst\\xc3\\xa2ncias de contratos.sol\":104:193  function Calculo(uint x, uint y) public  pure returns (uint){... */\n      swap3\n      swap2\n      pop\n      pop\n      jump\t// out\n        /* \"#utility.yul\":88:205   */\n    tag_25:\n        /* \"#utility.yul\":197:198   */\n      0x00\n        /* \"#utility.yul\":194:195   */\n      0x00\n        /* \"#utility.yul\":187:199   */\n      revert\n        /* \"#utility.yul\":334:411   */\n    tag_27:\n        /* \"#utility.yul\":371:378   */\n      0x00\n        /* \"#utility.yul\":400:405   */\n      dup2\n        /* \"#utility.yul\":389:405   */\n      swap1\n      pop\n        /* \"#utility.yul\":334:411   */\n      swap2\n      swap1\n      pop\n      jump\t// out\n        /* \"#utility.yul\":417:539   */\n    tag_28:\n        /* \"#utility.yul\":490:514   */\n      tag_38\n        /* \"#utility.yul\":508:513   */\n      dup2\n        /* \"#utility.yul\":490:514   */\n      tag_27\n      jump\t// in\n    tag_38:\n        /* \"#utility.yul\":483:488   */\n      dup2\n        /* \"#utility.yul\":480:515   */\n      eq\n        /* \"#utility.yul\":470:533   */\n      tag_39\n      jumpi\n        /* \"#utility.yul\":529:530   */\n      0x00\n        /* \"#utility.yul\":526:527   */\n      0x00\n        /* \"#utility.yul\":519:531   */\n      revert\n        /* \"#utility.yul\":470:533   */\n    tag_39:\n        /* \"#utility.yul\":417:539   */\n      pop\n      jump\t// out\n        /* \"#utility.yul\":545:684   */\n    tag_29:\n        /* \"#utility.yul\":591:596   */\n      0x00\n        /* \"#utility.yul\":629:635   */\n      dup2\n        /* \"#utility.yul\":616:636   */\n      calldataload\n        /* \"#utility.yul\":607:636   */\n      swap1\n      pop\n        /* \"#utility.yul\":645:678   */\n      tag_41\n        /* \"#utility.yul\":672:677   */\n      dup2\n        /* \"#utility.yul\":645:678   */\n      tag_28\n      jump\t// in\n    tag_41:\n        /* \"#utility.yul\":545:684   */\n      swap3\n      swap2\n      pop\n      pop\n      jump\t// out\n        /* \"#utility.yul\":690:1019   */\n    tag_7:\n        /* \"#utility.yul\":749:755   */\n      0x00\n        /* \"#utility.yul\":798:800   */\n      0x20\n        /* \"#utility.yul\":786:795   */\n      dup3\n        /* \"#utility.yul\":777:784   */\n      dup5\n        /* \"#utility.yul\":773:796   */\n      sub\n        /* \"#utility.yul\":769:801   */\n      slt\n        /* \"#utility.yul\":766:885   */\n      iszero\n      tag_43\n      jumpi\n        /* \"#utility.yul\":804:883   */\n      tag_44\n      tag_25\n      jump\t// in\n    tag_44:\n        /* \"#utility.yul\":766:885   */\n    tag_43:\n        /* \"#utility.yul\":924:925   */\n      0x00\n        /* \"#utility.yul\":949:1002   */\n      tag_45\n        /* \"#utility.yul\":994:1001   */\n      dup5\n        /* \"#utility.yul\":985:991   */\n      dup3\n        /* \"#utility.yul\":974:983   */\n      dup6\n        /* \"#utility.yul\":970:992   */\n      add\n        /* \"#utility.yul\":949:1002   */\n      tag_29\n      jump\t// in\n    tag_45:\n        /* \"#utility.yul\":939:1002   */\n      swap2\n      pop\n        /* \"#utility.yul\":895:1012   */\n      pop\n        /* \"#utility.yul\":690:1019   */\n      swap3\n      swap2\n      pop\n      pop\n      jump\t// out\n        /* \"#utility.yul\":1025:1143   */\n    tag_30:\n        /* \"#utility.yul\":1112:1136   */\n      tag_47\n        /* \"#utility.yul\":1130:1135   */\n      dup2\n        /* \"#utility.yul\":1112:1136   */\n      tag_27\n      jump\t// in\n    tag_47:\n        /* \"#utility.yul\":1107:1110   */\n      dup3\n        /* \"#utility.yul\":1100:1137   */\n      mstore\n        /* \"#utility.yul\":1025:1143   */\n      pop\n      pop\n      jump\t// out\n        /* \"#utility.yul\":1149:1371   */\n    tag_10:\n        /* \"#utility.yul\":1242:1246   */\n      0x00\n        /* \"#utility.yul\":1280:1282   */\n      0x20\n        /* \"#utility.yul\":1269:1278   */\n      dup3\n        /* \"#utility.yul\":1265:1283   */\n      add\n        /* \"#utility.yul\":1257:1283   */\n      swap1\n      pop\n        /* \"#utility.yul\":1293:1364   */\n      tag_49\n        /* \"#utility.yul\":1361:1362   */\n      0x00\n        /* \"#utility.yul\":1350:1359   */\n      dup4\n        /* \"#utility.yul\":1346:1363   */\n      add\n        /* \"#utility.yul\":1337:1343   */\n      dup5\n        /* \"#utility.yul\":1293:1364   */\n      tag_30\n      jump\t// in\n    tag_49:\n        /* \"#utility.yul\":1149:1371   */\n      swap3\n      swap2\n      pop\n      pop\n      jump\t// out\n        /* \"#utility.yul\":1377:1851   */\n    tag_13:\n        /* \"#utility.yul\":1445:1451   */\n      0x00\n        /* \"#utility.yul\":1453:1459   */\n      0x00\n        /* \"#utility.yul\":1502:1504   */\n      0x40\n        /* \"#utility.yul\":1490:1499   */\n      dup4\n        /* \"#utility.yul\":1481:1488   */\n      dup6\n        /* \"#utility.yul\":1477:1500   */\n      sub\n        /* \"#utility.yul\":1473:1505   */\n      slt\n        /* \"#utility.yul\":1470:1589   */\n      iszero\n      tag_51\n      jumpi\n        /* \"#utility.yul\":1508:1587   */\n      tag_52\n      tag_25\n      jump\t// in\n    tag_52:\n        /* \"#utility.yul\":1470:1589   */\n    tag_51:\n        /* \"#utility.yul\":1628:1629   */\n      0x00\n        /* \"#utility.yul\":1653:1706   */\n      tag_53\n        /* \"#utility.yul\":1698:1705   */\n      dup6\n        /* \"#utility.yul\":1689:1695   */\n      dup3\n        /* \"#utility.yul\":1678:1687   */\n      dup7\n        /* \"#utility.yul\":1674:1696   */\n      add\n        /* \"#utility.yul\":1653:1706   */\n      tag_29\n      jump\t// in\n    tag_53:\n        /* \"#utility.yul\":1643:1706   */\n      swap3\n      pop\n        /* \"#utility.yul\":1599:1716   */\n      pop\n        /* \"#utility.yul\":1755:1757   */\n      0x20\n        /* \"#utility.yul\":1781:1834   */\n      tag_54\n        /* \"#utility.yul\":1826:1833   */\n      dup6\n        /* \"#utility.yul\":1817:1823   */\n      dup3\n        /* \"#utility.yul\":1806:1815   */\n      dup7\n        /* \"#utility.yul\":1802:1824   */\n      add\n        /* \"#utility.yul\":1781:1834   */\n      tag_29\n      jump\t// in\n    tag_54:\n        /* \"#utility.yul\":1771:1834   */\n      swap2\n      pop\n        /* \"#utility.yul\":1726:1844   */\n      pop\n        /* \"#utility.yul\":1377:1851   */\n      swap3\n      pop\n      swap3\n      swap1\n      pop\n      jump\t// out\n        /* \"#utility.yul\":1857:2037   */\n    tag_19:\n        /* \"#utility.yul\":1905:1982   */\n      0x4e487b7100000000000000000000000000000000000000000000000000000000\n        /* \"#utility.yul\":1902:1903   */\n      0x00\n        /* \"#utility.yul\":1895:1983   */\n      mstore\n        /* \"#utility.yul\":2002:2006   */\n      0x32\n        /* \"#utility.yul\":1999:2000   */\n      0x04\n        /* \"#utility.yul\":1992:2007   */\n      mstore\n        /* \"#utility.yul\":2026:2030   */\n      0x24\n        /* \"#utility.yul\":2023:2024   */\n      0x00\n        /* \"#utility.yul\":2016:2031   */\n      revert\n        /* \"#utility.yul\":2043:2223   */\n    tag_31:\n        /* \"#utility.yul\":2091:2168   */\n      0x4e487b7100000000000000000000000000000000000000000000000000000000\n        /* \"#utility.yul\":2088:2089   */\n      0x00\n        /* \"#utility.yul\":2081:2169   */\n      mstore\n        /* \"#utility.yul\":2188:2192   */\n      0x11\n        /* \"#utility.yul\":2185:2186   */\n      0x04\n        /* \"#utility.yul\":2178:2193   */\n      mstore\n        /* \"#utility.yul\":2212:2216   */\n      0x24\n        /* \"#utility.yul\":2209:2210   */\n      0x00\n        /* \"#utility.yul\":2202:2217   */\n      revert\n        /* \"#utility.yul\":2229:2639   */\n    tag_23:\n        /* \"#utility.yul\":2269:2276   */\n      0x00\n        /* \"#utility.yul\":2292:2312   */\n      tag_58\n        /* \"#utility.yul\":2310:2311   */\n      dup3\n        /* \"#utility.yul\":2292:2312   */\n      tag_27\n      jump\t// in\n    tag_58:\n        /* \"#utility.yul\":2287:2312   */\n      swap2\n      pop\n        /* \"#utility.yul\":2326:2346   */\n      tag_59\n        /* \"#utility.yul\":2344:2345   */\n      dup4\n        /* \"#utility.yul\":2326:2346   */\n      tag_27\n      jump\t// in\n    tag_59:\n        /* \"#utility.yul\":2321:2346   */\n      swap3\n      pop\n        /* \"#utility.yul\":2381:2382   */\n      dup3\n        /* \"#utility.yul\":2378:2379   */\n      dup3\n        /* \"#utility.yul\":2374:2383   */\n      mul\n        /* \"#utility.yul\":2403:2433   */\n      tag_60\n        /* \"#utility.yul\":2421:2432   */\n      dup2\n        /* \"#utility.yul\":2403:2433   */\n      tag_27\n      jump\t// in\n    tag_60:\n        /* \"#utility.yul\":2392:2433   */\n      swap2\n      pop\n        /* \"#utility.yul\":2582:2583   */\n      dup3\n        /* \"#utility.yul\":2573:2580   */\n      dup3\n        /* \"#utility.yul\":2569:2584   */\n      div\n        /* \"#utility.yul\":2566:2567   */\n      dup5\n        /* \"#utility.yul\":2563:2585   */\n      eq\n        /* \"#utility.yul\":2543:2544   */\n      dup4\n        /* \"#utility.yul\":2536:2545   */\n      iszero\n        /* \"#utility.yul\":2516:2599   */\n      or\n        /* \"#utility.yul\":2493:2632   */\n      tag_61\n      jumpi\n        /* \"#utility.yul\":2612:2630   */\n      tag_62\n      tag_31\n      jump\t// in\n    tag_62:\n        /* \"#utility.yul\":2493:2632   */\n    tag_61:\n        /* \"#utility.yul\":2277:2639   */\n      pop\n        /* \"#utility.yul\":2229:2639   */\n      swap3\n      swap2\n      pop\n      pop\n      jump\t// out\n\n    auxdata: 0xa264697066735822122017c535586770830a0f8667a3f7cc8f593d663f0e491c8f4a0909ff6d8a7a8a4f64736f6c634300081e0033\n}\n",
				"bytecode": {
					"linkReferences": {},
					"object": "6080604052348015600e575f5ffd5b5061026a8061001c5f395ff3fe608060405234801561000f575f5ffd5b5060043610610034575f3560e01c80636bf14f4214610038578063c469c6fb14610068575b5f5ffd5b610052600480360381019061004d9190610108565b610098565b60405161005f9190610142565b60405180910390f35b610082600480360381019061007d919061015b565b6100bc565b60405161008f9190610142565b60405180910390f35b5f5f82815481106100ac576100ab610199565b5b905f5260205f2001549050919050565b5f81836100c991906101f3565b905092915050565b5f5ffd5b5f819050919050565b6100e7816100d5565b81146100f1575f5ffd5b50565b5f81359050610102816100de565b92915050565b5f6020828403121561011d5761011c6100d1565b5b5f61012a848285016100f4565b91505092915050565b61013c816100d5565b82525050565b5f6020820190506101555f830184610133565b92915050565b5f5f60408385031215610171576101706100d1565b5b5f61017e858286016100f4565b925050602061018f858286016100f4565b9150509250929050565b7f4e487b71000000000000000000000000000000000000000000000000000000005f52603260045260245ffd5b7f4e487b71000000000000000000000000000000000000000000000000000000005f52601160045260245ffd5b5f6101fd826100d5565b9150610208836100d5565b9250828202610216816100d5565b9150828204841483151761022d5761022c6101c6565b5b509291505056fea264697066735822122017c535586770830a0f8667a3f7cc8f593d663f0e491c8f4a0909ff6d8a7a8a4f64736f6c634300081e0033",
					"opcodes": "PUSH1 0x80 PUSH1 0x40 MSTORE CALLVALUE DUP1 ISZERO PUSH1 0xE JUMPI PUSH0 PUSH0 REVERT JUMPDEST POP PUSH2 0x26A DUP1 PUSH2 0x1C PUSH0 CODECOPY PUSH0 RETURN INVALID PUSH1 0x80 PUSH1 0x40 MSTORE CALLVALUE DUP1 ISZERO PUSH2 0xF JUMPI PUSH0 PUSH0 REVERT JUMPDEST POP PUSH1 0x4 CALLDATASIZE LT PUSH2 0x34 JUMPI PUSH0 CALLDATALOAD PUSH1 0xE0 SHR DUP1 PUSH4 0x6BF14F42 EQ PUSH2 0x38 JUMPI DUP1 PUSH4 0xC469C6FB EQ PUSH2 0x68 JUMPI JUMPDEST PUSH0 PUSH0 REVERT JUMPDEST PUSH2 0x52 PUSH1 0x4 DUP1 CALLDATASIZE SUB DUP2 ADD SWAP1 PUSH2 0x4D SWAP2 SWAP1 PUSH2 0x108 JUMP JUMPDEST PUSH2 0x98 JUMP JUMPDEST PUSH1 0x40 MLOAD PUSH2 0x5F SWAP2 SWAP1 PUSH2 0x142 JUMP JUMPDEST PUSH1 0x40 MLOAD DUP1 SWAP2 SUB SWAP1 RETURN JUMPDEST PUSH2 0x82 PUSH1 0x4 DUP1 CALLDATASIZE SUB DUP2 ADD SWAP1 PUSH2 0x7D SWAP2 SWAP1 PUSH2 0x15B JUMP JUMPDEST PUSH2 0xBC JUMP JUMPDEST PUSH1 0x40 MLOAD PUSH2 0x8F SWAP2 SWAP1 PUSH2 0x142 JUMP JUMPDEST PUSH1 0x40 MLOAD DUP1 SWAP2 SUB SWAP1 RETURN JUMPDEST PUSH0 PUSH0 DUP3 DUP2 SLOAD DUP2 LT PUSH2 0xAC JUMPI PUSH2 0xAB PUSH2 0x199 JUMP JUMPDEST JUMPDEST SWAP1 PUSH0 MSTORE PUSH1 0x20 PUSH0 KECCAK256 ADD SLOAD SWAP1 POP SWAP2 SWAP1 POP JUMP JUMPDEST PUSH0 DUP2 DUP4 PUSH2 0xC9 SWAP2 SWAP1 PUSH2 0x1F3 JUMP JUMPDEST SWAP1 POP SWAP3 SWAP2 POP POP JUMP JUMPDEST PUSH0 PUSH0 REVERT JUMPDEST PUSH0 DUP2 SWAP1 POP SWAP2 SWAP1 POP JUMP JUMPDEST PUSH2 0xE7 DUP2 PUSH2 0xD5 JUMP JUMPDEST DUP2 EQ PUSH2 0xF1 JUMPI PUSH0 PUSH0 REVERT JUMPDEST POP JUMP JUMPDEST PUSH0 DUP2 CALLDATALOAD SWAP1 POP PUSH2 0x102 DUP2 PUSH2 0xDE JUMP JUMPDEST SWAP3 SWAP2 POP POP JUMP JUMPDEST PUSH0 PUSH1 0x20 DUP3 DUP5 SUB SLT ISZERO PUSH2 0x11D JUMPI PUSH2 0x11C PUSH2 0xD1 JUMP JUMPDEST JUMPDEST PUSH0 PUSH2 0x12A DUP5 DUP3 DUP6 ADD PUSH2 0xF4 JUMP JUMPDEST SWAP2 POP POP SWAP3 SWAP2 POP POP JUMP JUMPDEST PUSH2 0x13C DUP2 PUSH2 0xD5 JUMP JUMPDEST DUP3 MSTORE POP POP JUMP JUMPDEST PUSH0 PUSH1 0x20 DUP3 ADD SWAP1 POP PUSH2 0x155 PUSH0 DUP4 ADD DUP5 PUSH2 0x133 JUMP JUMPDEST SWAP3 SWAP2 POP POP JUMP JUMPDEST PUSH0 PUSH0 PUSH1 0x40 DUP4 DUP6 SUB SLT ISZERO PUSH2 0x171 JUMPI PUSH2 0x170 PUSH2 0xD1 JUMP JUMPDEST JUMPDEST PUSH0 PUSH2 0x17E DUP6 DUP3 DUP7 ADD PUSH2 0xF4 JUMP JUMPDEST SWAP3 POP POP PUSH1 0x20 PUSH2 0x18F DUP6 DUP3 DUP7 ADD PUSH2 0xF4 JUMP JUMPDEST SWAP2 POP POP SWAP3 POP SWAP3 SWAP1 POP JUMP JUMPDEST PUSH32 0x4E487B7100000000000000000000000000000000000000000000000000000000 PUSH0 MSTORE PUSH1 0x32 PUSH1 0x4 MSTORE PUSH1 0x24 PUSH0 REVERT JUMPDEST PUSH32 0x4E487B7100000000000000000000000000000000000000000000000000000000 PUSH0 MSTORE PUSH1 0x11 PUSH1 0x4 MSTORE PUSH1 0x24 PUSH0 REVERT JUMPDEST PUSH0 PUSH2 0x1FD DUP3 PUSH2 0xD5 JUMP JUMPDEST SWAP2 POP PUSH2 0x208 DUP4 PUSH2 0xD5 JUMP JUMPDEST SWAP3 POP DUP3 DUP3 MUL PUSH2 0x216 DUP2 PUSH2 0xD5 JUMP JUMPDEST SWAP2 POP DUP3 DUP3 DIV DUP5 EQ DUP4 ISZERO OR PUSH2 0x22D JUMPI PUSH2 0x22C PUSH2 0x1C6 JUMP JUMPDEST JUMPDEST POP SWAP3 SWAP2 POP POP JUMP INVALID LOG2 PUSH5 0x6970667358 0x22 SLT KECCAK256 OR 0xC5 CALLDATALOAD PC PUSH8 0x70830A0F8667A3F7 0xCC DUP16 MSIZE RETURNDATASIZE PUSH7 0x3F0E491C8F4A09 MULMOD SELFDESTRUCT PUSH14 0x8A7A8A4F64736F6C634300081E00 CALLER "
				},
				"gasEstimates": {
					"creation": {
						"codeDepositCost": "123600",
						"executionCost": "169",
						"totalCost": "123769"
					},
					"external": {
						"Calculo(uint256,uint256)": "infinite",
						"P_array(uint256)": "infinite"
					}
				},
				"methodIdentifiers": {
					"Calculo(uint256,uint256)": "c469c6fb",
					"P_array(uint256)": "6bf14f42"
				}
			},
			"storageLayout": {
				"storage": [
					{
						"astId": 4,
						"contract": "Introdução ao Solidity/Aprenda Solidity/Utilizando instâncias de contratos.sol:Original",
						"label": "aarrray",
						"offset": 0,
						"slot": "0",
						"type": "t_array(t_uint256)dyn_storage"
					}
				],
				"types": {
					"t_array(t_uint256)dyn_storage": {
						"base": "t_uint256",
						"encoding": "dynamic_array",
						"label": "uint256[]",
						"numberOfBytes": "32"
					},
					"t_uint256": {
						"encoding": "inplace",
						"label": "uint256",
						"numberOfBytes": "32"
					}
				}
			},
			"userdoc": {
				"kind": "user",
				"methods": {},
				"version": 1
			}
		}
	}
}