{
	"Introdução ao Solidity/Aprenda Solidity/Array dinâmica.sol": {
		"ArrayD": {
			"abi": [
				{
					"inputs": [
						{
							"internalType": "string",
							"name": "_nome",
							"type": "string"
						}
					],
					"name": "AdicionarNome",
					"outputs": [],
					"stateMutability": "nonpayable",
					"type": "function"
				},
				{
					"inputs": [
						{
							"internalType": "uint256",
							"name": "_indice",
							"type": "uint256"
						}
					],
					"name": "EscolherRemocao",
					"outputs": [],
					"stateMutability": "nonpayable",
					"type": "function"
				},
				{
					"inputs": [],
					"name": "RemoverNome",
					"outputs": [],
					"stateMutability": "nonpayable",
					"type": "function"
				},
				{
					"inputs": [],
					"name": "Tammanhhooarray",
					"outputs": [
						{
							"internalType": "uint256",
							"name": "",
							"type": "uint256"
						}
					],
					"stateMutability": "view",
					"type": "function"
				},
				{
					"inputs": [
						{
							"internalType": "uint256",
							"name": "indice",
							"type": "uint256"
						},
						{
							"internalType": "string",
							"name": "novonome",
							"type": "string"
						}
					],
					"name": "TrocarNome",
					"outputs": [],
					"stateMutability": "nonpayable",
					"type": "function"
				},
				{
					"inputs": [
						{
							"internalType": "uint256",
							"name": "indice",
							"type": "uint256"
						}
					],
					"name": "getNome",
					"outputs": [
						{
							"internalType": "string",
							"name": "",
							"type": "string"
						}
					],
					"stateMutability": "view",
					"type": "function"
				}
			],
			"devdoc": {
				"kind": "dev",
				"methods": {},
				"version": 1
			},
			"evm": {
				"assembly": "    /* \"Introdu\\xc3\\xa7\\xc3\\xa3o ao Solidity/Aprenda Solidity/Array din\\xc3\\xa2mica.sol\":61:857  contract ArrayD{... */\n  mstore(0x40, 0x80)\n  callvalue\n  dup1\n  iszero\n  tag_1\n  jumpi\n  revert(0x00, 0x00)\ntag_1:\n  pop\n  dataSize(sub_0)\n  dup1\n  dataOffset(sub_0)\n  0x00\n  codecopy\n  0x00\n  return\nstop\n\nsub_0: assembly {\n        /* \"Introdu\\xc3\\xa7\\xc3\\xa3o ao Solidity/Aprenda Solidity/Array din\\xc3\\xa2mica.sol\":61:857  contract ArrayD{... */\n      mstore(0x40, 0x80)\n      callvalue\n      dup1\n      iszero\n      tag_1\n      jumpi\n      revert(0x00, 0x00)\n    tag_1:\n      pop\n      jumpi(tag_2, lt(calldatasize, 0x04))\n      shr(0xe0, calldataload(0x00))\n      dup1\n      0x520dab1a\n      eq\n      tag_3\n      jumpi\n      dup1\n      0x5cd9413e\n      eq\n      tag_4\n      jumpi\n      dup1\n      0x9371cfd8\n      eq\n      tag_5\n      jumpi\n      dup1\n      0xa0a429c5\n      eq\n      tag_6\n      jumpi\n      dup1\n      0xcb147347\n      eq\n      tag_7\n      jumpi\n      dup1\n      0xf6382154\n      eq\n      tag_8\n      jumpi\n    tag_2:\n      revert(0x00, 0x00)\n        /* \"Introdu\\xc3\\xa7\\xc3\\xa3o ao Solidity/Aprenda Solidity/Array din\\xc3\\xa2mica.sol\":271:397  function EscolherRemocao(uint _indice) public {... */\n    tag_3:\n      tag_9\n      0x04\n      dup1\n      calldatasize\n      sub\n      dup2\n      add\n      swap1\n      tag_10\n      swap2\n      swap1\n      tag_11\n      jump\t// in\n    tag_10:\n      tag_12\n      jump\t// in\n    tag_9:\n      stop\n        /* \"Introdu\\xc3\\xa7\\xc3\\xa3o ao Solidity/Aprenda Solidity/Array din\\xc3\\xa2mica.sol\":108:195  function AdicionarNome(string memory _nome) public {... */\n    tag_4:\n      tag_13\n      0x04\n      dup1\n      calldatasize\n      sub\n      dup2\n      add\n      swap1\n      tag_14\n      swap2\n      swap1\n      tag_15\n      jump\t// in\n    tag_14:\n      tag_16\n      jump\t// in\n    tag_13:\n      stop\n        /* \"Introdu\\xc3\\xa7\\xc3\\xa3o ao Solidity/Aprenda Solidity/Array din\\xc3\\xa2mica.sol\":203:263  function RemoverNome() public {... */\n    tag_5:\n      tag_17\n      tag_18\n      jump\t// in\n    tag_17:\n      stop\n        /* \"Introdu\\xc3\\xa7\\xc3\\xa3o ao Solidity/Aprenda Solidity/Array din\\xc3\\xa2mica.sol\":405:512  function TrocarNome(uint indice, string memory novonome) public {... */\n    tag_6:\n      tag_19\n      0x04\n      dup1\n      calldatasize\n      sub\n      dup2\n      add\n      swap1\n      tag_20\n      swap2\n      swap1\n      tag_21\n      jump\t// in\n    tag_20:\n      tag_22\n      jump\t// in\n    tag_19:\n      stop\n        /* \"Introdu\\xc3\\xa7\\xc3\\xa3o ao Solidity/Aprenda Solidity/Array din\\xc3\\xa2mica.sol\":620:724  function getNome(uint indice) public view returns (string memory){... */\n    tag_7:\n      tag_23\n      0x04\n      dup1\n      calldatasize\n      sub\n      dup2\n      add\n      swap1\n      tag_24\n      swap2\n      swap1\n      tag_11\n      jump\t// in\n    tag_24:\n      tag_25\n      jump\t// in\n    tag_23:\n      mload(0x40)\n      tag_26\n      swap2\n      swap1\n      tag_27\n      jump\t// in\n    tag_26:\n      mload(0x40)\n      dup1\n      swap2\n      sub\n      swap1\n      return\n        /* \"Introdu\\xc3\\xa7\\xc3\\xa3o ao Solidity/Aprenda Solidity/Array din\\xc3\\xa2mica.sol\":520:612  function Tammanhhooarray() public view returns (uint) {... */\n    tag_8:\n      tag_28\n      tag_29\n      jump\t// in\n    tag_28:\n      mload(0x40)\n      tag_30\n      swap2\n      swap1\n      tag_31\n      jump\t// in\n    tag_30:\n      mload(0x40)\n      dup1\n      swap2\n      sub\n      swap1\n      return\n        /* \"Introdu\\xc3\\xa7\\xc3\\xa3o ao Solidity/Aprenda Solidity/Array din\\xc3\\xa2mica.sol\":271:397  function EscolherRemocao(uint _indice) public {... */\n    tag_12:\n        /* \"Introdu\\xc3\\xa7\\xc3\\xa3o ao Solidity/Aprenda Solidity/Array din\\xc3\\xa2mica.sol\":346:351  Nomes */\n      0x00\n        /* \"Introdu\\xc3\\xa7\\xc3\\xa3o ao Solidity/Aprenda Solidity/Array din\\xc3\\xa2mica.sol\":346:358  Nomes.length */\n      dup1\n      sload\n      swap1\n      pop\n        /* \"Introdu\\xc3\\xa7\\xc3\\xa3o ao Solidity/Aprenda Solidity/Array din\\xc3\\xa2mica.sol\":336:343  _indice */\n      dup2\n        /* \"Introdu\\xc3\\xa7\\xc3\\xa3o ao Solidity/Aprenda Solidity/Array din\\xc3\\xa2mica.sol\":336:358  _indice < Nomes.length */\n      lt\n        /* \"Introdu\\xc3\\xa7\\xc3\\xa3o ao Solidity/Aprenda Solidity/Array din\\xc3\\xa2mica.sol\":328:359  require(_indice < Nomes.length) */\n      tag_33\n      jumpi\n      revert(0x00, 0x00)\n    tag_33:\n        /* \"Introdu\\xc3\\xa7\\xc3\\xa3o ao Solidity/Aprenda Solidity/Array din\\xc3\\xa2mica.sol\":370:389  Nomes[_indice] = \"\" */\n      mload(0x40)\n      dup1\n      0x20\n      add\n      0x40\n      mstore\n      dup1\n      0x00\n      dup2\n      mstore\n      pop\n        /* \"Introdu\\xc3\\xa7\\xc3\\xa3o ao Solidity/Aprenda Solidity/Array din\\xc3\\xa2mica.sol\":370:375  Nomes */\n      0x00\n        /* \"Introdu\\xc3\\xa7\\xc3\\xa3o ao Solidity/Aprenda Solidity/Array din\\xc3\\xa2mica.sol\":376:383  _indice */\n      dup3\n        /* \"Introdu\\xc3\\xa7\\xc3\\xa3o ao Solidity/Aprenda Solidity/Array din\\xc3\\xa2mica.sol\":370:384  Nomes[_indice] */\n      dup2\n      sload\n      dup2\n      lt\n      tag_34\n      jumpi\n      tag_35\n      tag_36\n      jump\t// in\n    tag_35:\n    tag_34:\n      swap1\n      0x00\n      mstore\n      keccak256(0x00, 0x20)\n      add\n        /* \"Introdu\\xc3\\xa7\\xc3\\xa3o ao Solidity/Aprenda Solidity/Array din\\xc3\\xa2mica.sol\":370:389  Nomes[_indice] = \"\" */\n      swap1\n      dup2\n      tag_38\n      swap2\n      swap1\n      tag_39\n      jump\t// in\n    tag_38:\n      pop\n        /* \"Introdu\\xc3\\xa7\\xc3\\xa3o ao Solidity/Aprenda Solidity/Array din\\xc3\\xa2mica.sol\":271:397  function EscolherRemocao(uint _indice) public {... */\n      pop\n      jump\t// out\n        /* \"Introdu\\xc3\\xa7\\xc3\\xa3o ao Solidity/Aprenda Solidity/Array din\\xc3\\xa2mica.sol\":108:195  function AdicionarNome(string memory _nome) public {... */\n    tag_16:\n        /* \"Introdu\\xc3\\xa7\\xc3\\xa3o ao Solidity/Aprenda Solidity/Array din\\xc3\\xa2mica.sol\":170:175  Nomes */\n      0x00\n        /* \"Introdu\\xc3\\xa7\\xc3\\xa3o ao Solidity/Aprenda Solidity/Array din\\xc3\\xa2mica.sol\":181:186  _nome */\n      dup2\n        /* \"Introdu\\xc3\\xa7\\xc3\\xa3o ao Solidity/Aprenda Solidity/Array din\\xc3\\xa2mica.sol\":170:187  Nomes.push(_nome) */\n      swap1\n      dup1\n      0x01\n      dup2\n      sload\n      add\n      dup1\n      dup3\n      sstore\n      dup1\n      swap2\n      pop\n      pop\n      0x01\n      swap1\n      sub\n      swap1\n      0x00\n      mstore\n      keccak256(0x00, 0x20)\n      add\n      0x00\n      swap1\n      swap2\n      swap1\n      swap2\n      swap1\n      swap2\n      pop\n      swap1\n      dup2\n      tag_42\n      swap2\n      swap1\n      tag_39\n      jump\t// in\n    tag_42:\n      pop\n        /* \"Introdu\\xc3\\xa7\\xc3\\xa3o ao Solidity/Aprenda Solidity/Array din\\xc3\\xa2mica.sol\":108:195  function AdicionarNome(string memory _nome) public {... */\n      pop\n      jump\t// out\n        /* \"Introdu\\xc3\\xa7\\xc3\\xa3o ao Solidity/Aprenda Solidity/Array din\\xc3\\xa2mica.sol\":203:263  function RemoverNome() public {... */\n    tag_18:\n        /* \"Introdu\\xc3\\xa7\\xc3\\xa3o ao Solidity/Aprenda Solidity/Array din\\xc3\\xa2mica.sol\":244:249  Nomes */\n      0x00\n        /* \"Introdu\\xc3\\xa7\\xc3\\xa3o ao Solidity/Aprenda Solidity/Array din\\xc3\\xa2mica.sol\":244:255  Nomes.pop() */\n      dup1\n      sload\n      dup1\n      tag_44\n      jumpi\n      tag_45\n      tag_46\n      jump\t// in\n    tag_45:\n    tag_44:\n      0x01\n      swap1\n      sub\n      dup2\n      dup2\n      swap1\n      0x00\n      mstore\n      keccak256(0x00, 0x20)\n      add\n      0x00\n      tag_48\n      swap2\n      swap1\n      tag_49\n      jump\t// in\n    tag_48:\n      swap1\n      sstore\n        /* \"Introdu\\xc3\\xa7\\xc3\\xa3o ao Solidity/Aprenda Solidity/Array din\\xc3\\xa2mica.sol\":203:263  function RemoverNome() public {... */\n      jump\t// out\n        /* \"Introdu\\xc3\\xa7\\xc3\\xa3o ao Solidity/Aprenda Solidity/Array din\\xc3\\xa2mica.sol\":405:512  function TrocarNome(uint indice, string memory novonome) public {... */\n    tag_22:\n        /* \"Introdu\\xc3\\xa7\\xc3\\xa3o ao Solidity/Aprenda Solidity/Array din\\xc3\\xa2mica.sol\":496:504  novonome */\n      dup1\n        /* \"Introdu\\xc3\\xa7\\xc3\\xa3o ao Solidity/Aprenda Solidity/Array din\\xc3\\xa2mica.sol\":480:485  Nomes */\n      0x00\n        /* \"Introdu\\xc3\\xa7\\xc3\\xa3o ao Solidity/Aprenda Solidity/Array din\\xc3\\xa2mica.sol\":486:492  indice */\n      dup4\n        /* \"Introdu\\xc3\\xa7\\xc3\\xa3o ao Solidity/Aprenda Solidity/Array din\\xc3\\xa2mica.sol\":480:493  Nomes[indice] */\n      dup2\n      sload\n      dup2\n      lt\n      tag_51\n      jumpi\n      tag_52\n      tag_36\n      jump\t// in\n    tag_52:\n    tag_51:\n      swap1\n      0x00\n      mstore\n      keccak256(0x00, 0x20)\n      add\n        /* \"Introdu\\xc3\\xa7\\xc3\\xa3o ao Solidity/Aprenda Solidity/Array din\\xc3\\xa2mica.sol\":480:504  Nomes[indice] = novonome */\n      swap1\n      dup2\n      tag_54\n      swap2\n      swap1\n      tag_39\n      jump\t// in\n    tag_54:\n      pop\n        /* \"Introdu\\xc3\\xa7\\xc3\\xa3o ao Solidity/Aprenda Solidity/Array din\\xc3\\xa2mica.sol\":405:512  function TrocarNome(uint indice, string memory novonome) public {... */\n      pop\n      pop\n      jump\t// out\n        /* \"Introdu\\xc3\\xa7\\xc3\\xa3o ao Solidity/Aprenda Solidity/Array din\\xc3\\xa2mica.sol\":620:724  function getNome(uint indice) public view returns (string memory){... */\n    tag_25:\n        /* \"Introdu\\xc3\\xa7\\xc3\\xa3o ao Solidity/Aprenda Solidity/Array din\\xc3\\xa2mica.sol\":671:684  string memory */\n      0x60\n        /* \"Introdu\\xc3\\xa7\\xc3\\xa3o ao Solidity/Aprenda Solidity/Array din\\xc3\\xa2mica.sol\":703:708  Nomes */\n      0x00\n        /* \"Introdu\\xc3\\xa7\\xc3\\xa3o ao Solidity/Aprenda Solidity/Array din\\xc3\\xa2mica.sol\":709:715  indice */\n      dup3\n        /* \"Introdu\\xc3\\xa7\\xc3\\xa3o ao Solidity/Aprenda Solidity/Array din\\xc3\\xa2mica.sol\":703:716  Nomes[indice] */\n      dup2\n      sload\n      dup2\n      lt\n      tag_56\n      jumpi\n      tag_57\n      tag_36\n      jump\t// in\n    tag_57:\n    tag_56:\n      swap1\n      0x00\n      mstore\n      keccak256(0x00, 0x20)\n      add\n        /* \"Introdu\\xc3\\xa7\\xc3\\xa3o ao Solidity/Aprenda Solidity/Array din\\xc3\\xa2mica.sol\":696:716  return Nomes[indice] */\n      dup1\n      sload\n      tag_59\n      swap1\n      tag_60\n      jump\t// in\n    tag_59:\n      dup1\n      0x1f\n      add\n      0x20\n      dup1\n      swap2\n      div\n      mul\n      0x20\n      add\n      mload(0x40)\n      swap1\n      dup2\n      add\n      0x40\n      mstore\n      dup1\n      swap3\n      swap2\n      swap1\n      dup2\n      dup2\n      mstore\n      0x20\n      add\n      dup3\n      dup1\n      sload\n      tag_61\n      swap1\n      tag_60\n      jump\t// in\n    tag_61:\n      dup1\n      iszero\n      tag_62\n      jumpi\n      dup1\n      0x1f\n      lt\n      tag_63\n      jumpi\n      0x0100\n      dup1\n      dup4\n      sload\n      div\n      mul\n      dup4\n      mstore\n      swap2\n      0x20\n      add\n      swap2\n      jump(tag_62)\n    tag_63:\n      dup3\n      add\n      swap2\n      swap1\n      0x00\n      mstore\n      keccak256(0x00, 0x20)\n      swap1\n    tag_64:\n      dup2\n      sload\n      dup2\n      mstore\n      swap1\n      0x01\n      add\n      swap1\n      0x20\n      add\n      dup1\n      dup4\n      gt\n      tag_64\n      jumpi\n      dup3\n      swap1\n      sub\n      0x1f\n      and\n      dup3\n      add\n      swap2\n    tag_62:\n      pop\n      pop\n      pop\n      pop\n      pop\n      swap1\n      pop\n        /* \"Introdu\\xc3\\xa7\\xc3\\xa3o ao Solidity/Aprenda Solidity/Array din\\xc3\\xa2mica.sol\":620:724  function getNome(uint indice) public view returns (string memory){... */\n      swap2\n      swap1\n      pop\n      jump\t// out\n        /* \"Introdu\\xc3\\xa7\\xc3\\xa3o ao Solidity/Aprenda Solidity/Array din\\xc3\\xa2mica.sol\":520:612  function Tammanhhooarray() public view returns (uint) {... */\n    tag_29:\n        /* \"Introdu\\xc3\\xa7\\xc3\\xa3o ao Solidity/Aprenda Solidity/Array din\\xc3\\xa2mica.sol\":568:572  uint */\n      0x00\n        /* \"Introdu\\xc3\\xa7\\xc3\\xa3o ao Solidity/Aprenda Solidity/Array din\\xc3\\xa2mica.sol\":592:597  Nomes */\n      0x00\n        /* \"Introdu\\xc3\\xa7\\xc3\\xa3o ao Solidity/Aprenda Solidity/Array din\\xc3\\xa2mica.sol\":592:604  Nomes.length */\n      dup1\n      sload\n      swap1\n      pop\n        /* \"Introdu\\xc3\\xa7\\xc3\\xa3o ao Solidity/Aprenda Solidity/Array din\\xc3\\xa2mica.sol\":585:604  return Nomes.length */\n      swap1\n      pop\n        /* \"Introdu\\xc3\\xa7\\xc3\\xa3o ao Solidity/Aprenda Solidity/Array din\\xc3\\xa2mica.sol\":520:612  function Tammanhhooarray() public view returns (uint) {... */\n      swap1\n      jump\t// out\n    tag_49:\n      pop\n      dup1\n      sload\n      tag_66\n      swap1\n      tag_60\n      jump\t// in\n    tag_66:\n      0x00\n      dup3\n      sstore\n      dup1\n      0x1f\n      lt\n      tag_68\n      jumpi\n      pop\n      jump(tag_67)\n    tag_68:\n      0x1f\n      add\n      0x20\n      swap1\n      div\n      swap1\n      0x00\n      mstore\n      keccak256(0x00, 0x20)\n      swap1\n      dup2\n      add\n      swap1\n      tag_69\n      swap2\n      swap1\n      tag_70\n      jump\t// in\n    tag_69:\n    tag_67:\n      pop\n      jump\t// out\n    tag_70:\n    tag_71:\n      dup1\n      dup3\n      gt\n      iszero\n      tag_72\n      jumpi\n      0x00\n      dup2\n      0x00\n      swap1\n      sstore\n      pop\n      0x01\n      add\n      jump(tag_71)\n    tag_72:\n      pop\n      swap1\n      jump\t// out\n        /* \"#utility.yul\":7:82   */\n    tag_73:\n        /* \"#utility.yul\":40:46   */\n      0x00\n        /* \"#utility.yul\":73:75   */\n      0x40\n        /* \"#utility.yul\":67:76   */\n      mload\n        /* \"#utility.yul\":57:76   */\n      swap1\n      pop\n        /* \"#utility.yul\":7:82   */\n      swap1\n      jump\t// out\n        /* \"#utility.yul\":88:205   */\n    tag_74:\n        /* \"#utility.yul\":197:198   */\n      0x00\n        /* \"#utility.yul\":194:195   */\n      0x00\n        /* \"#utility.yul\":187:199   */\n      revert\n        /* \"#utility.yul\":211:328   */\n    tag_75:\n        /* \"#utility.yul\":320:321   */\n      0x00\n        /* \"#utility.yul\":317:318   */\n      0x00\n        /* \"#utility.yul\":310:322   */\n      revert\n        /* \"#utility.yul\":334:411   */\n    tag_76:\n        /* \"#utility.yul\":371:378   */\n      0x00\n        /* \"#utility.yul\":400:405   */\n      dup2\n        /* \"#utility.yul\":389:405   */\n      swap1\n      pop\n        /* \"#utility.yul\":334:411   */\n      swap2\n      swap1\n      pop\n      jump\t// out\n        /* \"#utility.yul\":417:539   */\n    tag_77:\n        /* \"#utility.yul\":490:514   */\n      tag_116\n        /* \"#utility.yul\":508:513   */\n      dup2\n        /* \"#utility.yul\":490:514   */\n      tag_76\n      jump\t// in\n    tag_116:\n        /* \"#utility.yul\":483:488   */\n      dup2\n        /* \"#utility.yul\":480:515   */\n      eq\n        /* \"#utility.yul\":470:533   */\n      tag_117\n      jumpi\n        /* \"#utility.yul\":529:530   */\n      0x00\n        /* \"#utility.yul\":526:527   */\n      0x00\n        /* \"#utility.yul\":519:531   */\n      revert\n        /* \"#utility.yul\":470:533   */\n    tag_117:\n        /* \"#utility.yul\":417:539   */\n      pop\n      jump\t// out\n        /* \"#utility.yul\":545:684   */\n    tag_78:\n        /* \"#utility.yul\":591:596   */\n      0x00\n        /* \"#utility.yul\":629:635   */\n      dup2\n        /* \"#utility.yul\":616:636   */\n      calldataload\n        /* \"#utility.yul\":607:636   */\n      swap1\n      pop\n        /* \"#utility.yul\":645:678   */\n      tag_119\n        /* \"#utility.yul\":672:677   */\n      dup2\n        /* \"#utility.yul\":645:678   */\n      tag_77\n      jump\t// in\n    tag_119:\n        /* \"#utility.yul\":545:684   */\n      swap3\n      swap2\n      pop\n      pop\n      jump\t// out\n        /* \"#utility.yul\":690:1019   */\n    tag_11:\n        /* \"#utility.yul\":749:755   */\n      0x00\n        /* \"#utility.yul\":798:800   */\n      0x20\n        /* \"#utility.yul\":786:795   */\n      dup3\n        /* \"#utility.yul\":777:784   */\n      dup5\n        /* \"#utility.yul\":773:796   */\n      sub\n        /* \"#utility.yul\":769:801   */\n      slt\n        /* \"#utility.yul\":766:885   */\n      iszero\n      tag_121\n      jumpi\n        /* \"#utility.yul\":804:883   */\n      tag_122\n      tag_74\n      jump\t// in\n    tag_122:\n        /* \"#utility.yul\":766:885   */\n    tag_121:\n        /* \"#utility.yul\":924:925   */\n      0x00\n        /* \"#utility.yul\":949:1002   */\n      tag_123\n        /* \"#utility.yul\":994:1001   */\n      dup5\n        /* \"#utility.yul\":985:991   */\n      dup3\n        /* \"#utility.yul\":974:983   */\n      dup6\n        /* \"#utility.yul\":970:992   */\n      add\n        /* \"#utility.yul\":949:1002   */\n      tag_78\n      jump\t// in\n    tag_123:\n        /* \"#utility.yul\":939:1002   */\n      swap2\n      pop\n        /* \"#utility.yul\":895:1012   */\n      pop\n        /* \"#utility.yul\":690:1019   */\n      swap3\n      swap2\n      pop\n      pop\n      jump\t// out\n        /* \"#utility.yul\":1025:1142   */\n    tag_79:\n        /* \"#utility.yul\":1134:1135   */\n      0x00\n        /* \"#utility.yul\":1131:1132   */\n      0x00\n        /* \"#utility.yul\":1124:1136   */\n      revert\n        /* \"#utility.yul\":1148:1265   */\n    tag_80:\n        /* \"#utility.yul\":1257:1258   */\n      0x00\n        /* \"#utility.yul\":1254:1255   */\n      0x00\n        /* \"#utility.yul\":1247:1259   */\n      revert\n        /* \"#utility.yul\":1271:1373   */\n    tag_81:\n        /* \"#utility.yul\":1312:1318   */\n      0x00\n        /* \"#utility.yul\":1363:1365   */\n      0x1f\n        /* \"#utility.yul\":1359:1366   */\n      not\n        /* \"#utility.yul\":1354:1356   */\n      0x1f\n        /* \"#utility.yul\":1347:1352   */\n      dup4\n        /* \"#utility.yul\":1343:1357   */\n      add\n        /* \"#utility.yul\":1339:1367   */\n      and\n        /* \"#utility.yul\":1329:1367   */\n      swap1\n      pop\n        /* \"#utility.yul\":1271:1373   */\n      swap2\n      swap1\n      pop\n      jump\t// out\n        /* \"#utility.yul\":1379:1559   */\n    tag_82:\n        /* \"#utility.yul\":1427:1504   */\n      0x4e487b7100000000000000000000000000000000000000000000000000000000\n        /* \"#utility.yul\":1424:1425   */\n      0x00\n        /* \"#utility.yul\":1417:1505   */\n      mstore\n        /* \"#utility.yul\":1524:1528   */\n      0x41\n        /* \"#utility.yul\":1521:1522   */\n      0x04\n        /* \"#utility.yul\":1514:1529   */\n      mstore\n        /* \"#utility.yul\":1548:1552   */\n      0x24\n        /* \"#utility.yul\":1545:1546   */\n      0x00\n        /* \"#utility.yul\":1538:1553   */\n      revert\n        /* \"#utility.yul\":1565:1846   */\n    tag_83:\n        /* \"#utility.yul\":1648:1675   */\n      tag_129\n        /* \"#utility.yul\":1670:1674   */\n      dup3\n        /* \"#utility.yul\":1648:1675   */\n      tag_81\n      jump\t// in\n    tag_129:\n        /* \"#utility.yul\":1640:1646   */\n      dup2\n        /* \"#utility.yul\":1636:1676   */\n      add\n        /* \"#utility.yul\":1778:1784   */\n      dup2\n        /* \"#utility.yul\":1766:1776   */\n      dup2\n        /* \"#utility.yul\":1763:1785   */\n      lt\n        /* \"#utility.yul\":1742:1760   */\n      0xffffffffffffffff\n        /* \"#utility.yul\":1730:1740   */\n      dup3\n        /* \"#utility.yul\":1727:1761   */\n      gt\n        /* \"#utility.yul\":1724:1786   */\n      or\n        /* \"#utility.yul\":1721:1809   */\n      iszero\n      tag_130\n      jumpi\n        /* \"#utility.yul\":1789:1807   */\n      tag_131\n      tag_82\n      jump\t// in\n    tag_131:\n        /* \"#utility.yul\":1721:1809   */\n    tag_130:\n        /* \"#utility.yul\":1829:1839   */\n      dup1\n        /* \"#utility.yul\":1825:1827   */\n      0x40\n        /* \"#utility.yul\":1818:1840   */\n      mstore\n        /* \"#utility.yul\":1608:1846   */\n      pop\n        /* \"#utility.yul\":1565:1846   */\n      pop\n      pop\n      jump\t// out\n        /* \"#utility.yul\":1852:1981   */\n    tag_84:\n        /* \"#utility.yul\":1886:1892   */\n      0x00\n        /* \"#utility.yul\":1913:1933   */\n      tag_133\n      tag_73\n      jump\t// in\n    tag_133:\n        /* \"#utility.yul\":1903:1933   */\n      swap1\n      pop\n        /* \"#utility.yul\":1942:1975   */\n      tag_134\n        /* \"#utility.yul\":1970:1974   */\n      dup3\n        /* \"#utility.yul\":1962:1968   */\n      dup3\n        /* \"#utility.yul\":1942:1975   */\n      tag_83\n      jump\t// in\n    tag_134:\n        /* \"#utility.yul\":1852:1981   */\n      swap2\n      swap1\n      pop\n      jump\t// out\n        /* \"#utility.yul\":1987:2295   */\n    tag_85:\n        /* \"#utility.yul\":2049:2053   */\n      0x00\n        /* \"#utility.yul\":2139:2157   */\n      0xffffffffffffffff\n        /* \"#utility.yul\":2131:2137   */\n      dup3\n        /* \"#utility.yul\":2128:2158   */\n      gt\n        /* \"#utility.yul\":2125:2181   */\n      iszero\n      tag_136\n      jumpi\n        /* \"#utility.yul\":2161:2179   */\n      tag_137\n      tag_82\n      jump\t// in\n    tag_137:\n        /* \"#utility.yul\":2125:2181   */\n    tag_136:\n        /* \"#utility.yul\":2199:2228   */\n      tag_138\n        /* \"#utility.yul\":2221:2227   */\n      dup3\n        /* \"#utility.yul\":2199:2228   */\n      tag_81\n      jump\t// in\n    tag_138:\n        /* \"#utility.yul\":2191:2228   */\n      swap1\n      pop\n        /* \"#utility.yul\":2283:2287   */\n      0x20\n        /* \"#utility.yul\":2277:2281   */\n      dup2\n        /* \"#utility.yul\":2273:2288   */\n      add\n        /* \"#utility.yul\":2265:2288   */\n      swap1\n      pop\n        /* \"#utility.yul\":1987:2295   */\n      swap2\n      swap1\n      pop\n      jump\t// out\n        /* \"#utility.yul\":2301:2449   */\n    tag_86:\n        /* \"#utility.yul\":2399:2405   */\n      dup3\n        /* \"#utility.yul\":2394:2397   */\n      dup2\n        /* \"#utility.yul\":2389:2392   */\n      dup4\n        /* \"#utility.yul\":2376:2406   */\n      calldatacopy\n        /* \"#utility.yul\":2440:2441   */\n      0x00\n        /* \"#utility.yul\":2431:2437   */\n      dup4\n        /* \"#utility.yul\":2426:2429   */\n      dup4\n        /* \"#utility.yul\":2422:2438   */\n      add\n        /* \"#utility.yul\":2415:2442   */\n      mstore\n        /* \"#utility.yul\":2301:2449   */\n      pop\n      pop\n      pop\n      jump\t// out\n        /* \"#utility.yul\":2455:2880   */\n    tag_87:\n        /* \"#utility.yul\":2533:2538   */\n      0x00\n        /* \"#utility.yul\":2558:2624   */\n      tag_141\n        /* \"#utility.yul\":2574:2623   */\n      tag_142\n        /* \"#utility.yul\":2616:2622   */\n      dup5\n        /* \"#utility.yul\":2574:2623   */\n      tag_85\n      jump\t// in\n    tag_142:\n        /* \"#utility.yul\":2558:2624   */\n      tag_84\n      jump\t// in\n    tag_141:\n        /* \"#utility.yul\":2549:2624   */\n      swap1\n      pop\n        /* \"#utility.yul\":2647:2653   */\n      dup3\n        /* \"#utility.yul\":2640:2645   */\n      dup2\n        /* \"#utility.yul\":2633:2654   */\n      mstore\n        /* \"#utility.yul\":2685:2689   */\n      0x20\n        /* \"#utility.yul\":2678:2683   */\n      dup2\n        /* \"#utility.yul\":2674:2690   */\n      add\n        /* \"#utility.yul\":2723:2726   */\n      dup5\n        /* \"#utility.yul\":2714:2720   */\n      dup5\n        /* \"#utility.yul\":2709:2712   */\n      dup5\n        /* \"#utility.yul\":2705:2721   */\n      add\n        /* \"#utility.yul\":2702:2727   */\n      gt\n        /* \"#utility.yul\":2699:2811   */\n      iszero\n      tag_143\n      jumpi\n        /* \"#utility.yul\":2730:2809   */\n      tag_144\n      tag_80\n      jump\t// in\n    tag_144:\n        /* \"#utility.yul\":2699:2811   */\n    tag_143:\n        /* \"#utility.yul\":2820:2874   */\n      tag_145\n        /* \"#utility.yul\":2867:2873   */\n      dup5\n        /* \"#utility.yul\":2862:2865   */\n      dup3\n        /* \"#utility.yul\":2857:2860   */\n      dup6\n        /* \"#utility.yul\":2820:2874   */\n      tag_86\n      jump\t// in\n    tag_145:\n        /* \"#utility.yul\":2539:2880   */\n      pop\n        /* \"#utility.yul\":2455:2880   */\n      swap4\n      swap3\n      pop\n      pop\n      pop\n      jump\t// out\n        /* \"#utility.yul\":2900:3240   */\n    tag_88:\n        /* \"#utility.yul\":2956:2961   */\n      0x00\n        /* \"#utility.yul\":3005:3008   */\n      dup3\n        /* \"#utility.yul\":2998:3002   */\n      0x1f\n        /* \"#utility.yul\":2990:2996   */\n      dup4\n        /* \"#utility.yul\":2986:3003   */\n      add\n        /* \"#utility.yul\":2982:3009   */\n      slt\n        /* \"#utility.yul\":2972:3094   */\n      tag_147\n      jumpi\n        /* \"#utility.yul\":3013:3092   */\n      tag_148\n      tag_79\n      jump\t// in\n    tag_148:\n        /* \"#utility.yul\":2972:3094   */\n    tag_147:\n        /* \"#utility.yul\":3130:3136   */\n      dup2\n        /* \"#utility.yul\":3117:3137   */\n      calldataload\n        /* \"#utility.yul\":3155:3234   */\n      tag_149\n        /* \"#utility.yul\":3230:3233   */\n      dup5\n        /* \"#utility.yul\":3222:3228   */\n      dup3\n        /* \"#utility.yul\":3215:3219   */\n      0x20\n        /* \"#utility.yul\":3207:3213   */\n      dup7\n        /* \"#utility.yul\":3203:3220   */\n      add\n        /* \"#utility.yul\":3155:3234   */\n      tag_87\n      jump\t// in\n    tag_149:\n        /* \"#utility.yul\":3146:3234   */\n      swap2\n      pop\n        /* \"#utility.yul\":2962:3240   */\n      pop\n        /* \"#utility.yul\":2900:3240   */\n      swap3\n      swap2\n      pop\n      pop\n      jump\t// out\n        /* \"#utility.yul\":3246:3755   */\n    tag_15:\n        /* \"#utility.yul\":3315:3321   */\n      0x00\n        /* \"#utility.yul\":3364:3366   */\n      0x20\n        /* \"#utility.yul\":3352:3361   */\n      dup3\n        /* \"#utility.yul\":3343:3350   */\n      dup5\n        /* \"#utility.yul\":3339:3362   */\n      sub\n        /* \"#utility.yul\":3335:3367   */\n      slt\n        /* \"#utility.yul\":3332:3451   */\n      iszero\n      tag_151\n      jumpi\n        /* \"#utility.yul\":3370:3449   */\n      tag_152\n      tag_74\n      jump\t// in\n    tag_152:\n        /* \"#utility.yul\":3332:3451   */\n    tag_151:\n        /* \"#utility.yul\":3518:3519   */\n      0x00\n        /* \"#utility.yul\":3507:3516   */\n      dup3\n        /* \"#utility.yul\":3503:3520   */\n      add\n        /* \"#utility.yul\":3490:3521   */\n      calldataload\n        /* \"#utility.yul\":3548:3566   */\n      0xffffffffffffffff\n        /* \"#utility.yul\":3540:3546   */\n      dup2\n        /* \"#utility.yul\":3537:3567   */\n      gt\n        /* \"#utility.yul\":3534:3651   */\n      iszero\n      tag_153\n      jumpi\n        /* \"#utility.yul\":3570:3649   */\n      tag_154\n      tag_75\n      jump\t// in\n    tag_154:\n        /* \"#utility.yul\":3534:3651   */\n    tag_153:\n        /* \"#utility.yul\":3675:3738   */\n      tag_155\n        /* \"#utility.yul\":3730:3737   */\n      dup5\n        /* \"#utility.yul\":3721:3727   */\n      dup3\n        /* \"#utility.yul\":3710:3719   */\n      dup6\n        /* \"#utility.yul\":3706:3728   */\n      add\n        /* \"#utility.yul\":3675:3738   */\n      tag_88\n      jump\t// in\n    tag_155:\n        /* \"#utility.yul\":3665:3738   */\n      swap2\n      pop\n        /* \"#utility.yul\":3461:3748   */\n      pop\n        /* \"#utility.yul\":3246:3755   */\n      swap3\n      swap2\n      pop\n      pop\n      jump\t// out\n        /* \"#utility.yul\":3761:4415   */\n    tag_21:\n        /* \"#utility.yul\":3839:3845   */\n      0x00\n        /* \"#utility.yul\":3847:3853   */\n      0x00\n        /* \"#utility.yul\":3896:3898   */\n      0x40\n        /* \"#utility.yul\":3884:3893   */\n      dup4\n        /* \"#utility.yul\":3875:3882   */\n      dup6\n        /* \"#utility.yul\":3871:3894   */\n      sub\n        /* \"#utility.yul\":3867:3899   */\n      slt\n        /* \"#utility.yul\":3864:3983   */\n      iszero\n      tag_157\n      jumpi\n        /* \"#utility.yul\":3902:3981   */\n      tag_158\n      tag_74\n      jump\t// in\n    tag_158:\n        /* \"#utility.yul\":3864:3983   */\n    tag_157:\n        /* \"#utility.yul\":4022:4023   */\n      0x00\n        /* \"#utility.yul\":4047:4100   */\n      tag_159\n        /* \"#utility.yul\":4092:4099   */\n      dup6\n        /* \"#utility.yul\":4083:4089   */\n      dup3\n        /* \"#utility.yul\":4072:4081   */\n      dup7\n        /* \"#utility.yul\":4068:4090   */\n      add\n        /* \"#utility.yul\":4047:4100   */\n      tag_78\n      jump\t// in\n    tag_159:\n        /* \"#utility.yul\":4037:4100   */\n      swap3\n      pop\n        /* \"#utility.yul\":3993:4110   */\n      pop\n        /* \"#utility.yul\":4177:4179   */\n      0x20\n        /* \"#utility.yul\":4166:4175   */\n      dup4\n        /* \"#utility.yul\":4162:4180   */\n      add\n        /* \"#utility.yul\":4149:4181   */\n      calldataload\n        /* \"#utility.yul\":4208:4226   */\n      0xffffffffffffffff\n        /* \"#utility.yul\":4200:4206   */\n      dup2\n        /* \"#utility.yul\":4197:4227   */\n      gt\n        /* \"#utility.yul\":4194:4311   */\n      iszero\n      tag_160\n      jumpi\n        /* \"#utility.yul\":4230:4309   */\n      tag_161\n      tag_75\n      jump\t// in\n    tag_161:\n        /* \"#utility.yul\":4194:4311   */\n    tag_160:\n        /* \"#utility.yul\":4335:4398   */\n      tag_162\n        /* \"#utility.yul\":4390:4397   */\n      dup6\n        /* \"#utility.yul\":4381:4387   */\n      dup3\n        /* \"#utility.yul\":4370:4379   */\n      dup7\n        /* \"#utility.yul\":4366:4388   */\n      add\n        /* \"#utility.yul\":4335:4398   */\n      tag_88\n      jump\t// in\n    tag_162:\n        /* \"#utility.yul\":4325:4398   */\n      swap2\n      pop\n        /* \"#utility.yul\":4120:4408   */\n      pop\n        /* \"#utility.yul\":3761:4415   */\n      swap3\n      pop\n      swap3\n      swap1\n      pop\n      jump\t// out\n        /* \"#utility.yul\":4421:4520   */\n    tag_89:\n        /* \"#utility.yul\":4473:4479   */\n      0x00\n        /* \"#utility.yul\":4507:4512   */\n      dup2\n        /* \"#utility.yul\":4501:4513   */\n      mload\n        /* \"#utility.yul\":4491:4513   */\n      swap1\n      pop\n        /* \"#utility.yul\":4421:4520   */\n      swap2\n      swap1\n      pop\n      jump\t// out\n        /* \"#utility.yul\":4526:4695   */\n    tag_90:\n        /* \"#utility.yul\":4610:4621   */\n      0x00\n        /* \"#utility.yul\":4644:4650   */\n      dup3\n        /* \"#utility.yul\":4639:4642   */\n      dup3\n        /* \"#utility.yul\":4632:4651   */\n      mstore\n        /* \"#utility.yul\":4684:4688   */\n      0x20\n        /* \"#utility.yul\":4679:4682   */\n      dup3\n        /* \"#utility.yul\":4675:4689   */\n      add\n        /* \"#utility.yul\":4660:4689   */\n      swap1\n      pop\n        /* \"#utility.yul\":4526:4695   */\n      swap3\n      swap2\n      pop\n      pop\n      jump\t// out\n        /* \"#utility.yul\":4701:4840   */\n    tag_91:\n        /* \"#utility.yul\":4790:4796   */\n      dup3\n        /* \"#utility.yul\":4785:4788   */\n      dup2\n        /* \"#utility.yul\":4780:4783   */\n      dup4\n        /* \"#utility.yul\":4774:4797   */\n      mcopy\n        /* \"#utility.yul\":4831:4832   */\n      0x00\n        /* \"#utility.yul\":4822:4828   */\n      dup4\n        /* \"#utility.yul\":4817:4820   */\n      dup4\n        /* \"#utility.yul\":4813:4829   */\n      add\n        /* \"#utility.yul\":4806:4833   */\n      mstore\n        /* \"#utility.yul\":4701:4840   */\n      pop\n      pop\n      pop\n      jump\t// out\n        /* \"#utility.yul\":4846:5223   */\n    tag_92:\n        /* \"#utility.yul\":4934:4937   */\n      0x00\n        /* \"#utility.yul\":4962:5001   */\n      tag_167\n        /* \"#utility.yul\":4995:5000   */\n      dup3\n        /* \"#utility.yul\":4962:5001   */\n      tag_89\n      jump\t// in\n    tag_167:\n        /* \"#utility.yul\":5017:5088   */\n      tag_168\n        /* \"#utility.yul\":5081:5087   */\n      dup2\n        /* \"#utility.yul\":5076:5079   */\n      dup6\n        /* \"#utility.yul\":5017:5088   */\n      tag_90\n      jump\t// in\n    tag_168:\n        /* \"#utility.yul\":5010:5088   */\n      swap4\n      pop\n        /* \"#utility.yul\":5097:5162   */\n      tag_169\n        /* \"#utility.yul\":5155:5161   */\n      dup2\n        /* \"#utility.yul\":5150:5153   */\n      dup6\n        /* \"#utility.yul\":5143:5147   */\n      0x20\n        /* \"#utility.yul\":5136:5141   */\n      dup7\n        /* \"#utility.yul\":5132:5148   */\n      add\n        /* \"#utility.yul\":5097:5162   */\n      tag_91\n      jump\t// in\n    tag_169:\n        /* \"#utility.yul\":5187:5216   */\n      tag_170\n        /* \"#utility.yul\":5209:5215   */\n      dup2\n        /* \"#utility.yul\":5187:5216   */\n      tag_81\n      jump\t// in\n    tag_170:\n        /* \"#utility.yul\":5182:5185   */\n      dup5\n        /* \"#utility.yul\":5178:5217   */\n      add\n        /* \"#utility.yul\":5171:5217   */\n      swap2\n      pop\n        /* \"#utility.yul\":4938:5223   */\n      pop\n        /* \"#utility.yul\":4846:5223   */\n      swap3\n      swap2\n      pop\n      pop\n      jump\t// out\n        /* \"#utility.yul\":5229:5542   */\n    tag_27:\n        /* \"#utility.yul\":5342:5346   */\n      0x00\n        /* \"#utility.yul\":5380:5382   */\n      0x20\n        /* \"#utility.yul\":5369:5378   */\n      dup3\n        /* \"#utility.yul\":5365:5383   */\n      add\n        /* \"#utility.yul\":5357:5383   */\n      swap1\n      pop\n        /* \"#utility.yul\":5429:5438   */\n      dup2\n        /* \"#utility.yul\":5423:5427   */\n      dup2\n        /* \"#utility.yul\":5419:5439   */\n      sub\n        /* \"#utility.yul\":5415:5416   */\n      0x00\n        /* \"#utility.yul\":5404:5413   */\n      dup4\n        /* \"#utility.yul\":5400:5417   */\n      add\n        /* \"#utility.yul\":5393:5440   */\n      mstore\n        /* \"#utility.yul\":5457:5535   */\n      tag_172\n        /* \"#utility.yul\":5530:5534   */\n      dup2\n        /* \"#utility.yul\":5521:5527   */\n      dup5\n        /* \"#utility.yul\":5457:5535   */\n      tag_92\n      jump\t// in\n    tag_172:\n        /* \"#utility.yul\":5449:5535   */\n      swap1\n      pop\n        /* \"#utility.yul\":5229:5542   */\n      swap3\n      swap2\n      pop\n      pop\n      jump\t// out\n        /* \"#utility.yul\":5548:5666   */\n    tag_93:\n        /* \"#utility.yul\":5635:5659   */\n      tag_174\n        /* \"#utility.yul\":5653:5658   */\n      dup2\n        /* \"#utility.yul\":5635:5659   */\n      tag_76\n      jump\t// in\n    tag_174:\n        /* \"#utility.yul\":5630:5633   */\n      dup3\n        /* \"#utility.yul\":5623:5660   */\n      mstore\n        /* \"#utility.yul\":5548:5666   */\n      pop\n      pop\n      jump\t// out\n        /* \"#utility.yul\":5672:5894   */\n    tag_31:\n        /* \"#utility.yul\":5765:5769   */\n      0x00\n        /* \"#utility.yul\":5803:5805   */\n      0x20\n        /* \"#utility.yul\":5792:5801   */\n      dup3\n        /* \"#utility.yul\":5788:5806   */\n      add\n        /* \"#utility.yul\":5780:5806   */\n      swap1\n      pop\n        /* \"#utility.yul\":5816:5887   */\n      tag_176\n        /* \"#utility.yul\":5884:5885   */\n      0x00\n        /* \"#utility.yul\":5873:5882   */\n      dup4\n        /* \"#utility.yul\":5869:5886   */\n      add\n        /* \"#utility.yul\":5860:5866   */\n      dup5\n        /* \"#utility.yul\":5816:5887   */\n      tag_93\n      jump\t// in\n    tag_176:\n        /* \"#utility.yul\":5672:5894   */\n      swap3\n      swap2\n      pop\n      pop\n      jump\t// out\n        /* \"#utility.yul\":5900:6080   */\n    tag_36:\n        /* \"#utility.yul\":5948:6025   */\n      0x4e487b7100000000000000000000000000000000000000000000000000000000\n        /* \"#utility.yul\":5945:5946   */\n      0x00\n        /* \"#utility.yul\":5938:6026   */\n      mstore\n        /* \"#utility.yul\":6045:6049   */\n      0x32\n        /* \"#utility.yul\":6042:6043   */\n      0x04\n        /* \"#utility.yul\":6035:6050   */\n      mstore\n        /* \"#utility.yul\":6069:6073   */\n      0x24\n        /* \"#utility.yul\":6066:6067   */\n      0x00\n        /* \"#utility.yul\":6059:6074   */\n      revert\n        /* \"#utility.yul\":6086:6266   */\n    tag_94:\n        /* \"#utility.yul\":6134:6211   */\n      0x4e487b7100000000000000000000000000000000000000000000000000000000\n        /* \"#utility.yul\":6131:6132   */\n      0x00\n        /* \"#utility.yul\":6124:6212   */\n      mstore\n        /* \"#utility.yul\":6231:6235   */\n      0x22\n        /* \"#utility.yul\":6228:6229   */\n      0x04\n        /* \"#utility.yul\":6221:6236   */\n      mstore\n        /* \"#utility.yul\":6255:6259   */\n      0x24\n        /* \"#utility.yul\":6252:6253   */\n      0x00\n        /* \"#utility.yul\":6245:6260   */\n      revert\n        /* \"#utility.yul\":6272:6592   */\n    tag_60:\n        /* \"#utility.yul\":6316:6322   */\n      0x00\n        /* \"#utility.yul\":6353:6354   */\n      0x02\n        /* \"#utility.yul\":6347:6351   */\n      dup3\n        /* \"#utility.yul\":6343:6355   */\n      div\n        /* \"#utility.yul\":6333:6355   */\n      swap1\n      pop\n        /* \"#utility.yul\":6400:6401   */\n      0x01\n        /* \"#utility.yul\":6394:6398   */\n      dup3\n        /* \"#utility.yul\":6390:6402   */\n      and\n        /* \"#utility.yul\":6421:6439   */\n      dup1\n        /* \"#utility.yul\":6411:6492   */\n      tag_180\n      jumpi\n        /* \"#utility.yul\":6477:6481   */\n      0x7f\n        /* \"#utility.yul\":6469:6475   */\n      dup3\n        /* \"#utility.yul\":6465:6482   */\n      and\n        /* \"#utility.yul\":6455:6482   */\n      swap2\n      pop\n        /* \"#utility.yul\":6411:6492   */\n    tag_180:\n        /* \"#utility.yul\":6539:6541   */\n      0x20\n        /* \"#utility.yul\":6531:6537   */\n      dup3\n        /* \"#utility.yul\":6528:6542   */\n      lt\n        /* \"#utility.yul\":6508:6526   */\n      dup2\n        /* \"#utility.yul\":6505:6543   */\n      sub\n        /* \"#utility.yul\":6502:6586   */\n      tag_181\n      jumpi\n        /* \"#utility.yul\":6558:6576   */\n      tag_182\n      tag_94\n      jump\t// in\n    tag_182:\n        /* \"#utility.yul\":6502:6586   */\n    tag_181:\n        /* \"#utility.yul\":6323:6592   */\n      pop\n        /* \"#utility.yul\":6272:6592   */\n      swap2\n      swap1\n      pop\n      jump\t// out\n        /* \"#utility.yul\":6598:6739   */\n    tag_95:\n        /* \"#utility.yul\":6647:6651   */\n      0x00\n        /* \"#utility.yul\":6670:6673   */\n      dup2\n        /* \"#utility.yul\":6662:6673   */\n      swap1\n      pop\n        /* \"#utility.yul\":6693:6696   */\n      dup2\n        /* \"#utility.yul\":6690:6691   */\n      0x00\n        /* \"#utility.yul\":6683:6697   */\n      mstore\n        /* \"#utility.yul\":6727:6731   */\n      0x20\n        /* \"#utility.yul\":6724:6725   */\n      0x00\n        /* \"#utility.yul\":6714:6732   */\n      keccak256\n        /* \"#utility.yul\":6706:6732   */\n      swap1\n      pop\n        /* \"#utility.yul\":6598:6739   */\n      swap2\n      swap1\n      pop\n      jump\t// out\n        /* \"#utility.yul\":6745:6838   */\n    tag_96:\n        /* \"#utility.yul\":6782:6788   */\n      0x00\n        /* \"#utility.yul\":6829:6831   */\n      0x20\n        /* \"#utility.yul\":6824:6826   */\n      0x1f\n        /* \"#utility.yul\":6817:6822   */\n      dup4\n        /* \"#utility.yul\":6813:6827   */\n      add\n        /* \"#utility.yul\":6809:6832   */\n      div\n        /* \"#utility.yul\":6799:6832   */\n      swap1\n      pop\n        /* \"#utility.yul\":6745:6838   */\n      swap2\n      swap1\n      pop\n      jump\t// out\n        /* \"#utility.yul\":6844:6951   */\n    tag_97:\n        /* \"#utility.yul\":6888:6896   */\n      0x00\n        /* \"#utility.yul\":6938:6943   */\n      dup3\n        /* \"#utility.yul\":6932:6936   */\n      dup3\n        /* \"#utility.yul\":6928:6944   */\n      shl\n        /* \"#utility.yul\":6907:6944   */\n      swap1\n      pop\n        /* \"#utility.yul\":6844:6951   */\n      swap3\n      swap2\n      pop\n      pop\n      jump\t// out\n        /* \"#utility.yul\":6957:7350   */\n    tag_98:\n        /* \"#utility.yul\":7026:7032   */\n      0x00\n        /* \"#utility.yul\":7076:7077   */\n      0x08\n        /* \"#utility.yul\":7064:7074   */\n      dup4\n        /* \"#utility.yul\":7060:7078   */\n      mul\n        /* \"#utility.yul\":7099:7196   */\n      tag_187\n        /* \"#utility.yul\":7129:7195   */\n      0xffffffffffffffffffffffffffffffffffffffffffffffffffffffffffffffff\n        /* \"#utility.yul\":7118:7127   */\n      dup3\n        /* \"#utility.yul\":7099:7196   */\n      tag_97\n      jump\t// in\n    tag_187:\n        /* \"#utility.yul\":7217:7256   */\n      tag_188\n        /* \"#utility.yul\":7247:7255   */\n      dup7\n        /* \"#utility.yul\":7236:7245   */\n      dup4\n        /* \"#utility.yul\":7217:7256   */\n      tag_97\n      jump\t// in\n    tag_188:\n        /* \"#utility.yul\":7205:7256   */\n      swap6\n      pop\n        /* \"#utility.yul\":7289:7293   */\n      dup1\n        /* \"#utility.yul\":7285:7294   */\n      not\n        /* \"#utility.yul\":7278:7283   */\n      dup5\n        /* \"#utility.yul\":7274:7295   */\n      and\n        /* \"#utility.yul\":7265:7295   */\n      swap4\n      pop\n        /* \"#utility.yul\":7338:7342   */\n      dup1\n        /* \"#utility.yul\":7328:7336   */\n      dup7\n        /* \"#utility.yul\":7324:7343   */\n      and\n        /* \"#utility.yul\":7317:7322   */\n      dup5\n        /* \"#utility.yul\":7314:7344   */\n      or\n        /* \"#utility.yul\":7304:7344   */\n      swap3\n      pop\n        /* \"#utility.yul\":7033:7350   */\n      pop\n      pop\n        /* \"#utility.yul\":6957:7350   */\n      swap4\n      swap3\n      pop\n      pop\n      pop\n      jump\t// out\n        /* \"#utility.yul\":7356:7416   */\n    tag_99:\n        /* \"#utility.yul\":7384:7387   */\n      0x00\n        /* \"#utility.yul\":7405:7410   */\n      dup2\n        /* \"#utility.yul\":7398:7410   */\n      swap1\n      pop\n        /* \"#utility.yul\":7356:7416   */\n      swap2\n      swap1\n      pop\n      jump\t// out\n        /* \"#utility.yul\":7422:7564   */\n    tag_100:\n        /* \"#utility.yul\":7472:7481   */\n      0x00\n        /* \"#utility.yul\":7505:7558   */\n      tag_191\n        /* \"#utility.yul\":7523:7557   */\n      tag_192\n        /* \"#utility.yul\":7532:7556   */\n      tag_193\n        /* \"#utility.yul\":7550:7555   */\n      dup5\n        /* \"#utility.yul\":7532:7556   */\n      tag_76\n      jump\t// in\n    tag_193:\n        /* \"#utility.yul\":7523:7557   */\n      tag_99\n      jump\t// in\n    tag_192:\n        /* \"#utility.yul\":7505:7558   */\n      tag_76\n      jump\t// in\n    tag_191:\n        /* \"#utility.yul\":7492:7558   */\n      swap1\n      pop\n        /* \"#utility.yul\":7422:7564   */\n      swap2\n      swap1\n      pop\n      jump\t// out\n        /* \"#utility.yul\":7570:7645   */\n    tag_101:\n        /* \"#utility.yul\":7613:7616   */\n      0x00\n        /* \"#utility.yul\":7634:7639   */\n      dup2\n        /* \"#utility.yul\":7627:7639   */\n      swap1\n      pop\n        /* \"#utility.yul\":7570:7645   */\n      swap2\n      swap1\n      pop\n      jump\t// out\n        /* \"#utility.yul\":7651:7920   */\n    tag_102:\n        /* \"#utility.yul\":7761:7800   */\n      tag_196\n        /* \"#utility.yul\":7792:7799   */\n      dup4\n        /* \"#utility.yul\":7761:7800   */\n      tag_100\n      jump\t// in\n    tag_196:\n        /* \"#utility.yul\":7822:7913   */\n      tag_197\n        /* \"#utility.yul\":7871:7912   */\n      tag_198\n        /* \"#utility.yul\":7895:7911   */\n      dup3\n        /* \"#utility.yul\":7871:7912   */\n      tag_101\n      jump\t// in\n    tag_198:\n        /* \"#utility.yul\":7863:7869   */\n      dup5\n        /* \"#utility.yul\":7856:7860   */\n      dup5\n        /* \"#utility.yul\":7850:7861   */\n      sload\n        /* \"#utility.yul\":7822:7913   */\n      tag_98\n      jump\t// in\n    tag_197:\n        /* \"#utility.yul\":7816:7820   */\n      dup3\n        /* \"#utility.yul\":7809:7914   */\n      sstore\n        /* \"#utility.yul\":7727:7920   */\n      pop\n        /* \"#utility.yul\":7651:7920   */\n      pop\n      pop\n      pop\n      jump\t// out\n        /* \"#utility.yul\":7926:7999   */\n    tag_103:\n        /* \"#utility.yul\":7971:7974   */\n      0x00\n        /* \"#utility.yul\":7992:7993   */\n      0x00\n        /* \"#utility.yul\":7985:7993   */\n      swap1\n      pop\n        /* \"#utility.yul\":7926:7999   */\n      swap1\n      jump\t// out\n        /* \"#utility.yul\":8005:8194   */\n    tag_104:\n        /* \"#utility.yul\":8082:8114   */\n      tag_201\n      tag_103\n      jump\t// in\n    tag_201:\n        /* \"#utility.yul\":8123:8188   */\n      tag_202\n        /* \"#utility.yul\":8181:8187   */\n      dup2\n        /* \"#utility.yul\":8173:8179   */\n      dup5\n        /* \"#utility.yul\":8167:8171   */\n      dup5\n        /* \"#utility.yul\":8123:8188   */\n      tag_102\n      jump\t// in\n    tag_202:\n        /* \"#utility.yul\":8058:8194   */\n      pop\n        /* \"#utility.yul\":8005:8194   */\n      pop\n      pop\n      jump\t// out\n        /* \"#utility.yul\":8200:8386   */\n    tag_105:\n        /* \"#utility.yul\":8260:8380   */\n    tag_204:\n        /* \"#utility.yul\":8277:8280   */\n      dup2\n        /* \"#utility.yul\":8270:8275   */\n      dup2\n        /* \"#utility.yul\":8267:8281   */\n      lt\n        /* \"#utility.yul\":8260:8380   */\n      iszero\n      tag_206\n      jumpi\n        /* \"#utility.yul\":8331:8370   */\n      tag_207\n        /* \"#utility.yul\":8368:8369   */\n      0x00\n        /* \"#utility.yul\":8361:8366   */\n      dup3\n        /* \"#utility.yul\":8331:8370   */\n      tag_104\n      jump\t// in\n    tag_207:\n        /* \"#utility.yul\":8304:8305   */\n      0x01\n        /* \"#utility.yul\":8297:8302   */\n      dup2\n        /* \"#utility.yul\":8293:8306   */\n      add\n        /* \"#utility.yul\":8284:8306   */\n      swap1\n      pop\n        /* \"#utility.yul\":8260:8380   */\n      jump(tag_204)\n    tag_206:\n        /* \"#utility.yul\":8200:8386   */\n      pop\n      pop\n      jump\t// out\n        /* \"#utility.yul\":8392:8935   */\n    tag_106:\n        /* \"#utility.yul\":8493:8495   */\n      0x1f\n        /* \"#utility.yul\":8488:8491   */\n      dup3\n        /* \"#utility.yul\":8485:8496   */\n      gt\n        /* \"#utility.yul\":8482:8928   */\n      iszero\n      tag_209\n      jumpi\n        /* \"#utility.yul\":8527:8565   */\n      tag_210\n        /* \"#utility.yul\":8559:8564   */\n      dup2\n        /* \"#utility.yul\":8527:8565   */\n      tag_95\n      jump\t// in\n    tag_210:\n        /* \"#utility.yul\":8611:8640   */\n      tag_211\n        /* \"#utility.yul\":8629:8639   */\n      dup5\n        /* \"#utility.yul\":8611:8640   */\n      tag_96\n      jump\t// in\n    tag_211:\n        /* \"#utility.yul\":8601:8609   */\n      dup2\n        /* \"#utility.yul\":8597:8641   */\n      add\n        /* \"#utility.yul\":8794:8796   */\n      0x20\n        /* \"#utility.yul\":8782:8792   */\n      dup6\n        /* \"#utility.yul\":8779:8797   */\n      lt\n        /* \"#utility.yul\":8776:8825   */\n      iszero\n      tag_212\n      jumpi\n        /* \"#utility.yul\":8815:8823   */\n      dup2\n        /* \"#utility.yul\":8800:8823   */\n      swap1\n      pop\n        /* \"#utility.yul\":8776:8825   */\n    tag_212:\n        /* \"#utility.yul\":8838:8918   */\n      tag_213\n        /* \"#utility.yul\":8894:8916   */\n      tag_214\n        /* \"#utility.yul\":8912:8915   */\n      dup6\n        /* \"#utility.yul\":8894:8916   */\n      tag_96\n      jump\t// in\n    tag_214:\n        /* \"#utility.yul\":8884:8892   */\n      dup4\n        /* \"#utility.yul\":8880:8917   */\n      add\n        /* \"#utility.yul\":8867:8878   */\n      dup3\n        /* \"#utility.yul\":8838:8918   */\n      tag_105\n      jump\t// in\n    tag_213:\n        /* \"#utility.yul\":8497:8928   */\n      pop\n      pop\n        /* \"#utility.yul\":8482:8928   */\n    tag_209:\n        /* \"#utility.yul\":8392:8935   */\n      pop\n      pop\n      pop\n      jump\t// out\n        /* \"#utility.yul\":8941:9058   */\n    tag_107:\n        /* \"#utility.yul\":8995:9003   */\n      0x00\n        /* \"#utility.yul\":9045:9050   */\n      dup3\n        /* \"#utility.yul\":9039:9043   */\n      dup3\n        /* \"#utility.yul\":9035:9051   */\n      shr\n        /* \"#utility.yul\":9014:9051   */\n      swap1\n      pop\n        /* \"#utility.yul\":8941:9058   */\n      swap3\n      swap2\n      pop\n      pop\n      jump\t// out\n        /* \"#utility.yul\":9064:9233   */\n    tag_108:\n        /* \"#utility.yul\":9108:9114   */\n      0x00\n        /* \"#utility.yul\":9141:9192   */\n      tag_217\n        /* \"#utility.yul\":9189:9190   */\n      0x00\n        /* \"#utility.yul\":9185:9191   */\n      not\n        /* \"#utility.yul\":9177:9182   */\n      dup5\n        /* \"#utility.yul\":9174:9175   */\n      0x08\n        /* \"#utility.yul\":9170:9183   */\n      mul\n        /* \"#utility.yul\":9141:9192   */\n      tag_107\n      jump\t// in\n    tag_217:\n        /* \"#utility.yul\":9137:9193   */\n      not\n        /* \"#utility.yul\":9222:9226   */\n      dup1\n        /* \"#utility.yul\":9216:9220   */\n      dup4\n        /* \"#utility.yul\":9212:9227   */\n      and\n        /* \"#utility.yul\":9202:9227   */\n      swap2\n      pop\n        /* \"#utility.yul\":9115:9233   */\n      pop\n        /* \"#utility.yul\":9064:9233   */\n      swap3\n      swap2\n      pop\n      pop\n      jump\t// out\n        /* \"#utility.yul\":9238:9533   */\n    tag_109:\n        /* \"#utility.yul\":9314:9318   */\n      0x00\n        /* \"#utility.yul\":9460:9489   */\n      tag_219\n        /* \"#utility.yul\":9485:9488   */\n      dup4\n        /* \"#utility.yul\":9479:9483   */\n      dup4\n        /* \"#utility.yul\":9460:9489   */\n      tag_108\n      jump\t// in\n    tag_219:\n        /* \"#utility.yul\":9452:9489   */\n      swap2\n      pop\n        /* \"#utility.yul\":9522:9525   */\n      dup3\n        /* \"#utility.yul\":9519:9520   */\n      0x02\n        /* \"#utility.yul\":9515:9526   */\n      mul\n        /* \"#utility.yul\":9509:9513   */\n      dup3\n        /* \"#utility.yul\":9506:9527   */\n      or\n        /* \"#utility.yul\":9498:9527   */\n      swap1\n      pop\n        /* \"#utility.yul\":9238:9533   */\n      swap3\n      swap2\n      pop\n      pop\n      jump\t// out\n        /* \"#utility.yul\":9538:10933   */\n    tag_39:\n        /* \"#utility.yul\":9655:9692   */\n      tag_221\n        /* \"#utility.yul\":9688:9691   */\n      dup3\n        /* \"#utility.yul\":9655:9692   */\n      tag_89\n      jump\t// in\n    tag_221:\n        /* \"#utility.yul\":9757:9775   */\n      0xffffffffffffffff\n        /* \"#utility.yul\":9749:9755   */\n      dup2\n        /* \"#utility.yul\":9746:9776   */\n      gt\n        /* \"#utility.yul\":9743:9799   */\n      iszero\n      tag_222\n      jumpi\n        /* \"#utility.yul\":9779:9797   */\n      tag_223\n      tag_82\n      jump\t// in\n    tag_223:\n        /* \"#utility.yul\":9743:9799   */\n    tag_222:\n        /* \"#utility.yul\":9823:9861   */\n      tag_224\n        /* \"#utility.yul\":9855:9859   */\n      dup3\n        /* \"#utility.yul\":9849:9860   */\n      sload\n        /* \"#utility.yul\":9823:9861   */\n      tag_60\n      jump\t// in\n    tag_224:\n        /* \"#utility.yul\":9908:9975   */\n      tag_225\n        /* \"#utility.yul\":9968:9974   */\n      dup3\n        /* \"#utility.yul\":9960:9966   */\n      dup3\n        /* \"#utility.yul\":9954:9958   */\n      dup6\n        /* \"#utility.yul\":9908:9975   */\n      tag_106\n      jump\t// in\n    tag_225:\n        /* \"#utility.yul\":10002:10003   */\n      0x00\n        /* \"#utility.yul\":10026:10030   */\n      0x20\n        /* \"#utility.yul\":10013:10030   */\n      swap1\n      pop\n        /* \"#utility.yul\":10058:10060   */\n      0x1f\n        /* \"#utility.yul\":10050:10056   */\n      dup4\n        /* \"#utility.yul\":10047:10061   */\n      gt\n        /* \"#utility.yul\":10075:10076   */\n      0x01\n        /* \"#utility.yul\":10070:10688   */\n      dup2\n      eq\n      tag_227\n      jumpi\n        /* \"#utility.yul\":10732:10733   */\n      0x00\n        /* \"#utility.yul\":10749:10755   */\n      dup5\n        /* \"#utility.yul\":10746:10823   */\n      iszero\n      tag_228\n      jumpi\n        /* \"#utility.yul\":10798:10807   */\n      dup3\n        /* \"#utility.yul\":10793:10796   */\n      dup8\n        /* \"#utility.yul\":10789:10808   */\n      add\n        /* \"#utility.yul\":10783:10809   */\n      mload\n        /* \"#utility.yul\":10774:10809   */\n      swap1\n      pop\n        /* \"#utility.yul\":10746:10823   */\n    tag_228:\n        /* \"#utility.yul\":10849:10916   */\n      tag_229\n        /* \"#utility.yul\":10909:10915   */\n      dup6\n        /* \"#utility.yul\":10902:10907   */\n      dup3\n        /* \"#utility.yul\":10849:10916   */\n      tag_109\n      jump\t// in\n    tag_229:\n        /* \"#utility.yul\":10843:10847   */\n      dup7\n        /* \"#utility.yul\":10836:10917   */\n      sstore\n        /* \"#utility.yul\":10705:10927   */\n      pop\n        /* \"#utility.yul\":10040:10927   */\n      jump(tag_226)\n        /* \"#utility.yul\":10070:10688   */\n    tag_227:\n        /* \"#utility.yul\":10122:10126   */\n      0x1f\n        /* \"#utility.yul\":10118:10127   */\n      not\n        /* \"#utility.yul\":10110:10116   */\n      dup5\n        /* \"#utility.yul\":10106:10128   */\n      and\n        /* \"#utility.yul\":10156:10193   */\n      tag_230\n        /* \"#utility.yul\":10188:10192   */\n      dup7\n        /* \"#utility.yul\":10156:10193   */\n      tag_95\n      jump\t// in\n    tag_230:\n        /* \"#utility.yul\":10215:10216   */\n      0x00\n        /* \"#utility.yul\":10229:10437   */\n    tag_231:\n        /* \"#utility.yul\":10243:10250   */\n      dup3\n        /* \"#utility.yul\":10240:10241   */\n      dup2\n        /* \"#utility.yul\":10237:10251   */\n      lt\n        /* \"#utility.yul\":10229:10437   */\n      iszero\n      tag_233\n      jumpi\n        /* \"#utility.yul\":10322:10331   */\n      dup5\n        /* \"#utility.yul\":10317:10320   */\n      dup10\n        /* \"#utility.yul\":10313:10332   */\n      add\n        /* \"#utility.yul\":10307:10333   */\n      mload\n        /* \"#utility.yul\":10299:10305   */\n      dup3\n        /* \"#utility.yul\":10292:10334   */\n      sstore\n        /* \"#utility.yul\":10373:10374   */\n      0x01\n        /* \"#utility.yul\":10365:10371   */\n      dup3\n        /* \"#utility.yul\":10361:10375   */\n      add\n        /* \"#utility.yul\":10351:10375   */\n      swap2\n      pop\n        /* \"#utility.yul\":10420:10422   */\n      0x20\n        /* \"#utility.yul\":10409:10418   */\n      dup6\n        /* \"#utility.yul\":10405:10423   */\n      add\n        /* \"#utility.yul\":10392:10423   */\n      swap5\n      pop\n        /* \"#utility.yul\":10266:10270   */\n      0x20\n        /* \"#utility.yul\":10263:10264   */\n      dup2\n        /* \"#utility.yul\":10259:10271   */\n      add\n        /* \"#utility.yul\":10254:10271   */\n      swap1\n      pop\n        /* \"#utility.yul\":10229:10437   */\n      jump(tag_231)\n    tag_233:\n        /* \"#utility.yul\":10465:10471   */\n      dup7\n        /* \"#utility.yul\":10456:10463   */\n      dup4\n        /* \"#utility.yul\":10453:10472   */\n      lt\n        /* \"#utility.yul\":10450:10629   */\n      iszero\n      tag_234\n      jumpi\n        /* \"#utility.yul\":10523:10532   */\n      dup5\n        /* \"#utility.yul\":10518:10521   */\n      dup10\n        /* \"#utility.yul\":10514:10533   */\n      add\n        /* \"#utility.yul\":10508:10534   */\n      mload\n        /* \"#utility.yul\":10566:10614   */\n      tag_235\n        /* \"#utility.yul\":10608:10612   */\n      0x1f\n        /* \"#utility.yul\":10600:10606   */\n      dup10\n        /* \"#utility.yul\":10596:10613   */\n      and\n        /* \"#utility.yul\":10585:10594   */\n      dup3\n        /* \"#utility.yul\":10566:10614   */\n      tag_108\n      jump\t// in\n    tag_235:\n        /* \"#utility.yul\":10558:10564   */\n      dup4\n        /* \"#utility.yul\":10551:10615   */\n      sstore\n        /* \"#utility.yul\":10473:10629   */\n      pop\n        /* \"#utility.yul\":10450:10629   */\n    tag_234:\n        /* \"#utility.yul\":10675:10676   */\n      0x01\n        /* \"#utility.yul\":10671:10672   */\n      0x02\n        /* \"#utility.yul\":10663:10669   */\n      dup9\n        /* \"#utility.yul\":10659:10673   */\n      mul\n        /* \"#utility.yul\":10655:10677   */\n      add\n        /* \"#utility.yul\":10649:10653   */\n      dup9\n        /* \"#utility.yul\":10642:10678   */\n      sstore\n        /* \"#utility.yul\":10077:10688   */\n      pop\n      pop\n      pop\n        /* \"#utility.yul\":10040:10927   */\n    tag_226:\n      pop\n        /* \"#utility.yul\":9630:10933   */\n      pop\n      pop\n      pop\n        /* \"#utility.yul\":9538:10933   */\n      pop\n      pop\n      jump\t// out\n        /* \"#utility.yul\":10939:11119   */\n    tag_46:\n        /* \"#utility.yul\":10987:11064   */\n      0x4e487b7100000000000000000000000000000000000000000000000000000000\n        /* \"#utility.yul\":10984:10985   */\n      0x00\n        /* \"#utility.yul\":10977:11065   */\n      mstore\n        /* \"#utility.yul\":11084:11088   */\n      0x31\n        /* \"#utility.yul\":11081:11082   */\n      0x04\n        /* \"#utility.yul\":11074:11089   */\n      mstore\n        /* \"#utility.yul\":11108:11112   */\n      0x24\n        /* \"#utility.yul\":11105:11106   */\n      0x00\n        /* \"#utility.yul\":11098:11113   */\n      revert\n\n    auxdata: 0xa2646970667358221220c84ba6900b79c4a1d2fb0d0377e826622a40d4a889d21d901c52267de5c6416364736f6c634300081e0033\n}\n",
				"bytecode": {
					"linkReferences": {},
					"object": "6080604052348015600e575f5ffd5b506109468061001c5f395ff3fe608060405234801561000f575f5ffd5b5060043610610060575f3560e01c8063520dab1a146100645780635cd9413e146100805780639371cfd81461009c578063a0a429c5146100a6578063cb147347146100c2578063f6382154146100f2575b5f5ffd5b61007e6004803603810190610079919061033a565b610110565b005b61009a600480360381019061009591906104a1565b610159565b005b6100a461018d565b005b6100c060048036038101906100bb91906104e8565b6101bb565b005b6100dc60048036038101906100d7919061033a565b6101e8565b6040516100e991906105a2565b60405180910390f35b6100fa610293565b60405161010791906105d1565b60405180910390f35b5f80549050811061011f575f5ffd5b60405180602001604052805f8152505f8281548110610141576101406105ea565b5b905f5260205f200190816101559190610814565b5050565b5f81908060018154018082558091505060019003905f5260205f20015f9091909190915090816101899190610814565b5050565b5f80548061019e5761019d6108e3565b5b600190038181905f5260205f20015f6101b7919061029e565b9055565b805f83815481106101cf576101ce6105ea565b5b905f5260205f200190816101e39190610814565b505050565b60605f82815481106101fd576101fc6105ea565b5b905f5260205f2001805461021090610644565b80601f016020809104026020016040519081016040528092919081815260200182805461023c90610644565b80156102875780601f1061025e57610100808354040283529160200191610287565b820191905f5260205f20905b81548152906001019060200180831161026a57829003601f168201915b50505050509050919050565b5f5f80549050905090565b5080546102aa90610644565b5f825580601f106102bb57506102d8565b601f0160209004905f5260205f20908101906102d791906102db565b5b50565b5b808211156102f2575f815f9055506001016102dc565b5090565b5f604051905090565b5f5ffd5b5f5ffd5b5f819050919050565b61031981610307565b8114610323575f5ffd5b50565b5f8135905061033481610310565b92915050565b5f6020828403121561034f5761034e6102ff565b5b5f61035c84828501610326565b91505092915050565b5f5ffd5b5f5ffd5b5f601f19601f8301169050919050565b7f4e487b71000000000000000000000000000000000000000000000000000000005f52604160045260245ffd5b6103b38261036d565b810181811067ffffffffffffffff821117156103d2576103d161037d565b5b80604052505050565b5f6103e46102f6565b90506103f082826103aa565b919050565b5f67ffffffffffffffff82111561040f5761040e61037d565b5b6104188261036d565b9050602081019050919050565b828183375f83830152505050565b5f610445610440846103f5565b6103db565b90508281526020810184848401111561046157610460610369565b5b61046c848285610425565b509392505050565b5f82601f83011261048857610487610365565b5b8135610498848260208601610433565b91505092915050565b5f602082840312156104b6576104b56102ff565b5b5f82013567ffffffffffffffff8111156104d3576104d2610303565b5b6104df84828501610474565b91505092915050565b5f5f604083850312156104fe576104fd6102ff565b5b5f61050b85828601610326565b925050602083013567ffffffffffffffff81111561052c5761052b610303565b5b61053885828601610474565b9150509250929050565b5f81519050919050565b5f82825260208201905092915050565b8281835e5f83830152505050565b5f61057482610542565b61057e818561054c565b935061058e81856020860161055c565b6105978161036d565b840191505092915050565b5f6020820190508181035f8301526105ba818461056a565b905092915050565b6105cb81610307565b82525050565b5f6020820190506105e45f8301846105c2565b92915050565b7f4e487b71000000000000000000000000000000000000000000000000000000005f52603260045260245ffd5b7f4e487b71000000000000000000000000000000000000000000000000000000005f52602260045260245ffd5b5f600282049050600182168061065b57607f821691505b60208210810361066e5761066d610617565b5b50919050565b5f819050815f5260205f209050919050565b5f6020601f8301049050919050565b5f82821b905092915050565b5f600883026106d07fffffffffffffffffffffffffffffffffffffffffffffffffffffffffffffffff82610695565b6106da8683610695565b95508019841693508086168417925050509392505050565b5f819050919050565b5f61071561071061070b84610307565b6106f2565b610307565b9050919050565b5f819050919050565b61072e836106fb565b61074261073a8261071c565b8484546106a1565b825550505050565b5f5f905090565b61075961074a565b610764818484610725565b505050565b5b818110156107875761077c5f82610751565b60018101905061076a565b5050565b601f8211156107cc5761079d81610674565b6107a684610686565b810160208510156107b5578190505b6107c96107c185610686565b830182610769565b50505b505050565b5f82821c905092915050565b5f6107ec5f19846008026107d1565b1980831691505092915050565b5f61080483836107dd565b9150826002028217905092915050565b61081d82610542565b67ffffffffffffffff8111156108365761083561037d565b5b6108408254610644565b61084b82828561078b565b5f60209050601f83116001811461087c575f841561086a578287015190505b61087485826107f9565b8655506108db565b601f19841661088a86610674565b5f5b828110156108b15784890151825560018201915060208501945060208101905061088c565b868310156108ce57848901516108ca601f8916826107dd565b8355505b6001600288020188555050505b505050505050565b7f4e487b71000000000000000000000000000000000000000000000000000000005f52603160045260245ffdfea2646970667358221220c84ba6900b79c4a1d2fb0d0377e826622a40d4a889d21d901c52267de5c6416364736f6c634300081e0033",
					"opcodes": "PUSH1 0x80 PUSH1 0x40 MSTORE CALLVALUE DUP1 ISZERO PUSH1 0xE JUMPI PUSH0 PUSH0 REVERT JUMPDEST POP PUSH2 0x946 DUP1 PUSH2 0x1C PUSH0 CODECOPY PUSH0 RETURN INVALID PUSH1 0x80 PUSH1 0x40 MSTORE CALLVALUE DUP1 ISZERO PUSH2 0xF JUMPI PUSH0 PUSH0 REVERT JUMPDEST POP PUSH1 0x4 CALLDATASIZE LT PUSH2 0x60 JUMPI PUSH0 CALLDATALOAD PUSH1 0xE0 SHR DUP1 PUSH4 0x520DAB1A EQ PUSH2 0x64 JUMPI DUP1 PUSH4 0x5CD9413E EQ PUSH2 0x80 JUMPI DUP1 PUSH4 0x9371CFD8 EQ PUSH2 0x9C JUMPI DUP1 PUSH4 0xA0A429C5 EQ PUSH2 0xA6 JUMPI DUP1 PUSH4 0xCB147347 EQ PUSH2 0xC2 JUMPI DUP1 PUSH4 0xF6382154 EQ PUSH2 0xF2 JUMPI JUMPDEST PUSH0 PUSH0 REVERT JUMPDEST PUSH2 0x7E PUSH1 0x4 DUP1 CALLDATASIZE SUB DUP2 ADD SWAP1 PUSH2 0x79 SWAP2 SWAP1 PUSH2 0x33A JUMP JUMPDEST PUSH2 0x110 JUMP JUMPDEST STOP JUMPDEST PUSH2 0x9A PUSH1 0x4 DUP1 CALLDATASIZE SUB DUP2 ADD SWAP1 PUSH2 0x95 SWAP2 SWAP1 PUSH2 0x4A1 JUMP JUMPDEST PUSH2 0x159 JUMP JUMPDEST STOP JUMPDEST PUSH2 0xA4 PUSH2 0x18D JUMP JUMPDEST STOP JUMPDEST PUSH2 0xC0 PUSH1 0x4 DUP1 CALLDATASIZE SUB DUP2 ADD SWAP1 PUSH2 0xBB SWAP2 SWAP1 PUSH2 0x4E8 JUMP JUMPDEST PUSH2 0x1BB JUMP JUMPDEST STOP JUMPDEST PUSH2 0xDC PUSH1 0x4 DUP1 CALLDATASIZE SUB DUP2 ADD SWAP1 PUSH2 0xD7 SWAP2 SWAP1 PUSH2 0x33A JUMP JUMPDEST PUSH2 0x1E8 JUMP JUMPDEST PUSH1 0x40 MLOAD PUSH2 0xE9 SWAP2 SWAP1 PUSH2 0x5A2 JUMP JUMPDEST PUSH1 0x40 MLOAD DUP1 SWAP2 SUB SWAP1 RETURN JUMPDEST PUSH2 0xFA PUSH2 0x293 JUMP JUMPDEST PUSH1 0x40 MLOAD PUSH2 0x107 SWAP2 SWAP1 PUSH2 0x5D1 JUMP JUMPDEST PUSH1 0x40 MLOAD DUP1 SWAP2 SUB SWAP1 RETURN JUMPDEST PUSH0 DUP1 SLOAD SWAP1 POP DUP2 LT PUSH2 0x11F JUMPI PUSH0 PUSH0 REVERT JUMPDEST PUSH1 0x40 MLOAD DUP1 PUSH1 0x20 ADD PUSH1 0x40 MSTORE DUP1 PUSH0 DUP2 MSTORE POP PUSH0 DUP3 DUP2 SLOAD DUP2 LT PUSH2 0x141 JUMPI PUSH2 0x140 PUSH2 0x5EA JUMP JUMPDEST JUMPDEST SWAP1 PUSH0 MSTORE PUSH1 0x20 PUSH0 KECCAK256 ADD SWAP1 DUP2 PUSH2 0x155 SWAP2 SWAP1 PUSH2 0x814 JUMP JUMPDEST POP POP JUMP JUMPDEST PUSH0 DUP2 SWAP1 DUP1 PUSH1 0x1 DUP2 SLOAD ADD DUP1 DUP3 SSTORE DUP1 SWAP2 POP POP PUSH1 0x1 SWAP1 SUB SWAP1 PUSH0 MSTORE PUSH1 0x20 PUSH0 KECCAK256 ADD PUSH0 SWAP1 SWAP2 SWAP1 SWAP2 SWAP1 SWAP2 POP SWAP1 DUP2 PUSH2 0x189 SWAP2 SWAP1 PUSH2 0x814 JUMP JUMPDEST POP POP JUMP JUMPDEST PUSH0 DUP1 SLOAD DUP1 PUSH2 0x19E JUMPI PUSH2 0x19D PUSH2 0x8E3 JUMP JUMPDEST JUMPDEST PUSH1 0x1 SWAP1 SUB DUP2 DUP2 SWAP1 PUSH0 MSTORE PUSH1 0x20 PUSH0 KECCAK256 ADD PUSH0 PUSH2 0x1B7 SWAP2 SWAP1 PUSH2 0x29E JUMP JUMPDEST SWAP1 SSTORE JUMP JUMPDEST DUP1 PUSH0 DUP4 DUP2 SLOAD DUP2 LT PUSH2 0x1CF JUMPI PUSH2 0x1CE PUSH2 0x5EA JUMP JUMPDEST JUMPDEST SWAP1 PUSH0 MSTORE PUSH1 0x20 PUSH0 KECCAK256 ADD SWAP1 DUP2 PUSH2 0x1E3 SWAP2 SWAP1 PUSH2 0x814 JUMP JUMPDEST POP POP POP JUMP JUMPDEST PUSH1 0x60 PUSH0 DUP3 DUP2 SLOAD DUP2 LT PUSH2 0x1FD JUMPI PUSH2 0x1FC PUSH2 0x5EA JUMP JUMPDEST JUMPDEST SWAP1 PUSH0 MSTORE PUSH1 0x20 PUSH0 KECCAK256 ADD DUP1 SLOAD PUSH2 0x210 SWAP1 PUSH2 0x644 JUMP JUMPDEST DUP1 PUSH1 0x1F ADD PUSH1 0x20 DUP1 SWAP2 DIV MUL PUSH1 0x20 ADD PUSH1 0x40 MLOAD SWAP1 DUP2 ADD PUSH1 0x40 MSTORE DUP1 SWAP3 SWAP2 SWAP1 DUP2 DUP2 MSTORE PUSH1 0x20 ADD DUP3 DUP1 SLOAD PUSH2 0x23C SWAP1 PUSH2 0x644 JUMP JUMPDEST DUP1 ISZERO PUSH2 0x287 JUMPI DUP1 PUSH1 0x1F LT PUSH2 0x25E JUMPI PUSH2 0x100 DUP1 DUP4 SLOAD DIV MUL DUP4 MSTORE SWAP2 PUSH1 0x20 ADD SWAP2 PUSH2 0x287 JUMP JUMPDEST DUP3 ADD SWAP2 SWAP1 PUSH0 MSTORE PUSH1 0x20 PUSH0 KECCAK256 SWAP1 JUMPDEST DUP2 SLOAD DUP2 MSTORE SWAP1 PUSH1 0x1 ADD SWAP1 PUSH1 0x20 ADD DUP1 DUP4 GT PUSH2 0x26A JUMPI DUP3 SWAP1 SUB PUSH1 0x1F AND DUP3 ADD SWAP2 JUMPDEST POP POP POP POP POP SWAP1 POP SWAP2 SWAP1 POP JUMP JUMPDEST PUSH0 PUSH0 DUP1 SLOAD SWAP1 POP SWAP1 POP SWAP1 JUMP JUMPDEST POP DUP1 SLOAD PUSH2 0x2AA SWAP1 PUSH2 0x644 JUMP JUMPDEST PUSH0 DUP3 SSTORE DUP1 PUSH1 0x1F LT PUSH2 0x2BB JUMPI POP PUSH2 0x2D8 JUMP JUMPDEST PUSH1 0x1F ADD PUSH1 0x20 SWAP1 DIV SWAP1 PUSH0 MSTORE PUSH1 0x20 PUSH0 KECCAK256 SWAP1 DUP2 ADD SWAP1 PUSH2 0x2D7 SWAP2 SWAP1 PUSH2 0x2DB JUMP JUMPDEST JUMPDEST POP JUMP JUMPDEST JUMPDEST DUP1 DUP3 GT ISZERO PUSH2 0x2F2 JUMPI PUSH0 DUP2 PUSH0 SWAP1 SSTORE POP PUSH1 0x1 ADD PUSH2 0x2DC JUMP JUMPDEST POP SWAP1 JUMP JUMPDEST PUSH0 PUSH1 0x40 MLOAD SWAP1 POP SWAP1 JUMP JUMPDEST PUSH0 PUSH0 REVERT JUMPDEST PUSH0 PUSH0 REVERT JUMPDEST PUSH0 DUP2 SWAP1 POP SWAP2 SWAP1 POP JUMP JUMPDEST PUSH2 0x319 DUP2 PUSH2 0x307 JUMP JUMPDEST DUP2 EQ PUSH2 0x323 JUMPI PUSH0 PUSH0 REVERT JUMPDEST POP JUMP JUMPDEST PUSH0 DUP2 CALLDATALOAD SWAP1 POP PUSH2 0x334 DUP2 PUSH2 0x310 JUMP JUMPDEST SWAP3 SWAP2 POP POP JUMP JUMPDEST PUSH0 PUSH1 0x20 DUP3 DUP5 SUB SLT ISZERO PUSH2 0x34F JUMPI PUSH2 0x34E PUSH2 0x2FF JUMP JUMPDEST JUMPDEST PUSH0 PUSH2 0x35C DUP5 DUP3 DUP6 ADD PUSH2 0x326 JUMP JUMPDEST SWAP2 POP POP SWAP3 SWAP2 POP POP JUMP JUMPDEST PUSH0 PUSH0 REVERT JUMPDEST PUSH0 PUSH0 REVERT JUMPDEST PUSH0 PUSH1 0x1F NOT PUSH1 0x1F DUP4 ADD AND SWAP1 POP SWAP2 SWAP1 POP JUMP JUMPDEST PUSH32 0x4E487B7100000000000000000000000000000000000000000000000000000000 PUSH0 MSTORE PUSH1 0x41 PUSH1 0x4 MSTORE PUSH1 0x24 PUSH0 REVERT JUMPDEST PUSH2 0x3B3 DUP3 PUSH2 0x36D JUMP JUMPDEST DUP2 ADD DUP2 DUP2 LT PUSH8 0xFFFFFFFFFFFFFFFF DUP3 GT OR ISZERO PUSH2 0x3D2 JUMPI PUSH2 0x3D1 PUSH2 0x37D JUMP JUMPDEST JUMPDEST DUP1 PUSH1 0x40 MSTORE POP POP POP JUMP JUMPDEST PUSH0 PUSH2 0x3E4 PUSH2 0x2F6 JUMP JUMPDEST SWAP1 POP PUSH2 0x3F0 DUP3 DUP3 PUSH2 0x3AA JUMP JUMPDEST SWAP2 SWAP1 POP JUMP JUMPDEST PUSH0 PUSH8 0xFFFFFFFFFFFFFFFF DUP3 GT ISZERO PUSH2 0x40F JUMPI PUSH2 0x40E PUSH2 0x37D JUMP JUMPDEST JUMPDEST PUSH2 0x418 DUP3 PUSH2 0x36D JUMP JUMPDEST SWAP1 POP PUSH1 0x20 DUP2 ADD SWAP1 POP SWAP2 SWAP1 POP JUMP JUMPDEST DUP3 DUP2 DUP4 CALLDATACOPY PUSH0 DUP4 DUP4 ADD MSTORE POP POP POP JUMP JUMPDEST PUSH0 PUSH2 0x445 PUSH2 0x440 DUP5 PUSH2 0x3F5 JUMP JUMPDEST PUSH2 0x3DB JUMP JUMPDEST SWAP1 POP DUP3 DUP2 MSTORE PUSH1 0x20 DUP2 ADD DUP5 DUP5 DUP5 ADD GT ISZERO PUSH2 0x461 JUMPI PUSH2 0x460 PUSH2 0x369 JUMP JUMPDEST JUMPDEST PUSH2 0x46C DUP5 DUP3 DUP6 PUSH2 0x425 JUMP JUMPDEST POP SWAP4 SWAP3 POP POP POP JUMP JUMPDEST PUSH0 DUP3 PUSH1 0x1F DUP4 ADD SLT PUSH2 0x488 JUMPI PUSH2 0x487 PUSH2 0x365 JUMP JUMPDEST JUMPDEST DUP2 CALLDATALOAD PUSH2 0x498 DUP5 DUP3 PUSH1 0x20 DUP7 ADD PUSH2 0x433 JUMP JUMPDEST SWAP2 POP POP SWAP3 SWAP2 POP POP JUMP JUMPDEST PUSH0 PUSH1 0x20 DUP3 DUP5 SUB SLT ISZERO PUSH2 0x4B6 JUMPI PUSH2 0x4B5 PUSH2 0x2FF JUMP JUMPDEST JUMPDEST PUSH0 DUP3 ADD CALLDATALOAD PUSH8 0xFFFFFFFFFFFFFFFF DUP2 GT ISZERO PUSH2 0x4D3 JUMPI PUSH2 0x4D2 PUSH2 0x303 JUMP JUMPDEST JUMPDEST PUSH2 0x4DF DUP5 DUP3 DUP6 ADD PUSH2 0x474 JUMP JUMPDEST SWAP2 POP POP SWAP3 SWAP2 POP POP JUMP JUMPDEST PUSH0 PUSH0 PUSH1 0x40 DUP4 DUP6 SUB SLT ISZERO PUSH2 0x4FE JUMPI PUSH2 0x4FD PUSH2 0x2FF JUMP JUMPDEST JUMPDEST PUSH0 PUSH2 0x50B DUP6 DUP3 DUP7 ADD PUSH2 0x326 JUMP JUMPDEST SWAP3 POP POP PUSH1 0x20 DUP4 ADD CALLDATALOAD PUSH8 0xFFFFFFFFFFFFFFFF DUP2 GT ISZERO PUSH2 0x52C JUMPI PUSH2 0x52B PUSH2 0x303 JUMP JUMPDEST JUMPDEST PUSH2 0x538 DUP6 DUP3 DUP7 ADD PUSH2 0x474 JUMP JUMPDEST SWAP2 POP POP SWAP3 POP SWAP3 SWAP1 POP JUMP JUMPDEST PUSH0 DUP2 MLOAD SWAP1 POP SWAP2 SWAP1 POP JUMP JUMPDEST PUSH0 DUP3 DUP3 MSTORE PUSH1 0x20 DUP3 ADD SWAP1 POP SWAP3 SWAP2 POP POP JUMP JUMPDEST DUP3 DUP2 DUP4 MCOPY PUSH0 DUP4 DUP4 ADD MSTORE POP POP POP JUMP JUMPDEST PUSH0 PUSH2 0x574 DUP3 PUSH2 0x542 JUMP JUMPDEST PUSH2 0x57E DUP2 DUP6 PUSH2 0x54C JUMP JUMPDEST SWAP4 POP PUSH2 0x58E DUP2 DUP6 PUSH1 0x20 DUP7 ADD PUSH2 0x55C JUMP JUMPDEST PUSH2 0x597 DUP2 PUSH2 0x36D JUMP JUMPDEST DUP5 ADD SWAP2 POP POP SWAP3 SWAP2 POP POP JUMP JUMPDEST PUSH0 PUSH1 0x20 DUP3 ADD SWAP1 POP DUP2 DUP2 SUB PUSH0 DUP4 ADD MSTORE PUSH2 0x5BA DUP2 DUP5 PUSH2 0x56A JUMP JUMPDEST SWAP1 POP SWAP3 SWAP2 POP POP JUMP JUMPDEST PUSH2 0x5CB DUP2 PUSH2 0x307 JUMP JUMPDEST DUP3 MSTORE POP POP JUMP JUMPDEST PUSH0 PUSH1 0x20 DUP3 ADD SWAP1 POP PUSH2 0x5E4 PUSH0 DUP4 ADD DUP5 PUSH2 0x5C2 JUMP JUMPDEST SWAP3 SWAP2 POP POP JUMP JUMPDEST PUSH32 0x4E487B7100000000000000000000000000000000000000000000000000000000 PUSH0 MSTORE PUSH1 0x32 PUSH1 0x4 MSTORE PUSH1 0x24 PUSH0 REVERT JUMPDEST PUSH32 0x4E487B7100000000000000000000000000000000000000000000000000000000 PUSH0 MSTORE PUSH1 0x22 PUSH1 0x4 MSTORE PUSH1 0x24 PUSH0 REVERT JUMPDEST PUSH0 PUSH1 0x2 DUP3 DIV SWAP1 POP PUSH1 0x1 DUP3 AND DUP1 PUSH2 0x65B JUMPI PUSH1 0x7F DUP3 AND SWAP2 POP JUMPDEST PUSH1 0x20 DUP3 LT DUP2 SUB PUSH2 0x66E JUMPI PUSH2 0x66D PUSH2 0x617 JUMP JUMPDEST JUMPDEST POP SWAP2 SWAP1 POP JUMP JUMPDEST PUSH0 DUP2 SWAP1 POP DUP2 PUSH0 MSTORE PUSH1 0x20 PUSH0 KECCAK256 SWAP1 POP SWAP2 SWAP1 POP JUMP JUMPDEST PUSH0 PUSH1 0x20 PUSH1 0x1F DUP4 ADD DIV SWAP1 POP SWAP2 SWAP1 POP JUMP JUMPDEST PUSH0 DUP3 DUP3 SHL SWAP1 POP SWAP3 SWAP2 POP POP JUMP JUMPDEST PUSH0 PUSH1 0x8 DUP4 MUL PUSH2 0x6D0 PUSH32 0xFFFFFFFFFFFFFFFFFFFFFFFFFFFFFFFFFFFFFFFFFFFFFFFFFFFFFFFFFFFFFFFF DUP3 PUSH2 0x695 JUMP JUMPDEST PUSH2 0x6DA DUP7 DUP4 PUSH2 0x695 JUMP JUMPDEST SWAP6 POP DUP1 NOT DUP5 AND SWAP4 POP DUP1 DUP7 AND DUP5 OR SWAP3 POP POP POP SWAP4 SWAP3 POP POP POP JUMP JUMPDEST PUSH0 DUP2 SWAP1 POP SWAP2 SWAP1 POP JUMP JUMPDEST PUSH0 PUSH2 0x715 PUSH2 0x710 PUSH2 0x70B DUP5 PUSH2 0x307 JUMP JUMPDEST PUSH2 0x6F2 JUMP JUMPDEST PUSH2 0x307 JUMP JUMPDEST SWAP1 POP SWAP2 SWAP1 POP JUMP JUMPDEST PUSH0 DUP2 SWAP1 POP SWAP2 SWAP1 POP JUMP JUMPDEST PUSH2 0x72E DUP4 PUSH2 0x6FB JUMP JUMPDEST PUSH2 0x742 PUSH2 0x73A DUP3 PUSH2 0x71C JUMP JUMPDEST DUP5 DUP5 SLOAD PUSH2 0x6A1 JUMP JUMPDEST DUP3 SSTORE POP POP POP POP JUMP JUMPDEST PUSH0 PUSH0 SWAP1 POP SWAP1 JUMP JUMPDEST PUSH2 0x759 PUSH2 0x74A JUMP JUMPDEST PUSH2 0x764 DUP2 DUP5 DUP5 PUSH2 0x725 JUMP JUMPDEST POP POP POP JUMP JUMPDEST JUMPDEST DUP2 DUP2 LT ISZERO PUSH2 0x787 JUMPI PUSH2 0x77C PUSH0 DUP3 PUSH2 0x751 JUMP JUMPDEST PUSH1 0x1 DUP2 ADD SWAP1 POP PUSH2 0x76A JUMP JUMPDEST POP POP JUMP JUMPDEST PUSH1 0x1F DUP3 GT ISZERO PUSH2 0x7CC JUMPI PUSH2 0x79D DUP2 PUSH2 0x674 JUMP JUMPDEST PUSH2 0x7A6 DUP5 PUSH2 0x686 JUMP JUMPDEST DUP2 ADD PUSH1 0x20 DUP6 LT ISZERO PUSH2 0x7B5 JUMPI DUP2 SWAP1 POP JUMPDEST PUSH2 0x7C9 PUSH2 0x7C1 DUP6 PUSH2 0x686 JUMP JUMPDEST DUP4 ADD DUP3 PUSH2 0x769 JUMP JUMPDEST POP POP JUMPDEST POP POP POP JUMP JUMPDEST PUSH0 DUP3 DUP3 SHR SWAP1 POP SWAP3 SWAP2 POP POP JUMP JUMPDEST PUSH0 PUSH2 0x7EC PUSH0 NOT DUP5 PUSH1 0x8 MUL PUSH2 0x7D1 JUMP JUMPDEST NOT DUP1 DUP4 AND SWAP2 POP POP SWAP3 SWAP2 POP POP JUMP JUMPDEST PUSH0 PUSH2 0x804 DUP4 DUP4 PUSH2 0x7DD JUMP JUMPDEST SWAP2 POP DUP3 PUSH1 0x2 MUL DUP3 OR SWAP1 POP SWAP3 SWAP2 POP POP JUMP JUMPDEST PUSH2 0x81D DUP3 PUSH2 0x542 JUMP JUMPDEST PUSH8 0xFFFFFFFFFFFFFFFF DUP2 GT ISZERO PUSH2 0x836 JUMPI PUSH2 0x835 PUSH2 0x37D JUMP JUMPDEST JUMPDEST PUSH2 0x840 DUP3 SLOAD PUSH2 0x644 JUMP JUMPDEST PUSH2 0x84B DUP3 DUP3 DUP6 PUSH2 0x78B JUMP JUMPDEST PUSH0 PUSH1 0x20 SWAP1 POP PUSH1 0x1F DUP4 GT PUSH1 0x1 DUP2 EQ PUSH2 0x87C JUMPI PUSH0 DUP5 ISZERO PUSH2 0x86A JUMPI DUP3 DUP8 ADD MLOAD SWAP1 POP JUMPDEST PUSH2 0x874 DUP6 DUP3 PUSH2 0x7F9 JUMP JUMPDEST DUP7 SSTORE POP PUSH2 0x8DB JUMP JUMPDEST PUSH1 0x1F NOT DUP5 AND PUSH2 0x88A DUP7 PUSH2 0x674 JUMP JUMPDEST PUSH0 JUMPDEST DUP3 DUP2 LT ISZERO PUSH2 0x8B1 JUMPI DUP5 DUP10 ADD MLOAD DUP3 SSTORE PUSH1 0x1 DUP3 ADD SWAP2 POP PUSH1 0x20 DUP6 ADD SWAP5 POP PUSH1 0x20 DUP2 ADD SWAP1 POP PUSH2 0x88C JUMP JUMPDEST DUP7 DUP4 LT ISZERO PUSH2 0x8CE JUMPI DUP5 DUP10 ADD MLOAD PUSH2 0x8CA PUSH1 0x1F DUP10 AND DUP3 PUSH2 0x7DD JUMP JUMPDEST DUP4 SSTORE POP JUMPDEST PUSH1 0x1 PUSH1 0x2 DUP9 MUL ADD DUP9 SSTORE POP POP POP JUMPDEST POP POP POP POP POP POP JUMP JUMPDEST PUSH32 0x4E487B7100000000000000000000000000000000000000000000000000000000 PUSH0 MSTORE PUSH1 0x31 PUSH1 0x4 MSTORE PUSH1 0x24 PUSH0 REVERT INVALID LOG2 PUSH5 0x6970667358 0x22 SLT KECCAK256 0xC8 0x4B 0xA6 SWAP1 SIGNEXTEND PUSH26 0xC4A1D2FB0D0377E826622A40D4A889D21D901C52267DE5C64163 PUSH5 0x736F6C6343 STOP ADDMOD 0x1E STOP CALLER "
				},
				"gasEstimates": {
					"creation": {
						"codeDepositCost": "474800",
						"executionCost": "509",
						"totalCost": "475309"
					},
					"external": {
						"AdicionarNome(string)": "infinite",
						"EscolherRemocao(uint256)": "infinite",
						"RemoverNome()": "infinite",
						"Tammanhhooarray()": "2527",
						"TrocarNome(uint256,string)": "infinite",
						"getNome(uint256)": "infinite"
					}
				},
				"methodIdentifiers": {
					"AdicionarNome(string)": "5cd9413e",
					"EscolherRemocao(uint256)": "520dab1a",
					"RemoverNome()": "9371cfd8",
					"Tammanhhooarray()": "f6382154",
					"TrocarNome(uint256,string)": "a0a429c5",
					"getNome(uint256)": "cb147347"
				}
			},
			"storageLayout": {
				"storage": [
					{
						"astId": 4,
						"contract": "Introdução ao Solidity/Aprenda Solidity/Array dinâmica.sol:ArrayD",
						"label": "Nomes",
						"offset": 0,
						"slot": "0",
						"type": "t_array(t_string_storage)dyn_storage"
					}
				],
				"types": {
					"t_array(t_string_storage)dyn_storage": {
						"base": "t_string_storage",
						"encoding": "dynamic_array",
						"label": "string[]",
						"numberOfBytes": "32"
					},
					"t_string_storage": {
						"encoding": "bytes",
						"label": "string",
						"numberOfBytes": "32"
					}
				}
			},
			"userdoc": {
				"kind": "user",
				"methods": {},
				"version": 1
			}
		}
	}
}