{
	"Introdução ao Solidity/Aprenda Solidity/Sobreposição de funções (override).sol": {
		"Sobreposicao2": {
			"abi": [
				{
					"inputs": [],
					"stateMutability": "nonpayable",
					"type": "constructor"
				},
				{
					"inputs": [
						{
							"internalType": "uint256",
							"name": "x",
							"type": "uint256"
						},
						{
							"internalType": "uint256",
							"name": "y",
							"type": "uint256"
						}
					],
					"name": "calculete",
					"outputs": [
						{
							"internalType": "uint256",
							"name": "",
							"type": "uint256"
						}
					],
					"stateMutability": "pure",
					"type": "function"
				},
				{
					"inputs": [],
					"name": "valor",
					"outputs": [
						{
							"internalType": "uint256",
							"name": "",
							"type": "uint256"
						}
					],
					"stateMutability": "view",
					"type": "function"
				}
			],
			"devdoc": {
				"kind": "dev",
				"methods": {},
				"version": 1
			},
			"evm": {
				"assembly": "    /* \"Introdu\\xc3\\xa7\\xc3\\xa3o ao Solidity/Aprenda Solidity/Sobreposi\\xc3\\xa7\\xc3\\xa3o de fun\\xc3\\xa7\\xc3\\xb5es (override).sol\":275:543  contract Sobreposicao2 is Sobreposicao{... */\n  mstore(0x40, 0x80)\n    /* \"Introdu\\xc3\\xa7\\xc3\\xa3o ao Solidity/Aprenda Solidity/Sobreposi\\xc3\\xa7\\xc3\\xa3o de fun\\xc3\\xa7\\xc3\\xb5es (override).sol\":388:423  constructor() Sobreposicao(valor){} */\n  callvalue\n  dup1\n  iszero\n  tag_1\n  jumpi\n  revert(0x00, 0x00)\ntag_1:\n  pop\n    /* \"Introdu\\xc3\\xa7\\xc3\\xa3o ao Solidity/Aprenda Solidity/Sobreposi\\xc3\\xa7\\xc3\\xa3o de fun\\xc3\\xa7\\xc3\\xb5es (override).sol\":415:420  valor */\n  sload(0x00)\n    /* \"Introdu\\xc3\\xa7\\xc3\\xa3o ao Solidity/Aprenda Solidity/Sobreposi\\xc3\\xa7\\xc3\\xa3o de fun\\xc3\\xa7\\xc3\\xb5es (override).sol\":153:159  _valor */\n  dup1\n    /* \"Introdu\\xc3\\xa7\\xc3\\xa3o ao Solidity/Aprenda Solidity/Sobreposi\\xc3\\xa7\\xc3\\xa3o de fun\\xc3\\xa7\\xc3\\xb5es (override).sol\":145:150  valor */\n  0x00\n    /* \"Introdu\\xc3\\xa7\\xc3\\xa3o ao Solidity/Aprenda Solidity/Sobreposi\\xc3\\xa7\\xc3\\xa3o de fun\\xc3\\xa7\\xc3\\xb5es (override).sol\":145:159  valor = _valor */\n  dup2\n  swap1\n  sstore\n  pop\n    /* \"Introdu\\xc3\\xa7\\xc3\\xa3o ao Solidity/Aprenda Solidity/Sobreposi\\xc3\\xa7\\xc3\\xa3o de fun\\xc3\\xa7\\xc3\\xb5es (override).sol\":111:166  constructor(uint _valor){... */\n  pop\n    /* \"Introdu\\xc3\\xa7\\xc3\\xa3o ao Solidity/Aprenda Solidity/Sobreposi\\xc3\\xa7\\xc3\\xa3o de fun\\xc3\\xa7\\xc3\\xb5es (override).sol\":275:543  contract Sobreposicao2 is Sobreposicao{... */\n  dataSize(sub_0)\n  dup1\n  dataOffset(sub_0)\n  0x00\n  codecopy\n  0x00\n  return\nstop\n\nsub_0: assembly {\n        /* \"Introdu\\xc3\\xa7\\xc3\\xa3o ao Solidity/Aprenda Solidity/Sobreposi\\xc3\\xa7\\xc3\\xa3o de fun\\xc3\\xa7\\xc3\\xb5es (override).sol\":275:543  contract Sobreposicao2 is Sobreposicao{... */\n      mstore(0x40, 0x80)\n      callvalue\n      dup1\n      iszero\n      tag_1\n      jumpi\n      revert(0x00, 0x00)\n    tag_1:\n      pop\n      jumpi(tag_2, lt(calldatasize, 0x04))\n      shr(0xe0, calldataload(0x00))\n      dup1\n      0xa58dc1e7\n      eq\n      tag_3\n      jumpi\n      dup1\n      0xecbac7cf\n      eq\n      tag_4\n      jumpi\n    tag_2:\n      revert(0x00, 0x00)\n        /* \"Introdu\\xc3\\xa7\\xc3\\xa3o ao Solidity/Aprenda Solidity/Sobreposi\\xc3\\xa7\\xc3\\xa3o de fun\\xc3\\xa7\\xc3\\xb5es (override).sol\":429:536  function calculete(uint x, uint y) public pure virtual override returns (uint){... */\n    tag_3:\n      tag_5\n      0x04\n      dup1\n      calldatasize\n      sub\n      dup2\n      add\n      swap1\n      tag_6\n      swap2\n      swap1\n      tag_7\n      jump\t// in\n    tag_6:\n      tag_8\n      jump\t// in\n    tag_5:\n      mload(0x40)\n      tag_9\n      swap2\n      swap1\n      tag_10\n      jump\t// in\n    tag_9:\n      mload(0x40)\n      dup1\n      swap2\n      sub\n      swap1\n      return\n        /* \"Introdu\\xc3\\xa7\\xc3\\xa3o ao Solidity/Aprenda Solidity/Sobreposi\\xc3\\xa7\\xc3\\xa3o de fun\\xc3\\xa7\\xc3\\xb5es (override).sol\":87:104  uint public valor */\n    tag_4:\n      tag_11\n      tag_12\n      jump\t// in\n    tag_11:\n      mload(0x40)\n      tag_13\n      swap2\n      swap1\n      tag_10\n      jump\t// in\n    tag_13:\n      mload(0x40)\n      dup1\n      swap2\n      sub\n      swap1\n      return\n        /* \"Introdu\\xc3\\xa7\\xc3\\xa3o ao Solidity/Aprenda Solidity/Sobreposi\\xc3\\xa7\\xc3\\xa3o de fun\\xc3\\xa7\\xc3\\xb5es (override).sol\":429:536  function calculete(uint x, uint y) public pure virtual override returns (uint){... */\n    tag_8:\n        /* \"Introdu\\xc3\\xa7\\xc3\\xa3o ao Solidity/Aprenda Solidity/Sobreposi\\xc3\\xa7\\xc3\\xa3o de fun\\xc3\\xa7\\xc3\\xb5es (override).sol\":502:506  uint */\n      0x00\n        /* \"Introdu\\xc3\\xa7\\xc3\\xa3o ao Solidity/Aprenda Solidity/Sobreposi\\xc3\\xa7\\xc3\\xa3o de fun\\xc3\\xa7\\xc3\\xb5es (override).sol\":528:529  y */\n      dup2\n        /* \"Introdu\\xc3\\xa7\\xc3\\xa3o ao Solidity/Aprenda Solidity/Sobreposi\\xc3\\xa7\\xc3\\xa3o de fun\\xc3\\xa7\\xc3\\xb5es (override).sol\":524:525  x */\n      dup4\n        /* \"Introdu\\xc3\\xa7\\xc3\\xa3o ao Solidity/Aprenda Solidity/Sobreposi\\xc3\\xa7\\xc3\\xa3o de fun\\xc3\\xa7\\xc3\\xb5es (override).sol\":524:529  x * y */\n      tag_15\n      swap2\n      swap1\n      tag_16\n      jump\t// in\n    tag_15:\n        /* \"Introdu\\xc3\\xa7\\xc3\\xa3o ao Solidity/Aprenda Solidity/Sobreposi\\xc3\\xa7\\xc3\\xa3o de fun\\xc3\\xa7\\xc3\\xb5es (override).sol\":517:529  return x * y */\n      swap1\n      pop\n        /* \"Introdu\\xc3\\xa7\\xc3\\xa3o ao Solidity/Aprenda Solidity/Sobreposi\\xc3\\xa7\\xc3\\xa3o de fun\\xc3\\xa7\\xc3\\xb5es (override).sol\":429:536  function calculete(uint x, uint y) public pure virtual override returns (uint){... */\n      swap3\n      swap2\n      pop\n      pop\n      jump\t// out\n        /* \"Introdu\\xc3\\xa7\\xc3\\xa3o ao Solidity/Aprenda Solidity/Sobreposi\\xc3\\xa7\\xc3\\xa3o de fun\\xc3\\xa7\\xc3\\xb5es (override).sol\":87:104  uint public valor */\n    tag_12:\n      sload(0x00)\n      dup2\n      jump\t// out\n        /* \"#utility.yul\":88:205   */\n    tag_18:\n        /* \"#utility.yul\":197:198   */\n      0x00\n        /* \"#utility.yul\":194:195   */\n      0x00\n        /* \"#utility.yul\":187:199   */\n      revert\n        /* \"#utility.yul\":334:411   */\n    tag_20:\n        /* \"#utility.yul\":371:378   */\n      0x00\n        /* \"#utility.yul\":400:405   */\n      dup2\n        /* \"#utility.yul\":389:405   */\n      swap1\n      pop\n        /* \"#utility.yul\":334:411   */\n      swap2\n      swap1\n      pop\n      jump\t// out\n        /* \"#utility.yul\":417:539   */\n    tag_21:\n        /* \"#utility.yul\":490:514   */\n      tag_31\n        /* \"#utility.yul\":508:513   */\n      dup2\n        /* \"#utility.yul\":490:514   */\n      tag_20\n      jump\t// in\n    tag_31:\n        /* \"#utility.yul\":483:488   */\n      dup2\n        /* \"#utility.yul\":480:515   */\n      eq\n        /* \"#utility.yul\":470:533   */\n      tag_32\n      jumpi\n        /* \"#utility.yul\":529:530   */\n      0x00\n        /* \"#utility.yul\":526:527   */\n      0x00\n        /* \"#utility.yul\":519:531   */\n      revert\n        /* \"#utility.yul\":470:533   */\n    tag_32:\n        /* \"#utility.yul\":417:539   */\n      pop\n      jump\t// out\n        /* \"#utility.yul\":545:684   */\n    tag_22:\n        /* \"#utility.yul\":591:596   */\n      0x00\n        /* \"#utility.yul\":629:635   */\n      dup2\n        /* \"#utility.yul\":616:636   */\n      calldataload\n        /* \"#utility.yul\":607:636   */\n      swap1\n      pop\n        /* \"#utility.yul\":645:678   */\n      tag_34\n        /* \"#utility.yul\":672:677   */\n      dup2\n        /* \"#utility.yul\":645:678   */\n      tag_21\n      jump\t// in\n    tag_34:\n        /* \"#utility.yul\":545:684   */\n      swap3\n      swap2\n      pop\n      pop\n      jump\t// out\n        /* \"#utility.yul\":690:1164   */\n    tag_7:\n        /* \"#utility.yul\":758:764   */\n      0x00\n        /* \"#utility.yul\":766:772   */\n      0x00\n        /* \"#utility.yul\":815:817   */\n      0x40\n        /* \"#utility.yul\":803:812   */\n      dup4\n        /* \"#utility.yul\":794:801   */\n      dup6\n        /* \"#utility.yul\":790:813   */\n      sub\n        /* \"#utility.yul\":786:818   */\n      slt\n        /* \"#utility.yul\":783:902   */\n      iszero\n      tag_36\n      jumpi\n        /* \"#utility.yul\":821:900   */\n      tag_37\n      tag_18\n      jump\t// in\n    tag_37:\n        /* \"#utility.yul\":783:902   */\n    tag_36:\n        /* \"#utility.yul\":941:942   */\n      0x00\n        /* \"#utility.yul\":966:1019   */\n      tag_38\n        /* \"#utility.yul\":1011:1018   */\n      dup6\n        /* \"#utility.yul\":1002:1008   */\n      dup3\n        /* \"#utility.yul\":991:1000   */\n      dup7\n        /* \"#utility.yul\":987:1009   */\n      add\n        /* \"#utility.yul\":966:1019   */\n      tag_22\n      jump\t// in\n    tag_38:\n        /* \"#utility.yul\":956:1019   */\n      swap3\n      pop\n        /* \"#utility.yul\":912:1029   */\n      pop\n        /* \"#utility.yul\":1068:1070   */\n      0x20\n        /* \"#utility.yul\":1094:1147   */\n      tag_39\n        /* \"#utility.yul\":1139:1146   */\n      dup6\n        /* \"#utility.yul\":1130:1136   */\n      dup3\n        /* \"#utility.yul\":1119:1128   */\n      dup7\n        /* \"#utility.yul\":1115:1137   */\n      add\n        /* \"#utility.yul\":1094:1147   */\n      tag_22\n      jump\t// in\n    tag_39:\n        /* \"#utility.yul\":1084:1147   */\n      swap2\n      pop\n        /* \"#utility.yul\":1039:1157   */\n      pop\n        /* \"#utility.yul\":690:1164   */\n      swap3\n      pop\n      swap3\n      swap1\n      pop\n      jump\t// out\n        /* \"#utility.yul\":1170:1288   */\n    tag_23:\n        /* \"#utility.yul\":1257:1281   */\n      tag_41\n        /* \"#utility.yul\":1275:1280   */\n      dup2\n        /* \"#utility.yul\":1257:1281   */\n      tag_20\n      jump\t// in\n    tag_41:\n        /* \"#utility.yul\":1252:1255   */\n      dup3\n        /* \"#utility.yul\":1245:1282   */\n      mstore\n        /* \"#utility.yul\":1170:1288   */\n      pop\n      pop\n      jump\t// out\n        /* \"#utility.yul\":1294:1516   */\n    tag_10:\n        /* \"#utility.yul\":1387:1391   */\n      0x00\n        /* \"#utility.yul\":1425:1427   */\n      0x20\n        /* \"#utility.yul\":1414:1423   */\n      dup3\n        /* \"#utility.yul\":1410:1428   */\n      add\n        /* \"#utility.yul\":1402:1428   */\n      swap1\n      pop\n        /* \"#utility.yul\":1438:1509   */\n      tag_43\n        /* \"#utility.yul\":1506:1507   */\n      0x00\n        /* \"#utility.yul\":1495:1504   */\n      dup4\n        /* \"#utility.yul\":1491:1508   */\n      add\n        /* \"#utility.yul\":1482:1488   */\n      dup5\n        /* \"#utility.yul\":1438:1509   */\n      tag_23\n      jump\t// in\n    tag_43:\n        /* \"#utility.yul\":1294:1516   */\n      swap3\n      swap2\n      pop\n      pop\n      jump\t// out\n        /* \"#utility.yul\":1522:1702   */\n    tag_24:\n        /* \"#utility.yul\":1570:1647   */\n      0x4e487b7100000000000000000000000000000000000000000000000000000000\n        /* \"#utility.yul\":1567:1568   */\n      0x00\n        /* \"#utility.yul\":1560:1648   */\n      mstore\n        /* \"#utility.yul\":1667:1671   */\n      0x11\n        /* \"#utility.yul\":1664:1665   */\n      0x04\n        /* \"#utility.yul\":1657:1672   */\n      mstore\n        /* \"#utility.yul\":1691:1695   */\n      0x24\n        /* \"#utility.yul\":1688:1689   */\n      0x00\n        /* \"#utility.yul\":1681:1696   */\n      revert\n        /* \"#utility.yul\":1708:2118   */\n    tag_16:\n        /* \"#utility.yul\":1748:1755   */\n      0x00\n        /* \"#utility.yul\":1771:1791   */\n      tag_46\n        /* \"#utility.yul\":1789:1790   */\n      dup3\n        /* \"#utility.yul\":1771:1791   */\n      tag_20\n      jump\t// in\n    tag_46:\n        /* \"#utility.yul\":1766:1791   */\n      swap2\n      pop\n        /* \"#utility.yul\":1805:1825   */\n      tag_47\n        /* \"#utility.yul\":1823:1824   */\n      dup4\n        /* \"#utility.yul\":1805:1825   */\n      tag_20\n      jump\t// in\n    tag_47:\n        /* \"#utility.yul\":1800:1825   */\n      swap3\n      pop\n        /* \"#utility.yul\":1860:1861   */\n      dup3\n        /* \"#utility.yul\":1857:1858   */\n      dup3\n        /* \"#utility.yul\":1853:1862   */\n      mul\n        /* \"#utility.yul\":1882:1912   */\n      tag_48\n        /* \"#utility.yul\":1900:1911   */\n      dup2\n        /* \"#utility.yul\":1882:1912   */\n      tag_20\n      jump\t// in\n    tag_48:\n        /* \"#utility.yul\":1871:1912   */\n      swap2\n      pop\n        /* \"#utility.yul\":2061:2062   */\n      dup3\n        /* \"#utility.yul\":2052:2059   */\n      dup3\n        /* \"#utility.yul\":2048:2063   */\n      div\n        /* \"#utility.yul\":2045:2046   */\n      dup5\n        /* \"#utility.yul\":2042:2064   */\n      eq\n        /* \"#utility.yul\":2022:2023   */\n      dup4\n        /* \"#utility.yul\":2015:2024   */\n      iszero\n        /* \"#utility.yul\":1995:2078   */\n      or\n        /* \"#utility.yul\":1972:2111   */\n      tag_49\n      jumpi\n        /* \"#utility.yul\":2091:2109   */\n      tag_50\n      tag_24\n      jump\t// in\n    tag_50:\n        /* \"#utility.yul\":1972:2111   */\n    tag_49:\n        /* \"#utility.yul\":1756:2118   */\n      pop\n        /* \"#utility.yul\":1708:2118   */\n      swap3\n      swap2\n      pop\n      pop\n      jump\t// out\n\n    auxdata: 0xa2646970667358221220e7d1a3ffa294ac3422e61a3155c04921c2d06496af049d23899d921ef6bcddf864736f6c634300081e0033\n}\n",
				"bytecode": {
					"linkReferences": {},
					"object": "6080604052348015600e575f5ffd5b505f54805f81905550506101e1806100255f395ff3fe608060405234801561000f575f5ffd5b5060043610610034575f3560e01c8063a58dc1e714610038578063ecbac7cf14610068575b5f5ffd5b610052600480360381019061004d91906100d7565b610086565b60405161005f9190610124565b60405180910390f35b61007061009b565b60405161007d9190610124565b60405180910390f35b5f8183610093919061016a565b905092915050565b5f5481565b5f5ffd5b5f819050919050565b6100b6816100a4565b81146100c0575f5ffd5b50565b5f813590506100d1816100ad565b92915050565b5f5f604083850312156100ed576100ec6100a0565b5b5f6100fa858286016100c3565b925050602061010b858286016100c3565b9150509250929050565b61011e816100a4565b82525050565b5f6020820190506101375f830184610115565b92915050565b7f4e487b71000000000000000000000000000000000000000000000000000000005f52601160045260245ffd5b5f610174826100a4565b915061017f836100a4565b925082820261018d816100a4565b915082820484148315176101a4576101a361013d565b5b509291505056fea2646970667358221220e7d1a3ffa294ac3422e61a3155c04921c2d06496af049d23899d921ef6bcddf864736f6c634300081e0033",
					"opcodes": "PUSH1 0x80 PUSH1 0x40 MSTORE CALLVALUE DUP1 ISZERO PUSH1 0xE JUMPI PUSH0 PUSH0 REVERT JUMPDEST POP PUSH0 SLOAD DUP1 PUSH0 DUP2 SWAP1 SSTORE POP POP PUSH2 0x1E1 DUP1 PUSH2 0x25 PUSH0 CODECOPY PUSH0 RETURN INVALID PUSH1 0x80 PUSH1 0x40 MSTORE CALLVALUE DUP1 ISZERO PUSH2 0xF JUMPI PUSH0 PUSH0 REVERT JUMPDEST POP PUSH1 0x4 CALLDATASIZE LT PUSH2 0x34 JUMPI PUSH0 CALLDATALOAD PUSH1 0xE0 SHR DUP1 PUSH4 0xA58DC1E7 EQ PUSH2 0x38 JUMPI DUP1 PUSH4 0xECBAC7CF EQ PUSH2 0x68 JUMPI JUMPDEST PUSH0 PUSH0 REVERT JUMPDEST PUSH2 0x52 PUSH1 0x4 DUP1 CALLDATASIZE SUB DUP2 ADD SWAP1 PUSH2 0x4D SWAP2 SWAP1 PUSH2 0xD7 JUMP JUMPDEST PUSH2 0x86 JUMP JUMPDEST PUSH1 0x40 MLOAD PUSH2 0x5F SWAP2 SWAP1 PUSH2 0x124 JUMP JUMPDEST PUSH1 0x40 MLOAD DUP1 SWAP2 SUB SWAP1 RETURN JUMPDEST PUSH2 0x70 PUSH2 0x9B JUMP JUMPDEST PUSH1 0x40 MLOAD PUSH2 0x7D SWAP2 SWAP1 PUSH2 0x124 JUMP JUMPDEST PUSH1 0x40 MLOAD DUP1 SWAP2 SUB SWAP1 RETURN JUMPDEST PUSH0 DUP2 DUP4 PUSH2 0x93 SWAP2 SWAP1 PUSH2 0x16A JUMP JUMPDEST SWAP1 POP SWAP3 SWAP2 POP POP JUMP JUMPDEST PUSH0 SLOAD DUP2 JUMP JUMPDEST PUSH0 PUSH0 REVERT JUMPDEST PUSH0 DUP2 SWAP1 POP SWAP2 SWAP1 POP JUMP JUMPDEST PUSH2 0xB6 DUP2 PUSH2 0xA4 JUMP JUMPDEST DUP2 EQ PUSH2 0xC0 JUMPI PUSH0 PUSH0 REVERT JUMPDEST POP JUMP JUMPDEST PUSH0 DUP2 CALLDATALOAD SWAP1 POP PUSH2 0xD1 DUP2 PUSH2 0xAD JUMP JUMPDEST SWAP3 SWAP2 POP POP JUMP JUMPDEST PUSH0 PUSH0 PUSH1 0x40 DUP4 DUP6 SUB SLT ISZERO PUSH2 0xED JUMPI PUSH2 0xEC PUSH2 0xA0 JUMP JUMPDEST JUMPDEST PUSH0 PUSH2 0xFA DUP6 DUP3 DUP7 ADD PUSH2 0xC3 JUMP JUMPDEST SWAP3 POP POP PUSH1 0x20 PUSH2 0x10B DUP6 DUP3 DUP7 ADD PUSH2 0xC3 JUMP JUMPDEST SWAP2 POP POP SWAP3 POP SWAP3 SWAP1 POP JUMP JUMPDEST PUSH2 0x11E DUP2 PUSH2 0xA4 JUMP JUMPDEST DUP3 MSTORE POP POP JUMP JUMPDEST PUSH0 PUSH1 0x20 DUP3 ADD SWAP1 POP PUSH2 0x137 PUSH0 DUP4 ADD DUP5 PUSH2 0x115 JUMP JUMPDEST SWAP3 SWAP2 POP POP JUMP JUMPDEST PUSH32 0x4E487B7100000000000000000000000000000000000000000000000000000000 PUSH0 MSTORE PUSH1 0x11 PUSH1 0x4 MSTORE PUSH1 0x24 PUSH0 REVERT JUMPDEST PUSH0 PUSH2 0x174 DUP3 PUSH2 0xA4 JUMP JUMPDEST SWAP2 POP PUSH2 0x17F DUP4 PUSH2 0xA4 JUMP JUMPDEST SWAP3 POP DUP3 DUP3 MUL PUSH2 0x18D DUP2 PUSH2 0xA4 JUMP JUMPDEST SWAP2 POP DUP3 DUP3 DIV DUP5 EQ DUP4 ISZERO OR PUSH2 0x1A4 JUMPI PUSH2 0x1A3 PUSH2 0x13D JUMP JUMPDEST JUMPDEST POP SWAP3 SWAP2 POP POP JUMP INVALID LOG2 PUSH5 0x6970667358 0x22 SLT KECCAK256 SWAPN 0xD1 LOG3 SELFDESTRUCT LOG2 SWAP5 0xAC CALLVALUE 0x22 DUPN 0x1A BALANCE SSTORE 0xC0 BLOBHASH 0x21 0xC2 0xD0 PUSH5 0x96AF049D23 DUP10 SWAP14 SWAP3 0x1E 0xF6 0xBC 0xDD EXTCALL PUSH5 0x736F6C6343 STOP ADDMOD 0x1E STOP CALLER "
				},
				"gasEstimates": {
					"creation": {
						"codeDepositCost": "96200",
						"executionCost": "24362",
						"totalCost": "120562"
					},
					"external": {
						"calculete(uint256,uint256)": "infinite",
						"valor()": "2424"
					}
				},
				"methodIdentifiers": {
					"calculete(uint256,uint256)": "a58dc1e7",
					"valor()": "ecbac7cf"
				}
			},
			"storageLayout": {
				"storage": [
					{
						"astId": 3,
						"contract": "Introdução ao Solidity/Aprenda Solidity/Sobreposição de funções (override).sol:Sobreposicao2",
						"label": "valor",
						"offset": 0,
						"slot": "0",
						"type": "t_uint256"
					}
				],
				"types": {
					"t_uint256": {
						"encoding": "inplace",
						"label": "uint256",
						"numberOfBytes": "32"
					}
				}
			},
			"userdoc": {
				"kind": "user",
				"methods": {},
				"version": 1
			}
		}
	}
}