{
	"Introdução ao Solidity/Aprenda Solidity/Exemplos de modificadores.sol": {
		"Modifire": {
			"abi": [
				{
					"inputs": [
						{
							"internalType": "uint256",
							"name": "_valor",
							"type": "uint256"
						}
					],
					"name": "Restrita",
					"outputs": [
						{
							"internalType": "string",
							"name": "",
							"type": "string"
						},
						{
							"internalType": "uint256",
							"name": "",
							"type": "uint256"
						}
					],
					"stateMutability": "nonpayable",
					"type": "function"
				},
				{
					"inputs": [],
					"name": "minhaVariavel",
					"outputs": [
						{
							"internalType": "uint256",
							"name": "",
							"type": "uint256"
						}
					],
					"stateMutability": "view",
					"type": "function"
				}
			],
			"devdoc": {
				"kind": "dev",
				"methods": {},
				"version": 1
			},
			"evm": {
				"assembly": "    /* \"Introdu\\xc3\\xa7\\xc3\\xa3o ao Solidity/Aprenda Solidity/Exemplos de modificadores.sol\":61:541  contract Modifire{... */\n  mstore(0x40, 0x80)\n  callvalue\n  dup1\n  iszero\n  tag_1\n  jumpi\n  revert(0x00, 0x00)\ntag_1:\n  pop\n  dataSize(sub_0)\n  dup1\n  dataOffset(sub_0)\n  0x00\n  codecopy\n  0x00\n  return\nstop\n\nsub_0: assembly {\n        /* \"Introdu\\xc3\\xa7\\xc3\\xa3o ao Solidity/Aprenda Solidity/Exemplos de modificadores.sol\":61:541  contract Modifire{... */\n      mstore(0x40, 0x80)\n      callvalue\n      dup1\n      iszero\n      tag_1\n      jumpi\n      revert(0x00, 0x00)\n    tag_1:\n      pop\n      jumpi(tag_2, lt(calldatasize, 0x04))\n      shr(0xe0, calldataload(0x00))\n      dup1\n      0x70014cad\n      eq\n      tag_3\n      jumpi\n      dup1\n      0xc21c117f\n      eq\n      tag_4\n      jumpi\n    tag_2:\n      revert(0x00, 0x00)\n        /* \"Introdu\\xc3\\xa7\\xc3\\xa3o ao Solidity/Aprenda Solidity/Exemplos de modificadores.sol\":329:538  function Restrita(uint _valor)public ApenasMaior(_valor) returns (string memory, uint){... */\n    tag_3:\n      tag_5\n      0x04\n      dup1\n      calldatasize\n      sub\n      dup2\n      add\n      swap1\n      tag_6\n      swap2\n      swap1\n      tag_7\n      jump\t// in\n    tag_6:\n      tag_8\n      jump\t// in\n    tag_5:\n      mload(0x40)\n      tag_9\n      swap3\n      swap2\n      swap1\n      tag_10\n      jump\t// in\n    tag_9:\n      mload(0x40)\n      dup1\n      swap2\n      sub\n      swap1\n      return\n        /* \"Introdu\\xc3\\xa7\\xc3\\xa3o ao Solidity/Aprenda Solidity/Exemplos de modificadores.sol\":87:112  uint public minhaVariavel */\n    tag_4:\n      tag_11\n      tag_12\n      jump\t// in\n    tag_11:\n      mload(0x40)\n      tag_13\n      swap2\n      swap1\n      tag_14\n      jump\t// in\n    tag_13:\n      mload(0x40)\n      dup1\n      swap2\n      sub\n      swap1\n      return\n        /* \"Introdu\\xc3\\xa7\\xc3\\xa3o ao Solidity/Aprenda Solidity/Exemplos de modificadores.sol\":329:538  function Restrita(uint _valor)public ApenasMaior(_valor) returns (string memory, uint){... */\n    tag_8:\n        /* \"Introdu\\xc3\\xa7\\xc3\\xa3o ao Solidity/Aprenda Solidity/Exemplos de modificadores.sol\":395:408  string memory */\n      0x60\n        /* \"Introdu\\xc3\\xa7\\xc3\\xa3o ao Solidity/Aprenda Solidity/Exemplos de modificadores.sol\":410:414  uint */\n      0x00\n        /* \"Introdu\\xc3\\xa7\\xc3\\xa3o ao Solidity/Aprenda Solidity/Exemplos de modificadores.sol\":378:384  _valor */\n      dup3\n        /* \"Introdu\\xc3\\xa7\\xc3\\xa3o ao Solidity/Aprenda Solidity/Exemplos de modificadores.sol\":180:183  100 */\n      0x64\n        /* \"Introdu\\xc3\\xa7\\xc3\\xa3o ao Solidity/Aprenda Solidity/Exemplos de modificadores.sol\":172:177  value */\n      dup2\n        /* \"Introdu\\xc3\\xa7\\xc3\\xa3o ao Solidity/Aprenda Solidity/Exemplos de modificadores.sol\":172:183  value > 100 */\n      gt\n        /* \"Introdu\\xc3\\xa7\\xc3\\xa3o ao Solidity/Aprenda Solidity/Exemplos de modificadores.sol\":164:184  require(value > 100) */\n      tag_16\n      jumpi\n      revert(0x00, 0x00)\n    tag_16:\n        /* \"Introdu\\xc3\\xa7\\xc3\\xa3o ao Solidity/Aprenda Solidity/Exemplos de modificadores.sol\":426:439  minhaVariavel */\n      0x00\n      0x00\n        /* \"Introdu\\xc3\\xa7\\xc3\\xa3o ao Solidity/Aprenda Solidity/Exemplos de modificadores.sol\":426:441  minhaVariavel++ */\n      dup2\n      sload\n      dup1\n      swap3\n      swap2\n      swap1\n      tag_18\n      swap1\n      tag_19\n      jump\t// in\n    tag_18:\n      swap2\n      swap1\n      pop\n      sstore\n      pop\n        /* \"Introdu\\xc3\\xa7\\xc3\\xa3o ao Solidity/Aprenda Solidity/Exemplos de modificadores.sol\":523:529  _valor */\n      dup4\n        /* \"Introdu\\xc3\\xa7\\xc3\\xa3o ao Solidity/Aprenda Solidity/Exemplos de modificadores.sol\":462:530  return (unicode\"É maior do que 100, porque, o número é:\", _valor) */\n      mload(0x40)\n      dup1\n      0x60\n      add\n      0x40\n      mstore\n      dup1\n      0x2a\n      dup2\n      mstore\n      0x20\n      add\n      data_533cec875d06db5855e8724baac284ec76ae62bc9af90db521071d8d9cf4f066\n      0x2a\n      swap2\n      codecopy\n      swap1\n      swap3\n      pop\n      swap3\n      pop\n        /* \"Introdu\\xc3\\xa7\\xc3\\xa3o ao Solidity/Aprenda Solidity/Exemplos de modificadores.sol\":426:439  minhaVariavel */\n      0x00\n      0x00\n        /* \"Introdu\\xc3\\xa7\\xc3\\xa3o ao Solidity/Aprenda Solidity/Exemplos de modificadores.sol\":426:441  minhaVariavel++ */\n      dup2\n      sload\n      dup1\n      swap3\n      swap2\n      swap1\n      tag_21\n      swap1\n      tag_19\n      jump\t// in\n    tag_21:\n      swap2\n      swap1\n      pop\n      sstore\n      pop\n        /* \"Introdu\\xc3\\xa7\\xc3\\xa3o ao Solidity/Aprenda Solidity/Exemplos de modificadores.sol\":523:529  _valor */\n      dup4\n        /* \"Introdu\\xc3\\xa7\\xc3\\xa3o ao Solidity/Aprenda Solidity/Exemplos de modificadores.sol\":462:530  return (unicode\"É maior do que 100, porque, o número é:\", _valor) */\n      mload(0x40)\n      dup1\n      0x60\n      add\n      0x40\n      mstore\n      dup1\n      0x2a\n      dup2\n      mstore\n      0x20\n      add\n      data_533cec875d06db5855e8724baac284ec76ae62bc9af90db521071d8d9cf4f066\n      0x2a\n      swap2\n      codecopy\n      swap1\n      swap3\n      pop\n      swap3\n      pop\n        /* \"Introdu\\xc3\\xa7\\xc3\\xa3o ao Solidity/Aprenda Solidity/Exemplos de modificadores.sol\":426:439  minhaVariavel */\n      0x00\n      0x00\n        /* \"Introdu\\xc3\\xa7\\xc3\\xa3o ao Solidity/Aprenda Solidity/Exemplos de modificadores.sol\":426:441  minhaVariavel++ */\n      dup2\n      sload\n      dup1\n      swap3\n      swap2\n      swap1\n      tag_23\n      swap1\n      tag_19\n      jump\t// in\n    tag_23:\n      swap2\n      swap1\n      pop\n      sstore\n      pop\n        /* \"Introdu\\xc3\\xa7\\xc3\\xa3o ao Solidity/Aprenda Solidity/Exemplos de modificadores.sol\":523:529  _valor */\n      dup4\n        /* \"Introdu\\xc3\\xa7\\xc3\\xa3o ao Solidity/Aprenda Solidity/Exemplos de modificadores.sol\":462:530  return (unicode\"É maior do que 100, porque, o número é:\", _valor) */\n      mload(0x40)\n      dup1\n      0x60\n      add\n      0x40\n      mstore\n      dup1\n      0x2a\n      dup2\n      mstore\n      0x20\n      add\n      data_533cec875d06db5855e8724baac284ec76ae62bc9af90db521071d8d9cf4f066\n      0x2a\n      swap2\n      codecopy\n      swap1\n      swap3\n      pop\n      swap3\n      pop\n        /* \"Introdu\\xc3\\xa7\\xc3\\xa3o ao Solidity/Aprenda Solidity/Exemplos de modificadores.sol\":329:538  function Restrita(uint _valor)public ApenasMaior(_valor) returns (string memory, uint){... */\n      pop\n      swap2\n      pop\n      swap2\n      jump\t// out\n        /* \"Introdu\\xc3\\xa7\\xc3\\xa3o ao Solidity/Aprenda Solidity/Exemplos de modificadores.sol\":87:112  uint public minhaVariavel */\n    tag_12:\n      sload(0x00)\n      dup2\n      jump\t// out\n        /* \"#utility.yul\":88:205   */\n    tag_25:\n        /* \"#utility.yul\":197:198   */\n      0x00\n        /* \"#utility.yul\":194:195   */\n      0x00\n        /* \"#utility.yul\":187:199   */\n      revert\n        /* \"#utility.yul\":334:411   */\n    tag_27:\n        /* \"#utility.yul\":371:378   */\n      0x00\n        /* \"#utility.yul\":400:405   */\n      dup2\n        /* \"#utility.yul\":389:405   */\n      swap1\n      pop\n        /* \"#utility.yul\":334:411   */\n      swap2\n      swap1\n      pop\n      jump\t// out\n        /* \"#utility.yul\":417:539   */\n    tag_28:\n        /* \"#utility.yul\":490:514   */\n      tag_43\n        /* \"#utility.yul\":508:513   */\n      dup2\n        /* \"#utility.yul\":490:514   */\n      tag_27\n      jump\t// in\n    tag_43:\n        /* \"#utility.yul\":483:488   */\n      dup2\n        /* \"#utility.yul\":480:515   */\n      eq\n        /* \"#utility.yul\":470:533   */\n      tag_44\n      jumpi\n        /* \"#utility.yul\":529:530   */\n      0x00\n        /* \"#utility.yul\":526:527   */\n      0x00\n        /* \"#utility.yul\":519:531   */\n      revert\n        /* \"#utility.yul\":470:533   */\n    tag_44:\n        /* \"#utility.yul\":417:539   */\n      pop\n      jump\t// out\n        /* \"#utility.yul\":545:684   */\n    tag_29:\n        /* \"#utility.yul\":591:596   */\n      0x00\n        /* \"#utility.yul\":629:635   */\n      dup2\n        /* \"#utility.yul\":616:636   */\n      calldataload\n        /* \"#utility.yul\":607:636   */\n      swap1\n      pop\n        /* \"#utility.yul\":645:678   */\n      tag_46\n        /* \"#utility.yul\":672:677   */\n      dup2\n        /* \"#utility.yul\":645:678   */\n      tag_28\n      jump\t// in\n    tag_46:\n        /* \"#utility.yul\":545:684   */\n      swap3\n      swap2\n      pop\n      pop\n      jump\t// out\n        /* \"#utility.yul\":690:1019   */\n    tag_7:\n        /* \"#utility.yul\":749:755   */\n      0x00\n        /* \"#utility.yul\":798:800   */\n      0x20\n        /* \"#utility.yul\":786:795   */\n      dup3\n        /* \"#utility.yul\":777:784   */\n      dup5\n        /* \"#utility.yul\":773:796   */\n      sub\n        /* \"#utility.yul\":769:801   */\n      slt\n        /* \"#utility.yul\":766:885   */\n      iszero\n      tag_48\n      jumpi\n        /* \"#utility.yul\":804:883   */\n      tag_49\n      tag_25\n      jump\t// in\n    tag_49:\n        /* \"#utility.yul\":766:885   */\n    tag_48:\n        /* \"#utility.yul\":924:925   */\n      0x00\n        /* \"#utility.yul\":949:1002   */\n      tag_50\n        /* \"#utility.yul\":994:1001   */\n      dup5\n        /* \"#utility.yul\":985:991   */\n      dup3\n        /* \"#utility.yul\":974:983   */\n      dup6\n        /* \"#utility.yul\":970:992   */\n      add\n        /* \"#utility.yul\":949:1002   */\n      tag_29\n      jump\t// in\n    tag_50:\n        /* \"#utility.yul\":939:1002   */\n      swap2\n      pop\n        /* \"#utility.yul\":895:1012   */\n      pop\n        /* \"#utility.yul\":690:1019   */\n      swap3\n      swap2\n      pop\n      pop\n      jump\t// out\n        /* \"#utility.yul\":1025:1124   */\n    tag_30:\n        /* \"#utility.yul\":1077:1083   */\n      0x00\n        /* \"#utility.yul\":1111:1116   */\n      dup2\n        /* \"#utility.yul\":1105:1117   */\n      mload\n        /* \"#utility.yul\":1095:1117   */\n      swap1\n      pop\n        /* \"#utility.yul\":1025:1124   */\n      swap2\n      swap1\n      pop\n      jump\t// out\n        /* \"#utility.yul\":1130:1299   */\n    tag_31:\n        /* \"#utility.yul\":1214:1225   */\n      0x00\n        /* \"#utility.yul\":1248:1254   */\n      dup3\n        /* \"#utility.yul\":1243:1246   */\n      dup3\n        /* \"#utility.yul\":1236:1255   */\n      mstore\n        /* \"#utility.yul\":1288:1292   */\n      0x20\n        /* \"#utility.yul\":1283:1286   */\n      dup3\n        /* \"#utility.yul\":1279:1293   */\n      add\n        /* \"#utility.yul\":1264:1293   */\n      swap1\n      pop\n        /* \"#utility.yul\":1130:1299   */\n      swap3\n      swap2\n      pop\n      pop\n      jump\t// out\n        /* \"#utility.yul\":1305:1444   */\n    tag_32:\n        /* \"#utility.yul\":1394:1400   */\n      dup3\n        /* \"#utility.yul\":1389:1392   */\n      dup2\n        /* \"#utility.yul\":1384:1387   */\n      dup4\n        /* \"#utility.yul\":1378:1401   */\n      mcopy\n        /* \"#utility.yul\":1435:1436   */\n      0x00\n        /* \"#utility.yul\":1426:1432   */\n      dup4\n        /* \"#utility.yul\":1421:1424   */\n      dup4\n        /* \"#utility.yul\":1417:1433   */\n      add\n        /* \"#utility.yul\":1410:1437   */\n      mstore\n        /* \"#utility.yul\":1305:1444   */\n      pop\n      pop\n      pop\n      jump\t// out\n        /* \"#utility.yul\":1450:1552   */\n    tag_33:\n        /* \"#utility.yul\":1491:1497   */\n      0x00\n        /* \"#utility.yul\":1542:1544   */\n      0x1f\n        /* \"#utility.yul\":1538:1545   */\n      not\n        /* \"#utility.yul\":1533:1535   */\n      0x1f\n        /* \"#utility.yul\":1526:1531   */\n      dup4\n        /* \"#utility.yul\":1522:1536   */\n      add\n        /* \"#utility.yul\":1518:1546   */\n      and\n        /* \"#utility.yul\":1508:1546   */\n      swap1\n      pop\n        /* \"#utility.yul\":1450:1552   */\n      swap2\n      swap1\n      pop\n      jump\t// out\n        /* \"#utility.yul\":1558:1935   */\n    tag_34:\n        /* \"#utility.yul\":1646:1649   */\n      0x00\n        /* \"#utility.yul\":1674:1713   */\n      tag_56\n        /* \"#utility.yul\":1707:1712   */\n      dup3\n        /* \"#utility.yul\":1674:1713   */\n      tag_30\n      jump\t// in\n    tag_56:\n        /* \"#utility.yul\":1729:1800   */\n      tag_57\n        /* \"#utility.yul\":1793:1799   */\n      dup2\n        /* \"#utility.yul\":1788:1791   */\n      dup6\n        /* \"#utility.yul\":1729:1800   */\n      tag_31\n      jump\t// in\n    tag_57:\n        /* \"#utility.yul\":1722:1800   */\n      swap4\n      pop\n        /* \"#utility.yul\":1809:1874   */\n      tag_58\n        /* \"#utility.yul\":1867:1873   */\n      dup2\n        /* \"#utility.yul\":1862:1865   */\n      dup6\n        /* \"#utility.yul\":1855:1859   */\n      0x20\n        /* \"#utility.yul\":1848:1853   */\n      dup7\n        /* \"#utility.yul\":1844:1860   */\n      add\n        /* \"#utility.yul\":1809:1874   */\n      tag_32\n      jump\t// in\n    tag_58:\n        /* \"#utility.yul\":1899:1928   */\n      tag_59\n        /* \"#utility.yul\":1921:1927   */\n      dup2\n        /* \"#utility.yul\":1899:1928   */\n      tag_33\n      jump\t// in\n    tag_59:\n        /* \"#utility.yul\":1894:1897   */\n      dup5\n        /* \"#utility.yul\":1890:1929   */\n      add\n        /* \"#utility.yul\":1883:1929   */\n      swap2\n      pop\n        /* \"#utility.yul\":1650:1935   */\n      pop\n        /* \"#utility.yul\":1558:1935   */\n      swap3\n      swap2\n      pop\n      pop\n      jump\t// out\n        /* \"#utility.yul\":1941:2059   */\n    tag_35:\n        /* \"#utility.yul\":2028:2052   */\n      tag_61\n        /* \"#utility.yul\":2046:2051   */\n      dup2\n        /* \"#utility.yul\":2028:2052   */\n      tag_27\n      jump\t// in\n    tag_61:\n        /* \"#utility.yul\":2023:2026   */\n      dup3\n        /* \"#utility.yul\":2016:2053   */\n      mstore\n        /* \"#utility.yul\":1941:2059   */\n      pop\n      pop\n      jump\t// out\n        /* \"#utility.yul\":2065:2488   */\n    tag_10:\n        /* \"#utility.yul\":2206:2210   */\n      0x00\n        /* \"#utility.yul\":2244:2246   */\n      0x40\n        /* \"#utility.yul\":2233:2242   */\n      dup3\n        /* \"#utility.yul\":2229:2247   */\n      add\n        /* \"#utility.yul\":2221:2247   */\n      swap1\n      pop\n        /* \"#utility.yul\":2293:2302   */\n      dup2\n        /* \"#utility.yul\":2287:2291   */\n      dup2\n        /* \"#utility.yul\":2283:2303   */\n      sub\n        /* \"#utility.yul\":2279:2280   */\n      0x00\n        /* \"#utility.yul\":2268:2277   */\n      dup4\n        /* \"#utility.yul\":2264:2281   */\n      add\n        /* \"#utility.yul\":2257:2304   */\n      mstore\n        /* \"#utility.yul\":2321:2399   */\n      tag_63\n        /* \"#utility.yul\":2394:2398   */\n      dup2\n        /* \"#utility.yul\":2385:2391   */\n      dup6\n        /* \"#utility.yul\":2321:2399   */\n      tag_34\n      jump\t// in\n    tag_63:\n        /* \"#utility.yul\":2313:2399   */\n      swap1\n      pop\n        /* \"#utility.yul\":2409:2481   */\n      tag_64\n        /* \"#utility.yul\":2477:2479   */\n      0x20\n        /* \"#utility.yul\":2466:2475   */\n      dup4\n        /* \"#utility.yul\":2462:2480   */\n      add\n        /* \"#utility.yul\":2453:2459   */\n      dup5\n        /* \"#utility.yul\":2409:2481   */\n      tag_35\n      jump\t// in\n    tag_64:\n        /* \"#utility.yul\":2065:2488   */\n      swap4\n      swap3\n      pop\n      pop\n      pop\n      jump\t// out\n        /* \"#utility.yul\":2494:2716   */\n    tag_14:\n        /* \"#utility.yul\":2587:2591   */\n      0x00\n        /* \"#utility.yul\":2625:2627   */\n      0x20\n        /* \"#utility.yul\":2614:2623   */\n      dup3\n        /* \"#utility.yul\":2610:2628   */\n      add\n        /* \"#utility.yul\":2602:2628   */\n      swap1\n      pop\n        /* \"#utility.yul\":2638:2709   */\n      tag_66\n        /* \"#utility.yul\":2706:2707   */\n      0x00\n        /* \"#utility.yul\":2695:2704   */\n      dup4\n        /* \"#utility.yul\":2691:2708   */\n      add\n        /* \"#utility.yul\":2682:2688   */\n      dup5\n        /* \"#utility.yul\":2638:2709   */\n      tag_35\n      jump\t// in\n    tag_66:\n        /* \"#utility.yul\":2494:2716   */\n      swap3\n      swap2\n      pop\n      pop\n      jump\t// out\n        /* \"#utility.yul\":2722:2902   */\n    tag_36:\n        /* \"#utility.yul\":2770:2847   */\n      0x4e487b7100000000000000000000000000000000000000000000000000000000\n        /* \"#utility.yul\":2767:2768   */\n      0x00\n        /* \"#utility.yul\":2760:2848   */\n      mstore\n        /* \"#utility.yul\":2867:2871   */\n      0x11\n        /* \"#utility.yul\":2864:2865   */\n      0x04\n        /* \"#utility.yul\":2857:2872   */\n      mstore\n        /* \"#utility.yul\":2891:2895   */\n      0x24\n        /* \"#utility.yul\":2888:2889   */\n      0x00\n        /* \"#utility.yul\":2881:2896   */\n      revert\n        /* \"#utility.yul\":2908:3141   */\n    tag_19:\n        /* \"#utility.yul\":2947:2950   */\n      0x00\n        /* \"#utility.yul\":2970:2994   */\n      tag_69\n        /* \"#utility.yul\":2988:2993   */\n      dup3\n        /* \"#utility.yul\":2970:2994   */\n      tag_27\n      jump\t// in\n    tag_69:\n        /* \"#utility.yul\":2961:2994   */\n      swap2\n      pop\n        /* \"#utility.yul\":3016:3082   */\n      0xffffffffffffffffffffffffffffffffffffffffffffffffffffffffffffffff\n        /* \"#utility.yul\":3009:3014   */\n      dup3\n        /* \"#utility.yul\":3006:3083   */\n      sub\n        /* \"#utility.yul\":3003:3106   */\n      tag_70\n      jumpi\n        /* \"#utility.yul\":3086:3104   */\n      tag_71\n      tag_36\n      jump\t// in\n    tag_71:\n        /* \"#utility.yul\":3003:3106   */\n    tag_70:\n        /* \"#utility.yul\":3133:3134   */\n      0x01\n        /* \"#utility.yul\":3126:3131   */\n      dup3\n        /* \"#utility.yul\":3122:3135   */\n      add\n        /* \"#utility.yul\":3115:3135   */\n      swap1\n      pop\n        /* \"#utility.yul\":2908:3141   */\n      swap2\n      swap1\n      pop\n      jump\t// out\n    stop\n    data_533cec875d06db5855e8724baac284ec76ae62bc9af90db521071d8d9cf4f066 c389206d61696f7220646f20717565203130302c20706f727175652c206f206ec3ba6d65726f20c3a93a\n\n    auxdata: 0xa2646970667358221220db973a529970ed9c18c853fac6d5050d062612885638a0638eb16ee7ac9c518a64736f6c634300081e0033\n}\n",
				"bytecode": {
					"linkReferences": {},
					"object": "6080604052348015600e575f5ffd5b5061033d8061001c5f395ff3fe608060405234801561000f575f5ffd5b5060043610610034575f3560e01c806370014cad14610038578063c21c117f14610069575b5f5ffd5b610052600480360381019061004d9190610178565b610087565b604051610060929190610222565b60405180910390f35b61007161013c565b60405161007e9190610250565b60405180910390f35b60605f8260648111610097575f5ffd5b5f5f8154809291906100a890610296565b9190505550836040518060600160405280602a81526020016102de602a913990925092505f5f8154809291906100dd90610296565b9190505550836040518060600160405280602a81526020016102de602a913990925092505f5f81548092919061011290610296565b9190505550836040518060600160405280602a81526020016102de602a9139909250925050915091565b5f5481565b5f5ffd5b5f819050919050565b61015781610145565b8114610161575f5ffd5b50565b5f813590506101728161014e565b92915050565b5f6020828403121561018d5761018c610141565b5b5f61019a84828501610164565b91505092915050565b5f81519050919050565b5f82825260208201905092915050565b8281835e5f83830152505050565b5f601f19601f8301169050919050565b5f6101e5826101a3565b6101ef81856101ad565b93506101ff8185602086016101bd565b610208816101cb565b840191505092915050565b61021c81610145565b82525050565b5f6040820190508181035f83015261023a81856101db565b90506102496020830184610213565b9392505050565b5f6020820190506102635f830184610213565b92915050565b7f4e487b71000000000000000000000000000000000000000000000000000000005f52601160045260245ffd5b5f6102a082610145565b91507fffffffffffffffffffffffffffffffffffffffffffffffffffffffffffffffff82036102d2576102d1610269565b5b60018201905091905056fec389206d61696f7220646f20717565203130302c20706f727175652c206f206ec3ba6d65726f20c3a93aa2646970667358221220db973a529970ed9c18c853fac6d5050d062612885638a0638eb16ee7ac9c518a64736f6c634300081e0033",
					"opcodes": "PUSH1 0x80 PUSH1 0x40 MSTORE CALLVALUE DUP1 ISZERO PUSH1 0xE JUMPI PUSH0 PUSH0 REVERT JUMPDEST POP PUSH2 0x33D DUP1 PUSH2 0x1C PUSH0 CODECOPY PUSH0 RETURN INVALID PUSH1 0x80 PUSH1 0x40 MSTORE CALLVALUE DUP1 ISZERO PUSH2 0xF JUMPI PUSH0 PUSH0 REVERT JUMPDEST POP PUSH1 0x4 CALLDATASIZE LT PUSH2 0x34 JUMPI PUSH0 CALLDATALOAD PUSH1 0xE0 SHR DUP1 PUSH4 0x70014CAD EQ PUSH2 0x38 JUMPI DUP1 PUSH4 0xC21C117F EQ PUSH2 0x69 JUMPI JUMPDEST PUSH0 PUSH0 REVERT JUMPDEST PUSH2 0x52 PUSH1 0x4 DUP1 CALLDATASIZE SUB DUP2 ADD SWAP1 PUSH2 0x4D SWAP2 SWAP1 PUSH2 0x178 JUMP JUMPDEST PUSH2 0x87 JUMP JUMPDEST PUSH1 0x40 MLOAD PUSH2 0x60 SWAP3 SWAP2 SWAP1 PUSH2 0x222 JUMP JUMPDEST PUSH1 0x40 MLOAD DUP1 SWAP2 SUB SWAP1 RETURN JUMPDEST PUSH2 0x71 PUSH2 0x13C JUMP JUMPDEST PUSH1 0x40 MLOAD PUSH2 0x7E SWAP2 SWAP1 PUSH2 0x250 JUMP JUMPDEST PUSH1 0x40 MLOAD DUP1 SWAP2 SUB SWAP1 RETURN JUMPDEST PUSH1 0x60 PUSH0 DUP3 PUSH1 0x64 DUP2 GT PUSH2 0x97 JUMPI PUSH0 PUSH0 REVERT JUMPDEST PUSH0 PUSH0 DUP2 SLOAD DUP1 SWAP3 SWAP2 SWAP1 PUSH2 0xA8 SWAP1 PUSH2 0x296 JUMP JUMPDEST SWAP2 SWAP1 POP SSTORE POP DUP4 PUSH1 0x40 MLOAD DUP1 PUSH1 0x60 ADD PUSH1 0x40 MSTORE DUP1 PUSH1 0x2A DUP2 MSTORE PUSH1 0x20 ADD PUSH2 0x2DE PUSH1 0x2A SWAP2 CODECOPY SWAP1 SWAP3 POP SWAP3 POP PUSH0 PUSH0 DUP2 SLOAD DUP1 SWAP3 SWAP2 SWAP1 PUSH2 0xDD SWAP1 PUSH2 0x296 JUMP JUMPDEST SWAP2 SWAP1 POP SSTORE POP DUP4 PUSH1 0x40 MLOAD DUP1 PUSH1 0x60 ADD PUSH1 0x40 MSTORE DUP1 PUSH1 0x2A DUP2 MSTORE PUSH1 0x20 ADD PUSH2 0x2DE PUSH1 0x2A SWAP2 CODECOPY SWAP1 SWAP3 POP SWAP3 POP PUSH0 PUSH0 DUP2 SLOAD DUP1 SWAP3 SWAP2 SWAP1 PUSH2 0x112 SWAP1 PUSH2 0x296 JUMP JUMPDEST SWAP2 SWAP1 POP SSTORE POP DUP4 PUSH1 0x40 MLOAD DUP1 PUSH1 0x60 ADD PUSH1 0x40 MSTORE DUP1 PUSH1 0x2A DUP2 MSTORE PUSH1 0x20 ADD PUSH2 0x2DE PUSH1 0x2A SWAP2 CODECOPY SWAP1 SWAP3 POP SWAP3 POP POP SWAP2 POP SWAP2 JUMP JUMPDEST PUSH0 SLOAD DUP2 JUMP JUMPDEST PUSH0 PUSH0 REVERT JUMPDEST PUSH0 DUP2 SWAP1 POP SWAP2 SWAP1 POP JUMP JUMPDEST PUSH2 0x157 DUP2 PUSH2 0x145 JUMP JUMPDEST DUP2 EQ PUSH2 0x161 JUMPI PUSH0 PUSH0 REVERT JUMPDEST POP JUMP JUMPDEST PUSH0 DUP2 CALLDATALOAD SWAP1 POP PUSH2 0x172 DUP2 PUSH2 0x14E JUMP JUMPDEST SWAP3 SWAP2 POP POP JUMP JUMPDEST PUSH0 PUSH1 0x20 DUP3 DUP5 SUB SLT ISZERO PUSH2 0x18D JUMPI PUSH2 0x18C PUSH2 0x141 JUMP JUMPDEST JUMPDEST PUSH0 PUSH2 0x19A DUP5 DUP3 DUP6 ADD PUSH2 0x164 JUMP JUMPDEST SWAP2 POP POP SWAP3 SWAP2 POP POP JUMP JUMPDEST PUSH0 DUP2 MLOAD SWAP1 POP SWAP2 SWAP1 POP JUMP JUMPDEST PUSH0 DUP3 DUP3 MSTORE PUSH1 0x20 DUP3 ADD SWAP1 POP SWAP3 SWAP2 POP POP JUMP JUMPDEST DUP3 DUP2 DUP4 MCOPY PUSH0 DUP4 DUP4 ADD MSTORE POP POP POP JUMP JUMPDEST PUSH0 PUSH1 0x1F NOT PUSH1 0x1F DUP4 ADD AND SWAP1 POP SWAP2 SWAP1 POP JUMP JUMPDEST PUSH0 PUSH2 0x1E5 DUP3 PUSH2 0x1A3 JUMP JUMPDEST PUSH2 0x1EF DUP2 DUP6 PUSH2 0x1AD JUMP JUMPDEST SWAP4 POP PUSH2 0x1FF DUP2 DUP6 PUSH1 0x20 DUP7 ADD PUSH2 0x1BD JUMP JUMPDEST PUSH2 0x208 DUP2 PUSH2 0x1CB JUMP JUMPDEST DUP5 ADD SWAP2 POP POP SWAP3 SWAP2 POP POP JUMP JUMPDEST PUSH2 0x21C DUP2 PUSH2 0x145 JUMP JUMPDEST DUP3 MSTORE POP POP JUMP JUMPDEST PUSH0 PUSH1 0x40 DUP3 ADD SWAP1 POP DUP2 DUP2 SUB PUSH0 DUP4 ADD MSTORE PUSH2 0x23A DUP2 DUP6 PUSH2 0x1DB JUMP JUMPDEST SWAP1 POP PUSH2 0x249 PUSH1 0x20 DUP4 ADD DUP5 PUSH2 0x213 JUMP JUMPDEST SWAP4 SWAP3 POP POP POP JUMP JUMPDEST PUSH0 PUSH1 0x20 DUP3 ADD SWAP1 POP PUSH2 0x263 PUSH0 DUP4 ADD DUP5 PUSH2 0x213 JUMP JUMPDEST SWAP3 SWAP2 POP POP JUMP JUMPDEST PUSH32 0x4E487B7100000000000000000000000000000000000000000000000000000000 PUSH0 MSTORE PUSH1 0x11 PUSH1 0x4 MSTORE PUSH1 0x24 PUSH0 REVERT JUMPDEST PUSH0 PUSH2 0x2A0 DUP3 PUSH2 0x145 JUMP JUMPDEST SWAP2 POP PUSH32 0xFFFFFFFFFFFFFFFFFFFFFFFFFFFFFFFFFFFFFFFFFFFFFFFFFFFFFFFFFFFFFFFF DUP3 SUB PUSH2 0x2D2 JUMPI PUSH2 0x2D1 PUSH2 0x269 JUMP JUMPDEST JUMPDEST PUSH1 0x1 DUP3 ADD SWAP1 POP SWAP2 SWAP1 POP JUMP INVALID 0xC3 DUP10 KECCAK256 PUSH14 0x61696F7220646F20717565203130 ADDRESS 0x2C KECCAK256 PUSH17 0x6F727175652C206F206EC3BA6D65726F20 0xC3 0xA9 GASPRICE LOG2 PUSH5 0x6970667358 0x22 SLT KECCAK256 0xDB SWAP8 GASPRICE MSTORE SWAP10 PUSH17 0xED9C18C853FAC6D5050D062612885638A0 PUSH4 0x8EB16EE7 0xAC SWAP13 MLOAD DUP11 PUSH5 0x736F6C6343 STOP ADDMOD 0x1E STOP CALLER "
				},
				"gasEstimates": {
					"creation": {
						"codeDepositCost": "165800",
						"executionCost": "206",
						"totalCost": "166006"
					},
					"external": {
						"Restrita(uint256)": "infinite",
						"minhaVariavel()": "2424"
					}
				},
				"methodIdentifiers": {
					"Restrita(uint256)": "70014cad",
					"minhaVariavel()": "c21c117f"
				}
			},
			"storageLayout": {
				"storage": [
					{
						"astId": 3,
						"contract": "Introdução ao Solidity/Aprenda Solidity/Exemplos de modificadores.sol:Modifire",
						"label": "minhaVariavel",
						"offset": 0,
						"slot": "0",
						"type": "t_uint256"
					}
				],
				"types": {
					"t_uint256": {
						"encoding": "inplace",
						"label": "uint256",
						"numberOfBytes": "32"
					}
				}
			},
			"userdoc": {
				"kind": "user",
				"methods": {},
				"version": 1
			}
		}
	}
}