{
	"Introdução ao Solidity/ExerciciosDeTeste/Sistema de Recompensa.sol": {
		"SistemaRecompensa": {
			"abi": [
				{
					"inputs": [],
					"stateMutability": "nonpayable",
					"type": "constructor"
				},
				{
					"inputs": [
						{
							"internalType": "uint256",
							"name": "",
							"type": "uint256"
						}
					],
					"name": "Listaconcluida",
					"outputs": [
						{
							"internalType": "string",
							"name": "",
							"type": "string"
						}
					],
					"stateMutability": "view",
					"type": "function"
				},
				{
					"inputs": [],
					"name": "Owner",
					"outputs": [
						{
							"internalType": "address",
							"name": "",
							"type": "address"
						}
					],
					"stateMutability": "view",
					"type": "function"
				},
				{
					"inputs": [],
					"name": "ResgataRecompensa",
					"outputs": [],
					"stateMutability": "payable",
					"type": "function"
				},
				{
					"inputs": [
						{
							"internalType": "string",
							"name": "_nomeTarefa",
							"type": "string"
						}
					],
					"name": "TarefaConcluida",
					"outputs": [],
					"stateMutability": "nonpayable",
					"type": "function"
				},
				{
					"inputs": [],
					"name": "TotalTarefa",
					"outputs": [
						{
							"internalType": "uint256",
							"name": "",
							"type": "uint256"
						}
					],
					"stateMutability": "view",
					"type": "function"
				},
				{
					"inputs": [],
					"name": "VerDiheiro",
					"outputs": [
						{
							"internalType": "uint256",
							"name": "",
							"type": "uint256"
						}
					],
					"stateMutability": "view",
					"type": "function"
				},
				{
					"inputs": [
						{
							"internalType": "address",
							"name": "",
							"type": "address"
						}
					],
					"name": "pontos",
					"outputs": [
						{
							"internalType": "uint256",
							"name": "",
							"type": "uint256"
						}
					],
					"stateMutability": "view",
					"type": "function"
				}
			],
			"devdoc": {
				"kind": "dev",
				"methods": {},
				"version": 1
			},
			"evm": {
				"assembly": "    /* \"Introdu\\xc3\\xa7\\xc3\\xa3o ao Solidity/ExerciciosDeTeste/Sistema de Recompensa.sol\":61:886  contract SistemaRecompensa{... */\n  mstore(0x40, 0x80)\n    /* \"Introdu\\xc3\\xa7\\xc3\\xa3o ao Solidity/ExerciciosDeTeste/Sistema de Recompensa.sol\":253:303  constructor(){... */\n  callvalue\n  dup1\n  iszero\n  tag_1\n  jumpi\n  revert(0x00, 0x00)\ntag_1:\n  pop\n    /* \"Introdu\\xc3\\xa7\\xc3\\xa3o ao Solidity/ExerciciosDeTeste/Sistema de Recompensa.sol\":285:295  msg.sender */\n  caller\n    /* \"Introdu\\xc3\\xa7\\xc3\\xa3o ao Solidity/ExerciciosDeTeste/Sistema de Recompensa.sol\":277:282  Owner */\n  0x00\n  0x00\n    /* \"Introdu\\xc3\\xa7\\xc3\\xa3o ao Solidity/ExerciciosDeTeste/Sistema de Recompensa.sol\":277:295  Owner = msg.sender */\n  0x0100\n  exp\n  dup2\n  sload\n  dup2\n  0xffffffffffffffffffffffffffffffffffffffff\n  mul\n  not\n  and\n  swap1\n  dup4\n  0xffffffffffffffffffffffffffffffffffffffff\n  and\n  mul\n  or\n  swap1\n  sstore\n  pop\n    /* \"Introdu\\xc3\\xa7\\xc3\\xa3o ao Solidity/ExerciciosDeTeste/Sistema de Recompensa.sol\":61:886  contract SistemaRecompensa{... */\n  dataSize(sub_0)\n  dup1\n  dataOffset(sub_0)\n  0x00\n  codecopy\n  0x00\n  return\nstop\n\nsub_0: assembly {\n        /* \"Introdu\\xc3\\xa7\\xc3\\xa3o ao Solidity/ExerciciosDeTeste/Sistema de Recompensa.sol\":61:886  contract SistemaRecompensa{... */\n      mstore(0x40, 0x80)\n      jumpi(tag_1, lt(calldatasize, 0x04))\n      shr(0xe0, calldataload(0x00))\n      dup1\n      0x99c74a77\n      gt\n      tag_9\n      jumpi\n      dup1\n      0x99c74a77\n      eq\n      tag_5\n      jumpi\n      dup1\n      0xa5086c08\n      eq\n      tag_6\n      jumpi\n      dup1\n      0xb4a99a4e\n      eq\n      tag_7\n      jumpi\n      dup1\n      0xc86508a0\n      eq\n      tag_8\n      jumpi\n      jump(tag_1)\n    tag_9:\n      dup1\n      0x0628241a\n      eq\n      tag_2\n      jumpi\n      dup1\n      0x15a21ba8\n      eq\n      tag_3\n      jumpi\n      dup1\n      0x1c012964\n      eq\n      tag_4\n      jumpi\n    tag_1:\n      revert(0x00, 0x00)\n        /* \"Introdu\\xc3\\xa7\\xc3\\xa3o ao Solidity/ExerciciosDeTeste/Sistema de Recompensa.sol\":127:166  mapping (address => uint) public pontos */\n    tag_2:\n      callvalue\n      dup1\n      iszero\n      tag_10\n      jumpi\n      revert(0x00, 0x00)\n    tag_10:\n      pop\n      tag_11\n      0x04\n      dup1\n      calldatasize\n      sub\n      dup2\n      add\n      swap1\n      tag_12\n      swap2\n      swap1\n      tag_13\n      jump\t// in\n    tag_12:\n      tag_14\n      jump\t// in\n    tag_11:\n      mload(0x40)\n      tag_15\n      swap2\n      swap1\n      tag_16\n      jump\t// in\n    tag_15:\n      mload(0x40)\n      dup1\n      swap2\n      sub\n      swap1\n      return\n        /* \"Introdu\\xc3\\xa7\\xc3\\xa3o ao Solidity/ExerciciosDeTeste/Sistema de Recompensa.sol\":786:883  function VerDiheiro() view  public returns (uint){... */\n    tag_3:\n      callvalue\n      dup1\n      iszero\n      tag_17\n      jumpi\n      revert(0x00, 0x00)\n    tag_17:\n      pop\n      tag_18\n      tag_19\n      jump\t// in\n    tag_18:\n      mload(0x40)\n      tag_20\n      swap2\n      swap1\n      tag_16\n      jump\t// in\n    tag_20:\n      mload(0x40)\n      dup1\n      swap2\n      sub\n      swap1\n      return\n        /* \"Introdu\\xc3\\xa7\\xc3\\xa3o ao Solidity/ExerciciosDeTeste/Sistema de Recompensa.sol\":311:456  function TarefaConcluida(string memory _nomeTarefa) public {... */\n    tag_4:\n      callvalue\n      dup1\n      iszero\n      tag_21\n      jumpi\n      revert(0x00, 0x00)\n    tag_21:\n      pop\n      tag_22\n      0x04\n      dup1\n      calldatasize\n      sub\n      dup2\n      add\n      swap1\n      tag_23\n      swap2\n      swap1\n      tag_24\n      jump\t// in\n    tag_23:\n      tag_25\n      jump\t// in\n    tag_22:\n      stop\n        /* \"Introdu\\xc3\\xa7\\xc3\\xa3o ao Solidity/ExerciciosDeTeste/Sistema de Recompensa.sol\":567:780  function ResgataRecompensa() payable public {... */\n    tag_5:\n      tag_26\n      tag_27\n      jump\t// in\n    tag_26:\n      stop\n        /* \"Introdu\\xc3\\xa7\\xc3\\xa3o ao Solidity/ExerciciosDeTeste/Sistema de Recompensa.sol\":462:561  function TotalTarefa() public view returns (uint) {... */\n    tag_6:\n      callvalue\n      dup1\n      iszero\n      tag_28\n      jumpi\n      revert(0x00, 0x00)\n    tag_28:\n      pop\n      tag_29\n      tag_30\n      jump\t// in\n    tag_29:\n      mload(0x40)\n      tag_31\n      swap2\n      swap1\n      tag_16\n      jump\t// in\n    tag_31:\n      mload(0x40)\n      dup1\n      swap2\n      sub\n      swap1\n      return\n        /* \"Introdu\\xc3\\xa7\\xc3\\xa3o ao Solidity/ExerciciosDeTeste/Sistema de Recompensa.sol\":100:120  address public Owner */\n    tag_7:\n      callvalue\n      dup1\n      iszero\n      tag_32\n      jumpi\n      revert(0x00, 0x00)\n    tag_32:\n      pop\n      tag_33\n      tag_34\n      jump\t// in\n    tag_33:\n      mload(0x40)\n      tag_35\n      swap2\n      swap1\n      tag_36\n      jump\t// in\n    tag_35:\n      mload(0x40)\n      dup1\n      swap2\n      sub\n      swap1\n      return\n        /* \"Introdu\\xc3\\xa7\\xc3\\xa3o ao Solidity/ExerciciosDeTeste/Sistema de Recompensa.sol\":173:203  string[] public Listaconcluida */\n    tag_8:\n      callvalue\n      dup1\n      iszero\n      tag_37\n      jumpi\n      revert(0x00, 0x00)\n    tag_37:\n      pop\n      tag_38\n      0x04\n      dup1\n      calldatasize\n      sub\n      dup2\n      add\n      swap1\n      tag_39\n      swap2\n      swap1\n      tag_40\n      jump\t// in\n    tag_39:\n      tag_41\n      jump\t// in\n    tag_38:\n      mload(0x40)\n      tag_42\n      swap2\n      swap1\n      tag_43\n      jump\t// in\n    tag_42:\n      mload(0x40)\n      dup1\n      swap2\n      sub\n      swap1\n      return\n        /* \"Introdu\\xc3\\xa7\\xc3\\xa3o ao Solidity/ExerciciosDeTeste/Sistema de Recompensa.sol\":127:166  mapping (address => uint) public pontos */\n    tag_14:\n      mstore(0x20, 0x01)\n      dup1\n      0x00\n      mstore\n      keccak256(0x00, 0x40)\n      0x00\n      swap2\n      pop\n      swap1\n      pop\n      sload\n      dup2\n      jump\t// out\n        /* \"Introdu\\xc3\\xa7\\xc3\\xa3o ao Solidity/ExerciciosDeTeste/Sistema de Recompensa.sol\":786:883  function VerDiheiro() view  public returns (uint){... */\n    tag_19:\n        /* \"Introdu\\xc3\\xa7\\xc3\\xa3o ao Solidity/ExerciciosDeTeste/Sistema de Recompensa.sol\":830:834  uint */\n      0x00\n        /* \"Introdu\\xc3\\xa7\\xc3\\xa3o ao Solidity/ExerciciosDeTeste/Sistema de Recompensa.sol\":854:862  dinheiro */\n      0x03\n        /* \"Introdu\\xc3\\xa7\\xc3\\xa3o ao Solidity/ExerciciosDeTeste/Sistema de Recompensa.sol\":854:874  dinheiro[msg.sender] */\n      0x00\n        /* \"Introdu\\xc3\\xa7\\xc3\\xa3o ao Solidity/ExerciciosDeTeste/Sistema de Recompensa.sol\":863:873  msg.sender */\n      caller\n        /* \"Introdu\\xc3\\xa7\\xc3\\xa3o ao Solidity/ExerciciosDeTeste/Sistema de Recompensa.sol\":854:874  dinheiro[msg.sender] */\n      0xffffffffffffffffffffffffffffffffffffffff\n      and\n      0xffffffffffffffffffffffffffffffffffffffff\n      and\n      dup2\n      mstore\n      0x20\n      add\n      swap1\n      dup2\n      mstore\n      0x20\n      add\n      0x00\n      keccak256\n      sload\n        /* \"Introdu\\xc3\\xa7\\xc3\\xa3o ao Solidity/ExerciciosDeTeste/Sistema de Recompensa.sol\":846:875  return (dinheiro[msg.sender]) */\n      swap1\n      pop\n        /* \"Introdu\\xc3\\xa7\\xc3\\xa3o ao Solidity/ExerciciosDeTeste/Sistema de Recompensa.sol\":786:883  function VerDiheiro() view  public returns (uint){... */\n      swap1\n      jump\t// out\n        /* \"Introdu\\xc3\\xa7\\xc3\\xa3o ao Solidity/ExerciciosDeTeste/Sistema de Recompensa.sol\":311:456  function TarefaConcluida(string memory _nomeTarefa) public {... */\n    tag_25:\n        /* \"Introdu\\xc3\\xa7\\xc3\\xa3o ao Solidity/ExerciciosDeTeste/Sistema de Recompensa.sol\":403:405  10 */\n      0x0a\n        /* \"Introdu\\xc3\\xa7\\xc3\\xa3o ao Solidity/ExerciciosDeTeste/Sistema de Recompensa.sol\":381:387  pontos */\n      0x01\n        /* \"Introdu\\xc3\\xa7\\xc3\\xa3o ao Solidity/ExerciciosDeTeste/Sistema de Recompensa.sol\":381:399  pontos[msg.sender] */\n      0x00\n        /* \"Introdu\\xc3\\xa7\\xc3\\xa3o ao Solidity/ExerciciosDeTeste/Sistema de Recompensa.sol\":388:398  msg.sender */\n      caller\n        /* \"Introdu\\xc3\\xa7\\xc3\\xa3o ao Solidity/ExerciciosDeTeste/Sistema de Recompensa.sol\":381:399  pontos[msg.sender] */\n      0xffffffffffffffffffffffffffffffffffffffff\n      and\n      0xffffffffffffffffffffffffffffffffffffffff\n      and\n      dup2\n      mstore\n      0x20\n      add\n      swap1\n      dup2\n      mstore\n      0x20\n      add\n      0x00\n      keccak256\n      0x00\n        /* \"Introdu\\xc3\\xa7\\xc3\\xa3o ao Solidity/ExerciciosDeTeste/Sistema de Recompensa.sol\":381:405  pontos[msg.sender] += 10 */\n      dup3\n      dup3\n      sload\n      tag_46\n      swap2\n      swap1\n      tag_47\n      jump\t// in\n    tag_46:\n      swap3\n      pop\n      pop\n      dup2\n      swap1\n      sstore\n      pop\n        /* \"Introdu\\xc3\\xa7\\xc3\\xa3o ao Solidity/ExerciciosDeTeste/Sistema de Recompensa.sol\":416:430  Listaconcluida */\n      0x02\n        /* \"Introdu\\xc3\\xa7\\xc3\\xa3o ao Solidity/ExerciciosDeTeste/Sistema de Recompensa.sol\":436:447  _nomeTarefa */\n      dup2\n        /* \"Introdu\\xc3\\xa7\\xc3\\xa3o ao Solidity/ExerciciosDeTeste/Sistema de Recompensa.sol\":416:448  Listaconcluida.push(_nomeTarefa) */\n      swap1\n      dup1\n      0x01\n      dup2\n      sload\n      add\n      dup1\n      dup3\n      sstore\n      dup1\n      swap2\n      pop\n      pop\n      0x01\n      swap1\n      sub\n      swap1\n      0x00\n      mstore\n      keccak256(0x00, 0x20)\n      add\n      0x00\n      swap1\n      swap2\n      swap1\n      swap2\n      swap1\n      swap2\n      pop\n      swap1\n      dup2\n      tag_49\n      swap2\n      swap1\n      tag_50\n      jump\t// in\n    tag_49:\n      pop\n        /* \"Introdu\\xc3\\xa7\\xc3\\xa3o ao Solidity/ExerciciosDeTeste/Sistema de Recompensa.sol\":311:456  function TarefaConcluida(string memory _nomeTarefa) public {... */\n      pop\n      jump\t// out\n        /* \"Introdu\\xc3\\xa7\\xc3\\xa3o ao Solidity/ExerciciosDeTeste/Sistema de Recompensa.sol\":567:780  function ResgataRecompensa() payable public {... */\n    tag_27:\n        /* \"Introdu\\xc3\\xa7\\xc3\\xa3o ao Solidity/ExerciciosDeTeste/Sistema de Recompensa.sol\":652:654  50 */\n      0x32\n        /* \"Introdu\\xc3\\xa7\\xc3\\xa3o ao Solidity/ExerciciosDeTeste/Sistema de Recompensa.sol\":630:636  pontos */\n      0x01\n        /* \"Introdu\\xc3\\xa7\\xc3\\xa3o ao Solidity/ExerciciosDeTeste/Sistema de Recompensa.sol\":630:648  pontos[msg.sender] */\n      0x00\n        /* \"Introdu\\xc3\\xa7\\xc3\\xa3o ao Solidity/ExerciciosDeTeste/Sistema de Recompensa.sol\":637:647  msg.sender */\n      caller\n        /* \"Introdu\\xc3\\xa7\\xc3\\xa3o ao Solidity/ExerciciosDeTeste/Sistema de Recompensa.sol\":630:648  pontos[msg.sender] */\n      0xffffffffffffffffffffffffffffffffffffffff\n      and\n      0xffffffffffffffffffffffffffffffffffffffff\n      and\n      dup2\n      mstore\n      0x20\n      add\n      swap1\n      dup2\n      mstore\n      0x20\n      add\n      0x00\n      keccak256\n      sload\n        /* \"Introdu\\xc3\\xa7\\xc3\\xa3o ao Solidity/ExerciciosDeTeste/Sistema de Recompensa.sol\":630:654  pontos[msg.sender] >= 50 */\n      lt\n      iszero\n        /* \"Introdu\\xc3\\xa7\\xc3\\xa3o ao Solidity/ExerciciosDeTeste/Sistema de Recompensa.sol\":622:695  require(pontos[msg.sender] >= 50, \"Voce precisa de pelo menos 50 pontos\") */\n      tag_52\n      jumpi\n      mload(0x40)\n      0x08c379a000000000000000000000000000000000000000000000000000000000\n      dup2\n      mstore\n      0x04\n      add\n      tag_53\n      swap1\n      tag_54\n      jump\t// in\n    tag_53:\n      mload(0x40)\n      dup1\n      swap2\n      sub\n      swap1\n      revert\n    tag_52:\n        /* \"Introdu\\xc3\\xa7\\xc3\\xa3o ao Solidity/ExerciciosDeTeste/Sistema de Recompensa.sol\":728:730  50 */\n      0x32\n        /* \"Introdu\\xc3\\xa7\\xc3\\xa3o ao Solidity/ExerciciosDeTeste/Sistema de Recompensa.sol\":706:712  pontos */\n      0x01\n        /* \"Introdu\\xc3\\xa7\\xc3\\xa3o ao Solidity/ExerciciosDeTeste/Sistema de Recompensa.sol\":706:724  pontos[msg.sender] */\n      0x00\n        /* \"Introdu\\xc3\\xa7\\xc3\\xa3o ao Solidity/ExerciciosDeTeste/Sistema de Recompensa.sol\":713:723  msg.sender */\n      caller\n        /* \"Introdu\\xc3\\xa7\\xc3\\xa3o ao Solidity/ExerciciosDeTeste/Sistema de Recompensa.sol\":706:724  pontos[msg.sender] */\n      0xffffffffffffffffffffffffffffffffffffffff\n      and\n      0xffffffffffffffffffffffffffffffffffffffff\n      and\n      dup2\n      mstore\n      0x20\n      add\n      swap1\n      dup2\n      mstore\n      0x20\n      add\n      0x00\n      keccak256\n      0x00\n        /* \"Introdu\\xc3\\xa7\\xc3\\xa3o ao Solidity/ExerciciosDeTeste/Sistema de Recompensa.sol\":706:730  pontos[msg.sender] -= 50 */\n      dup3\n      dup3\n      sload\n      tag_55\n      swap2\n      swap1\n      tag_56\n      jump\t// in\n    tag_55:\n      swap3\n      pop\n      pop\n      dup2\n      swap1\n      sstore\n      pop\n        /* \"Introdu\\xc3\\xa7\\xc3\\xa3o ao Solidity/ExerciciosDeTeste/Sistema de Recompensa.sol\":765:772  1 ether */\n      0x0de0b6b3a7640000\n        /* \"Introdu\\xc3\\xa7\\xc3\\xa3o ao Solidity/ExerciciosDeTeste/Sistema de Recompensa.sol\":741:749  dinheiro */\n      0x03\n        /* \"Introdu\\xc3\\xa7\\xc3\\xa3o ao Solidity/ExerciciosDeTeste/Sistema de Recompensa.sol\":741:761  dinheiro[msg.sender] */\n      0x00\n        /* \"Introdu\\xc3\\xa7\\xc3\\xa3o ao Solidity/ExerciciosDeTeste/Sistema de Recompensa.sol\":750:760  msg.sender */\n      caller\n        /* \"Introdu\\xc3\\xa7\\xc3\\xa3o ao Solidity/ExerciciosDeTeste/Sistema de Recompensa.sol\":741:761  dinheiro[msg.sender] */\n      0xffffffffffffffffffffffffffffffffffffffff\n      and\n      0xffffffffffffffffffffffffffffffffffffffff\n      and\n      dup2\n      mstore\n      0x20\n      add\n      swap1\n      dup2\n      mstore\n      0x20\n      add\n      0x00\n      keccak256\n      0x00\n        /* \"Introdu\\xc3\\xa7\\xc3\\xa3o ao Solidity/ExerciciosDeTeste/Sistema de Recompensa.sol\":741:772  dinheiro[msg.sender] += 1 ether */\n      dup3\n      dup3\n      sload\n      tag_57\n      swap2\n      swap1\n      tag_47\n      jump\t// in\n    tag_57:\n      swap3\n      pop\n      pop\n      dup2\n      swap1\n      sstore\n      pop\n        /* \"Introdu\\xc3\\xa7\\xc3\\xa3o ao Solidity/ExerciciosDeTeste/Sistema de Recompensa.sol\":567:780  function ResgataRecompensa() payable public {... */\n      jump\t// out\n        /* \"Introdu\\xc3\\xa7\\xc3\\xa3o ao Solidity/ExerciciosDeTeste/Sistema de Recompensa.sol\":462:561  function TotalTarefa() public view returns (uint) {... */\n    tag_30:\n        /* \"Introdu\\xc3\\xa7\\xc3\\xa3o ao Solidity/ExerciciosDeTeste/Sistema de Recompensa.sol\":506:510  uint */\n      0x00\n        /* \"Introdu\\xc3\\xa7\\xc3\\xa3o ao Solidity/ExerciciosDeTeste/Sistema de Recompensa.sol\":531:545  Listaconcluida */\n      0x02\n        /* \"Introdu\\xc3\\xa7\\xc3\\xa3o ao Solidity/ExerciciosDeTeste/Sistema de Recompensa.sol\":531:552  Listaconcluida.length */\n      dup1\n      sload\n      swap1\n      pop\n        /* \"Introdu\\xc3\\xa7\\xc3\\xa3o ao Solidity/ExerciciosDeTeste/Sistema de Recompensa.sol\":523:553  return (Listaconcluida.length) */\n      swap1\n      pop\n        /* \"Introdu\\xc3\\xa7\\xc3\\xa3o ao Solidity/ExerciciosDeTeste/Sistema de Recompensa.sol\":462:561  function TotalTarefa() public view returns (uint) {... */\n      swap1\n      jump\t// out\n        /* \"Introdu\\xc3\\xa7\\xc3\\xa3o ao Solidity/ExerciciosDeTeste/Sistema de Recompensa.sol\":100:120  address public Owner */\n    tag_34:\n      0x00\n      0x00\n      swap1\n      sload\n      swap1\n      0x0100\n      exp\n      swap1\n      div\n      0xffffffffffffffffffffffffffffffffffffffff\n      and\n      dup2\n      jump\t// out\n        /* \"Introdu\\xc3\\xa7\\xc3\\xa3o ao Solidity/ExerciciosDeTeste/Sistema de Recompensa.sol\":173:203  string[] public Listaconcluida */\n    tag_41:\n      0x02\n      dup2\n      dup2\n      sload\n      dup2\n      lt\n      tag_59\n      jumpi\n      0x00\n      dup1\n      revert\n    tag_59:\n      swap1\n      0x00\n      mstore\n      keccak256(0x00, 0x20)\n      add\n      0x00\n      swap2\n      pop\n      swap1\n      pop\n      dup1\n      sload\n      tag_61\n      swap1\n      tag_62\n      jump\t// in\n    tag_61:\n      dup1\n      0x1f\n      add\n      0x20\n      dup1\n      swap2\n      div\n      mul\n      0x20\n      add\n      mload(0x40)\n      swap1\n      dup2\n      add\n      0x40\n      mstore\n      dup1\n      swap3\n      swap2\n      swap1\n      dup2\n      dup2\n      mstore\n      0x20\n      add\n      dup3\n      dup1\n      sload\n      tag_63\n      swap1\n      tag_62\n      jump\t// in\n    tag_63:\n      dup1\n      iszero\n      tag_64\n      jumpi\n      dup1\n      0x1f\n      lt\n      tag_65\n      jumpi\n      0x0100\n      dup1\n      dup4\n      sload\n      div\n      mul\n      dup4\n      mstore\n      swap2\n      0x20\n      add\n      swap2\n      jump(tag_64)\n    tag_65:\n      dup3\n      add\n      swap2\n      swap1\n      0x00\n      mstore\n      keccak256(0x00, 0x20)\n      swap1\n    tag_66:\n      dup2\n      sload\n      dup2\n      mstore\n      swap1\n      0x01\n      add\n      swap1\n      0x20\n      add\n      dup1\n      dup4\n      gt\n      tag_66\n      jumpi\n      dup3\n      swap1\n      sub\n      0x1f\n      and\n      dup3\n      add\n      swap2\n    tag_64:\n      pop\n      pop\n      pop\n      pop\n      pop\n      dup2\n      jump\t// out\n        /* \"#utility.yul\":7:82   */\n    tag_67:\n        /* \"#utility.yul\":40:46   */\n      0x00\n        /* \"#utility.yul\":73:75   */\n      0x40\n        /* \"#utility.yul\":67:76   */\n      mload\n        /* \"#utility.yul\":57:76   */\n      swap1\n      pop\n        /* \"#utility.yul\":7:82   */\n      swap1\n      jump\t// out\n        /* \"#utility.yul\":88:205   */\n    tag_68:\n        /* \"#utility.yul\":197:198   */\n      0x00\n        /* \"#utility.yul\":194:195   */\n      0x00\n        /* \"#utility.yul\":187:199   */\n      revert\n        /* \"#utility.yul\":211:328   */\n    tag_69:\n        /* \"#utility.yul\":320:321   */\n      0x00\n        /* \"#utility.yul\":317:318   */\n      0x00\n        /* \"#utility.yul\":310:322   */\n      revert\n        /* \"#utility.yul\":334:460   */\n    tag_70:\n        /* \"#utility.yul\":371:378   */\n      0x00\n        /* \"#utility.yul\":411:453   */\n      0xffffffffffffffffffffffffffffffffffffffff\n        /* \"#utility.yul\":404:409   */\n      dup3\n        /* \"#utility.yul\":400:454   */\n      and\n        /* \"#utility.yul\":389:454   */\n      swap1\n      pop\n        /* \"#utility.yul\":334:460   */\n      swap2\n      swap1\n      pop\n      jump\t// out\n        /* \"#utility.yul\":466:562   */\n    tag_71:\n        /* \"#utility.yul\":503:510   */\n      0x00\n        /* \"#utility.yul\":532:556   */\n      tag_118\n        /* \"#utility.yul\":550:555   */\n      dup3\n        /* \"#utility.yul\":532:556   */\n      tag_70\n      jump\t// in\n    tag_118:\n        /* \"#utility.yul\":521:556   */\n      swap1\n      pop\n        /* \"#utility.yul\":466:562   */\n      swap2\n      swap1\n      pop\n      jump\t// out\n        /* \"#utility.yul\":568:690   */\n    tag_72:\n        /* \"#utility.yul\":641:665   */\n      tag_120\n        /* \"#utility.yul\":659:664   */\n      dup2\n        /* \"#utility.yul\":641:665   */\n      tag_71\n      jump\t// in\n    tag_120:\n        /* \"#utility.yul\":634:639   */\n      dup2\n        /* \"#utility.yul\":631:666   */\n      eq\n        /* \"#utility.yul\":621:684   */\n      tag_121\n      jumpi\n        /* \"#utility.yul\":680:681   */\n      0x00\n        /* \"#utility.yul\":677:678   */\n      0x00\n        /* \"#utility.yul\":670:682   */\n      revert\n        /* \"#utility.yul\":621:684   */\n    tag_121:\n        /* \"#utility.yul\":568:690   */\n      pop\n      jump\t// out\n        /* \"#utility.yul\":696:835   */\n    tag_73:\n        /* \"#utility.yul\":742:747   */\n      0x00\n        /* \"#utility.yul\":780:786   */\n      dup2\n        /* \"#utility.yul\":767:787   */\n      calldataload\n        /* \"#utility.yul\":758:787   */\n      swap1\n      pop\n        /* \"#utility.yul\":796:829   */\n      tag_123\n        /* \"#utility.yul\":823:828   */\n      dup2\n        /* \"#utility.yul\":796:829   */\n      tag_72\n      jump\t// in\n    tag_123:\n        /* \"#utility.yul\":696:835   */\n      swap3\n      swap2\n      pop\n      pop\n      jump\t// out\n        /* \"#utility.yul\":841:1170   */\n    tag_13:\n        /* \"#utility.yul\":900:906   */\n      0x00\n        /* \"#utility.yul\":949:951   */\n      0x20\n        /* \"#utility.yul\":937:946   */\n      dup3\n        /* \"#utility.yul\":928:935   */\n      dup5\n        /* \"#utility.yul\":924:947   */\n      sub\n        /* \"#utility.yul\":920:952   */\n      slt\n        /* \"#utility.yul\":917:1036   */\n      iszero\n      tag_125\n      jumpi\n        /* \"#utility.yul\":955:1034   */\n      tag_126\n      tag_68\n      jump\t// in\n    tag_126:\n        /* \"#utility.yul\":917:1036   */\n    tag_125:\n        /* \"#utility.yul\":1075:1076   */\n      0x00\n        /* \"#utility.yul\":1100:1153   */\n      tag_127\n        /* \"#utility.yul\":1145:1152   */\n      dup5\n        /* \"#utility.yul\":1136:1142   */\n      dup3\n        /* \"#utility.yul\":1125:1134   */\n      dup6\n        /* \"#utility.yul\":1121:1143   */\n      add\n        /* \"#utility.yul\":1100:1153   */\n      tag_73\n      jump\t// in\n    tag_127:\n        /* \"#utility.yul\":1090:1153   */\n      swap2\n      pop\n        /* \"#utility.yul\":1046:1163   */\n      pop\n        /* \"#utility.yul\":841:1170   */\n      swap3\n      swap2\n      pop\n      pop\n      jump\t// out\n        /* \"#utility.yul\":1176:1253   */\n    tag_74:\n        /* \"#utility.yul\":1213:1220   */\n      0x00\n        /* \"#utility.yul\":1242:1247   */\n      dup2\n        /* \"#utility.yul\":1231:1247   */\n      swap1\n      pop\n        /* \"#utility.yul\":1176:1253   */\n      swap2\n      swap1\n      pop\n      jump\t// out\n        /* \"#utility.yul\":1259:1377   */\n    tag_75:\n        /* \"#utility.yul\":1346:1370   */\n      tag_130\n        /* \"#utility.yul\":1364:1369   */\n      dup2\n        /* \"#utility.yul\":1346:1370   */\n      tag_74\n      jump\t// in\n    tag_130:\n        /* \"#utility.yul\":1341:1344   */\n      dup3\n        /* \"#utility.yul\":1334:1371   */\n      mstore\n        /* \"#utility.yul\":1259:1377   */\n      pop\n      pop\n      jump\t// out\n        /* \"#utility.yul\":1383:1605   */\n    tag_16:\n        /* \"#utility.yul\":1476:1480   */\n      0x00\n        /* \"#utility.yul\":1514:1516   */\n      0x20\n        /* \"#utility.yul\":1503:1512   */\n      dup3\n        /* \"#utility.yul\":1499:1517   */\n      add\n        /* \"#utility.yul\":1491:1517   */\n      swap1\n      pop\n        /* \"#utility.yul\":1527:1598   */\n      tag_132\n        /* \"#utility.yul\":1595:1596   */\n      0x00\n        /* \"#utility.yul\":1584:1593   */\n      dup4\n        /* \"#utility.yul\":1580:1597   */\n      add\n        /* \"#utility.yul\":1571:1577   */\n      dup5\n        /* \"#utility.yul\":1527:1598   */\n      tag_75\n      jump\t// in\n    tag_132:\n        /* \"#utility.yul\":1383:1605   */\n      swap3\n      swap2\n      pop\n      pop\n      jump\t// out\n        /* \"#utility.yul\":1611:1728   */\n    tag_76:\n        /* \"#utility.yul\":1720:1721   */\n      0x00\n        /* \"#utility.yul\":1717:1718   */\n      0x00\n        /* \"#utility.yul\":1710:1722   */\n      revert\n        /* \"#utility.yul\":1734:1851   */\n    tag_77:\n        /* \"#utility.yul\":1843:1844   */\n      0x00\n        /* \"#utility.yul\":1840:1841   */\n      0x00\n        /* \"#utility.yul\":1833:1845   */\n      revert\n        /* \"#utility.yul\":1857:1959   */\n    tag_78:\n        /* \"#utility.yul\":1898:1904   */\n      0x00\n        /* \"#utility.yul\":1949:1951   */\n      0x1f\n        /* \"#utility.yul\":1945:1952   */\n      not\n        /* \"#utility.yul\":1940:1942   */\n      0x1f\n        /* \"#utility.yul\":1933:1938   */\n      dup4\n        /* \"#utility.yul\":1929:1943   */\n      add\n        /* \"#utility.yul\":1925:1953   */\n      and\n        /* \"#utility.yul\":1915:1953   */\n      swap1\n      pop\n        /* \"#utility.yul\":1857:1959   */\n      swap2\n      swap1\n      pop\n      jump\t// out\n        /* \"#utility.yul\":1965:2145   */\n    tag_79:\n        /* \"#utility.yul\":2013:2090   */\n      0x4e487b7100000000000000000000000000000000000000000000000000000000\n        /* \"#utility.yul\":2010:2011   */\n      0x00\n        /* \"#utility.yul\":2003:2091   */\n      mstore\n        /* \"#utility.yul\":2110:2114   */\n      0x41\n        /* \"#utility.yul\":2107:2108   */\n      0x04\n        /* \"#utility.yul\":2100:2115   */\n      mstore\n        /* \"#utility.yul\":2134:2138   */\n      0x24\n        /* \"#utility.yul\":2131:2132   */\n      0x00\n        /* \"#utility.yul\":2124:2139   */\n      revert\n        /* \"#utility.yul\":2151:2432   */\n    tag_80:\n        /* \"#utility.yul\":2234:2261   */\n      tag_138\n        /* \"#utility.yul\":2256:2260   */\n      dup3\n        /* \"#utility.yul\":2234:2261   */\n      tag_78\n      jump\t// in\n    tag_138:\n        /* \"#utility.yul\":2226:2232   */\n      dup2\n        /* \"#utility.yul\":2222:2262   */\n      add\n        /* \"#utility.yul\":2364:2370   */\n      dup2\n        /* \"#utility.yul\":2352:2362   */\n      dup2\n        /* \"#utility.yul\":2349:2371   */\n      lt\n        /* \"#utility.yul\":2328:2346   */\n      0xffffffffffffffff\n        /* \"#utility.yul\":2316:2326   */\n      dup3\n        /* \"#utility.yul\":2313:2347   */\n      gt\n        /* \"#utility.yul\":2310:2372   */\n      or\n        /* \"#utility.yul\":2307:2395   */\n      iszero\n      tag_139\n      jumpi\n        /* \"#utility.yul\":2375:2393   */\n      tag_140\n      tag_79\n      jump\t// in\n    tag_140:\n        /* \"#utility.yul\":2307:2395   */\n    tag_139:\n        /* \"#utility.yul\":2415:2425   */\n      dup1\n        /* \"#utility.yul\":2411:2413   */\n      0x40\n        /* \"#utility.yul\":2404:2426   */\n      mstore\n        /* \"#utility.yul\":2194:2432   */\n      pop\n        /* \"#utility.yul\":2151:2432   */\n      pop\n      pop\n      jump\t// out\n        /* \"#utility.yul\":2438:2567   */\n    tag_81:\n        /* \"#utility.yul\":2472:2478   */\n      0x00\n        /* \"#utility.yul\":2499:2519   */\n      tag_142\n      tag_67\n      jump\t// in\n    tag_142:\n        /* \"#utility.yul\":2489:2519   */\n      swap1\n      pop\n        /* \"#utility.yul\":2528:2561   */\n      tag_143\n        /* \"#utility.yul\":2556:2560   */\n      dup3\n        /* \"#utility.yul\":2548:2554   */\n      dup3\n        /* \"#utility.yul\":2528:2561   */\n      tag_80\n      jump\t// in\n    tag_143:\n        /* \"#utility.yul\":2438:2567   */\n      swap2\n      swap1\n      pop\n      jump\t// out\n        /* \"#utility.yul\":2573:2881   */\n    tag_82:\n        /* \"#utility.yul\":2635:2639   */\n      0x00\n        /* \"#utility.yul\":2725:2743   */\n      0xffffffffffffffff\n        /* \"#utility.yul\":2717:2723   */\n      dup3\n        /* \"#utility.yul\":2714:2744   */\n      gt\n        /* \"#utility.yul\":2711:2767   */\n      iszero\n      tag_145\n      jumpi\n        /* \"#utility.yul\":2747:2765   */\n      tag_146\n      tag_79\n      jump\t// in\n    tag_146:\n        /* \"#utility.yul\":2711:2767   */\n    tag_145:\n        /* \"#utility.yul\":2785:2814   */\n      tag_147\n        /* \"#utility.yul\":2807:2813   */\n      dup3\n        /* \"#utility.yul\":2785:2814   */\n      tag_78\n      jump\t// in\n    tag_147:\n        /* \"#utility.yul\":2777:2814   */\n      swap1\n      pop\n        /* \"#utility.yul\":2869:2873   */\n      0x20\n        /* \"#utility.yul\":2863:2867   */\n      dup2\n        /* \"#utility.yul\":2859:2874   */\n      add\n        /* \"#utility.yul\":2851:2874   */\n      swap1\n      pop\n        /* \"#utility.yul\":2573:2881   */\n      swap2\n      swap1\n      pop\n      jump\t// out\n        /* \"#utility.yul\":2887:3035   */\n    tag_83:\n        /* \"#utility.yul\":2985:2991   */\n      dup3\n        /* \"#utility.yul\":2980:2983   */\n      dup2\n        /* \"#utility.yul\":2975:2978   */\n      dup4\n        /* \"#utility.yul\":2962:2992   */\n      calldatacopy\n        /* \"#utility.yul\":3026:3027   */\n      0x00\n        /* \"#utility.yul\":3017:3023   */\n      dup4\n        /* \"#utility.yul\":3012:3015   */\n      dup4\n        /* \"#utility.yul\":3008:3024   */\n      add\n        /* \"#utility.yul\":3001:3028   */\n      mstore\n        /* \"#utility.yul\":2887:3035   */\n      pop\n      pop\n      pop\n      jump\t// out\n        /* \"#utility.yul\":3041:3466   */\n    tag_84:\n        /* \"#utility.yul\":3119:3124   */\n      0x00\n        /* \"#utility.yul\":3144:3210   */\n      tag_150\n        /* \"#utility.yul\":3160:3209   */\n      tag_151\n        /* \"#utility.yul\":3202:3208   */\n      dup5\n        /* \"#utility.yul\":3160:3209   */\n      tag_82\n      jump\t// in\n    tag_151:\n        /* \"#utility.yul\":3144:3210   */\n      tag_81\n      jump\t// in\n    tag_150:\n        /* \"#utility.yul\":3135:3210   */\n      swap1\n      pop\n        /* \"#utility.yul\":3233:3239   */\n      dup3\n        /* \"#utility.yul\":3226:3231   */\n      dup2\n        /* \"#utility.yul\":3219:3240   */\n      mstore\n        /* \"#utility.yul\":3271:3275   */\n      0x20\n        /* \"#utility.yul\":3264:3269   */\n      dup2\n        /* \"#utility.yul\":3260:3276   */\n      add\n        /* \"#utility.yul\":3309:3312   */\n      dup5\n        /* \"#utility.yul\":3300:3306   */\n      dup5\n        /* \"#utility.yul\":3295:3298   */\n      dup5\n        /* \"#utility.yul\":3291:3307   */\n      add\n        /* \"#utility.yul\":3288:3313   */\n      gt\n        /* \"#utility.yul\":3285:3397   */\n      iszero\n      tag_152\n      jumpi\n        /* \"#utility.yul\":3316:3395   */\n      tag_153\n      tag_77\n      jump\t// in\n    tag_153:\n        /* \"#utility.yul\":3285:3397   */\n    tag_152:\n        /* \"#utility.yul\":3406:3460   */\n      tag_154\n        /* \"#utility.yul\":3453:3459   */\n      dup5\n        /* \"#utility.yul\":3448:3451   */\n      dup3\n        /* \"#utility.yul\":3443:3446   */\n      dup6\n        /* \"#utility.yul\":3406:3460   */\n      tag_83\n      jump\t// in\n    tag_154:\n        /* \"#utility.yul\":3125:3466   */\n      pop\n        /* \"#utility.yul\":3041:3466   */\n      swap4\n      swap3\n      pop\n      pop\n      pop\n      jump\t// out\n        /* \"#utility.yul\":3486:3826   */\n    tag_85:\n        /* \"#utility.yul\":3542:3547   */\n      0x00\n        /* \"#utility.yul\":3591:3594   */\n      dup3\n        /* \"#utility.yul\":3584:3588   */\n      0x1f\n        /* \"#utility.yul\":3576:3582   */\n      dup4\n        /* \"#utility.yul\":3572:3589   */\n      add\n        /* \"#utility.yul\":3568:3595   */\n      slt\n        /* \"#utility.yul\":3558:3680   */\n      tag_156\n      jumpi\n        /* \"#utility.yul\":3599:3678   */\n      tag_157\n      tag_76\n      jump\t// in\n    tag_157:\n        /* \"#utility.yul\":3558:3680   */\n    tag_156:\n        /* \"#utility.yul\":3716:3722   */\n      dup2\n        /* \"#utility.yul\":3703:3723   */\n      calldataload\n        /* \"#utility.yul\":3741:3820   */\n      tag_158\n        /* \"#utility.yul\":3816:3819   */\n      dup5\n        /* \"#utility.yul\":3808:3814   */\n      dup3\n        /* \"#utility.yul\":3801:3805   */\n      0x20\n        /* \"#utility.yul\":3793:3799   */\n      dup7\n        /* \"#utility.yul\":3789:3806   */\n      add\n        /* \"#utility.yul\":3741:3820   */\n      tag_84\n      jump\t// in\n    tag_158:\n        /* \"#utility.yul\":3732:3820   */\n      swap2\n      pop\n        /* \"#utility.yul\":3548:3826   */\n      pop\n        /* \"#utility.yul\":3486:3826   */\n      swap3\n      swap2\n      pop\n      pop\n      jump\t// out\n        /* \"#utility.yul\":3832:4341   */\n    tag_24:\n        /* \"#utility.yul\":3901:3907   */\n      0x00\n        /* \"#utility.yul\":3950:3952   */\n      0x20\n        /* \"#utility.yul\":3938:3947   */\n      dup3\n        /* \"#utility.yul\":3929:3936   */\n      dup5\n        /* \"#utility.yul\":3925:3948   */\n      sub\n        /* \"#utility.yul\":3921:3953   */\n      slt\n        /* \"#utility.yul\":3918:4037   */\n      iszero\n      tag_160\n      jumpi\n        /* \"#utility.yul\":3956:4035   */\n      tag_161\n      tag_68\n      jump\t// in\n    tag_161:\n        /* \"#utility.yul\":3918:4037   */\n    tag_160:\n        /* \"#utility.yul\":4104:4105   */\n      0x00\n        /* \"#utility.yul\":4093:4102   */\n      dup3\n        /* \"#utility.yul\":4089:4106   */\n      add\n        /* \"#utility.yul\":4076:4107   */\n      calldataload\n        /* \"#utility.yul\":4134:4152   */\n      0xffffffffffffffff\n        /* \"#utility.yul\":4126:4132   */\n      dup2\n        /* \"#utility.yul\":4123:4153   */\n      gt\n        /* \"#utility.yul\":4120:4237   */\n      iszero\n      tag_162\n      jumpi\n        /* \"#utility.yul\":4156:4235   */\n      tag_163\n      tag_69\n      jump\t// in\n    tag_163:\n        /* \"#utility.yul\":4120:4237   */\n    tag_162:\n        /* \"#utility.yul\":4261:4324   */\n      tag_164\n        /* \"#utility.yul\":4316:4323   */\n      dup5\n        /* \"#utility.yul\":4307:4313   */\n      dup3\n        /* \"#utility.yul\":4296:4305   */\n      dup6\n        /* \"#utility.yul\":4292:4314   */\n      add\n        /* \"#utility.yul\":4261:4324   */\n      tag_85\n      jump\t// in\n    tag_164:\n        /* \"#utility.yul\":4251:4324   */\n      swap2\n      pop\n        /* \"#utility.yul\":4047:4334   */\n      pop\n        /* \"#utility.yul\":3832:4341   */\n      swap3\n      swap2\n      pop\n      pop\n      jump\t// out\n        /* \"#utility.yul\":4347:4465   */\n    tag_86:\n        /* \"#utility.yul\":4434:4458   */\n      tag_166\n        /* \"#utility.yul\":4452:4457   */\n      dup2\n        /* \"#utility.yul\":4434:4458   */\n      tag_71\n      jump\t// in\n    tag_166:\n        /* \"#utility.yul\":4429:4432   */\n      dup3\n        /* \"#utility.yul\":4422:4459   */\n      mstore\n        /* \"#utility.yul\":4347:4465   */\n      pop\n      pop\n      jump\t// out\n        /* \"#utility.yul\":4471:4693   */\n    tag_36:\n        /* \"#utility.yul\":4564:4568   */\n      0x00\n        /* \"#utility.yul\":4602:4604   */\n      0x20\n        /* \"#utility.yul\":4591:4600   */\n      dup3\n        /* \"#utility.yul\":4587:4605   */\n      add\n        /* \"#utility.yul\":4579:4605   */\n      swap1\n      pop\n        /* \"#utility.yul\":4615:4686   */\n      tag_168\n        /* \"#utility.yul\":4683:4684   */\n      0x00\n        /* \"#utility.yul\":4672:4681   */\n      dup4\n        /* \"#utility.yul\":4668:4685   */\n      add\n        /* \"#utility.yul\":4659:4665   */\n      dup5\n        /* \"#utility.yul\":4615:4686   */\n      tag_86\n      jump\t// in\n    tag_168:\n        /* \"#utility.yul\":4471:4693   */\n      swap3\n      swap2\n      pop\n      pop\n      jump\t// out\n        /* \"#utility.yul\":4699:4821   */\n    tag_87:\n        /* \"#utility.yul\":4772:4796   */\n      tag_170\n        /* \"#utility.yul\":4790:4795   */\n      dup2\n        /* \"#utility.yul\":4772:4796   */\n      tag_74\n      jump\t// in\n    tag_170:\n        /* \"#utility.yul\":4765:4770   */\n      dup2\n        /* \"#utility.yul\":4762:4797   */\n      eq\n        /* \"#utility.yul\":4752:4815   */\n      tag_171\n      jumpi\n        /* \"#utility.yul\":4811:4812   */\n      0x00\n        /* \"#utility.yul\":4808:4809   */\n      0x00\n        /* \"#utility.yul\":4801:4813   */\n      revert\n        /* \"#utility.yul\":4752:4815   */\n    tag_171:\n        /* \"#utility.yul\":4699:4821   */\n      pop\n      jump\t// out\n        /* \"#utility.yul\":4827:4966   */\n    tag_88:\n        /* \"#utility.yul\":4873:4878   */\n      0x00\n        /* \"#utility.yul\":4911:4917   */\n      dup2\n        /* \"#utility.yul\":4898:4918   */\n      calldataload\n        /* \"#utility.yul\":4889:4918   */\n      swap1\n      pop\n        /* \"#utility.yul\":4927:4960   */\n      tag_173\n        /* \"#utility.yul\":4954:4959   */\n      dup2\n        /* \"#utility.yul\":4927:4960   */\n      tag_87\n      jump\t// in\n    tag_173:\n        /* \"#utility.yul\":4827:4966   */\n      swap3\n      swap2\n      pop\n      pop\n      jump\t// out\n        /* \"#utility.yul\":4972:5301   */\n    tag_40:\n        /* \"#utility.yul\":5031:5037   */\n      0x00\n        /* \"#utility.yul\":5080:5082   */\n      0x20\n        /* \"#utility.yul\":5068:5077   */\n      dup3\n        /* \"#utility.yul\":5059:5066   */\n      dup5\n        /* \"#utility.yul\":5055:5078   */\n      sub\n        /* \"#utility.yul\":5051:5083   */\n      slt\n        /* \"#utility.yul\":5048:5167   */\n      iszero\n      tag_175\n      jumpi\n        /* \"#utility.yul\":5086:5165   */\n      tag_176\n      tag_68\n      jump\t// in\n    tag_176:\n        /* \"#utility.yul\":5048:5167   */\n    tag_175:\n        /* \"#utility.yul\":5206:5207   */\n      0x00\n        /* \"#utility.yul\":5231:5284   */\n      tag_177\n        /* \"#utility.yul\":5276:5283   */\n      dup5\n        /* \"#utility.yul\":5267:5273   */\n      dup3\n        /* \"#utility.yul\":5256:5265   */\n      dup6\n        /* \"#utility.yul\":5252:5274   */\n      add\n        /* \"#utility.yul\":5231:5284   */\n      tag_88\n      jump\t// in\n    tag_177:\n        /* \"#utility.yul\":5221:5284   */\n      swap2\n      pop\n        /* \"#utility.yul\":5177:5294   */\n      pop\n        /* \"#utility.yul\":4972:5301   */\n      swap3\n      swap2\n      pop\n      pop\n      jump\t// out\n        /* \"#utility.yul\":5307:5406   */\n    tag_89:\n        /* \"#utility.yul\":5359:5365   */\n      0x00\n        /* \"#utility.yul\":5393:5398   */\n      dup2\n        /* \"#utility.yul\":5387:5399   */\n      mload\n        /* \"#utility.yul\":5377:5399   */\n      swap1\n      pop\n        /* \"#utility.yul\":5307:5406   */\n      swap2\n      swap1\n      pop\n      jump\t// out\n        /* \"#utility.yul\":5412:5581   */\n    tag_90:\n        /* \"#utility.yul\":5496:5507   */\n      0x00\n        /* \"#utility.yul\":5530:5536   */\n      dup3\n        /* \"#utility.yul\":5525:5528   */\n      dup3\n        /* \"#utility.yul\":5518:5537   */\n      mstore\n        /* \"#utility.yul\":5570:5574   */\n      0x20\n        /* \"#utility.yul\":5565:5568   */\n      dup3\n        /* \"#utility.yul\":5561:5575   */\n      add\n        /* \"#utility.yul\":5546:5575   */\n      swap1\n      pop\n        /* \"#utility.yul\":5412:5581   */\n      swap3\n      swap2\n      pop\n      pop\n      jump\t// out\n        /* \"#utility.yul\":5587:5726   */\n    tag_91:\n        /* \"#utility.yul\":5676:5682   */\n      dup3\n        /* \"#utility.yul\":5671:5674   */\n      dup2\n        /* \"#utility.yul\":5666:5669   */\n      dup4\n        /* \"#utility.yul\":5660:5683   */\n      mcopy\n        /* \"#utility.yul\":5717:5718   */\n      0x00\n        /* \"#utility.yul\":5708:5714   */\n      dup4\n        /* \"#utility.yul\":5703:5706   */\n      dup4\n        /* \"#utility.yul\":5699:5715   */\n      add\n        /* \"#utility.yul\":5692:5719   */\n      mstore\n        /* \"#utility.yul\":5587:5726   */\n      pop\n      pop\n      pop\n      jump\t// out\n        /* \"#utility.yul\":5732:6109   */\n    tag_92:\n        /* \"#utility.yul\":5820:5823   */\n      0x00\n        /* \"#utility.yul\":5848:5887   */\n      tag_182\n        /* \"#utility.yul\":5881:5886   */\n      dup3\n        /* \"#utility.yul\":5848:5887   */\n      tag_89\n      jump\t// in\n    tag_182:\n        /* \"#utility.yul\":5903:5974   */\n      tag_183\n        /* \"#utility.yul\":5967:5973   */\n      dup2\n        /* \"#utility.yul\":5962:5965   */\n      dup6\n        /* \"#utility.yul\":5903:5974   */\n      tag_90\n      jump\t// in\n    tag_183:\n        /* \"#utility.yul\":5896:5974   */\n      swap4\n      pop\n        /* \"#utility.yul\":5983:6048   */\n      tag_184\n        /* \"#utility.yul\":6041:6047   */\n      dup2\n        /* \"#utility.yul\":6036:6039   */\n      dup6\n        /* \"#utility.yul\":6029:6033   */\n      0x20\n        /* \"#utility.yul\":6022:6027   */\n      dup7\n        /* \"#utility.yul\":6018:6034   */\n      add\n        /* \"#utility.yul\":5983:6048   */\n      tag_91\n      jump\t// in\n    tag_184:\n        /* \"#utility.yul\":6073:6102   */\n      tag_185\n        /* \"#utility.yul\":6095:6101   */\n      dup2\n        /* \"#utility.yul\":6073:6102   */\n      tag_78\n      jump\t// in\n    tag_185:\n        /* \"#utility.yul\":6068:6071   */\n      dup5\n        /* \"#utility.yul\":6064:6103   */\n      add\n        /* \"#utility.yul\":6057:6103   */\n      swap2\n      pop\n        /* \"#utility.yul\":5824:6109   */\n      pop\n        /* \"#utility.yul\":5732:6109   */\n      swap3\n      swap2\n      pop\n      pop\n      jump\t// out\n        /* \"#utility.yul\":6115:6428   */\n    tag_43:\n        /* \"#utility.yul\":6228:6232   */\n      0x00\n        /* \"#utility.yul\":6266:6268   */\n      0x20\n        /* \"#utility.yul\":6255:6264   */\n      dup3\n        /* \"#utility.yul\":6251:6269   */\n      add\n        /* \"#utility.yul\":6243:6269   */\n      swap1\n      pop\n        /* \"#utility.yul\":6315:6324   */\n      dup2\n        /* \"#utility.yul\":6309:6313   */\n      dup2\n        /* \"#utility.yul\":6305:6325   */\n      sub\n        /* \"#utility.yul\":6301:6302   */\n      0x00\n        /* \"#utility.yul\":6290:6299   */\n      dup4\n        /* \"#utility.yul\":6286:6303   */\n      add\n        /* \"#utility.yul\":6279:6326   */\n      mstore\n        /* \"#utility.yul\":6343:6421   */\n      tag_187\n        /* \"#utility.yul\":6416:6420   */\n      dup2\n        /* \"#utility.yul\":6407:6413   */\n      dup5\n        /* \"#utility.yul\":6343:6421   */\n      tag_92\n      jump\t// in\n    tag_187:\n        /* \"#utility.yul\":6335:6421   */\n      swap1\n      pop\n        /* \"#utility.yul\":6115:6428   */\n      swap3\n      swap2\n      pop\n      pop\n      jump\t// out\n        /* \"#utility.yul\":6434:6614   */\n    tag_93:\n        /* \"#utility.yul\":6482:6559   */\n      0x4e487b7100000000000000000000000000000000000000000000000000000000\n        /* \"#utility.yul\":6479:6480   */\n      0x00\n        /* \"#utility.yul\":6472:6560   */\n      mstore\n        /* \"#utility.yul\":6579:6583   */\n      0x11\n        /* \"#utility.yul\":6576:6577   */\n      0x04\n        /* \"#utility.yul\":6569:6584   */\n      mstore\n        /* \"#utility.yul\":6603:6607   */\n      0x24\n        /* \"#utility.yul\":6600:6601   */\n      0x00\n        /* \"#utility.yul\":6593:6608   */\n      revert\n        /* \"#utility.yul\":6620:6811   */\n    tag_47:\n        /* \"#utility.yul\":6660:6663   */\n      0x00\n        /* \"#utility.yul\":6679:6699   */\n      tag_190\n        /* \"#utility.yul\":6697:6698   */\n      dup3\n        /* \"#utility.yul\":6679:6699   */\n      tag_74\n      jump\t// in\n    tag_190:\n        /* \"#utility.yul\":6674:6699   */\n      swap2\n      pop\n        /* \"#utility.yul\":6713:6733   */\n      tag_191\n        /* \"#utility.yul\":6731:6732   */\n      dup4\n        /* \"#utility.yul\":6713:6733   */\n      tag_74\n      jump\t// in\n    tag_191:\n        /* \"#utility.yul\":6708:6733   */\n      swap3\n      pop\n        /* \"#utility.yul\":6756:6757   */\n      dup3\n        /* \"#utility.yul\":6753:6754   */\n      dup3\n        /* \"#utility.yul\":6749:6758   */\n      add\n        /* \"#utility.yul\":6742:6758   */\n      swap1\n      pop\n        /* \"#utility.yul\":6777:6780   */\n      dup1\n        /* \"#utility.yul\":6774:6775   */\n      dup3\n        /* \"#utility.yul\":6771:6781   */\n      gt\n        /* \"#utility.yul\":6768:6804   */\n      iszero\n      tag_192\n      jumpi\n        /* \"#utility.yul\":6784:6802   */\n      tag_193\n      tag_93\n      jump\t// in\n    tag_193:\n        /* \"#utility.yul\":6768:6804   */\n    tag_192:\n        /* \"#utility.yul\":6620:6811   */\n      swap3\n      swap2\n      pop\n      pop\n      jump\t// out\n        /* \"#utility.yul\":6817:6997   */\n    tag_94:\n        /* \"#utility.yul\":6865:6942   */\n      0x4e487b7100000000000000000000000000000000000000000000000000000000\n        /* \"#utility.yul\":6862:6863   */\n      0x00\n        /* \"#utility.yul\":6855:6943   */\n      mstore\n        /* \"#utility.yul\":6962:6966   */\n      0x22\n        /* \"#utility.yul\":6959:6960   */\n      0x04\n        /* \"#utility.yul\":6952:6967   */\n      mstore\n        /* \"#utility.yul\":6986:6990   */\n      0x24\n        /* \"#utility.yul\":6983:6984   */\n      0x00\n        /* \"#utility.yul\":6976:6991   */\n      revert\n        /* \"#utility.yul\":7003:7323   */\n    tag_62:\n        /* \"#utility.yul\":7047:7053   */\n      0x00\n        /* \"#utility.yul\":7084:7085   */\n      0x02\n        /* \"#utility.yul\":7078:7082   */\n      dup3\n        /* \"#utility.yul\":7074:7086   */\n      div\n        /* \"#utility.yul\":7064:7086   */\n      swap1\n      pop\n        /* \"#utility.yul\":7131:7132   */\n      0x01\n        /* \"#utility.yul\":7125:7129   */\n      dup3\n        /* \"#utility.yul\":7121:7133   */\n      and\n        /* \"#utility.yul\":7152:7170   */\n      dup1\n        /* \"#utility.yul\":7142:7223   */\n      tag_196\n      jumpi\n        /* \"#utility.yul\":7208:7212   */\n      0x7f\n        /* \"#utility.yul\":7200:7206   */\n      dup3\n        /* \"#utility.yul\":7196:7213   */\n      and\n        /* \"#utility.yul\":7186:7213   */\n      swap2\n      pop\n        /* \"#utility.yul\":7142:7223   */\n    tag_196:\n        /* \"#utility.yul\":7270:7272   */\n      0x20\n        /* \"#utility.yul\":7262:7268   */\n      dup3\n        /* \"#utility.yul\":7259:7273   */\n      lt\n        /* \"#utility.yul\":7239:7257   */\n      dup2\n        /* \"#utility.yul\":7236:7274   */\n      sub\n        /* \"#utility.yul\":7233:7317   */\n      tag_197\n      jumpi\n        /* \"#utility.yul\":7289:7307   */\n      tag_198\n      tag_94\n      jump\t// in\n    tag_198:\n        /* \"#utility.yul\":7233:7317   */\n    tag_197:\n        /* \"#utility.yul\":7054:7323   */\n      pop\n        /* \"#utility.yul\":7003:7323   */\n      swap2\n      swap1\n      pop\n      jump\t// out\n        /* \"#utility.yul\":7329:7470   */\n    tag_95:\n        /* \"#utility.yul\":7378:7382   */\n      0x00\n        /* \"#utility.yul\":7401:7404   */\n      dup2\n        /* \"#utility.yul\":7393:7404   */\n      swap1\n      pop\n        /* \"#utility.yul\":7424:7427   */\n      dup2\n        /* \"#utility.yul\":7421:7422   */\n      0x00\n        /* \"#utility.yul\":7414:7428   */\n      mstore\n        /* \"#utility.yul\":7458:7462   */\n      0x20\n        /* \"#utility.yul\":7455:7456   */\n      0x00\n        /* \"#utility.yul\":7445:7463   */\n      keccak256\n        /* \"#utility.yul\":7437:7463   */\n      swap1\n      pop\n        /* \"#utility.yul\":7329:7470   */\n      swap2\n      swap1\n      pop\n      jump\t// out\n        /* \"#utility.yul\":7476:7569   */\n    tag_96:\n        /* \"#utility.yul\":7513:7519   */\n      0x00\n        /* \"#utility.yul\":7560:7562   */\n      0x20\n        /* \"#utility.yul\":7555:7557   */\n      0x1f\n        /* \"#utility.yul\":7548:7553   */\n      dup4\n        /* \"#utility.yul\":7544:7558   */\n      add\n        /* \"#utility.yul\":7540:7563   */\n      div\n        /* \"#utility.yul\":7530:7563   */\n      swap1\n      pop\n        /* \"#utility.yul\":7476:7569   */\n      swap2\n      swap1\n      pop\n      jump\t// out\n        /* \"#utility.yul\":7575:7682   */\n    tag_97:\n        /* \"#utility.yul\":7619:7627   */\n      0x00\n        /* \"#utility.yul\":7669:7674   */\n      dup3\n        /* \"#utility.yul\":7663:7667   */\n      dup3\n        /* \"#utility.yul\":7659:7675   */\n      shl\n        /* \"#utility.yul\":7638:7675   */\n      swap1\n      pop\n        /* \"#utility.yul\":7575:7682   */\n      swap3\n      swap2\n      pop\n      pop\n      jump\t// out\n        /* \"#utility.yul\":7688:8081   */\n    tag_98:\n        /* \"#utility.yul\":7757:7763   */\n      0x00\n        /* \"#utility.yul\":7807:7808   */\n      0x08\n        /* \"#utility.yul\":7795:7805   */\n      dup4\n        /* \"#utility.yul\":7791:7809   */\n      mul\n        /* \"#utility.yul\":7830:7927   */\n      tag_203\n        /* \"#utility.yul\":7860:7926   */\n      0xffffffffffffffffffffffffffffffffffffffffffffffffffffffffffffffff\n        /* \"#utility.yul\":7849:7858   */\n      dup3\n        /* \"#utility.yul\":7830:7927   */\n      tag_97\n      jump\t// in\n    tag_203:\n        /* \"#utility.yul\":7948:7987   */\n      tag_204\n        /* \"#utility.yul\":7978:7986   */\n      dup7\n        /* \"#utility.yul\":7967:7976   */\n      dup4\n        /* \"#utility.yul\":7948:7987   */\n      tag_97\n      jump\t// in\n    tag_204:\n        /* \"#utility.yul\":7936:7987   */\n      swap6\n      pop\n        /* \"#utility.yul\":8020:8024   */\n      dup1\n        /* \"#utility.yul\":8016:8025   */\n      not\n        /* \"#utility.yul\":8009:8014   */\n      dup5\n        /* \"#utility.yul\":8005:8026   */\n      and\n        /* \"#utility.yul\":7996:8026   */\n      swap4\n      pop\n        /* \"#utility.yul\":8069:8073   */\n      dup1\n        /* \"#utility.yul\":8059:8067   */\n      dup7\n        /* \"#utility.yul\":8055:8074   */\n      and\n        /* \"#utility.yul\":8048:8053   */\n      dup5\n        /* \"#utility.yul\":8045:8075   */\n      or\n        /* \"#utility.yul\":8035:8075   */\n      swap3\n      pop\n        /* \"#utility.yul\":7764:8081   */\n      pop\n      pop\n        /* \"#utility.yul\":7688:8081   */\n      swap4\n      swap3\n      pop\n      pop\n      pop\n      jump\t// out\n        /* \"#utility.yul\":8087:8147   */\n    tag_99:\n        /* \"#utility.yul\":8115:8118   */\n      0x00\n        /* \"#utility.yul\":8136:8141   */\n      dup2\n        /* \"#utility.yul\":8129:8141   */\n      swap1\n      pop\n        /* \"#utility.yul\":8087:8147   */\n      swap2\n      swap1\n      pop\n      jump\t// out\n        /* \"#utility.yul\":8153:8295   */\n    tag_100:\n        /* \"#utility.yul\":8203:8212   */\n      0x00\n        /* \"#utility.yul\":8236:8289   */\n      tag_207\n        /* \"#utility.yul\":8254:8288   */\n      tag_208\n        /* \"#utility.yul\":8263:8287   */\n      tag_209\n        /* \"#utility.yul\":8281:8286   */\n      dup5\n        /* \"#utility.yul\":8263:8287   */\n      tag_74\n      jump\t// in\n    tag_209:\n        /* \"#utility.yul\":8254:8288   */\n      tag_99\n      jump\t// in\n    tag_208:\n        /* \"#utility.yul\":8236:8289   */\n      tag_74\n      jump\t// in\n    tag_207:\n        /* \"#utility.yul\":8223:8289   */\n      swap1\n      pop\n        /* \"#utility.yul\":8153:8295   */\n      swap2\n      swap1\n      pop\n      jump\t// out\n        /* \"#utility.yul\":8301:8376   */\n    tag_101:\n        /* \"#utility.yul\":8344:8347   */\n      0x00\n        /* \"#utility.yul\":8365:8370   */\n      dup2\n        /* \"#utility.yul\":8358:8370   */\n      swap1\n      pop\n        /* \"#utility.yul\":8301:8376   */\n      swap2\n      swap1\n      pop\n      jump\t// out\n        /* \"#utility.yul\":8382:8651   */\n    tag_102:\n        /* \"#utility.yul\":8492:8531   */\n      tag_212\n        /* \"#utility.yul\":8523:8530   */\n      dup4\n        /* \"#utility.yul\":8492:8531   */\n      tag_100\n      jump\t// in\n    tag_212:\n        /* \"#utility.yul\":8553:8644   */\n      tag_213\n        /* \"#utility.yul\":8602:8643   */\n      tag_214\n        /* \"#utility.yul\":8626:8642   */\n      dup3\n        /* \"#utility.yul\":8602:8643   */\n      tag_101\n      jump\t// in\n    tag_214:\n        /* \"#utility.yul\":8594:8600   */\n      dup5\n        /* \"#utility.yul\":8587:8591   */\n      dup5\n        /* \"#utility.yul\":8581:8592   */\n      sload\n        /* \"#utility.yul\":8553:8644   */\n      tag_98\n      jump\t// in\n    tag_213:\n        /* \"#utility.yul\":8547:8551   */\n      dup3\n        /* \"#utility.yul\":8540:8645   */\n      sstore\n        /* \"#utility.yul\":8458:8651   */\n      pop\n        /* \"#utility.yul\":8382:8651   */\n      pop\n      pop\n      pop\n      jump\t// out\n        /* \"#utility.yul\":8657:8730   */\n    tag_103:\n        /* \"#utility.yul\":8702:8705   */\n      0x00\n        /* \"#utility.yul\":8723:8724   */\n      0x00\n        /* \"#utility.yul\":8716:8724   */\n      swap1\n      pop\n        /* \"#utility.yul\":8657:8730   */\n      swap1\n      jump\t// out\n        /* \"#utility.yul\":8736:8925   */\n    tag_104:\n        /* \"#utility.yul\":8813:8845   */\n      tag_217\n      tag_103\n      jump\t// in\n    tag_217:\n        /* \"#utility.yul\":8854:8919   */\n      tag_218\n        /* \"#utility.yul\":8912:8918   */\n      dup2\n        /* \"#utility.yul\":8904:8910   */\n      dup5\n        /* \"#utility.yul\":8898:8902   */\n      dup5\n        /* \"#utility.yul\":8854:8919   */\n      tag_102\n      jump\t// in\n    tag_218:\n        /* \"#utility.yul\":8789:8925   */\n      pop\n        /* \"#utility.yul\":8736:8925   */\n      pop\n      pop\n      jump\t// out\n        /* \"#utility.yul\":8931:9117   */\n    tag_105:\n        /* \"#utility.yul\":8991:9111   */\n    tag_220:\n        /* \"#utility.yul\":9008:9011   */\n      dup2\n        /* \"#utility.yul\":9001:9006   */\n      dup2\n        /* \"#utility.yul\":8998:9012   */\n      lt\n        /* \"#utility.yul\":8991:9111   */\n      iszero\n      tag_222\n      jumpi\n        /* \"#utility.yul\":9062:9101   */\n      tag_223\n        /* \"#utility.yul\":9099:9100   */\n      0x00\n        /* \"#utility.yul\":9092:9097   */\n      dup3\n        /* \"#utility.yul\":9062:9101   */\n      tag_104\n      jump\t// in\n    tag_223:\n        /* \"#utility.yul\":9035:9036   */\n      0x01\n        /* \"#utility.yul\":9028:9033   */\n      dup2\n        /* \"#utility.yul\":9024:9037   */\n      add\n        /* \"#utility.yul\":9015:9037   */\n      swap1\n      pop\n        /* \"#utility.yul\":8991:9111   */\n      jump(tag_220)\n    tag_222:\n        /* \"#utility.yul\":8931:9117   */\n      pop\n      pop\n      jump\t// out\n        /* \"#utility.yul\":9123:9666   */\n    tag_106:\n        /* \"#utility.yul\":9224:9226   */\n      0x1f\n        /* \"#utility.yul\":9219:9222   */\n      dup3\n        /* \"#utility.yul\":9216:9227   */\n      gt\n        /* \"#utility.yul\":9213:9659   */\n      iszero\n      tag_225\n      jumpi\n        /* \"#utility.yul\":9258:9296   */\n      tag_226\n        /* \"#utility.yul\":9290:9295   */\n      dup2\n        /* \"#utility.yul\":9258:9296   */\n      tag_95\n      jump\t// in\n    tag_226:\n        /* \"#utility.yul\":9342:9371   */\n      tag_227\n        /* \"#utility.yul\":9360:9370   */\n      dup5\n        /* \"#utility.yul\":9342:9371   */\n      tag_96\n      jump\t// in\n    tag_227:\n        /* \"#utility.yul\":9332:9340   */\n      dup2\n        /* \"#utility.yul\":9328:9372   */\n      add\n        /* \"#utility.yul\":9525:9527   */\n      0x20\n        /* \"#utility.yul\":9513:9523   */\n      dup6\n        /* \"#utility.yul\":9510:9528   */\n      lt\n        /* \"#utility.yul\":9507:9556   */\n      iszero\n      tag_228\n      jumpi\n        /* \"#utility.yul\":9546:9554   */\n      dup2\n        /* \"#utility.yul\":9531:9554   */\n      swap1\n      pop\n        /* \"#utility.yul\":9507:9556   */\n    tag_228:\n        /* \"#utility.yul\":9569:9649   */\n      tag_229\n        /* \"#utility.yul\":9625:9647   */\n      tag_230\n        /* \"#utility.yul\":9643:9646   */\n      dup6\n        /* \"#utility.yul\":9625:9647   */\n      tag_96\n      jump\t// in\n    tag_230:\n        /* \"#utility.yul\":9615:9623   */\n      dup4\n        /* \"#utility.yul\":9611:9648   */\n      add\n        /* \"#utility.yul\":9598:9609   */\n      dup3\n        /* \"#utility.yul\":9569:9649   */\n      tag_105\n      jump\t// in\n    tag_229:\n        /* \"#utility.yul\":9228:9659   */\n      pop\n      pop\n        /* \"#utility.yul\":9213:9659   */\n    tag_225:\n        /* \"#utility.yul\":9123:9666   */\n      pop\n      pop\n      pop\n      jump\t// out\n        /* \"#utility.yul\":9672:9789   */\n    tag_107:\n        /* \"#utility.yul\":9726:9734   */\n      0x00\n        /* \"#utility.yul\":9776:9781   */\n      dup3\n        /* \"#utility.yul\":9770:9774   */\n      dup3\n        /* \"#utility.yul\":9766:9782   */\n      shr\n        /* \"#utility.yul\":9745:9782   */\n      swap1\n      pop\n        /* \"#utility.yul\":9672:9789   */\n      swap3\n      swap2\n      pop\n      pop\n      jump\t// out\n        /* \"#utility.yul\":9795:9964   */\n    tag_108:\n        /* \"#utility.yul\":9839:9845   */\n      0x00\n        /* \"#utility.yul\":9872:9923   */\n      tag_233\n        /* \"#utility.yul\":9920:9921   */\n      0x00\n        /* \"#utility.yul\":9916:9922   */\n      not\n        /* \"#utility.yul\":9908:9913   */\n      dup5\n        /* \"#utility.yul\":9905:9906   */\n      0x08\n        /* \"#utility.yul\":9901:9914   */\n      mul\n        /* \"#utility.yul\":9872:9923   */\n      tag_107\n      jump\t// in\n    tag_233:\n        /* \"#utility.yul\":9868:9924   */\n      not\n        /* \"#utility.yul\":9953:9957   */\n      dup1\n        /* \"#utility.yul\":9947:9951   */\n      dup4\n        /* \"#utility.yul\":9943:9958   */\n      and\n        /* \"#utility.yul\":9933:9958   */\n      swap2\n      pop\n        /* \"#utility.yul\":9846:9964   */\n      pop\n        /* \"#utility.yul\":9795:9964   */\n      swap3\n      swap2\n      pop\n      pop\n      jump\t// out\n        /* \"#utility.yul\":9969:10264   */\n    tag_109:\n        /* \"#utility.yul\":10045:10049   */\n      0x00\n        /* \"#utility.yul\":10191:10220   */\n      tag_235\n        /* \"#utility.yul\":10216:10219   */\n      dup4\n        /* \"#utility.yul\":10210:10214   */\n      dup4\n        /* \"#utility.yul\":10191:10220   */\n      tag_108\n      jump\t// in\n    tag_235:\n        /* \"#utility.yul\":10183:10220   */\n      swap2\n      pop\n        /* \"#utility.yul\":10253:10256   */\n      dup3\n        /* \"#utility.yul\":10250:10251   */\n      0x02\n        /* \"#utility.yul\":10246:10257   */\n      mul\n        /* \"#utility.yul\":10240:10244   */\n      dup3\n        /* \"#utility.yul\":10237:10258   */\n      or\n        /* \"#utility.yul\":10229:10258   */\n      swap1\n      pop\n        /* \"#utility.yul\":9969:10264   */\n      swap3\n      swap2\n      pop\n      pop\n      jump\t// out\n        /* \"#utility.yul\":10269:11664   */\n    tag_50:\n        /* \"#utility.yul\":10386:10423   */\n      tag_237\n        /* \"#utility.yul\":10419:10422   */\n      dup3\n        /* \"#utility.yul\":10386:10423   */\n      tag_89\n      jump\t// in\n    tag_237:\n        /* \"#utility.yul\":10488:10506   */\n      0xffffffffffffffff\n        /* \"#utility.yul\":10480:10486   */\n      dup2\n        /* \"#utility.yul\":10477:10507   */\n      gt\n        /* \"#utility.yul\":10474:10530   */\n      iszero\n      tag_238\n      jumpi\n        /* \"#utility.yul\":10510:10528   */\n      tag_239\n      tag_79\n      jump\t// in\n    tag_239:\n        /* \"#utility.yul\":10474:10530   */\n    tag_238:\n        /* \"#utility.yul\":10554:10592   */\n      tag_240\n        /* \"#utility.yul\":10586:10590   */\n      dup3\n        /* \"#utility.yul\":10580:10591   */\n      sload\n        /* \"#utility.yul\":10554:10592   */\n      tag_62\n      jump\t// in\n    tag_240:\n        /* \"#utility.yul\":10639:10706   */\n      tag_241\n        /* \"#utility.yul\":10699:10705   */\n      dup3\n        /* \"#utility.yul\":10691:10697   */\n      dup3\n        /* \"#utility.yul\":10685:10689   */\n      dup6\n        /* \"#utility.yul\":10639:10706   */\n      tag_106\n      jump\t// in\n    tag_241:\n        /* \"#utility.yul\":10733:10734   */\n      0x00\n        /* \"#utility.yul\":10757:10761   */\n      0x20\n        /* \"#utility.yul\":10744:10761   */\n      swap1\n      pop\n        /* \"#utility.yul\":10789:10791   */\n      0x1f\n        /* \"#utility.yul\":10781:10787   */\n      dup4\n        /* \"#utility.yul\":10778:10792   */\n      gt\n        /* \"#utility.yul\":10806:10807   */\n      0x01\n        /* \"#utility.yul\":10801:11419   */\n      dup2\n      eq\n      tag_243\n      jumpi\n        /* \"#utility.yul\":11463:11464   */\n      0x00\n        /* \"#utility.yul\":11480:11486   */\n      dup5\n        /* \"#utility.yul\":11477:11554   */\n      iszero\n      tag_244\n      jumpi\n        /* \"#utility.yul\":11529:11538   */\n      dup3\n        /* \"#utility.yul\":11524:11527   */\n      dup8\n        /* \"#utility.yul\":11520:11539   */\n      add\n        /* \"#utility.yul\":11514:11540   */\n      mload\n        /* \"#utility.yul\":11505:11540   */\n      swap1\n      pop\n        /* \"#utility.yul\":11477:11554   */\n    tag_244:\n        /* \"#utility.yul\":11580:11647   */\n      tag_245\n        /* \"#utility.yul\":11640:11646   */\n      dup6\n        /* \"#utility.yul\":11633:11638   */\n      dup3\n        /* \"#utility.yul\":11580:11647   */\n      tag_109\n      jump\t// in\n    tag_245:\n        /* \"#utility.yul\":11574:11578   */\n      dup7\n        /* \"#utility.yul\":11567:11648   */\n      sstore\n        /* \"#utility.yul\":11436:11658   */\n      pop\n        /* \"#utility.yul\":10771:11658   */\n      jump(tag_242)\n        /* \"#utility.yul\":10801:11419   */\n    tag_243:\n        /* \"#utility.yul\":10853:10857   */\n      0x1f\n        /* \"#utility.yul\":10849:10858   */\n      not\n        /* \"#utility.yul\":10841:10847   */\n      dup5\n        /* \"#utility.yul\":10837:10859   */\n      and\n        /* \"#utility.yul\":10887:10924   */\n      tag_246\n        /* \"#utility.yul\":10919:10923   */\n      dup7\n        /* \"#utility.yul\":10887:10924   */\n      tag_95\n      jump\t// in\n    tag_246:\n        /* \"#utility.yul\":10946:10947   */\n      0x00\n        /* \"#utility.yul\":10960:11168   */\n    tag_247:\n        /* \"#utility.yul\":10974:10981   */\n      dup3\n        /* \"#utility.yul\":10971:10972   */\n      dup2\n        /* \"#utility.yul\":10968:10982   */\n      lt\n        /* \"#utility.yul\":10960:11168   */\n      iszero\n      tag_249\n      jumpi\n        /* \"#utility.yul\":11053:11062   */\n      dup5\n        /* \"#utility.yul\":11048:11051   */\n      dup10\n        /* \"#utility.yul\":11044:11063   */\n      add\n        /* \"#utility.yul\":11038:11064   */\n      mload\n        /* \"#utility.yul\":11030:11036   */\n      dup3\n        /* \"#utility.yul\":11023:11065   */\n      sstore\n        /* \"#utility.yul\":11104:11105   */\n      0x01\n        /* \"#utility.yul\":11096:11102   */\n      dup3\n        /* \"#utility.yul\":11092:11106   */\n      add\n        /* \"#utility.yul\":11082:11106   */\n      swap2\n      pop\n        /* \"#utility.yul\":11151:11153   */\n      0x20\n        /* \"#utility.yul\":11140:11149   */\n      dup6\n        /* \"#utility.yul\":11136:11154   */\n      add\n        /* \"#utility.yul\":11123:11154   */\n      swap5\n      pop\n        /* \"#utility.yul\":10997:11001   */\n      0x20\n        /* \"#utility.yul\":10994:10995   */\n      dup2\n        /* \"#utility.yul\":10990:11002   */\n      add\n        /* \"#utility.yul\":10985:11002   */\n      swap1\n      pop\n        /* \"#utility.yul\":10960:11168   */\n      jump(tag_247)\n    tag_249:\n        /* \"#utility.yul\":11196:11202   */\n      dup7\n        /* \"#utility.yul\":11187:11194   */\n      dup4\n        /* \"#utility.yul\":11184:11203   */\n      lt\n        /* \"#utility.yul\":11181:11360   */\n      iszero\n      tag_250\n      jumpi\n        /* \"#utility.yul\":11254:11263   */\n      dup5\n        /* \"#utility.yul\":11249:11252   */\n      dup10\n        /* \"#utility.yul\":11245:11264   */\n      add\n        /* \"#utility.yul\":11239:11265   */\n      mload\n        /* \"#utility.yul\":11297:11345   */\n      tag_251\n        /* \"#utility.yul\":11339:11343   */\n      0x1f\n        /* \"#utility.yul\":11331:11337   */\n      dup10\n        /* \"#utility.yul\":11327:11344   */\n      and\n        /* \"#utility.yul\":11316:11325   */\n      dup3\n        /* \"#utility.yul\":11297:11345   */\n      tag_108\n      jump\t// in\n    tag_251:\n        /* \"#utility.yul\":11289:11295   */\n      dup4\n        /* \"#utility.yul\":11282:11346   */\n      sstore\n        /* \"#utility.yul\":11204:11360   */\n      pop\n        /* \"#utility.yul\":11181:11360   */\n    tag_250:\n        /* \"#utility.yul\":11406:11407   */\n      0x01\n        /* \"#utility.yul\":11402:11403   */\n      0x02\n        /* \"#utility.yul\":11394:11400   */\n      dup9\n        /* \"#utility.yul\":11390:11404   */\n      mul\n        /* \"#utility.yul\":11386:11408   */\n      add\n        /* \"#utility.yul\":11380:11384   */\n      dup9\n        /* \"#utility.yul\":11373:11409   */\n      sstore\n        /* \"#utility.yul\":10808:11419   */\n      pop\n      pop\n      pop\n        /* \"#utility.yul\":10771:11658   */\n    tag_242:\n      pop\n        /* \"#utility.yul\":10361:11664   */\n      pop\n      pop\n      pop\n        /* \"#utility.yul\":10269:11664   */\n      pop\n      pop\n      jump\t// out\n        /* \"#utility.yul\":11670:11893   */\n    tag_110:\n        /* \"#utility.yul\":11810:11844   */\n      0x566f636520707265636973612064652070656c6f206d656e6f7320353020706f\n        /* \"#utility.yul\":11806:11807   */\n      0x00\n        /* \"#utility.yul\":11798:11804   */\n      dup3\n        /* \"#utility.yul\":11794:11808   */\n      add\n        /* \"#utility.yul\":11787:11845   */\n      mstore\n        /* \"#utility.yul\":11879:11885   */\n      0x6e746f7300000000000000000000000000000000000000000000000000000000\n        /* \"#utility.yul\":11874:11876   */\n      0x20\n        /* \"#utility.yul\":11866:11872   */\n      dup3\n        /* \"#utility.yul\":11862:11877   */\n      add\n        /* \"#utility.yul\":11855:11886   */\n      mstore\n        /* \"#utility.yul\":11670:11893   */\n      pop\n      jump\t// out\n        /* \"#utility.yul\":11899:12265   */\n    tag_111:\n        /* \"#utility.yul\":12041:12044   */\n      0x00\n        /* \"#utility.yul\":12062:12129   */\n      tag_254\n        /* \"#utility.yul\":12126:12128   */\n      0x24\n        /* \"#utility.yul\":12121:12124   */\n      dup4\n        /* \"#utility.yul\":12062:12129   */\n      tag_90\n      jump\t// in\n    tag_254:\n        /* \"#utility.yul\":12055:12129   */\n      swap2\n      pop\n        /* \"#utility.yul\":12138:12231   */\n      tag_255\n        /* \"#utility.yul\":12227:12230   */\n      dup3\n        /* \"#utility.yul\":12138:12231   */\n      tag_110\n      jump\t// in\n    tag_255:\n        /* \"#utility.yul\":12256:12258   */\n      0x40\n        /* \"#utility.yul\":12251:12254   */\n      dup3\n        /* \"#utility.yul\":12247:12259   */\n      add\n        /* \"#utility.yul\":12240:12259   */\n      swap1\n      pop\n        /* \"#utility.yul\":11899:12265   */\n      swap2\n      swap1\n      pop\n      jump\t// out\n        /* \"#utility.yul\":12271:12690   */\n    tag_54:\n        /* \"#utility.yul\":12437:12441   */\n      0x00\n        /* \"#utility.yul\":12475:12477   */\n      0x20\n        /* \"#utility.yul\":12464:12473   */\n      dup3\n        /* \"#utility.yul\":12460:12478   */\n      add\n        /* \"#utility.yul\":12452:12478   */\n      swap1\n      pop\n        /* \"#utility.yul\":12524:12533   */\n      dup2\n        /* \"#utility.yul\":12518:12522   */\n      dup2\n        /* \"#utility.yul\":12514:12534   */\n      sub\n        /* \"#utility.yul\":12510:12511   */\n      0x00\n        /* \"#utility.yul\":12499:12508   */\n      dup4\n        /* \"#utility.yul\":12495:12512   */\n      add\n        /* \"#utility.yul\":12488:12535   */\n      mstore\n        /* \"#utility.yul\":12552:12683   */\n      tag_257\n        /* \"#utility.yul\":12678:12682   */\n      dup2\n        /* \"#utility.yul\":12552:12683   */\n      tag_111\n      jump\t// in\n    tag_257:\n        /* \"#utility.yul\":12544:12683   */\n      swap1\n      pop\n        /* \"#utility.yul\":12271:12690   */\n      swap2\n      swap1\n      pop\n      jump\t// out\n        /* \"#utility.yul\":12696:12890   */\n    tag_56:\n        /* \"#utility.yul\":12736:12740   */\n      0x00\n        /* \"#utility.yul\":12756:12776   */\n      tag_259\n        /* \"#utility.yul\":12774:12775   */\n      dup3\n        /* \"#utility.yul\":12756:12776   */\n      tag_74\n      jump\t// in\n    tag_259:\n        /* \"#utility.yul\":12751:12776   */\n      swap2\n      pop\n        /* \"#utility.yul\":12790:12810   */\n      tag_260\n        /* \"#utility.yul\":12808:12809   */\n      dup4\n        /* \"#utility.yul\":12790:12810   */\n      tag_74\n      jump\t// in\n    tag_260:\n        /* \"#utility.yul\":12785:12810   */\n      swap3\n      pop\n        /* \"#utility.yul\":12834:12835   */\n      dup3\n        /* \"#utility.yul\":12831:12832   */\n      dup3\n        /* \"#utility.yul\":12827:12836   */\n      sub\n        /* \"#utility.yul\":12819:12836   */\n      swap1\n      pop\n        /* \"#utility.yul\":12858:12859   */\n      dup2\n        /* \"#utility.yul\":12852:12856   */\n      dup2\n        /* \"#utility.yul\":12849:12860   */\n      gt\n        /* \"#utility.yul\":12846:12883   */\n      iszero\n      tag_261\n      jumpi\n        /* \"#utility.yul\":12863:12881   */\n      tag_262\n      tag_93\n      jump\t// in\n    tag_262:\n        /* \"#utility.yul\":12846:12883   */\n    tag_261:\n        /* \"#utility.yul\":12696:12890   */\n      swap3\n      swap2\n      pop\n      pop\n      jump\t// out\n\n    auxdata: 0xa2646970667358221220b85334fdbe835daa7a77b305f1af6a1e79d6635ac701ecfda3c2e6cc2bd0aa8c64736f6c634300081e0033\n}\n",
				"bytecode": {
					"linkReferences": {},
					"object": "6080604052348015600e575f5ffd5b50335f5f6101000a81548173ffffffffffffffffffffffffffffffffffffffff021916908373ffffffffffffffffffffffffffffffffffffffff160217905550610bef8061005b5f395ff3fe60806040526004361061006f575f3560e01c806399c74a771161004d57806399c74a7714610101578063a5086c081461010b578063b4a99a4e14610135578063c86508a01461015f5761006f565b80630628241a1461007357806315a21ba8146100af5780631c012964146100d9575b5f5ffd5b34801561007e575f5ffd5b50610099600480360381019061009491906104f0565b61019b565b6040516100a69190610533565b60405180910390f35b3480156100ba575f5ffd5b506100c36101b0565b6040516100d09190610533565b60405180910390f35b3480156100e4575f5ffd5b506100ff60048036038101906100fa9190610688565b6101f4565b005b61010961027d565b005b348015610116575f5ffd5b5061011f6103af565b60405161012c9190610533565b60405180910390f35b348015610140575f5ffd5b506101496103bb565b60405161015691906106de565b60405180910390f35b34801561016a575f5ffd5b5061018560048036038101906101809190610721565b6103df565b60405161019291906107ac565b60405180910390f35b6001602052805f5260405f205f915090505481565b5f60035f3373ffffffffffffffffffffffffffffffffffffffff1673ffffffffffffffffffffffffffffffffffffffff1681526020019081526020015f2054905090565b600a60015f3373ffffffffffffffffffffffffffffffffffffffff1673ffffffffffffffffffffffffffffffffffffffff1681526020019081526020015f205f82825461024191906107f9565b92505081905550600281908060018154018082558091505060019003905f5260205f20015f9091909190915090816102799190610a29565b5050565b603260015f3373ffffffffffffffffffffffffffffffffffffffff1673ffffffffffffffffffffffffffffffffffffffff1681526020019081526020015f205410156102fe576040517f08c379a00000000000000000000000000000000000000000000000000000000081526004016102f590610b68565b60405180910390fd5b603260015f3373ffffffffffffffffffffffffffffffffffffffff1673ffffffffffffffffffffffffffffffffffffffff1681526020019081526020015f205f82825461034b9190610b86565b92505081905550670de0b6b3a764000060035f3373ffffffffffffffffffffffffffffffffffffffff1673ffffffffffffffffffffffffffffffffffffffff1681526020019081526020015f205f8282546103a691906107f9565b92505081905550565b5f600280549050905090565b5f5f9054906101000a900473ffffffffffffffffffffffffffffffffffffffff1681565b600281815481106103ee575f80fd5b905f5260205f20015f91509050805461040690610859565b80601f016020809104026020016040519081016040528092919081815260200182805461043290610859565b801561047d5780601f106104545761010080835404028352916020019161047d565b820191905f5260205f20905b81548152906001019060200180831161046057829003601f168201915b505050505081565b5f604051905090565b5f5ffd5b5f5ffd5b5f73ffffffffffffffffffffffffffffffffffffffff82169050919050565b5f6104bf82610496565b9050919050565b6104cf816104b5565b81146104d9575f5ffd5b50565b5f813590506104ea816104c6565b92915050565b5f602082840312156105055761050461048e565b5b5f610512848285016104dc565b91505092915050565b5f819050919050565b61052d8161051b565b82525050565b5f6020820190506105465f830184610524565b92915050565b5f5ffd5b5f5ffd5b5f601f19601f8301169050919050565b7f4e487b71000000000000000000000000000000000000000000000000000000005f52604160045260245ffd5b61059a82610554565b810181811067ffffffffffffffff821117156105b9576105b8610564565b5b80604052505050565b5f6105cb610485565b90506105d78282610591565b919050565b5f67ffffffffffffffff8211156105f6576105f5610564565b5b6105ff82610554565b9050602081019050919050565b828183375f83830152505050565b5f61062c610627846105dc565b6105c2565b90508281526020810184848401111561064857610647610550565b5b61065384828561060c565b509392505050565b5f82601f83011261066f5761066e61054c565b5b813561067f84826020860161061a565b91505092915050565b5f6020828403121561069d5761069c61048e565b5b5f82013567ffffffffffffffff8111156106ba576106b9610492565b5b6106c68482850161065b565b91505092915050565b6106d8816104b5565b82525050565b5f6020820190506106f15f8301846106cf565b92915050565b6107008161051b565b811461070a575f5ffd5b50565b5f8135905061071b816106f7565b92915050565b5f602082840312156107365761073561048e565b5b5f6107438482850161070d565b91505092915050565b5f81519050919050565b5f82825260208201905092915050565b8281835e5f83830152505050565b5f61077e8261074c565b6107888185610756565b9350610798818560208601610766565b6107a181610554565b840191505092915050565b5f6020820190508181035f8301526107c48184610774565b905092915050565b7f4e487b71000000000000000000000000000000000000000000000000000000005f52601160045260245ffd5b5f6108038261051b565b915061080e8361051b565b9250828201905080821115610826576108256107cc565b5b92915050565b7f4e487b71000000000000000000000000000000000000000000000000000000005f52602260045260245ffd5b5f600282049050600182168061087057607f821691505b6020821081036108835761088261082c565b5b50919050565b5f819050815f5260205f209050919050565b5f6020601f8301049050919050565b5f82821b905092915050565b5f600883026108e57fffffffffffffffffffffffffffffffffffffffffffffffffffffffffffffffff826108aa565b6108ef86836108aa565b95508019841693508086168417925050509392505050565b5f819050919050565b5f61092a6109256109208461051b565b610907565b61051b565b9050919050565b5f819050919050565b61094383610910565b61095761094f82610931565b8484546108b6565b825550505050565b5f5f905090565b61096e61095f565b61097981848461093a565b505050565b5b8181101561099c576109915f82610966565b60018101905061097f565b5050565b601f8211156109e1576109b281610889565b6109bb8461089b565b810160208510156109ca578190505b6109de6109d68561089b565b83018261097e565b50505b505050565b5f82821c905092915050565b5f610a015f19846008026109e6565b1980831691505092915050565b5f610a1983836109f2565b9150826002028217905092915050565b610a328261074c565b67ffffffffffffffff811115610a4b57610a4a610564565b5b610a558254610859565b610a608282856109a0565b5f60209050601f831160018114610a91575f8415610a7f578287015190505b610a898582610a0e565b865550610af0565b601f198416610a9f86610889565b5f5b82811015610ac657848901518255600182019150602085019450602081019050610aa1565b86831015610ae35784890151610adf601f8916826109f2565b8355505b6001600288020188555050505b505050505050565b7f566f636520707265636973612064652070656c6f206d656e6f7320353020706f5f8201527f6e746f7300000000000000000000000000000000000000000000000000000000602082015250565b5f610b52602483610756565b9150610b5d82610af8565b604082019050919050565b5f6020820190508181035f830152610b7f81610b46565b9050919050565b5f610b908261051b565b9150610b9b8361051b565b9250828203905081811115610bb357610bb26107cc565b5b9291505056fea2646970667358221220b85334fdbe835daa7a77b305f1af6a1e79d6635ac701ecfda3c2e6cc2bd0aa8c64736f6c634300081e0033",
					"opcodes": "PUSH1 0x80 PUSH1 0x40 MSTORE CALLVALUE DUP1 ISZERO PUSH1 0xE JUMPI PUSH0 PUSH0 REVERT JUMPDEST POP CALLER PUSH0 PUSH0 PUSH2 0x100 EXP DUP2 SLOAD DUP2 PUSH20 0xFFFFFFFFFFFFFFFFFFFFFFFFFFFFFFFFFFFFFFFF MUL NOT AND SWAP1 DUP4 PUSH20 0xFFFFFFFFFFFFFFFFFFFFFFFFFFFFFFFFFFFFFFFF AND MUL OR SWAP1 SSTORE POP PUSH2 0xBEF DUP1 PUSH2 0x5B PUSH0 CODECOPY PUSH0 RETURN INVALID PUSH1 0x80 PUSH1 0x40 MSTORE PUSH1 0x4 CALLDATASIZE LT PUSH2 0x6F JUMPI PUSH0 CALLDATALOAD PUSH1 0xE0 SHR DUP1 PUSH4 0x99C74A77 GT PUSH2 0x4D JUMPI DUP1 PUSH4 0x99C74A77 EQ PUSH2 0x101 JUMPI DUP1 PUSH4 0xA5086C08 EQ PUSH2 0x10B JUMPI DUP1 PUSH4 0xB4A99A4E EQ PUSH2 0x135 JUMPI DUP1 PUSH4 0xC86508A0 EQ PUSH2 0x15F JUMPI PUSH2 0x6F JUMP JUMPDEST DUP1 PUSH4 0x628241A EQ PUSH2 0x73 JUMPI DUP1 PUSH4 0x15A21BA8 EQ PUSH2 0xAF JUMPI DUP1 PUSH4 0x1C012964 EQ PUSH2 0xD9 JUMPI JUMPDEST PUSH0 PUSH0 REVERT JUMPDEST CALLVALUE DUP1 ISZERO PUSH2 0x7E JUMPI PUSH0 PUSH0 REVERT JUMPDEST POP PUSH2 0x99 PUSH1 0x4 DUP1 CALLDATASIZE SUB DUP2 ADD SWAP1 PUSH2 0x94 SWAP2 SWAP1 PUSH2 0x4F0 JUMP JUMPDEST PUSH2 0x19B JUMP JUMPDEST PUSH1 0x40 MLOAD PUSH2 0xA6 SWAP2 SWAP1 PUSH2 0x533 JUMP JUMPDEST PUSH1 0x40 MLOAD DUP1 SWAP2 SUB SWAP1 RETURN JUMPDEST CALLVALUE DUP1 ISZERO PUSH2 0xBA JUMPI PUSH0 PUSH0 REVERT JUMPDEST POP PUSH2 0xC3 PUSH2 0x1B0 JUMP JUMPDEST PUSH1 0x40 MLOAD PUSH2 0xD0 SWAP2 SWAP1 PUSH2 0x533 JUMP JUMPDEST PUSH1 0x40 MLOAD DUP1 SWAP2 SUB SWAP1 RETURN JUMPDEST CALLVALUE DUP1 ISZERO PUSH2 0xE4 JUMPI PUSH0 PUSH0 REVERT JUMPDEST POP PUSH2 0xFF PUSH1 0x4 DUP1 CALLDATASIZE SUB DUP2 ADD SWAP1 PUSH2 0xFA SWAP2 SWAP1 PUSH2 0x688 JUMP JUMPDEST PUSH2 0x1F4 JUMP JUMPDEST STOP JUMPDEST PUSH2 0x109 PUSH2 0x27D JUMP JUMPDEST STOP JUMPDEST CALLVALUE DUP1 ISZERO PUSH2 0x116 JUMPI PUSH0 PUSH0 REVERT JUMPDEST POP PUSH2 0x11F PUSH2 0x3AF JUMP JUMPDEST PUSH1 0x40 MLOAD PUSH2 0x12C SWAP2 SWAP1 PUSH2 0x533 JUMP JUMPDEST PUSH1 0x40 MLOAD DUP1 SWAP2 SUB SWAP1 RETURN JUMPDEST CALLVALUE DUP1 ISZERO PUSH2 0x140 JUMPI PUSH0 PUSH0 REVERT JUMPDEST POP PUSH2 0x149 PUSH2 0x3BB JUMP JUMPDEST PUSH1 0x40 MLOAD PUSH2 0x156 SWAP2 SWAP1 PUSH2 0x6DE JUMP JUMPDEST PUSH1 0x40 MLOAD DUP1 SWAP2 SUB SWAP1 RETURN JUMPDEST CALLVALUE DUP1 ISZERO PUSH2 0x16A JUMPI PUSH0 PUSH0 REVERT JUMPDEST POP PUSH2 0x185 PUSH1 0x4 DUP1 CALLDATASIZE SUB DUP2 ADD SWAP1 PUSH2 0x180 SWAP2 SWAP1 PUSH2 0x721 JUMP JUMPDEST PUSH2 0x3DF JUMP JUMPDEST PUSH1 0x40 MLOAD PUSH2 0x192 SWAP2 SWAP1 PUSH2 0x7AC JUMP JUMPDEST PUSH1 0x40 MLOAD DUP1 SWAP2 SUB SWAP1 RETURN JUMPDEST PUSH1 0x1 PUSH1 0x20 MSTORE DUP1 PUSH0 MSTORE PUSH1 0x40 PUSH0 KECCAK256 PUSH0 SWAP2 POP SWAP1 POP SLOAD DUP2 JUMP JUMPDEST PUSH0 PUSH1 0x3 PUSH0 CALLER PUSH20 0xFFFFFFFFFFFFFFFFFFFFFFFFFFFFFFFFFFFFFFFF AND PUSH20 0xFFFFFFFFFFFFFFFFFFFFFFFFFFFFFFFFFFFFFFFF AND DUP2 MSTORE PUSH1 0x20 ADD SWAP1 DUP2 MSTORE PUSH1 0x20 ADD PUSH0 KECCAK256 SLOAD SWAP1 POP SWAP1 JUMP JUMPDEST PUSH1 0xA PUSH1 0x1 PUSH0 CALLER PUSH20 0xFFFFFFFFFFFFFFFFFFFFFFFFFFFFFFFFFFFFFFFF AND PUSH20 0xFFFFFFFFFFFFFFFFFFFFFFFFFFFFFFFFFFFFFFFF AND DUP2 MSTORE PUSH1 0x20 ADD SWAP1 DUP2 MSTORE PUSH1 0x20 ADD PUSH0 KECCAK256 PUSH0 DUP3 DUP3 SLOAD PUSH2 0x241 SWAP2 SWAP1 PUSH2 0x7F9 JUMP JUMPDEST SWAP3 POP POP DUP2 SWAP1 SSTORE POP PUSH1 0x2 DUP2 SWAP1 DUP1 PUSH1 0x1 DUP2 SLOAD ADD DUP1 DUP3 SSTORE DUP1 SWAP2 POP POP PUSH1 0x1 SWAP1 SUB SWAP1 PUSH0 MSTORE PUSH1 0x20 PUSH0 KECCAK256 ADD PUSH0 SWAP1 SWAP2 SWAP1 SWAP2 SWAP1 SWAP2 POP SWAP1 DUP2 PUSH2 0x279 SWAP2 SWAP1 PUSH2 0xA29 JUMP JUMPDEST POP POP JUMP JUMPDEST PUSH1 0x32 PUSH1 0x1 PUSH0 CALLER PUSH20 0xFFFFFFFFFFFFFFFFFFFFFFFFFFFFFFFFFFFFFFFF AND PUSH20 0xFFFFFFFFFFFFFFFFFFFFFFFFFFFFFFFFFFFFFFFF AND DUP2 MSTORE PUSH1 0x20 ADD SWAP1 DUP2 MSTORE PUSH1 0x20 ADD PUSH0 KECCAK256 SLOAD LT ISZERO PUSH2 0x2FE JUMPI PUSH1 0x40 MLOAD PUSH32 0x8C379A000000000000000000000000000000000000000000000000000000000 DUP2 MSTORE PUSH1 0x4 ADD PUSH2 0x2F5 SWAP1 PUSH2 0xB68 JUMP JUMPDEST PUSH1 0x40 MLOAD DUP1 SWAP2 SUB SWAP1 REVERT JUMPDEST PUSH1 0x32 PUSH1 0x1 PUSH0 CALLER PUSH20 0xFFFFFFFFFFFFFFFFFFFFFFFFFFFFFFFFFFFFFFFF AND PUSH20 0xFFFFFFFFFFFFFFFFFFFFFFFFFFFFFFFFFFFFFFFF AND DUP2 MSTORE PUSH1 0x20 ADD SWAP1 DUP2 MSTORE PUSH1 0x20 ADD PUSH0 KECCAK256 PUSH0 DUP3 DUP3 SLOAD PUSH2 0x34B SWAP2 SWAP1 PUSH2 0xB86 JUMP JUMPDEST SWAP3 POP POP DUP2 SWAP1 SSTORE POP PUSH8 0xDE0B6B3A7640000 PUSH1 0x3 PUSH0 CALLER PUSH20 0xFFFFFFFFFFFFFFFFFFFFFFFFFFFFFFFFFFFFFFFF AND PUSH20 0xFFFFFFFFFFFFFFFFFFFFFFFFFFFFFFFFFFFFFFFF AND DUP2 MSTORE PUSH1 0x20 ADD SWAP1 DUP2 MSTORE PUSH1 0x20 ADD PUSH0 KECCAK256 PUSH0 DUP3 DUP3 SLOAD PUSH2 0x3A6 SWAP2 SWAP1 PUSH2 0x7F9 JUMP JUMPDEST SWAP3 POP POP DUP2 SWAP1 SSTORE POP JUMP JUMPDEST PUSH0 PUSH1 0x2 DUP1 SLOAD SWAP1 POP SWAP1 POP SWAP1 JUMP JUMPDEST PUSH0 PUSH0 SWAP1 SLOAD SWAP1 PUSH2 0x100 EXP SWAP1 DIV PUSH20 0xFFFFFFFFFFFFFFFFFFFFFFFFFFFFFFFFFFFFFFFF AND DUP2 JUMP JUMPDEST PUSH1 0x2 DUP2 DUP2 SLOAD DUP2 LT PUSH2 0x3EE JUMPI PUSH0 DUP1 REVERT JUMPDEST SWAP1 PUSH0 MSTORE PUSH1 0x20 PUSH0 KECCAK256 ADD PUSH0 SWAP2 POP SWAP1 POP DUP1 SLOAD PUSH2 0x406 SWAP1 PUSH2 0x859 JUMP JUMPDEST DUP1 PUSH1 0x1F ADD PUSH1 0x20 DUP1 SWAP2 DIV MUL PUSH1 0x20 ADD PUSH1 0x40 MLOAD SWAP1 DUP2 ADD PUSH1 0x40 MSTORE DUP1 SWAP3 SWAP2 SWAP1 DUP2 DUP2 MSTORE PUSH1 0x20 ADD DUP3 DUP1 SLOAD PUSH2 0x432 SWAP1 PUSH2 0x859 JUMP JUMPDEST DUP1 ISZERO PUSH2 0x47D JUMPI DUP1 PUSH1 0x1F LT PUSH2 0x454 JUMPI PUSH2 0x100 DUP1 DUP4 SLOAD DIV MUL DUP4 MSTORE SWAP2 PUSH1 0x20 ADD SWAP2 PUSH2 0x47D JUMP JUMPDEST DUP3 ADD SWAP2 SWAP1 PUSH0 MSTORE PUSH1 0x20 PUSH0 KECCAK256 SWAP1 JUMPDEST DUP2 SLOAD DUP2 MSTORE SWAP1 PUSH1 0x1 ADD SWAP1 PUSH1 0x20 ADD DUP1 DUP4 GT PUSH2 0x460 JUMPI DUP3 SWAP1 SUB PUSH1 0x1F AND DUP3 ADD SWAP2 JUMPDEST POP POP POP POP POP DUP2 JUMP JUMPDEST PUSH0 PUSH1 0x40 MLOAD SWAP1 POP SWAP1 JUMP JUMPDEST PUSH0 PUSH0 REVERT JUMPDEST PUSH0 PUSH0 REVERT JUMPDEST PUSH0 PUSH20 0xFFFFFFFFFFFFFFFFFFFFFFFFFFFFFFFFFFFFFFFF DUP3 AND SWAP1 POP SWAP2 SWAP1 POP JUMP JUMPDEST PUSH0 PUSH2 0x4BF DUP3 PUSH2 0x496 JUMP JUMPDEST SWAP1 POP SWAP2 SWAP1 POP JUMP JUMPDEST PUSH2 0x4CF DUP2 PUSH2 0x4B5 JUMP JUMPDEST DUP2 EQ PUSH2 0x4D9 JUMPI PUSH0 PUSH0 REVERT JUMPDEST POP JUMP JUMPDEST PUSH0 DUP2 CALLDATALOAD SWAP1 POP PUSH2 0x4EA DUP2 PUSH2 0x4C6 JUMP JUMPDEST SWAP3 SWAP2 POP POP JUMP JUMPDEST PUSH0 PUSH1 0x20 DUP3 DUP5 SUB SLT ISZERO PUSH2 0x505 JUMPI PUSH2 0x504 PUSH2 0x48E JUMP JUMPDEST JUMPDEST PUSH0 PUSH2 0x512 DUP5 DUP3 DUP6 ADD PUSH2 0x4DC JUMP JUMPDEST SWAP2 POP POP SWAP3 SWAP2 POP POP JUMP JUMPDEST PUSH0 DUP2 SWAP1 POP SWAP2 SWAP1 POP JUMP JUMPDEST PUSH2 0x52D DUP2 PUSH2 0x51B JUMP JUMPDEST DUP3 MSTORE POP POP JUMP JUMPDEST PUSH0 PUSH1 0x20 DUP3 ADD SWAP1 POP PUSH2 0x546 PUSH0 DUP4 ADD DUP5 PUSH2 0x524 JUMP JUMPDEST SWAP3 SWAP2 POP POP JUMP JUMPDEST PUSH0 PUSH0 REVERT JUMPDEST PUSH0 PUSH0 REVERT JUMPDEST PUSH0 PUSH1 0x1F NOT PUSH1 0x1F DUP4 ADD AND SWAP1 POP SWAP2 SWAP1 POP JUMP JUMPDEST PUSH32 0x4E487B7100000000000000000000000000000000000000000000000000000000 PUSH0 MSTORE PUSH1 0x41 PUSH1 0x4 MSTORE PUSH1 0x24 PUSH0 REVERT JUMPDEST PUSH2 0x59A DUP3 PUSH2 0x554 JUMP JUMPDEST DUP2 ADD DUP2 DUP2 LT PUSH8 0xFFFFFFFFFFFFFFFF DUP3 GT OR ISZERO PUSH2 0x5B9 JUMPI PUSH2 0x5B8 PUSH2 0x564 JUMP JUMPDEST JUMPDEST DUP1 PUSH1 0x40 MSTORE POP POP POP JUMP JUMPDEST PUSH0 PUSH2 0x5CB PUSH2 0x485 JUMP JUMPDEST SWAP1 POP PUSH2 0x5D7 DUP3 DUP3 PUSH2 0x591 JUMP JUMPDEST SWAP2 SWAP1 POP JUMP JUMPDEST PUSH0 PUSH8 0xFFFFFFFFFFFFFFFF DUP3 GT ISZERO PUSH2 0x5F6 JUMPI PUSH2 0x5F5 PUSH2 0x564 JUMP JUMPDEST JUMPDEST PUSH2 0x5FF DUP3 PUSH2 0x554 JUMP JUMPDEST SWAP1 POP PUSH1 0x20 DUP2 ADD SWAP1 POP SWAP2 SWAP1 POP JUMP JUMPDEST DUP3 DUP2 DUP4 CALLDATACOPY PUSH0 DUP4 DUP4 ADD MSTORE POP POP POP JUMP JUMPDEST PUSH0 PUSH2 0x62C PUSH2 0x627 DUP5 PUSH2 0x5DC JUMP JUMPDEST PUSH2 0x5C2 JUMP JUMPDEST SWAP1 POP DUP3 DUP2 MSTORE PUSH1 0x20 DUP2 ADD DUP5 DUP5 DUP5 ADD GT ISZERO PUSH2 0x648 JUMPI PUSH2 0x647 PUSH2 0x550 JUMP JUMPDEST JUMPDEST PUSH2 0x653 DUP5 DUP3 DUP6 PUSH2 0x60C JUMP JUMPDEST POP SWAP4 SWAP3 POP POP POP JUMP JUMPDEST PUSH0 DUP3 PUSH1 0x1F DUP4 ADD SLT PUSH2 0x66F JUMPI PUSH2 0x66E PUSH2 0x54C JUMP JUMPDEST JUMPDEST DUP2 CALLDATALOAD PUSH2 0x67F DUP5 DUP3 PUSH1 0x20 DUP7 ADD PUSH2 0x61A JUMP JUMPDEST SWAP2 POP POP SWAP3 SWAP2 POP POP JUMP JUMPDEST PUSH0 PUSH1 0x20 DUP3 DUP5 SUB SLT ISZERO PUSH2 0x69D JUMPI PUSH2 0x69C PUSH2 0x48E JUMP JUMPDEST JUMPDEST PUSH0 DUP3 ADD CALLDATALOAD PUSH8 0xFFFFFFFFFFFFFFFF DUP2 GT ISZERO PUSH2 0x6BA JUMPI PUSH2 0x6B9 PUSH2 0x492 JUMP JUMPDEST JUMPDEST PUSH2 0x6C6 DUP5 DUP3 DUP6 ADD PUSH2 0x65B JUMP JUMPDEST SWAP2 POP POP SWAP3 SWAP2 POP POP JUMP JUMPDEST PUSH2 0x6D8 DUP2 PUSH2 0x4B5 JUMP JUMPDEST DUP3 MSTORE POP POP JUMP JUMPDEST PUSH0 PUSH1 0x20 DUP3 ADD SWAP1 POP PUSH2 0x6F1 PUSH0 DUP4 ADD DUP5 PUSH2 0x6CF JUMP JUMPDEST SWAP3 SWAP2 POP POP JUMP JUMPDEST PUSH2 0x700 DUP2 PUSH2 0x51B JUMP JUMPDEST DUP2 EQ PUSH2 0x70A JUMPI PUSH0 PUSH0 REVERT JUMPDEST POP JUMP JUMPDEST PUSH0 DUP2 CALLDATALOAD SWAP1 POP PUSH2 0x71B DUP2 PUSH2 0x6F7 JUMP JUMPDEST SWAP3 SWAP2 POP POP JUMP JUMPDEST PUSH0 PUSH1 0x20 DUP3 DUP5 SUB SLT ISZERO PUSH2 0x736 JUMPI PUSH2 0x735 PUSH2 0x48E JUMP JUMPDEST JUMPDEST PUSH0 PUSH2 0x743 DUP5 DUP3 DUP6 ADD PUSH2 0x70D JUMP JUMPDEST SWAP2 POP POP SWAP3 SWAP2 POP POP JUMP JUMPDEST PUSH0 DUP2 MLOAD SWAP1 POP SWAP2 SWAP1 POP JUMP JUMPDEST PUSH0 DUP3 DUP3 MSTORE PUSH1 0x20 DUP3 ADD SWAP1 POP SWAP3 SWAP2 POP POP JUMP JUMPDEST DUP3 DUP2 DUP4 MCOPY PUSH0 DUP4 DUP4 ADD MSTORE POP POP POP JUMP JUMPDEST PUSH0 PUSH2 0x77E DUP3 PUSH2 0x74C JUMP JUMPDEST PUSH2 0x788 DUP2 DUP6 PUSH2 0x756 JUMP JUMPDEST SWAP4 POP PUSH2 0x798 DUP2 DUP6 PUSH1 0x20 DUP7 ADD PUSH2 0x766 JUMP JUMPDEST PUSH2 0x7A1 DUP2 PUSH2 0x554 JUMP JUMPDEST DUP5 ADD SWAP2 POP POP SWAP3 SWAP2 POP POP JUMP JUMPDEST PUSH0 PUSH1 0x20 DUP3 ADD SWAP1 POP DUP2 DUP2 SUB PUSH0 DUP4 ADD MSTORE PUSH2 0x7C4 DUP2 DUP5 PUSH2 0x774 JUMP JUMPDEST SWAP1 POP SWAP3 SWAP2 POP POP JUMP JUMPDEST PUSH32 0x4E487B7100000000000000000000000000000000000000000000000000000000 PUSH0 MSTORE PUSH1 0x11 PUSH1 0x4 MSTORE PUSH1 0x24 PUSH0 REVERT JUMPDEST PUSH0 PUSH2 0x803 DUP3 PUSH2 0x51B JUMP JUMPDEST SWAP2 POP PUSH2 0x80E DUP4 PUSH2 0x51B JUMP JUMPDEST SWAP3 POP DUP3 DUP3 ADD SWAP1 POP DUP1 DUP3 GT ISZERO PUSH2 0x826 JUMPI PUSH2 0x825 PUSH2 0x7CC JUMP JUMPDEST JUMPDEST SWAP3 SWAP2 POP POP JUMP JUMPDEST PUSH32 0x4E487B7100000000000000000000000000000000000000000000000000000000 PUSH0 MSTORE PUSH1 0x22 PUSH1 0x4 MSTORE PUSH1 0x24 PUSH0 REVERT JUMPDEST PUSH0 PUSH1 0x2 DUP3 DIV SWAP1 POP PUSH1 0x1 DUP3 AND DUP1 PUSH2 0x870 JUMPI PUSH1 0x7F DUP3 AND SWAP2 POP JUMPDEST PUSH1 0x20 DUP3 LT DUP2 SUB PUSH2 0x883 JUMPI PUSH2 0x882 PUSH2 0x82C JUMP JUMPDEST JUMPDEST POP SWAP2 SWAP1 POP JUMP JUMPDEST PUSH0 DUP2 SWAP1 POP DUP2 PUSH0 MSTORE PUSH1 0x20 PUSH0 KECCAK256 SWAP1 POP SWAP2 SWAP1 POP JUMP JUMPDEST PUSH0 PUSH1 0x20 PUSH1 0x1F DUP4 ADD DIV SWAP1 POP SWAP2 SWAP1 POP JUMP JUMPDEST PUSH0 DUP3 DUP3 SHL SWAP1 POP SWAP3 SWAP2 POP POP JUMP JUMPDEST PUSH0 PUSH1 0x8 DUP4 MUL PUSH2 0x8E5 PUSH32 0xFFFFFFFFFFFFFFFFFFFFFFFFFFFFFFFFFFFFFFFFFFFFFFFFFFFFFFFFFFFFFFFF DUP3 PUSH2 0x8AA JUMP JUMPDEST PUSH2 0x8EF DUP7 DUP4 PUSH2 0x8AA JUMP JUMPDEST SWAP6 POP DUP1 NOT DUP5 AND SWAP4 POP DUP1 DUP7 AND DUP5 OR SWAP3 POP POP POP SWAP4 SWAP3 POP POP POP JUMP JUMPDEST PUSH0 DUP2 SWAP1 POP SWAP2 SWAP1 POP JUMP JUMPDEST PUSH0 PUSH2 0x92A PUSH2 0x925 PUSH2 0x920 DUP5 PUSH2 0x51B JUMP JUMPDEST PUSH2 0x907 JUMP JUMPDEST PUSH2 0x51B JUMP JUMPDEST SWAP1 POP SWAP2 SWAP1 POP JUMP JUMPDEST PUSH0 DUP2 SWAP1 POP SWAP2 SWAP1 POP JUMP JUMPDEST PUSH2 0x943 DUP4 PUSH2 0x910 JUMP JUMPDEST PUSH2 0x957 PUSH2 0x94F DUP3 PUSH2 0x931 JUMP JUMPDEST DUP5 DUP5 SLOAD PUSH2 0x8B6 JUMP JUMPDEST DUP3 SSTORE POP POP POP POP JUMP JUMPDEST PUSH0 PUSH0 SWAP1 POP SWAP1 JUMP JUMPDEST PUSH2 0x96E PUSH2 0x95F JUMP JUMPDEST PUSH2 0x979 DUP2 DUP5 DUP5 PUSH2 0x93A JUMP JUMPDEST POP POP POP JUMP JUMPDEST JUMPDEST DUP2 DUP2 LT ISZERO PUSH2 0x99C JUMPI PUSH2 0x991 PUSH0 DUP3 PUSH2 0x966 JUMP JUMPDEST PUSH1 0x1 DUP2 ADD SWAP1 POP PUSH2 0x97F JUMP JUMPDEST POP POP JUMP JUMPDEST PUSH1 0x1F DUP3 GT ISZERO PUSH2 0x9E1 JUMPI PUSH2 0x9B2 DUP2 PUSH2 0x889 JUMP JUMPDEST PUSH2 0x9BB DUP5 PUSH2 0x89B JUMP JUMPDEST DUP2 ADD PUSH1 0x20 DUP6 LT ISZERO PUSH2 0x9CA JUMPI DUP2 SWAP1 POP JUMPDEST PUSH2 0x9DE PUSH2 0x9D6 DUP6 PUSH2 0x89B JUMP JUMPDEST DUP4 ADD DUP3 PUSH2 0x97E JUMP JUMPDEST POP POP JUMPDEST POP POP POP JUMP JUMPDEST PUSH0 DUP3 DUP3 SHR SWAP1 POP SWAP3 SWAP2 POP POP JUMP JUMPDEST PUSH0 PUSH2 0xA01 PUSH0 NOT DUP5 PUSH1 0x8 MUL PUSH2 0x9E6 JUMP JUMPDEST NOT DUP1 DUP4 AND SWAP2 POP POP SWAP3 SWAP2 POP POP JUMP JUMPDEST PUSH0 PUSH2 0xA19 DUP4 DUP4 PUSH2 0x9F2 JUMP JUMPDEST SWAP2 POP DUP3 PUSH1 0x2 MUL DUP3 OR SWAP1 POP SWAP3 SWAP2 POP POP JUMP JUMPDEST PUSH2 0xA32 DUP3 PUSH2 0x74C JUMP JUMPDEST PUSH8 0xFFFFFFFFFFFFFFFF DUP2 GT ISZERO PUSH2 0xA4B JUMPI PUSH2 0xA4A PUSH2 0x564 JUMP JUMPDEST JUMPDEST PUSH2 0xA55 DUP3 SLOAD PUSH2 0x859 JUMP JUMPDEST PUSH2 0xA60 DUP3 DUP3 DUP6 PUSH2 0x9A0 JUMP JUMPDEST PUSH0 PUSH1 0x20 SWAP1 POP PUSH1 0x1F DUP4 GT PUSH1 0x1 DUP2 EQ PUSH2 0xA91 JUMPI PUSH0 DUP5 ISZERO PUSH2 0xA7F JUMPI DUP3 DUP8 ADD MLOAD SWAP1 POP JUMPDEST PUSH2 0xA89 DUP6 DUP3 PUSH2 0xA0E JUMP JUMPDEST DUP7 SSTORE POP PUSH2 0xAF0 JUMP JUMPDEST PUSH1 0x1F NOT DUP5 AND PUSH2 0xA9F DUP7 PUSH2 0x889 JUMP JUMPDEST PUSH0 JUMPDEST DUP3 DUP2 LT ISZERO PUSH2 0xAC6 JUMPI DUP5 DUP10 ADD MLOAD DUP3 SSTORE PUSH1 0x1 DUP3 ADD SWAP2 POP PUSH1 0x20 DUP6 ADD SWAP5 POP PUSH1 0x20 DUP2 ADD SWAP1 POP PUSH2 0xAA1 JUMP JUMPDEST DUP7 DUP4 LT ISZERO PUSH2 0xAE3 JUMPI DUP5 DUP10 ADD MLOAD PUSH2 0xADF PUSH1 0x1F DUP10 AND DUP3 PUSH2 0x9F2 JUMP JUMPDEST DUP4 SSTORE POP JUMPDEST PUSH1 0x1 PUSH1 0x2 DUP9 MUL ADD DUP9 SSTORE POP POP POP JUMPDEST POP POP POP POP POP POP JUMP JUMPDEST PUSH32 0x566F636520707265636973612064652070656C6F206D656E6F7320353020706F PUSH0 DUP3 ADD MSTORE PUSH32 0x6E746F7300000000000000000000000000000000000000000000000000000000 PUSH1 0x20 DUP3 ADD MSTORE POP JUMP JUMPDEST PUSH0 PUSH2 0xB52 PUSH1 0x24 DUP4 PUSH2 0x756 JUMP JUMPDEST SWAP2 POP PUSH2 0xB5D DUP3 PUSH2 0xAF8 JUMP JUMPDEST PUSH1 0x40 DUP3 ADD SWAP1 POP SWAP2 SWAP1 POP JUMP JUMPDEST PUSH0 PUSH1 0x20 DUP3 ADD SWAP1 POP DUP2 DUP2 SUB PUSH0 DUP4 ADD MSTORE PUSH2 0xB7F DUP2 PUSH2 0xB46 JUMP JUMPDEST SWAP1 POP SWAP2 SWAP1 POP JUMP JUMPDEST PUSH0 PUSH2 0xB90 DUP3 PUSH2 0x51B JUMP JUMPDEST SWAP2 POP PUSH2 0xB9B DUP4 PUSH2 0x51B JUMP JUMPDEST SWAP3 POP DUP3 DUP3 SUB SWAP1 POP DUP2 DUP2 GT ISZERO PUSH2 0xBB3 JUMPI PUSH2 0xBB2 PUSH2 0x7CC JUMP JUMPDEST JUMPDEST SWAP3 SWAP2 POP POP JUMP INVALID LOG2 PUSH5 0x6970667358 0x22 SLT KECCAK256 0xB8 MSTORE8 CALLVALUE REVERT 0xBE DUP4 TSTORE 0xAA PUSH27 0x77B305F1AF6A1E79D6635AC701ECFDA3C2E6CC2BD0AA8C64736F6C PUSH4 0x4300081E STOP CALLER "
				},
				"gasEstimates": {
					"creation": {
						"codeDepositCost": "611000",
						"executionCost": "24907",
						"totalCost": "635907"
					},
					"external": {
						"Listaconcluida(uint256)": "infinite",
						"Owner()": "2551",
						"ResgataRecompensa()": "infinite",
						"TarefaConcluida(string)": "infinite",
						"TotalTarefa()": "2462",
						"VerDiheiro()": "2542",
						"pontos(address)": "2803"
					}
				},
				"methodIdentifiers": {
					"Listaconcluida(uint256)": "c86508a0",
					"Owner()": "b4a99a4e",
					"ResgataRecompensa()": "99c74a77",
					"TarefaConcluida(string)": "1c012964",
					"TotalTarefa()": "a5086c08",
					"VerDiheiro()": "15a21ba8",
					"pontos(address)": "0628241a"
				}
			},
			"storageLayout": {
				"storage": [
					{
						"astId": 3,
						"contract": "Introdução ao Solidity/ExerciciosDeTeste/Sistema de Recompensa.sol:SistemaRecompensa",
						"label": "Owner",
						"offset": 0,
						"slot": "0",
						"type": "t_address"
					},
					{
						"astId": 7,
						"contract": "Introdução ao Solidity/ExerciciosDeTeste/Sistema de Recompensa.sol:SistemaRecompensa",
						"label": "pontos",
						"offset": 0,
						"slot": "1",
						"type": "t_mapping(t_address,t_uint256)"
					},
					{
						"astId": 10,
						"contract": "Introdução ao Solidity/ExerciciosDeTeste/Sistema de Recompensa.sol:SistemaRecompensa",
						"label": "Listaconcluida",
						"offset": 0,
						"slot": "2",
						"type": "t_array(t_string_storage)dyn_storage"
					},
					{
						"astId": 14,
						"contract": "Introdução ao Solidity/ExerciciosDeTeste/Sistema de Recompensa.sol:SistemaRecompensa",
						"label": "dinheiro",
						"offset": 0,
						"slot": "3",
						"type": "t_mapping(t_address,t_uint256)"
					}
				],
				"types": {
					"t_address": {
						"encoding": "inplace",
						"label": "address",
						"numberOfBytes": "20"
					},
					"t_array(t_string_storage)dyn_storage": {
						"base": "t_string_storage",
						"encoding": "dynamic_array",
						"label": "string[]",
						"numberOfBytes": "32"
					},
					"t_mapping(t_address,t_uint256)": {
						"encoding": "mapping",
						"key": "t_address",
						"label": "mapping(address => uint256)",
						"numberOfBytes": "32",
						"value": "t_uint256"
					},
					"t_string_storage": {
						"encoding": "bytes",
						"label": "string",
						"numberOfBytes": "32"
					},
					"t_uint256": {
						"encoding": "inplace",
						"label": "uint256",
						"numberOfBytes": "32"
					}
				}
			},
			"userdoc": {
				"kind": "user",
				"methods": {},
				"version": 1
			}
		}
	}
}