{
	"Introdução ao Solidity/Aprenda Solidity/Usando interfaces.sol": {
		"Execultor": {
			"abi": [
				{
					"inputs": [
						{
							"internalType": "uint256",
							"name": "_valor",
							"type": "uint256"
						},
						{
							"internalType": "address",
							"name": "_endereco",
							"type": "address"
						}
					],
					"name": "ExecultaralterarValor",
					"outputs": [],
					"stateMutability": "nonpayable",
					"type": "function"
				},
				{
					"inputs": [
						{
							"internalType": "uint256",
							"name": "_valor",
							"type": "uint256"
						},
						{
							"internalType": "address",
							"name": "_endereco",
							"type": "address"
						}
					],
					"name": "ExecultoralterarIValor",
					"outputs": [],
					"stateMutability": "nonpayable",
					"type": "function"
				}
			],
			"devdoc": {
				"kind": "dev",
				"methods": {},
				"version": 1
			},
			"evm": {
				"assembly": "    /* \"Introdu\\xc3\\xa7\\xc3\\xa3o ao Solidity/Aprenda Solidity/Usando interfaces.sol\":469:1169  contract Execultor{... */\n  mstore(0x40, 0x80)\n  callvalue\n  dup1\n  iszero\n  tag_1\n  jumpi\n  revert(0x00, 0x00)\ntag_1:\n  pop\n  dataSize(sub_0)\n  dup1\n  dataOffset(sub_0)\n  0x00\n  codecopy\n  0x00\n  return\nstop\n\nsub_0: assembly {\n        /* \"Introdu\\xc3\\xa7\\xc3\\xa3o ao Solidity/Aprenda Solidity/Usando interfaces.sol\":469:1169  contract Execultor{... */\n      mstore(0x40, 0x80)\n      callvalue\n      dup1\n      iszero\n      tag_1\n      jumpi\n      revert(0x00, 0x00)\n    tag_1:\n      pop\n      jumpi(tag_2, lt(calldatasize, 0x04))\n      shr(0xe0, calldataload(0x00))\n      dup1\n      0x13a1c42e\n      eq\n      tag_3\n      jumpi\n      dup1\n      0xa46dbbf8\n      eq\n      tag_4\n      jumpi\n    tag_2:\n      revert(0x00, 0x00)\n        /* \"Introdu\\xc3\\xa7\\xc3\\xa3o ao Solidity/Aprenda Solidity/Usando interfaces.sol\":494:876  function ExecultaralterarValor(uint _valor, address _endereco) public {... */\n    tag_3:\n      tag_5\n      0x04\n      dup1\n      calldatasize\n      sub\n      dup2\n      add\n      swap1\n      tag_6\n      swap2\n      swap1\n      tag_7\n      jump\t// in\n    tag_6:\n      tag_8\n      jump\t// in\n    tag_5:\n      stop\n        /* \"Introdu\\xc3\\xa7\\xc3\\xa3o ao Solidity/Aprenda Solidity/Usando interfaces.sol\":882:1167  function ExecultoralterarIValor(uint _valor, address _endereco) public {... */\n    tag_4:\n      tag_9\n      0x04\n      dup1\n      calldatasize\n      sub\n      dup2\n      add\n      swap1\n      tag_10\n      swap2\n      swap1\n      tag_7\n      jump\t// in\n    tag_10:\n      tag_11\n      jump\t// in\n    tag_9:\n      stop\n        /* \"Introdu\\xc3\\xa7\\xc3\\xa3o ao Solidity/Aprenda Solidity/Usando interfaces.sol\":494:876  function ExecultaralterarValor(uint _valor, address _endereco) public {... */\n    tag_8:\n        /* \"Introdu\\xc3\\xa7\\xc3\\xa3o ao Solidity/Aprenda Solidity/Usando interfaces.sol\":575:590  Valor valozinho */\n      0x00\n        /* \"Introdu\\xc3\\xa7\\xc3\\xa3o ao Solidity/Aprenda Solidity/Usando interfaces.sol\":599:608  _endereco */\n      dup2\n        /* \"Introdu\\xc3\\xa7\\xc3\\xa3o ao Solidity/Aprenda Solidity/Usando interfaces.sol\":575:609  Valor valozinho = Valor(_endereco) */\n      swap1\n      pop\n        /* \"Introdu\\xc3\\xa7\\xc3\\xa3o ao Solidity/Aprenda Solidity/Usando interfaces.sol\":619:628  valozinho */\n      dup1\n        /* \"Introdu\\xc3\\xa7\\xc3\\xa3o ao Solidity/Aprenda Solidity/Usando interfaces.sol\":619:641  valozinho.alterarValor */\n      0xffffffffffffffffffffffffffffffffffffffff\n      and\n      0xdf277f21\n        /* \"Introdu\\xc3\\xa7\\xc3\\xa3o ao Solidity/Aprenda Solidity/Usando interfaces.sol\":642:648  _valor */\n      dup5\n        /* \"Introdu\\xc3\\xa7\\xc3\\xa3o ao Solidity/Aprenda Solidity/Usando interfaces.sol\":619:649  valozinho.alterarValor(_valor) */\n      mload(0x40)\n      dup3\n      0xffffffff\n      and\n      0xe0\n      shl\n      dup2\n      mstore\n      0x04\n      add\n      tag_13\n      swap2\n      swap1\n      tag_14\n      jump\t// in\n    tag_13:\n      0x20\n      mload(0x40)\n      dup1\n      dup4\n      sub\n      dup2\n      0x00\n      dup8\n      gas\n      call\n      iszero\n      dup1\n      iszero\n      tag_16\n      jumpi\n      returndatacopy(0x00, 0x00, returndatasize)\n      revert(0x00, returndatasize)\n    tag_16:\n      pop\n      pop\n      pop\n      pop\n      mload(0x40)\n      returndatasize\n      not(0x1f)\n      0x1f\n      dup3\n      add\n      and\n      dup3\n      add\n      dup1\n      0x40\n      mstore\n      pop\n      dup2\n      add\n      swap1\n      tag_17\n      swap2\n      swap1\n      tag_18\n      jump\t// in\n    tag_17:\n      pop\n        /* \"Introdu\\xc3\\xa7\\xc3\\xa3o ao Solidity/Aprenda Solidity/Usando interfaces.sol\":564:876  {... */\n      pop\n        /* \"Introdu\\xc3\\xa7\\xc3\\xa3o ao Solidity/Aprenda Solidity/Usando interfaces.sol\":494:876  function ExecultaralterarValor(uint _valor, address _endereco) public {... */\n      pop\n      pop\n      jump\t// out\n        /* \"Introdu\\xc3\\xa7\\xc3\\xa3o ao Solidity/Aprenda Solidity/Usando interfaces.sol\":882:1167  function ExecultoralterarIValor(uint _valor, address _endereco) public {... */\n    tag_11:\n        /* \"Introdu\\xc3\\xa7\\xc3\\xa3o ao Solidity/Aprenda Solidity/Usando interfaces.sol\":963:979  Ivalor valozinho */\n      0x00\n        /* \"Introdu\\xc3\\xa7\\xc3\\xa3o ao Solidity/Aprenda Solidity/Usando interfaces.sol\":989:998  _endereco */\n      dup2\n        /* \"Introdu\\xc3\\xa7\\xc3\\xa3o ao Solidity/Aprenda Solidity/Usando interfaces.sol\":963:999  Ivalor valozinho = Ivalor(_endereco) */\n      swap1\n      pop\n        /* \"Introdu\\xc3\\xa7\\xc3\\xa3o ao Solidity/Aprenda Solidity/Usando interfaces.sol\":1009:1018  valozinho */\n      dup1\n        /* \"Introdu\\xc3\\xa7\\xc3\\xa3o ao Solidity/Aprenda Solidity/Usando interfaces.sol\":1009:1031  valozinho.alterarValor */\n      0xffffffffffffffffffffffffffffffffffffffff\n      and\n      0xdf277f21\n        /* \"Introdu\\xc3\\xa7\\xc3\\xa3o ao Solidity/Aprenda Solidity/Usando interfaces.sol\":1032:1038  _valor */\n      dup5\n        /* \"Introdu\\xc3\\xa7\\xc3\\xa3o ao Solidity/Aprenda Solidity/Usando interfaces.sol\":1009:1039  valozinho.alterarValor(_valor) */\n      mload(0x40)\n      dup3\n      0xffffffff\n      and\n      0xe0\n      shl\n      dup2\n      mstore\n      0x04\n      add\n      tag_20\n      swap2\n      swap1\n      tag_14\n      jump\t// in\n    tag_20:\n      0x20\n      mload(0x40)\n      dup1\n      dup4\n      sub\n      dup2\n      0x00\n      dup8\n      gas\n      call\n      iszero\n      dup1\n      iszero\n      tag_22\n      jumpi\n      returndatacopy(0x00, 0x00, returndatasize)\n      revert(0x00, returndatasize)\n    tag_22:\n      pop\n      pop\n      pop\n      pop\n      mload(0x40)\n      returndatasize\n      not(0x1f)\n      0x1f\n      dup3\n      add\n      and\n      dup3\n      add\n      dup1\n      0x40\n      mstore\n      pop\n      dup2\n      add\n      swap1\n      tag_23\n      swap2\n      swap1\n      tag_18\n      jump\t// in\n    tag_23:\n      pop\n        /* \"Introdu\\xc3\\xa7\\xc3\\xa3o ao Solidity/Aprenda Solidity/Usando interfaces.sol\":953:1167  {... */\n      pop\n        /* \"Introdu\\xc3\\xa7\\xc3\\xa3o ao Solidity/Aprenda Solidity/Usando interfaces.sol\":882:1167  function ExecultoralterarIValor(uint _valor, address _endereco) public {... */\n      pop\n      pop\n      jump\t// out\n        /* \"#utility.yul\":88:205   */\n    tag_25:\n        /* \"#utility.yul\":197:198   */\n      0x00\n        /* \"#utility.yul\":194:195   */\n      0x00\n        /* \"#utility.yul\":187:199   */\n      revert\n        /* \"#utility.yul\":334:411   */\n    tag_27:\n        /* \"#utility.yul\":371:378   */\n      0x00\n        /* \"#utility.yul\":400:405   */\n      dup2\n        /* \"#utility.yul\":389:405   */\n      swap1\n      pop\n        /* \"#utility.yul\":334:411   */\n      swap2\n      swap1\n      pop\n      jump\t// out\n        /* \"#utility.yul\":417:539   */\n    tag_28:\n        /* \"#utility.yul\":490:514   */\n      tag_42\n        /* \"#utility.yul\":508:513   */\n      dup2\n        /* \"#utility.yul\":490:514   */\n      tag_27\n      jump\t// in\n    tag_42:\n        /* \"#utility.yul\":483:488   */\n      dup2\n        /* \"#utility.yul\":480:515   */\n      eq\n        /* \"#utility.yul\":470:533   */\n      tag_43\n      jumpi\n        /* \"#utility.yul\":529:530   */\n      0x00\n        /* \"#utility.yul\":526:527   */\n      0x00\n        /* \"#utility.yul\":519:531   */\n      revert\n        /* \"#utility.yul\":470:533   */\n    tag_43:\n        /* \"#utility.yul\":417:539   */\n      pop\n      jump\t// out\n        /* \"#utility.yul\":545:684   */\n    tag_29:\n        /* \"#utility.yul\":591:596   */\n      0x00\n        /* \"#utility.yul\":629:635   */\n      dup2\n        /* \"#utility.yul\":616:636   */\n      calldataload\n        /* \"#utility.yul\":607:636   */\n      swap1\n      pop\n        /* \"#utility.yul\":645:678   */\n      tag_45\n        /* \"#utility.yul\":672:677   */\n      dup2\n        /* \"#utility.yul\":645:678   */\n      tag_28\n      jump\t// in\n    tag_45:\n        /* \"#utility.yul\":545:684   */\n      swap3\n      swap2\n      pop\n      pop\n      jump\t// out\n        /* \"#utility.yul\":690:816   */\n    tag_30:\n        /* \"#utility.yul\":727:734   */\n      0x00\n        /* \"#utility.yul\":767:809   */\n      0xffffffffffffffffffffffffffffffffffffffff\n        /* \"#utility.yul\":760:765   */\n      dup3\n        /* \"#utility.yul\":756:810   */\n      and\n        /* \"#utility.yul\":745:810   */\n      swap1\n      pop\n        /* \"#utility.yul\":690:816   */\n      swap2\n      swap1\n      pop\n      jump\t// out\n        /* \"#utility.yul\":822:918   */\n    tag_31:\n        /* \"#utility.yul\":859:866   */\n      0x00\n        /* \"#utility.yul\":888:912   */\n      tag_48\n        /* \"#utility.yul\":906:911   */\n      dup3\n        /* \"#utility.yul\":888:912   */\n      tag_30\n      jump\t// in\n    tag_48:\n        /* \"#utility.yul\":877:912   */\n      swap1\n      pop\n        /* \"#utility.yul\":822:918   */\n      swap2\n      swap1\n      pop\n      jump\t// out\n        /* \"#utility.yul\":924:1046   */\n    tag_32:\n        /* \"#utility.yul\":997:1021   */\n      tag_50\n        /* \"#utility.yul\":1015:1020   */\n      dup2\n        /* \"#utility.yul\":997:1021   */\n      tag_31\n      jump\t// in\n    tag_50:\n        /* \"#utility.yul\":990:995   */\n      dup2\n        /* \"#utility.yul\":987:1022   */\n      eq\n        /* \"#utility.yul\":977:1040   */\n      tag_51\n      jumpi\n        /* \"#utility.yul\":1036:1037   */\n      0x00\n        /* \"#utility.yul\":1033:1034   */\n      0x00\n        /* \"#utility.yul\":1026:1038   */\n      revert\n        /* \"#utility.yul\":977:1040   */\n    tag_51:\n        /* \"#utility.yul\":924:1046   */\n      pop\n      jump\t// out\n        /* \"#utility.yul\":1052:1191   */\n    tag_33:\n        /* \"#utility.yul\":1098:1103   */\n      0x00\n        /* \"#utility.yul\":1136:1142   */\n      dup2\n        /* \"#utility.yul\":1123:1143   */\n      calldataload\n        /* \"#utility.yul\":1114:1143   */\n      swap1\n      pop\n        /* \"#utility.yul\":1152:1185   */\n      tag_53\n        /* \"#utility.yul\":1179:1184   */\n      dup2\n        /* \"#utility.yul\":1152:1185   */\n      tag_32\n      jump\t// in\n    tag_53:\n        /* \"#utility.yul\":1052:1191   */\n      swap3\n      swap2\n      pop\n      pop\n      jump\t// out\n        /* \"#utility.yul\":1197:1671   */\n    tag_7:\n        /* \"#utility.yul\":1265:1271   */\n      0x00\n        /* \"#utility.yul\":1273:1279   */\n      0x00\n        /* \"#utility.yul\":1322:1324   */\n      0x40\n        /* \"#utility.yul\":1310:1319   */\n      dup4\n        /* \"#utility.yul\":1301:1308   */\n      dup6\n        /* \"#utility.yul\":1297:1320   */\n      sub\n        /* \"#utility.yul\":1293:1325   */\n      slt\n        /* \"#utility.yul\":1290:1409   */\n      iszero\n      tag_55\n      jumpi\n        /* \"#utility.yul\":1328:1407   */\n      tag_56\n      tag_25\n      jump\t// in\n    tag_56:\n        /* \"#utility.yul\":1290:1409   */\n    tag_55:\n        /* \"#utility.yul\":1448:1449   */\n      0x00\n        /* \"#utility.yul\":1473:1526   */\n      tag_57\n        /* \"#utility.yul\":1518:1525   */\n      dup6\n        /* \"#utility.yul\":1509:1515   */\n      dup3\n        /* \"#utility.yul\":1498:1507   */\n      dup7\n        /* \"#utility.yul\":1494:1516   */\n      add\n        /* \"#utility.yul\":1473:1526   */\n      tag_29\n      jump\t// in\n    tag_57:\n        /* \"#utility.yul\":1463:1526   */\n      swap3\n      pop\n        /* \"#utility.yul\":1419:1536   */\n      pop\n        /* \"#utility.yul\":1575:1577   */\n      0x20\n        /* \"#utility.yul\":1601:1654   */\n      tag_58\n        /* \"#utility.yul\":1646:1653   */\n      dup6\n        /* \"#utility.yul\":1637:1643   */\n      dup3\n        /* \"#utility.yul\":1626:1635   */\n      dup7\n        /* \"#utility.yul\":1622:1644   */\n      add\n        /* \"#utility.yul\":1601:1654   */\n      tag_33\n      jump\t// in\n    tag_58:\n        /* \"#utility.yul\":1591:1654   */\n      swap2\n      pop\n        /* \"#utility.yul\":1546:1664   */\n      pop\n        /* \"#utility.yul\":1197:1671   */\n      swap3\n      pop\n      swap3\n      swap1\n      pop\n      jump\t// out\n        /* \"#utility.yul\":1677:1795   */\n    tag_34:\n        /* \"#utility.yul\":1764:1788   */\n      tag_60\n        /* \"#utility.yul\":1782:1787   */\n      dup2\n        /* \"#utility.yul\":1764:1788   */\n      tag_27\n      jump\t// in\n    tag_60:\n        /* \"#utility.yul\":1759:1762   */\n      dup3\n        /* \"#utility.yul\":1752:1789   */\n      mstore\n        /* \"#utility.yul\":1677:1795   */\n      pop\n      pop\n      jump\t// out\n        /* \"#utility.yul\":1801:2023   */\n    tag_14:\n        /* \"#utility.yul\":1894:1898   */\n      0x00\n        /* \"#utility.yul\":1932:1934   */\n      0x20\n        /* \"#utility.yul\":1921:1930   */\n      dup3\n        /* \"#utility.yul\":1917:1935   */\n      add\n        /* \"#utility.yul\":1909:1935   */\n      swap1\n      pop\n        /* \"#utility.yul\":1945:2016   */\n      tag_62\n        /* \"#utility.yul\":2013:2014   */\n      0x00\n        /* \"#utility.yul\":2002:2011   */\n      dup4\n        /* \"#utility.yul\":1998:2015   */\n      add\n        /* \"#utility.yul\":1989:1995   */\n      dup5\n        /* \"#utility.yul\":1945:2016   */\n      tag_34\n      jump\t// in\n    tag_62:\n        /* \"#utility.yul\":1801:2023   */\n      swap3\n      swap2\n      pop\n      pop\n      jump\t// out\n        /* \"#utility.yul\":2029:2172   */\n    tag_35:\n        /* \"#utility.yul\":2086:2091   */\n      0x00\n        /* \"#utility.yul\":2117:2123   */\n      dup2\n        /* \"#utility.yul\":2111:2124   */\n      mload\n        /* \"#utility.yul\":2102:2124   */\n      swap1\n      pop\n        /* \"#utility.yul\":2133:2166   */\n      tag_64\n        /* \"#utility.yul\":2160:2165   */\n      dup2\n        /* \"#utility.yul\":2133:2166   */\n      tag_28\n      jump\t// in\n    tag_64:\n        /* \"#utility.yul\":2029:2172   */\n      swap3\n      swap2\n      pop\n      pop\n      jump\t// out\n        /* \"#utility.yul\":2178:2529   */\n    tag_18:\n        /* \"#utility.yul\":2248:2254   */\n      0x00\n        /* \"#utility.yul\":2297:2299   */\n      0x20\n        /* \"#utility.yul\":2285:2294   */\n      dup3\n        /* \"#utility.yul\":2276:2283   */\n      dup5\n        /* \"#utility.yul\":2272:2295   */\n      sub\n        /* \"#utility.yul\":2268:2300   */\n      slt\n        /* \"#utility.yul\":2265:2384   */\n      iszero\n      tag_66\n      jumpi\n        /* \"#utility.yul\":2303:2382   */\n      tag_67\n      tag_25\n      jump\t// in\n    tag_67:\n        /* \"#utility.yul\":2265:2384   */\n    tag_66:\n        /* \"#utility.yul\":2423:2424   */\n      0x00\n        /* \"#utility.yul\":2448:2512   */\n      tag_68\n        /* \"#utility.yul\":2504:2511   */\n      dup5\n        /* \"#utility.yul\":2495:2501   */\n      dup3\n        /* \"#utility.yul\":2484:2493   */\n      dup6\n        /* \"#utility.yul\":2480:2502   */\n      add\n        /* \"#utility.yul\":2448:2512   */\n      tag_35\n      jump\t// in\n    tag_68:\n        /* \"#utility.yul\":2438:2512   */\n      swap2\n      pop\n        /* \"#utility.yul\":2394:2522   */\n      pop\n        /* \"#utility.yul\":2178:2529   */\n      swap3\n      swap2\n      pop\n      pop\n      jump\t// out\n\n    auxdata: 0xa2646970667358221220f765381ca71e4486781730f8fd6dba522fa3a34b97d60fcab681b69e6d5e094164736f6c634300081e0033\n}\n",
				"bytecode": {
					"linkReferences": {},
					"object": "6080604052348015600e575f5ffd5b506102e28061001c5f395ff3fe608060405234801561000f575f5ffd5b5060043610610034575f3560e01c806313a1c42e14610038578063a46dbbf814610054575b5f5ffd5b610052600480360381019061004d9190610207565b610070565b005b61006e60048036038101906100699190610207565b6100f3565b005b5f8190508073ffffffffffffffffffffffffffffffffffffffff1663df277f21846040518263ffffffff1660e01b81526004016100ad9190610254565b6020604051808303815f875af11580156100c9573d5f5f3e3d5ffd5b505050506040513d601f19601f820116820180604052508101906100ed9190610281565b50505050565b5f8190508073ffffffffffffffffffffffffffffffffffffffff1663df277f21846040518263ffffffff1660e01b81526004016101309190610254565b6020604051808303815f875af115801561014c573d5f5f3e3d5ffd5b505050506040513d601f19601f820116820180604052508101906101709190610281565b50505050565b5f5ffd5b5f819050919050565b61018c8161017a565b8114610196575f5ffd5b50565b5f813590506101a781610183565b92915050565b5f73ffffffffffffffffffffffffffffffffffffffff82169050919050565b5f6101d6826101ad565b9050919050565b6101e6816101cc565b81146101f0575f5ffd5b50565b5f81359050610201816101dd565b92915050565b5f5f6040838503121561021d5761021c610176565b5b5f61022a85828601610199565b925050602061023b858286016101f3565b9150509250929050565b61024e8161017a565b82525050565b5f6020820190506102675f830184610245565b92915050565b5f8151905061027b81610183565b92915050565b5f6020828403121561029657610295610176565b5b5f6102a38482850161026d565b9150509291505056fea2646970667358221220f765381ca71e4486781730f8fd6dba522fa3a34b97d60fcab681b69e6d5e094164736f6c634300081e0033",
					"opcodes": "PUSH1 0x80 PUSH1 0x40 MSTORE CALLVALUE DUP1 ISZERO PUSH1 0xE JUMPI PUSH0 PUSH0 REVERT JUMPDEST POP PUSH2 0x2E2 DUP1 PUSH2 0x1C PUSH0 CODECOPY PUSH0 RETURN INVALID PUSH1 0x80 PUSH1 0x40 MSTORE CALLVALUE DUP1 ISZERO PUSH2 0xF JUMPI PUSH0 PUSH0 REVERT JUMPDEST POP PUSH1 0x4 CALLDATASIZE LT PUSH2 0x34 JUMPI PUSH0 CALLDATALOAD PUSH1 0xE0 SHR DUP1 PUSH4 0x13A1C42E EQ PUSH2 0x38 JUMPI DUP1 PUSH4 0xA46DBBF8 EQ PUSH2 0x54 JUMPI JUMPDEST PUSH0 PUSH0 REVERT JUMPDEST PUSH2 0x52 PUSH1 0x4 DUP1 CALLDATASIZE SUB DUP2 ADD SWAP1 PUSH2 0x4D SWAP2 SWAP1 PUSH2 0x207 JUMP JUMPDEST PUSH2 0x70 JUMP JUMPDEST STOP JUMPDEST PUSH2 0x6E PUSH1 0x4 DUP1 CALLDATASIZE SUB DUP2 ADD SWAP1 PUSH2 0x69 SWAP2 SWAP1 PUSH2 0x207 JUMP JUMPDEST PUSH2 0xF3 JUMP JUMPDEST STOP JUMPDEST PUSH0 DUP2 SWAP1 POP DUP1 PUSH20 0xFFFFFFFFFFFFFFFFFFFFFFFFFFFFFFFFFFFFFFFF AND PUSH4 0xDF277F21 DUP5 PUSH1 0x40 MLOAD DUP3 PUSH4 0xFFFFFFFF AND PUSH1 0xE0 SHL DUP2 MSTORE PUSH1 0x4 ADD PUSH2 0xAD SWAP2 SWAP1 PUSH2 0x254 JUMP JUMPDEST PUSH1 0x20 PUSH1 0x40 MLOAD DUP1 DUP4 SUB DUP2 PUSH0 DUP8 GAS CALL ISZERO DUP1 ISZERO PUSH2 0xC9 JUMPI RETURNDATASIZE PUSH0 PUSH0 RETURNDATACOPY RETURNDATASIZE PUSH0 REVERT JUMPDEST POP POP POP POP PUSH1 0x40 MLOAD RETURNDATASIZE PUSH1 0x1F NOT PUSH1 0x1F DUP3 ADD AND DUP3 ADD DUP1 PUSH1 0x40 MSTORE POP DUP2 ADD SWAP1 PUSH2 0xED SWAP2 SWAP1 PUSH2 0x281 JUMP JUMPDEST POP POP POP POP JUMP JUMPDEST PUSH0 DUP2 SWAP1 POP DUP1 PUSH20 0xFFFFFFFFFFFFFFFFFFFFFFFFFFFFFFFFFFFFFFFF AND PUSH4 0xDF277F21 DUP5 PUSH1 0x40 MLOAD DUP3 PUSH4 0xFFFFFFFF AND PUSH1 0xE0 SHL DUP2 MSTORE PUSH1 0x4 ADD PUSH2 0x130 SWAP2 SWAP1 PUSH2 0x254 JUMP JUMPDEST PUSH1 0x20 PUSH1 0x40 MLOAD DUP1 DUP4 SUB DUP2 PUSH0 DUP8 GAS CALL ISZERO DUP1 ISZERO PUSH2 0x14C JUMPI RETURNDATASIZE PUSH0 PUSH0 RETURNDATACOPY RETURNDATASIZE PUSH0 REVERT JUMPDEST POP POP POP POP PUSH1 0x40 MLOAD RETURNDATASIZE PUSH1 0x1F NOT PUSH1 0x1F DUP3 ADD AND DUP3 ADD DUP1 PUSH1 0x40 MSTORE POP DUP2 ADD SWAP1 PUSH2 0x170 SWAP2 SWAP1 PUSH2 0x281 JUMP JUMPDEST POP POP POP POP JUMP JUMPDEST PUSH0 PUSH0 REVERT JUMPDEST PUSH0 DUP2 SWAP1 POP SWAP2 SWAP1 POP JUMP JUMPDEST PUSH2 0x18C DUP2 PUSH2 0x17A JUMP JUMPDEST DUP2 EQ PUSH2 0x196 JUMPI PUSH0 PUSH0 REVERT JUMPDEST POP JUMP JUMPDEST PUSH0 DUP2 CALLDATALOAD SWAP1 POP PUSH2 0x1A7 DUP2 PUSH2 0x183 JUMP JUMPDEST SWAP3 SWAP2 POP POP JUMP JUMPDEST PUSH0 PUSH20 0xFFFFFFFFFFFFFFFFFFFFFFFFFFFFFFFFFFFFFFFF DUP3 AND SWAP1 POP SWAP2 SWAP1 POP JUMP JUMPDEST PUSH0 PUSH2 0x1D6 DUP3 PUSH2 0x1AD JUMP JUMPDEST SWAP1 POP SWAP2 SWAP1 POP JUMP JUMPDEST PUSH2 0x1E6 DUP2 PUSH2 0x1CC JUMP JUMPDEST DUP2 EQ PUSH2 0x1F0 JUMPI PUSH0 PUSH0 REVERT JUMPDEST POP JUMP JUMPDEST PUSH0 DUP2 CALLDATALOAD SWAP1 POP PUSH2 0x201 DUP2 PUSH2 0x1DD JUMP JUMPDEST SWAP3 SWAP2 POP POP JUMP JUMPDEST PUSH0 PUSH0 PUSH1 0x40 DUP4 DUP6 SUB SLT ISZERO PUSH2 0x21D JUMPI PUSH2 0x21C PUSH2 0x176 JUMP JUMPDEST JUMPDEST PUSH0 PUSH2 0x22A DUP6 DUP3 DUP7 ADD PUSH2 0x199 JUMP JUMPDEST SWAP3 POP POP PUSH1 0x20 PUSH2 0x23B DUP6 DUP3 DUP7 ADD PUSH2 0x1F3 JUMP JUMPDEST SWAP2 POP POP SWAP3 POP SWAP3 SWAP1 POP JUMP JUMPDEST PUSH2 0x24E DUP2 PUSH2 0x17A JUMP JUMPDEST DUP3 MSTORE POP POP JUMP JUMPDEST PUSH0 PUSH1 0x20 DUP3 ADD SWAP1 POP PUSH2 0x267 PUSH0 DUP4 ADD DUP5 PUSH2 0x245 JUMP JUMPDEST SWAP3 SWAP2 POP POP JUMP JUMPDEST PUSH0 DUP2 MLOAD SWAP1 POP PUSH2 0x27B DUP2 PUSH2 0x183 JUMP JUMPDEST SWAP3 SWAP2 POP POP JUMP JUMPDEST PUSH0 PUSH1 0x20 DUP3 DUP5 SUB SLT ISZERO PUSH2 0x296 JUMPI PUSH2 0x295 PUSH2 0x176 JUMP JUMPDEST JUMPDEST PUSH0 PUSH2 0x2A3 DUP5 DUP3 DUP6 ADD PUSH2 0x26D JUMP JUMPDEST SWAP2 POP POP SWAP3 SWAP2 POP POP JUMP INVALID LOG2 PUSH5 0x6970667358 0x22 SLT KECCAK256 0xF7 PUSH6 0x381CA71E4486 PUSH25 0x1730F8FD6DBA522FA3A34B97D60FCAB681B69E6D5E09416473 PUSH16 0x6C634300081E00330000000000000000 "
				},
				"gasEstimates": {
					"creation": {
						"codeDepositCost": "147600",
						"executionCost": "194",
						"totalCost": "147794"
					},
					"external": {
						"ExecultaralterarValor(uint256,address)": "infinite",
						"ExecultoralterarIValor(uint256,address)": "infinite"
					}
				},
				"methodIdentifiers": {
					"ExecultaralterarValor(uint256,address)": "13a1c42e",
					"ExecultoralterarIValor(uint256,address)": "a46dbbf8"
				}
			},
			"storageLayout": {
				"storage": [],
				"types": null
			},
			"userdoc": {
				"kind": "user",
				"methods": {},
				"version": 1
			}
		}
	}
}