{
	"Introdução ao Solidity/Aprenda Solidity/Conversão explícita de tipos 1/2.sol": {
		"Explicita": {
			"abi": [
				{
					"inputs": [],
					"name": "converte",
					"outputs": [
						{
							"internalType": "uint8",
							"name": "",
							"type": "uint8"
						}
					],
					"stateMutability": "pure",
					"type": "function"
				},
				{
					"inputs": [],
					"name": "converte2",
					"outputs": [
						{
							"internalType": "uint8",
							"name": "",
							"type": "uint8"
						}
					],
					"stateMutability": "pure",
					"type": "function"
				},
				{
					"inputs": [],
					"name": "converte3",
					"outputs": [
						{
							"internalType": "bytes1",
							"name": "",
							"type": "bytes1"
						}
					],
					"stateMutability": "pure",
					"type": "function"
				}
			],
			"devdoc": {
				"kind": "dev",
				"methods": {},
				"version": 1
			},
			"evm": {
				"assembly": "    /* \"Introdu\\xc3\\xa7\\xc3\\xa3o ao Solidity/Aprenda Solidity/Convers\\xc3\\xa3o expl\\xc3\\xadcita de tipos 1/2.sol\":61:1489  contract Explicita{... */\n  mstore(0x40, 0x80)\n  callvalue\n  dup1\n  iszero\n  tag_1\n  jumpi\n  revert(0x00, 0x00)\ntag_1:\n  pop\n  dataSize(sub_0)\n  dup1\n  dataOffset(sub_0)\n  0x00\n  codecopy\n  0x00\n  return\nstop\n\nsub_0: assembly {\n        /* \"Introdu\\xc3\\xa7\\xc3\\xa3o ao Solidity/Aprenda Solidity/Convers\\xc3\\xa3o expl\\xc3\\xadcita de tipos 1/2.sol\":61:1489  contract Explicita{... */\n      mstore(0x40, 0x80)\n      callvalue\n      dup1\n      iszero\n      tag_1\n      jumpi\n      revert(0x00, 0x00)\n    tag_1:\n      pop\n      jumpi(tag_2, lt(calldatasize, 0x04))\n      shr(0xe0, calldataload(0x00))\n      dup1\n      0x14e9206e\n      eq\n      tag_3\n      jumpi\n      dup1\n      0x198cc112\n      eq\n      tag_4\n      jumpi\n      dup1\n      0x442ce25f\n      eq\n      tag_5\n      jumpi\n    tag_2:\n      revert(0x00, 0x00)\n        /* \"Introdu\\xc3\\xa7\\xc3\\xa3o ao Solidity/Aprenda Solidity/Convers\\xc3\\xa3o expl\\xc3\\xadcita de tipos 1/2.sol\":774:1207  function converte2() public pure returns (uint8){... */\n    tag_3:\n      tag_6\n      tag_7\n      jump\t// in\n    tag_6:\n      mload(0x40)\n      tag_8\n      swap2\n      swap1\n      tag_9\n      jump\t// in\n    tag_8:\n      mload(0x40)\n      dup1\n      swap2\n      sub\n      swap1\n      return\n        /* \"Introdu\\xc3\\xa7\\xc3\\xa3o ao Solidity/Aprenda Solidity/Convers\\xc3\\xa3o expl\\xc3\\xadcita de tipos 1/2.sol\":1215:1484  function converte3() public pure returns (bytes1){... */\n    tag_4:\n      tag_10\n      tag_11\n      jump\t// in\n    tag_10:\n      mload(0x40)\n      tag_12\n      swap2\n      swap1\n      tag_13\n      jump\t// in\n    tag_12:\n      mload(0x40)\n      dup1\n      swap2\n      sub\n      swap1\n      return\n        /* \"Introdu\\xc3\\xa7\\xc3\\xa3o ao Solidity/Aprenda Solidity/Convers\\xc3\\xa3o expl\\xc3\\xadcita de tipos 1/2.sol\":88:766  function converte() public pure returns (uint8){... */\n    tag_5:\n      tag_14\n      tag_15\n      jump\t// in\n    tag_14:\n      mload(0x40)\n      tag_16\n      swap2\n      swap1\n      tag_9\n      jump\t// in\n    tag_16:\n      mload(0x40)\n      dup1\n      swap2\n      sub\n      swap1\n      return\n        /* \"Introdu\\xc3\\xa7\\xc3\\xa3o ao Solidity/Aprenda Solidity/Convers\\xc3\\xa3o expl\\xc3\\xadcita de tipos 1/2.sol\":774:1207  function converte2() public pure returns (uint8){... */\n    tag_7:\n        /* \"Introdu\\xc3\\xa7\\xc3\\xa3o ao Solidity/Aprenda Solidity/Convers\\xc3\\xa3o expl\\xc3\\xadcita de tipos 1/2.sol\":816:821  uint8 */\n      0x00\n        /* \"Introdu\\xc3\\xa7\\xc3\\xa3o ao Solidity/Aprenda Solidity/Convers\\xc3\\xa3o expl\\xc3\\xadcita de tipos 1/2.sol\":871:884  uint16 numero */\n      0x00\n        /* \"Introdu\\xc3\\xa7\\xc3\\xa3o ao Solidity/Aprenda Solidity/Convers\\xc3\\xa3o expl\\xc3\\xadcita de tipos 1/2.sol\":887:891  6543 */\n      0x198f\n        /* \"Introdu\\xc3\\xa7\\xc3\\xa3o ao Solidity/Aprenda Solidity/Convers\\xc3\\xa3o expl\\xc3\\xadcita de tipos 1/2.sol\":871:891  uint16 numero = 6543 */\n      swap1\n      pop\n        /* \"Introdu\\xc3\\xa7\\xc3\\xa3o ao Solidity/Aprenda Solidity/Convers\\xc3\\xa3o expl\\xc3\\xadcita de tipos 1/2.sol\":931:951  uint8 numeropositivo */\n      0x00\n        /* \"Introdu\\xc3\\xa7\\xc3\\xa3o ao Solidity/Aprenda Solidity/Convers\\xc3\\xa3o expl\\xc3\\xadcita de tipos 1/2.sol\":960:966  numero */\n      dup2\n        /* \"Introdu\\xc3\\xa7\\xc3\\xa3o ao Solidity/Aprenda Solidity/Convers\\xc3\\xa3o expl\\xc3\\xadcita de tipos 1/2.sol\":931:967  uint8 numeropositivo = uint8(numero) */\n      swap1\n      pop\n        /* \"Introdu\\xc3\\xa7\\xc3\\xa3o ao Solidity/Aprenda Solidity/Convers\\xc3\\xa3o expl\\xc3\\xadcita de tipos 1/2.sol\":995:1009  numeropositivo */\n      dup1\n        /* \"Introdu\\xc3\\xa7\\xc3\\xa3o ao Solidity/Aprenda Solidity/Convers\\xc3\\xa3o expl\\xc3\\xadcita de tipos 1/2.sol\":988:1009  return numeropositivo */\n      swap3\n      pop\n      pop\n      pop\n        /* \"Introdu\\xc3\\xa7\\xc3\\xa3o ao Solidity/Aprenda Solidity/Convers\\xc3\\xa3o expl\\xc3\\xadcita de tipos 1/2.sol\":774:1207  function converte2() public pure returns (uint8){... */\n      swap1\n      jump\t// out\n        /* \"Introdu\\xc3\\xa7\\xc3\\xa3o ao Solidity/Aprenda Solidity/Convers\\xc3\\xa3o expl\\xc3\\xadcita de tipos 1/2.sol\":1215:1484  function converte3() public pure returns (bytes1){... */\n    tag_11:\n        /* \"Introdu\\xc3\\xa7\\xc3\\xa3o ao Solidity/Aprenda Solidity/Convers\\xc3\\xa3o expl\\xc3\\xadcita de tipos 1/2.sol\":1257:1263  bytes1 */\n      0x00\n        /* \"Introdu\\xc3\\xa7\\xc3\\xa3o ao Solidity/Aprenda Solidity/Convers\\xc3\\xa3o expl\\xc3\\xadcita de tipos 1/2.sol\":1277:1289  bytes2 maior */\n      0x00\n        /* \"Introdu\\xc3\\xa7\\xc3\\xa3o ao Solidity/Aprenda Solidity/Convers\\xc3\\xa3o expl\\xc3\\xadcita de tipos 1/2.sol\":1292:1298  0x1234 */\n      0x1234\n        /* \"Introdu\\xc3\\xa7\\xc3\\xa3o ao Solidity/Aprenda Solidity/Convers\\xc3\\xa3o expl\\xc3\\xadcita de tipos 1/2.sol\":1277:1298  bytes2 maior = 0x1234 */\n      0xf0\n      shl\n      swap1\n      pop\n        /* \"Introdu\\xc3\\xa7\\xc3\\xa3o ao Solidity/Aprenda Solidity/Convers\\xc3\\xa3o expl\\xc3\\xadcita de tipos 1/2.sol\":1309:1321  bytes1 menor */\n      0x00\n        /* \"Introdu\\xc3\\xa7\\xc3\\xa3o ao Solidity/Aprenda Solidity/Convers\\xc3\\xa3o expl\\xc3\\xadcita de tipos 1/2.sol\":1331:1336  maior */\n      dup2\n        /* \"Introdu\\xc3\\xa7\\xc3\\xa3o ao Solidity/Aprenda Solidity/Convers\\xc3\\xa3o expl\\xc3\\xadcita de tipos 1/2.sol\":1309:1337  bytes1 menor = bytes1(maior) */\n      swap1\n      pop\n        /* \"Introdu\\xc3\\xa7\\xc3\\xa3o ao Solidity/Aprenda Solidity/Convers\\xc3\\xa3o expl\\xc3\\xadcita de tipos 1/2.sol\":1357:1362  menor */\n      dup1\n        /* \"Introdu\\xc3\\xa7\\xc3\\xa3o ao Solidity/Aprenda Solidity/Convers\\xc3\\xa3o expl\\xc3\\xadcita de tipos 1/2.sol\":1350:1362  return menor */\n      swap3\n      pop\n      pop\n      pop\n        /* \"Introdu\\xc3\\xa7\\xc3\\xa3o ao Solidity/Aprenda Solidity/Convers\\xc3\\xa3o expl\\xc3\\xadcita de tipos 1/2.sol\":1215:1484  function converte3() public pure returns (bytes1){... */\n      swap1\n      jump\t// out\n        /* \"Introdu\\xc3\\xa7\\xc3\\xa3o ao Solidity/Aprenda Solidity/Convers\\xc3\\xa3o expl\\xc3\\xadcita de tipos 1/2.sol\":88:766  function converte() public pure returns (uint8){... */\n    tag_15:\n        /* \"Introdu\\xc3\\xa7\\xc3\\xa3o ao Solidity/Aprenda Solidity/Convers\\xc3\\xa3o expl\\xc3\\xadcita de tipos 1/2.sol\":129:134  uint8 */\n      0x00\n        /* \"Introdu\\xc3\\xa7\\xc3\\xa3o ao Solidity/Aprenda Solidity/Convers\\xc3\\xa3o expl\\xc3\\xadcita de tipos 1/2.sol\":148:159  int8 numero */\n      0x00\n        /* \"Introdu\\xc3\\xa7\\xc3\\xa3o ao Solidity/Aprenda Solidity/Convers\\xc3\\xa3o expl\\xc3\\xadcita de tipos 1/2.sol\":162:164  -1 */\n      0xffffffffffffffffffffffffffffffffffffffffffffffffffffffffffffffff\n        /* \"Introdu\\xc3\\xa7\\xc3\\xa3o ao Solidity/Aprenda Solidity/Convers\\xc3\\xa3o expl\\xc3\\xadcita de tipos 1/2.sol\":148:164  int8 numero = -1 */\n      swap1\n      pop\n        /* \"Introdu\\xc3\\xa7\\xc3\\xa3o ao Solidity/Aprenda Solidity/Convers\\xc3\\xa3o expl\\xc3\\xadcita de tipos 1/2.sol\":175:196  uint8  numeroPositivo */\n      0x00\n        /* \"Introdu\\xc3\\xa7\\xc3\\xa3o ao Solidity/Aprenda Solidity/Convers\\xc3\\xa3o expl\\xc3\\xadcita de tipos 1/2.sol\":205:211  numero */\n      dup2\n        /* \"Introdu\\xc3\\xa7\\xc3\\xa3o ao Solidity/Aprenda Solidity/Convers\\xc3\\xa3o expl\\xc3\\xadcita de tipos 1/2.sol\":175:212  uint8  numeroPositivo = uint8(numero) */\n      swap1\n      pop\n        /* \"Introdu\\xc3\\xa7\\xc3\\xa3o ao Solidity/Aprenda Solidity/Convers\\xc3\\xa3o expl\\xc3\\xadcita de tipos 1/2.sol\":240:254  numeroPositivo */\n      dup1\n        /* \"Introdu\\xc3\\xa7\\xc3\\xa3o ao Solidity/Aprenda Solidity/Convers\\xc3\\xa3o expl\\xc3\\xadcita de tipos 1/2.sol\":233:254  return numeroPositivo */\n      swap3\n      pop\n      pop\n      pop\n        /* \"Introdu\\xc3\\xa7\\xc3\\xa3o ao Solidity/Aprenda Solidity/Convers\\xc3\\xa3o expl\\xc3\\xadcita de tipos 1/2.sol\":88:766  function converte() public pure returns (uint8){... */\n      swap1\n      jump\t// out\n        /* \"#utility.yul\":7:93   */\n    tag_20:\n        /* \"#utility.yul\":42:49   */\n      0x00\n        /* \"#utility.yul\":82:86   */\n      0xff\n        /* \"#utility.yul\":75:80   */\n      dup3\n        /* \"#utility.yul\":71:87   */\n      and\n        /* \"#utility.yul\":60:87   */\n      swap1\n      pop\n        /* \"#utility.yul\":7:93   */\n      swap2\n      swap1\n      pop\n      jump\t// out\n        /* \"#utility.yul\":99:211   */\n    tag_21:\n        /* \"#utility.yul\":182:204   */\n      tag_27\n        /* \"#utility.yul\":198:203   */\n      dup2\n        /* \"#utility.yul\":182:204   */\n      tag_20\n      jump\t// in\n    tag_27:\n        /* \"#utility.yul\":177:180   */\n      dup3\n        /* \"#utility.yul\":170:205   */\n      mstore\n        /* \"#utility.yul\":99:211   */\n      pop\n      pop\n      jump\t// out\n        /* \"#utility.yul\":217:431   */\n    tag_9:\n        /* \"#utility.yul\":306:310   */\n      0x00\n        /* \"#utility.yul\":344:346   */\n      0x20\n        /* \"#utility.yul\":333:342   */\n      dup3\n        /* \"#utility.yul\":329:347   */\n      add\n        /* \"#utility.yul\":321:347   */\n      swap1\n      pop\n        /* \"#utility.yul\":357:424   */\n      tag_29\n        /* \"#utility.yul\":421:422   */\n      0x00\n        /* \"#utility.yul\":410:419   */\n      dup4\n        /* \"#utility.yul\":406:423   */\n      add\n        /* \"#utility.yul\":397:403   */\n      dup5\n        /* \"#utility.yul\":357:424   */\n      tag_21\n      jump\t// in\n    tag_29:\n        /* \"#utility.yul\":217:431   */\n      swap3\n      swap2\n      pop\n      pop\n      jump\t// out\n        /* \"#utility.yul\":437:586   */\n    tag_22:\n        /* \"#utility.yul\":473:480   */\n      0x00\n        /* \"#utility.yul\":513:579   */\n      0xff00000000000000000000000000000000000000000000000000000000000000\n        /* \"#utility.yul\":506:511   */\n      dup3\n        /* \"#utility.yul\":502:580   */\n      and\n        /* \"#utility.yul\":491:580   */\n      swap1\n      pop\n        /* \"#utility.yul\":437:586   */\n      swap2\n      swap1\n      pop\n      jump\t// out\n        /* \"#utility.yul\":592:707   */\n    tag_23:\n        /* \"#utility.yul\":677:700   */\n      tag_32\n        /* \"#utility.yul\":694:699   */\n      dup2\n        /* \"#utility.yul\":677:700   */\n      tag_22\n      jump\t// in\n    tag_32:\n        /* \"#utility.yul\":672:675   */\n      dup3\n        /* \"#utility.yul\":665:701   */\n      mstore\n        /* \"#utility.yul\":592:707   */\n      pop\n      pop\n      jump\t// out\n        /* \"#utility.yul\":713:931   */\n    tag_13:\n        /* \"#utility.yul\":804:808   */\n      0x00\n        /* \"#utility.yul\":842:844   */\n      0x20\n        /* \"#utility.yul\":831:840   */\n      dup3\n        /* \"#utility.yul\":827:845   */\n      add\n        /* \"#utility.yul\":819:845   */\n      swap1\n      pop\n        /* \"#utility.yul\":855:924   */\n      tag_34\n        /* \"#utility.yul\":921:922   */\n      0x00\n        /* \"#utility.yul\":910:919   */\n      dup4\n        /* \"#utility.yul\":906:923   */\n      add\n        /* \"#utility.yul\":897:903   */\n      dup5\n        /* \"#utility.yul\":855:924   */\n      tag_23\n      jump\t// in\n    tag_34:\n        /* \"#utility.yul\":713:931   */\n      swap3\n      swap2\n      pop\n      pop\n      jump\t// out\n\n    auxdata: 0xa26469706673582212208b83e3d8bf55d4263207fb46d467baf63f95db453b8c7fe2c7b991b5d901606464736f6c634300081e0033\n}\n",
				"bytecode": {
					"linkReferences": {},
					"object": "6080604052348015600e575f5ffd5b506101b48061001c5f395ff3fe608060405234801561000f575f5ffd5b506004361061003f575f3560e01c806314e9206e14610043578063198cc11214610061578063442ce25f1461007f575b5f5ffd5b61004b61009d565b6040516100589190610112565b60405180910390f35b6100696100b0565b6040516100769190610165565b60405180910390f35b6100876100c6565b6040516100949190610112565b60405180910390f35b5f5f61198f90505f819050809250505090565b5f5f61123460f01b90505f819050809250505090565b5f5f7fffffffffffffffffffffffffffffffffffffffffffffffffffffffffffffffff90505f819050809250505090565b5f60ff82169050919050565b61010c816100f7565b82525050565b5f6020820190506101255f830184610103565b92915050565b5f7fff0000000000000000000000000000000000000000000000000000000000000082169050919050565b61015f8161012b565b82525050565b5f6020820190506101785f830184610156565b9291505056fea26469706673582212208b83e3d8bf55d4263207fb46d467baf63f95db453b8c7fe2c7b991b5d901606464736f6c634300081e0033",
					"opcodes": "PUSH1 0x80 PUSH1 0x40 MSTORE CALLVALUE DUP1 ISZERO PUSH1 0xE JUMPI PUSH0 PUSH0 REVERT JUMPDEST POP PUSH2 0x1B4 DUP1 PUSH2 0x1C PUSH0 CODECOPY PUSH0 RETURN INVALID PUSH1 0x80 PUSH1 0x40 MSTORE CALLVALUE DUP1 ISZERO PUSH2 0xF JUMPI PUSH0 PUSH0 REVERT JUMPDEST POP PUSH1 0x4 CALLDATASIZE LT PUSH2 0x3F JUMPI PUSH0 CALLDATALOAD PUSH1 0xE0 SHR DUP1 PUSH4 0x14E9206E EQ PUSH2 0x43 JUMPI DUP1 PUSH4 0x198CC112 EQ PUSH2 0x61 JUMPI DUP1 PUSH4 0x442CE25F EQ PUSH2 0x7F JUMPI JUMPDEST PUSH0 PUSH0 REVERT JUMPDEST PUSH2 0x4B PUSH2 0x9D JUMP JUMPDEST PUSH1 0x40 MLOAD PUSH2 0x58 SWAP2 SWAP1 PUSH2 0x112 JUMP JUMPDEST PUSH1 0x40 MLOAD DUP1 SWAP2 SUB SWAP1 RETURN JUMPDEST PUSH2 0x69 PUSH2 0xB0 JUMP JUMPDEST PUSH1 0x40 MLOAD PUSH2 0x76 SWAP2 SWAP1 PUSH2 0x165 JUMP JUMPDEST PUSH1 0x40 MLOAD DUP1 SWAP2 SUB SWAP1 RETURN JUMPDEST PUSH2 0x87 PUSH2 0xC6 JUMP JUMPDEST PUSH1 0x40 MLOAD PUSH2 0x94 SWAP2 SWAP1 PUSH2 0x112 JUMP JUMPDEST PUSH1 0x40 MLOAD DUP1 SWAP2 SUB SWAP1 RETURN JUMPDEST PUSH0 PUSH0 PUSH2 0x198F SWAP1 POP PUSH0 DUP2 SWAP1 POP DUP1 SWAP3 POP POP POP SWAP1 JUMP JUMPDEST PUSH0 PUSH0 PUSH2 0x1234 PUSH1 0xF0 SHL SWAP1 POP PUSH0 DUP2 SWAP1 POP DUP1 SWAP3 POP POP POP SWAP1 JUMP JUMPDEST PUSH0 PUSH0 PUSH32 0xFFFFFFFFFFFFFFFFFFFFFFFFFFFFFFFFFFFFFFFFFFFFFFFFFFFFFFFFFFFFFFFF SWAP1 POP PUSH0 DUP2 SWAP1 POP DUP1 SWAP3 POP POP POP SWAP1 JUMP JUMPDEST PUSH0 PUSH1 0xFF DUP3 AND SWAP1 POP SWAP2 SWAP1 POP JUMP JUMPDEST PUSH2 0x10C DUP2 PUSH2 0xF7 JUMP JUMPDEST DUP3 MSTORE POP POP JUMP JUMPDEST PUSH0 PUSH1 0x20 DUP3 ADD SWAP1 POP PUSH2 0x125 PUSH0 DUP4 ADD DUP5 PUSH2 0x103 JUMP JUMPDEST SWAP3 SWAP2 POP POP JUMP JUMPDEST PUSH0 PUSH32 0xFF00000000000000000000000000000000000000000000000000000000000000 DUP3 AND SWAP1 POP SWAP2 SWAP1 POP JUMP JUMPDEST PUSH2 0x15F DUP2 PUSH2 0x12B JUMP JUMPDEST DUP3 MSTORE POP POP JUMP JUMPDEST PUSH0 PUSH1 0x20 DUP3 ADD SWAP1 POP PUSH2 0x178 PUSH0 DUP4 ADD DUP5 PUSH2 0x156 JUMP JUMPDEST SWAP3 SWAP2 POP POP JUMP INVALID LOG2 PUSH5 0x6970667358 0x22 SLT KECCAK256 DUP12 DUP4 CALLF 0xD8BF SSTORE 0xD4 0x26 ORIGIN SMOD EXTSTATICCALL CHAINID 0xD4 PUSH8 0xBAF63F95DB453B8C PUSH32 0xE2C7B991B5D901606464736F6C634300081E0033000000000000000000000000 "
				},
				"gasEstimates": {
					"creation": {
						"codeDepositCost": "87200",
						"executionCost": "133",
						"totalCost": "87333"
					},
					"external": {
						"converte()": "384",
						"converte2()": "340",
						"converte3()": "368"
					}
				},
				"methodIdentifiers": {
					"converte()": "442ce25f",
					"converte2()": "14e9206e",
					"converte3()": "198cc112"
				}
			},
			"storageLayout": {
				"storage": [],
				"types": null
			},
			"userdoc": {
				"kind": "user",
				"methods": {},
				"version": 1
			}
		}
	}
}