{
	"Introdução ao Solidity/Aprenda Solidity/Exemplos de taxa de gás e gasleft().sol": {
		"GAS_E_GASLEFT": {
			"abi": [
				{
					"inputs": [],
					"name": "ColocarValor",
					"outputs": [
						{
							"internalType": "uint256",
							"name": "",
							"type": "uint256"
						},
						{
							"internalType": "uint256",
							"name": "",
							"type": "uint256"
						}
					],
					"stateMutability": "nonpayable",
					"type": "function"
				},
				{
					"inputs": [
						{
							"internalType": "uint256",
							"name": "_numero",
							"type": "uint256"
						}
					],
					"name": "setnumero",
					"outputs": [
						{
							"internalType": "uint256",
							"name": "",
							"type": "uint256"
						},
						{
							"internalType": "uint256",
							"name": "",
							"type": "uint256"
						}
					],
					"stateMutability": "nonpayable",
					"type": "function"
				}
			],
			"devdoc": {
				"kind": "dev",
				"methods": {},
				"version": 1
			},
			"evm": {
				"assembly": "    /* \"Introdu\\xc3\\xa7\\xc3\\xa3o ao Solidity/Aprenda Solidity/Exemplos de taxa de g\\xc3\\xa1s e gasleft().sol\":61:704  contract GAS_E_GASLEFT{... */\n  mstore(0x40, 0x80)\n  callvalue\n  dup1\n  iszero\n  tag_1\n  jumpi\n  revert(0x00, 0x00)\ntag_1:\n  pop\n  dataSize(sub_0)\n  dup1\n  dataOffset(sub_0)\n  0x00\n  codecopy\n  0x00\n  return\nstop\n\nsub_0: assembly {\n        /* \"Introdu\\xc3\\xa7\\xc3\\xa3o ao Solidity/Aprenda Solidity/Exemplos de taxa de g\\xc3\\xa1s e gasleft().sol\":61:704  contract GAS_E_GASLEFT{... */\n      mstore(0x40, 0x80)\n      callvalue\n      dup1\n      iszero\n      tag_1\n      jumpi\n      revert(0x00, 0x00)\n    tag_1:\n      pop\n      jumpi(tag_2, lt(calldatasize, 0x04))\n      shr(0xe0, calldataload(0x00))\n      dup1\n      0x430ac4fd\n      eq\n      tag_3\n      jumpi\n      dup1\n      0xb845d346\n      eq\n      tag_4\n      jumpi\n    tag_2:\n      revert(0x00, 0x00)\n        /* \"Introdu\\xc3\\xa7\\xc3\\xa3o ao Solidity/Aprenda Solidity/Exemplos de taxa de g\\xc3\\xa1s e gasleft().sol\":230:439  function setnumero(uint256 _numero) public returns (uint, uint) {... */\n    tag_3:\n      tag_5\n      0x04\n      dup1\n      calldatasize\n      sub\n      dup2\n      add\n      swap1\n      tag_6\n      swap2\n      swap1\n      tag_7\n      jump\t// in\n    tag_6:\n      tag_8\n      jump\t// in\n    tag_5:\n      mload(0x40)\n      tag_9\n      swap3\n      swap2\n      swap1\n      tag_10\n      jump\t// in\n    tag_9:\n      mload(0x40)\n      dup1\n      swap2\n      sub\n      swap1\n      return\n        /* \"Introdu\\xc3\\xa7\\xc3\\xa3o ao Solidity/Aprenda Solidity/Exemplos de taxa de g\\xc3\\xa1s e gasleft().sol\":447:701  function ColocarValor() public returns (uint,uint) {... */\n    tag_4:\n      tag_11\n      tag_12\n      jump\t// in\n    tag_11:\n      mload(0x40)\n      tag_13\n      swap3\n      swap2\n      swap1\n      tag_10\n      jump\t// in\n    tag_13:\n      mload(0x40)\n      dup1\n      swap2\n      sub\n      swap1\n      return\n        /* \"Introdu\\xc3\\xa7\\xc3\\xa3o ao Solidity/Aprenda Solidity/Exemplos de taxa de g\\xc3\\xa1s e gasleft().sol\":230:439  function setnumero(uint256 _numero) public returns (uint, uint) {... */\n    tag_8:\n        /* \"Introdu\\xc3\\xa7\\xc3\\xa3o ao Solidity/Aprenda Solidity/Exemplos de taxa de g\\xc3\\xa1s e gasleft().sol\":282:286  uint */\n      0x00\n        /* \"Introdu\\xc3\\xa7\\xc3\\xa3o ao Solidity/Aprenda Solidity/Exemplos de taxa de g\\xc3\\xa1s e gasleft().sol\":288:292  uint */\n      0x00\n        /* \"Introdu\\xc3\\xa7\\xc3\\xa3o ao Solidity/Aprenda Solidity/Exemplos de taxa de g\\xc3\\xa1s e gasleft().sol\":305:315  uint antes */\n      0x00\n        /* \"Introdu\\xc3\\xa7\\xc3\\xa3o ao Solidity/Aprenda Solidity/Exemplos de taxa de g\\xc3\\xa1s e gasleft().sol\":318:327  gasleft() */\n      gas\n        /* \"Introdu\\xc3\\xa7\\xc3\\xa3o ao Solidity/Aprenda Solidity/Exemplos de taxa de g\\xc3\\xa1s e gasleft().sol\":305:327  uint antes = gasleft() */\n      swap1\n      pop\n        /* \"Introdu\\xc3\\xa7\\xc3\\xa3o ao Solidity/Aprenda Solidity/Exemplos de taxa de g\\xc3\\xa1s e gasleft().sol\":347:354  _numero */\n      dup4\n        /* \"Introdu\\xc3\\xa7\\xc3\\xa3o ao Solidity/Aprenda Solidity/Exemplos de taxa de g\\xc3\\xa1s e gasleft().sol\":338:344  numero */\n      0x00\n        /* \"Introdu\\xc3\\xa7\\xc3\\xa3o ao Solidity/Aprenda Solidity/Exemplos de taxa de g\\xc3\\xa1s e gasleft().sol\":338:354  numero = _numero */\n      dup2\n      swap1\n      sstore\n      pop\n        /* \"Introdu\\xc3\\xa7\\xc3\\xa3o ao Solidity/Aprenda Solidity/Exemplos de taxa de g\\xc3\\xa1s e gasleft().sol\":365:376  uint depois */\n      0x00\n        /* \"Introdu\\xc3\\xa7\\xc3\\xa3o ao Solidity/Aprenda Solidity/Exemplos de taxa de g\\xc3\\xa1s e gasleft().sol\":379:388  gasleft() */\n      gas\n        /* \"Introdu\\xc3\\xa7\\xc3\\xa3o ao Solidity/Aprenda Solidity/Exemplos de taxa de g\\xc3\\xa1s e gasleft().sol\":365:388  uint depois = gasleft() */\n      swap1\n      pop\n        /* \"Introdu\\xc3\\xa7\\xc3\\xa3o ao Solidity/Aprenda Solidity/Exemplos de taxa de g\\xc3\\xa1s e gasleft().sol\":417:422  antes */\n      dup2\n        /* \"Introdu\\xc3\\xa7\\xc3\\xa3o ao Solidity/Aprenda Solidity/Exemplos de taxa de g\\xc3\\xa1s e gasleft().sol\":424:430  depois */\n      dup2\n        /* \"Introdu\\xc3\\xa7\\xc3\\xa3o ao Solidity/Aprenda Solidity/Exemplos de taxa de g\\xc3\\xa1s e gasleft().sol\":409:431  return (antes, depois) */\n      swap4\n      pop\n      swap4\n      pop\n      pop\n      pop\n        /* \"Introdu\\xc3\\xa7\\xc3\\xa3o ao Solidity/Aprenda Solidity/Exemplos de taxa de g\\xc3\\xa1s e gasleft().sol\":230:439  function setnumero(uint256 _numero) public returns (uint, uint) {... */\n      swap2\n      pop\n      swap2\n      jump\t// out\n        /* \"Introdu\\xc3\\xa7\\xc3\\xa3o ao Solidity/Aprenda Solidity/Exemplos de taxa de g\\xc3\\xa1s e gasleft().sol\":447:701  function ColocarValor() public returns (uint,uint) {... */\n    tag_12:\n        /* \"Introdu\\xc3\\xa7\\xc3\\xa3o ao Solidity/Aprenda Solidity/Exemplos de taxa de g\\xc3\\xa1s e gasleft().sol\":487:491  uint */\n      0x00\n        /* \"Introdu\\xc3\\xa7\\xc3\\xa3o ao Solidity/Aprenda Solidity/Exemplos de taxa de g\\xc3\\xa1s e gasleft().sol\":492:496  uint */\n      0x00\n        /* \"Introdu\\xc3\\xa7\\xc3\\xa3o ao Solidity/Aprenda Solidity/Exemplos de taxa de g\\xc3\\xa1s e gasleft().sol\":511:524  uint gasAntes */\n      0x00\n        /* \"Introdu\\xc3\\xa7\\xc3\\xa3o ao Solidity/Aprenda Solidity/Exemplos de taxa de g\\xc3\\xa1s e gasleft().sol\":527:536  gasleft() */\n      gas\n        /* \"Introdu\\xc3\\xa7\\xc3\\xa3o ao Solidity/Aprenda Solidity/Exemplos de taxa de g\\xc3\\xa1s e gasleft().sol\":511:536  uint gasAntes = gasleft() */\n      swap1\n      pop\n        /* \"Introdu\\xc3\\xa7\\xc3\\xa3o ao Solidity/Aprenda Solidity/Exemplos de taxa de g\\xc3\\xa1s e gasleft().sol\":552:558  uint i */\n      0x00\n        /* \"Introdu\\xc3\\xa7\\xc3\\xa3o ao Solidity/Aprenda Solidity/Exemplos de taxa de g\\xc3\\xa1s e gasleft().sol\":547:617  for (uint i; i  < 100; i++){... */\n    tag_16:\n        /* \"Introdu\\xc3\\xa7\\xc3\\xa3o ao Solidity/Aprenda Solidity/Exemplos de taxa de g\\xc3\\xa1s e gasleft().sol\":565:568  100 */\n      0x64\n        /* \"Introdu\\xc3\\xa7\\xc3\\xa3o ao Solidity/Aprenda Solidity/Exemplos de taxa de g\\xc3\\xa1s e gasleft().sol\":560:561  i */\n      dup2\n        /* \"Introdu\\xc3\\xa7\\xc3\\xa3o ao Solidity/Aprenda Solidity/Exemplos de taxa de g\\xc3\\xa1s e gasleft().sol\":560:568  i  < 100 */\n      lt\n        /* \"Introdu\\xc3\\xa7\\xc3\\xa3o ao Solidity/Aprenda Solidity/Exemplos de taxa de g\\xc3\\xa1s e gasleft().sol\":547:617  for (uint i; i  < 100; i++){... */\n      iszero\n      tag_17\n      jumpi\n        /* \"Introdu\\xc3\\xa7\\xc3\\xa3o ao Solidity/Aprenda Solidity/Exemplos de taxa de g\\xc3\\xa1s e gasleft().sol\":589:597  dinamica */\n      0x01\n        /* \"Introdu\\xc3\\xa7\\xc3\\xa3o ao Solidity/Aprenda Solidity/Exemplos de taxa de g\\xc3\\xa1s e gasleft().sol\":603:604  i */\n      dup2\n        /* \"Introdu\\xc3\\xa7\\xc3\\xa3o ao Solidity/Aprenda Solidity/Exemplos de taxa de g\\xc3\\xa1s e gasleft().sol\":589:605  dinamica.push(i) */\n      swap1\n      dup1\n      0x01\n      dup2\n      sload\n      add\n      dup1\n      dup3\n      sstore\n      dup1\n      swap2\n      pop\n      pop\n      0x01\n      swap1\n      sub\n      swap1\n      0x00\n      mstore\n      keccak256(0x00, 0x20)\n      add\n      0x00\n      swap1\n      swap2\n      swap1\n      swap2\n      swap1\n      swap2\n      pop\n      sstore\n        /* \"Introdu\\xc3\\xa7\\xc3\\xa3o ao Solidity/Aprenda Solidity/Exemplos de taxa de g\\xc3\\xa1s e gasleft().sol\":570:573  i++ */\n      dup1\n      dup1\n      0x01\n      add\n      swap2\n      pop\n      pop\n        /* \"Introdu\\xc3\\xa7\\xc3\\xa3o ao Solidity/Aprenda Solidity/Exemplos de taxa de g\\xc3\\xa1s e gasleft().sol\":547:617  for (uint i; i  < 100; i++){... */\n      jump(tag_16)\n    tag_17:\n      pop\n        /* \"Introdu\\xc3\\xa7\\xc3\\xa3o ao Solidity/Aprenda Solidity/Exemplos de taxa de g\\xc3\\xa1s e gasleft().sol\":627:641  uint gasDepois */\n      0x00\n        /* \"Introdu\\xc3\\xa7\\xc3\\xa3o ao Solidity/Aprenda Solidity/Exemplos de taxa de g\\xc3\\xa1s e gasleft().sol\":644:653  gasleft() */\n      gas\n        /* \"Introdu\\xc3\\xa7\\xc3\\xa3o ao Solidity/Aprenda Solidity/Exemplos de taxa de g\\xc3\\xa1s e gasleft().sol\":627:653  uint gasDepois = gasleft() */\n      swap1\n      pop\n        /* \"Introdu\\xc3\\xa7\\xc3\\xa3o ao Solidity/Aprenda Solidity/Exemplos de taxa de g\\xc3\\xa1s e gasleft().sol\":674:682  gasAntes */\n      dup2\n        /* \"Introdu\\xc3\\xa7\\xc3\\xa3o ao Solidity/Aprenda Solidity/Exemplos de taxa de g\\xc3\\xa1s e gasleft().sol\":683:692  gasDepois */\n      dup2\n        /* \"Introdu\\xc3\\xa7\\xc3\\xa3o ao Solidity/Aprenda Solidity/Exemplos de taxa de g\\xc3\\xa1s e gasleft().sol\":666:693  return (gasAntes,gasDepois) */\n      swap4\n      pop\n      swap4\n      pop\n      pop\n      pop\n        /* \"Introdu\\xc3\\xa7\\xc3\\xa3o ao Solidity/Aprenda Solidity/Exemplos de taxa de g\\xc3\\xa1s e gasleft().sol\":447:701  function ColocarValor() public returns (uint,uint) {... */\n      swap1\n      swap2\n      jump\t// out\n        /* \"#utility.yul\":88:205   */\n    tag_21:\n        /* \"#utility.yul\":197:198   */\n      0x00\n        /* \"#utility.yul\":194:195   */\n      0x00\n        /* \"#utility.yul\":187:199   */\n      revert\n        /* \"#utility.yul\":334:411   */\n    tag_23:\n        /* \"#utility.yul\":371:378   */\n      0x00\n        /* \"#utility.yul\":400:405   */\n      dup2\n        /* \"#utility.yul\":389:405   */\n      swap1\n      pop\n        /* \"#utility.yul\":334:411   */\n      swap2\n      swap1\n      pop\n      jump\t// out\n        /* \"#utility.yul\":417:539   */\n    tag_24:\n        /* \"#utility.yul\":490:514   */\n      tag_33\n        /* \"#utility.yul\":508:513   */\n      dup2\n        /* \"#utility.yul\":490:514   */\n      tag_23\n      jump\t// in\n    tag_33:\n        /* \"#utility.yul\":483:488   */\n      dup2\n        /* \"#utility.yul\":480:515   */\n      eq\n        /* \"#utility.yul\":470:533   */\n      tag_34\n      jumpi\n        /* \"#utility.yul\":529:530   */\n      0x00\n        /* \"#utility.yul\":526:527   */\n      0x00\n        /* \"#utility.yul\":519:531   */\n      revert\n        /* \"#utility.yul\":470:533   */\n    tag_34:\n        /* \"#utility.yul\":417:539   */\n      pop\n      jump\t// out\n        /* \"#utility.yul\":545:684   */\n    tag_25:\n        /* \"#utility.yul\":591:596   */\n      0x00\n        /* \"#utility.yul\":629:635   */\n      dup2\n        /* \"#utility.yul\":616:636   */\n      calldataload\n        /* \"#utility.yul\":607:636   */\n      swap1\n      pop\n        /* \"#utility.yul\":645:678   */\n      tag_36\n        /* \"#utility.yul\":672:677   */\n      dup2\n        /* \"#utility.yul\":645:678   */\n      tag_24\n      jump\t// in\n    tag_36:\n        /* \"#utility.yul\":545:684   */\n      swap3\n      swap2\n      pop\n      pop\n      jump\t// out\n        /* \"#utility.yul\":690:1019   */\n    tag_7:\n        /* \"#utility.yul\":749:755   */\n      0x00\n        /* \"#utility.yul\":798:800   */\n      0x20\n        /* \"#utility.yul\":786:795   */\n      dup3\n        /* \"#utility.yul\":777:784   */\n      dup5\n        /* \"#utility.yul\":773:796   */\n      sub\n        /* \"#utility.yul\":769:801   */\n      slt\n        /* \"#utility.yul\":766:885   */\n      iszero\n      tag_38\n      jumpi\n        /* \"#utility.yul\":804:883   */\n      tag_39\n      tag_21\n      jump\t// in\n    tag_39:\n        /* \"#utility.yul\":766:885   */\n    tag_38:\n        /* \"#utility.yul\":924:925   */\n      0x00\n        /* \"#utility.yul\":949:1002   */\n      tag_40\n        /* \"#utility.yul\":994:1001   */\n      dup5\n        /* \"#utility.yul\":985:991   */\n      dup3\n        /* \"#utility.yul\":974:983   */\n      dup6\n        /* \"#utility.yul\":970:992   */\n      add\n        /* \"#utility.yul\":949:1002   */\n      tag_25\n      jump\t// in\n    tag_40:\n        /* \"#utility.yul\":939:1002   */\n      swap2\n      pop\n        /* \"#utility.yul\":895:1012   */\n      pop\n        /* \"#utility.yul\":690:1019   */\n      swap3\n      swap2\n      pop\n      pop\n      jump\t// out\n        /* \"#utility.yul\":1025:1143   */\n    tag_26:\n        /* \"#utility.yul\":1112:1136   */\n      tag_42\n        /* \"#utility.yul\":1130:1135   */\n      dup2\n        /* \"#utility.yul\":1112:1136   */\n      tag_23\n      jump\t// in\n    tag_42:\n        /* \"#utility.yul\":1107:1110   */\n      dup3\n        /* \"#utility.yul\":1100:1137   */\n      mstore\n        /* \"#utility.yul\":1025:1143   */\n      pop\n      pop\n      jump\t// out\n        /* \"#utility.yul\":1149:1481   */\n    tag_10:\n        /* \"#utility.yul\":1270:1274   */\n      0x00\n        /* \"#utility.yul\":1308:1310   */\n      0x40\n        /* \"#utility.yul\":1297:1306   */\n      dup3\n        /* \"#utility.yul\":1293:1311   */\n      add\n        /* \"#utility.yul\":1285:1311   */\n      swap1\n      pop\n        /* \"#utility.yul\":1321:1392   */\n      tag_44\n        /* \"#utility.yul\":1389:1390   */\n      0x00\n        /* \"#utility.yul\":1378:1387   */\n      dup4\n        /* \"#utility.yul\":1374:1391   */\n      add\n        /* \"#utility.yul\":1365:1371   */\n      dup6\n        /* \"#utility.yul\":1321:1392   */\n      tag_26\n      jump\t// in\n    tag_44:\n        /* \"#utility.yul\":1402:1474   */\n      tag_45\n        /* \"#utility.yul\":1470:1472   */\n      0x20\n        /* \"#utility.yul\":1459:1468   */\n      dup4\n        /* \"#utility.yul\":1455:1473   */\n      add\n        /* \"#utility.yul\":1446:1452   */\n      dup5\n        /* \"#utility.yul\":1402:1474   */\n      tag_26\n      jump\t// in\n    tag_45:\n        /* \"#utility.yul\":1149:1481   */\n      swap4\n      swap3\n      pop\n      pop\n      pop\n      jump\t// out\n\n    auxdata: 0xa26469706673582212201cb22fe4f378cc57d6bb26594a9eb5d45e4822f25b286a24fa4178bc1f052b9964736f6c634300081e0033\n}\n",
				"bytecode": {
					"linkReferences": {},
					"object": "6080604052348015600e575f5ffd5b506101c88061001c5f395ff3fe608060405234801561000f575f5ffd5b5060043610610034575f3560e01c8063430ac4fd14610038578063b845d34614610069575b5f5ffd5b610052600480360381019061004d9190610131565b610088565b60405161006092919061016b565b60405180910390f35b6100716100a5565b60405161007f92919061016b565b60405180910390f35b5f5f5f5a9050835f819055505f5a90508181935093505050915091565b5f5f5f5a90505f5b60648110156100e957600181908060018154018082558091505060019003905f5260205f20015f909190919091505580806001019150506100ad565b505f5a905081819350935050509091565b5f5ffd5b5f819050919050565b610110816100fe565b811461011a575f5ffd5b50565b5f8135905061012b81610107565b92915050565b5f60208284031215610146576101456100fa565b5b5f6101538482850161011d565b91505092915050565b610165816100fe565b82525050565b5f60408201905061017e5f83018561015c565b61018b602083018461015c565b939250505056fea26469706673582212201cb22fe4f378cc57d6bb26594a9eb5d45e4822f25b286a24fa4178bc1f052b9964736f6c634300081e0033",
					"opcodes": "PUSH1 0x80 PUSH1 0x40 MSTORE CALLVALUE DUP1 ISZERO PUSH1 0xE JUMPI PUSH0 PUSH0 REVERT JUMPDEST POP PUSH2 0x1C8 DUP1 PUSH2 0x1C PUSH0 CODECOPY PUSH0 RETURN INVALID PUSH1 0x80 PUSH1 0x40 MSTORE CALLVALUE DUP1 ISZERO PUSH2 0xF JUMPI PUSH0 PUSH0 REVERT JUMPDEST POP PUSH1 0x4 CALLDATASIZE LT PUSH2 0x34 JUMPI PUSH0 CALLDATALOAD PUSH1 0xE0 SHR DUP1 PUSH4 0x430AC4FD EQ PUSH2 0x38 JUMPI DUP1 PUSH4 0xB845D346 EQ PUSH2 0x69 JUMPI JUMPDEST PUSH0 PUSH0 REVERT JUMPDEST PUSH2 0x52 PUSH1 0x4 DUP1 CALLDATASIZE SUB DUP2 ADD SWAP1 PUSH2 0x4D SWAP2 SWAP1 PUSH2 0x131 JUMP JUMPDEST PUSH2 0x88 JUMP JUMPDEST PUSH1 0x40 MLOAD PUSH2 0x60 SWAP3 SWAP2 SWAP1 PUSH2 0x16B JUMP JUMPDEST PUSH1 0x40 MLOAD DUP1 SWAP2 SUB SWAP1 RETURN JUMPDEST PUSH2 0x71 PUSH2 0xA5 JUMP JUMPDEST PUSH1 0x40 MLOAD PUSH2 0x7F SWAP3 SWAP2 SWAP1 PUSH2 0x16B JUMP JUMPDEST PUSH1 0x40 MLOAD DUP1 SWAP2 SUB SWAP1 RETURN JUMPDEST PUSH0 PUSH0 PUSH0 GAS SWAP1 POP DUP4 PUSH0 DUP2 SWAP1 SSTORE POP PUSH0 GAS SWAP1 POP DUP2 DUP2 SWAP4 POP SWAP4 POP POP POP SWAP2 POP SWAP2 JUMP JUMPDEST PUSH0 PUSH0 PUSH0 GAS SWAP1 POP PUSH0 JUMPDEST PUSH1 0x64 DUP2 LT ISZERO PUSH2 0xE9 JUMPI PUSH1 0x1 DUP2 SWAP1 DUP1 PUSH1 0x1 DUP2 SLOAD ADD DUP1 DUP3 SSTORE DUP1 SWAP2 POP POP PUSH1 0x1 SWAP1 SUB SWAP1 PUSH0 MSTORE PUSH1 0x20 PUSH0 KECCAK256 ADD PUSH0 SWAP1 SWAP2 SWAP1 SWAP2 SWAP1 SWAP2 POP SSTORE DUP1 DUP1 PUSH1 0x1 ADD SWAP2 POP POP PUSH2 0xAD JUMP JUMPDEST POP PUSH0 GAS SWAP1 POP DUP2 DUP2 SWAP4 POP SWAP4 POP POP POP SWAP1 SWAP2 JUMP JUMPDEST PUSH0 PUSH0 REVERT JUMPDEST PUSH0 DUP2 SWAP1 POP SWAP2 SWAP1 POP JUMP JUMPDEST PUSH2 0x110 DUP2 PUSH2 0xFE JUMP JUMPDEST DUP2 EQ PUSH2 0x11A JUMPI PUSH0 PUSH0 REVERT JUMPDEST POP JUMP JUMPDEST PUSH0 DUP2 CALLDATALOAD SWAP1 POP PUSH2 0x12B DUP2 PUSH2 0x107 JUMP JUMPDEST SWAP3 SWAP2 POP POP JUMP JUMPDEST PUSH0 PUSH1 0x20 DUP3 DUP5 SUB SLT ISZERO PUSH2 0x146 JUMPI PUSH2 0x145 PUSH2 0xFA JUMP JUMPDEST JUMPDEST PUSH0 PUSH2 0x153 DUP5 DUP3 DUP6 ADD PUSH2 0x11D JUMP JUMPDEST SWAP2 POP POP SWAP3 SWAP2 POP POP JUMP JUMPDEST PUSH2 0x165 DUP2 PUSH2 0xFE JUMP JUMPDEST DUP3 MSTORE POP POP JUMP JUMPDEST PUSH0 PUSH1 0x40 DUP3 ADD SWAP1 POP PUSH2 0x17E PUSH0 DUP4 ADD DUP6 PUSH2 0x15C JUMP JUMPDEST PUSH2 0x18B PUSH1 0x20 DUP4 ADD DUP5 PUSH2 0x15C JUMP JUMPDEST SWAP4 SWAP3 POP POP POP JUMP INVALID LOG2 PUSH5 0x6970667358 0x22 SLT KECCAK256 SHR 0xB2 0x2F RETF RETURN PUSH25 0xCC57D6BB26594A9EB5D45E4822F25B286A24FA4178BC1F052B SWAP10 PUSH5 0x736F6C6343 STOP ADDMOD 0x1E STOP CALLER "
				},
				"gasEstimates": {
					"creation": {
						"codeDepositCost": "91200",
						"executionCost": "139",
						"totalCost": "91339"
					},
					"external": {
						"ColocarValor()": "infinite",
						"setnumero(uint256)": "infinite"
					}
				},
				"methodIdentifiers": {
					"ColocarValor()": "b845d346",
					"setnumero(uint256)": "430ac4fd"
				}
			},
			"storageLayout": {
				"storage": [
					{
						"astId": 3,
						"contract": "Introdução ao Solidity/Aprenda Solidity/Exemplos de taxa de gás e gasleft().sol:GAS_E_GASLEFT",
						"label": "numero",
						"offset": 0,
						"slot": "0",
						"type": "t_uint256"
					},
					{
						"astId": 6,
						"contract": "Introdução ao Solidity/Aprenda Solidity/Exemplos de taxa de gás e gasleft().sol:GAS_E_GASLEFT",
						"label": "dinamica",
						"offset": 0,
						"slot": "1",
						"type": "t_array(t_uint256)dyn_storage"
					}
				],
				"types": {
					"t_array(t_uint256)dyn_storage": {
						"base": "t_uint256",
						"encoding": "dynamic_array",
						"label": "uint256[]",
						"numberOfBytes": "32"
					},
					"t_uint256": {
						"encoding": "inplace",
						"label": "uint256",
						"numberOfBytes": "32"
					}
				}
			},
			"userdoc": {
				"kind": "user",
				"methods": {},
				"version": 1
			}
		}
	}
}