{
	"Introdução ao Solidity/Aprenda Solidity/transfer, send e call.sol": {
		"Envia": {
			"abi": [
				{
					"inputs": [],
					"stateMutability": "payable",
					"type": "constructor"
				},
				{
					"inputs": [],
					"name": "enviarEtherCall",
					"outputs": [
						{
							"internalType": "bool",
							"name": "",
							"type": "bool"
						}
					],
					"stateMutability": "nonpayable",
					"type": "function"
				},
				{
					"inputs": [],
					"name": "enviarEtherSent",
					"outputs": [
						{
							"internalType": "bool",
							"name": "",
							"type": "bool"
						}
					],
					"stateMutability": "nonpayable",
					"type": "function"
				},
				{
					"inputs": [],
					"name": "enviarEtherTranfer",
					"outputs": [],
					"stateMutability": "nonpayable",
					"type": "function"
				}
			],
			"devdoc": {
				"kind": "dev",
				"methods": {},
				"version": 1
			},
			"evm": {
				"assembly": "    /* \"Introdu\\xc3\\xa7\\xc3\\xa3o ao Solidity/Aprenda Solidity/transfer, send e call.sol\":121:902  contract Envia {... */\n  mstore(0x40, 0x80)\n  dataSize(sub_0)\n  dup1\n  dataOffset(sub_0)\n  0x00\n  codecopy\n  0x00\n  return\nstop\n\nsub_0: assembly {\n        /* \"Introdu\\xc3\\xa7\\xc3\\xa3o ao Solidity/Aprenda Solidity/transfer, send e call.sol\":121:902  contract Envia {... */\n      mstore(0x40, 0x80)\n      callvalue\n      dup1\n      iszero\n      tag_1\n      jumpi\n      revert(0x00, 0x00)\n    tag_1:\n      pop\n      jumpi(tag_2, lt(calldatasize, 0x04))\n      shr(0xe0, calldataload(0x00))\n      dup1\n      0x0b2353d6\n      eq\n      tag_3\n      jumpi\n      dup1\n      0x23fa2faa\n      eq\n      tag_4\n      jumpi\n      dup1\n      0x5c67d3b9\n      eq\n      tag_5\n      jumpi\n    tag_2:\n      revert(0x00, 0x00)\n        /* \"Introdu\\xc3\\xa7\\xc3\\xa3o ao Solidity/Aprenda Solidity/transfer, send e call.sol\":197:322  function enviarEtherTranfer() public {... */\n    tag_3:\n      tag_6\n      tag_7\n      jump\t// in\n    tag_6:\n      stop\n        /* \"Introdu\\xc3\\xa7\\xc3\\xa3o ao Solidity/Aprenda Solidity/transfer, send e call.sol\":330:469  function enviarEtherSent() public returns (bool){... */\n    tag_4:\n      tag_8\n      tag_9\n      jump\t// in\n    tag_8:\n      mload(0x40)\n      tag_10\n      swap2\n      swap1\n      tag_11\n      jump\t// in\n    tag_10:\n      mload(0x40)\n      dup1\n      swap2\n      sub\n      swap1\n      return\n        /* \"Introdu\\xc3\\xa7\\xc3\\xa3o ao Solidity/Aprenda Solidity/transfer, send e call.sol\":477:664  function enviarEtherCall() public returns (bool){... */\n    tag_5:\n      tag_12\n      tag_13\n      jump\t// in\n    tag_12:\n      mload(0x40)\n      tag_14\n      swap2\n      swap1\n      tag_11\n      jump\t// in\n    tag_14:\n      mload(0x40)\n      dup1\n      swap2\n      sub\n      swap1\n      return\n        /* \"Introdu\\xc3\\xa7\\xc3\\xa3o ao Solidity/Aprenda Solidity/transfer, send e call.sol\":197:322  function enviarEtherTranfer() public {... */\n    tag_7:\n        /* \"Introdu\\xc3\\xa7\\xc3\\xa3o ao Solidity/Aprenda Solidity/transfer, send e call.sol\":253:295  0xb31BA5cDC07A2EaFAF77c95294fd4aE27D04E9CA */\n      0xb31ba5cdc07a2eafaf77c95294fd4ae27d04e9ca\n        /* \"Introdu\\xc3\\xa7\\xc3\\xa3o ao Solidity/Aprenda Solidity/transfer, send e call.sol\":245:305  payable(0xb31BA5cDC07A2EaFAF77c95294fd4aE27D04E9CA).transfer */\n      0xffffffffffffffffffffffffffffffffffffffff\n      and\n        /* \"Introdu\\xc3\\xa7\\xc3\\xa3o ao Solidity/Aprenda Solidity/transfer, send e call.sol\":245:314  payable(0xb31BA5cDC07A2EaFAF77c95294fd4aE27D04E9CA).transfer(1 ether) */\n      0x08fc\n        /* \"Introdu\\xc3\\xa7\\xc3\\xa3o ao Solidity/Aprenda Solidity/transfer, send e call.sol\":306:313  1 ether */\n      0x0de0b6b3a7640000\n        /* \"Introdu\\xc3\\xa7\\xc3\\xa3o ao Solidity/Aprenda Solidity/transfer, send e call.sol\":245:314  payable(0xb31BA5cDC07A2EaFAF77c95294fd4aE27D04E9CA).transfer(1 ether) */\n      swap1\n      dup2\n      iszero\n      mul\n      swap1\n      mload(0x40)\n      0x00\n      mload(0x40)\n      dup1\n      dup4\n      sub\n      dup2\n      dup6\n      dup9\n      dup9\n      call\n      swap4\n      pop\n      pop\n      pop\n      pop\n      iszero\n      dup1\n      iszero\n      tag_17\n      jumpi\n      returndatacopy(0x00, 0x00, returndatasize)\n      revert(0x00, returndatasize)\n    tag_17:\n      pop\n        /* \"Introdu\\xc3\\xa7\\xc3\\xa3o ao Solidity/Aprenda Solidity/transfer, send e call.sol\":197:322  function enviarEtherTranfer() public {... */\n      jump\t// out\n        /* \"Introdu\\xc3\\xa7\\xc3\\xa3o ao Solidity/Aprenda Solidity/transfer, send e call.sol\":330:469  function enviarEtherSent() public returns (bool){... */\n    tag_9:\n        /* \"Introdu\\xc3\\xa7\\xc3\\xa3o ao Solidity/Aprenda Solidity/transfer, send e call.sol\":373:377  bool */\n      0x00\n        /* \"Introdu\\xc3\\xa7\\xc3\\xa3o ao Solidity/Aprenda Solidity/transfer, send e call.sol\":404:446  0xb31BA5cDC07A2EaFAF77c95294fd4aE27D04E9CA */\n      0xb31ba5cdc07a2eafaf77c95294fd4ae27d04e9ca\n        /* \"Introdu\\xc3\\xa7\\xc3\\xa3o ao Solidity/Aprenda Solidity/transfer, send e call.sol\":396:452  payable(0xb31BA5cDC07A2EaFAF77c95294fd4aE27D04E9CA).send */\n      0xffffffffffffffffffffffffffffffffffffffff\n      and\n        /* \"Introdu\\xc3\\xa7\\xc3\\xa3o ao Solidity/Aprenda Solidity/transfer, send e call.sol\":396:461  payable(0xb31BA5cDC07A2EaFAF77c95294fd4aE27D04E9CA).send(1 ether) */\n      0x08fc\n        /* \"Introdu\\xc3\\xa7\\xc3\\xa3o ao Solidity/Aprenda Solidity/transfer, send e call.sol\":453:460  1 ether */\n      0x0de0b6b3a7640000\n        /* \"Introdu\\xc3\\xa7\\xc3\\xa3o ao Solidity/Aprenda Solidity/transfer, send e call.sol\":396:461  payable(0xb31BA5cDC07A2EaFAF77c95294fd4aE27D04E9CA).send(1 ether) */\n      swap1\n      dup2\n      iszero\n      mul\n      swap1\n      mload(0x40)\n      0x00\n      mload(0x40)\n      dup1\n      dup4\n      sub\n      dup2\n      dup6\n      dup9\n      dup9\n      call\n      swap4\n      pop\n      pop\n      pop\n      pop\n        /* \"Introdu\\xc3\\xa7\\xc3\\xa3o ao Solidity/Aprenda Solidity/transfer, send e call.sol\":389:461  return payable(0xb31BA5cDC07A2EaFAF77c95294fd4aE27D04E9CA).send(1 ether) */\n      swap1\n      pop\n        /* \"Introdu\\xc3\\xa7\\xc3\\xa3o ao Solidity/Aprenda Solidity/transfer, send e call.sol\":330:469  function enviarEtherSent() public returns (bool){... */\n      swap1\n      jump\t// out\n        /* \"Introdu\\xc3\\xa7\\xc3\\xa3o ao Solidity/Aprenda Solidity/transfer, send e call.sol\":477:664  function enviarEtherCall() public returns (bool){... */\n    tag_13:\n        /* \"Introdu\\xc3\\xa7\\xc3\\xa3o ao Solidity/Aprenda Solidity/transfer, send e call.sol\":520:524  bool */\n      0x00\n        /* \"Introdu\\xc3\\xa7\\xc3\\xa3o ao Solidity/Aprenda Solidity/transfer, send e call.sol\":537:549  bool retorna */\n      0x00\n        /* \"Introdu\\xc3\\xa7\\xc3\\xa3o ao Solidity/Aprenda Solidity/transfer, send e call.sol\":563:605  0xb31BA5cDC07A2EaFAF77c95294fd4aE27D04E9CA */\n      0xb31ba5cdc07a2eafaf77c95294fd4ae27d04e9ca\n        /* \"Introdu\\xc3\\xa7\\xc3\\xa3o ao Solidity/Aprenda Solidity/transfer, send e call.sol\":555:611  payable(0xb31BA5cDC07A2EaFAF77c95294fd4aE27D04E9CA).call */\n      0xffffffffffffffffffffffffffffffffffffffff\n      and\n        /* \"Introdu\\xc3\\xa7\\xc3\\xa3o ao Solidity/Aprenda Solidity/transfer, send e call.sol\":619:626  1 ether */\n      0x0de0b6b3a7640000\n        /* \"Introdu\\xc3\\xa7\\xc3\\xa3o ao Solidity/Aprenda Solidity/transfer, send e call.sol\":555:631  payable(0xb31BA5cDC07A2EaFAF77c95294fd4aE27D04E9CA).call{value: 1 ether}(\"\") */\n      mload(0x40)\n      tag_21\n      swap1\n      tag_22\n      jump\t// in\n    tag_21:\n      0x00\n      mload(0x40)\n      dup1\n      dup4\n      sub\n      dup2\n      dup6\n      dup8\n      gas\n      call\n      swap3\n      pop\n      pop\n      pop\n      returndatasize\n      dup1\n      0x00\n      dup2\n      eq\n      tag_25\n      jumpi\n      mload(0x40)\n      swap2\n      pop\n      and(add(returndatasize, 0x3f), not(0x1f))\n      dup3\n      add\n      0x40\n      mstore\n      returndatasize\n      dup3\n      mstore\n      returndatasize\n      0x00\n      0x20\n      dup5\n      add\n      returndatacopy\n      jump(tag_24)\n    tag_25:\n      0x60\n      swap2\n      pop\n    tag_24:\n      pop\n        /* \"Introdu\\xc3\\xa7\\xc3\\xa3o ao Solidity/Aprenda Solidity/transfer, send e call.sol\":536:631  (bool retorna, ) = payable(0xb31BA5cDC07A2EaFAF77c95294fd4aE27D04E9CA).call{value: 1 ether}(\"\") */\n      pop\n      swap1\n      pop\n        /* \"Introdu\\xc3\\xa7\\xc3\\xa3o ao Solidity/Aprenda Solidity/transfer, send e call.sol\":649:656  retorna */\n      dup1\n        /* \"Introdu\\xc3\\xa7\\xc3\\xa3o ao Solidity/Aprenda Solidity/transfer, send e call.sol\":642:656  return retorna */\n      swap2\n      pop\n      pop\n        /* \"Introdu\\xc3\\xa7\\xc3\\xa3o ao Solidity/Aprenda Solidity/transfer, send e call.sol\":477:664  function enviarEtherCall() public returns (bool){... */\n      swap1\n      jump\t// out\n        /* \"#utility.yul\":7:97   */\n    tag_26:\n        /* \"#utility.yul\":41:48   */\n      0x00\n        /* \"#utility.yul\":84:89   */\n      dup2\n        /* \"#utility.yul\":77:90   */\n      iszero\n        /* \"#utility.yul\":70:91   */\n      iszero\n        /* \"#utility.yul\":59:91   */\n      swap1\n      pop\n        /* \"#utility.yul\":7:97   */\n      swap2\n      swap1\n      pop\n      jump\t// out\n        /* \"#utility.yul\":103:212   */\n    tag_27:\n        /* \"#utility.yul\":184:205   */\n      tag_34\n        /* \"#utility.yul\":199:204   */\n      dup2\n        /* \"#utility.yul\":184:205   */\n      tag_26\n      jump\t// in\n    tag_34:\n        /* \"#utility.yul\":179:182   */\n      dup3\n        /* \"#utility.yul\":172:206   */\n      mstore\n        /* \"#utility.yul\":103:212   */\n      pop\n      pop\n      jump\t// out\n        /* \"#utility.yul\":218:428   */\n    tag_11:\n        /* \"#utility.yul\":305:309   */\n      0x00\n        /* \"#utility.yul\":343:345   */\n      0x20\n        /* \"#utility.yul\":332:341   */\n      dup3\n        /* \"#utility.yul\":328:346   */\n      add\n        /* \"#utility.yul\":320:346   */\n      swap1\n      pop\n        /* \"#utility.yul\":356:421   */\n      tag_36\n        /* \"#utility.yul\":418:419   */\n      0x00\n        /* \"#utility.yul\":407:416   */\n      dup4\n        /* \"#utility.yul\":403:420   */\n      add\n        /* \"#utility.yul\":394:400   */\n      dup5\n        /* \"#utility.yul\":356:421   */\n      tag_27\n      jump\t// in\n    tag_36:\n        /* \"#utility.yul\":218:428   */\n      swap3\n      swap2\n      pop\n      pop\n      jump\t// out\n        /* \"#utility.yul\":434:581   */\n    tag_28:\n        /* \"#utility.yul\":535:546   */\n      0x00\n        /* \"#utility.yul\":572:575   */\n      dup2\n        /* \"#utility.yul\":557:575   */\n      swap1\n      pop\n        /* \"#utility.yul\":434:581   */\n      swap3\n      swap2\n      pop\n      pop\n      jump\t// out\n        /* \"#utility.yul\":587:701   */\n    tag_29:\n      pop\n      jump\t// out\n        /* \"#utility.yul\":707:1105   */\n    tag_30:\n        /* \"#utility.yul\":866:869   */\n      0x00\n        /* \"#utility.yul\":887:970   */\n      tag_40\n        /* \"#utility.yul\":968:969   */\n      0x00\n        /* \"#utility.yul\":963:966   */\n      dup4\n        /* \"#utility.yul\":887:970   */\n      tag_28\n      jump\t// in\n    tag_40:\n        /* \"#utility.yul\":880:970   */\n      swap2\n      pop\n        /* \"#utility.yul\":979:1072   */\n      tag_41\n        /* \"#utility.yul\":1068:1071   */\n      dup3\n        /* \"#utility.yul\":979:1072   */\n      tag_29\n      jump\t// in\n    tag_41:\n        /* \"#utility.yul\":1097:1098   */\n      0x00\n        /* \"#utility.yul\":1092:1095   */\n      dup3\n        /* \"#utility.yul\":1088:1099   */\n      add\n        /* \"#utility.yul\":1081:1099   */\n      swap1\n      pop\n        /* \"#utility.yul\":707:1105   */\n      swap2\n      swap1\n      pop\n      jump\t// out\n        /* \"#utility.yul\":1111:1490   */\n    tag_22:\n        /* \"#utility.yul\":1295:1298   */\n      0x00\n        /* \"#utility.yul\":1317:1464   */\n      tag_43\n        /* \"#utility.yul\":1460:1463   */\n      dup3\n        /* \"#utility.yul\":1317:1464   */\n      tag_30\n      jump\t// in\n    tag_43:\n        /* \"#utility.yul\":1310:1464   */\n      swap2\n      pop\n        /* \"#utility.yul\":1481:1484   */\n      dup2\n        /* \"#utility.yul\":1474:1484   */\n      swap1\n      pop\n        /* \"#utility.yul\":1111:1490   */\n      swap2\n      swap1\n      pop\n      jump\t// out\n\n    auxdata: 0xa2646970667358221220d53257186ca3591a9bc7cc28ec396fde7b6228fea06291ec9456abb661ed4c7364736f6c634300081e0033\n}\n",
				"bytecode": {
					"linkReferences": {},
					"object": "6080604052610277806100115f395ff3fe608060405234801561000f575f5ffd5b506004361061003f575f3560e01c80630b2353d61461004357806323fa2faa1461004d5780635c67d3b91461006b575b5f5ffd5b61004b610089565b005b6100556100eb565b60405161006291906101e7565b60405180910390f35b610073610141565b60405161008091906101e7565b60405180910390f35b73b31ba5cdc07a2eafaf77c95294fd4ae27d04e9ca73ffffffffffffffffffffffffffffffffffffffff166108fc670de0b6b3a764000090811502906040515f60405180830381858888f193505050501580156100e8573d5f5f3e3d5ffd5b50565b5f73b31ba5cdc07a2eafaf77c95294fd4ae27d04e9ca73ffffffffffffffffffffffffffffffffffffffff166108fc670de0b6b3a764000090811502906040515f60405180830381858888f19350505050905090565b5f5f73b31ba5cdc07a2eafaf77c95294fd4ae27d04e9ca73ffffffffffffffffffffffffffffffffffffffff16670de0b6b3a76400006040516101839061022d565b5f6040518083038185875af1925050503d805f81146101bd576040519150601f19603f3d011682016040523d82523d5f602084013e6101c2565b606091505b505090508091505090565b5f8115159050919050565b6101e1816101cd565b82525050565b5f6020820190506101fa5f8301846101d8565b92915050565b5f81905092915050565b50565b5f6102185f83610200565b91506102238261020a565b5f82019050919050565b5f6102378261020d565b915081905091905056fea2646970667358221220d53257186ca3591a9bc7cc28ec396fde7b6228fea06291ec9456abb661ed4c7364736f6c634300081e0033",
					"opcodes": "PUSH1 0x80 PUSH1 0x40 MSTORE PUSH2 0x277 DUP1 PUSH2 0x11 PUSH0 CODECOPY PUSH0 RETURN INVALID PUSH1 0x80 PUSH1 0x40 MSTORE CALLVALUE DUP1 ISZERO PUSH2 0xF JUMPI PUSH0 PUSH0 REVERT JUMPDEST POP PUSH1 0x4 CALLDATASIZE LT PUSH2 0x3F JUMPI PUSH0 CALLDATALOAD PUSH1 0xE0 SHR DUP1 PUSH4 0xB2353D6 EQ PUSH2 0x43 JUMPI DUP1 PUSH4 0x23FA2FAA EQ PUSH2 0x4D JUMPI DUP1 PUSH4 0x5C67D3B9 EQ PUSH2 0x6B JUMPI JUMPDEST PUSH0 PUSH0 REVERT JUMPDEST PUSH2 0x4B PUSH2 0x89 JUMP JUMPDEST STOP JUMPDEST PUSH2 0x55 PUSH2 0xEB JUMP JUMPDEST PUSH1 0x40 MLOAD PUSH2 0x62 SWAP2 SWAP1 PUSH2 0x1E7 JUMP JUMPDEST PUSH1 0x40 MLOAD DUP1 SWAP2 SUB SWAP1 RETURN JUMPDEST PUSH2 0x73 PUSH2 0x141 JUMP JUMPDEST PUSH1 0x40 MLOAD PUSH2 0x80 SWAP2 SWAP1 PUSH2 0x1E7 JUMP JUMPDEST PUSH1 0x40 MLOAD DUP1 SWAP2 SUB SWAP1 RETURN JUMPDEST PUSH20 0xB31BA5CDC07A2EAFAF77C95294FD4AE27D04E9CA PUSH20 0xFFFFFFFFFFFFFFFFFFFFFFFFFFFFFFFFFFFFFFFF AND PUSH2 0x8FC PUSH8 0xDE0B6B3A7640000 SWAP1 DUP2 ISZERO MUL SWAP1 PUSH1 0x40 MLOAD PUSH0 PUSH1 0x40 MLOAD DUP1 DUP4 SUB DUP2 DUP6 DUP9 DUP9 CALL SWAP4 POP POP POP POP ISZERO DUP1 ISZERO PUSH2 0xE8 JUMPI RETURNDATASIZE PUSH0 PUSH0 RETURNDATACOPY RETURNDATASIZE PUSH0 REVERT JUMPDEST POP JUMP JUMPDEST PUSH0 PUSH20 0xB31BA5CDC07A2EAFAF77C95294FD4AE27D04E9CA PUSH20 0xFFFFFFFFFFFFFFFFFFFFFFFFFFFFFFFFFFFFFFFF AND PUSH2 0x8FC PUSH8 0xDE0B6B3A7640000 SWAP1 DUP2 ISZERO MUL SWAP1 PUSH1 0x40 MLOAD PUSH0 PUSH1 0x40 MLOAD DUP1 DUP4 SUB DUP2 DUP6 DUP9 DUP9 CALL SWAP4 POP POP POP POP SWAP1 POP SWAP1 JUMP JUMPDEST PUSH0 PUSH0 PUSH20 0xB31BA5CDC07A2EAFAF77C95294FD4AE27D04E9CA PUSH20 0xFFFFFFFFFFFFFFFFFFFFFFFFFFFFFFFFFFFFFFFF AND PUSH8 0xDE0B6B3A7640000 PUSH1 0x40 MLOAD PUSH2 0x183 SWAP1 PUSH2 0x22D JUMP JUMPDEST PUSH0 PUSH1 0x40 MLOAD DUP1 DUP4 SUB DUP2 DUP6 DUP8 GAS CALL SWAP3 POP POP POP RETURNDATASIZE DUP1 PUSH0 DUP2 EQ PUSH2 0x1BD JUMPI PUSH1 0x40 MLOAD SWAP2 POP PUSH1 0x1F NOT PUSH1 0x3F RETURNDATASIZE ADD AND DUP3 ADD PUSH1 0x40 MSTORE RETURNDATASIZE DUP3 MSTORE RETURNDATASIZE PUSH0 PUSH1 0x20 DUP5 ADD RETURNDATACOPY PUSH2 0x1C2 JUMP JUMPDEST PUSH1 0x60 SWAP2 POP JUMPDEST POP POP SWAP1 POP DUP1 SWAP2 POP POP SWAP1 JUMP JUMPDEST PUSH0 DUP2 ISZERO ISZERO SWAP1 POP SWAP2 SWAP1 POP JUMP JUMPDEST PUSH2 0x1E1 DUP2 PUSH2 0x1CD JUMP JUMPDEST DUP3 MSTORE POP POP JUMP JUMPDEST PUSH0 PUSH1 0x20 DUP3 ADD SWAP1 POP PUSH2 0x1FA PUSH0 DUP4 ADD DUP5 PUSH2 0x1D8 JUMP JUMPDEST SWAP3 SWAP2 POP POP JUMP JUMPDEST PUSH0 DUP2 SWAP1 POP SWAP3 SWAP2 POP POP JUMP JUMPDEST POP JUMP JUMPDEST PUSH0 PUSH2 0x218 PUSH0 DUP4 PUSH2 0x200 JUMP JUMPDEST SWAP2 POP PUSH2 0x223 DUP3 PUSH2 0x20A JUMP JUMPDEST PUSH0 DUP3 ADD SWAP1 POP SWAP2 SWAP1 POP JUMP JUMPDEST PUSH0 PUSH2 0x237 DUP3 PUSH2 0x20D JUMP JUMPDEST SWAP2 POP DUP2 SWAP1 POP SWAP2 SWAP1 POP JUMP INVALID LOG2 PUSH5 0x6970667358 0x22 SLT KECCAK256 0xD5 ORIGIN JUMPI XOR PUSH13 0xA3591A9BC7CC28EC396FDE7B62 0x28 INVALID LOG0 PUSH3 0x91EC94 JUMP 0xAB 0xB6 PUSH2 0xED4C PUSH20 0x64736F6C634300081E0033000000000000000000 "
				},
				"gasEstimates": {
					"creation": {
						"codeDepositCost": "126200",
						"executionCost": "145",
						"totalCost": "126345"
					},
					"external": {
						"enviarEtherCall()": "infinite",
						"enviarEtherSent()": "infinite",
						"enviarEtherTranfer()": "infinite"
					}
				},
				"methodIdentifiers": {
					"enviarEtherCall()": "5c67d3b9",
					"enviarEtherSent()": "23fa2faa",
					"enviarEtherTranfer()": "0b2353d6"
				}
			},
			"storageLayout": {
				"storage": [],
				"types": null
			},
			"userdoc": {
				"kind": "user",
				"methods": {},
				"version": 1
			}
		}
	}
}