{
	"Introdução ao Solidity/Aprenda Solidity/Ether e gás em uma call.sol": {
		"Extrador": {
			"abi": [
				{
					"inputs": [],
					"stateMutability": "payable",
					"type": "constructor"
				},
				{
					"inputs": [
						{
							"internalType": "address",
							"name": "endereco",
							"type": "address"
						},
						{
							"internalType": "uint256",
							"name": "_value",
							"type": "uint256"
						}
					],
					"name": "callgetValue",
					"outputs": [
						{
							"internalType": "bool",
							"name": "",
							"type": "bool"
						},
						{
							"internalType": "bytes",
							"name": "",
							"type": "bytes"
						}
					],
					"stateMutability": "nonpayable",
					"type": "function"
				},
				{
					"inputs": [
						{
							"internalType": "address",
							"name": "endereco",
							"type": "address"
						},
						{
							"internalType": "uint256",
							"name": "_value",
							"type": "uint256"
						}
					],
					"name": "callgettValue",
					"outputs": [
						{
							"internalType": "bool",
							"name": "",
							"type": "bool"
						},
						{
							"internalType": "bytes",
							"name": "",
							"type": "bytes"
						}
					],
					"stateMutability": "nonpayable",
					"type": "function"
				},
				{
					"inputs": [
						{
							"internalType": "address",
							"name": "endereco",
							"type": "address"
						}
					],
					"name": "callsetValue",
					"outputs": [
						{
							"internalType": "bool",
							"name": "",
							"type": "bool"
						},
						{
							"internalType": "bytes",
							"name": "",
							"type": "bytes"
						}
					],
					"stateMutability": "nonpayable",
					"type": "function"
				},
				{
					"inputs": [
						{
							"internalType": "address",
							"name": "endereco",
							"type": "address"
						}
					],
					"name": "enviarEther",
					"outputs": [
						{
							"internalType": "bool",
							"name": "",
							"type": "bool"
						},
						{
							"internalType": "bytes",
							"name": "",
							"type": "bytes"
						}
					],
					"stateMutability": "nonpayable",
					"type": "function"
				}
			],
			"devdoc": {
				"kind": "dev",
				"methods": {},
				"version": 1
			},
			"evm": {
				"assembly": "    /* \"Introdu\\xc3\\xa7\\xc3\\xa3o ao Solidity/Aprenda Solidity/Ether e g\\xc3\\xa1s em uma call.sol\":287:1277  contract Extrador{... */\n  mstore(0x40, 0x80)\n  dataSize(sub_0)\n  dup1\n  dataOffset(sub_0)\n  0x00\n  codecopy\n  0x00\n  return\nstop\n\nsub_0: assembly {\n        /* \"Introdu\\xc3\\xa7\\xc3\\xa3o ao Solidity/Aprenda Solidity/Ether e g\\xc3\\xa1s em uma call.sol\":287:1277  contract Extrador{... */\n      mstore(0x40, 0x80)\n      callvalue\n      dup1\n      iszero\n      tag_1\n      jumpi\n      revert(0x00, 0x00)\n    tag_1:\n      pop\n      jumpi(tag_2, lt(calldatasize, 0x04))\n      shr(0xe0, calldataload(0x00))\n      dup1\n      0x0331f5d6\n      eq\n      tag_3\n      jumpi\n      dup1\n      0x0a0b7073\n      eq\n      tag_4\n      jumpi\n      dup1\n      0x6a784dfe\n      eq\n      tag_5\n      jumpi\n      dup1\n      0xe8a90ff4\n      eq\n      tag_6\n      jumpi\n    tag_2:\n      revert(0x00, 0x00)\n        /* \"Introdu\\xc3\\xa7\\xc3\\xa3o ao Solidity/Aprenda Solidity/Ether e g\\xc3\\xa1s em uma call.sol\":815:1012  function enviarEther(address endereco) public returns (bool, bytes memory){... */\n    tag_3:\n      tag_7\n      0x04\n      dup1\n      calldatasize\n      sub\n      dup2\n      add\n      swap1\n      tag_8\n      swap2\n      swap1\n      tag_9\n      jump\t// in\n    tag_8:\n      tag_10\n      jump\t// in\n    tag_7:\n      mload(0x40)\n      tag_11\n      swap3\n      swap2\n      swap1\n      tag_12\n      jump\t// in\n    tag_11:\n      mload(0x40)\n      dup1\n      swap2\n      sub\n      swap1\n      return\n        /* \"Introdu\\xc3\\xa7\\xc3\\xa3o ao Solidity/Aprenda Solidity/Ether e g\\xc3\\xa1s em uma call.sol\":1018:1275  function callgettValue(address endereco, uint _value) public returns (bool, bytes memory){... */\n    tag_4:\n      tag_13\n      0x04\n      dup1\n      calldatasize\n      sub\n      dup2\n      add\n      swap1\n      tag_14\n      swap2\n      swap1\n      tag_15\n      jump\t// in\n    tag_14:\n      tag_16\n      jump\t// in\n    tag_13:\n      mload(0x40)\n      tag_17\n      swap3\n      swap2\n      swap1\n      tag_12\n      jump\t// in\n    tag_17:\n      mload(0x40)\n      dup1\n      swap2\n      sub\n      swap1\n      return\n        /* \"Introdu\\xc3\\xa7\\xc3\\xa3o ao Solidity/Aprenda Solidity/Ether e g\\xc3\\xa1s em uma call.sol\":592:809  function callsetValue(address endereco) public returns (bool, bytes memory){... */\n    tag_5:\n      tag_18\n      0x04\n      dup1\n      calldatasize\n      sub\n      dup2\n      add\n      swap1\n      tag_19\n      swap2\n      swap1\n      tag_9\n      jump\t// in\n    tag_19:\n      tag_20\n      jump\t// in\n    tag_18:\n      mload(0x40)\n      tag_21\n      swap3\n      swap2\n      swap1\n      tag_12\n      jump\t// in\n    tag_21:\n      mload(0x40)\n      dup1\n      swap2\n      sub\n      swap1\n      return\n        /* \"Introdu\\xc3\\xa7\\xc3\\xa3o ao Solidity/Aprenda Solidity/Ether e g\\xc3\\xa1s em uma call.sol\":341:586  function callgetValue(address endereco, uint _value) public returns (bool, bytes memory){... */\n    tag_6:\n      tag_22\n      0x04\n      dup1\n      calldatasize\n      sub\n      dup2\n      add\n      swap1\n      tag_23\n      swap2\n      swap1\n      tag_15\n      jump\t// in\n    tag_23:\n      tag_24\n      jump\t// in\n    tag_22:\n      mload(0x40)\n      tag_25\n      swap3\n      swap2\n      swap1\n      tag_12\n      jump\t// in\n    tag_25:\n      mload(0x40)\n      dup1\n      swap2\n      sub\n      swap1\n      return\n        /* \"Introdu\\xc3\\xa7\\xc3\\xa3o ao Solidity/Aprenda Solidity/Ether e g\\xc3\\xa1s em uma call.sol\":815:1012  function enviarEther(address endereco) public returns (bool, bytes memory){... */\n    tag_10:\n        /* \"Introdu\\xc3\\xa7\\xc3\\xa3o ao Solidity/Aprenda Solidity/Ether e g\\xc3\\xa1s em uma call.sol\":870:874  bool */\n      0x00\n        /* \"Introdu\\xc3\\xa7\\xc3\\xa3o ao Solidity/Aprenda Solidity/Ether e g\\xc3\\xa1s em uma call.sol\":876:888  bytes memory */\n      0x60\n        /* \"Introdu\\xc3\\xa7\\xc3\\xa3o ao Solidity/Aprenda Solidity/Ether e g\\xc3\\xa1s em uma call.sol\":901:913  bool success */\n      0x00\n        /* \"Introdu\\xc3\\xa7\\xc3\\xa3o ao Solidity/Aprenda Solidity/Ether e g\\xc3\\xa1s em uma call.sol\":915:934  bytes memory retuns */\n      0x00\n        /* \"Introdu\\xc3\\xa7\\xc3\\xa3o ao Solidity/Aprenda Solidity/Ether e g\\xc3\\xa1s em uma call.sol\":938:946  endereco */\n      dup5\n        /* \"Introdu\\xc3\\xa7\\xc3\\xa3o ao Solidity/Aprenda Solidity/Ether e g\\xc3\\xa1s em uma call.sol\":938:951  endereco.call */\n      0xffffffffffffffffffffffffffffffffffffffff\n      and\n        /* \"Introdu\\xc3\\xa7\\xc3\\xa3o ao Solidity/Aprenda Solidity/Ether e g\\xc3\\xa1s em uma call.sol\":959:966  1 ether */\n      0x0de0b6b3a7640000\n        /* \"Introdu\\xc3\\xa7\\xc3\\xa3o ao Solidity/Aprenda Solidity/Ether e g\\xc3\\xa1s em uma call.sol\":938:971  endereco.call{value: 1 ether}(\"\") */\n      mload(0x40)\n      tag_27\n      swap1\n      tag_28\n      jump\t// in\n    tag_27:\n      0x00\n      mload(0x40)\n      dup1\n      dup4\n      sub\n      dup2\n      dup6\n      dup8\n      gas\n      call\n      swap3\n      pop\n      pop\n      pop\n      returndatasize\n      dup1\n      0x00\n      dup2\n      eq\n      tag_31\n      jumpi\n      mload(0x40)\n      swap2\n      pop\n      and(add(returndatasize, 0x3f), not(0x1f))\n      dup3\n      add\n      0x40\n      mstore\n      returndatasize\n      dup3\n      mstore\n      returndatasize\n      0x00\n      0x20\n      dup5\n      add\n      returndatacopy\n      jump(tag_30)\n    tag_31:\n      0x60\n      swap2\n      pop\n    tag_30:\n      pop\n        /* \"Introdu\\xc3\\xa7\\xc3\\xa3o ao Solidity/Aprenda Solidity/Ether e g\\xc3\\xa1s em uma call.sol\":900:971  (bool success, bytes memory retuns) = endereco.call{value: 1 ether}(\"\") */\n      swap2\n      pop\n      swap2\n      pop\n        /* \"Introdu\\xc3\\xa7\\xc3\\xa3o ao Solidity/Aprenda Solidity/Ether e g\\xc3\\xa1s em uma call.sol\":989:996  success */\n      dup2\n        /* \"Introdu\\xc3\\xa7\\xc3\\xa3o ao Solidity/Aprenda Solidity/Ether e g\\xc3\\xa1s em uma call.sol\":998:1004  retuns */\n      dup2\n        /* \"Introdu\\xc3\\xa7\\xc3\\xa3o ao Solidity/Aprenda Solidity/Ether e g\\xc3\\xa1s em uma call.sol\":981:1005  return (success, retuns) */\n      swap4\n      pop\n      swap4\n      pop\n      pop\n      pop\n        /* \"Introdu\\xc3\\xa7\\xc3\\xa3o ao Solidity/Aprenda Solidity/Ether e g\\xc3\\xa1s em uma call.sol\":815:1012  function enviarEther(address endereco) public returns (bool, bytes memory){... */\n      swap2\n      pop\n      swap2\n      jump\t// out\n        /* \"Introdu\\xc3\\xa7\\xc3\\xa3o ao Solidity/Aprenda Solidity/Ether e g\\xc3\\xa1s em uma call.sol\":1018:1275  function callgettValue(address endereco, uint _value) public returns (bool, bytes memory){... */\n    tag_16:\n        /* \"Introdu\\xc3\\xa7\\xc3\\xa3o ao Solidity/Aprenda Solidity/Ether e g\\xc3\\xa1s em uma call.sol\":1088:1092  bool */\n      0x00\n        /* \"Introdu\\xc3\\xa7\\xc3\\xa3o ao Solidity/Aprenda Solidity/Ether e g\\xc3\\xa1s em uma call.sol\":1094:1106  bytes memory */\n      0x60\n        /* \"Introdu\\xc3\\xa7\\xc3\\xa3o ao Solidity/Aprenda Solidity/Ether e g\\xc3\\xa1s em uma call.sol\":1119:1131  bool success */\n      0x00\n        /* \"Introdu\\xc3\\xa7\\xc3\\xa3o ao Solidity/Aprenda Solidity/Ether e g\\xc3\\xa1s em uma call.sol\":1133:1152  bytes memory returs */\n      0x00\n        /* \"Introdu\\xc3\\xa7\\xc3\\xa3o ao Solidity/Aprenda Solidity/Ether e g\\xc3\\xa1s em uma call.sol\":1156:1164  endereco */\n      dup6\n        /* \"Introdu\\xc3\\xa7\\xc3\\xa3o ao Solidity/Aprenda Solidity/Ether e g\\xc3\\xa1s em uma call.sol\":1156:1169  endereco.call */\n      0xffffffffffffffffffffffffffffffffffffffff\n      and\n        /* \"Introdu\\xc3\\xa7\\xc3\\xa3o ao Solidity/Aprenda Solidity/Ether e g\\xc3\\xa1s em uma call.sol\":1175:1179  1000 */\n      0x03e8\n        /* \"Introdu\\xc3\\xa7\\xc3\\xa3o ao Solidity/Aprenda Solidity/Ether e g\\xc3\\xa1s em uma call.sol\":1226:1232  _value */\n      dup7\n        /* \"Introdu\\xc3\\xa7\\xc3\\xa3o ao Solidity/Aprenda Solidity/Ether e g\\xc3\\xa1s em uma call.sol\":1181:1233  abi.encodeWithSignature(\"getValue(uint256)\", _value) */\n      add(0x24, mload(0x40))\n      tag_33\n      swap2\n      swap1\n      tag_34\n      jump\t// in\n    tag_33:\n      mload(0x40)\n      0x20\n      dup2\n      dup4\n      sub\n      sub\n      dup2\n      mstore\n      swap1\n      0x40\n      mstore\n      and(not(0xffffffffffffffffffffffffffffffffffffffffffffffffffffffff), 0x0ff4c91600000000000000000000000000000000000000000000000000000000)\n      0x20\n      dup3\n      add\n      dup1\n      mload\n      0xffffffffffffffffffffffffffffffffffffffffffffffffffffffff\n      dup4\n      dup2\n      dup4\n      and\n      or\n      dup4\n      mstore\n      pop\n      pop\n      pop\n      pop\n        /* \"Introdu\\xc3\\xa7\\xc3\\xa3o ao Solidity/Aprenda Solidity/Ether e g\\xc3\\xa1s em uma call.sol\":1156:1234  endereco.call{gas: 1000}(abi.encodeWithSignature(\"getValue(uint256)\", _value)) */\n      mload(0x40)\n      tag_35\n      swap2\n      swap1\n      tag_36\n      jump\t// in\n    tag_35:\n      0x00\n      mload(0x40)\n      dup1\n      dup4\n      sub\n      dup2\n      0x00\n      dup8\n      dup8\n      call\n      swap3\n      pop\n      pop\n      pop\n      returndatasize\n      dup1\n      0x00\n      dup2\n      eq\n      tag_39\n      jumpi\n      mload(0x40)\n      swap2\n      pop\n      and(add(returndatasize, 0x3f), not(0x1f))\n      dup3\n      add\n      0x40\n      mstore\n      returndatasize\n      dup3\n      mstore\n      returndatasize\n      0x00\n      0x20\n      dup5\n      add\n      returndatacopy\n      jump(tag_38)\n    tag_39:\n      0x60\n      swap2\n      pop\n    tag_38:\n      pop\n        /* \"Introdu\\xc3\\xa7\\xc3\\xa3o ao Solidity/Aprenda Solidity/Ether e g\\xc3\\xa1s em uma call.sol\":1118:1234  (bool success, bytes memory returs) = endereco.call{gas: 1000}(abi.encodeWithSignature(\"getValue(uint256)\", _value)) */\n      swap2\n      pop\n      swap2\n      pop\n        /* \"Introdu\\xc3\\xa7\\xc3\\xa3o ao Solidity/Aprenda Solidity/Ether e g\\xc3\\xa1s em uma call.sol\":1252:1259  success */\n      dup2\n        /* \"Introdu\\xc3\\xa7\\xc3\\xa3o ao Solidity/Aprenda Solidity/Ether e g\\xc3\\xa1s em uma call.sol\":1261:1267  returs */\n      dup2\n        /* \"Introdu\\xc3\\xa7\\xc3\\xa3o ao Solidity/Aprenda Solidity/Ether e g\\xc3\\xa1s em uma call.sol\":1244:1268  return (success, returs) */\n      swap4\n      pop\n      swap4\n      pop\n      pop\n      pop\n        /* \"Introdu\\xc3\\xa7\\xc3\\xa3o ao Solidity/Aprenda Solidity/Ether e g\\xc3\\xa1s em uma call.sol\":1018:1275  function callgettValue(address endereco, uint _value) public returns (bool, bytes memory){... */\n      swap3\n      pop\n      swap3\n      swap1\n      pop\n      jump\t// out\n        /* \"Introdu\\xc3\\xa7\\xc3\\xa3o ao Solidity/Aprenda Solidity/Ether e g\\xc3\\xa1s em uma call.sol\":592:809  function callsetValue(address endereco) public returns (bool, bytes memory){... */\n    tag_20:\n        /* \"Introdu\\xc3\\xa7\\xc3\\xa3o ao Solidity/Aprenda Solidity/Ether e g\\xc3\\xa1s em uma call.sol\":648:652  bool */\n      0x00\n        /* \"Introdu\\xc3\\xa7\\xc3\\xa3o ao Solidity/Aprenda Solidity/Ether e g\\xc3\\xa1s em uma call.sol\":654:666  bytes memory */\n      0x60\n        /* \"Introdu\\xc3\\xa7\\xc3\\xa3o ao Solidity/Aprenda Solidity/Ether e g\\xc3\\xa1s em uma call.sol\":679:691  bool success */\n      0x00\n        /* \"Introdu\\xc3\\xa7\\xc3\\xa3o ao Solidity/Aprenda Solidity/Ether e g\\xc3\\xa1s em uma call.sol\":693:712  bytes memory returs */\n      0x00\n        /* \"Introdu\\xc3\\xa7\\xc3\\xa3o ao Solidity/Aprenda Solidity/Ether e g\\xc3\\xa1s em uma call.sol\":716:724  endereco */\n      dup5\n        /* \"Introdu\\xc3\\xa7\\xc3\\xa3o ao Solidity/Aprenda Solidity/Ether e g\\xc3\\xa1s em uma call.sol\":716:729  endereco.call */\n      0xffffffffffffffffffffffffffffffffffffffff\n      and\n        /* \"Introdu\\xc3\\xa7\\xc3\\xa3o ao Solidity/Aprenda Solidity/Ether e g\\xc3\\xa1s em uma call.sol\":730:767  abi.encodeWithSignature(\"setValue()\") */\n      add(0x24, mload(0x40))\n      mload(0x40)\n      0x20\n      dup2\n      dup4\n      sub\n      sub\n      dup2\n      mstore\n      swap1\n      0x40\n      mstore\n      and(not(0xffffffffffffffffffffffffffffffffffffffffffffffffffffffff), 0x4fa519fa00000000000000000000000000000000000000000000000000000000)\n      0x20\n      dup3\n      add\n      dup1\n      mload\n      0xffffffffffffffffffffffffffffffffffffffffffffffffffffffff\n      dup4\n      dup2\n      dup4\n      and\n      or\n      dup4\n      mstore\n      pop\n      pop\n      pop\n      pop\n        /* \"Introdu\\xc3\\xa7\\xc3\\xa3o ao Solidity/Aprenda Solidity/Ether e g\\xc3\\xa1s em uma call.sol\":716:768  endereco.call(abi.encodeWithSignature(\"setValue()\")) */\n      mload(0x40)\n      tag_41\n      swap2\n      swap1\n      tag_36\n      jump\t// in\n    tag_41:\n      0x00\n      mload(0x40)\n      dup1\n      dup4\n      sub\n      dup2\n      0x00\n      dup7\n      gas\n      call\n      swap2\n      pop\n      pop\n      returndatasize\n      dup1\n      0x00\n      dup2\n      eq\n      tag_44\n      jumpi\n      mload(0x40)\n      swap2\n      pop\n      and(add(returndatasize, 0x3f), not(0x1f))\n      dup3\n      add\n      0x40\n      mstore\n      returndatasize\n      dup3\n      mstore\n      returndatasize\n      0x00\n      0x20\n      dup5\n      add\n      returndatacopy\n      jump(tag_43)\n    tag_44:\n      0x60\n      swap2\n      pop\n    tag_43:\n      pop\n        /* \"Introdu\\xc3\\xa7\\xc3\\xa3o ao Solidity/Aprenda Solidity/Ether e g\\xc3\\xa1s em uma call.sol\":678:768  (bool success, bytes memory returs) = endereco.call(abi.encodeWithSignature(\"setValue()\")) */\n      swap2\n      pop\n      swap2\n      pop\n        /* \"Introdu\\xc3\\xa7\\xc3\\xa3o ao Solidity/Aprenda Solidity/Ether e g\\xc3\\xa1s em uma call.sol\":786:793  success */\n      dup2\n        /* \"Introdu\\xc3\\xa7\\xc3\\xa3o ao Solidity/Aprenda Solidity/Ether e g\\xc3\\xa1s em uma call.sol\":795:801  returs */\n      dup2\n        /* \"Introdu\\xc3\\xa7\\xc3\\xa3o ao Solidity/Aprenda Solidity/Ether e g\\xc3\\xa1s em uma call.sol\":778:802  return (success, returs) */\n      swap4\n      pop\n      swap4\n      pop\n      pop\n      pop\n        /* \"Introdu\\xc3\\xa7\\xc3\\xa3o ao Solidity/Aprenda Solidity/Ether e g\\xc3\\xa1s em uma call.sol\":592:809  function callsetValue(address endereco) public returns (bool, bytes memory){... */\n      swap2\n      pop\n      swap2\n      jump\t// out\n        /* \"Introdu\\xc3\\xa7\\xc3\\xa3o ao Solidity/Aprenda Solidity/Ether e g\\xc3\\xa1s em uma call.sol\":341:586  function callgetValue(address endereco, uint _value) public returns (bool, bytes memory){... */\n    tag_24:\n        /* \"Introdu\\xc3\\xa7\\xc3\\xa3o ao Solidity/Aprenda Solidity/Ether e g\\xc3\\xa1s em uma call.sol\":410:414  bool */\n      0x00\n        /* \"Introdu\\xc3\\xa7\\xc3\\xa3o ao Solidity/Aprenda Solidity/Ether e g\\xc3\\xa1s em uma call.sol\":416:428  bytes memory */\n      0x60\n        /* \"Introdu\\xc3\\xa7\\xc3\\xa3o ao Solidity/Aprenda Solidity/Ether e g\\xc3\\xa1s em uma call.sol\":441:453  bool success */\n      0x00\n        /* \"Introdu\\xc3\\xa7\\xc3\\xa3o ao Solidity/Aprenda Solidity/Ether e g\\xc3\\xa1s em uma call.sol\":455:474  bytes memory returs */\n      0x00\n        /* \"Introdu\\xc3\\xa7\\xc3\\xa3o ao Solidity/Aprenda Solidity/Ether e g\\xc3\\xa1s em uma call.sol\":478:486  endereco */\n      dup6\n        /* \"Introdu\\xc3\\xa7\\xc3\\xa3o ao Solidity/Aprenda Solidity/Ether e g\\xc3\\xa1s em uma call.sol\":478:491  endereco.call */\n      0xffffffffffffffffffffffffffffffffffffffff\n      and\n        /* \"Introdu\\xc3\\xa7\\xc3\\xa3o ao Solidity/Aprenda Solidity/Ether e g\\xc3\\xa1s em uma call.sol\":537:543  _value */\n      dup6\n        /* \"Introdu\\xc3\\xa7\\xc3\\xa3o ao Solidity/Aprenda Solidity/Ether e g\\xc3\\xa1s em uma call.sol\":492:544  abi.encodeWithSignature(\"getValue(uint256)\", _value) */\n      add(0x24, mload(0x40))\n      tag_46\n      swap2\n      swap1\n      tag_34\n      jump\t// in\n    tag_46:\n      mload(0x40)\n      0x20\n      dup2\n      dup4\n      sub\n      sub\n      dup2\n      mstore\n      swap1\n      0x40\n      mstore\n      and(not(0xffffffffffffffffffffffffffffffffffffffffffffffffffffffff), 0x0ff4c91600000000000000000000000000000000000000000000000000000000)\n      0x20\n      dup3\n      add\n      dup1\n      mload\n      0xffffffffffffffffffffffffffffffffffffffffffffffffffffffff\n      dup4\n      dup2\n      dup4\n      and\n      or\n      dup4\n      mstore\n      pop\n      pop\n      pop\n      pop\n        /* \"Introdu\\xc3\\xa7\\xc3\\xa3o ao Solidity/Aprenda Solidity/Ether e g\\xc3\\xa1s em uma call.sol\":478:545  endereco.call(abi.encodeWithSignature(\"getValue(uint256)\", _value)) */\n      mload(0x40)\n      tag_47\n      swap2\n      swap1\n      tag_36\n      jump\t// in\n    tag_47:\n      0x00\n      mload(0x40)\n      dup1\n      dup4\n      sub\n      dup2\n      0x00\n      dup7\n      gas\n      call\n      swap2\n      pop\n      pop\n      returndatasize\n      dup1\n      0x00\n      dup2\n      eq\n      tag_50\n      jumpi\n      mload(0x40)\n      swap2\n      pop\n      and(add(returndatasize, 0x3f), not(0x1f))\n      dup3\n      add\n      0x40\n      mstore\n      returndatasize\n      dup3\n      mstore\n      returndatasize\n      0x00\n      0x20\n      dup5\n      add\n      returndatacopy\n      jump(tag_49)\n    tag_50:\n      0x60\n      swap2\n      pop\n    tag_49:\n      pop\n        /* \"Introdu\\xc3\\xa7\\xc3\\xa3o ao Solidity/Aprenda Solidity/Ether e g\\xc3\\xa1s em uma call.sol\":440:545  (bool success, bytes memory returs) = endereco.call(abi.encodeWithSignature(\"getValue(uint256)\", _value)) */\n      swap2\n      pop\n      swap2\n      pop\n        /* \"Introdu\\xc3\\xa7\\xc3\\xa3o ao Solidity/Aprenda Solidity/Ether e g\\xc3\\xa1s em uma call.sol\":563:570  success */\n      dup2\n        /* \"Introdu\\xc3\\xa7\\xc3\\xa3o ao Solidity/Aprenda Solidity/Ether e g\\xc3\\xa1s em uma call.sol\":572:578  returs */\n      dup2\n        /* \"Introdu\\xc3\\xa7\\xc3\\xa3o ao Solidity/Aprenda Solidity/Ether e g\\xc3\\xa1s em uma call.sol\":555:579  return (success, returs) */\n      swap4\n      pop\n      swap4\n      pop\n      pop\n      pop\n        /* \"Introdu\\xc3\\xa7\\xc3\\xa3o ao Solidity/Aprenda Solidity/Ether e g\\xc3\\xa1s em uma call.sol\":341:586  function callgetValue(address endereco, uint _value) public returns (bool, bytes memory){... */\n      swap3\n      pop\n      swap3\n      swap1\n      pop\n      jump\t// out\n        /* \"#utility.yul\":88:205   */\n    tag_52:\n        /* \"#utility.yul\":197:198   */\n      0x00\n        /* \"#utility.yul\":194:195   */\n      0x00\n        /* \"#utility.yul\":187:199   */\n      revert\n        /* \"#utility.yul\":334:460   */\n    tag_54:\n        /* \"#utility.yul\":371:378   */\n      0x00\n        /* \"#utility.yul\":411:453   */\n      0xffffffffffffffffffffffffffffffffffffffff\n        /* \"#utility.yul\":404:409   */\n      dup3\n        /* \"#utility.yul\":400:454   */\n      and\n        /* \"#utility.yul\":389:454   */\n      swap1\n      pop\n        /* \"#utility.yul\":334:460   */\n      swap2\n      swap1\n      pop\n      jump\t// out\n        /* \"#utility.yul\":466:562   */\n    tag_55:\n        /* \"#utility.yul\":503:510   */\n      0x00\n        /* \"#utility.yul\":532:556   */\n      tag_79\n        /* \"#utility.yul\":550:555   */\n      dup3\n        /* \"#utility.yul\":532:556   */\n      tag_54\n      jump\t// in\n    tag_79:\n        /* \"#utility.yul\":521:556   */\n      swap1\n      pop\n        /* \"#utility.yul\":466:562   */\n      swap2\n      swap1\n      pop\n      jump\t// out\n        /* \"#utility.yul\":568:690   */\n    tag_56:\n        /* \"#utility.yul\":641:665   */\n      tag_81\n        /* \"#utility.yul\":659:664   */\n      dup2\n        /* \"#utility.yul\":641:665   */\n      tag_55\n      jump\t// in\n    tag_81:\n        /* \"#utility.yul\":634:639   */\n      dup2\n        /* \"#utility.yul\":631:666   */\n      eq\n        /* \"#utility.yul\":621:684   */\n      tag_82\n      jumpi\n        /* \"#utility.yul\":680:681   */\n      0x00\n        /* \"#utility.yul\":677:678   */\n      0x00\n        /* \"#utility.yul\":670:682   */\n      revert\n        /* \"#utility.yul\":621:684   */\n    tag_82:\n        /* \"#utility.yul\":568:690   */\n      pop\n      jump\t// out\n        /* \"#utility.yul\":696:835   */\n    tag_57:\n        /* \"#utility.yul\":742:747   */\n      0x00\n        /* \"#utility.yul\":780:786   */\n      dup2\n        /* \"#utility.yul\":767:787   */\n      calldataload\n        /* \"#utility.yul\":758:787   */\n      swap1\n      pop\n        /* \"#utility.yul\":796:829   */\n      tag_84\n        /* \"#utility.yul\":823:828   */\n      dup2\n        /* \"#utility.yul\":796:829   */\n      tag_56\n      jump\t// in\n    tag_84:\n        /* \"#utility.yul\":696:835   */\n      swap3\n      swap2\n      pop\n      pop\n      jump\t// out\n        /* \"#utility.yul\":841:1170   */\n    tag_9:\n        /* \"#utility.yul\":900:906   */\n      0x00\n        /* \"#utility.yul\":949:951   */\n      0x20\n        /* \"#utility.yul\":937:946   */\n      dup3\n        /* \"#utility.yul\":928:935   */\n      dup5\n        /* \"#utility.yul\":924:947   */\n      sub\n        /* \"#utility.yul\":920:952   */\n      slt\n        /* \"#utility.yul\":917:1036   */\n      iszero\n      tag_86\n      jumpi\n        /* \"#utility.yul\":955:1034   */\n      tag_87\n      tag_52\n      jump\t// in\n    tag_87:\n        /* \"#utility.yul\":917:1036   */\n    tag_86:\n        /* \"#utility.yul\":1075:1076   */\n      0x00\n        /* \"#utility.yul\":1100:1153   */\n      tag_88\n        /* \"#utility.yul\":1145:1152   */\n      dup5\n        /* \"#utility.yul\":1136:1142   */\n      dup3\n        /* \"#utility.yul\":1125:1134   */\n      dup6\n        /* \"#utility.yul\":1121:1143   */\n      add\n        /* \"#utility.yul\":1100:1153   */\n      tag_57\n      jump\t// in\n    tag_88:\n        /* \"#utility.yul\":1090:1153   */\n      swap2\n      pop\n        /* \"#utility.yul\":1046:1163   */\n      pop\n        /* \"#utility.yul\":841:1170   */\n      swap3\n      swap2\n      pop\n      pop\n      jump\t// out\n        /* \"#utility.yul\":1176:1266   */\n    tag_58:\n        /* \"#utility.yul\":1210:1217   */\n      0x00\n        /* \"#utility.yul\":1253:1258   */\n      dup2\n        /* \"#utility.yul\":1246:1259   */\n      iszero\n        /* \"#utility.yul\":1239:1260   */\n      iszero\n        /* \"#utility.yul\":1228:1260   */\n      swap1\n      pop\n        /* \"#utility.yul\":1176:1266   */\n      swap2\n      swap1\n      pop\n      jump\t// out\n        /* \"#utility.yul\":1272:1381   */\n    tag_59:\n        /* \"#utility.yul\":1353:1374   */\n      tag_91\n        /* \"#utility.yul\":1368:1373   */\n      dup2\n        /* \"#utility.yul\":1353:1374   */\n      tag_58\n      jump\t// in\n    tag_91:\n        /* \"#utility.yul\":1348:1351   */\n      dup3\n        /* \"#utility.yul\":1341:1375   */\n      mstore\n        /* \"#utility.yul\":1272:1381   */\n      pop\n      pop\n      jump\t// out\n        /* \"#utility.yul\":1387:1485   */\n    tag_60:\n        /* \"#utility.yul\":1438:1444   */\n      0x00\n        /* \"#utility.yul\":1472:1477   */\n      dup2\n        /* \"#utility.yul\":1466:1478   */\n      mload\n        /* \"#utility.yul\":1456:1478   */\n      swap1\n      pop\n        /* \"#utility.yul\":1387:1485   */\n      swap2\n      swap1\n      pop\n      jump\t// out\n        /* \"#utility.yul\":1491:1659   */\n    tag_61:\n        /* \"#utility.yul\":1574:1585   */\n      0x00\n        /* \"#utility.yul\":1608:1614   */\n      dup3\n        /* \"#utility.yul\":1603:1606   */\n      dup3\n        /* \"#utility.yul\":1596:1615   */\n      mstore\n        /* \"#utility.yul\":1648:1652   */\n      0x20\n        /* \"#utility.yul\":1643:1646   */\n      dup3\n        /* \"#utility.yul\":1639:1653   */\n      add\n        /* \"#utility.yul\":1624:1653   */\n      swap1\n      pop\n        /* \"#utility.yul\":1491:1659   */\n      swap3\n      swap2\n      pop\n      pop\n      jump\t// out\n        /* \"#utility.yul\":1665:1804   */\n    tag_62:\n        /* \"#utility.yul\":1754:1760   */\n      dup3\n        /* \"#utility.yul\":1749:1752   */\n      dup2\n        /* \"#utility.yul\":1744:1747   */\n      dup4\n        /* \"#utility.yul\":1738:1761   */\n      mcopy\n        /* \"#utility.yul\":1795:1796   */\n      0x00\n        /* \"#utility.yul\":1786:1792   */\n      dup4\n        /* \"#utility.yul\":1781:1784   */\n      dup4\n        /* \"#utility.yul\":1777:1793   */\n      add\n        /* \"#utility.yul\":1770:1797   */\n      mstore\n        /* \"#utility.yul\":1665:1804   */\n      pop\n      pop\n      pop\n      jump\t// out\n        /* \"#utility.yul\":1810:1912   */\n    tag_63:\n        /* \"#utility.yul\":1851:1857   */\n      0x00\n        /* \"#utility.yul\":1902:1904   */\n      0x1f\n        /* \"#utility.yul\":1898:1905   */\n      not\n        /* \"#utility.yul\":1893:1895   */\n      0x1f\n        /* \"#utility.yul\":1886:1891   */\n      dup4\n        /* \"#utility.yul\":1882:1896   */\n      add\n        /* \"#utility.yul\":1878:1906   */\n      and\n        /* \"#utility.yul\":1868:1906   */\n      swap1\n      pop\n        /* \"#utility.yul\":1810:1912   */\n      swap2\n      swap1\n      pop\n      jump\t// out\n        /* \"#utility.yul\":1918:2291   */\n    tag_64:\n        /* \"#utility.yul\":2004:2007   */\n      0x00\n        /* \"#utility.yul\":2032:2070   */\n      tag_97\n        /* \"#utility.yul\":2064:2069   */\n      dup3\n        /* \"#utility.yul\":2032:2070   */\n      tag_60\n      jump\t// in\n    tag_97:\n        /* \"#utility.yul\":2086:2156   */\n      tag_98\n        /* \"#utility.yul\":2149:2155   */\n      dup2\n        /* \"#utility.yul\":2144:2147   */\n      dup6\n        /* \"#utility.yul\":2086:2156   */\n      tag_61\n      jump\t// in\n    tag_98:\n        /* \"#utility.yul\":2079:2156   */\n      swap4\n      pop\n        /* \"#utility.yul\":2165:2230   */\n      tag_99\n        /* \"#utility.yul\":2223:2229   */\n      dup2\n        /* \"#utility.yul\":2218:2221   */\n      dup6\n        /* \"#utility.yul\":2211:2215   */\n      0x20\n        /* \"#utility.yul\":2204:2209   */\n      dup7\n        /* \"#utility.yul\":2200:2216   */\n      add\n        /* \"#utility.yul\":2165:2230   */\n      tag_62\n      jump\t// in\n    tag_99:\n        /* \"#utility.yul\":2255:2284   */\n      tag_100\n        /* \"#utility.yul\":2277:2283   */\n      dup2\n        /* \"#utility.yul\":2255:2284   */\n      tag_63\n      jump\t// in\n    tag_100:\n        /* \"#utility.yul\":2250:2253   */\n      dup5\n        /* \"#utility.yul\":2246:2285   */\n      add\n        /* \"#utility.yul\":2239:2285   */\n      swap2\n      pop\n        /* \"#utility.yul\":2008:2291   */\n      pop\n        /* \"#utility.yul\":1918:2291   */\n      swap3\n      swap2\n      pop\n      pop\n      jump\t// out\n        /* \"#utility.yul\":2297:2704   */\n    tag_12:\n        /* \"#utility.yul\":2430:2434   */\n      0x00\n        /* \"#utility.yul\":2468:2470   */\n      0x40\n        /* \"#utility.yul\":2457:2466   */\n      dup3\n        /* \"#utility.yul\":2453:2471   */\n      add\n        /* \"#utility.yul\":2445:2471   */\n      swap1\n      pop\n        /* \"#utility.yul\":2481:2546   */\n      tag_102\n        /* \"#utility.yul\":2543:2544   */\n      0x00\n        /* \"#utility.yul\":2532:2541   */\n      dup4\n        /* \"#utility.yul\":2528:2545   */\n      add\n        /* \"#utility.yul\":2519:2525   */\n      dup6\n        /* \"#utility.yul\":2481:2546   */\n      tag_59\n      jump\t// in\n    tag_102:\n        /* \"#utility.yul\":2593:2602   */\n      dup2\n        /* \"#utility.yul\":2587:2591   */\n      dup2\n        /* \"#utility.yul\":2583:2603   */\n      sub\n        /* \"#utility.yul\":2578:2580   */\n      0x20\n        /* \"#utility.yul\":2567:2576   */\n      dup4\n        /* \"#utility.yul\":2563:2581   */\n      add\n        /* \"#utility.yul\":2556:2604   */\n      mstore\n        /* \"#utility.yul\":2621:2697   */\n      tag_103\n        /* \"#utility.yul\":2692:2696   */\n      dup2\n        /* \"#utility.yul\":2683:2689   */\n      dup5\n        /* \"#utility.yul\":2621:2697   */\n      tag_64\n      jump\t// in\n    tag_103:\n        /* \"#utility.yul\":2613:2697   */\n      swap1\n      pop\n        /* \"#utility.yul\":2297:2704   */\n      swap4\n      swap3\n      pop\n      pop\n      pop\n      jump\t// out\n        /* \"#utility.yul\":2710:2787   */\n    tag_65:\n        /* \"#utility.yul\":2747:2754   */\n      0x00\n        /* \"#utility.yul\":2776:2781   */\n      dup2\n        /* \"#utility.yul\":2765:2781   */\n      swap1\n      pop\n        /* \"#utility.yul\":2710:2787   */\n      swap2\n      swap1\n      pop\n      jump\t// out\n        /* \"#utility.yul\":2793:2915   */\n    tag_66:\n        /* \"#utility.yul\":2866:2890   */\n      tag_106\n        /* \"#utility.yul\":2884:2889   */\n      dup2\n        /* \"#utility.yul\":2866:2890   */\n      tag_65\n      jump\t// in\n    tag_106:\n        /* \"#utility.yul\":2859:2864   */\n      dup2\n        /* \"#utility.yul\":2856:2891   */\n      eq\n        /* \"#utility.yul\":2846:2909   */\n      tag_107\n      jumpi\n        /* \"#utility.yul\":2905:2906   */\n      0x00\n        /* \"#utility.yul\":2902:2903   */\n      0x00\n        /* \"#utility.yul\":2895:2907   */\n      revert\n        /* \"#utility.yul\":2846:2909   */\n    tag_107:\n        /* \"#utility.yul\":2793:2915   */\n      pop\n      jump\t// out\n        /* \"#utility.yul\":2921:3060   */\n    tag_67:\n        /* \"#utility.yul\":2967:2972   */\n      0x00\n        /* \"#utility.yul\":3005:3011   */\n      dup2\n        /* \"#utility.yul\":2992:3012   */\n      calldataload\n        /* \"#utility.yul\":2983:3012   */\n      swap1\n      pop\n        /* \"#utility.yul\":3021:3054   */\n      tag_109\n        /* \"#utility.yul\":3048:3053   */\n      dup2\n        /* \"#utility.yul\":3021:3054   */\n      tag_66\n      jump\t// in\n    tag_109:\n        /* \"#utility.yul\":2921:3060   */\n      swap3\n      swap2\n      pop\n      pop\n      jump\t// out\n        /* \"#utility.yul\":3066:3540   */\n    tag_15:\n        /* \"#utility.yul\":3134:3140   */\n      0x00\n        /* \"#utility.yul\":3142:3148   */\n      0x00\n        /* \"#utility.yul\":3191:3193   */\n      0x40\n        /* \"#utility.yul\":3179:3188   */\n      dup4\n        /* \"#utility.yul\":3170:3177   */\n      dup6\n        /* \"#utility.yul\":3166:3189   */\n      sub\n        /* \"#utility.yul\":3162:3194   */\n      slt\n        /* \"#utility.yul\":3159:3278   */\n      iszero\n      tag_111\n      jumpi\n        /* \"#utility.yul\":3197:3276   */\n      tag_112\n      tag_52\n      jump\t// in\n    tag_112:\n        /* \"#utility.yul\":3159:3278   */\n    tag_111:\n        /* \"#utility.yul\":3317:3318   */\n      0x00\n        /* \"#utility.yul\":3342:3395   */\n      tag_113\n        /* \"#utility.yul\":3387:3394   */\n      dup6\n        /* \"#utility.yul\":3378:3384   */\n      dup3\n        /* \"#utility.yul\":3367:3376   */\n      dup7\n        /* \"#utility.yul\":3363:3385   */\n      add\n        /* \"#utility.yul\":3342:3395   */\n      tag_57\n      jump\t// in\n    tag_113:\n        /* \"#utility.yul\":3332:3395   */\n      swap3\n      pop\n        /* \"#utility.yul\":3288:3405   */\n      pop\n        /* \"#utility.yul\":3444:3446   */\n      0x20\n        /* \"#utility.yul\":3470:3523   */\n      tag_114\n        /* \"#utility.yul\":3515:3522   */\n      dup6\n        /* \"#utility.yul\":3506:3512   */\n      dup3\n        /* \"#utility.yul\":3495:3504   */\n      dup7\n        /* \"#utility.yul\":3491:3513   */\n      add\n        /* \"#utility.yul\":3470:3523   */\n      tag_67\n      jump\t// in\n    tag_114:\n        /* \"#utility.yul\":3460:3523   */\n      swap2\n      pop\n        /* \"#utility.yul\":3415:3533   */\n      pop\n        /* \"#utility.yul\":3066:3540   */\n      swap3\n      pop\n      swap3\n      swap1\n      pop\n      jump\t// out\n        /* \"#utility.yul\":3546:3693   */\n    tag_68:\n        /* \"#utility.yul\":3647:3658   */\n      0x00\n        /* \"#utility.yul\":3684:3687   */\n      dup2\n        /* \"#utility.yul\":3669:3687   */\n      swap1\n      pop\n        /* \"#utility.yul\":3546:3693   */\n      swap3\n      swap2\n      pop\n      pop\n      jump\t// out\n        /* \"#utility.yul\":3699:3813   */\n    tag_69:\n      pop\n      jump\t// out\n        /* \"#utility.yul\":3819:4217   */\n    tag_70:\n        /* \"#utility.yul\":3978:3981   */\n      0x00\n        /* \"#utility.yul\":3999:4082   */\n      tag_118\n        /* \"#utility.yul\":4080:4081   */\n      0x00\n        /* \"#utility.yul\":4075:4078   */\n      dup4\n        /* \"#utility.yul\":3999:4082   */\n      tag_68\n      jump\t// in\n    tag_118:\n        /* \"#utility.yul\":3992:4082   */\n      swap2\n      pop\n        /* \"#utility.yul\":4091:4184   */\n      tag_119\n        /* \"#utility.yul\":4180:4183   */\n      dup3\n        /* \"#utility.yul\":4091:4184   */\n      tag_69\n      jump\t// in\n    tag_119:\n        /* \"#utility.yul\":4209:4210   */\n      0x00\n        /* \"#utility.yul\":4204:4207   */\n      dup3\n        /* \"#utility.yul\":4200:4211   */\n      add\n        /* \"#utility.yul\":4193:4211   */\n      swap1\n      pop\n        /* \"#utility.yul\":3819:4217   */\n      swap2\n      swap1\n      pop\n      jump\t// out\n        /* \"#utility.yul\":4223:4602   */\n    tag_28:\n        /* \"#utility.yul\":4407:4410   */\n      0x00\n        /* \"#utility.yul\":4429:4576   */\n      tag_121\n        /* \"#utility.yul\":4572:4575   */\n      dup3\n        /* \"#utility.yul\":4429:4576   */\n      tag_70\n      jump\t// in\n    tag_121:\n        /* \"#utility.yul\":4422:4576   */\n      swap2\n      pop\n        /* \"#utility.yul\":4593:4596   */\n      dup2\n        /* \"#utility.yul\":4586:4596   */\n      swap1\n      pop\n        /* \"#utility.yul\":4223:4602   */\n      swap2\n      swap1\n      pop\n      jump\t// out\n        /* \"#utility.yul\":4608:4726   */\n    tag_71:\n        /* \"#utility.yul\":4695:4719   */\n      tag_123\n        /* \"#utility.yul\":4713:4718   */\n      dup2\n        /* \"#utility.yul\":4695:4719   */\n      tag_65\n      jump\t// in\n    tag_123:\n        /* \"#utility.yul\":4690:4693   */\n      dup3\n        /* \"#utility.yul\":4683:4720   */\n      mstore\n        /* \"#utility.yul\":4608:4726   */\n      pop\n      pop\n      jump\t// out\n        /* \"#utility.yul\":4732:4954   */\n    tag_34:\n        /* \"#utility.yul\":4825:4829   */\n      0x00\n        /* \"#utility.yul\":4863:4865   */\n      0x20\n        /* \"#utility.yul\":4852:4861   */\n      dup3\n        /* \"#utility.yul\":4848:4866   */\n      add\n        /* \"#utility.yul\":4840:4866   */\n      swap1\n      pop\n        /* \"#utility.yul\":4876:4947   */\n      tag_125\n        /* \"#utility.yul\":4944:4945   */\n      0x00\n        /* \"#utility.yul\":4933:4942   */\n      dup4\n        /* \"#utility.yul\":4929:4946   */\n      add\n        /* \"#utility.yul\":4920:4926   */\n      dup5\n        /* \"#utility.yul\":4876:4947   */\n      tag_71\n      jump\t// in\n    tag_125:\n        /* \"#utility.yul\":4732:4954   */\n      swap3\n      swap2\n      pop\n      pop\n      jump\t// out\n        /* \"#utility.yul\":4960:5346   */\n    tag_72:\n        /* \"#utility.yul\":5064:5067   */\n      0x00\n        /* \"#utility.yul\":5092:5130   */\n      tag_127\n        /* \"#utility.yul\":5124:5129   */\n      dup3\n        /* \"#utility.yul\":5092:5130   */\n      tag_60\n      jump\t// in\n    tag_127:\n        /* \"#utility.yul\":5146:5234   */\n      tag_128\n        /* \"#utility.yul\":5227:5233   */\n      dup2\n        /* \"#utility.yul\":5222:5225   */\n      dup6\n        /* \"#utility.yul\":5146:5234   */\n      tag_68\n      jump\t// in\n    tag_128:\n        /* \"#utility.yul\":5139:5234   */\n      swap4\n      pop\n        /* \"#utility.yul\":5243:5308   */\n      tag_129\n        /* \"#utility.yul\":5301:5307   */\n      dup2\n        /* \"#utility.yul\":5296:5299   */\n      dup6\n        /* \"#utility.yul\":5289:5293   */\n      0x20\n        /* \"#utility.yul\":5282:5287   */\n      dup7\n        /* \"#utility.yul\":5278:5294   */\n      add\n        /* \"#utility.yul\":5243:5308   */\n      tag_62\n      jump\t// in\n    tag_129:\n        /* \"#utility.yul\":5333:5339   */\n      dup1\n        /* \"#utility.yul\":5328:5331   */\n      dup5\n        /* \"#utility.yul\":5324:5340   */\n      add\n        /* \"#utility.yul\":5317:5340   */\n      swap2\n      pop\n        /* \"#utility.yul\":5068:5346   */\n      pop\n        /* \"#utility.yul\":4960:5346   */\n      swap3\n      swap2\n      pop\n      pop\n      jump\t// out\n        /* \"#utility.yul\":5352:5623   */\n    tag_36:\n        /* \"#utility.yul\":5482:5485   */\n      0x00\n        /* \"#utility.yul\":5504:5597   */\n      tag_131\n        /* \"#utility.yul\":5593:5596   */\n      dup3\n        /* \"#utility.yul\":5584:5590   */\n      dup5\n        /* \"#utility.yul\":5504:5597   */\n      tag_72\n      jump\t// in\n    tag_131:\n        /* \"#utility.yul\":5497:5597   */\n      swap2\n      pop\n        /* \"#utility.yul\":5614:5617   */\n      dup2\n        /* \"#utility.yul\":5607:5617   */\n      swap1\n      pop\n        /* \"#utility.yul\":5352:5623   */\n      swap3\n      swap2\n      pop\n      pop\n      jump\t// out\n\n    auxdata: 0xa26469706673582212204923ed68f9a41d20e3ff3f4b3c14481ad226af3a2781c1e181f5411827270ed364736f6c634300081e0033\n}\n",
				"bytecode": {
					"linkReferences": {},
					"object": "608060405261073d806100115f395ff3fe608060405234801561000f575f5ffd5b506004361061004a575f3560e01c80630331f5d61461004e5780630a0b70731461007f5780636a784dfe146100b0578063e8a90ff4146100e1575b5f5ffd5b61006860048036038101906100639190610504565b610112565b6040516100769291906105b9565b60405180910390f35b6100996004803603810190610094919061061a565b610194565b6040516100a79291906105b9565b60405180910390f35b6100ca60048036038101906100c59190610504565b6102a1565b6040516100d89291906105b9565b60405180910390f35b6100fb60048036038101906100f6919061061a565b61039d565b6040516101099291906105b9565b60405180910390f35b5f60605f5f8473ffffffffffffffffffffffffffffffffffffffff16670de0b6b3a764000060405161014390610685565b5f6040518083038185875af1925050503d805f811461017d576040519150601f19603f3d011682016040523d82523d5f602084013e610182565b606091505b50915091508181935093505050915091565b5f60605f5f8573ffffffffffffffffffffffffffffffffffffffff166103e8866040516024016101c491906106a8565b6040516020818303038152906040527f0ff4c916000000000000000000000000000000000000000000000000000000007bffffffffffffffffffffffffffffffffffffffffffffffffffffffff19166020820180517bffffffffffffffffffffffffffffffffffffffffffffffffffffffff838183161783525050505060405161024e91906106f1565b5f604051808303815f8787f1925050503d805f8114610288576040519150601f19603f3d011682016040523d82523d5f602084013e61028d565b606091505b509150915081819350935050509250929050565b5f60605f5f8473ffffffffffffffffffffffffffffffffffffffff166040516024016040516020818303038152906040527f4fa519fa000000000000000000000000000000000000000000000000000000007bffffffffffffffffffffffffffffffffffffffffffffffffffffffff19166020820180517bffffffffffffffffffffffffffffffffffffffffffffffffffffffff838183161783525050505060405161034d91906106f1565b5f604051808303815f865af19150503d805f8114610386576040519150601f19603f3d011682016040523d82523d5f602084013e61038b565b606091505b50915091508181935093505050915091565b5f60605f5f8573ffffffffffffffffffffffffffffffffffffffff16856040516024016103ca91906106a8565b6040516020818303038152906040527f0ff4c916000000000000000000000000000000000000000000000000000000007bffffffffffffffffffffffffffffffffffffffffffffffffffffffff19166020820180517bffffffffffffffffffffffffffffffffffffffffffffffffffffffff838183161783525050505060405161045491906106f1565b5f604051808303815f865af19150503d805f811461048d576040519150601f19603f3d011682016040523d82523d5f602084013e610492565b606091505b509150915081819350935050509250929050565b5f5ffd5b5f73ffffffffffffffffffffffffffffffffffffffff82169050919050565b5f6104d3826104aa565b9050919050565b6104e3816104c9565b81146104ed575f5ffd5b50565b5f813590506104fe816104da565b92915050565b5f60208284031215610519576105186104a6565b5b5f610526848285016104f0565b91505092915050565b5f8115159050919050565b6105438161052f565b82525050565b5f81519050919050565b5f82825260208201905092915050565b8281835e5f83830152505050565b5f601f19601f8301169050919050565b5f61058b82610549565b6105958185610553565b93506105a5818560208601610563565b6105ae81610571565b840191505092915050565b5f6040820190506105cc5f83018561053a565b81810360208301526105de8184610581565b90509392505050565b5f819050919050565b6105f9816105e7565b8114610603575f5ffd5b50565b5f81359050610614816105f0565b92915050565b5f5f604083850312156106305761062f6104a6565b5b5f61063d858286016104f0565b925050602061064e85828601610606565b9150509250929050565b5f81905092915050565b50565b5f6106705f83610658565b915061067b82610662565b5f82019050919050565b5f61068f82610665565b9150819050919050565b6106a2816105e7565b82525050565b5f6020820190506106bb5f830184610699565b92915050565b5f6106cb82610549565b6106d58185610658565b93506106e5818560208601610563565b80840191505092915050565b5f6106fc82846106c1565b91508190509291505056fea26469706673582212204923ed68f9a41d20e3ff3f4b3c14481ad226af3a2781c1e181f5411827270ed364736f6c634300081e0033",
					"opcodes": "PUSH1 0x80 PUSH1 0x40 MSTORE PUSH2 0x73D DUP1 PUSH2 0x11 PUSH0 CODECOPY PUSH0 RETURN INVALID PUSH1 0x80 PUSH1 0x40 MSTORE CALLVALUE DUP1 ISZERO PUSH2 0xF JUMPI PUSH0 PUSH0 REVERT JUMPDEST POP PUSH1 0x4 CALLDATASIZE LT PUSH2 0x4A JUMPI PUSH0 CALLDATALOAD PUSH1 0xE0 SHR DUP1 PUSH4 0x331F5D6 EQ PUSH2 0x4E JUMPI DUP1 PUSH4 0xA0B7073 EQ PUSH2 0x7F JUMPI DUP1 PUSH4 0x6A784DFE EQ PUSH2 0xB0 JUMPI DUP1 PUSH4 0xE8A90FF4 EQ PUSH2 0xE1 JUMPI JUMPDEST PUSH0 PUSH0 REVERT JUMPDEST PUSH2 0x68 PUSH1 0x4 DUP1 CALLDATASIZE SUB DUP2 ADD SWAP1 PUSH2 0x63 SWAP2 SWAP1 PUSH2 0x504 JUMP JUMPDEST PUSH2 0x112 JUMP JUMPDEST PUSH1 0x40 MLOAD PUSH2 0x76 SWAP3 SWAP2 SWAP1 PUSH2 0x5B9 JUMP JUMPDEST PUSH1 0x40 MLOAD DUP1 SWAP2 SUB SWAP1 RETURN JUMPDEST PUSH2 0x99 PUSH1 0x4 DUP1 CALLDATASIZE SUB DUP2 ADD SWAP1 PUSH2 0x94 SWAP2 SWAP1 PUSH2 0x61A JUMP JUMPDEST PUSH2 0x194 JUMP JUMPDEST PUSH1 0x40 MLOAD PUSH2 0xA7 SWAP3 SWAP2 SWAP1 PUSH2 0x5B9 JUMP JUMPDEST PUSH1 0x40 MLOAD DUP1 SWAP2 SUB SWAP1 RETURN JUMPDEST PUSH2 0xCA PUSH1 0x4 DUP1 CALLDATASIZE SUB DUP2 ADD SWAP1 PUSH2 0xC5 SWAP2 SWAP1 PUSH2 0x504 JUMP JUMPDEST PUSH2 0x2A1 JUMP JUMPDEST PUSH1 0x40 MLOAD PUSH2 0xD8 SWAP3 SWAP2 SWAP1 PUSH2 0x5B9 JUMP JUMPDEST PUSH1 0x40 MLOAD DUP1 SWAP2 SUB SWAP1 RETURN JUMPDEST PUSH2 0xFB PUSH1 0x4 DUP1 CALLDATASIZE SUB DUP2 ADD SWAP1 PUSH2 0xF6 SWAP2 SWAP1 PUSH2 0x61A JUMP JUMPDEST PUSH2 0x39D JUMP JUMPDEST PUSH1 0x40 MLOAD PUSH2 0x109 SWAP3 SWAP2 SWAP1 PUSH2 0x5B9 JUMP JUMPDEST PUSH1 0x40 MLOAD DUP1 SWAP2 SUB SWAP1 RETURN JUMPDEST PUSH0 PUSH1 0x60 PUSH0 PUSH0 DUP5 PUSH20 0xFFFFFFFFFFFFFFFFFFFFFFFFFFFFFFFFFFFFFFFF AND PUSH8 0xDE0B6B3A7640000 PUSH1 0x40 MLOAD PUSH2 0x143 SWAP1 PUSH2 0x685 JUMP JUMPDEST PUSH0 PUSH1 0x40 MLOAD DUP1 DUP4 SUB DUP2 DUP6 DUP8 GAS CALL SWAP3 POP POP POP RETURNDATASIZE DUP1 PUSH0 DUP2 EQ PUSH2 0x17D JUMPI PUSH1 0x40 MLOAD SWAP2 POP PUSH1 0x1F NOT PUSH1 0x3F RETURNDATASIZE ADD AND DUP3 ADD PUSH1 0x40 MSTORE RETURNDATASIZE DUP3 MSTORE RETURNDATASIZE PUSH0 PUSH1 0x20 DUP5 ADD RETURNDATACOPY PUSH2 0x182 JUMP JUMPDEST PUSH1 0x60 SWAP2 POP JUMPDEST POP SWAP2 POP SWAP2 POP DUP2 DUP2 SWAP4 POP SWAP4 POP POP POP SWAP2 POP SWAP2 JUMP JUMPDEST PUSH0 PUSH1 0x60 PUSH0 PUSH0 DUP6 PUSH20 0xFFFFFFFFFFFFFFFFFFFFFFFFFFFFFFFFFFFFFFFF AND PUSH2 0x3E8 DUP7 PUSH1 0x40 MLOAD PUSH1 0x24 ADD PUSH2 0x1C4 SWAP2 SWAP1 PUSH2 0x6A8 JUMP JUMPDEST PUSH1 0x40 MLOAD PUSH1 0x20 DUP2 DUP4 SUB SUB DUP2 MSTORE SWAP1 PUSH1 0x40 MSTORE PUSH32 0xFF4C91600000000000000000000000000000000000000000000000000000000 PUSH28 0xFFFFFFFFFFFFFFFFFFFFFFFFFFFFFFFFFFFFFFFFFFFFFFFFFFFFFFFF NOT AND PUSH1 0x20 DUP3 ADD DUP1 MLOAD PUSH28 0xFFFFFFFFFFFFFFFFFFFFFFFFFFFFFFFFFFFFFFFFFFFFFFFFFFFFFFFF DUP4 DUP2 DUP4 AND OR DUP4 MSTORE POP POP POP POP PUSH1 0x40 MLOAD PUSH2 0x24E SWAP2 SWAP1 PUSH2 0x6F1 JUMP JUMPDEST PUSH0 PUSH1 0x40 MLOAD DUP1 DUP4 SUB DUP2 PUSH0 DUP8 DUP8 CALL SWAP3 POP POP POP RETURNDATASIZE DUP1 PUSH0 DUP2 EQ PUSH2 0x288 JUMPI PUSH1 0x40 MLOAD SWAP2 POP PUSH1 0x1F NOT PUSH1 0x3F RETURNDATASIZE ADD AND DUP3 ADD PUSH1 0x40 MSTORE RETURNDATASIZE DUP3 MSTORE RETURNDATASIZE PUSH0 PUSH1 0x20 DUP5 ADD RETURNDATACOPY PUSH2 0x28D JUMP JUMPDEST PUSH1 0x60 SWAP2 POP JUMPDEST POP SWAP2 POP SWAP2 POP DUP2 DUP2 SWAP4 POP SWAP4 POP POP POP SWAP3 POP SWAP3 SWAP1 POP JUMP JUMPDEST PUSH0 PUSH1 0x60 PUSH0 PUSH0 DUP5 PUSH20 0xFFFFFFFFFFFFFFFFFFFFFFFFFFFFFFFFFFFFFFFF AND PUSH1 0x40 MLOAD PUSH1 0x24 ADD PUSH1 0x40 MLOAD PUSH1 0x20 DUP2 DUP4 SUB SUB DUP2 MSTORE SWAP1 PUSH1 0x40 MSTORE PUSH32 0x4FA519FA00000000000000000000000000000000000000000000000000000000 PUSH28 0xFFFFFFFFFFFFFFFFFFFFFFFFFFFFFFFFFFFFFFFFFFFFFFFFFFFFFFFF NOT AND PUSH1 0x20 DUP3 ADD DUP1 MLOAD PUSH28 0xFFFFFFFFFFFFFFFFFFFFFFFFFFFFFFFFFFFFFFFFFFFFFFFFFFFFFFFF DUP4 DUP2 DUP4 AND OR DUP4 MSTORE POP POP POP POP PUSH1 0x40 MLOAD PUSH2 0x34D SWAP2 SWAP1 PUSH2 0x6F1 JUMP JUMPDEST PUSH0 PUSH1 0x40 MLOAD DUP1 DUP4 SUB DUP2 PUSH0 DUP7 GAS CALL SWAP2 POP POP RETURNDATASIZE DUP1 PUSH0 DUP2 EQ PUSH2 0x386 JUMPI PUSH1 0x40 MLOAD SWAP2 POP PUSH1 0x1F NOT PUSH1 0x3F RETURNDATASIZE ADD AND DUP3 ADD PUSH1 0x40 MSTORE RETURNDATASIZE DUP3 MSTORE RETURNDATASIZE PUSH0 PUSH1 0x20 DUP5 ADD RETURNDATACOPY PUSH2 0x38B JUMP JUMPDEST PUSH1 0x60 SWAP2 POP JUMPDEST POP SWAP2 POP SWAP2 POP DUP2 DUP2 SWAP4 POP SWAP4 POP POP POP SWAP2 POP SWAP2 JUMP JUMPDEST PUSH0 PUSH1 0x60 PUSH0 PUSH0 DUP6 PUSH20 0xFFFFFFFFFFFFFFFFFFFFFFFFFFFFFFFFFFFFFFFF AND DUP6 PUSH1 0x40 MLOAD PUSH1 0x24 ADD PUSH2 0x3CA SWAP2 SWAP1 PUSH2 0x6A8 JUMP JUMPDEST PUSH1 0x40 MLOAD PUSH1 0x20 DUP2 DUP4 SUB SUB DUP2 MSTORE SWAP1 PUSH1 0x40 MSTORE PUSH32 0xFF4C91600000000000000000000000000000000000000000000000000000000 PUSH28 0xFFFFFFFFFFFFFFFFFFFFFFFFFFFFFFFFFFFFFFFFFFFFFFFFFFFFFFFF NOT AND PUSH1 0x20 DUP3 ADD DUP1 MLOAD PUSH28 0xFFFFFFFFFFFFFFFFFFFFFFFFFFFFFFFFFFFFFFFFFFFFFFFFFFFFFFFF DUP4 DUP2 DUP4 AND OR DUP4 MSTORE POP POP POP POP PUSH1 0x40 MLOAD PUSH2 0x454 SWAP2 SWAP1 PUSH2 0x6F1 JUMP JUMPDEST PUSH0 PUSH1 0x40 MLOAD DUP1 DUP4 SUB DUP2 PUSH0 DUP7 GAS CALL SWAP2 POP POP RETURNDATASIZE DUP1 PUSH0 DUP2 EQ PUSH2 0x48D JUMPI PUSH1 0x40 MLOAD SWAP2 POP PUSH1 0x1F NOT PUSH1 0x3F RETURNDATASIZE ADD AND DUP3 ADD PUSH1 0x40 MSTORE RETURNDATASIZE DUP3 MSTORE RETURNDATASIZE PUSH0 PUSH1 0x20 DUP5 ADD RETURNDATACOPY PUSH2 0x492 JUMP JUMPDEST PUSH1 0x60 SWAP2 POP JUMPDEST POP SWAP2 POP SWAP2 POP DUP2 DUP2 SWAP4 POP SWAP4 POP POP POP SWAP3 POP SWAP3 SWAP1 POP JUMP JUMPDEST PUSH0 PUSH0 REVERT JUMPDEST PUSH0 PUSH20 0xFFFFFFFFFFFFFFFFFFFFFFFFFFFFFFFFFFFFFFFF DUP3 AND SWAP1 POP SWAP2 SWAP1 POP JUMP JUMPDEST PUSH0 PUSH2 0x4D3 DUP3 PUSH2 0x4AA JUMP JUMPDEST SWAP1 POP SWAP2 SWAP1 POP JUMP JUMPDEST PUSH2 0x4E3 DUP2 PUSH2 0x4C9 JUMP JUMPDEST DUP2 EQ PUSH2 0x4ED JUMPI PUSH0 PUSH0 REVERT JUMPDEST POP JUMP JUMPDEST PUSH0 DUP2 CALLDATALOAD SWAP1 POP PUSH2 0x4FE DUP2 PUSH2 0x4DA JUMP JUMPDEST SWAP3 SWAP2 POP POP JUMP JUMPDEST PUSH0 PUSH1 0x20 DUP3 DUP5 SUB SLT ISZERO PUSH2 0x519 JUMPI PUSH2 0x518 PUSH2 0x4A6 JUMP JUMPDEST JUMPDEST PUSH0 PUSH2 0x526 DUP5 DUP3 DUP6 ADD PUSH2 0x4F0 JUMP JUMPDEST SWAP2 POP POP SWAP3 SWAP2 POP POP JUMP JUMPDEST PUSH0 DUP2 ISZERO ISZERO SWAP1 POP SWAP2 SWAP1 POP JUMP JUMPDEST PUSH2 0x543 DUP2 PUSH2 0x52F JUMP JUMPDEST DUP3 MSTORE POP POP JUMP JUMPDEST PUSH0 DUP2 MLOAD SWAP1 POP SWAP2 SWAP1 POP JUMP JUMPDEST PUSH0 DUP3 DUP3 MSTORE PUSH1 0x20 DUP3 ADD SWAP1 POP SWAP3 SWAP2 POP POP JUMP JUMPDEST DUP3 DUP2 DUP4 MCOPY PUSH0 DUP4 DUP4 ADD MSTORE POP POP POP JUMP JUMPDEST PUSH0 PUSH1 0x1F NOT PUSH1 0x1F DUP4 ADD AND SWAP1 POP SWAP2 SWAP1 POP JUMP JUMPDEST PUSH0 PUSH2 0x58B DUP3 PUSH2 0x549 JUMP JUMPDEST PUSH2 0x595 DUP2 DUP6 PUSH2 0x553 JUMP JUMPDEST SWAP4 POP PUSH2 0x5A5 DUP2 DUP6 PUSH1 0x20 DUP7 ADD PUSH2 0x563 JUMP JUMPDEST PUSH2 0x5AE DUP2 PUSH2 0x571 JUMP JUMPDEST DUP5 ADD SWAP2 POP POP SWAP3 SWAP2 POP POP JUMP JUMPDEST PUSH0 PUSH1 0x40 DUP3 ADD SWAP1 POP PUSH2 0x5CC PUSH0 DUP4 ADD DUP6 PUSH2 0x53A JUMP JUMPDEST DUP2 DUP2 SUB PUSH1 0x20 DUP4 ADD MSTORE PUSH2 0x5DE DUP2 DUP5 PUSH2 0x581 JUMP JUMPDEST SWAP1 POP SWAP4 SWAP3 POP POP POP JUMP JUMPDEST PUSH0 DUP2 SWAP1 POP SWAP2 SWAP1 POP JUMP JUMPDEST PUSH2 0x5F9 DUP2 PUSH2 0x5E7 JUMP JUMPDEST DUP2 EQ PUSH2 0x603 JUMPI PUSH0 PUSH0 REVERT JUMPDEST POP JUMP JUMPDEST PUSH0 DUP2 CALLDATALOAD SWAP1 POP PUSH2 0x614 DUP2 PUSH2 0x5F0 JUMP JUMPDEST SWAP3 SWAP2 POP POP JUMP JUMPDEST PUSH0 PUSH0 PUSH1 0x40 DUP4 DUP6 SUB SLT ISZERO PUSH2 0x630 JUMPI PUSH2 0x62F PUSH2 0x4A6 JUMP JUMPDEST JUMPDEST PUSH0 PUSH2 0x63D DUP6 DUP3 DUP7 ADD PUSH2 0x4F0 JUMP JUMPDEST SWAP3 POP POP PUSH1 0x20 PUSH2 0x64E DUP6 DUP3 DUP7 ADD PUSH2 0x606 JUMP JUMPDEST SWAP2 POP POP SWAP3 POP SWAP3 SWAP1 POP JUMP JUMPDEST PUSH0 DUP2 SWAP1 POP SWAP3 SWAP2 POP POP JUMP JUMPDEST POP JUMP JUMPDEST PUSH0 PUSH2 0x670 PUSH0 DUP4 PUSH2 0x658 JUMP JUMPDEST SWAP2 POP PUSH2 0x67B DUP3 PUSH2 0x662 JUMP JUMPDEST PUSH0 DUP3 ADD SWAP1 POP SWAP2 SWAP1 POP JUMP JUMPDEST PUSH0 PUSH2 0x68F DUP3 PUSH2 0x665 JUMP JUMPDEST SWAP2 POP DUP2 SWAP1 POP SWAP2 SWAP1 POP JUMP JUMPDEST PUSH2 0x6A2 DUP2 PUSH2 0x5E7 JUMP JUMPDEST DUP3 MSTORE POP POP JUMP JUMPDEST PUSH0 PUSH1 0x20 DUP3 ADD SWAP1 POP PUSH2 0x6BB PUSH0 DUP4 ADD DUP5 PUSH2 0x699 JUMP JUMPDEST SWAP3 SWAP2 POP POP JUMP JUMPDEST PUSH0 PUSH2 0x6CB DUP3 PUSH2 0x549 JUMP JUMPDEST PUSH2 0x6D5 DUP2 DUP6 PUSH2 0x658 JUMP JUMPDEST SWAP4 POP PUSH2 0x6E5 DUP2 DUP6 PUSH1 0x20 DUP7 ADD PUSH2 0x563 JUMP JUMPDEST DUP1 DUP5 ADD SWAP2 POP POP SWAP3 SWAP2 POP POP JUMP JUMPDEST PUSH0 PUSH2 0x6FC DUP3 DUP5 PUSH2 0x6C1 JUMP JUMPDEST SWAP2 POP DUP2 SWAP1 POP SWAP3 SWAP2 POP POP JUMP INVALID LOG2 PUSH5 0x6970667358 0x22 SLT KECCAK256 BLOBHASH 0x23 0xED PUSH9 0xF9A41D20E3FF3F4B3C EQ BASEFEE BYTE 0xD2 0x26 0xAF GASPRICE 0x27 DUP2 0xC1 RJUMPI 0x81F5 COINBASE XOR 0x27 0x27 0xE 0xD3 PUSH5 0x736F6C6343 STOP ADDMOD 0x1E STOP CALLER "
				},
				"gasEstimates": {
					"creation": {
						"codeDepositCost": "370600",
						"executionCost": "379",
						"totalCost": "370979"
					},
					"external": {
						"callgetValue(address,uint256)": "infinite",
						"callgettValue(address,uint256)": "infinite",
						"callsetValue(address)": "infinite",
						"enviarEther(address)": "infinite"
					}
				},
				"methodIdentifiers": {
					"callgetValue(address,uint256)": "e8a90ff4",
					"callgettValue(address,uint256)": "0a0b7073",
					"callsetValue(address)": "6a784dfe",
					"enviarEther(address)": "0331f5d6"
				}
			},
			"storageLayout": {
				"storage": [],
				"types": null
			},
			"userdoc": {
				"kind": "user",
				"methods": {},
				"version": 1
			}
		}
	}
}