{
	"Introdução ao Solidity/Aprenda Solidity/O tipo string.sol": {
		"String": {
			"abi": [
				{
					"inputs": [
						{
							"internalType": "string",
							"name": "_nome",
							"type": "string"
						},
						{
							"internalType": "string",
							"name": "_sobrenome",
							"type": "string"
						}
					],
					"name": "Nome_e_Sobrenme",
					"outputs": [
						{
							"internalType": "string",
							"name": "",
							"type": "string"
						}
					],
					"stateMutability": "pure",
					"type": "function"
				},
				{
					"inputs": [],
					"name": "name",
					"outputs": [
						{
							"internalType": "string",
							"name": "",
							"type": "string"
						}
					],
					"stateMutability": "view",
					"type": "function"
				}
			],
			"devdoc": {
				"kind": "dev",
				"methods": {},
				"version": 1
			},
			"evm": {
				"assembly": "    /* \"Introdu\\xc3\\xa7\\xc3\\xa3o ao Solidity/Aprenda Solidity/O tipo string.sol\":61:281  contract String{... */\n  mstore(0x40, 0x80)\n  callvalue\n  dup1\n  iszero\n  tag_1\n  jumpi\n  revert(0x00, 0x00)\ntag_1:\n  pop\n  dataSize(sub_0)\n  dup1\n  dataOffset(sub_0)\n  0x00\n  codecopy\n  0x00\n  return\nstop\n\nsub_0: assembly {\n        /* \"Introdu\\xc3\\xa7\\xc3\\xa3o ao Solidity/Aprenda Solidity/O tipo string.sol\":61:281  contract String{... */\n      mstore(0x40, 0x80)\n      callvalue\n      dup1\n      iszero\n      tag_1\n      jumpi\n      revert(0x00, 0x00)\n    tag_1:\n      pop\n      jumpi(tag_2, lt(calldatasize, 0x04))\n      shr(0xe0, calldataload(0x00))\n      dup1\n      0x06fdde03\n      eq\n      tag_3\n      jumpi\n      dup1\n      0xa7960b4d\n      eq\n      tag_4\n      jumpi\n    tag_2:\n      revert(0x00, 0x00)\n        /* \"Introdu\\xc3\\xa7\\xc3\\xa3o ao Solidity/Aprenda Solidity/O tipo string.sol\":85:103  string public name */\n    tag_3:\n      tag_5\n      tag_6\n      jump\t// in\n    tag_5:\n      mload(0x40)\n      tag_7\n      swap2\n      swap1\n      tag_8\n      jump\t// in\n    tag_7:\n      mload(0x40)\n      dup1\n      swap2\n      sub\n      swap1\n      return\n        /* \"Introdu\\xc3\\xa7\\xc3\\xa3o ao Solidity/Aprenda Solidity/O tipo string.sol\":112:278  function Nome_e_Sobrenme(string memory _nome, string memory _sobrenome) public pure returns (string memory) {... */\n    tag_4:\n      tag_9\n      0x04\n      dup1\n      calldatasize\n      sub\n      dup2\n      add\n      swap1\n      tag_10\n      swap2\n      swap1\n      tag_11\n      jump\t// in\n    tag_10:\n      tag_12\n      jump\t// in\n    tag_9:\n      mload(0x40)\n      tag_13\n      swap2\n      swap1\n      tag_8\n      jump\t// in\n    tag_13:\n      mload(0x40)\n      dup1\n      swap2\n      sub\n      swap1\n      return\n        /* \"Introdu\\xc3\\xa7\\xc3\\xa3o ao Solidity/Aprenda Solidity/O tipo string.sol\":85:103  string public name */\n    tag_6:\n      0x00\n      dup1\n      sload\n      tag_14\n      swap1\n      tag_15\n      jump\t// in\n    tag_14:\n      dup1\n      0x1f\n      add\n      0x20\n      dup1\n      swap2\n      div\n      mul\n      0x20\n      add\n      mload(0x40)\n      swap1\n      dup2\n      add\n      0x40\n      mstore\n      dup1\n      swap3\n      swap2\n      swap1\n      dup2\n      dup2\n      mstore\n      0x20\n      add\n      dup3\n      dup1\n      sload\n      tag_16\n      swap1\n      tag_15\n      jump\t// in\n    tag_16:\n      dup1\n      iszero\n      tag_17\n      jumpi\n      dup1\n      0x1f\n      lt\n      tag_18\n      jumpi\n      0x0100\n      dup1\n      dup4\n      sload\n      div\n      mul\n      dup4\n      mstore\n      swap2\n      0x20\n      add\n      swap2\n      jump(tag_17)\n    tag_18:\n      dup3\n      add\n      swap2\n      swap1\n      0x00\n      mstore\n      keccak256(0x00, 0x20)\n      swap1\n    tag_19:\n      dup2\n      sload\n      dup2\n      mstore\n      swap1\n      0x01\n      add\n      swap1\n      0x20\n      add\n      dup1\n      dup4\n      gt\n      tag_19\n      jumpi\n      dup3\n      swap1\n      sub\n      0x1f\n      and\n      dup3\n      add\n      swap2\n    tag_17:\n      pop\n      pop\n      pop\n      pop\n      pop\n      dup2\n      jump\t// out\n        /* \"Introdu\\xc3\\xa7\\xc3\\xa3o ao Solidity/Aprenda Solidity/O tipo string.sol\":112:278  function Nome_e_Sobrenme(string memory _nome, string memory _sobrenome) public pure returns (string memory) {... */\n    tag_12:\n        /* \"Introdu\\xc3\\xa7\\xc3\\xa3o ao Solidity/Aprenda Solidity/O tipo string.sol\":205:218  string memory */\n      0x60\n        /* \"Introdu\\xc3\\xa7\\xc3\\xa3o ao Solidity/Aprenda Solidity/O tipo string.sol\":252:257  _nome */\n      dup3\n        /* \"Introdu\\xc3\\xa7\\xc3\\xa3o ao Solidity/Aprenda Solidity/O tipo string.sol\":259:269  _sobrenome */\n      dup3\n        /* \"Introdu\\xc3\\xa7\\xc3\\xa3o ao Solidity/Aprenda Solidity/O tipo string.sol\":238:270  string.concat(_nome, _sobrenome) */\n      add(0x20, mload(0x40))\n      tag_21\n      swap3\n      swap2\n      swap1\n      tag_22\n      jump\t// in\n    tag_21:\n      mload(0x40)\n      0x20\n      dup2\n      dup4\n      sub\n      sub\n      dup2\n      mstore\n      swap1\n      0x40\n      mstore\n        /* \"Introdu\\xc3\\xa7\\xc3\\xa3o ao Solidity/Aprenda Solidity/O tipo string.sol\":231:270  return string.concat(_nome, _sobrenome) */\n      swap1\n      pop\n        /* \"Introdu\\xc3\\xa7\\xc3\\xa3o ao Solidity/Aprenda Solidity/O tipo string.sol\":112:278  function Nome_e_Sobrenme(string memory _nome, string memory _sobrenome) public pure returns (string memory) {... */\n      swap3\n      swap2\n      pop\n      pop\n      jump\t// out\n        /* \"#utility.yul\":7:106   */\n    tag_23:\n        /* \"#utility.yul\":59:65   */\n      0x00\n        /* \"#utility.yul\":93:98   */\n      dup2\n        /* \"#utility.yul\":87:99   */\n      mload\n        /* \"#utility.yul\":77:99   */\n      swap1\n      pop\n        /* \"#utility.yul\":7:106   */\n      swap2\n      swap1\n      pop\n      jump\t// out\n        /* \"#utility.yul\":112:281   */\n    tag_24:\n        /* \"#utility.yul\":196:207   */\n      0x00\n        /* \"#utility.yul\":230:236   */\n      dup3\n        /* \"#utility.yul\":225:228   */\n      dup3\n        /* \"#utility.yul\":218:237   */\n      mstore\n        /* \"#utility.yul\":270:274   */\n      0x20\n        /* \"#utility.yul\":265:268   */\n      dup3\n        /* \"#utility.yul\":261:275   */\n      add\n        /* \"#utility.yul\":246:275   */\n      swap1\n      pop\n        /* \"#utility.yul\":112:281   */\n      swap3\n      swap2\n      pop\n      pop\n      jump\t// out\n        /* \"#utility.yul\":287:426   */\n    tag_25:\n        /* \"#utility.yul\":376:382   */\n      dup3\n        /* \"#utility.yul\":371:374   */\n      dup2\n        /* \"#utility.yul\":366:369   */\n      dup4\n        /* \"#utility.yul\":360:383   */\n      mcopy\n        /* \"#utility.yul\":417:418   */\n      0x00\n        /* \"#utility.yul\":408:414   */\n      dup4\n        /* \"#utility.yul\":403:406   */\n      dup4\n        /* \"#utility.yul\":399:415   */\n      add\n        /* \"#utility.yul\":392:419   */\n      mstore\n        /* \"#utility.yul\":287:426   */\n      pop\n      pop\n      pop\n      jump\t// out\n        /* \"#utility.yul\":432:534   */\n    tag_26:\n        /* \"#utility.yul\":473:479   */\n      0x00\n        /* \"#utility.yul\":524:526   */\n      0x1f\n        /* \"#utility.yul\":520:527   */\n      not\n        /* \"#utility.yul\":515:517   */\n      0x1f\n        /* \"#utility.yul\":508:513   */\n      dup4\n        /* \"#utility.yul\":504:518   */\n      add\n        /* \"#utility.yul\":500:528   */\n      and\n        /* \"#utility.yul\":490:528   */\n      swap1\n      pop\n        /* \"#utility.yul\":432:534   */\n      swap2\n      swap1\n      pop\n      jump\t// out\n        /* \"#utility.yul\":540:917   */\n    tag_27:\n        /* \"#utility.yul\":628:631   */\n      0x00\n        /* \"#utility.yul\":656:695   */\n      tag_49\n        /* \"#utility.yul\":689:694   */\n      dup3\n        /* \"#utility.yul\":656:695   */\n      tag_23\n      jump\t// in\n    tag_49:\n        /* \"#utility.yul\":711:782   */\n      tag_50\n        /* \"#utility.yul\":775:781   */\n      dup2\n        /* \"#utility.yul\":770:773   */\n      dup6\n        /* \"#utility.yul\":711:782   */\n      tag_24\n      jump\t// in\n    tag_50:\n        /* \"#utility.yul\":704:782   */\n      swap4\n      pop\n        /* \"#utility.yul\":791:856   */\n      tag_51\n        /* \"#utility.yul\":849:855   */\n      dup2\n        /* \"#utility.yul\":844:847   */\n      dup6\n        /* \"#utility.yul\":837:841   */\n      0x20\n        /* \"#utility.yul\":830:835   */\n      dup7\n        /* \"#utility.yul\":826:842   */\n      add\n        /* \"#utility.yul\":791:856   */\n      tag_25\n      jump\t// in\n    tag_51:\n        /* \"#utility.yul\":881:910   */\n      tag_52\n        /* \"#utility.yul\":903:909   */\n      dup2\n        /* \"#utility.yul\":881:910   */\n      tag_26\n      jump\t// in\n    tag_52:\n        /* \"#utility.yul\":876:879   */\n      dup5\n        /* \"#utility.yul\":872:911   */\n      add\n        /* \"#utility.yul\":865:911   */\n      swap2\n      pop\n        /* \"#utility.yul\":632:917   */\n      pop\n        /* \"#utility.yul\":540:917   */\n      swap3\n      swap2\n      pop\n      pop\n      jump\t// out\n        /* \"#utility.yul\":923:1236   */\n    tag_8:\n        /* \"#utility.yul\":1036:1040   */\n      0x00\n        /* \"#utility.yul\":1074:1076   */\n      0x20\n        /* \"#utility.yul\":1063:1072   */\n      dup3\n        /* \"#utility.yul\":1059:1077   */\n      add\n        /* \"#utility.yul\":1051:1077   */\n      swap1\n      pop\n        /* \"#utility.yul\":1123:1132   */\n      dup2\n        /* \"#utility.yul\":1117:1121   */\n      dup2\n        /* \"#utility.yul\":1113:1133   */\n      sub\n        /* \"#utility.yul\":1109:1110   */\n      0x00\n        /* \"#utility.yul\":1098:1107   */\n      dup4\n        /* \"#utility.yul\":1094:1111   */\n      add\n        /* \"#utility.yul\":1087:1134   */\n      mstore\n        /* \"#utility.yul\":1151:1229   */\n      tag_54\n        /* \"#utility.yul\":1224:1228   */\n      dup2\n        /* \"#utility.yul\":1215:1221   */\n      dup5\n        /* \"#utility.yul\":1151:1229   */\n      tag_27\n      jump\t// in\n    tag_54:\n        /* \"#utility.yul\":1143:1229   */\n      swap1\n      pop\n        /* \"#utility.yul\":923:1236   */\n      swap3\n      swap2\n      pop\n      pop\n      jump\t// out\n        /* \"#utility.yul\":1242:1317   */\n    tag_28:\n        /* \"#utility.yul\":1275:1281   */\n      0x00\n        /* \"#utility.yul\":1308:1310   */\n      0x40\n        /* \"#utility.yul\":1302:1311   */\n      mload\n        /* \"#utility.yul\":1292:1311   */\n      swap1\n      pop\n        /* \"#utility.yul\":1242:1317   */\n      swap1\n      jump\t// out\n        /* \"#utility.yul\":1323:1440   */\n    tag_29:\n        /* \"#utility.yul\":1432:1433   */\n      0x00\n        /* \"#utility.yul\":1429:1430   */\n      0x00\n        /* \"#utility.yul\":1422:1434   */\n      revert\n        /* \"#utility.yul\":1446:1563   */\n    tag_30:\n        /* \"#utility.yul\":1555:1556   */\n      0x00\n        /* \"#utility.yul\":1552:1553   */\n      0x00\n        /* \"#utility.yul\":1545:1557   */\n      revert\n        /* \"#utility.yul\":1569:1686   */\n    tag_31:\n        /* \"#utility.yul\":1678:1679   */\n      0x00\n        /* \"#utility.yul\":1675:1676   */\n      0x00\n        /* \"#utility.yul\":1668:1680   */\n      revert\n        /* \"#utility.yul\":1692:1809   */\n    tag_32:\n        /* \"#utility.yul\":1801:1802   */\n      0x00\n        /* \"#utility.yul\":1798:1799   */\n      0x00\n        /* \"#utility.yul\":1791:1803   */\n      revert\n        /* \"#utility.yul\":1815:1995   */\n    tag_33:\n        /* \"#utility.yul\":1863:1940   */\n      0x4e487b7100000000000000000000000000000000000000000000000000000000\n        /* \"#utility.yul\":1860:1861   */\n      0x00\n        /* \"#utility.yul\":1853:1941   */\n      mstore\n        /* \"#utility.yul\":1960:1964   */\n      0x41\n        /* \"#utility.yul\":1957:1958   */\n      0x04\n        /* \"#utility.yul\":1950:1965   */\n      mstore\n        /* \"#utility.yul\":1984:1988   */\n      0x24\n        /* \"#utility.yul\":1981:1982   */\n      0x00\n        /* \"#utility.yul\":1974:1989   */\n      revert\n        /* \"#utility.yul\":2001:2282   */\n    tag_34:\n        /* \"#utility.yul\":2084:2111   */\n      tag_62\n        /* \"#utility.yul\":2106:2110   */\n      dup3\n        /* \"#utility.yul\":2084:2111   */\n      tag_26\n      jump\t// in\n    tag_62:\n        /* \"#utility.yul\":2076:2082   */\n      dup2\n        /* \"#utility.yul\":2072:2112   */\n      add\n        /* \"#utility.yul\":2214:2220   */\n      dup2\n        /* \"#utility.yul\":2202:2212   */\n      dup2\n        /* \"#utility.yul\":2199:2221   */\n      lt\n        /* \"#utility.yul\":2178:2196   */\n      0xffffffffffffffff\n        /* \"#utility.yul\":2166:2176   */\n      dup3\n        /* \"#utility.yul\":2163:2197   */\n      gt\n        /* \"#utility.yul\":2160:2222   */\n      or\n        /* \"#utility.yul\":2157:2245   */\n      iszero\n      tag_63\n      jumpi\n        /* \"#utility.yul\":2225:2243   */\n      tag_64\n      tag_33\n      jump\t// in\n    tag_64:\n        /* \"#utility.yul\":2157:2245   */\n    tag_63:\n        /* \"#utility.yul\":2265:2275   */\n      dup1\n        /* \"#utility.yul\":2261:2263   */\n      0x40\n        /* \"#utility.yul\":2254:2276   */\n      mstore\n        /* \"#utility.yul\":2044:2282   */\n      pop\n        /* \"#utility.yul\":2001:2282   */\n      pop\n      pop\n      jump\t// out\n        /* \"#utility.yul\":2288:2417   */\n    tag_35:\n        /* \"#utility.yul\":2322:2328   */\n      0x00\n        /* \"#utility.yul\":2349:2369   */\n      tag_66\n      tag_28\n      jump\t// in\n    tag_66:\n        /* \"#utility.yul\":2339:2369   */\n      swap1\n      pop\n        /* \"#utility.yul\":2378:2411   */\n      tag_67\n        /* \"#utility.yul\":2406:2410   */\n      dup3\n        /* \"#utility.yul\":2398:2404   */\n      dup3\n        /* \"#utility.yul\":2378:2411   */\n      tag_34\n      jump\t// in\n    tag_67:\n        /* \"#utility.yul\":2288:2417   */\n      swap2\n      swap1\n      pop\n      jump\t// out\n        /* \"#utility.yul\":2423:2731   */\n    tag_36:\n        /* \"#utility.yul\":2485:2489   */\n      0x00\n        /* \"#utility.yul\":2575:2593   */\n      0xffffffffffffffff\n        /* \"#utility.yul\":2567:2573   */\n      dup3\n        /* \"#utility.yul\":2564:2594   */\n      gt\n        /* \"#utility.yul\":2561:2617   */\n      iszero\n      tag_69\n      jumpi\n        /* \"#utility.yul\":2597:2615   */\n      tag_70\n      tag_33\n      jump\t// in\n    tag_70:\n        /* \"#utility.yul\":2561:2617   */\n    tag_69:\n        /* \"#utility.yul\":2635:2664   */\n      tag_71\n        /* \"#utility.yul\":2657:2663   */\n      dup3\n        /* \"#utility.yul\":2635:2664   */\n      tag_26\n      jump\t// in\n    tag_71:\n        /* \"#utility.yul\":2627:2664   */\n      swap1\n      pop\n        /* \"#utility.yul\":2719:2723   */\n      0x20\n        /* \"#utility.yul\":2713:2717   */\n      dup2\n        /* \"#utility.yul\":2709:2724   */\n      add\n        /* \"#utility.yul\":2701:2724   */\n      swap1\n      pop\n        /* \"#utility.yul\":2423:2731   */\n      swap2\n      swap1\n      pop\n      jump\t// out\n        /* \"#utility.yul\":2737:2885   */\n    tag_37:\n        /* \"#utility.yul\":2835:2841   */\n      dup3\n        /* \"#utility.yul\":2830:2833   */\n      dup2\n        /* \"#utility.yul\":2825:2828   */\n      dup4\n        /* \"#utility.yul\":2812:2842   */\n      calldatacopy\n        /* \"#utility.yul\":2876:2877   */\n      0x00\n        /* \"#utility.yul\":2867:2873   */\n      dup4\n        /* \"#utility.yul\":2862:2865   */\n      dup4\n        /* \"#utility.yul\":2858:2874   */\n      add\n        /* \"#utility.yul\":2851:2878   */\n      mstore\n        /* \"#utility.yul\":2737:2885   */\n      pop\n      pop\n      pop\n      jump\t// out\n        /* \"#utility.yul\":2891:3316   */\n    tag_38:\n        /* \"#utility.yul\":2969:2974   */\n      0x00\n        /* \"#utility.yul\":2994:3060   */\n      tag_74\n        /* \"#utility.yul\":3010:3059   */\n      tag_75\n        /* \"#utility.yul\":3052:3058   */\n      dup5\n        /* \"#utility.yul\":3010:3059   */\n      tag_36\n      jump\t// in\n    tag_75:\n        /* \"#utility.yul\":2994:3060   */\n      tag_35\n      jump\t// in\n    tag_74:\n        /* \"#utility.yul\":2985:3060   */\n      swap1\n      pop\n        /* \"#utility.yul\":3083:3089   */\n      dup3\n        /* \"#utility.yul\":3076:3081   */\n      dup2\n        /* \"#utility.yul\":3069:3090   */\n      mstore\n        /* \"#utility.yul\":3121:3125   */\n      0x20\n        /* \"#utility.yul\":3114:3119   */\n      dup2\n        /* \"#utility.yul\":3110:3126   */\n      add\n        /* \"#utility.yul\":3159:3162   */\n      dup5\n        /* \"#utility.yul\":3150:3156   */\n      dup5\n        /* \"#utility.yul\":3145:3148   */\n      dup5\n        /* \"#utility.yul\":3141:3157   */\n      add\n        /* \"#utility.yul\":3138:3163   */\n      gt\n        /* \"#utility.yul\":3135:3247   */\n      iszero\n      tag_76\n      jumpi\n        /* \"#utility.yul\":3166:3245   */\n      tag_77\n      tag_32\n      jump\t// in\n    tag_77:\n        /* \"#utility.yul\":3135:3247   */\n    tag_76:\n        /* \"#utility.yul\":3256:3310   */\n      tag_78\n        /* \"#utility.yul\":3303:3309   */\n      dup5\n        /* \"#utility.yul\":3298:3301   */\n      dup3\n        /* \"#utility.yul\":3293:3296   */\n      dup6\n        /* \"#utility.yul\":3256:3310   */\n      tag_37\n      jump\t// in\n    tag_78:\n        /* \"#utility.yul\":2975:3316   */\n      pop\n        /* \"#utility.yul\":2891:3316   */\n      swap4\n      swap3\n      pop\n      pop\n      pop\n      jump\t// out\n        /* \"#utility.yul\":3336:3676   */\n    tag_39:\n        /* \"#utility.yul\":3392:3397   */\n      0x00\n        /* \"#utility.yul\":3441:3444   */\n      dup3\n        /* \"#utility.yul\":3434:3438   */\n      0x1f\n        /* \"#utility.yul\":3426:3432   */\n      dup4\n        /* \"#utility.yul\":3422:3439   */\n      add\n        /* \"#utility.yul\":3418:3445   */\n      slt\n        /* \"#utility.yul\":3408:3530   */\n      tag_80\n      jumpi\n        /* \"#utility.yul\":3449:3528   */\n      tag_81\n      tag_31\n      jump\t// in\n    tag_81:\n        /* \"#utility.yul\":3408:3530   */\n    tag_80:\n        /* \"#utility.yul\":3566:3572   */\n      dup2\n        /* \"#utility.yul\":3553:3573   */\n      calldataload\n        /* \"#utility.yul\":3591:3670   */\n      tag_82\n        /* \"#utility.yul\":3666:3669   */\n      dup5\n        /* \"#utility.yul\":3658:3664   */\n      dup3\n        /* \"#utility.yul\":3651:3655   */\n      0x20\n        /* \"#utility.yul\":3643:3649   */\n      dup7\n        /* \"#utility.yul\":3639:3656   */\n      add\n        /* \"#utility.yul\":3591:3670   */\n      tag_38\n      jump\t// in\n    tag_82:\n        /* \"#utility.yul\":3582:3670   */\n      swap2\n      pop\n        /* \"#utility.yul\":3398:3676   */\n      pop\n        /* \"#utility.yul\":3336:3676   */\n      swap3\n      swap2\n      pop\n      pop\n      jump\t// out\n        /* \"#utility.yul\":3682:4516   */\n    tag_11:\n        /* \"#utility.yul\":3770:3776   */\n      0x00\n        /* \"#utility.yul\":3778:3784   */\n      0x00\n        /* \"#utility.yul\":3827:3829   */\n      0x40\n        /* \"#utility.yul\":3815:3824   */\n      dup4\n        /* \"#utility.yul\":3806:3813   */\n      dup6\n        /* \"#utility.yul\":3802:3825   */\n      sub\n        /* \"#utility.yul\":3798:3830   */\n      slt\n        /* \"#utility.yul\":3795:3914   */\n      iszero\n      tag_84\n      jumpi\n        /* \"#utility.yul\":3833:3912   */\n      tag_85\n      tag_29\n      jump\t// in\n    tag_85:\n        /* \"#utility.yul\":3795:3914   */\n    tag_84:\n        /* \"#utility.yul\":3981:3982   */\n      0x00\n        /* \"#utility.yul\":3970:3979   */\n      dup4\n        /* \"#utility.yul\":3966:3983   */\n      add\n        /* \"#utility.yul\":3953:3984   */\n      calldataload\n        /* \"#utility.yul\":4011:4029   */\n      0xffffffffffffffff\n        /* \"#utility.yul\":4003:4009   */\n      dup2\n        /* \"#utility.yul\":4000:4030   */\n      gt\n        /* \"#utility.yul\":3997:4114   */\n      iszero\n      tag_86\n      jumpi\n        /* \"#utility.yul\":4033:4112   */\n      tag_87\n      tag_30\n      jump\t// in\n    tag_87:\n        /* \"#utility.yul\":3997:4114   */\n    tag_86:\n        /* \"#utility.yul\":4138:4201   */\n      tag_88\n        /* \"#utility.yul\":4193:4200   */\n      dup6\n        /* \"#utility.yul\":4184:4190   */\n      dup3\n        /* \"#utility.yul\":4173:4182   */\n      dup7\n        /* \"#utility.yul\":4169:4191   */\n      add\n        /* \"#utility.yul\":4138:4201   */\n      tag_39\n      jump\t// in\n    tag_88:\n        /* \"#utility.yul\":4128:4201   */\n      swap3\n      pop\n        /* \"#utility.yul\":3924:4211   */\n      pop\n        /* \"#utility.yul\":4278:4280   */\n      0x20\n        /* \"#utility.yul\":4267:4276   */\n      dup4\n        /* \"#utility.yul\":4263:4281   */\n      add\n        /* \"#utility.yul\":4250:4282   */\n      calldataload\n        /* \"#utility.yul\":4309:4327   */\n      0xffffffffffffffff\n        /* \"#utility.yul\":4301:4307   */\n      dup2\n        /* \"#utility.yul\":4298:4328   */\n      gt\n        /* \"#utility.yul\":4295:4412   */\n      iszero\n      tag_89\n      jumpi\n        /* \"#utility.yul\":4331:4410   */\n      tag_90\n      tag_30\n      jump\t// in\n    tag_90:\n        /* \"#utility.yul\":4295:4412   */\n    tag_89:\n        /* \"#utility.yul\":4436:4499   */\n      tag_91\n        /* \"#utility.yul\":4491:4498   */\n      dup6\n        /* \"#utility.yul\":4482:4488   */\n      dup3\n        /* \"#utility.yul\":4471:4480   */\n      dup7\n        /* \"#utility.yul\":4467:4489   */\n      add\n        /* \"#utility.yul\":4436:4499   */\n      tag_39\n      jump\t// in\n    tag_91:\n        /* \"#utility.yul\":4426:4499   */\n      swap2\n      pop\n        /* \"#utility.yul\":4221:4509   */\n      pop\n        /* \"#utility.yul\":3682:4516   */\n      swap3\n      pop\n      swap3\n      swap1\n      pop\n      jump\t// out\n        /* \"#utility.yul\":4522:4702   */\n    tag_40:\n        /* \"#utility.yul\":4570:4647   */\n      0x4e487b7100000000000000000000000000000000000000000000000000000000\n        /* \"#utility.yul\":4567:4568   */\n      0x00\n        /* \"#utility.yul\":4560:4648   */\n      mstore\n        /* \"#utility.yul\":4667:4671   */\n      0x22\n        /* \"#utility.yul\":4664:4665   */\n      0x04\n        /* \"#utility.yul\":4657:4672   */\n      mstore\n        /* \"#utility.yul\":4691:4695   */\n      0x24\n        /* \"#utility.yul\":4688:4689   */\n      0x00\n        /* \"#utility.yul\":4681:4696   */\n      revert\n        /* \"#utility.yul\":4708:5028   */\n    tag_15:\n        /* \"#utility.yul\":4752:4758   */\n      0x00\n        /* \"#utility.yul\":4789:4790   */\n      0x02\n        /* \"#utility.yul\":4783:4787   */\n      dup3\n        /* \"#utility.yul\":4779:4791   */\n      div\n        /* \"#utility.yul\":4769:4791   */\n      swap1\n      pop\n        /* \"#utility.yul\":4836:4837   */\n      0x01\n        /* \"#utility.yul\":4830:4834   */\n      dup3\n        /* \"#utility.yul\":4826:4838   */\n      and\n        /* \"#utility.yul\":4857:4875   */\n      dup1\n        /* \"#utility.yul\":4847:4928   */\n      tag_94\n      jumpi\n        /* \"#utility.yul\":4913:4917   */\n      0x7f\n        /* \"#utility.yul\":4905:4911   */\n      dup3\n        /* \"#utility.yul\":4901:4918   */\n      and\n        /* \"#utility.yul\":4891:4918   */\n      swap2\n      pop\n        /* \"#utility.yul\":4847:4928   */\n    tag_94:\n        /* \"#utility.yul\":4975:4977   */\n      0x20\n        /* \"#utility.yul\":4967:4973   */\n      dup3\n        /* \"#utility.yul\":4964:4978   */\n      lt\n        /* \"#utility.yul\":4944:4962   */\n      dup2\n        /* \"#utility.yul\":4941:4979   */\n      sub\n        /* \"#utility.yul\":4938:5022   */\n      tag_95\n      jumpi\n        /* \"#utility.yul\":4994:5012   */\n      tag_96\n      tag_40\n      jump\t// in\n    tag_96:\n        /* \"#utility.yul\":4938:5022   */\n    tag_95:\n        /* \"#utility.yul\":4759:5028   */\n      pop\n        /* \"#utility.yul\":4708:5028   */\n      swap2\n      swap1\n      pop\n      jump\t// out\n        /* \"#utility.yul\":5034:5182   */\n    tag_41:\n        /* \"#utility.yul\":5136:5147   */\n      0x00\n        /* \"#utility.yul\":5173:5176   */\n      dup2\n        /* \"#utility.yul\":5158:5176   */\n      swap1\n      pop\n        /* \"#utility.yul\":5034:5182   */\n      swap3\n      swap2\n      pop\n      pop\n      jump\t// out\n        /* \"#utility.yul\":5188:5578   */\n    tag_42:\n        /* \"#utility.yul\":5294:5297   */\n      0x00\n        /* \"#utility.yul\":5322:5361   */\n      tag_99\n        /* \"#utility.yul\":5355:5360   */\n      dup3\n        /* \"#utility.yul\":5322:5361   */\n      tag_23\n      jump\t// in\n    tag_99:\n        /* \"#utility.yul\":5377:5466   */\n      tag_100\n        /* \"#utility.yul\":5459:5465   */\n      dup2\n        /* \"#utility.yul\":5454:5457   */\n      dup6\n        /* \"#utility.yul\":5377:5466   */\n      tag_41\n      jump\t// in\n    tag_100:\n        /* \"#utility.yul\":5370:5466   */\n      swap4\n      pop\n        /* \"#utility.yul\":5475:5540   */\n      tag_101\n        /* \"#utility.yul\":5533:5539   */\n      dup2\n        /* \"#utility.yul\":5528:5531   */\n      dup6\n        /* \"#utility.yul\":5521:5525   */\n      0x20\n        /* \"#utility.yul\":5514:5519   */\n      dup7\n        /* \"#utility.yul\":5510:5526   */\n      add\n        /* \"#utility.yul\":5475:5540   */\n      tag_25\n      jump\t// in\n    tag_101:\n        /* \"#utility.yul\":5565:5571   */\n      dup1\n        /* \"#utility.yul\":5560:5563   */\n      dup5\n        /* \"#utility.yul\":5556:5572   */\n      add\n        /* \"#utility.yul\":5549:5572   */\n      swap2\n      pop\n        /* \"#utility.yul\":5298:5578   */\n      pop\n        /* \"#utility.yul\":5188:5578   */\n      swap3\n      swap2\n      pop\n      pop\n      jump\t// out\n        /* \"#utility.yul\":5584:6019   */\n    tag_22:\n        /* \"#utility.yul\":5764:5767   */\n      0x00\n        /* \"#utility.yul\":5786:5881   */\n      tag_103\n        /* \"#utility.yul\":5877:5880   */\n      dup3\n        /* \"#utility.yul\":5868:5874   */\n      dup6\n        /* \"#utility.yul\":5786:5881   */\n      tag_42\n      jump\t// in\n    tag_103:\n        /* \"#utility.yul\":5779:5881   */\n      swap2\n      pop\n        /* \"#utility.yul\":5898:5993   */\n      tag_104\n        /* \"#utility.yul\":5989:5992   */\n      dup3\n        /* \"#utility.yul\":5980:5986   */\n      dup5\n        /* \"#utility.yul\":5898:5993   */\n      tag_42\n      jump\t// in\n    tag_104:\n        /* \"#utility.yul\":5891:5993   */\n      swap2\n      pop\n        /* \"#utility.yul\":6010:6013   */\n      dup2\n        /* \"#utility.yul\":6003:6013   */\n      swap1\n      pop\n        /* \"#utility.yul\":5584:6019   */\n      swap4\n      swap3\n      pop\n      pop\n      pop\n      jump\t// out\n\n    auxdata: 0xa264697066735822122090a6426932d13dc0fcd8bd95ea05748f8daa95c196665d7bc3dd980c3e0679aa64736f6c634300081e0033\n}\n",
				"bytecode": {
					"linkReferences": {},
					"object": "6080604052348015600e575f5ffd5b506104708061001c5f395ff3fe608060405234801561000f575f5ffd5b5060043610610034575f3560e01c806306fdde0314610038578063a7960b4d14610056575b5f5ffd5b610040610086565b60405161004d91906101ad565b60405180910390f35b610070600480360381019061006b919061030a565b610111565b60405161007d91906101ad565b60405180910390f35b5f8054610092906103ad565b80601f01602080910402602001604051908101604052809291908181526020018280546100be906103ad565b80156101095780601f106100e057610100808354040283529160200191610109565b820191905f5260205f20905b8154815290600101906020018083116100ec57829003601f168201915b505050505081565b60608282604051602001610126929190610417565b604051602081830303815290604052905092915050565b5f81519050919050565b5f82825260208201905092915050565b8281835e5f83830152505050565b5f601f19601f8301169050919050565b5f61017f8261013d565b6101898185610147565b9350610199818560208601610157565b6101a281610165565b840191505092915050565b5f6020820190508181035f8301526101c58184610175565b905092915050565b5f604051905090565b5f5ffd5b5f5ffd5b5f5ffd5b5f5ffd5b7f4e487b71000000000000000000000000000000000000000000000000000000005f52604160045260245ffd5b61021c82610165565b810181811067ffffffffffffffff8211171561023b5761023a6101e6565b5b80604052505050565b5f61024d6101cd565b90506102598282610213565b919050565b5f67ffffffffffffffff821115610278576102776101e6565b5b61028182610165565b9050602081019050919050565b828183375f83830152505050565b5f6102ae6102a98461025e565b610244565b9050828152602081018484840111156102ca576102c96101e2565b5b6102d584828561028e565b509392505050565b5f82601f8301126102f1576102f06101de565b5b813561030184826020860161029c565b91505092915050565b5f5f604083850312156103205761031f6101d6565b5b5f83013567ffffffffffffffff81111561033d5761033c6101da565b5b610349858286016102dd565b925050602083013567ffffffffffffffff81111561036a576103696101da565b5b610376858286016102dd565b9150509250929050565b7f4e487b71000000000000000000000000000000000000000000000000000000005f52602260045260245ffd5b5f60028204905060018216806103c457607f821691505b6020821081036103d7576103d6610380565b5b50919050565b5f81905092915050565b5f6103f18261013d565b6103fb81856103dd565b935061040b818560208601610157565b80840191505092915050565b5f61042282856103e7565b915061042e82846103e7565b9150819050939250505056fea264697066735822122090a6426932d13dc0fcd8bd95ea05748f8daa95c196665d7bc3dd980c3e0679aa64736f6c634300081e0033",
					"opcodes": "PUSH1 0x80 PUSH1 0x40 MSTORE CALLVALUE DUP1 ISZERO PUSH1 0xE JUMPI PUSH0 PUSH0 REVERT JUMPDEST POP PUSH2 0x470 DUP1 PUSH2 0x1C PUSH0 CODECOPY PUSH0 RETURN INVALID PUSH1 0x80 PUSH1 0x40 MSTORE CALLVALUE DUP1 ISZERO PUSH2 0xF JUMPI PUSH0 PUSH0 REVERT JUMPDEST POP PUSH1 0x4 CALLDATASIZE LT PUSH2 0x34 JUMPI PUSH0 CALLDATALOAD PUSH1 0xE0 SHR DUP1 PUSH4 0x6FDDE03 EQ PUSH2 0x38 JUMPI DUP1 PUSH4 0xA7960B4D EQ PUSH2 0x56 JUMPI JUMPDEST PUSH0 PUSH0 REVERT JUMPDEST PUSH2 0x40 PUSH2 0x86 JUMP JUMPDEST PUSH1 0x40 MLOAD PUSH2 0x4D SWAP2 SWAP1 PUSH2 0x1AD JUMP JUMPDEST PUSH1 0x40 MLOAD DUP1 SWAP2 SUB SWAP1 RETURN JUMPDEST PUSH2 0x70 PUSH1 0x4 DUP1 CALLDATASIZE SUB DUP2 ADD SWAP1 PUSH2 0x6B SWAP2 SWAP1 PUSH2 0x30A JUMP JUMPDEST PUSH2 0x111 JUMP JUMPDEST PUSH1 0x40 MLOAD PUSH2 0x7D SWAP2 SWAP1 PUSH2 0x1AD JUMP JUMPDEST PUSH1 0x40 MLOAD DUP1 SWAP2 SUB SWAP1 RETURN JUMPDEST PUSH0 DUP1 SLOAD PUSH2 0x92 SWAP1 PUSH2 0x3AD JUMP JUMPDEST DUP1 PUSH1 0x1F ADD PUSH1 0x20 DUP1 SWAP2 DIV MUL PUSH1 0x20 ADD PUSH1 0x40 MLOAD SWAP1 DUP2 ADD PUSH1 0x40 MSTORE DUP1 SWAP3 SWAP2 SWAP1 DUP2 DUP2 MSTORE PUSH1 0x20 ADD DUP3 DUP1 SLOAD PUSH2 0xBE SWAP1 PUSH2 0x3AD JUMP JUMPDEST DUP1 ISZERO PUSH2 0x109 JUMPI DUP1 PUSH1 0x1F LT PUSH2 0xE0 JUMPI PUSH2 0x100 DUP1 DUP4 SLOAD DIV MUL DUP4 MSTORE SWAP2 PUSH1 0x20 ADD SWAP2 PUSH2 0x109 JUMP JUMPDEST DUP3 ADD SWAP2 SWAP1 PUSH0 MSTORE PUSH1 0x20 PUSH0 KECCAK256 SWAP1 JUMPDEST DUP2 SLOAD DUP2 MSTORE SWAP1 PUSH1 0x1 ADD SWAP1 PUSH1 0x20 ADD DUP1 DUP4 GT PUSH2 0xEC JUMPI DUP3 SWAP1 SUB PUSH1 0x1F AND DUP3 ADD SWAP2 JUMPDEST POP POP POP POP POP DUP2 JUMP JUMPDEST PUSH1 0x60 DUP3 DUP3 PUSH1 0x40 MLOAD PUSH1 0x20 ADD PUSH2 0x126 SWAP3 SWAP2 SWAP1 PUSH2 0x417 JUMP JUMPDEST PUSH1 0x40 MLOAD PUSH1 0x20 DUP2 DUP4 SUB SUB DUP2 MSTORE SWAP1 PUSH1 0x40 MSTORE SWAP1 POP SWAP3 SWAP2 POP POP JUMP JUMPDEST PUSH0 DUP2 MLOAD SWAP1 POP SWAP2 SWAP1 POP JUMP JUMPDEST PUSH0 DUP3 DUP3 MSTORE PUSH1 0x20 DUP3 ADD SWAP1 POP SWAP3 SWAP2 POP POP JUMP JUMPDEST DUP3 DUP2 DUP4 MCOPY PUSH0 DUP4 DUP4 ADD MSTORE POP POP POP JUMP JUMPDEST PUSH0 PUSH1 0x1F NOT PUSH1 0x1F DUP4 ADD AND SWAP1 POP SWAP2 SWAP1 POP JUMP JUMPDEST PUSH0 PUSH2 0x17F DUP3 PUSH2 0x13D JUMP JUMPDEST PUSH2 0x189 DUP2 DUP6 PUSH2 0x147 JUMP JUMPDEST SWAP4 POP PUSH2 0x199 DUP2 DUP6 PUSH1 0x20 DUP7 ADD PUSH2 0x157 JUMP JUMPDEST PUSH2 0x1A2 DUP2 PUSH2 0x165 JUMP JUMPDEST DUP5 ADD SWAP2 POP POP SWAP3 SWAP2 POP POP JUMP JUMPDEST PUSH0 PUSH1 0x20 DUP3 ADD SWAP1 POP DUP2 DUP2 SUB PUSH0 DUP4 ADD MSTORE PUSH2 0x1C5 DUP2 DUP5 PUSH2 0x175 JUMP JUMPDEST SWAP1 POP SWAP3 SWAP2 POP POP JUMP JUMPDEST PUSH0 PUSH1 0x40 MLOAD SWAP1 POP SWAP1 JUMP JUMPDEST PUSH0 PUSH0 REVERT JUMPDEST PUSH0 PUSH0 REVERT JUMPDEST PUSH0 PUSH0 REVERT JUMPDEST PUSH0 PUSH0 REVERT JUMPDEST PUSH32 0x4E487B7100000000000000000000000000000000000000000000000000000000 PUSH0 MSTORE PUSH1 0x41 PUSH1 0x4 MSTORE PUSH1 0x24 PUSH0 REVERT JUMPDEST PUSH2 0x21C DUP3 PUSH2 0x165 JUMP JUMPDEST DUP2 ADD DUP2 DUP2 LT PUSH8 0xFFFFFFFFFFFFFFFF DUP3 GT OR ISZERO PUSH2 0x23B JUMPI PUSH2 0x23A PUSH2 0x1E6 JUMP JUMPDEST JUMPDEST DUP1 PUSH1 0x40 MSTORE POP POP POP JUMP JUMPDEST PUSH0 PUSH2 0x24D PUSH2 0x1CD JUMP JUMPDEST SWAP1 POP PUSH2 0x259 DUP3 DUP3 PUSH2 0x213 JUMP JUMPDEST SWAP2 SWAP1 POP JUMP JUMPDEST PUSH0 PUSH8 0xFFFFFFFFFFFFFFFF DUP3 GT ISZERO PUSH2 0x278 JUMPI PUSH2 0x277 PUSH2 0x1E6 JUMP JUMPDEST JUMPDEST PUSH2 0x281 DUP3 PUSH2 0x165 JUMP JUMPDEST SWAP1 POP PUSH1 0x20 DUP2 ADD SWAP1 POP SWAP2 SWAP1 POP JUMP JUMPDEST DUP3 DUP2 DUP4 CALLDATACOPY PUSH0 DUP4 DUP4 ADD MSTORE POP POP POP JUMP JUMPDEST PUSH0 PUSH2 0x2AE PUSH2 0x2A9 DUP5 PUSH2 0x25E JUMP JUMPDEST PUSH2 0x244 JUMP JUMPDEST SWAP1 POP DUP3 DUP2 MSTORE PUSH1 0x20 DUP2 ADD DUP5 DUP5 DUP5 ADD GT ISZERO PUSH2 0x2CA JUMPI PUSH2 0x2C9 PUSH2 0x1E2 JUMP JUMPDEST JUMPDEST PUSH2 0x2D5 DUP5 DUP3 DUP6 PUSH2 0x28E JUMP JUMPDEST POP SWAP4 SWAP3 POP POP POP JUMP JUMPDEST PUSH0 DUP3 PUSH1 0x1F DUP4 ADD SLT PUSH2 0x2F1 JUMPI PUSH2 0x2F0 PUSH2 0x1DE JUMP JUMPDEST JUMPDEST DUP2 CALLDATALOAD PUSH2 0x301 DUP5 DUP3 PUSH1 0x20 DUP7 ADD PUSH2 0x29C JUMP JUMPDEST SWAP2 POP POP SWAP3 SWAP2 POP POP JUMP JUMPDEST PUSH0 PUSH0 PUSH1 0x40 DUP4 DUP6 SUB SLT ISZERO PUSH2 0x320 JUMPI PUSH2 0x31F PUSH2 0x1D6 JUMP JUMPDEST JUMPDEST PUSH0 DUP4 ADD CALLDATALOAD PUSH8 0xFFFFFFFFFFFFFFFF DUP2 GT ISZERO PUSH2 0x33D JUMPI PUSH2 0x33C PUSH2 0x1DA JUMP JUMPDEST JUMPDEST PUSH2 0x349 DUP6 DUP3 DUP7 ADD PUSH2 0x2DD JUMP JUMPDEST SWAP3 POP POP PUSH1 0x20 DUP4 ADD CALLDATALOAD PUSH8 0xFFFFFFFFFFFFFFFF DUP2 GT ISZERO PUSH2 0x36A JUMPI PUSH2 0x369 PUSH2 0x1DA JUMP JUMPDEST JUMPDEST PUSH2 0x376 DUP6 DUP3 DUP7 ADD PUSH2 0x2DD JUMP JUMPDEST SWAP2 POP POP SWAP3 POP SWAP3 SWAP1 POP JUMP JUMPDEST PUSH32 0x4E487B7100000000000000000000000000000000000000000000000000000000 PUSH0 MSTORE PUSH1 0x22 PUSH1 0x4 MSTORE PUSH1 0x24 PUSH0 REVERT JUMPDEST PUSH0 PUSH1 0x2 DUP3 DIV SWAP1 POP PUSH1 0x1 DUP3 AND DUP1 PUSH2 0x3C4 JUMPI PUSH1 0x7F DUP3 AND SWAP2 POP JUMPDEST PUSH1 0x20 DUP3 LT DUP2 SUB PUSH2 0x3D7 JUMPI PUSH2 0x3D6 PUSH2 0x380 JUMP JUMPDEST JUMPDEST POP SWAP2 SWAP1 POP JUMP JUMPDEST PUSH0 DUP2 SWAP1 POP SWAP3 SWAP2 POP POP JUMP JUMPDEST PUSH0 PUSH2 0x3F1 DUP3 PUSH2 0x13D JUMP JUMPDEST PUSH2 0x3FB DUP2 DUP6 PUSH2 0x3DD JUMP JUMPDEST SWAP4 POP PUSH2 0x40B DUP2 DUP6 PUSH1 0x20 DUP7 ADD PUSH2 0x157 JUMP JUMPDEST DUP1 DUP5 ADD SWAP2 POP POP SWAP3 SWAP2 POP POP JUMP JUMPDEST PUSH0 PUSH2 0x422 DUP3 DUP6 PUSH2 0x3E7 JUMP JUMPDEST SWAP2 POP PUSH2 0x42E DUP3 DUP5 PUSH2 0x3E7 JUMP JUMPDEST SWAP2 POP DUP2 SWAP1 POP SWAP4 SWAP3 POP POP POP JUMP INVALID LOG2 PUSH5 0x6970667358 0x22 SLT KECCAK256 SWAP1 0xA6 TIMESTAMP PUSH10 0x32D13DC0FCD8BD95EA05 PUSH21 0x8F8DAA95C196665D7BC3DD980C3E0679AA64736F6C PUSH4 0x4300081E STOP CALLER "
				},
				"gasEstimates": {
					"creation": {
						"codeDepositCost": "227200",
						"executionCost": "267",
						"totalCost": "227467"
					},
					"external": {
						"Nome_e_Sobrenme(string,string)": "infinite",
						"name()": "infinite"
					}
				},
				"methodIdentifiers": {
					"Nome_e_Sobrenme(string,string)": "a7960b4d",
					"name()": "06fdde03"
				}
			},
			"storageLayout": {
				"storage": [
					{
						"astId": 3,
						"contract": "Introdução ao Solidity/Aprenda Solidity/O tipo string.sol:String",
						"label": "name",
						"offset": 0,
						"slot": "0",
						"type": "t_string_storage"
					}
				],
				"types": {
					"t_string_storage": {
						"encoding": "bytes",
						"label": "string",
						"numberOfBytes": "32"
					}
				}
			},
			"userdoc": {
				"kind": "user",
				"methods": {},
				"version": 1
			}
		}
	}
}