{
	"Introdução ao Solidity/Aprenda Solidity/msg.sender vs tx.origin.sol": {
		"Origen": {
			"abi": [
				{
					"inputs": [],
					"name": "InvoocarExterna",
					"outputs": [
						{
							"internalType": "address",
							"name": "",
							"type": "address"
						},
						{
							"internalType": "address",
							"name": "",
							"type": "address"
						}
					],
					"stateMutability": "view",
					"type": "function"
				},
				{
					"inputs": [],
					"name": "funcaoExterna",
					"outputs": [
						{
							"internalType": "address",
							"name": "",
							"type": "address"
						},
						{
							"internalType": "address",
							"name": "",
							"type": "address"
						}
					],
					"stateMutability": "view",
					"type": "function"
				},
				{
					"inputs": [],
					"name": "retornarEndereco",
					"outputs": [
						{
							"internalType": "address",
							"name": "",
							"type": "address"
						},
						{
							"internalType": "address",
							"name": "",
							"type": "address"
						}
					],
					"stateMutability": "view",
					"type": "function"
				}
			],
			"devdoc": {
				"kind": "dev",
				"methods": {},
				"version": 1
			},
			"evm": {
				"assembly": "    /* \"Introdu\\xc3\\xa7\\xc3\\xa3o ao Solidity/Aprenda Solidity/msg.sender vs tx.origin.sol\":61:446  contract Origen{... */\n  mstore(0x40, 0x80)\n  callvalue\n  dup1\n  iszero\n  tag_1\n  jumpi\n  revert(0x00, 0x00)\ntag_1:\n  pop\n  dataSize(sub_0)\n  dup1\n  dataOffset(sub_0)\n  0x00\n  codecopy\n  0x00\n  return\nstop\n\nsub_0: assembly {\n        /* \"Introdu\\xc3\\xa7\\xc3\\xa3o ao Solidity/Aprenda Solidity/msg.sender vs tx.origin.sol\":61:446  contract Origen{... */\n      mstore(0x40, 0x80)\n      callvalue\n      dup1\n      iszero\n      tag_1\n      jumpi\n      revert(0x00, 0x00)\n    tag_1:\n      pop\n      jumpi(tag_2, lt(calldatasize, 0x04))\n      shr(0xe0, calldataload(0x00))\n      dup1\n      0x14876f02\n      eq\n      tag_3\n      jumpi\n      dup1\n      0xbd6f9584\n      eq\n      tag_4\n      jumpi\n      dup1\n      0xe09b290c\n      eq\n      tag_5\n      jumpi\n    tag_2:\n      revert(0x00, 0x00)\n        /* \"Introdu\\xc3\\xa7\\xc3\\xa3o ao Solidity/Aprenda Solidity/msg.sender vs tx.origin.sol\":208:323  function funcaoExterna() external view returns (address, address) {... */\n    tag_3:\n      tag_6\n      tag_7\n      jump\t// in\n    tag_6:\n      mload(0x40)\n      tag_8\n      swap3\n      swap2\n      swap1\n      tag_9\n      jump\t// in\n    tag_8:\n      mload(0x40)\n      dup1\n      swap2\n      sub\n      swap1\n      return\n        /* \"Introdu\\xc3\\xa7\\xc3\\xa3o ao Solidity/Aprenda Solidity/msg.sender vs tx.origin.sol\":85:200  function retornarEndereco() public view returns (address, address){... */\n    tag_4:\n      tag_10\n      tag_11\n      jump\t// in\n    tag_10:\n      mload(0x40)\n      tag_12\n      swap3\n      swap2\n      swap1\n      tag_9\n      jump\t// in\n    tag_12:\n      mload(0x40)\n      dup1\n      swap2\n      sub\n      swap1\n      return\n        /* \"Introdu\\xc3\\xa7\\xc3\\xa3o ao Solidity/Aprenda Solidity/msg.sender vs tx.origin.sol\":331:443  function InvoocarExterna() public view returns (address, address) {... */\n    tag_5:\n      tag_13\n      tag_14\n      jump\t// in\n    tag_13:\n      mload(0x40)\n      tag_15\n      swap3\n      swap2\n      swap1\n      tag_9\n      jump\t// in\n    tag_15:\n      mload(0x40)\n      dup1\n      swap2\n      sub\n      swap1\n      return\n        /* \"Introdu\\xc3\\xa7\\xc3\\xa3o ao Solidity/Aprenda Solidity/msg.sender vs tx.origin.sol\":208:323  function funcaoExterna() external view returns (address, address) {... */\n    tag_7:\n        /* \"Introdu\\xc3\\xa7\\xc3\\xa3o ao Solidity/Aprenda Solidity/msg.sender vs tx.origin.sol\":256:263  address */\n      0x00\n        /* \"Introdu\\xc3\\xa7\\xc3\\xa3o ao Solidity/Aprenda Solidity/msg.sender vs tx.origin.sol\":265:272  address */\n      0x00\n        /* \"Introdu\\xc3\\xa7\\xc3\\xa3o ao Solidity/Aprenda Solidity/msg.sender vs tx.origin.sol\":293:303  msg.sender */\n      caller\n        /* \"Introdu\\xc3\\xa7\\xc3\\xa3o ao Solidity/Aprenda Solidity/msg.sender vs tx.origin.sol\":305:314  tx.origin */\n      origin\n        /* \"Introdu\\xc3\\xa7\\xc3\\xa3o ao Solidity/Aprenda Solidity/msg.sender vs tx.origin.sol\":285:315  return (msg.sender, tx.origin) */\n      swap2\n      pop\n      swap2\n      pop\n        /* \"Introdu\\xc3\\xa7\\xc3\\xa3o ao Solidity/Aprenda Solidity/msg.sender vs tx.origin.sol\":208:323  function funcaoExterna() external view returns (address, address) {... */\n      swap1\n      swap2\n      jump\t// out\n        /* \"Introdu\\xc3\\xa7\\xc3\\xa3o ao Solidity/Aprenda Solidity/msg.sender vs tx.origin.sol\":85:200  function retornarEndereco() public view returns (address, address){... */\n    tag_11:\n        /* \"Introdu\\xc3\\xa7\\xc3\\xa3o ao Solidity/Aprenda Solidity/msg.sender vs tx.origin.sol\":134:141  address */\n      0x00\n        /* \"Introdu\\xc3\\xa7\\xc3\\xa3o ao Solidity/Aprenda Solidity/msg.sender vs tx.origin.sol\":143:150  address */\n      0x00\n        /* \"Introdu\\xc3\\xa7\\xc3\\xa3o ao Solidity/Aprenda Solidity/msg.sender vs tx.origin.sol\":170:180  msg.sender */\n      caller\n        /* \"Introdu\\xc3\\xa7\\xc3\\xa3o ao Solidity/Aprenda Solidity/msg.sender vs tx.origin.sol\":182:191  tx.origin */\n      origin\n        /* \"Introdu\\xc3\\xa7\\xc3\\xa3o ao Solidity/Aprenda Solidity/msg.sender vs tx.origin.sol\":162:192  return (msg.sender, tx.origin) */\n      swap2\n      pop\n      swap2\n      pop\n        /* \"Introdu\\xc3\\xa7\\xc3\\xa3o ao Solidity/Aprenda Solidity/msg.sender vs tx.origin.sol\":85:200  function retornarEndereco() public view returns (address, address){... */\n      swap1\n      swap2\n      jump\t// out\n        /* \"Introdu\\xc3\\xa7\\xc3\\xa3o ao Solidity/Aprenda Solidity/msg.sender vs tx.origin.sol\":331:443  function InvoocarExterna() public view returns (address, address) {... */\n    tag_14:\n        /* \"Introdu\\xc3\\xa7\\xc3\\xa3o ao Solidity/Aprenda Solidity/msg.sender vs tx.origin.sol\":379:386  address */\n      0x00\n        /* \"Introdu\\xc3\\xa7\\xc3\\xa3o ao Solidity/Aprenda Solidity/msg.sender vs tx.origin.sol\":388:395  address */\n      0x00\n        /* \"Introdu\\xc3\\xa7\\xc3\\xa3o ao Solidity/Aprenda Solidity/msg.sender vs tx.origin.sol\":415:419  this */\n      address\n        /* \"Introdu\\xc3\\xa7\\xc3\\xa3o ao Solidity/Aprenda Solidity/msg.sender vs tx.origin.sol\":415:433  this.funcaoExterna */\n      0xffffffffffffffffffffffffffffffffffffffff\n      and\n      0x14876f02\n        /* \"Introdu\\xc3\\xa7\\xc3\\xa3o ao Solidity/Aprenda Solidity/msg.sender vs tx.origin.sol\":415:435  this.funcaoExterna() */\n      mload(0x40)\n      dup2\n      0xffffffff\n      and\n      0xe0\n      shl\n      dup2\n      mstore\n      0x04\n      add\n      0x40\n      dup1\n      mload\n      dup1\n      dup4\n      sub\n      dup2\n      dup7\n      gas\n      staticcall\n      iszero\n      dup1\n      iszero\n      tag_20\n      jumpi\n      returndatacopy(0x00, 0x00, returndatasize)\n      revert(0x00, returndatasize)\n    tag_20:\n      pop\n      pop\n      pop\n      pop\n      mload(0x40)\n      returndatasize\n      not(0x1f)\n      0x1f\n      dup3\n      add\n      and\n      dup3\n      add\n      dup1\n      0x40\n      mstore\n      pop\n      dup2\n      add\n      swap1\n      tag_21\n      swap2\n      swap1\n      tag_22\n      jump\t// in\n    tag_21:\n        /* \"Introdu\\xc3\\xa7\\xc3\\xa3o ao Solidity/Aprenda Solidity/msg.sender vs tx.origin.sol\":408:435  return this.funcaoExterna() */\n      swap2\n      pop\n      swap2\n      pop\n        /* \"Introdu\\xc3\\xa7\\xc3\\xa3o ao Solidity/Aprenda Solidity/msg.sender vs tx.origin.sol\":331:443  function InvoocarExterna() public view returns (address, address) {... */\n      swap1\n      swap2\n      jump\t// out\n        /* \"#utility.yul\":7:133   */\n    tag_23:\n        /* \"#utility.yul\":44:51   */\n      0x00\n        /* \"#utility.yul\":84:126   */\n      0xffffffffffffffffffffffffffffffffffffffff\n        /* \"#utility.yul\":77:82   */\n      dup3\n        /* \"#utility.yul\":73:127   */\n      and\n        /* \"#utility.yul\":62:127   */\n      swap1\n      pop\n        /* \"#utility.yul\":7:133   */\n      swap2\n      swap1\n      pop\n      jump\t// out\n        /* \"#utility.yul\":139:235   */\n    tag_24:\n        /* \"#utility.yul\":176:183   */\n      0x00\n        /* \"#utility.yul\":205:229   */\n      tag_34\n        /* \"#utility.yul\":223:228   */\n      dup3\n        /* \"#utility.yul\":205:229   */\n      tag_23\n      jump\t// in\n    tag_34:\n        /* \"#utility.yul\":194:229   */\n      swap1\n      pop\n        /* \"#utility.yul\":139:235   */\n      swap2\n      swap1\n      pop\n      jump\t// out\n        /* \"#utility.yul\":241:359   */\n    tag_25:\n        /* \"#utility.yul\":328:352   */\n      tag_36\n        /* \"#utility.yul\":346:351   */\n      dup2\n        /* \"#utility.yul\":328:352   */\n      tag_24\n      jump\t// in\n    tag_36:\n        /* \"#utility.yul\":323:326   */\n      dup3\n        /* \"#utility.yul\":316:353   */\n      mstore\n        /* \"#utility.yul\":241:359   */\n      pop\n      pop\n      jump\t// out\n        /* \"#utility.yul\":365:697   */\n    tag_9:\n        /* \"#utility.yul\":486:490   */\n      0x00\n        /* \"#utility.yul\":524:526   */\n      0x40\n        /* \"#utility.yul\":513:522   */\n      dup3\n        /* \"#utility.yul\":509:527   */\n      add\n        /* \"#utility.yul\":501:527   */\n      swap1\n      pop\n        /* \"#utility.yul\":537:608   */\n      tag_38\n        /* \"#utility.yul\":605:606   */\n      0x00\n        /* \"#utility.yul\":594:603   */\n      dup4\n        /* \"#utility.yul\":590:607   */\n      add\n        /* \"#utility.yul\":581:587   */\n      dup6\n        /* \"#utility.yul\":537:608   */\n      tag_25\n      jump\t// in\n    tag_38:\n        /* \"#utility.yul\":618:690   */\n      tag_39\n        /* \"#utility.yul\":686:688   */\n      0x20\n        /* \"#utility.yul\":675:684   */\n      dup4\n        /* \"#utility.yul\":671:689   */\n      add\n        /* \"#utility.yul\":662:668   */\n      dup5\n        /* \"#utility.yul\":618:690   */\n      tag_25\n      jump\t// in\n    tag_39:\n        /* \"#utility.yul\":365:697   */\n      swap4\n      swap3\n      pop\n      pop\n      pop\n      jump\t// out\n        /* \"#utility.yul\":784:901   */\n    tag_27:\n        /* \"#utility.yul\":893:894   */\n      0x00\n        /* \"#utility.yul\":890:891   */\n      0x00\n        /* \"#utility.yul\":883:895   */\n      revert\n        /* \"#utility.yul\":1030:1152   */\n    tag_29:\n        /* \"#utility.yul\":1103:1127   */\n      tag_44\n        /* \"#utility.yul\":1121:1126   */\n      dup2\n        /* \"#utility.yul\":1103:1127   */\n      tag_24\n      jump\t// in\n    tag_44:\n        /* \"#utility.yul\":1096:1101   */\n      dup2\n        /* \"#utility.yul\":1093:1128   */\n      eq\n        /* \"#utility.yul\":1083:1146   */\n      tag_45\n      jumpi\n        /* \"#utility.yul\":1142:1143   */\n      0x00\n        /* \"#utility.yul\":1139:1140   */\n      0x00\n        /* \"#utility.yul\":1132:1144   */\n      revert\n        /* \"#utility.yul\":1083:1146   */\n    tag_45:\n        /* \"#utility.yul\":1030:1152   */\n      pop\n      jump\t// out\n        /* \"#utility.yul\":1158:1301   */\n    tag_30:\n        /* \"#utility.yul\":1215:1220   */\n      0x00\n        /* \"#utility.yul\":1246:1252   */\n      dup2\n        /* \"#utility.yul\":1240:1253   */\n      mload\n        /* \"#utility.yul\":1231:1253   */\n      swap1\n      pop\n        /* \"#utility.yul\":1262:1295   */\n      tag_47\n        /* \"#utility.yul\":1289:1294   */\n      dup2\n        /* \"#utility.yul\":1262:1295   */\n      tag_29\n      jump\t// in\n    tag_47:\n        /* \"#utility.yul\":1158:1301   */\n      swap3\n      swap2\n      pop\n      pop\n      jump\t// out\n        /* \"#utility.yul\":1307:1814   */\n    tag_22:\n        /* \"#utility.yul\":1386:1392   */\n      0x00\n        /* \"#utility.yul\":1394:1400   */\n      0x00\n        /* \"#utility.yul\":1443:1445   */\n      0x40\n        /* \"#utility.yul\":1431:1440   */\n      dup4\n        /* \"#utility.yul\":1422:1429   */\n      dup6\n        /* \"#utility.yul\":1418:1441   */\n      sub\n        /* \"#utility.yul\":1414:1446   */\n      slt\n        /* \"#utility.yul\":1411:1530   */\n      iszero\n      tag_49\n      jumpi\n        /* \"#utility.yul\":1449:1528   */\n      tag_50\n      tag_27\n      jump\t// in\n    tag_50:\n        /* \"#utility.yul\":1411:1530   */\n    tag_49:\n        /* \"#utility.yul\":1569:1570   */\n      0x00\n        /* \"#utility.yul\":1594:1658   */\n      tag_51\n        /* \"#utility.yul\":1650:1657   */\n      dup6\n        /* \"#utility.yul\":1641:1647   */\n      dup3\n        /* \"#utility.yul\":1630:1639   */\n      dup7\n        /* \"#utility.yul\":1626:1648   */\n      add\n        /* \"#utility.yul\":1594:1658   */\n      tag_30\n      jump\t// in\n    tag_51:\n        /* \"#utility.yul\":1584:1658   */\n      swap3\n      pop\n        /* \"#utility.yul\":1540:1668   */\n      pop\n        /* \"#utility.yul\":1707:1709   */\n      0x20\n        /* \"#utility.yul\":1733:1797   */\n      tag_52\n        /* \"#utility.yul\":1789:1796   */\n      dup6\n        /* \"#utility.yul\":1780:1786   */\n      dup3\n        /* \"#utility.yul\":1769:1778   */\n      dup7\n        /* \"#utility.yul\":1765:1787   */\n      add\n        /* \"#utility.yul\":1733:1797   */\n      tag_30\n      jump\t// in\n    tag_52:\n        /* \"#utility.yul\":1723:1797   */\n      swap2\n      pop\n        /* \"#utility.yul\":1678:1807   */\n      pop\n        /* \"#utility.yul\":1307:1814   */\n      swap3\n      pop\n      swap3\n      swap1\n      pop\n      jump\t// out\n\n    auxdata: 0xa2646970667358221220ad583d7ff81a376bc0ad5db31782b4be57f1aa13b39a3c15b431145ee2f7acff64736f6c634300081e0033\n}\n",
				"bytecode": {
					"linkReferences": {},
					"object": "6080604052348015600e575f5ffd5b506102368061001c5f395ff3fe608060405234801561000f575f5ffd5b506004361061003f575f3560e01c806314876f0214610043578063bd6f958414610062578063e09b290c14610081575b5f5ffd5b61004b6100a0565b60405161005992919061016d565b60405180910390f35b61006a6100ac565b60405161007892919061016d565b60405180910390f35b6100896100b8565b60405161009792919061016d565b60405180910390f35b5f5f3332915091509091565b5f5f3332915091509091565b5f5f3073ffffffffffffffffffffffffffffffffffffffff166314876f026040518163ffffffff1660e01b81526004016040805180830381865afa158015610102573d5f5f3e3d5ffd5b505050506040513d601f19601f8201168201806040525081019061012691906101c2565b915091509091565b5f73ffffffffffffffffffffffffffffffffffffffff82169050919050565b5f6101578261012e565b9050919050565b6101678161014d565b82525050565b5f6040820190506101805f83018561015e565b61018d602083018461015e565b9392505050565b5f5ffd5b6101a18161014d565b81146101ab575f5ffd5b50565b5f815190506101bc81610198565b92915050565b5f5f604083850312156101d8576101d7610194565b5b5f6101e5858286016101ae565b92505060206101f6858286016101ae565b915050925092905056fea2646970667358221220ad583d7ff81a376bc0ad5db31782b4be57f1aa13b39a3c15b431145ee2f7acff64736f6c634300081e0033",
					"opcodes": "PUSH1 0x80 PUSH1 0x40 MSTORE CALLVALUE DUP1 ISZERO PUSH1 0xE JUMPI PUSH0 PUSH0 REVERT JUMPDEST POP PUSH2 0x236 DUP1 PUSH2 0x1C PUSH0 CODECOPY PUSH0 RETURN INVALID PUSH1 0x80 PUSH1 0x40 MSTORE CALLVALUE DUP1 ISZERO PUSH2 0xF JUMPI PUSH0 PUSH0 REVERT JUMPDEST POP PUSH1 0x4 CALLDATASIZE LT PUSH2 0x3F JUMPI PUSH0 CALLDATALOAD PUSH1 0xE0 SHR DUP1 PUSH4 0x14876F02 EQ PUSH2 0x43 JUMPI DUP1 PUSH4 0xBD6F9584 EQ PUSH2 0x62 JUMPI DUP1 PUSH4 0xE09B290C EQ PUSH2 0x81 JUMPI JUMPDEST PUSH0 PUSH0 REVERT JUMPDEST PUSH2 0x4B PUSH2 0xA0 JUMP JUMPDEST PUSH1 0x40 MLOAD PUSH2 0x59 SWAP3 SWAP2 SWAP1 PUSH2 0x16D JUMP JUMPDEST PUSH1 0x40 MLOAD DUP1 SWAP2 SUB SWAP1 RETURN JUMPDEST PUSH2 0x6A PUSH2 0xAC JUMP JUMPDEST PUSH1 0x40 MLOAD PUSH2 0x78 SWAP3 SWAP2 SWAP1 PUSH2 0x16D JUMP JUMPDEST PUSH1 0x40 MLOAD DUP1 SWAP2 SUB SWAP1 RETURN JUMPDEST PUSH2 0x89 PUSH2 0xB8 JUMP JUMPDEST PUSH1 0x40 MLOAD PUSH2 0x97 SWAP3 SWAP2 SWAP1 PUSH2 0x16D JUMP JUMPDEST PUSH1 0x40 MLOAD DUP1 SWAP2 SUB SWAP1 RETURN JUMPDEST PUSH0 PUSH0 CALLER ORIGIN SWAP2 POP SWAP2 POP SWAP1 SWAP2 JUMP JUMPDEST PUSH0 PUSH0 CALLER ORIGIN SWAP2 POP SWAP2 POP SWAP1 SWAP2 JUMP JUMPDEST PUSH0 PUSH0 ADDRESS PUSH20 0xFFFFFFFFFFFFFFFFFFFFFFFFFFFFFFFFFFFFFFFF AND PUSH4 0x14876F02 PUSH1 0x40 MLOAD DUP2 PUSH4 0xFFFFFFFF AND PUSH1 0xE0 SHL DUP2 MSTORE PUSH1 0x4 ADD PUSH1 0x40 DUP1 MLOAD DUP1 DUP4 SUB DUP2 DUP7 GAS STATICCALL ISZERO DUP1 ISZERO PUSH2 0x102 JUMPI RETURNDATASIZE PUSH0 PUSH0 RETURNDATACOPY RETURNDATASIZE PUSH0 REVERT JUMPDEST POP POP POP POP PUSH1 0x40 MLOAD RETURNDATASIZE PUSH1 0x1F NOT PUSH1 0x1F DUP3 ADD AND DUP3 ADD DUP1 PUSH1 0x40 MSTORE POP DUP2 ADD SWAP1 PUSH2 0x126 SWAP2 SWAP1 PUSH2 0x1C2 JUMP JUMPDEST SWAP2 POP SWAP2 POP SWAP1 SWAP2 JUMP JUMPDEST PUSH0 PUSH20 0xFFFFFFFFFFFFFFFFFFFFFFFFFFFFFFFFFFFFFFFF DUP3 AND SWAP1 POP SWAP2 SWAP1 POP JUMP JUMPDEST PUSH0 PUSH2 0x157 DUP3 PUSH2 0x12E JUMP JUMPDEST SWAP1 POP SWAP2 SWAP1 POP JUMP JUMPDEST PUSH2 0x167 DUP2 PUSH2 0x14D JUMP JUMPDEST DUP3 MSTORE POP POP JUMP JUMPDEST PUSH0 PUSH1 0x40 DUP3 ADD SWAP1 POP PUSH2 0x180 PUSH0 DUP4 ADD DUP6 PUSH2 0x15E JUMP JUMPDEST PUSH2 0x18D PUSH1 0x20 DUP4 ADD DUP5 PUSH2 0x15E JUMP JUMPDEST SWAP4 SWAP3 POP POP POP JUMP JUMPDEST PUSH0 PUSH0 REVERT JUMPDEST PUSH2 0x1A1 DUP2 PUSH2 0x14D JUMP JUMPDEST DUP2 EQ PUSH2 0x1AB JUMPI PUSH0 PUSH0 REVERT JUMPDEST POP JUMP JUMPDEST PUSH0 DUP2 MLOAD SWAP1 POP PUSH2 0x1BC DUP2 PUSH2 0x198 JUMP JUMPDEST SWAP3 SWAP2 POP POP JUMP JUMPDEST PUSH0 PUSH0 PUSH1 0x40 DUP4 DUP6 SUB SLT ISZERO PUSH2 0x1D8 JUMPI PUSH2 0x1D7 PUSH2 0x194 JUMP JUMPDEST JUMPDEST PUSH0 PUSH2 0x1E5 DUP6 DUP3 DUP7 ADD PUSH2 0x1AE JUMP JUMPDEST SWAP3 POP POP PUSH1 0x20 PUSH2 0x1F6 DUP6 DUP3 DUP7 ADD PUSH2 0x1AE JUMP JUMPDEST SWAP2 POP POP SWAP3 POP SWAP3 SWAP1 POP JUMP INVALID LOG2 PUSH5 0x6970667358 0x22 SLT KECCAK256 0xAD PC RETURNDATASIZE PUSH32 0xF81A376BC0AD5DB31782B4BE57F1AA13B39A3C15B431145EE2F7ACFF64736F6C PUSH4 0x4300081E STOP CALLER "
				},
				"gasEstimates": {
					"creation": {
						"codeDepositCost": "113200",
						"executionCost": "157",
						"totalCost": "113357"
					},
					"external": {
						"InvoocarExterna()": "infinite",
						"funcaoExterna()": "infinite",
						"retornarEndereco()": "infinite"
					}
				},
				"methodIdentifiers": {
					"InvoocarExterna()": "e09b290c",
					"funcaoExterna()": "14876f02",
					"retornarEndereco()": "bd6f9584"
				}
			},
			"storageLayout": {
				"storage": [],
				"types": null
			},
			"userdoc": {
				"kind": "user",
				"methods": {},
				"version": 1
			}
		}
	}
}