{
	"Introdução ao Solidity/Aprenda Solidity/While.sol": {
		"While": {
			"abi": [
				{
					"inputs": [],
					"name": "repetir",
					"outputs": [
						{
							"internalType": "uint256",
							"name": "",
							"type": "uint256"
						}
					],
					"stateMutability": "pure",
					"type": "function"
				},
				{
					"inputs": [],
					"name": "repetirBreak",
					"outputs": [
						{
							"internalType": "uint256",
							"name": "",
							"type": "uint256"
						},
						{
							"internalType": "uint256",
							"name": "",
							"type": "uint256"
						}
					],
					"stateMutability": "pure",
					"type": "function"
				},
				{
					"inputs": [],
					"name": "repetirContinue",
					"outputs": [
						{
							"internalType": "uint256",
							"name": "",
							"type": "uint256"
						},
						{
							"internalType": "uint256",
							"name": "",
							"type": "uint256"
						}
					],
					"stateMutability": "pure",
					"type": "function"
				}
			],
			"devdoc": {
				"kind": "dev",
				"methods": {},
				"version": 1
			},
			"evm": {
				"assembly": "    /* \"Introdu\\xc3\\xa7\\xc3\\xa3o ao Solidity/Aprenda Solidity/While.sol\":61:1157  contract While{... */\n  mstore(0x40, 0x80)\n  callvalue\n  dup1\n  iszero\n  tag_1\n  jumpi\n  revert(0x00, 0x00)\ntag_1:\n  pop\n  dataSize(sub_0)\n  dup1\n  dataOffset(sub_0)\n  0x00\n  codecopy\n  0x00\n  return\nstop\n\nsub_0: assembly {\n        /* \"Introdu\\xc3\\xa7\\xc3\\xa3o ao Solidity/Aprenda Solidity/While.sol\":61:1157  contract While{... */\n      mstore(0x40, 0x80)\n      callvalue\n      dup1\n      iszero\n      tag_1\n      jumpi\n      revert(0x00, 0x00)\n    tag_1:\n      pop\n      jumpi(tag_2, lt(calldatasize, 0x04))\n      shr(0xe0, calldataload(0x00))\n      dup1\n      0x0b07fc34\n      eq\n      tag_3\n      jumpi\n      dup1\n      0x16f7396b\n      eq\n      tag_4\n      jumpi\n      dup1\n      0xd2c73a38\n      eq\n      tag_5\n      jumpi\n    tag_2:\n      revert(0x00, 0x00)\n        /* \"Introdu\\xc3\\xa7\\xc3\\xa3o ao Solidity/Aprenda Solidity/While.sol\":335:732  function repetirBreak() public pure returns (uint, uint){... */\n    tag_3:\n      tag_6\n      tag_7\n      jump\t// in\n    tag_6:\n      mload(0x40)\n      tag_8\n      swap3\n      swap2\n      swap1\n      tag_9\n      jump\t// in\n    tag_8:\n      mload(0x40)\n      dup1\n      swap2\n      sub\n      swap1\n      return\n        /* \"Introdu\\xc3\\xa7\\xc3\\xa3o ao Solidity/Aprenda Solidity/While.sol\":84:327  function repetir() public pure returns (uint){... */\n    tag_4:\n      tag_10\n      tag_11\n      jump\t// in\n    tag_10:\n      mload(0x40)\n      tag_12\n      swap2\n      swap1\n      tag_13\n      jump\t// in\n    tag_12:\n      mload(0x40)\n      dup1\n      swap2\n      sub\n      swap1\n      return\n        /* \"Introdu\\xc3\\xa7\\xc3\\xa3o ao Solidity/Aprenda Solidity/While.sol\":740:1154  function repetirContinue() public pure returns (uint, uint){... */\n    tag_5:\n      tag_14\n      tag_15\n      jump\t// in\n    tag_14:\n      mload(0x40)\n      tag_16\n      swap3\n      swap2\n      swap1\n      tag_9\n      jump\t// in\n    tag_16:\n      mload(0x40)\n      dup1\n      swap2\n      sub\n      swap1\n      return\n        /* \"Introdu\\xc3\\xa7\\xc3\\xa3o ao Solidity/Aprenda Solidity/While.sol\":335:732  function repetirBreak() public pure returns (uint, uint){... */\n    tag_7:\n        /* \"Introdu\\xc3\\xa7\\xc3\\xa3o ao Solidity/Aprenda Solidity/While.sol\":380:384  uint */\n      0x00\n        /* \"Introdu\\xc3\\xa7\\xc3\\xa3o ao Solidity/Aprenda Solidity/While.sol\":386:390  uint */\n      0x00\n        /* \"Introdu\\xc3\\xa7\\xc3\\xa3o ao Solidity/Aprenda Solidity/While.sol\":404:413  uint soma */\n      0x00\n        /* \"Introdu\\xc3\\xa7\\xc3\\xa3o ao Solidity/Aprenda Solidity/While.sol\":424:437  uint contagem */\n      0x00\n        /* \"Introdu\\xc3\\xa7\\xc3\\xa3o ao Solidity/Aprenda Solidity/While.sol\":450:691  while (contagem <= 10){... */\n    tag_18:\n        /* \"Introdu\\xc3\\xa7\\xc3\\xa3o ao Solidity/Aprenda Solidity/While.sol\":469:471  10 */\n      0x0a\n        /* \"Introdu\\xc3\\xa7\\xc3\\xa3o ao Solidity/Aprenda Solidity/While.sol\":457:465  contagem */\n      dup2\n        /* \"Introdu\\xc3\\xa7\\xc3\\xa3o ao Solidity/Aprenda Solidity/While.sol\":457:471  contagem <= 10 */\n      gt\n        /* \"Introdu\\xc3\\xa7\\xc3\\xa3o ao Solidity/Aprenda Solidity/While.sol\":450:691  while (contagem <= 10){... */\n      tag_19\n      jumpi\n        /* \"Introdu\\xc3\\xa7\\xc3\\xa3o ao Solidity/Aprenda Solidity/While.sol\":487:497  contagem++ */\n      dup1\n      dup1\n      tag_20\n      swap1\n      tag_21\n      jump\t// in\n    tag_20:\n      swap2\n      pop\n      pop\n        /* \"Introdu\\xc3\\xa7\\xc3\\xa3o ao Solidity/Aprenda Solidity/While.sol\":529:530  5 */\n      0x05\n        /* \"Introdu\\xc3\\xa7\\xc3\\xa3o ao Solidity/Aprenda Solidity/While.sol\":517:525  contagem */\n      dup2\n        /* \"Introdu\\xc3\\xa7\\xc3\\xa3o ao Solidity/Aprenda Solidity/While.sol\":517:530  contagem == 5 */\n      sub\n        /* \"Introdu\\xc3\\xa7\\xc3\\xa3o ao Solidity/Aprenda Solidity/While.sol\":514:659  if(contagem == 5){... */\n      iszero\n        /* \"Introdu\\xc3\\xa7\\xc3\\xa3o ao Solidity/Aprenda Solidity/While.sol\":550:555  break */\n      tag_19\n        /* \"Introdu\\xc3\\xa7\\xc3\\xa3o ao Solidity/Aprenda Solidity/While.sol\":514:659  if(contagem == 5){... */\n      jumpi\n        /* \"Introdu\\xc3\\xa7\\xc3\\xa3o ao Solidity/Aprenda Solidity/While.sol\":673:679  soma++ */\n      dup2\n      dup1\n      tag_23\n      swap1\n      tag_21\n      jump\t// in\n    tag_23:\n      swap3\n      pop\n      pop\n        /* \"Introdu\\xc3\\xa7\\xc3\\xa3o ao Solidity/Aprenda Solidity/While.sol\":450:691  while (contagem <= 10){... */\n      jump(tag_18)\n    tag_19:\n        /* \"Introdu\\xc3\\xa7\\xc3\\xa3o ao Solidity/Aprenda Solidity/While.sol\":709:713  soma */\n      dup2\n        /* \"Introdu\\xc3\\xa7\\xc3\\xa3o ao Solidity/Aprenda Solidity/While.sol\":715:723  contagem */\n      dup2\n        /* \"Introdu\\xc3\\xa7\\xc3\\xa3o ao Solidity/Aprenda Solidity/While.sol\":701:724  return (soma, contagem) */\n      swap4\n      pop\n      swap4\n      pop\n      pop\n      pop\n        /* \"Introdu\\xc3\\xa7\\xc3\\xa3o ao Solidity/Aprenda Solidity/While.sol\":335:732  function repetirBreak() public pure returns (uint, uint){... */\n      swap1\n      swap2\n      jump\t// out\n        /* \"Introdu\\xc3\\xa7\\xc3\\xa3o ao Solidity/Aprenda Solidity/While.sol\":84:327  function repetir() public pure returns (uint){... */\n    tag_11:\n        /* \"Introdu\\xc3\\xa7\\xc3\\xa3o ao Solidity/Aprenda Solidity/While.sol\":124:128  uint */\n      0x00\n        /* \"Introdu\\xc3\\xa7\\xc3\\xa3o ao Solidity/Aprenda Solidity/While.sol\":142:151  uint soma */\n      0x00\n        /* \"Introdu\\xc3\\xa7\\xc3\\xa3o ao Solidity/Aprenda Solidity/While.sol\":162:175  uint contagem */\n      0x00\n        /* \"Introdu\\xc3\\xa7\\xc3\\xa3o ao Solidity/Aprenda Solidity/While.sol\":188:298  while (contagem <= 10){... */\n    tag_25:\n        /* \"Introdu\\xc3\\xa7\\xc3\\xa3o ao Solidity/Aprenda Solidity/While.sol\":207:209  10 */\n      0x0a\n        /* \"Introdu\\xc3\\xa7\\xc3\\xa3o ao Solidity/Aprenda Solidity/While.sol\":195:203  contagem */\n      dup2\n        /* \"Introdu\\xc3\\xa7\\xc3\\xa3o ao Solidity/Aprenda Solidity/While.sol\":195:209  contagem <= 10 */\n      gt\n        /* \"Introdu\\xc3\\xa7\\xc3\\xa3o ao Solidity/Aprenda Solidity/While.sol\":188:298  while (contagem <= 10){... */\n      tag_26\n      jumpi\n        /* \"Introdu\\xc3\\xa7\\xc3\\xa3o ao Solidity/Aprenda Solidity/While.sol\":239:249  contagem++ */\n      dup1\n      dup1\n      tag_27\n      swap1\n      tag_21\n      jump\t// in\n    tag_27:\n      swap2\n      pop\n      pop\n        /* \"Introdu\\xc3\\xa7\\xc3\\xa3o ao Solidity/Aprenda Solidity/While.sol\":282:286  soma */\n      dup2\n        /* \"Introdu\\xc3\\xa7\\xc3\\xa3o ao Solidity/Aprenda Solidity/While.sol\":271:279  contagem */\n      dup2\n        /* \"Introdu\\xc3\\xa7\\xc3\\xa3o ao Solidity/Aprenda Solidity/While.sol\":271:286  contagem + soma */\n      tag_28\n      swap2\n      swap1\n      tag_29\n      jump\t// in\n    tag_28:\n        /* \"Introdu\\xc3\\xa7\\xc3\\xa3o ao Solidity/Aprenda Solidity/While.sol\":264:286  soma = contagem + soma */\n      swap2\n      pop\n        /* \"Introdu\\xc3\\xa7\\xc3\\xa3o ao Solidity/Aprenda Solidity/While.sol\":188:298  while (contagem <= 10){... */\n      jump(tag_25)\n    tag_26:\n        /* \"Introdu\\xc3\\xa7\\xc3\\xa3o ao Solidity/Aprenda Solidity/While.sol\":315:319  soma */\n      dup2\n        /* \"Introdu\\xc3\\xa7\\xc3\\xa3o ao Solidity/Aprenda Solidity/While.sol\":308:319  return soma */\n      swap3\n      pop\n      pop\n      pop\n        /* \"Introdu\\xc3\\xa7\\xc3\\xa3o ao Solidity/Aprenda Solidity/While.sol\":84:327  function repetir() public pure returns (uint){... */\n      swap1\n      jump\t// out\n        /* \"Introdu\\xc3\\xa7\\xc3\\xa3o ao Solidity/Aprenda Solidity/While.sol\":740:1154  function repetirContinue() public pure returns (uint, uint){... */\n    tag_15:\n        /* \"Introdu\\xc3\\xa7\\xc3\\xa3o ao Solidity/Aprenda Solidity/While.sol\":788:792  uint */\n      0x00\n        /* \"Introdu\\xc3\\xa7\\xc3\\xa3o ao Solidity/Aprenda Solidity/While.sol\":794:798  uint */\n      0x00\n        /* \"Introdu\\xc3\\xa7\\xc3\\xa3o ao Solidity/Aprenda Solidity/While.sol\":812:821  uint soma */\n      0x00\n        /* \"Introdu\\xc3\\xa7\\xc3\\xa3o ao Solidity/Aprenda Solidity/While.sol\":832:845  uint contagem */\n      0x00\n        /* \"Introdu\\xc3\\xa7\\xc3\\xa3o ao Solidity/Aprenda Solidity/While.sol\":858:1113  while (contagem <= 10){... */\n    tag_31:\n        /* \"Introdu\\xc3\\xa7\\xc3\\xa3o ao Solidity/Aprenda Solidity/While.sol\":877:879  10 */\n      0x0a\n        /* \"Introdu\\xc3\\xa7\\xc3\\xa3o ao Solidity/Aprenda Solidity/While.sol\":865:873  contagem */\n      dup2\n        /* \"Introdu\\xc3\\xa7\\xc3\\xa3o ao Solidity/Aprenda Solidity/While.sol\":865:879  contagem <= 10 */\n      gt\n        /* \"Introdu\\xc3\\xa7\\xc3\\xa3o ao Solidity/Aprenda Solidity/While.sol\":858:1113  while (contagem <= 10){... */\n      tag_32\n      jumpi\n        /* \"Introdu\\xc3\\xa7\\xc3\\xa3o ao Solidity/Aprenda Solidity/While.sol\":895:905  contagem++ */\n      dup1\n      dup1\n      tag_33\n      swap1\n      tag_21\n      jump\t// in\n    tag_33:\n      swap2\n      pop\n      pop\n        /* \"Introdu\\xc3\\xa7\\xc3\\xa3o ao Solidity/Aprenda Solidity/While.sol\":938:939  5 */\n      0x05\n        /* \"Introdu\\xc3\\xa7\\xc3\\xa3o ao Solidity/Aprenda Solidity/While.sol\":926:934  contagem */\n      dup2\n        /* \"Introdu\\xc3\\xa7\\xc3\\xa3o ao Solidity/Aprenda Solidity/While.sol\":926:939  contagem == 5 */\n      sub\n        /* \"Introdu\\xc3\\xa7\\xc3\\xa3o ao Solidity/Aprenda Solidity/While.sol\":922:1081  if (contagem == 5){... */\n      iszero\n        /* \"Introdu\\xc3\\xa7\\xc3\\xa3o ao Solidity/Aprenda Solidity/While.sol\":959:967  continue */\n      tag_31\n        /* \"Introdu\\xc3\\xa7\\xc3\\xa3o ao Solidity/Aprenda Solidity/While.sol\":922:1081  if (contagem == 5){... */\n      jumpi\n        /* \"Introdu\\xc3\\xa7\\xc3\\xa3o ao Solidity/Aprenda Solidity/While.sol\":1095:1101  soma++ */\n      dup2\n      dup1\n      tag_35\n      swap1\n      tag_21\n      jump\t// in\n    tag_35:\n      swap3\n      pop\n      pop\n        /* \"Introdu\\xc3\\xa7\\xc3\\xa3o ao Solidity/Aprenda Solidity/While.sol\":858:1113  while (contagem <= 10){... */\n      jump(tag_31)\n    tag_32:\n        /* \"Introdu\\xc3\\xa7\\xc3\\xa3o ao Solidity/Aprenda Solidity/While.sol\":1131:1135  soma */\n      dup2\n        /* \"Introdu\\xc3\\xa7\\xc3\\xa3o ao Solidity/Aprenda Solidity/While.sol\":1137:1145  contagem */\n      dup2\n        /* \"Introdu\\xc3\\xa7\\xc3\\xa3o ao Solidity/Aprenda Solidity/While.sol\":1123:1146  return (soma, contagem) */\n      swap4\n      pop\n      swap4\n      pop\n      pop\n      pop\n        /* \"Introdu\\xc3\\xa7\\xc3\\xa3o ao Solidity/Aprenda Solidity/While.sol\":740:1154  function repetirContinue() public pure returns (uint, uint){... */\n      swap1\n      swap2\n      jump\t// out\n        /* \"#utility.yul\":7:84   */\n    tag_36:\n        /* \"#utility.yul\":44:51   */\n      0x00\n        /* \"#utility.yul\":73:78   */\n      dup2\n        /* \"#utility.yul\":62:78   */\n      swap1\n      pop\n        /* \"#utility.yul\":7:84   */\n      swap2\n      swap1\n      pop\n      jump\t// out\n        /* \"#utility.yul\":90:208   */\n    tag_37:\n        /* \"#utility.yul\":177:201   */\n      tag_42\n        /* \"#utility.yul\":195:200   */\n      dup2\n        /* \"#utility.yul\":177:201   */\n      tag_36\n      jump\t// in\n    tag_42:\n        /* \"#utility.yul\":172:175   */\n      dup3\n        /* \"#utility.yul\":165:202   */\n      mstore\n        /* \"#utility.yul\":90:208   */\n      pop\n      pop\n      jump\t// out\n        /* \"#utility.yul\":214:546   */\n    tag_9:\n        /* \"#utility.yul\":335:339   */\n      0x00\n        /* \"#utility.yul\":373:375   */\n      0x40\n        /* \"#utility.yul\":362:371   */\n      dup3\n        /* \"#utility.yul\":358:376   */\n      add\n        /* \"#utility.yul\":350:376   */\n      swap1\n      pop\n        /* \"#utility.yul\":386:457   */\n      tag_44\n        /* \"#utility.yul\":454:455   */\n      0x00\n        /* \"#utility.yul\":443:452   */\n      dup4\n        /* \"#utility.yul\":439:456   */\n      add\n        /* \"#utility.yul\":430:436   */\n      dup6\n        /* \"#utility.yul\":386:457   */\n      tag_37\n      jump\t// in\n    tag_44:\n        /* \"#utility.yul\":467:539   */\n      tag_45\n        /* \"#utility.yul\":535:537   */\n      0x20\n        /* \"#utility.yul\":524:533   */\n      dup4\n        /* \"#utility.yul\":520:538   */\n      add\n        /* \"#utility.yul\":511:517   */\n      dup5\n        /* \"#utility.yul\":467:539   */\n      tag_37\n      jump\t// in\n    tag_45:\n        /* \"#utility.yul\":214:546   */\n      swap4\n      swap3\n      pop\n      pop\n      pop\n      jump\t// out\n        /* \"#utility.yul\":552:774   */\n    tag_13:\n        /* \"#utility.yul\":645:649   */\n      0x00\n        /* \"#utility.yul\":683:685   */\n      0x20\n        /* \"#utility.yul\":672:681   */\n      dup3\n        /* \"#utility.yul\":668:686   */\n      add\n        /* \"#utility.yul\":660:686   */\n      swap1\n      pop\n        /* \"#utility.yul\":696:767   */\n      tag_47\n        /* \"#utility.yul\":764:765   */\n      0x00\n        /* \"#utility.yul\":753:762   */\n      dup4\n        /* \"#utility.yul\":749:766   */\n      add\n        /* \"#utility.yul\":740:746   */\n      dup5\n        /* \"#utility.yul\":696:767   */\n      tag_37\n      jump\t// in\n    tag_47:\n        /* \"#utility.yul\":552:774   */\n      swap3\n      swap2\n      pop\n      pop\n      jump\t// out\n        /* \"#utility.yul\":780:960   */\n    tag_38:\n        /* \"#utility.yul\":828:905   */\n      0x4e487b7100000000000000000000000000000000000000000000000000000000\n        /* \"#utility.yul\":825:826   */\n      0x00\n        /* \"#utility.yul\":818:906   */\n      mstore\n        /* \"#utility.yul\":925:929   */\n      0x11\n        /* \"#utility.yul\":922:923   */\n      0x04\n        /* \"#utility.yul\":915:930   */\n      mstore\n        /* \"#utility.yul\":949:953   */\n      0x24\n        /* \"#utility.yul\":946:947   */\n      0x00\n        /* \"#utility.yul\":939:954   */\n      revert\n        /* \"#utility.yul\":966:1199   */\n    tag_21:\n        /* \"#utility.yul\":1005:1008   */\n      0x00\n        /* \"#utility.yul\":1028:1052   */\n      tag_50\n        /* \"#utility.yul\":1046:1051   */\n      dup3\n        /* \"#utility.yul\":1028:1052   */\n      tag_36\n      jump\t// in\n    tag_50:\n        /* \"#utility.yul\":1019:1052   */\n      swap2\n      pop\n        /* \"#utility.yul\":1074:1140   */\n      0xffffffffffffffffffffffffffffffffffffffffffffffffffffffffffffffff\n        /* \"#utility.yul\":1067:1072   */\n      dup3\n        /* \"#utility.yul\":1064:1141   */\n      sub\n        /* \"#utility.yul\":1061:1164   */\n      tag_51\n      jumpi\n        /* \"#utility.yul\":1144:1162   */\n      tag_52\n      tag_38\n      jump\t// in\n    tag_52:\n        /* \"#utility.yul\":1061:1164   */\n    tag_51:\n        /* \"#utility.yul\":1191:1192   */\n      0x01\n        /* \"#utility.yul\":1184:1189   */\n      dup3\n        /* \"#utility.yul\":1180:1193   */\n      add\n        /* \"#utility.yul\":1173:1193   */\n      swap1\n      pop\n        /* \"#utility.yul\":966:1199   */\n      swap2\n      swap1\n      pop\n      jump\t// out\n        /* \"#utility.yul\":1205:1396   */\n    tag_29:\n        /* \"#utility.yul\":1245:1248   */\n      0x00\n        /* \"#utility.yul\":1264:1284   */\n      tag_54\n        /* \"#utility.yul\":1282:1283   */\n      dup3\n        /* \"#utility.yul\":1264:1284   */\n      tag_36\n      jump\t// in\n    tag_54:\n        /* \"#utility.yul\":1259:1284   */\n      swap2\n      pop\n        /* \"#utility.yul\":1298:1318   */\n      tag_55\n        /* \"#utility.yul\":1316:1317   */\n      dup4\n        /* \"#utility.yul\":1298:1318   */\n      tag_36\n      jump\t// in\n    tag_55:\n        /* \"#utility.yul\":1293:1318   */\n      swap3\n      pop\n        /* \"#utility.yul\":1341:1342   */\n      dup3\n        /* \"#utility.yul\":1338:1339   */\n      dup3\n        /* \"#utility.yul\":1334:1343   */\n      add\n        /* \"#utility.yul\":1327:1343   */\n      swap1\n      pop\n        /* \"#utility.yul\":1362:1365   */\n      dup1\n        /* \"#utility.yul\":1359:1360   */\n      dup3\n        /* \"#utility.yul\":1356:1366   */\n      gt\n        /* \"#utility.yul\":1353:1389   */\n      iszero\n      tag_56\n      jumpi\n        /* \"#utility.yul\":1369:1387   */\n      tag_57\n      tag_38\n      jump\t// in\n    tag_57:\n        /* \"#utility.yul\":1353:1389   */\n    tag_56:\n        /* \"#utility.yul\":1205:1396   */\n      swap3\n      swap2\n      pop\n      pop\n      jump\t// out\n\n    auxdata: 0xa264697066735822122056309da3a08929159c08e9ade0121a547847e4df3aa9dc350eb764a8bf1091c564736f6c634300081e0033\n}\n",
				"bytecode": {
					"linkReferences": {},
					"object": "6080604052348015600e575f5ffd5b5061028f8061001c5f395ff3fe608060405234801561000f575f5ffd5b506004361061003f575f3560e01c80630b07fc341461004357806316f7396b14610062578063d2c73a3814610080575b5f5ffd5b61004b61009f565b604051610059929190610172565b60405180910390f35b61006a6100e2565b6040516100779190610199565b60405180910390f35b610088610117565b604051610096929190610172565b60405180910390f35b5f5f5f5f5b600a81116100d65780806100b7906101df565b91505060058103156100d65781806100ce906101df565b9250506100a4565b81819350935050509091565b5f5f5f5b600a811161010f5780806100f9906101df565b91505081816101089190610226565b91506100e6565b819250505090565b5f5f5f5f5b600a811161014e57808061012f906101df565b915050600581031561011c578180610146906101df565b92505061011c565b81819350935050509091565b5f819050919050565b61016c8161015a565b82525050565b5f6040820190506101855f830185610163565b6101926020830184610163565b9392505050565b5f6020820190506101ac5f830184610163565b92915050565b7f4e487b71000000000000000000000000000000000000000000000000000000005f52601160045260245ffd5b5f6101e98261015a565b91507fffffffffffffffffffffffffffffffffffffffffffffffffffffffffffffffff820361021b5761021a6101b2565b5b600182019050919050565b5f6102308261015a565b915061023b8361015a565b9250828201905080821115610253576102526101b2565b5b9291505056fea264697066735822122056309da3a08929159c08e9ade0121a547847e4df3aa9dc350eb764a8bf1091c564736f6c634300081e0033",
					"opcodes": "PUSH1 0x80 PUSH1 0x40 MSTORE CALLVALUE DUP1 ISZERO PUSH1 0xE JUMPI PUSH0 PUSH0 REVERT JUMPDEST POP PUSH2 0x28F DUP1 PUSH2 0x1C PUSH0 CODECOPY PUSH0 RETURN INVALID PUSH1 0x80 PUSH1 0x40 MSTORE CALLVALUE DUP1 ISZERO PUSH2 0xF JUMPI PUSH0 PUSH0 REVERT JUMPDEST POP PUSH1 0x4 CALLDATASIZE LT PUSH2 0x3F JUMPI PUSH0 CALLDATALOAD PUSH1 0xE0 SHR DUP1 PUSH4 0xB07FC34 EQ PUSH2 0x43 JUMPI DUP1 PUSH4 0x16F7396B EQ PUSH2 0x62 JUMPI DUP1 PUSH4 0xD2C73A38 EQ PUSH2 0x80 JUMPI JUMPDEST PUSH0 PUSH0 REVERT JUMPDEST PUSH2 0x4B PUSH2 0x9F JUMP JUMPDEST PUSH1 0x40 MLOAD PUSH2 0x59 SWAP3 SWAP2 SWAP1 PUSH2 0x172 JUMP JUMPDEST PUSH1 0x40 MLOAD DUP1 SWAP2 SUB SWAP1 RETURN JUMPDEST PUSH2 0x6A PUSH2 0xE2 JUMP JUMPDEST PUSH1 0x40 MLOAD PUSH2 0x77 SWAP2 SWAP1 PUSH2 0x199 JUMP JUMPDEST PUSH1 0x40 MLOAD DUP1 SWAP2 SUB SWAP1 RETURN JUMPDEST PUSH2 0x88 PUSH2 0x117 JUMP JUMPDEST PUSH1 0x40 MLOAD PUSH2 0x96 SWAP3 SWAP2 SWAP1 PUSH2 0x172 JUMP JUMPDEST PUSH1 0x40 MLOAD DUP1 SWAP2 SUB SWAP1 RETURN JUMPDEST PUSH0 PUSH0 PUSH0 PUSH0 JUMPDEST PUSH1 0xA DUP2 GT PUSH2 0xD6 JUMPI DUP1 DUP1 PUSH2 0xB7 SWAP1 PUSH2 0x1DF JUMP JUMPDEST SWAP2 POP POP PUSH1 0x5 DUP2 SUB ISZERO PUSH2 0xD6 JUMPI DUP2 DUP1 PUSH2 0xCE SWAP1 PUSH2 0x1DF JUMP JUMPDEST SWAP3 POP POP PUSH2 0xA4 JUMP JUMPDEST DUP2 DUP2 SWAP4 POP SWAP4 POP POP POP SWAP1 SWAP2 JUMP JUMPDEST PUSH0 PUSH0 PUSH0 JUMPDEST PUSH1 0xA DUP2 GT PUSH2 0x10F JUMPI DUP1 DUP1 PUSH2 0xF9 SWAP1 PUSH2 0x1DF JUMP JUMPDEST SWAP2 POP POP DUP2 DUP2 PUSH2 0x108 SWAP2 SWAP1 PUSH2 0x226 JUMP JUMPDEST SWAP2 POP PUSH2 0xE6 JUMP JUMPDEST DUP2 SWAP3 POP POP POP SWAP1 JUMP JUMPDEST PUSH0 PUSH0 PUSH0 PUSH0 JUMPDEST PUSH1 0xA DUP2 GT PUSH2 0x14E JUMPI DUP1 DUP1 PUSH2 0x12F SWAP1 PUSH2 0x1DF JUMP JUMPDEST SWAP2 POP POP PUSH1 0x5 DUP2 SUB ISZERO PUSH2 0x11C JUMPI DUP2 DUP1 PUSH2 0x146 SWAP1 PUSH2 0x1DF JUMP JUMPDEST SWAP3 POP POP PUSH2 0x11C JUMP JUMPDEST DUP2 DUP2 SWAP4 POP SWAP4 POP POP POP SWAP1 SWAP2 JUMP JUMPDEST PUSH0 DUP2 SWAP1 POP SWAP2 SWAP1 POP JUMP JUMPDEST PUSH2 0x16C DUP2 PUSH2 0x15A JUMP JUMPDEST DUP3 MSTORE POP POP JUMP JUMPDEST PUSH0 PUSH1 0x40 DUP3 ADD SWAP1 POP PUSH2 0x185 PUSH0 DUP4 ADD DUP6 PUSH2 0x163 JUMP JUMPDEST PUSH2 0x192 PUSH1 0x20 DUP4 ADD DUP5 PUSH2 0x163 JUMP JUMPDEST SWAP4 SWAP3 POP POP POP JUMP JUMPDEST PUSH0 PUSH1 0x20 DUP3 ADD SWAP1 POP PUSH2 0x1AC PUSH0 DUP4 ADD DUP5 PUSH2 0x163 JUMP JUMPDEST SWAP3 SWAP2 POP POP JUMP JUMPDEST PUSH32 0x4E487B7100000000000000000000000000000000000000000000000000000000 PUSH0 MSTORE PUSH1 0x11 PUSH1 0x4 MSTORE PUSH1 0x24 PUSH0 REVERT JUMPDEST PUSH0 PUSH2 0x1E9 DUP3 PUSH2 0x15A JUMP JUMPDEST SWAP2 POP PUSH32 0xFFFFFFFFFFFFFFFFFFFFFFFFFFFFFFFFFFFFFFFFFFFFFFFFFFFFFFFFFFFFFFFF DUP3 SUB PUSH2 0x21B JUMPI PUSH2 0x21A PUSH2 0x1B2 JUMP JUMPDEST JUMPDEST PUSH1 0x1 DUP3 ADD SWAP1 POP SWAP2 SWAP1 POP JUMP JUMPDEST PUSH0 PUSH2 0x230 DUP3 PUSH2 0x15A JUMP JUMPDEST SWAP2 POP PUSH2 0x23B DUP4 PUSH2 0x15A JUMP JUMPDEST SWAP3 POP DUP3 DUP3 ADD SWAP1 POP DUP1 DUP3 GT ISZERO PUSH2 0x253 JUMPI PUSH2 0x252 PUSH2 0x1B2 JUMP JUMPDEST JUMPDEST SWAP3 SWAP2 POP POP JUMP INVALID LOG2 PUSH5 0x6970667358 0x22 SLT KECCAK256 JUMP ADDRESS SWAP14 LOG3 LOG0 DUP10 0x29 ISZERO SWAP13 ADDMOD 0xE9 0xAD RJUMP 0x121A SLOAD PUSH25 0x47E4DF3AA9DC350EB764A8BF1091C564736F6C634300081E00 CALLER "
				},
				"gasEstimates": {
					"creation": {
						"codeDepositCost": "131000",
						"executionCost": "175",
						"totalCost": "131175"
					},
					"external": {
						"repetir()": "infinite",
						"repetirBreak()": "infinite",
						"repetirContinue()": "infinite"
					}
				},
				"methodIdentifiers": {
					"repetir()": "16f7396b",
					"repetirBreak()": "0b07fc34",
					"repetirContinue()": "d2c73a38"
				}
			},
			"storageLayout": {
				"storage": [],
				"types": null
			},
			"userdoc": {
				"kind": "user",
				"methods": {},
				"version": 1
			}
		}
	}
}