{
	"Introdução ao Solidity/Aprenda Solidity/Delegatecall.sol": {
		"chamador": {
			"abi": [
				{
					"inputs": [],
					"name": "ValordoSlote",
					"outputs": [
						{
							"internalType": "uint256",
							"name": "",
							"type": "uint256"
						}
					],
					"stateMutability": "view",
					"type": "function"
				},
				{
					"inputs": [
						{
							"internalType": "uint256",
							"name": "_valor",
							"type": "uint256"
						}
					],
					"name": "callgetValor",
					"outputs": [
						{
							"internalType": "bool",
							"name": "",
							"type": "bool"
						},
						{
							"internalType": "bytes",
							"name": "",
							"type": "bytes"
						}
					],
					"stateMutability": "nonpayable",
					"type": "function"
				},
				{
					"inputs": [],
					"name": "callsetValor",
					"outputs": [
						{
							"internalType": "bool",
							"name": "",
							"type": "bool"
						},
						{
							"internalType": "bytes",
							"name": "",
							"type": "bytes"
						}
					],
					"stateMutability": "nonpayable",
					"type": "function"
				},
				{
					"inputs": [],
					"name": "endereco",
					"outputs": [
						{
							"internalType": "address",
							"name": "",
							"type": "address"
						}
					],
					"stateMutability": "view",
					"type": "function"
				},
				{
					"inputs": [],
					"name": "valorLocal",
					"outputs": [
						{
							"internalType": "uint256",
							"name": "",
							"type": "uint256"
						}
					],
					"stateMutability": "view",
					"type": "function"
				}
			],
			"devdoc": {
				"kind": "dev",
				"methods": {},
				"version": 1
			},
			"evm": {
				"assembly": "    /* \"Introdu\\xc3\\xa7\\xc3\\xa3o ao Solidity/Aprenda Solidity/Delegatecall.sol\":317:1024  contract chamador{... */\n  mstore(0x40, 0x80)\n    /* \"Introdu\\xc3\\xa7\\xc3\\xa3o ao Solidity/Aprenda Solidity/Delegatecall.sol\":366:367  2 */\n  0x02\n    /* \"Introdu\\xc3\\xa7\\xc3\\xa3o ao Solidity/Aprenda Solidity/Delegatecall.sol\":341:367  uint public valorLocal = 2 */\n  0x00\n  sstore\n    /* \"Introdu\\xc3\\xa7\\xc3\\xa3o ao Solidity/Aprenda Solidity/Delegatecall.sol\":442:484  0x43D218197E8c5FBC0527769821503660861c7045 */\n  0x43d218197e8c5fbc0527769821503660861c7045\n    /* \"Introdu\\xc3\\xa7\\xc3\\xa3o ao Solidity/Aprenda Solidity/Delegatecall.sol\":416:484  address public endereco = 0x43D218197E8c5FBC0527769821503660861c7045 */\n  0x01\n  exp(0x0100, 0x00)\n  dup2\n  sload\n  dup2\n  0xffffffffffffffffffffffffffffffffffffffff\n  mul\n  not\n  and\n  swap1\n  dup4\n  0xffffffffffffffffffffffffffffffffffffffff\n  and\n  mul\n  or\n  swap1\n  sstore\n  pop\n    /* \"Introdu\\xc3\\xa7\\xc3\\xa3o ao Solidity/Aprenda Solidity/Delegatecall.sol\":518:519  3 */\n  0x03\n    /* \"Introdu\\xc3\\xa7\\xc3\\xa3o ao Solidity/Aprenda Solidity/Delegatecall.sol\":491:519  uint public ValordoSlote = 3 */\n  0x02\n  sstore\n    /* \"Introdu\\xc3\\xa7\\xc3\\xa3o ao Solidity/Aprenda Solidity/Delegatecall.sol\":317:1024  contract chamador{... */\n  callvalue\n  dup1\n  iszero\n  tag_1\n  jumpi\n  revert(0x00, 0x00)\ntag_1:\n  pop\n  dataSize(sub_0)\n  dup1\n  dataOffset(sub_0)\n  0x00\n  codecopy\n  0x00\n  return\nstop\n\nsub_0: assembly {\n        /* \"Introdu\\xc3\\xa7\\xc3\\xa3o ao Solidity/Aprenda Solidity/Delegatecall.sol\":317:1024  contract chamador{... */\n      mstore(0x40, 0x80)\n      callvalue\n      dup1\n      iszero\n      tag_1\n      jumpi\n      revert(0x00, 0x00)\n    tag_1:\n      pop\n      jumpi(tag_2, lt(calldatasize, 0x04))\n      shr(0xe0, calldataload(0x00))\n      dup1\n      0x5f85a718\n      eq\n      tag_3\n      jumpi\n      dup1\n      0x7ebd2f7a\n      eq\n      tag_4\n      jumpi\n      dup1\n      0xd264c1b6\n      eq\n      tag_5\n      jumpi\n      dup1\n      0xf38b2743\n      eq\n      tag_6\n      jumpi\n      dup1\n      0xf8d43339\n      eq\n      tag_7\n      jumpi\n    tag_2:\n      revert(0x00, 0x00)\n        /* \"Introdu\\xc3\\xa7\\xc3\\xa3o ao Solidity/Aprenda Solidity/Delegatecall.sol\":763:1022  function callgetValor(/*address endereco,*/ uint _valor) public returns (bool, bytes memory){... */\n    tag_3:\n      tag_8\n      0x04\n      dup1\n      calldatasize\n      sub\n      dup2\n      add\n      swap1\n      tag_9\n      swap2\n      swap1\n      tag_10\n      jump\t// in\n    tag_9:\n      tag_11\n      jump\t// in\n    tag_8:\n      mload(0x40)\n      tag_12\n      swap3\n      swap2\n      swap1\n      tag_13\n      jump\t// in\n    tag_12:\n      mload(0x40)\n      dup1\n      swap2\n      sub\n      swap1\n      return\n        /* \"Introdu\\xc3\\xa7\\xc3\\xa3o ao Solidity/Aprenda Solidity/Delegatecall.sol\":526:757  function callsetValor(/*address endereco*/) public returns (bool, bytes memory){... */\n    tag_4:\n      tag_14\n      tag_15\n      jump\t// in\n    tag_14:\n      mload(0x40)\n      tag_16\n      swap3\n      swap2\n      swap1\n      tag_13\n      jump\t// in\n    tag_16:\n      mload(0x40)\n      dup1\n      swap2\n      sub\n      swap1\n      return\n        /* \"Introdu\\xc3\\xa7\\xc3\\xa3o ao Solidity/Aprenda Solidity/Delegatecall.sol\":491:519  uint public ValordoSlote = 3 */\n    tag_5:\n      tag_17\n      tag_18\n      jump\t// in\n    tag_17:\n      mload(0x40)\n      tag_19\n      swap2\n      swap1\n      tag_20\n      jump\t// in\n    tag_19:\n      mload(0x40)\n      dup1\n      swap2\n      sub\n      swap1\n      return\n        /* \"Introdu\\xc3\\xa7\\xc3\\xa3o ao Solidity/Aprenda Solidity/Delegatecall.sol\":416:484  address public endereco = 0x43D218197E8c5FBC0527769821503660861c7045 */\n    tag_6:\n      tag_21\n      tag_22\n      jump\t// in\n    tag_21:\n      mload(0x40)\n      tag_23\n      swap2\n      swap1\n      tag_24\n      jump\t// in\n    tag_23:\n      mload(0x40)\n      dup1\n      swap2\n      sub\n      swap1\n      return\n        /* \"Introdu\\xc3\\xa7\\xc3\\xa3o ao Solidity/Aprenda Solidity/Delegatecall.sol\":341:367  uint public valorLocal = 2 */\n    tag_7:\n      tag_25\n      tag_26\n      jump\t// in\n    tag_25:\n      mload(0x40)\n      tag_27\n      swap2\n      swap1\n      tag_20\n      jump\t// in\n    tag_27:\n      mload(0x40)\n      dup1\n      swap2\n      sub\n      swap1\n      return\n        /* \"Introdu\\xc3\\xa7\\xc3\\xa3o ao Solidity/Aprenda Solidity/Delegatecall.sol\":763:1022  function callgetValor(/*address endereco,*/ uint _valor) public returns (bool, bytes memory){... */\n    tag_11:\n        /* \"Introdu\\xc3\\xa7\\xc3\\xa3o ao Solidity/Aprenda Solidity/Delegatecall.sol\":836:840  bool */\n      0x00\n        /* \"Introdu\\xc3\\xa7\\xc3\\xa3o ao Solidity/Aprenda Solidity/Delegatecall.sol\":842:854  bytes memory */\n      0x60\n        /* \"Introdu\\xc3\\xa7\\xc3\\xa3o ao Solidity/Aprenda Solidity/Delegatecall.sol\":867:879  bool success */\n      0x00\n        /* \"Introdu\\xc3\\xa7\\xc3\\xa3o ao Solidity/Aprenda Solidity/Delegatecall.sol\":881:901  bytes memory retorno */\n      0x00\n        /* \"Introdu\\xc3\\xa7\\xc3\\xa3o ao Solidity/Aprenda Solidity/Delegatecall.sol\":905:913  endereco */\n      0x01\n      0x00\n      swap1\n      sload\n      swap1\n      0x0100\n      exp\n      swap1\n      div\n      0xffffffffffffffffffffffffffffffffffffffff\n      and\n        /* \"Introdu\\xc3\\xa7\\xc3\\xa3o ao Solidity/Aprenda Solidity/Delegatecall.sol\":905:926  endereco.delegatecall */\n      0xffffffffffffffffffffffffffffffffffffffff\n      and\n        /* \"Introdu\\xc3\\xa7\\xc3\\xa3o ao Solidity/Aprenda Solidity/Delegatecall.sol\":972:978  _valor */\n      dup6\n        /* \"Introdu\\xc3\\xa7\\xc3\\xa3o ao Solidity/Aprenda Solidity/Delegatecall.sol\":927:979  abi.encodeWithSignature(\"getValor(uint256)\", _valor) */\n      add(0x24, mload(0x40))\n      tag_29\n      swap2\n      swap1\n      tag_20\n      jump\t// in\n    tag_29:\n      mload(0x40)\n      0x20\n      dup2\n      dup4\n      sub\n      sub\n      dup2\n      mstore\n      swap1\n      0x40\n      mstore\n      and(not(0xffffffffffffffffffffffffffffffffffffffffffffffffffffffff), 0x51f8336100000000000000000000000000000000000000000000000000000000)\n      0x20\n      dup3\n      add\n      dup1\n      mload\n      0xffffffffffffffffffffffffffffffffffffffffffffffffffffffff\n      dup4\n      dup2\n      dup4\n      and\n      or\n      dup4\n      mstore\n      pop\n      pop\n      pop\n      pop\n        /* \"Introdu\\xc3\\xa7\\xc3\\xa3o ao Solidity/Aprenda Solidity/Delegatecall.sol\":905:980  endereco.delegatecall(abi.encodeWithSignature(\"getValor(uint256)\", _valor)) */\n      mload(0x40)\n      tag_30\n      swap2\n      swap1\n      tag_31\n      jump\t// in\n    tag_30:\n      0x00\n      mload(0x40)\n      dup1\n      dup4\n      sub\n      dup2\n      dup6\n      gas\n      delegatecall\n      swap2\n      pop\n      pop\n      returndatasize\n      dup1\n      0x00\n      dup2\n      eq\n      tag_34\n      jumpi\n      mload(0x40)\n      swap2\n      pop\n      and(add(returndatasize, 0x3f), not(0x1f))\n      dup3\n      add\n      0x40\n      mstore\n      returndatasize\n      dup3\n      mstore\n      returndatasize\n      0x00\n      0x20\n      dup5\n      add\n      returndatacopy\n      jump(tag_33)\n    tag_34:\n      0x60\n      swap2\n      pop\n    tag_33:\n      pop\n        /* \"Introdu\\xc3\\xa7\\xc3\\xa3o ao Solidity/Aprenda Solidity/Delegatecall.sol\":866:980  (bool success, bytes memory retorno) = endereco.delegatecall(abi.encodeWithSignature(\"getValor(uint256)\", _valor)) */\n      swap2\n      pop\n      swap2\n      pop\n        /* \"Introdu\\xc3\\xa7\\xc3\\xa3o ao Solidity/Aprenda Solidity/Delegatecall.sol\":998:1005  success */\n      dup2\n        /* \"Introdu\\xc3\\xa7\\xc3\\xa3o ao Solidity/Aprenda Solidity/Delegatecall.sol\":1007:1014  retorno */\n      dup2\n        /* \"Introdu\\xc3\\xa7\\xc3\\xa3o ao Solidity/Aprenda Solidity/Delegatecall.sol\":990:1015  return (success, retorno) */\n      swap4\n      pop\n      swap4\n      pop\n      pop\n      pop\n        /* \"Introdu\\xc3\\xa7\\xc3\\xa3o ao Solidity/Aprenda Solidity/Delegatecall.sol\":763:1022  function callgetValor(/*address endereco,*/ uint _valor) public returns (bool, bytes memory){... */\n      swap2\n      pop\n      swap2\n      jump\t// out\n        /* \"Introdu\\xc3\\xa7\\xc3\\xa3o ao Solidity/Aprenda Solidity/Delegatecall.sol\":526:757  function callsetValor(/*address endereco*/) public returns (bool, bytes memory){... */\n    tag_15:\n        /* \"Introdu\\xc3\\xa7\\xc3\\xa3o ao Solidity/Aprenda Solidity/Delegatecall.sol\":586:590  bool */\n      0x00\n        /* \"Introdu\\xc3\\xa7\\xc3\\xa3o ao Solidity/Aprenda Solidity/Delegatecall.sol\":592:604  bytes memory */\n      0x60\n        /* \"Introdu\\xc3\\xa7\\xc3\\xa3o ao Solidity/Aprenda Solidity/Delegatecall.sol\":617:629  bool success */\n      0x00\n        /* \"Introdu\\xc3\\xa7\\xc3\\xa3o ao Solidity/Aprenda Solidity/Delegatecall.sol\":631:651  bytes memory retorno */\n      0x00\n        /* \"Introdu\\xc3\\xa7\\xc3\\xa3o ao Solidity/Aprenda Solidity/Delegatecall.sol\":655:663  endereco */\n      0x01\n      0x00\n      swap1\n      sload\n      swap1\n      0x0100\n      exp\n      swap1\n      div\n      0xffffffffffffffffffffffffffffffffffffffff\n      and\n        /* \"Introdu\\xc3\\xa7\\xc3\\xa3o ao Solidity/Aprenda Solidity/Delegatecall.sol\":655:676  endereco.delegatecall */\n      0xffffffffffffffffffffffffffffffffffffffff\n      and\n        /* \"Introdu\\xc3\\xa7\\xc3\\xa3o ao Solidity/Aprenda Solidity/Delegatecall.sol\":677:714  abi.encodeWithSignature(\"setValor()\") */\n      add(0x24, mload(0x40))\n      mload(0x40)\n      0x20\n      dup2\n      dup4\n      sub\n      sub\n      dup2\n      mstore\n      swap1\n      0x40\n      mstore\n      and(not(0xffffffffffffffffffffffffffffffffffffffffffffffffffffffff), 0x96a0eeeb00000000000000000000000000000000000000000000000000000000)\n      0x20\n      dup3\n      add\n      dup1\n      mload\n      0xffffffffffffffffffffffffffffffffffffffffffffffffffffffff\n      dup4\n      dup2\n      dup4\n      and\n      or\n      dup4\n      mstore\n      pop\n      pop\n      pop\n      pop\n        /* \"Introdu\\xc3\\xa7\\xc3\\xa3o ao Solidity/Aprenda Solidity/Delegatecall.sol\":655:715  endereco.delegatecall(abi.encodeWithSignature(\"setValor()\")) */\n      mload(0x40)\n      tag_36\n      swap2\n      swap1\n      tag_31\n      jump\t// in\n    tag_36:\n      0x00\n      mload(0x40)\n      dup1\n      dup4\n      sub\n      dup2\n      dup6\n      gas\n      delegatecall\n      swap2\n      pop\n      pop\n      returndatasize\n      dup1\n      0x00\n      dup2\n      eq\n      tag_39\n      jumpi\n      mload(0x40)\n      swap2\n      pop\n      and(add(returndatasize, 0x3f), not(0x1f))\n      dup3\n      add\n      0x40\n      mstore\n      returndatasize\n      dup3\n      mstore\n      returndatasize\n      0x00\n      0x20\n      dup5\n      add\n      returndatacopy\n      jump(tag_38)\n    tag_39:\n      0x60\n      swap2\n      pop\n    tag_38:\n      pop\n        /* \"Introdu\\xc3\\xa7\\xc3\\xa3o ao Solidity/Aprenda Solidity/Delegatecall.sol\":616:715  (bool success, bytes memory retorno) = endereco.delegatecall(abi.encodeWithSignature(\"setValor()\")) */\n      swap2\n      pop\n      swap2\n      pop\n        /* \"Introdu\\xc3\\xa7\\xc3\\xa3o ao Solidity/Aprenda Solidity/Delegatecall.sol\":733:740  success */\n      dup2\n        /* \"Introdu\\xc3\\xa7\\xc3\\xa3o ao Solidity/Aprenda Solidity/Delegatecall.sol\":742:749  retorno */\n      dup2\n        /* \"Introdu\\xc3\\xa7\\xc3\\xa3o ao Solidity/Aprenda Solidity/Delegatecall.sol\":725:750  return (success, retorno) */\n      swap4\n      pop\n      swap4\n      pop\n      pop\n      pop\n        /* \"Introdu\\xc3\\xa7\\xc3\\xa3o ao Solidity/Aprenda Solidity/Delegatecall.sol\":526:757  function callsetValor(/*address endereco*/) public returns (bool, bytes memory){... */\n      swap1\n      swap2\n      jump\t// out\n        /* \"Introdu\\xc3\\xa7\\xc3\\xa3o ao Solidity/Aprenda Solidity/Delegatecall.sol\":491:519  uint public ValordoSlote = 3 */\n    tag_18:\n      sload(0x02)\n      dup2\n      jump\t// out\n        /* \"Introdu\\xc3\\xa7\\xc3\\xa3o ao Solidity/Aprenda Solidity/Delegatecall.sol\":416:484  address public endereco = 0x43D218197E8c5FBC0527769821503660861c7045 */\n    tag_22:\n      0x01\n      0x00\n      swap1\n      sload\n      swap1\n      0x0100\n      exp\n      swap1\n      div\n      0xffffffffffffffffffffffffffffffffffffffff\n      and\n      dup2\n      jump\t// out\n        /* \"Introdu\\xc3\\xa7\\xc3\\xa3o ao Solidity/Aprenda Solidity/Delegatecall.sol\":341:367  uint public valorLocal = 2 */\n    tag_26:\n      sload(0x00)\n      dup2\n      jump\t// out\n        /* \"#utility.yul\":88:205   */\n    tag_41:\n        /* \"#utility.yul\":197:198   */\n      0x00\n        /* \"#utility.yul\":194:195   */\n      0x00\n        /* \"#utility.yul\":187:199   */\n      revert\n        /* \"#utility.yul\":334:411   */\n    tag_43:\n        /* \"#utility.yul\":371:378   */\n      0x00\n        /* \"#utility.yul\":400:405   */\n      dup2\n        /* \"#utility.yul\":389:405   */\n      swap1\n      pop\n        /* \"#utility.yul\":334:411   */\n      swap2\n      swap1\n      pop\n      jump\t// out\n        /* \"#utility.yul\":417:539   */\n    tag_44:\n        /* \"#utility.yul\":490:514   */\n      tag_65\n        /* \"#utility.yul\":508:513   */\n      dup2\n        /* \"#utility.yul\":490:514   */\n      tag_43\n      jump\t// in\n    tag_65:\n        /* \"#utility.yul\":483:488   */\n      dup2\n        /* \"#utility.yul\":480:515   */\n      eq\n        /* \"#utility.yul\":470:533   */\n      tag_66\n      jumpi\n        /* \"#utility.yul\":529:530   */\n      0x00\n        /* \"#utility.yul\":526:527   */\n      0x00\n        /* \"#utility.yul\":519:531   */\n      revert\n        /* \"#utility.yul\":470:533   */\n    tag_66:\n        /* \"#utility.yul\":417:539   */\n      pop\n      jump\t// out\n        /* \"#utility.yul\":545:684   */\n    tag_45:\n        /* \"#utility.yul\":591:596   */\n      0x00\n        /* \"#utility.yul\":629:635   */\n      dup2\n        /* \"#utility.yul\":616:636   */\n      calldataload\n        /* \"#utility.yul\":607:636   */\n      swap1\n      pop\n        /* \"#utility.yul\":645:678   */\n      tag_68\n        /* \"#utility.yul\":672:677   */\n      dup2\n        /* \"#utility.yul\":645:678   */\n      tag_44\n      jump\t// in\n    tag_68:\n        /* \"#utility.yul\":545:684   */\n      swap3\n      swap2\n      pop\n      pop\n      jump\t// out\n        /* \"#utility.yul\":690:1019   */\n    tag_10:\n        /* \"#utility.yul\":749:755   */\n      0x00\n        /* \"#utility.yul\":798:800   */\n      0x20\n        /* \"#utility.yul\":786:795   */\n      dup3\n        /* \"#utility.yul\":777:784   */\n      dup5\n        /* \"#utility.yul\":773:796   */\n      sub\n        /* \"#utility.yul\":769:801   */\n      slt\n        /* \"#utility.yul\":766:885   */\n      iszero\n      tag_70\n      jumpi\n        /* \"#utility.yul\":804:883   */\n      tag_71\n      tag_41\n      jump\t// in\n    tag_71:\n        /* \"#utility.yul\":766:885   */\n    tag_70:\n        /* \"#utility.yul\":924:925   */\n      0x00\n        /* \"#utility.yul\":949:1002   */\n      tag_72\n        /* \"#utility.yul\":994:1001   */\n      dup5\n        /* \"#utility.yul\":985:991   */\n      dup3\n        /* \"#utility.yul\":974:983   */\n      dup6\n        /* \"#utility.yul\":970:992   */\n      add\n        /* \"#utility.yul\":949:1002   */\n      tag_45\n      jump\t// in\n    tag_72:\n        /* \"#utility.yul\":939:1002   */\n      swap2\n      pop\n        /* \"#utility.yul\":895:1012   */\n      pop\n        /* \"#utility.yul\":690:1019   */\n      swap3\n      swap2\n      pop\n      pop\n      jump\t// out\n        /* \"#utility.yul\":1025:1115   */\n    tag_46:\n        /* \"#utility.yul\":1059:1066   */\n      0x00\n        /* \"#utility.yul\":1102:1107   */\n      dup2\n        /* \"#utility.yul\":1095:1108   */\n      iszero\n        /* \"#utility.yul\":1088:1109   */\n      iszero\n        /* \"#utility.yul\":1077:1109   */\n      swap1\n      pop\n        /* \"#utility.yul\":1025:1115   */\n      swap2\n      swap1\n      pop\n      jump\t// out\n        /* \"#utility.yul\":1121:1230   */\n    tag_47:\n        /* \"#utility.yul\":1202:1223   */\n      tag_75\n        /* \"#utility.yul\":1217:1222   */\n      dup2\n        /* \"#utility.yul\":1202:1223   */\n      tag_46\n      jump\t// in\n    tag_75:\n        /* \"#utility.yul\":1197:1200   */\n      dup3\n        /* \"#utility.yul\":1190:1224   */\n      mstore\n        /* \"#utility.yul\":1121:1230   */\n      pop\n      pop\n      jump\t// out\n        /* \"#utility.yul\":1236:1334   */\n    tag_48:\n        /* \"#utility.yul\":1287:1293   */\n      0x00\n        /* \"#utility.yul\":1321:1326   */\n      dup2\n        /* \"#utility.yul\":1315:1327   */\n      mload\n        /* \"#utility.yul\":1305:1327   */\n      swap1\n      pop\n        /* \"#utility.yul\":1236:1334   */\n      swap2\n      swap1\n      pop\n      jump\t// out\n        /* \"#utility.yul\":1340:1508   */\n    tag_49:\n        /* \"#utility.yul\":1423:1434   */\n      0x00\n        /* \"#utility.yul\":1457:1463   */\n      dup3\n        /* \"#utility.yul\":1452:1455   */\n      dup3\n        /* \"#utility.yul\":1445:1464   */\n      mstore\n        /* \"#utility.yul\":1497:1501   */\n      0x20\n        /* \"#utility.yul\":1492:1495   */\n      dup3\n        /* \"#utility.yul\":1488:1502   */\n      add\n        /* \"#utility.yul\":1473:1502   */\n      swap1\n      pop\n        /* \"#utility.yul\":1340:1508   */\n      swap3\n      swap2\n      pop\n      pop\n      jump\t// out\n        /* \"#utility.yul\":1514:1653   */\n    tag_50:\n        /* \"#utility.yul\":1603:1609   */\n      dup3\n        /* \"#utility.yul\":1598:1601   */\n      dup2\n        /* \"#utility.yul\":1593:1596   */\n      dup4\n        /* \"#utility.yul\":1587:1610   */\n      mcopy\n        /* \"#utility.yul\":1644:1645   */\n      0x00\n        /* \"#utility.yul\":1635:1641   */\n      dup4\n        /* \"#utility.yul\":1630:1633   */\n      dup4\n        /* \"#utility.yul\":1626:1642   */\n      add\n        /* \"#utility.yul\":1619:1646   */\n      mstore\n        /* \"#utility.yul\":1514:1653   */\n      pop\n      pop\n      pop\n      jump\t// out\n        /* \"#utility.yul\":1659:1761   */\n    tag_51:\n        /* \"#utility.yul\":1700:1706   */\n      0x00\n        /* \"#utility.yul\":1751:1753   */\n      0x1f\n        /* \"#utility.yul\":1747:1754   */\n      not\n        /* \"#utility.yul\":1742:1744   */\n      0x1f\n        /* \"#utility.yul\":1735:1740   */\n      dup4\n        /* \"#utility.yul\":1731:1745   */\n      add\n        /* \"#utility.yul\":1727:1755   */\n      and\n        /* \"#utility.yul\":1717:1755   */\n      swap1\n      pop\n        /* \"#utility.yul\":1659:1761   */\n      swap2\n      swap1\n      pop\n      jump\t// out\n        /* \"#utility.yul\":1767:2140   */\n    tag_52:\n        /* \"#utility.yul\":1853:1856   */\n      0x00\n        /* \"#utility.yul\":1881:1919   */\n      tag_81\n        /* \"#utility.yul\":1913:1918   */\n      dup3\n        /* \"#utility.yul\":1881:1919   */\n      tag_48\n      jump\t// in\n    tag_81:\n        /* \"#utility.yul\":1935:2005   */\n      tag_82\n        /* \"#utility.yul\":1998:2004   */\n      dup2\n        /* \"#utility.yul\":1993:1996   */\n      dup6\n        /* \"#utility.yul\":1935:2005   */\n      tag_49\n      jump\t// in\n    tag_82:\n        /* \"#utility.yul\":1928:2005   */\n      swap4\n      pop\n        /* \"#utility.yul\":2014:2079   */\n      tag_83\n        /* \"#utility.yul\":2072:2078   */\n      dup2\n        /* \"#utility.yul\":2067:2070   */\n      dup6\n        /* \"#utility.yul\":2060:2064   */\n      0x20\n        /* \"#utility.yul\":2053:2058   */\n      dup7\n        /* \"#utility.yul\":2049:2065   */\n      add\n        /* \"#utility.yul\":2014:2079   */\n      tag_50\n      jump\t// in\n    tag_83:\n        /* \"#utility.yul\":2104:2133   */\n      tag_84\n        /* \"#utility.yul\":2126:2132   */\n      dup2\n        /* \"#utility.yul\":2104:2133   */\n      tag_51\n      jump\t// in\n    tag_84:\n        /* \"#utility.yul\":2099:2102   */\n      dup5\n        /* \"#utility.yul\":2095:2134   */\n      add\n        /* \"#utility.yul\":2088:2134   */\n      swap2\n      pop\n        /* \"#utility.yul\":1857:2140   */\n      pop\n        /* \"#utility.yul\":1767:2140   */\n      swap3\n      swap2\n      pop\n      pop\n      jump\t// out\n        /* \"#utility.yul\":2146:2553   */\n    tag_13:\n        /* \"#utility.yul\":2279:2283   */\n      0x00\n        /* \"#utility.yul\":2317:2319   */\n      0x40\n        /* \"#utility.yul\":2306:2315   */\n      dup3\n        /* \"#utility.yul\":2302:2320   */\n      add\n        /* \"#utility.yul\":2294:2320   */\n      swap1\n      pop\n        /* \"#utility.yul\":2330:2395   */\n      tag_86\n        /* \"#utility.yul\":2392:2393   */\n      0x00\n        /* \"#utility.yul\":2381:2390   */\n      dup4\n        /* \"#utility.yul\":2377:2394   */\n      add\n        /* \"#utility.yul\":2368:2374   */\n      dup6\n        /* \"#utility.yul\":2330:2395   */\n      tag_47\n      jump\t// in\n    tag_86:\n        /* \"#utility.yul\":2442:2451   */\n      dup2\n        /* \"#utility.yul\":2436:2440   */\n      dup2\n        /* \"#utility.yul\":2432:2452   */\n      sub\n        /* \"#utility.yul\":2427:2429   */\n      0x20\n        /* \"#utility.yul\":2416:2425   */\n      dup4\n        /* \"#utility.yul\":2412:2430   */\n      add\n        /* \"#utility.yul\":2405:2453   */\n      mstore\n        /* \"#utility.yul\":2470:2546   */\n      tag_87\n        /* \"#utility.yul\":2541:2545   */\n      dup2\n        /* \"#utility.yul\":2532:2538   */\n      dup5\n        /* \"#utility.yul\":2470:2546   */\n      tag_52\n      jump\t// in\n    tag_87:\n        /* \"#utility.yul\":2462:2546   */\n      swap1\n      pop\n        /* \"#utility.yul\":2146:2553   */\n      swap4\n      swap3\n      pop\n      pop\n      pop\n      jump\t// out\n        /* \"#utility.yul\":2559:2677   */\n    tag_53:\n        /* \"#utility.yul\":2646:2670   */\n      tag_89\n        /* \"#utility.yul\":2664:2669   */\n      dup2\n        /* \"#utility.yul\":2646:2670   */\n      tag_43\n      jump\t// in\n    tag_89:\n        /* \"#utility.yul\":2641:2644   */\n      dup3\n        /* \"#utility.yul\":2634:2671   */\n      mstore\n        /* \"#utility.yul\":2559:2677   */\n      pop\n      pop\n      jump\t// out\n        /* \"#utility.yul\":2683:2905   */\n    tag_20:\n        /* \"#utility.yul\":2776:2780   */\n      0x00\n        /* \"#utility.yul\":2814:2816   */\n      0x20\n        /* \"#utility.yul\":2803:2812   */\n      dup3\n        /* \"#utility.yul\":2799:2817   */\n      add\n        /* \"#utility.yul\":2791:2817   */\n      swap1\n      pop\n        /* \"#utility.yul\":2827:2898   */\n      tag_91\n        /* \"#utility.yul\":2895:2896   */\n      0x00\n        /* \"#utility.yul\":2884:2893   */\n      dup4\n        /* \"#utility.yul\":2880:2897   */\n      add\n        /* \"#utility.yul\":2871:2877   */\n      dup5\n        /* \"#utility.yul\":2827:2898   */\n      tag_53\n      jump\t// in\n    tag_91:\n        /* \"#utility.yul\":2683:2905   */\n      swap3\n      swap2\n      pop\n      pop\n      jump\t// out\n        /* \"#utility.yul\":2911:3037   */\n    tag_54:\n        /* \"#utility.yul\":2948:2955   */\n      0x00\n        /* \"#utility.yul\":2988:3030   */\n      0xffffffffffffffffffffffffffffffffffffffff\n        /* \"#utility.yul\":2981:2986   */\n      dup3\n        /* \"#utility.yul\":2977:3031   */\n      and\n        /* \"#utility.yul\":2966:3031   */\n      swap1\n      pop\n        /* \"#utility.yul\":2911:3037   */\n      swap2\n      swap1\n      pop\n      jump\t// out\n        /* \"#utility.yul\":3043:3139   */\n    tag_55:\n        /* \"#utility.yul\":3080:3087   */\n      0x00\n        /* \"#utility.yul\":3109:3133   */\n      tag_94\n        /* \"#utility.yul\":3127:3132   */\n      dup3\n        /* \"#utility.yul\":3109:3133   */\n      tag_54\n      jump\t// in\n    tag_94:\n        /* \"#utility.yul\":3098:3133   */\n      swap1\n      pop\n        /* \"#utility.yul\":3043:3139   */\n      swap2\n      swap1\n      pop\n      jump\t// out\n        /* \"#utility.yul\":3145:3263   */\n    tag_56:\n        /* \"#utility.yul\":3232:3256   */\n      tag_96\n        /* \"#utility.yul\":3250:3255   */\n      dup2\n        /* \"#utility.yul\":3232:3256   */\n      tag_55\n      jump\t// in\n    tag_96:\n        /* \"#utility.yul\":3227:3230   */\n      dup3\n        /* \"#utility.yul\":3220:3257   */\n      mstore\n        /* \"#utility.yul\":3145:3263   */\n      pop\n      pop\n      jump\t// out\n        /* \"#utility.yul\":3269:3491   */\n    tag_24:\n        /* \"#utility.yul\":3362:3366   */\n      0x00\n        /* \"#utility.yul\":3400:3402   */\n      0x20\n        /* \"#utility.yul\":3389:3398   */\n      dup3\n        /* \"#utility.yul\":3385:3403   */\n      add\n        /* \"#utility.yul\":3377:3403   */\n      swap1\n      pop\n        /* \"#utility.yul\":3413:3484   */\n      tag_98\n        /* \"#utility.yul\":3481:3482   */\n      0x00\n        /* \"#utility.yul\":3470:3479   */\n      dup4\n        /* \"#utility.yul\":3466:3483   */\n      add\n        /* \"#utility.yul\":3457:3463   */\n      dup5\n        /* \"#utility.yul\":3413:3484   */\n      tag_56\n      jump\t// in\n    tag_98:\n        /* \"#utility.yul\":3269:3491   */\n      swap3\n      swap2\n      pop\n      pop\n      jump\t// out\n        /* \"#utility.yul\":3497:3644   */\n    tag_57:\n        /* \"#utility.yul\":3598:3609   */\n      0x00\n        /* \"#utility.yul\":3635:3638   */\n      dup2\n        /* \"#utility.yul\":3620:3638   */\n      swap1\n      pop\n        /* \"#utility.yul\":3497:3644   */\n      swap3\n      swap2\n      pop\n      pop\n      jump\t// out\n        /* \"#utility.yul\":3650:4036   */\n    tag_58:\n        /* \"#utility.yul\":3754:3757   */\n      0x00\n        /* \"#utility.yul\":3782:3820   */\n      tag_101\n        /* \"#utility.yul\":3814:3819   */\n      dup3\n        /* \"#utility.yul\":3782:3820   */\n      tag_48\n      jump\t// in\n    tag_101:\n        /* \"#utility.yul\":3836:3924   */\n      tag_102\n        /* \"#utility.yul\":3917:3923   */\n      dup2\n        /* \"#utility.yul\":3912:3915   */\n      dup6\n        /* \"#utility.yul\":3836:3924   */\n      tag_57\n      jump\t// in\n    tag_102:\n        /* \"#utility.yul\":3829:3924   */\n      swap4\n      pop\n        /* \"#utility.yul\":3933:3998   */\n      tag_103\n        /* \"#utility.yul\":3991:3997   */\n      dup2\n        /* \"#utility.yul\":3986:3989   */\n      dup6\n        /* \"#utility.yul\":3979:3983   */\n      0x20\n        /* \"#utility.yul\":3972:3977   */\n      dup7\n        /* \"#utility.yul\":3968:3984   */\n      add\n        /* \"#utility.yul\":3933:3998   */\n      tag_50\n      jump\t// in\n    tag_103:\n        /* \"#utility.yul\":4023:4029   */\n      dup1\n        /* \"#utility.yul\":4018:4021   */\n      dup5\n        /* \"#utility.yul\":4014:4030   */\n      add\n        /* \"#utility.yul\":4007:4030   */\n      swap2\n      pop\n        /* \"#utility.yul\":3758:4036   */\n      pop\n        /* \"#utility.yul\":3650:4036   */\n      swap3\n      swap2\n      pop\n      pop\n      jump\t// out\n        /* \"#utility.yul\":4042:4313   */\n    tag_31:\n        /* \"#utility.yul\":4172:4175   */\n      0x00\n        /* \"#utility.yul\":4194:4287   */\n      tag_105\n        /* \"#utility.yul\":4283:4286   */\n      dup3\n        /* \"#utility.yul\":4274:4280   */\n      dup5\n        /* \"#utility.yul\":4194:4287   */\n      tag_58\n      jump\t// in\n    tag_105:\n        /* \"#utility.yul\":4187:4287   */\n      swap2\n      pop\n        /* \"#utility.yul\":4304:4307   */\n      dup2\n        /* \"#utility.yul\":4297:4307   */\n      swap1\n      pop\n        /* \"#utility.yul\":4042:4313   */\n      swap3\n      swap2\n      pop\n      pop\n      jump\t// out\n\n    auxdata: 0xa26469706673582212202ed7b749bb93471477454b5d878e42e9d19871ad8683b7895ab53d7a146dd49064736f6c634300081e0033\n}\n",
				"bytecode": {
					"linkReferences": {},
					"object": "608060405260025f557343d218197e8c5fbc0527769821503660861c704560015f6101000a81548173ffffffffffffffffffffffffffffffffffffffff021916908373ffffffffffffffffffffffffffffffffffffffff1602179055506003600255348015606b575f5ffd5b50610595806100795f395ff3fe608060405234801561000f575f5ffd5b5060043610610055575f3560e01c80635f85a718146100595780637ebd2f7a1461008a578063d264c1b6146100a9578063f38b2743146100c7578063f8d43339146100e5575b5f5ffd5b610073600480360381019061006e91906103ac565b610103565b604051610081929190610461565b60405180910390f35b61009261022a565b6040516100a0929190610461565b60405180910390f35b6100b1610345565b6040516100be919061049e565b60405180910390f35b6100cf61034b565b6040516100dc91906104f6565b60405180910390f35b6100ed610370565b6040516100fa919061049e565b60405180910390f35b5f60605f5f60015f9054906101000a900473ffffffffffffffffffffffffffffffffffffffff1673ffffffffffffffffffffffffffffffffffffffff1685604051602401610151919061049e565b6040516020818303038152906040527f51f83361000000000000000000000000000000000000000000000000000000007bffffffffffffffffffffffffffffffffffffffffffffffffffffffff19166020820180517bffffffffffffffffffffffffffffffffffffffffffffffffffffffff83818316178352505050506040516101db9190610549565b5f60405180830381855af49150503d805f8114610213576040519150601f19603f3d011682016040523d82523d5f602084013e610218565b606091505b50915091508181935093505050915091565b5f60605f5f60015f9054906101000a900473ffffffffffffffffffffffffffffffffffffffff1673ffffffffffffffffffffffffffffffffffffffff166040516024016040516020818303038152906040527f96a0eeeb000000000000000000000000000000000000000000000000000000007bffffffffffffffffffffffffffffffffffffffffffffffffffffffff19166020820180517bffffffffffffffffffffffffffffffffffffffffffffffffffffffff83818316178352505050506040516102f79190610549565b5f60405180830381855af49150503d805f811461032f576040519150601f19603f3d011682016040523d82523d5f602084013e610334565b606091505b509150915081819350935050509091565b60025481565b60015f9054906101000a900473ffffffffffffffffffffffffffffffffffffffff1681565b5f5481565b5f5ffd5b5f819050919050565b61038b81610379565b8114610395575f5ffd5b50565b5f813590506103a681610382565b92915050565b5f602082840312156103c1576103c0610375565b5b5f6103ce84828501610398565b91505092915050565b5f8115159050919050565b6103eb816103d7565b82525050565b5f81519050919050565b5f82825260208201905092915050565b8281835e5f83830152505050565b5f601f19601f8301169050919050565b5f610433826103f1565b61043d81856103fb565b935061044d81856020860161040b565b61045681610419565b840191505092915050565b5f6040820190506104745f8301856103e2565b81810360208301526104868184610429565b90509392505050565b61049881610379565b82525050565b5f6020820190506104b15f83018461048f565b92915050565b5f73ffffffffffffffffffffffffffffffffffffffff82169050919050565b5f6104e0826104b7565b9050919050565b6104f0816104d6565b82525050565b5f6020820190506105095f8301846104e7565b92915050565b5f81905092915050565b5f610523826103f1565b61052d818561050f565b935061053d81856020860161040b565b80840191505092915050565b5f6105548284610519565b91508190509291505056fea26469706673582212202ed7b749bb93471477454b5d878e42e9d19871ad8683b7895ab53d7a146dd49064736f6c634300081e0033",
					"opcodes": "PUSH1 0x80 PUSH1 0x40 MSTORE PUSH1 0x2 PUSH0 SSTORE PUSH20 0x43D218197E8C5FBC0527769821503660861C7045 PUSH1 0x1 PUSH0 PUSH2 0x100 EXP DUP2 SLOAD DUP2 PUSH20 0xFFFFFFFFFFFFFFFFFFFFFFFFFFFFFFFFFFFFFFFF MUL NOT AND SWAP1 DUP4 PUSH20 0xFFFFFFFFFFFFFFFFFFFFFFFFFFFFFFFFFFFFFFFF AND MUL OR SWAP1 SSTORE POP PUSH1 0x3 PUSH1 0x2 SSTORE CALLVALUE DUP1 ISZERO PUSH1 0x6B JUMPI PUSH0 PUSH0 REVERT JUMPDEST POP PUSH2 0x595 DUP1 PUSH2 0x79 PUSH0 CODECOPY PUSH0 RETURN INVALID PUSH1 0x80 PUSH1 0x40 MSTORE CALLVALUE DUP1 ISZERO PUSH2 0xF JUMPI PUSH0 PUSH0 REVERT JUMPDEST POP PUSH1 0x4 CALLDATASIZE LT PUSH2 0x55 JUMPI PUSH0 CALLDATALOAD PUSH1 0xE0 SHR DUP1 PUSH4 0x5F85A718 EQ PUSH2 0x59 JUMPI DUP1 PUSH4 0x7EBD2F7A EQ PUSH2 0x8A JUMPI DUP1 PUSH4 0xD264C1B6 EQ PUSH2 0xA9 JUMPI DUP1 PUSH4 0xF38B2743 EQ PUSH2 0xC7 JUMPI DUP1 PUSH4 0xF8D43339 EQ PUSH2 0xE5 JUMPI JUMPDEST PUSH0 PUSH0 REVERT JUMPDEST PUSH2 0x73 PUSH1 0x4 DUP1 CALLDATASIZE SUB DUP2 ADD SWAP1 PUSH2 0x6E SWAP2 SWAP1 PUSH2 0x3AC JUMP JUMPDEST PUSH2 0x103 JUMP JUMPDEST PUSH1 0x40 MLOAD PUSH2 0x81 SWAP3 SWAP2 SWAP1 PUSH2 0x461 JUMP JUMPDEST PUSH1 0x40 MLOAD DUP1 SWAP2 SUB SWAP1 RETURN JUMPDEST PUSH2 0x92 PUSH2 0x22A JUMP JUMPDEST PUSH1 0x40 MLOAD PUSH2 0xA0 SWAP3 SWAP2 SWAP1 PUSH2 0x461 JUMP JUMPDEST PUSH1 0x40 MLOAD DUP1 SWAP2 SUB SWAP1 RETURN JUMPDEST PUSH2 0xB1 PUSH2 0x345 JUMP JUMPDEST PUSH1 0x40 MLOAD PUSH2 0xBE SWAP2 SWAP1 PUSH2 0x49E JUMP JUMPDEST PUSH1 0x40 MLOAD DUP1 SWAP2 SUB SWAP1 RETURN JUMPDEST PUSH2 0xCF PUSH2 0x34B JUMP JUMPDEST PUSH1 0x40 MLOAD PUSH2 0xDC SWAP2 SWAP1 PUSH2 0x4F6 JUMP JUMPDEST PUSH1 0x40 MLOAD DUP1 SWAP2 SUB SWAP1 RETURN JUMPDEST PUSH2 0xED PUSH2 0x370 JUMP JUMPDEST PUSH1 0x40 MLOAD PUSH2 0xFA SWAP2 SWAP1 PUSH2 0x49E JUMP JUMPDEST PUSH1 0x40 MLOAD DUP1 SWAP2 SUB SWAP1 RETURN JUMPDEST PUSH0 PUSH1 0x60 PUSH0 PUSH0 PUSH1 0x1 PUSH0 SWAP1 SLOAD SWAP1 PUSH2 0x100 EXP SWAP1 DIV PUSH20 0xFFFFFFFFFFFFFFFFFFFFFFFFFFFFFFFFFFFFFFFF AND PUSH20 0xFFFFFFFFFFFFFFFFFFFFFFFFFFFFFFFFFFFFFFFF AND DUP6 PUSH1 0x40 MLOAD PUSH1 0x24 ADD PUSH2 0x151 SWAP2 SWAP1 PUSH2 0x49E JUMP JUMPDEST PUSH1 0x40 MLOAD PUSH1 0x20 DUP2 DUP4 SUB SUB DUP2 MSTORE SWAP1 PUSH1 0x40 MSTORE PUSH32 0x51F8336100000000000000000000000000000000000000000000000000000000 PUSH28 0xFFFFFFFFFFFFFFFFFFFFFFFFFFFFFFFFFFFFFFFFFFFFFFFFFFFFFFFF NOT AND PUSH1 0x20 DUP3 ADD DUP1 MLOAD PUSH28 0xFFFFFFFFFFFFFFFFFFFFFFFFFFFFFFFFFFFFFFFFFFFFFFFFFFFFFFFF DUP4 DUP2 DUP4 AND OR DUP4 MSTORE POP POP POP POP PUSH1 0x40 MLOAD PUSH2 0x1DB SWAP2 SWAP1 PUSH2 0x549 JUMP JUMPDEST PUSH0 PUSH1 0x40 MLOAD DUP1 DUP4 SUB DUP2 DUP6 GAS DELEGATECALL SWAP2 POP POP RETURNDATASIZE DUP1 PUSH0 DUP2 EQ PUSH2 0x213 JUMPI PUSH1 0x40 MLOAD SWAP2 POP PUSH1 0x1F NOT PUSH1 0x3F RETURNDATASIZE ADD AND DUP3 ADD PUSH1 0x40 MSTORE RETURNDATASIZE DUP3 MSTORE RETURNDATASIZE PUSH0 PUSH1 0x20 DUP5 ADD RETURNDATACOPY PUSH2 0x218 JUMP JUMPDEST PUSH1 0x60 SWAP2 POP JUMPDEST POP SWAP2 POP SWAP2 POP DUP2 DUP2 SWAP4 POP SWAP4 POP POP POP SWAP2 POP SWAP2 JUMP JUMPDEST PUSH0 PUSH1 0x60 PUSH0 PUSH0 PUSH1 0x1 PUSH0 SWAP1 SLOAD SWAP1 PUSH2 0x100 EXP SWAP1 DIV PUSH20 0xFFFFFFFFFFFFFFFFFFFFFFFFFFFFFFFFFFFFFFFF AND PUSH20 0xFFFFFFFFFFFFFFFFFFFFFFFFFFFFFFFFFFFFFFFF AND PUSH1 0x40 MLOAD PUSH1 0x24 ADD PUSH1 0x40 MLOAD PUSH1 0x20 DUP2 DUP4 SUB SUB DUP2 MSTORE SWAP1 PUSH1 0x40 MSTORE PUSH32 0x96A0EEEB00000000000000000000000000000000000000000000000000000000 PUSH28 0xFFFFFFFFFFFFFFFFFFFFFFFFFFFFFFFFFFFFFFFFFFFFFFFFFFFFFFFF NOT AND PUSH1 0x20 DUP3 ADD DUP1 MLOAD PUSH28 0xFFFFFFFFFFFFFFFFFFFFFFFFFFFFFFFFFFFFFFFFFFFFFFFFFFFFFFFF DUP4 DUP2 DUP4 AND OR DUP4 MSTORE POP POP POP POP PUSH1 0x40 MLOAD PUSH2 0x2F7 SWAP2 SWAP1 PUSH2 0x549 JUMP JUMPDEST PUSH0 PUSH1 0x40 MLOAD DUP1 DUP4 SUB DUP2 DUP6 GAS DELEGATECALL SWAP2 POP POP RETURNDATASIZE DUP1 PUSH0 DUP2 EQ PUSH2 0x32F JUMPI PUSH1 0x40 MLOAD SWAP2 POP PUSH1 0x1F NOT PUSH1 0x3F RETURNDATASIZE ADD AND DUP3 ADD PUSH1 0x40 MSTORE RETURNDATASIZE DUP3 MSTORE RETURNDATASIZE PUSH0 PUSH1 0x20 DUP5 ADD RETURNDATACOPY PUSH2 0x334 JUMP JUMPDEST PUSH1 0x60 SWAP2 POP JUMPDEST POP SWAP2 POP SWAP2 POP DUP2 DUP2 SWAP4 POP SWAP4 POP POP POP SWAP1 SWAP2 JUMP JUMPDEST PUSH1 0x2 SLOAD DUP2 JUMP JUMPDEST PUSH1 0x1 PUSH0 SWAP1 SLOAD SWAP1 PUSH2 0x100 EXP SWAP1 DIV PUSH20 0xFFFFFFFFFFFFFFFFFFFFFFFFFFFFFFFFFFFFFFFF AND DUP2 JUMP JUMPDEST PUSH0 SLOAD DUP2 JUMP JUMPDEST PUSH0 PUSH0 REVERT JUMPDEST PUSH0 DUP2 SWAP1 POP SWAP2 SWAP1 POP JUMP JUMPDEST PUSH2 0x38B DUP2 PUSH2 0x379 JUMP JUMPDEST DUP2 EQ PUSH2 0x395 JUMPI PUSH0 PUSH0 REVERT JUMPDEST POP JUMP JUMPDEST PUSH0 DUP2 CALLDATALOAD SWAP1 POP PUSH2 0x3A6 DUP2 PUSH2 0x382 JUMP JUMPDEST SWAP3 SWAP2 POP POP JUMP JUMPDEST PUSH0 PUSH1 0x20 DUP3 DUP5 SUB SLT ISZERO PUSH2 0x3C1 JUMPI PUSH2 0x3C0 PUSH2 0x375 JUMP JUMPDEST JUMPDEST PUSH0 PUSH2 0x3CE DUP5 DUP3 DUP6 ADD PUSH2 0x398 JUMP JUMPDEST SWAP2 POP POP SWAP3 SWAP2 POP POP JUMP JUMPDEST PUSH0 DUP2 ISZERO ISZERO SWAP1 POP SWAP2 SWAP1 POP JUMP JUMPDEST PUSH2 0x3EB DUP2 PUSH2 0x3D7 JUMP JUMPDEST DUP3 MSTORE POP POP JUMP JUMPDEST PUSH0 DUP2 MLOAD SWAP1 POP SWAP2 SWAP1 POP JUMP JUMPDEST PUSH0 DUP3 DUP3 MSTORE PUSH1 0x20 DUP3 ADD SWAP1 POP SWAP3 SWAP2 POP POP JUMP JUMPDEST DUP3 DUP2 DUP4 MCOPY PUSH0 DUP4 DUP4 ADD MSTORE POP POP POP JUMP JUMPDEST PUSH0 PUSH1 0x1F NOT PUSH1 0x1F DUP4 ADD AND SWAP1 POP SWAP2 SWAP1 POP JUMP JUMPDEST PUSH0 PUSH2 0x433 DUP3 PUSH2 0x3F1 JUMP JUMPDEST PUSH2 0x43D DUP2 DUP6 PUSH2 0x3FB JUMP JUMPDEST SWAP4 POP PUSH2 0x44D DUP2 DUP6 PUSH1 0x20 DUP7 ADD PUSH2 0x40B JUMP JUMPDEST PUSH2 0x456 DUP2 PUSH2 0x419 JUMP JUMPDEST DUP5 ADD SWAP2 POP POP SWAP3 SWAP2 POP POP JUMP JUMPDEST PUSH0 PUSH1 0x40 DUP3 ADD SWAP1 POP PUSH2 0x474 PUSH0 DUP4 ADD DUP6 PUSH2 0x3E2 JUMP JUMPDEST DUP2 DUP2 SUB PUSH1 0x20 DUP4 ADD MSTORE PUSH2 0x486 DUP2 DUP5 PUSH2 0x429 JUMP JUMPDEST SWAP1 POP SWAP4 SWAP3 POP POP POP JUMP JUMPDEST PUSH2 0x498 DUP2 PUSH2 0x379 JUMP JUMPDEST DUP3 MSTORE POP POP JUMP JUMPDEST PUSH0 PUSH1 0x20 DUP3 ADD SWAP1 POP PUSH2 0x4B1 PUSH0 DUP4 ADD DUP5 PUSH2 0x48F JUMP JUMPDEST SWAP3 SWAP2 POP POP JUMP JUMPDEST PUSH0 PUSH20 0xFFFFFFFFFFFFFFFFFFFFFFFFFFFFFFFFFFFFFFFF DUP3 AND SWAP1 POP SWAP2 SWAP1 POP JUMP JUMPDEST PUSH0 PUSH2 0x4E0 DUP3 PUSH2 0x4B7 JUMP JUMPDEST SWAP1 POP SWAP2 SWAP1 POP JUMP JUMPDEST PUSH2 0x4F0 DUP2 PUSH2 0x4D6 JUMP JUMPDEST DUP3 MSTORE POP POP JUMP JUMPDEST PUSH0 PUSH1 0x20 DUP3 ADD SWAP1 POP PUSH2 0x509 PUSH0 DUP4 ADD DUP5 PUSH2 0x4E7 JUMP JUMPDEST SWAP3 SWAP2 POP POP JUMP JUMPDEST PUSH0 DUP2 SWAP1 POP SWAP3 SWAP2 POP POP JUMP JUMPDEST PUSH0 PUSH2 0x523 DUP3 PUSH2 0x3F1 JUMP JUMPDEST PUSH2 0x52D DUP2 DUP6 PUSH2 0x50F JUMP JUMPDEST SWAP4 POP PUSH2 0x53D DUP2 DUP6 PUSH1 0x20 DUP7 ADD PUSH2 0x40B JUMP JUMPDEST DUP1 DUP5 ADD SWAP2 POP POP SWAP3 SWAP2 POP POP JUMP JUMPDEST PUSH0 PUSH2 0x554 DUP3 DUP5 PUSH2 0x519 JUMP JUMPDEST SWAP2 POP DUP2 SWAP1 POP SWAP3 SWAP2 POP POP JUMP INVALID LOG2 PUSH5 0x6970667358 0x22 SLT KECCAK256 0x2E 0xD7 0xB7 BLOBHASH 0xBB SWAP4 SELFBALANCE EQ PUSH24 0x454B5D878E42E9D19871AD8683B7895AB53D7A146DD49064 PUSH20 0x6F6C634300081E00330000000000000000000000 "
				},
				"gasEstimates": {
					"creation": {
						"codeDepositCost": "285800",
						"executionCost": "68799",
						"totalCost": "354599"
					},
					"external": {
						"ValordoSlote()": "2447",
						"callgetValor(uint256)": "infinite",
						"callsetValor()": "infinite",
						"endereco()": "2552",
						"valorLocal()": "2490"
					}
				},
				"methodIdentifiers": {
					"ValordoSlote()": "d264c1b6",
					"callgetValor(uint256)": "5f85a718",
					"callsetValor()": "7ebd2f7a",
					"endereco()": "f38b2743",
					"valorLocal()": "f8d43339"
				}
			},
			"storageLayout": {
				"storage": [
					{
						"astId": 34,
						"contract": "Introdução ao Solidity/Aprenda Solidity/Delegatecall.sol:chamador",
						"label": "valorLocal",
						"offset": 0,
						"slot": "0",
						"type": "t_uint256"
					},
					{
						"astId": 37,
						"contract": "Introdução ao Solidity/Aprenda Solidity/Delegatecall.sol:chamador",
						"label": "endereco",
						"offset": 0,
						"slot": "1",
						"type": "t_address"
					},
					{
						"astId": 40,
						"contract": "Introdução ao Solidity/Aprenda Solidity/Delegatecall.sol:chamador",
						"label": "ValordoSlote",
						"offset": 0,
						"slot": "2",
						"type": "t_uint256"
					}
				],
				"types": {
					"t_address": {
						"encoding": "inplace",
						"label": "address",
						"numberOfBytes": "20"
					},
					"t_uint256": {
						"encoding": "inplace",
						"label": "uint256",
						"numberOfBytes": "32"
					}
				}
			},
			"userdoc": {
				"kind": "user",
				"methods": {},
				"version": 1
			}
		}
	}
}