{
	"Introdução ao Solidity/Aprenda Solidity/Fazendo upgrade de contratos.sol": {
		"upgradable": {
			"abi": [
				{
					"inputs": [
						{
							"internalType": "address",
							"name": "_endereco",
							"type": "address"
						}
					],
					"name": "alterarEndereco",
					"outputs": [],
					"stateMutability": "nonpayable",
					"type": "function"
				},
				{
					"inputs": [],
					"name": "alterarValor",
					"outputs": [
						{
							"internalType": "bool",
							"name": "",
							"type": "bool"
						},
						{
							"internalType": "bytes",
							"name": "",
							"type": "bytes"
						}
					],
					"stateMutability": "nonpayable",
					"type": "function"
				},
				{
					"inputs": [],
					"name": "endereco",
					"outputs": [
						{
							"internalType": "address",
							"name": "",
							"type": "address"
						}
					],
					"stateMutability": "view",
					"type": "function"
				},
				{
					"inputs": [],
					"name": "valor",
					"outputs": [
						{
							"internalType": "uint256",
							"name": "",
							"type": "uint256"
						}
					],
					"stateMutability": "view",
					"type": "function"
				}
			],
			"devdoc": {
				"kind": "dev",
				"methods": {},
				"version": 1
			},
			"evm": {
				"assembly": "    /* \"Introdu\\xc3\\xa7\\xc3\\xa3o ao Solidity/Aprenda Solidity/Fazendo upgrade de contratos.sol\":345:740  contract upgradable{... */\n  mstore(0x40, 0x80)\n  callvalue\n  dup1\n  iszero\n  tag_1\n  jumpi\n  revert(0x00, 0x00)\ntag_1:\n  pop\n  dataSize(sub_0)\n  dup1\n  dataOffset(sub_0)\n  0x00\n  codecopy\n  0x00\n  return\nstop\n\nsub_0: assembly {\n        /* \"Introdu\\xc3\\xa7\\xc3\\xa3o ao Solidity/Aprenda Solidity/Fazendo upgrade de contratos.sol\":345:740  contract upgradable{... */\n      mstore(0x40, 0x80)\n      callvalue\n      dup1\n      iszero\n      tag_1\n      jumpi\n      revert(0x00, 0x00)\n    tag_1:\n      pop\n      jumpi(tag_2, lt(calldatasize, 0x04))\n      shr(0xe0, calldataload(0x00))\n      dup1\n      0x8ae0555a\n      eq\n      tag_3\n      jumpi\n      dup1\n      0xecbac7cf\n      eq\n      tag_4\n      jumpi\n      dup1\n      0xf38b2743\n      eq\n      tag_5\n      jumpi\n      dup1\n      0xf6916492\n      eq\n      tag_6\n      jumpi\n    tag_2:\n      revert(0x00, 0x00)\n        /* \"Introdu\\xc3\\xa7\\xc3\\xa3o ao Solidity/Aprenda Solidity/Fazendo upgrade de contratos.sol\":428:644  function alterarValor() public returns (bool, bytes memory) {... */\n    tag_3:\n      tag_7\n      tag_8\n      jump\t// in\n    tag_7:\n      mload(0x40)\n      tag_9\n      swap3\n      swap2\n      swap1\n      tag_10\n      jump\t// in\n    tag_9:\n      mload(0x40)\n      dup1\n      swap2\n      sub\n      swap1\n      return\n        /* \"Introdu\\xc3\\xa7\\xc3\\xa3o ao Solidity/Aprenda Solidity/Fazendo upgrade de contratos.sol\":375:392  uint public valor */\n    tag_4:\n      tag_11\n      tag_12\n      jump\t// in\n    tag_11:\n      mload(0x40)\n      tag_13\n      swap2\n      swap1\n      tag_14\n      jump\t// in\n    tag_13:\n      mload(0x40)\n      dup1\n      swap2\n      sub\n      swap1\n      return\n        /* \"Introdu\\xc3\\xa7\\xc3\\xa3o ao Solidity/Aprenda Solidity/Fazendo upgrade de contratos.sol\":398:421  address public endereco */\n    tag_5:\n      tag_15\n      tag_16\n      jump\t// in\n    tag_15:\n      mload(0x40)\n      tag_17\n      swap2\n      swap1\n      tag_18\n      jump\t// in\n    tag_17:\n      mload(0x40)\n      dup1\n      swap2\n      sub\n      swap1\n      return\n        /* \"Introdu\\xc3\\xa7\\xc3\\xa3o ao Solidity/Aprenda Solidity/Fazendo upgrade de contratos.sol\":650:738  function alterarEndereco(address _endereco) public {... */\n    tag_6:\n      tag_19\n      0x04\n      dup1\n      calldatasize\n      sub\n      dup2\n      add\n      swap1\n      tag_20\n      swap2\n      swap1\n      tag_21\n      jump\t// in\n    tag_20:\n      tag_22\n      jump\t// in\n    tag_19:\n      stop\n        /* \"Introdu\\xc3\\xa7\\xc3\\xa3o ao Solidity/Aprenda Solidity/Fazendo upgrade de contratos.sol\":428:644  function alterarValor() public returns (bool, bytes memory) {... */\n    tag_8:\n        /* \"Introdu\\xc3\\xa7\\xc3\\xa3o ao Solidity/Aprenda Solidity/Fazendo upgrade de contratos.sol\":468:472  bool */\n      0x00\n        /* \"Introdu\\xc3\\xa7\\xc3\\xa3o ao Solidity/Aprenda Solidity/Fazendo upgrade de contratos.sol\":474:486  bytes memory */\n      0x60\n        /* \"Introdu\\xc3\\xa7\\xc3\\xa3o ao Solidity/Aprenda Solidity/Fazendo upgrade de contratos.sol\":500:512  bool success */\n      0x00\n        /* \"Introdu\\xc3\\xa7\\xc3\\xa3o ao Solidity/Aprenda Solidity/Fazendo upgrade de contratos.sol\":514:534  bytes memory retorno */\n      0x00\n        /* \"Introdu\\xc3\\xa7\\xc3\\xa3o ao Solidity/Aprenda Solidity/Fazendo upgrade de contratos.sol\":538:546  endereco */\n      0x01\n      0x00\n      swap1\n      sload\n      swap1\n      0x0100\n      exp\n      swap1\n      div\n      0xffffffffffffffffffffffffffffffffffffffff\n      and\n        /* \"Introdu\\xc3\\xa7\\xc3\\xa3o ao Solidity/Aprenda Solidity/Fazendo upgrade de contratos.sol\":538:559  endereco.delegatecall */\n      0xffffffffffffffffffffffffffffffffffffffff\n      and\n        /* \"Introdu\\xc3\\xa7\\xc3\\xa3o ao Solidity/Aprenda Solidity/Fazendo upgrade de contratos.sol\":560:601  abi.encodeWithSignature(\"alterarValor()\") */\n      add(0x24, mload(0x40))\n      mload(0x40)\n      0x20\n      dup2\n      dup4\n      sub\n      sub\n      dup2\n      mstore\n      swap1\n      0x40\n      mstore\n      and(not(0xffffffffffffffffffffffffffffffffffffffffffffffffffffffff), 0x8ae0555a00000000000000000000000000000000000000000000000000000000)\n      0x20\n      dup3\n      add\n      dup1\n      mload\n      0xffffffffffffffffffffffffffffffffffffffffffffffffffffffff\n      dup4\n      dup2\n      dup4\n      and\n      or\n      dup4\n      mstore\n      pop\n      pop\n      pop\n      pop\n        /* \"Introdu\\xc3\\xa7\\xc3\\xa3o ao Solidity/Aprenda Solidity/Fazendo upgrade de contratos.sol\":538:602  endereco.delegatecall(abi.encodeWithSignature(\"alterarValor()\")) */\n      mload(0x40)\n      tag_24\n      swap2\n      swap1\n      tag_25\n      jump\t// in\n    tag_24:\n      0x00\n      mload(0x40)\n      dup1\n      dup4\n      sub\n      dup2\n      dup6\n      gas\n      delegatecall\n      swap2\n      pop\n      pop\n      returndatasize\n      dup1\n      0x00\n      dup2\n      eq\n      tag_28\n      jumpi\n      mload(0x40)\n      swap2\n      pop\n      and(add(returndatasize, 0x3f), not(0x1f))\n      dup3\n      add\n      0x40\n      mstore\n      returndatasize\n      dup3\n      mstore\n      returndatasize\n      0x00\n      0x20\n      dup5\n      add\n      returndatacopy\n      jump(tag_27)\n    tag_28:\n      0x60\n      swap2\n      pop\n    tag_27:\n      pop\n        /* \"Introdu\\xc3\\xa7\\xc3\\xa3o ao Solidity/Aprenda Solidity/Fazendo upgrade de contratos.sol\":499:602  (bool success, bytes memory retorno) = endereco.delegatecall(abi.encodeWithSignature(\"alterarValor()\")) */\n      swap2\n      pop\n      swap2\n      pop\n        /* \"Introdu\\xc3\\xa7\\xc3\\xa3o ao Solidity/Aprenda Solidity/Fazendo upgrade de contratos.sol\":620:627  success */\n      dup2\n        /* \"Introdu\\xc3\\xa7\\xc3\\xa3o ao Solidity/Aprenda Solidity/Fazendo upgrade de contratos.sol\":629:636  retorno */\n      dup2\n        /* \"Introdu\\xc3\\xa7\\xc3\\xa3o ao Solidity/Aprenda Solidity/Fazendo upgrade de contratos.sol\":612:637  return (success, retorno) */\n      swap4\n      pop\n      swap4\n      pop\n      pop\n      pop\n        /* \"Introdu\\xc3\\xa7\\xc3\\xa3o ao Solidity/Aprenda Solidity/Fazendo upgrade de contratos.sol\":428:644  function alterarValor() public returns (bool, bytes memory) {... */\n      swap1\n      swap2\n      jump\t// out\n        /* \"Introdu\\xc3\\xa7\\xc3\\xa3o ao Solidity/Aprenda Solidity/Fazendo upgrade de contratos.sol\":375:392  uint public valor */\n    tag_12:\n      sload(0x00)\n      dup2\n      jump\t// out\n        /* \"Introdu\\xc3\\xa7\\xc3\\xa3o ao Solidity/Aprenda Solidity/Fazendo upgrade de contratos.sol\":398:421  address public endereco */\n    tag_16:\n      0x01\n      0x00\n      swap1\n      sload\n      swap1\n      0x0100\n      exp\n      swap1\n      div\n      0xffffffffffffffffffffffffffffffffffffffff\n      and\n      dup2\n      jump\t// out\n        /* \"Introdu\\xc3\\xa7\\xc3\\xa3o ao Solidity/Aprenda Solidity/Fazendo upgrade de contratos.sol\":650:738  function alterarEndereco(address _endereco) public {... */\n    tag_22:\n        /* \"Introdu\\xc3\\xa7\\xc3\\xa3o ao Solidity/Aprenda Solidity/Fazendo upgrade de contratos.sol\":722:731  _endereco */\n      dup1\n        /* \"Introdu\\xc3\\xa7\\xc3\\xa3o ao Solidity/Aprenda Solidity/Fazendo upgrade de contratos.sol\":711:719  endereco */\n      0x01\n      0x00\n        /* \"Introdu\\xc3\\xa7\\xc3\\xa3o ao Solidity/Aprenda Solidity/Fazendo upgrade de contratos.sol\":711:731  endereco = _endereco */\n      0x0100\n      exp\n      dup2\n      sload\n      dup2\n      0xffffffffffffffffffffffffffffffffffffffff\n      mul\n      not\n      and\n      swap1\n      dup4\n      0xffffffffffffffffffffffffffffffffffffffff\n      and\n      mul\n      or\n      swap1\n      sstore\n      pop\n        /* \"Introdu\\xc3\\xa7\\xc3\\xa3o ao Solidity/Aprenda Solidity/Fazendo upgrade de contratos.sol\":650:738  function alterarEndereco(address _endereco) public {... */\n      pop\n      jump\t// out\n        /* \"#utility.yul\":7:97   */\n    tag_30:\n        /* \"#utility.yul\":41:48   */\n      0x00\n        /* \"#utility.yul\":84:89   */\n      dup2\n        /* \"#utility.yul\":77:90   */\n      iszero\n        /* \"#utility.yul\":70:91   */\n      iszero\n        /* \"#utility.yul\":59:91   */\n      swap1\n      pop\n        /* \"#utility.yul\":7:97   */\n      swap2\n      swap1\n      pop\n      jump\t// out\n        /* \"#utility.yul\":103:212   */\n    tag_31:\n        /* \"#utility.yul\":184:205   */\n      tag_52\n        /* \"#utility.yul\":199:204   */\n      dup2\n        /* \"#utility.yul\":184:205   */\n      tag_30\n      jump\t// in\n    tag_52:\n        /* \"#utility.yul\":179:182   */\n      dup3\n        /* \"#utility.yul\":172:206   */\n      mstore\n        /* \"#utility.yul\":103:212   */\n      pop\n      pop\n      jump\t// out\n        /* \"#utility.yul\":218:316   */\n    tag_32:\n        /* \"#utility.yul\":269:275   */\n      0x00\n        /* \"#utility.yul\":303:308   */\n      dup2\n        /* \"#utility.yul\":297:309   */\n      mload\n        /* \"#utility.yul\":287:309   */\n      swap1\n      pop\n        /* \"#utility.yul\":218:316   */\n      swap2\n      swap1\n      pop\n      jump\t// out\n        /* \"#utility.yul\":322:490   */\n    tag_33:\n        /* \"#utility.yul\":405:416   */\n      0x00\n        /* \"#utility.yul\":439:445   */\n      dup3\n        /* \"#utility.yul\":434:437   */\n      dup3\n        /* \"#utility.yul\":427:446   */\n      mstore\n        /* \"#utility.yul\":479:483   */\n      0x20\n        /* \"#utility.yul\":474:477   */\n      dup3\n        /* \"#utility.yul\":470:484   */\n      add\n        /* \"#utility.yul\":455:484   */\n      swap1\n      pop\n        /* \"#utility.yul\":322:490   */\n      swap3\n      swap2\n      pop\n      pop\n      jump\t// out\n        /* \"#utility.yul\":496:635   */\n    tag_34:\n        /* \"#utility.yul\":585:591   */\n      dup3\n        /* \"#utility.yul\":580:583   */\n      dup2\n        /* \"#utility.yul\":575:578   */\n      dup4\n        /* \"#utility.yul\":569:592   */\n      mcopy\n        /* \"#utility.yul\":626:627   */\n      0x00\n        /* \"#utility.yul\":617:623   */\n      dup4\n        /* \"#utility.yul\":612:615   */\n      dup4\n        /* \"#utility.yul\":608:624   */\n      add\n        /* \"#utility.yul\":601:628   */\n      mstore\n        /* \"#utility.yul\":496:635   */\n      pop\n      pop\n      pop\n      jump\t// out\n        /* \"#utility.yul\":641:743   */\n    tag_35:\n        /* \"#utility.yul\":682:688   */\n      0x00\n        /* \"#utility.yul\":733:735   */\n      0x1f\n        /* \"#utility.yul\":729:736   */\n      not\n        /* \"#utility.yul\":724:726   */\n      0x1f\n        /* \"#utility.yul\":717:722   */\n      dup4\n        /* \"#utility.yul\":713:727   */\n      add\n        /* \"#utility.yul\":709:737   */\n      and\n        /* \"#utility.yul\":699:737   */\n      swap1\n      pop\n        /* \"#utility.yul\":641:743   */\n      swap2\n      swap1\n      pop\n      jump\t// out\n        /* \"#utility.yul\":749:1122   */\n    tag_36:\n        /* \"#utility.yul\":835:838   */\n      0x00\n        /* \"#utility.yul\":863:901   */\n      tag_58\n        /* \"#utility.yul\":895:900   */\n      dup3\n        /* \"#utility.yul\":863:901   */\n      tag_32\n      jump\t// in\n    tag_58:\n        /* \"#utility.yul\":917:987   */\n      tag_59\n        /* \"#utility.yul\":980:986   */\n      dup2\n        /* \"#utility.yul\":975:978   */\n      dup6\n        /* \"#utility.yul\":917:987   */\n      tag_33\n      jump\t// in\n    tag_59:\n        /* \"#utility.yul\":910:987   */\n      swap4\n      pop\n        /* \"#utility.yul\":996:1061   */\n      tag_60\n        /* \"#utility.yul\":1054:1060   */\n      dup2\n        /* \"#utility.yul\":1049:1052   */\n      dup6\n        /* \"#utility.yul\":1042:1046   */\n      0x20\n        /* \"#utility.yul\":1035:1040   */\n      dup7\n        /* \"#utility.yul\":1031:1047   */\n      add\n        /* \"#utility.yul\":996:1061   */\n      tag_34\n      jump\t// in\n    tag_60:\n        /* \"#utility.yul\":1086:1115   */\n      tag_61\n        /* \"#utility.yul\":1108:1114   */\n      dup2\n        /* \"#utility.yul\":1086:1115   */\n      tag_35\n      jump\t// in\n    tag_61:\n        /* \"#utility.yul\":1081:1084   */\n      dup5\n        /* \"#utility.yul\":1077:1116   */\n      add\n        /* \"#utility.yul\":1070:1116   */\n      swap2\n      pop\n        /* \"#utility.yul\":839:1122   */\n      pop\n        /* \"#utility.yul\":749:1122   */\n      swap3\n      swap2\n      pop\n      pop\n      jump\t// out\n        /* \"#utility.yul\":1128:1535   */\n    tag_10:\n        /* \"#utility.yul\":1261:1265   */\n      0x00\n        /* \"#utility.yul\":1299:1301   */\n      0x40\n        /* \"#utility.yul\":1288:1297   */\n      dup3\n        /* \"#utility.yul\":1284:1302   */\n      add\n        /* \"#utility.yul\":1276:1302   */\n      swap1\n      pop\n        /* \"#utility.yul\":1312:1377   */\n      tag_63\n        /* \"#utility.yul\":1374:1375   */\n      0x00\n        /* \"#utility.yul\":1363:1372   */\n      dup4\n        /* \"#utility.yul\":1359:1376   */\n      add\n        /* \"#utility.yul\":1350:1356   */\n      dup6\n        /* \"#utility.yul\":1312:1377   */\n      tag_31\n      jump\t// in\n    tag_63:\n        /* \"#utility.yul\":1424:1433   */\n      dup2\n        /* \"#utility.yul\":1418:1422   */\n      dup2\n        /* \"#utility.yul\":1414:1434   */\n      sub\n        /* \"#utility.yul\":1409:1411   */\n      0x20\n        /* \"#utility.yul\":1398:1407   */\n      dup4\n        /* \"#utility.yul\":1394:1412   */\n      add\n        /* \"#utility.yul\":1387:1435   */\n      mstore\n        /* \"#utility.yul\":1452:1528   */\n      tag_64\n        /* \"#utility.yul\":1523:1527   */\n      dup2\n        /* \"#utility.yul\":1514:1520   */\n      dup5\n        /* \"#utility.yul\":1452:1528   */\n      tag_36\n      jump\t// in\n    tag_64:\n        /* \"#utility.yul\":1444:1528   */\n      swap1\n      pop\n        /* \"#utility.yul\":1128:1535   */\n      swap4\n      swap3\n      pop\n      pop\n      pop\n      jump\t// out\n        /* \"#utility.yul\":1541:1618   */\n    tag_37:\n        /* \"#utility.yul\":1578:1585   */\n      0x00\n        /* \"#utility.yul\":1607:1612   */\n      dup2\n        /* \"#utility.yul\":1596:1612   */\n      swap1\n      pop\n        /* \"#utility.yul\":1541:1618   */\n      swap2\n      swap1\n      pop\n      jump\t// out\n        /* \"#utility.yul\":1624:1742   */\n    tag_38:\n        /* \"#utility.yul\":1711:1735   */\n      tag_67\n        /* \"#utility.yul\":1729:1734   */\n      dup2\n        /* \"#utility.yul\":1711:1735   */\n      tag_37\n      jump\t// in\n    tag_67:\n        /* \"#utility.yul\":1706:1709   */\n      dup3\n        /* \"#utility.yul\":1699:1736   */\n      mstore\n        /* \"#utility.yul\":1624:1742   */\n      pop\n      pop\n      jump\t// out\n        /* \"#utility.yul\":1748:1970   */\n    tag_14:\n        /* \"#utility.yul\":1841:1845   */\n      0x00\n        /* \"#utility.yul\":1879:1881   */\n      0x20\n        /* \"#utility.yul\":1868:1877   */\n      dup3\n        /* \"#utility.yul\":1864:1882   */\n      add\n        /* \"#utility.yul\":1856:1882   */\n      swap1\n      pop\n        /* \"#utility.yul\":1892:1963   */\n      tag_69\n        /* \"#utility.yul\":1960:1961   */\n      0x00\n        /* \"#utility.yul\":1949:1958   */\n      dup4\n        /* \"#utility.yul\":1945:1962   */\n      add\n        /* \"#utility.yul\":1936:1942   */\n      dup5\n        /* \"#utility.yul\":1892:1963   */\n      tag_38\n      jump\t// in\n    tag_69:\n        /* \"#utility.yul\":1748:1970   */\n      swap3\n      swap2\n      pop\n      pop\n      jump\t// out\n        /* \"#utility.yul\":1976:2102   */\n    tag_39:\n        /* \"#utility.yul\":2013:2020   */\n      0x00\n        /* \"#utility.yul\":2053:2095   */\n      0xffffffffffffffffffffffffffffffffffffffff\n        /* \"#utility.yul\":2046:2051   */\n      dup3\n        /* \"#utility.yul\":2042:2096   */\n      and\n        /* \"#utility.yul\":2031:2096   */\n      swap1\n      pop\n        /* \"#utility.yul\":1976:2102   */\n      swap2\n      swap1\n      pop\n      jump\t// out\n        /* \"#utility.yul\":2108:2204   */\n    tag_40:\n        /* \"#utility.yul\":2145:2152   */\n      0x00\n        /* \"#utility.yul\":2174:2198   */\n      tag_72\n        /* \"#utility.yul\":2192:2197   */\n      dup3\n        /* \"#utility.yul\":2174:2198   */\n      tag_39\n      jump\t// in\n    tag_72:\n        /* \"#utility.yul\":2163:2198   */\n      swap1\n      pop\n        /* \"#utility.yul\":2108:2204   */\n      swap2\n      swap1\n      pop\n      jump\t// out\n        /* \"#utility.yul\":2210:2328   */\n    tag_41:\n        /* \"#utility.yul\":2297:2321   */\n      tag_74\n        /* \"#utility.yul\":2315:2320   */\n      dup2\n        /* \"#utility.yul\":2297:2321   */\n      tag_40\n      jump\t// in\n    tag_74:\n        /* \"#utility.yul\":2292:2295   */\n      dup3\n        /* \"#utility.yul\":2285:2322   */\n      mstore\n        /* \"#utility.yul\":2210:2328   */\n      pop\n      pop\n      jump\t// out\n        /* \"#utility.yul\":2334:2556   */\n    tag_18:\n        /* \"#utility.yul\":2427:2431   */\n      0x00\n        /* \"#utility.yul\":2465:2467   */\n      0x20\n        /* \"#utility.yul\":2454:2463   */\n      dup3\n        /* \"#utility.yul\":2450:2468   */\n      add\n        /* \"#utility.yul\":2442:2468   */\n      swap1\n      pop\n        /* \"#utility.yul\":2478:2549   */\n      tag_76\n        /* \"#utility.yul\":2546:2547   */\n      0x00\n        /* \"#utility.yul\":2535:2544   */\n      dup4\n        /* \"#utility.yul\":2531:2548   */\n      add\n        /* \"#utility.yul\":2522:2528   */\n      dup5\n        /* \"#utility.yul\":2478:2549   */\n      tag_41\n      jump\t// in\n    tag_76:\n        /* \"#utility.yul\":2334:2556   */\n      swap3\n      swap2\n      pop\n      pop\n      jump\t// out\n        /* \"#utility.yul\":2643:2760   */\n    tag_43:\n        /* \"#utility.yul\":2752:2753   */\n      0x00\n        /* \"#utility.yul\":2749:2750   */\n      0x00\n        /* \"#utility.yul\":2742:2754   */\n      revert\n        /* \"#utility.yul\":2889:3011   */\n    tag_45:\n        /* \"#utility.yul\":2962:2986   */\n      tag_81\n        /* \"#utility.yul\":2980:2985   */\n      dup2\n        /* \"#utility.yul\":2962:2986   */\n      tag_40\n      jump\t// in\n    tag_81:\n        /* \"#utility.yul\":2955:2960   */\n      dup2\n        /* \"#utility.yul\":2952:2987   */\n      eq\n        /* \"#utility.yul\":2942:3005   */\n      tag_82\n      jumpi\n        /* \"#utility.yul\":3001:3002   */\n      0x00\n        /* \"#utility.yul\":2998:2999   */\n      0x00\n        /* \"#utility.yul\":2991:3003   */\n      revert\n        /* \"#utility.yul\":2942:3005   */\n    tag_82:\n        /* \"#utility.yul\":2889:3011   */\n      pop\n      jump\t// out\n        /* \"#utility.yul\":3017:3156   */\n    tag_46:\n        /* \"#utility.yul\":3063:3068   */\n      0x00\n        /* \"#utility.yul\":3101:3107   */\n      dup2\n        /* \"#utility.yul\":3088:3108   */\n      calldataload\n        /* \"#utility.yul\":3079:3108   */\n      swap1\n      pop\n        /* \"#utility.yul\":3117:3150   */\n      tag_84\n        /* \"#utility.yul\":3144:3149   */\n      dup2\n        /* \"#utility.yul\":3117:3150   */\n      tag_45\n      jump\t// in\n    tag_84:\n        /* \"#utility.yul\":3017:3156   */\n      swap3\n      swap2\n      pop\n      pop\n      jump\t// out\n        /* \"#utility.yul\":3162:3491   */\n    tag_21:\n        /* \"#utility.yul\":3221:3227   */\n      0x00\n        /* \"#utility.yul\":3270:3272   */\n      0x20\n        /* \"#utility.yul\":3258:3267   */\n      dup3\n        /* \"#utility.yul\":3249:3256   */\n      dup5\n        /* \"#utility.yul\":3245:3268   */\n      sub\n        /* \"#utility.yul\":3241:3273   */\n      slt\n        /* \"#utility.yul\":3238:3357   */\n      iszero\n      tag_86\n      jumpi\n        /* \"#utility.yul\":3276:3355   */\n      tag_87\n      tag_43\n      jump\t// in\n    tag_87:\n        /* \"#utility.yul\":3238:3357   */\n    tag_86:\n        /* \"#utility.yul\":3396:3397   */\n      0x00\n        /* \"#utility.yul\":3421:3474   */\n      tag_88\n        /* \"#utility.yul\":3466:3473   */\n      dup5\n        /* \"#utility.yul\":3457:3463   */\n      dup3\n        /* \"#utility.yul\":3446:3455   */\n      dup6\n        /* \"#utility.yul\":3442:3464   */\n      add\n        /* \"#utility.yul\":3421:3474   */\n      tag_46\n      jump\t// in\n    tag_88:\n        /* \"#utility.yul\":3411:3474   */\n      swap2\n      pop\n        /* \"#utility.yul\":3367:3484   */\n      pop\n        /* \"#utility.yul\":3162:3491   */\n      swap3\n      swap2\n      pop\n      pop\n      jump\t// out\n        /* \"#utility.yul\":3497:3644   */\n    tag_47:\n        /* \"#utility.yul\":3598:3609   */\n      0x00\n        /* \"#utility.yul\":3635:3638   */\n      dup2\n        /* \"#utility.yul\":3620:3638   */\n      swap1\n      pop\n        /* \"#utility.yul\":3497:3644   */\n      swap3\n      swap2\n      pop\n      pop\n      jump\t// out\n        /* \"#utility.yul\":3650:4036   */\n    tag_48:\n        /* \"#utility.yul\":3754:3757   */\n      0x00\n        /* \"#utility.yul\":3782:3820   */\n      tag_91\n        /* \"#utility.yul\":3814:3819   */\n      dup3\n        /* \"#utility.yul\":3782:3820   */\n      tag_32\n      jump\t// in\n    tag_91:\n        /* \"#utility.yul\":3836:3924   */\n      tag_92\n        /* \"#utility.yul\":3917:3923   */\n      dup2\n        /* \"#utility.yul\":3912:3915   */\n      dup6\n        /* \"#utility.yul\":3836:3924   */\n      tag_47\n      jump\t// in\n    tag_92:\n        /* \"#utility.yul\":3829:3924   */\n      swap4\n      pop\n        /* \"#utility.yul\":3933:3998   */\n      tag_93\n        /* \"#utility.yul\":3991:3997   */\n      dup2\n        /* \"#utility.yul\":3986:3989   */\n      dup6\n        /* \"#utility.yul\":3979:3983   */\n      0x20\n        /* \"#utility.yul\":3972:3977   */\n      dup7\n        /* \"#utility.yul\":3968:3984   */\n      add\n        /* \"#utility.yul\":3933:3998   */\n      tag_34\n      jump\t// in\n    tag_93:\n        /* \"#utility.yul\":4023:4029   */\n      dup1\n        /* \"#utility.yul\":4018:4021   */\n      dup5\n        /* \"#utility.yul\":4014:4030   */\n      add\n        /* \"#utility.yul\":4007:4030   */\n      swap2\n      pop\n        /* \"#utility.yul\":3758:4036   */\n      pop\n        /* \"#utility.yul\":3650:4036   */\n      swap3\n      swap2\n      pop\n      pop\n      jump\t// out\n        /* \"#utility.yul\":4042:4313   */\n    tag_25:\n        /* \"#utility.yul\":4172:4175   */\n      0x00\n        /* \"#utility.yul\":4194:4287   */\n      tag_95\n        /* \"#utility.yul\":4283:4286   */\n      dup3\n        /* \"#utility.yul\":4274:4280   */\n      dup5\n        /* \"#utility.yul\":4194:4287   */\n      tag_48\n      jump\t// in\n    tag_95:\n        /* \"#utility.yul\":4187:4287   */\n      swap2\n      pop\n        /* \"#utility.yul\":4304:4307   */\n      dup2\n        /* \"#utility.yul\":4297:4307   */\n      swap1\n      pop\n        /* \"#utility.yul\":4042:4313   */\n      swap3\n      swap2\n      pop\n      pop\n      jump\t// out\n\n    auxdata: 0xa26469706673582212201d072d2e15a2f369c78a89734269ad85b118645a0c88e2d136ab73cc6e24071464736f6c634300081e0033\n}\n",
				"bytecode": {
					"linkReferences": {},
					"object": "6080604052348015600e575f5ffd5b5061046d8061001c5f395ff3fe608060405234801561000f575f5ffd5b506004361061004a575f3560e01c80638ae0555a1461004e578063ecbac7cf1461006d578063f38b27431461008b578063f6916492146100a9575b5f5ffd5b6100566100c5565b6040516100649291906102d7565b60405180910390f35b6100756101e0565b604051610082919061031d565b60405180910390f35b6100936101e5565b6040516100a09190610375565b60405180910390f35b6100c360048036038101906100be91906103bc565b61020a565b005b5f60605f5f60015f9054906101000a900473ffffffffffffffffffffffffffffffffffffffff1673ffffffffffffffffffffffffffffffffffffffff166040516024016040516020818303038152906040527f8ae0555a000000000000000000000000000000000000000000000000000000007bffffffffffffffffffffffffffffffffffffffffffffffffffffffff19166020820180517bffffffffffffffffffffffffffffffffffffffffffffffffffffffff83818316178352505050506040516101929190610421565b5f60405180830381855af49150503d805f81146101ca576040519150601f19603f3d011682016040523d82523d5f602084013e6101cf565b606091505b509150915081819350935050509091565b5f5481565b60015f9054906101000a900473ffffffffffffffffffffffffffffffffffffffff1681565b8060015f6101000a81548173ffffffffffffffffffffffffffffffffffffffff021916908373ffffffffffffffffffffffffffffffffffffffff16021790555050565b5f8115159050919050565b6102618161024d565b82525050565b5f81519050919050565b5f82825260208201905092915050565b8281835e5f83830152505050565b5f601f19601f8301169050919050565b5f6102a982610267565b6102b38185610271565b93506102c3818560208601610281565b6102cc8161028f565b840191505092915050565b5f6040820190506102ea5f830185610258565b81810360208301526102fc818461029f565b90509392505050565b5f819050919050565b61031781610305565b82525050565b5f6020820190506103305f83018461030e565b92915050565b5f73ffffffffffffffffffffffffffffffffffffffff82169050919050565b5f61035f82610336565b9050919050565b61036f81610355565b82525050565b5f6020820190506103885f830184610366565b92915050565b5f5ffd5b61039b81610355565b81146103a5575f5ffd5b50565b5f813590506103b681610392565b92915050565b5f602082840312156103d1576103d061038e565b5b5f6103de848285016103a8565b91505092915050565b5f81905092915050565b5f6103fb82610267565b61040581856103e7565b9350610415818560208601610281565b80840191505092915050565b5f61042c82846103f1565b91508190509291505056fea26469706673582212201d072d2e15a2f369c78a89734269ad85b118645a0c88e2d136ab73cc6e24071464736f6c634300081e0033",
					"opcodes": "PUSH1 0x80 PUSH1 0x40 MSTORE CALLVALUE DUP1 ISZERO PUSH1 0xE JUMPI PUSH0 PUSH0 REVERT JUMPDEST POP PUSH2 0x46D DUP1 PUSH2 0x1C PUSH0 CODECOPY PUSH0 RETURN INVALID PUSH1 0x80 PUSH1 0x40 MSTORE CALLVALUE DUP1 ISZERO PUSH2 0xF JUMPI PUSH0 PUSH0 REVERT JUMPDEST POP PUSH1 0x4 CALLDATASIZE LT PUSH2 0x4A JUMPI PUSH0 CALLDATALOAD PUSH1 0xE0 SHR DUP1 PUSH4 0x8AE0555A EQ PUSH2 0x4E JUMPI DUP1 PUSH4 0xECBAC7CF EQ PUSH2 0x6D JUMPI DUP1 PUSH4 0xF38B2743 EQ PUSH2 0x8B JUMPI DUP1 PUSH4 0xF6916492 EQ PUSH2 0xA9 JUMPI JUMPDEST PUSH0 PUSH0 REVERT JUMPDEST PUSH2 0x56 PUSH2 0xC5 JUMP JUMPDEST PUSH1 0x40 MLOAD PUSH2 0x64 SWAP3 SWAP2 SWAP1 PUSH2 0x2D7 JUMP JUMPDEST PUSH1 0x40 MLOAD DUP1 SWAP2 SUB SWAP1 RETURN JUMPDEST PUSH2 0x75 PUSH2 0x1E0 JUMP JUMPDEST PUSH1 0x40 MLOAD PUSH2 0x82 SWAP2 SWAP1 PUSH2 0x31D JUMP JUMPDEST PUSH1 0x40 MLOAD DUP1 SWAP2 SUB SWAP1 RETURN JUMPDEST PUSH2 0x93 PUSH2 0x1E5 JUMP JUMPDEST PUSH1 0x40 MLOAD PUSH2 0xA0 SWAP2 SWAP1 PUSH2 0x375 JUMP JUMPDEST PUSH1 0x40 MLOAD DUP1 SWAP2 SUB SWAP1 RETURN JUMPDEST PUSH2 0xC3 PUSH1 0x4 DUP1 CALLDATASIZE SUB DUP2 ADD SWAP1 PUSH2 0xBE SWAP2 SWAP1 PUSH2 0x3BC JUMP JUMPDEST PUSH2 0x20A JUMP JUMPDEST STOP JUMPDEST PUSH0 PUSH1 0x60 PUSH0 PUSH0 PUSH1 0x1 PUSH0 SWAP1 SLOAD SWAP1 PUSH2 0x100 EXP SWAP1 DIV PUSH20 0xFFFFFFFFFFFFFFFFFFFFFFFFFFFFFFFFFFFFFFFF AND PUSH20 0xFFFFFFFFFFFFFFFFFFFFFFFFFFFFFFFFFFFFFFFF AND PUSH1 0x40 MLOAD PUSH1 0x24 ADD PUSH1 0x40 MLOAD PUSH1 0x20 DUP2 DUP4 SUB SUB DUP2 MSTORE SWAP1 PUSH1 0x40 MSTORE PUSH32 0x8AE0555A00000000000000000000000000000000000000000000000000000000 PUSH28 0xFFFFFFFFFFFFFFFFFFFFFFFFFFFFFFFFFFFFFFFFFFFFFFFFFFFFFFFF NOT AND PUSH1 0x20 DUP3 ADD DUP1 MLOAD PUSH28 0xFFFFFFFFFFFFFFFFFFFFFFFFFFFFFFFFFFFFFFFFFFFFFFFFFFFFFFFF DUP4 DUP2 DUP4 AND OR DUP4 MSTORE POP POP POP POP PUSH1 0x40 MLOAD PUSH2 0x192 SWAP2 SWAP1 PUSH2 0x421 JUMP JUMPDEST PUSH0 PUSH1 0x40 MLOAD DUP1 DUP4 SUB DUP2 DUP6 GAS DELEGATECALL SWAP2 POP POP RETURNDATASIZE DUP1 PUSH0 DUP2 EQ PUSH2 0x1CA JUMPI PUSH1 0x40 MLOAD SWAP2 POP PUSH1 0x1F NOT PUSH1 0x3F RETURNDATASIZE ADD AND DUP3 ADD PUSH1 0x40 MSTORE RETURNDATASIZE DUP3 MSTORE RETURNDATASIZE PUSH0 PUSH1 0x20 DUP5 ADD RETURNDATACOPY PUSH2 0x1CF JUMP JUMPDEST PUSH1 0x60 SWAP2 POP JUMPDEST POP SWAP2 POP SWAP2 POP DUP2 DUP2 SWAP4 POP SWAP4 POP POP POP SWAP1 SWAP2 JUMP JUMPDEST PUSH0 SLOAD DUP2 JUMP JUMPDEST PUSH1 0x1 PUSH0 SWAP1 SLOAD SWAP1 PUSH2 0x100 EXP SWAP1 DIV PUSH20 0xFFFFFFFFFFFFFFFFFFFFFFFFFFFFFFFFFFFFFFFF AND DUP2 JUMP JUMPDEST DUP1 PUSH1 0x1 PUSH0 PUSH2 0x100 EXP DUP2 SLOAD DUP2 PUSH20 0xFFFFFFFFFFFFFFFFFFFFFFFFFFFFFFFFFFFFFFFF MUL NOT AND SWAP1 DUP4 PUSH20 0xFFFFFFFFFFFFFFFFFFFFFFFFFFFFFFFFFFFFFFFF AND MUL OR SWAP1 SSTORE POP POP JUMP JUMPDEST PUSH0 DUP2 ISZERO ISZERO SWAP1 POP SWAP2 SWAP1 POP JUMP JUMPDEST PUSH2 0x261 DUP2 PUSH2 0x24D JUMP JUMPDEST DUP3 MSTORE POP POP JUMP JUMPDEST PUSH0 DUP2 MLOAD SWAP1 POP SWAP2 SWAP1 POP JUMP JUMPDEST PUSH0 DUP3 DUP3 MSTORE PUSH1 0x20 DUP3 ADD SWAP1 POP SWAP3 SWAP2 POP POP JUMP JUMPDEST DUP3 DUP2 DUP4 MCOPY PUSH0 DUP4 DUP4 ADD MSTORE POP POP POP JUMP JUMPDEST PUSH0 PUSH1 0x1F NOT PUSH1 0x1F DUP4 ADD AND SWAP1 POP SWAP2 SWAP1 POP JUMP JUMPDEST PUSH0 PUSH2 0x2A9 DUP3 PUSH2 0x267 JUMP JUMPDEST PUSH2 0x2B3 DUP2 DUP6 PUSH2 0x271 JUMP JUMPDEST SWAP4 POP PUSH2 0x2C3 DUP2 DUP6 PUSH1 0x20 DUP7 ADD PUSH2 0x281 JUMP JUMPDEST PUSH2 0x2CC DUP2 PUSH2 0x28F JUMP JUMPDEST DUP5 ADD SWAP2 POP POP SWAP3 SWAP2 POP POP JUMP JUMPDEST PUSH0 PUSH1 0x40 DUP3 ADD SWAP1 POP PUSH2 0x2EA PUSH0 DUP4 ADD DUP6 PUSH2 0x258 JUMP JUMPDEST DUP2 DUP2 SUB PUSH1 0x20 DUP4 ADD MSTORE PUSH2 0x2FC DUP2 DUP5 PUSH2 0x29F JUMP JUMPDEST SWAP1 POP SWAP4 SWAP3 POP POP POP JUMP JUMPDEST PUSH0 DUP2 SWAP1 POP SWAP2 SWAP1 POP JUMP JUMPDEST PUSH2 0x317 DUP2 PUSH2 0x305 JUMP JUMPDEST DUP3 MSTORE POP POP JUMP JUMPDEST PUSH0 PUSH1 0x20 DUP3 ADD SWAP1 POP PUSH2 0x330 PUSH0 DUP4 ADD DUP5 PUSH2 0x30E JUMP JUMPDEST SWAP3 SWAP2 POP POP JUMP JUMPDEST PUSH0 PUSH20 0xFFFFFFFFFFFFFFFFFFFFFFFFFFFFFFFFFFFFFFFF DUP3 AND SWAP1 POP SWAP2 SWAP1 POP JUMP JUMPDEST PUSH0 PUSH2 0x35F DUP3 PUSH2 0x336 JUMP JUMPDEST SWAP1 POP SWAP2 SWAP1 POP JUMP JUMPDEST PUSH2 0x36F DUP2 PUSH2 0x355 JUMP JUMPDEST DUP3 MSTORE POP POP JUMP JUMPDEST PUSH0 PUSH1 0x20 DUP3 ADD SWAP1 POP PUSH2 0x388 PUSH0 DUP4 ADD DUP5 PUSH2 0x366 JUMP JUMPDEST SWAP3 SWAP2 POP POP JUMP JUMPDEST PUSH0 PUSH0 REVERT JUMPDEST PUSH2 0x39B DUP2 PUSH2 0x355 JUMP JUMPDEST DUP2 EQ PUSH2 0x3A5 JUMPI PUSH0 PUSH0 REVERT JUMPDEST POP JUMP JUMPDEST PUSH0 DUP2 CALLDATALOAD SWAP1 POP PUSH2 0x3B6 DUP2 PUSH2 0x392 JUMP JUMPDEST SWAP3 SWAP2 POP POP JUMP JUMPDEST PUSH0 PUSH1 0x20 DUP3 DUP5 SUB SLT ISZERO PUSH2 0x3D1 JUMPI PUSH2 0x3D0 PUSH2 0x38E JUMP JUMPDEST JUMPDEST PUSH0 PUSH2 0x3DE DUP5 DUP3 DUP6 ADD PUSH2 0x3A8 JUMP JUMPDEST SWAP2 POP POP SWAP3 SWAP2 POP POP JUMP JUMPDEST PUSH0 DUP2 SWAP1 POP SWAP3 SWAP2 POP POP JUMP JUMPDEST PUSH0 PUSH2 0x3FB DUP3 PUSH2 0x267 JUMP JUMPDEST PUSH2 0x405 DUP2 DUP6 PUSH2 0x3E7 JUMP JUMPDEST SWAP4 POP PUSH2 0x415 DUP2 DUP6 PUSH1 0x20 DUP7 ADD PUSH2 0x281 JUMP JUMPDEST DUP1 DUP5 ADD SWAP2 POP POP SWAP3 SWAP2 POP POP JUMP JUMPDEST PUSH0 PUSH2 0x42C DUP3 DUP5 PUSH2 0x3F1 JUMP JUMPDEST SWAP2 POP DUP2 SWAP1 POP SWAP3 SWAP2 POP POP JUMP INVALID LOG2 PUSH5 0x6970667358 0x22 SLT KECCAK256 SAR SMOD 0x2D 0x2E ISZERO LOG2 RETURN PUSH10 0xC78A89734269AD85B118 PUSH5 0x5A0C88E2D1 CALLDATASIZE 0xAB PUSH20 0xCC6E24071464736F6C634300081E003300000000 "
				},
				"gasEstimates": {
					"creation": {
						"codeDepositCost": "226600",
						"executionCost": "267",
						"totalCost": "226867"
					},
					"external": {
						"alterarEndereco(address)": "24759",
						"alterarValor()": "infinite",
						"endereco()": "2530",
						"valor()": "2424"
					}
				},
				"methodIdentifiers": {
					"alterarEndereco(address)": "f6916492",
					"alterarValor()": "8ae0555a",
					"endereco()": "f38b2743",
					"valor()": "ecbac7cf"
				}
			},
			"storageLayout": {
				"storage": [
					{
						"astId": 37,
						"contract": "Introdução ao Solidity/Aprenda Solidity/Fazendo upgrade de contratos.sol:upgradable",
						"label": "valor",
						"offset": 0,
						"slot": "0",
						"type": "t_uint256"
					},
					{
						"astId": 39,
						"contract": "Introdução ao Solidity/Aprenda Solidity/Fazendo upgrade de contratos.sol:upgradable",
						"label": "endereco",
						"offset": 0,
						"slot": "1",
						"type": "t_address"
					}
				],
				"types": {
					"t_address": {
						"encoding": "inplace",
						"label": "address",
						"numberOfBytes": "20"
					},
					"t_uint256": {
						"encoding": "inplace",
						"label": "uint256",
						"numberOfBytes": "32"
					}
				}
			},
			"userdoc": {
				"kind": "user",
				"methods": {},
				"version": 1
			}
		}
	}
}