{
	"Introdução ao Solidity/Aprenda Solidity/Fazendo upgrade de contratos.sol": {
		"Caixa": {
			"abi": [
				{
					"inputs": [],
					"name": "alterarValor",
					"outputs": [
						{
							"internalType": "uint256",
							"name": "",
							"type": "uint256"
						}
					],
					"stateMutability": "nonpayable",
					"type": "function"
				}
			],
			"devdoc": {
				"kind": "dev",
				"methods": {},
				"version": 1
			},
			"evm": {
				"assembly": "    /* \"Introdu\\xc3\\xa7\\xc3\\xa3o ao Solidity/Aprenda Solidity/Fazendo upgrade de contratos.sol\":58:199  contract Caixa{... */\n  mstore(0x40, 0x80)\n  callvalue\n  dup1\n  iszero\n  tag_1\n  jumpi\n  revert(0x00, 0x00)\ntag_1:\n  pop\n  dataSize(sub_0)\n  dup1\n  dataOffset(sub_0)\n  0x00\n  codecopy\n  0x00\n  return\nstop\n\nsub_0: assembly {\n        /* \"Introdu\\xc3\\xa7\\xc3\\xa3o ao Solidity/Aprenda Solidity/Fazendo upgrade de contratos.sol\":58:199  contract Caixa{... */\n      mstore(0x40, 0x80)\n      callvalue\n      dup1\n      iszero\n      tag_1\n      jumpi\n      revert(0x00, 0x00)\n    tag_1:\n      pop\n      jumpi(tag_2, lt(calldatasize, 0x04))\n      shr(0xe0, calldataload(0x00))\n      dup1\n      0x8ae0555a\n      eq\n      tag_3\n      jumpi\n    tag_2:\n      revert(0x00, 0x00)\n        /* \"Introdu\\xc3\\xa7\\xc3\\xa3o ao Solidity/Aprenda Solidity/Fazendo upgrade de contratos.sol\":96:197  function alterarValor() public returns (uint){... */\n    tag_3:\n      tag_4\n      tag_5\n      jump\t// in\n    tag_4:\n      mload(0x40)\n      tag_6\n      swap2\n      swap1\n      tag_7\n      jump\t// in\n    tag_6:\n      mload(0x40)\n      dup1\n      swap2\n      sub\n      swap1\n      return\n    tag_5:\n        /* \"Introdu\\xc3\\xa7\\xc3\\xa3o ao Solidity/Aprenda Solidity/Fazendo upgrade de contratos.sol\":136:140  uint */\n      0x00\n        /* \"Introdu\\xc3\\xa7\\xc3\\xa3o ao Solidity/Aprenda Solidity/Fazendo upgrade de contratos.sol\":167:168  2 */\n      0x02\n        /* \"Introdu\\xc3\\xa7\\xc3\\xa3o ao Solidity/Aprenda Solidity/Fazendo upgrade de contratos.sol\":159:164  valor */\n      sload(0x00)\n        /* \"Introdu\\xc3\\xa7\\xc3\\xa3o ao Solidity/Aprenda Solidity/Fazendo upgrade de contratos.sol\":159:168  valor + 2 */\n      tag_9\n      swap2\n      swap1\n      tag_10\n      jump\t// in\n    tag_9:\n        /* \"Introdu\\xc3\\xa7\\xc3\\xa3o ao Solidity/Aprenda Solidity/Fazendo upgrade de contratos.sol\":151:156  valor */\n      0x00\n        /* \"Introdu\\xc3\\xa7\\xc3\\xa3o ao Solidity/Aprenda Solidity/Fazendo upgrade de contratos.sol\":151:168  valor = valor + 2 */\n      dup2\n      swap1\n      sstore\n      pop\n        /* \"Introdu\\xc3\\xa7\\xc3\\xa3o ao Solidity/Aprenda Solidity/Fazendo upgrade de contratos.sol\":185:190  valor */\n      sload(0x00)\n        /* \"Introdu\\xc3\\xa7\\xc3\\xa3o ao Solidity/Aprenda Solidity/Fazendo upgrade de contratos.sol\":178:190  return valor */\n      swap1\n      pop\n        /* \"Introdu\\xc3\\xa7\\xc3\\xa3o ao Solidity/Aprenda Solidity/Fazendo upgrade de contratos.sol\":96:197  function alterarValor() public returns (uint){... */\n      swap1\n      jump\t// out\n        /* \"#utility.yul\":7:84   */\n    tag_11:\n        /* \"#utility.yul\":44:51   */\n      0x00\n        /* \"#utility.yul\":73:78   */\n      dup2\n        /* \"#utility.yul\":62:78   */\n      swap1\n      pop\n        /* \"#utility.yul\":7:84   */\n      swap2\n      swap1\n      pop\n      jump\t// out\n        /* \"#utility.yul\":90:208   */\n    tag_12:\n        /* \"#utility.yul\":177:201   */\n      tag_17\n        /* \"#utility.yul\":195:200   */\n      dup2\n        /* \"#utility.yul\":177:201   */\n      tag_11\n      jump\t// in\n    tag_17:\n        /* \"#utility.yul\":172:175   */\n      dup3\n        /* \"#utility.yul\":165:202   */\n      mstore\n        /* \"#utility.yul\":90:208   */\n      pop\n      pop\n      jump\t// out\n        /* \"#utility.yul\":214:436   */\n    tag_7:\n        /* \"#utility.yul\":307:311   */\n      0x00\n        /* \"#utility.yul\":345:347   */\n      0x20\n        /* \"#utility.yul\":334:343   */\n      dup3\n        /* \"#utility.yul\":330:348   */\n      add\n        /* \"#utility.yul\":322:348   */\n      swap1\n      pop\n        /* \"#utility.yul\":358:429   */\n      tag_19\n        /* \"#utility.yul\":426:427   */\n      0x00\n        /* \"#utility.yul\":415:424   */\n      dup4\n        /* \"#utility.yul\":411:428   */\n      add\n        /* \"#utility.yul\":402:408   */\n      dup5\n        /* \"#utility.yul\":358:429   */\n      tag_12\n      jump\t// in\n    tag_19:\n        /* \"#utility.yul\":214:436   */\n      swap3\n      swap2\n      pop\n      pop\n      jump\t// out\n        /* \"#utility.yul\":442:622   */\n    tag_13:\n        /* \"#utility.yul\":490:567   */\n      0x4e487b7100000000000000000000000000000000000000000000000000000000\n        /* \"#utility.yul\":487:488   */\n      0x00\n        /* \"#utility.yul\":480:568   */\n      mstore\n        /* \"#utility.yul\":587:591   */\n      0x11\n        /* \"#utility.yul\":584:585   */\n      0x04\n        /* \"#utility.yul\":577:592   */\n      mstore\n        /* \"#utility.yul\":611:615   */\n      0x24\n        /* \"#utility.yul\":608:609   */\n      0x00\n        /* \"#utility.yul\":601:616   */\n      revert\n        /* \"#utility.yul\":628:819   */\n    tag_10:\n        /* \"#utility.yul\":668:671   */\n      0x00\n        /* \"#utility.yul\":687:707   */\n      tag_22\n        /* \"#utility.yul\":705:706   */\n      dup3\n        /* \"#utility.yul\":687:707   */\n      tag_11\n      jump\t// in\n    tag_22:\n        /* \"#utility.yul\":682:707   */\n      swap2\n      pop\n        /* \"#utility.yul\":721:741   */\n      tag_23\n        /* \"#utility.yul\":739:740   */\n      dup4\n        /* \"#utility.yul\":721:741   */\n      tag_11\n      jump\t// in\n    tag_23:\n        /* \"#utility.yul\":716:741   */\n      swap3\n      pop\n        /* \"#utility.yul\":764:765   */\n      dup3\n        /* \"#utility.yul\":761:762   */\n      dup3\n        /* \"#utility.yul\":757:766   */\n      add\n        /* \"#utility.yul\":750:766   */\n      swap1\n      pop\n        /* \"#utility.yul\":785:788   */\n      dup1\n        /* \"#utility.yul\":782:783   */\n      dup3\n        /* \"#utility.yul\":779:789   */\n      gt\n        /* \"#utility.yul\":776:812   */\n      iszero\n      tag_24\n      jumpi\n        /* \"#utility.yul\":792:810   */\n      tag_25\n      tag_13\n      jump\t// in\n    tag_25:\n        /* \"#utility.yul\":776:812   */\n    tag_24:\n        /* \"#utility.yul\":628:819   */\n      swap3\n      swap2\n      pop\n      pop\n      jump\t// out\n\n    auxdata: 0xa2646970667358221220fefcf7baa31067fdffecd9b8dcb6dbf69064d4fbcd07f4d8de69528e2d49b01c64736f6c634300081e0033\n}\n",
				"bytecode": {
					"linkReferences": {},
					"object": "6080604052348015600e575f5ffd5b506101198061001c5f395ff3fe6080604052348015600e575f5ffd5b50600436106026575f3560e01c80638ae0555a14602a575b5f5ffd5b60306044565b604051603b91906073565b60405180910390f35b5f60025f546051919060b7565b5f819055505f54905090565b5f819050919050565b606d81605d565b82525050565b5f60208201905060845f8301846066565b92915050565b7f4e487b71000000000000000000000000000000000000000000000000000000005f52601160045260245ffd5b5f60bf82605d565b915060c883605d565b925082820190508082111560dd5760dc608a565b5b9291505056fea2646970667358221220fefcf7baa31067fdffecd9b8dcb6dbf69064d4fbcd07f4d8de69528e2d49b01c64736f6c634300081e0033",
					"opcodes": "PUSH1 0x80 PUSH1 0x40 MSTORE CALLVALUE DUP1 ISZERO PUSH1 0xE JUMPI PUSH0 PUSH0 REVERT JUMPDEST POP PUSH2 0x119 DUP1 PUSH2 0x1C PUSH0 CODECOPY PUSH0 RETURN INVALID PUSH1 0x80 PUSH1 0x40 MSTORE CALLVALUE DUP1 ISZERO PUSH1 0xE JUMPI PUSH0 PUSH0 REVERT JUMPDEST POP PUSH1 0x4 CALLDATASIZE LT PUSH1 0x26 JUMPI PUSH0 CALLDATALOAD PUSH1 0xE0 SHR DUP1 PUSH4 0x8AE0555A EQ PUSH1 0x2A JUMPI JUMPDEST PUSH0 PUSH0 REVERT JUMPDEST PUSH1 0x30 PUSH1 0x44 JUMP JUMPDEST PUSH1 0x40 MLOAD PUSH1 0x3B SWAP2 SWAP1 PUSH1 0x73 JUMP JUMPDEST PUSH1 0x40 MLOAD DUP1 SWAP2 SUB SWAP1 RETURN JUMPDEST PUSH0 PUSH1 0x2 PUSH0 SLOAD PUSH1 0x51 SWAP2 SWAP1 PUSH1 0xB7 JUMP JUMPDEST PUSH0 DUP2 SWAP1 SSTORE POP PUSH0 SLOAD SWAP1 POP SWAP1 JUMP JUMPDEST PUSH0 DUP2 SWAP1 POP SWAP2 SWAP1 POP JUMP JUMPDEST PUSH1 0x6D DUP2 PUSH1 0x5D JUMP JUMPDEST DUP3 MSTORE POP POP JUMP JUMPDEST PUSH0 PUSH1 0x20 DUP3 ADD SWAP1 POP PUSH1 0x84 PUSH0 DUP4 ADD DUP5 PUSH1 0x66 JUMP JUMPDEST SWAP3 SWAP2 POP POP JUMP JUMPDEST PUSH32 0x4E487B7100000000000000000000000000000000000000000000000000000000 PUSH0 MSTORE PUSH1 0x11 PUSH1 0x4 MSTORE PUSH1 0x24 PUSH0 REVERT JUMPDEST PUSH0 PUSH1 0xBF DUP3 PUSH1 0x5D JUMP JUMPDEST SWAP2 POP PUSH1 0xC8 DUP4 PUSH1 0x5D JUMP JUMPDEST SWAP3 POP DUP3 DUP3 ADD SWAP1 POP DUP1 DUP3 GT ISZERO PUSH1 0xDD JUMPI PUSH1 0xDC PUSH1 0x8A JUMP JUMPDEST JUMPDEST SWAP3 SWAP2 POP POP JUMP INVALID LOG2 PUSH5 0x6970667358 0x22 SLT KECCAK256 INVALID 0xFC 0xF7 0xBA LOG3 LT PUSH8 0xFDFFECD9B8DCB6DB 0xF6 SWAP1 PUSH5 0xD4FBCD07F4 0xD8 0xDE PUSH10 0x528E2D49B01C64736F6C PUSH4 0x4300081E STOP CALLER "
				},
				"gasEstimates": {
					"creation": {
						"codeDepositCost": "56200",
						"executionCost": "103",
						"totalCost": "56303"
					},
					"external": {
						"alterarValor()": "infinite"
					}
				},
				"methodIdentifiers": {
					"alterarValor()": "8ae0555a"
				}
			},
			"storageLayout": {
				"storage": [
					{
						"astId": 3,
						"contract": "Introdução ao Solidity/Aprenda Solidity/Fazendo upgrade de contratos.sol:Caixa",
						"label": "valor",
						"offset": 0,
						"slot": "0",
						"type": "t_uint256"
					}
				],
				"types": {
					"t_uint256": {
						"encoding": "inplace",
						"label": "uint256",
						"numberOfBytes": "32"
					}
				}
			},
			"userdoc": {
				"kind": "user",
				"methods": {},
				"version": 1
			}
		}
	}
}