{
	"Introdução ao Solidity/Aprenda Solidity/ABI.encode.sol": {
		"Encode": {
			"abi": [
				{
					"inputs": [
						{
							"internalType": "string",
							"name": "s1",
							"type": "string"
						},
						{
							"internalType": "string",
							"name": "s2",
							"type": "string"
						}
					],
					"name": "concatena",
					"outputs": [
						{
							"internalType": "string",
							"name": "",
							"type": "string"
						}
					],
					"stateMutability": "pure",
					"type": "function"
				},
				{
					"inputs": [
						{
							"internalType": "bytes",
							"name": "_valor",
							"type": "bytes"
						}
					],
					"name": "decode",
					"outputs": [
						{
							"internalType": "uint256",
							"name": "",
							"type": "uint256"
						},
						{
							"internalType": "uint256",
							"name": "",
							"type": "uint256"
						},
						{
							"internalType": "string",
							"name": "",
							"type": "string"
						},
						{
							"internalType": "bool",
							"name": "",
							"type": "bool"
						}
					],
					"stateMutability": "pure",
					"type": "function"
				},
				{
					"inputs": [],
					"name": "encode",
					"outputs": [
						{
							"internalType": "bytes",
							"name": "",
							"type": "bytes"
						}
					],
					"stateMutability": "pure",
					"type": "function"
				},
				{
					"inputs": [],
					"name": "encodePacote",
					"outputs": [
						{
							"internalType": "bytes",
							"name": "",
							"type": "bytes"
						}
					],
					"stateMutability": "pure",
					"type": "function"
				},
				{
					"inputs": [],
					"name": "encodeSignature",
					"outputs": [
						{
							"internalType": "bytes",
							"name": "",
							"type": "bytes"
						}
					],
					"stateMutability": "pure",
					"type": "function"
				}
			],
			"devdoc": {
				"kind": "dev",
				"methods": {},
				"version": 1
			},
			"evm": {
				"assembly": "    /* \"Introdu\\xc3\\xa7\\xc3\\xa3o ao Solidity/Aprenda Solidity/ABI.encode.sol\":61:817  contract Encode{... */\n  mstore(0x40, 0x80)\n  callvalue\n  dup1\n  iszero\n  tag_1\n  jumpi\n  revert(0x00, 0x00)\ntag_1:\n  pop\n  dataSize(sub_0)\n  dup1\n  dataOffset(sub_0)\n  0x00\n  codecopy\n  0x00\n  return\nstop\n\nsub_0: assembly {\n        /* \"Introdu\\xc3\\xa7\\xc3\\xa3o ao Solidity/Aprenda Solidity/ABI.encode.sol\":61:817  contract Encode{... */\n      mstore(0x40, 0x80)\n      callvalue\n      dup1\n      iszero\n      tag_1\n      jumpi\n      revert(0x00, 0x00)\n    tag_1:\n      pop\n      jumpi(tag_2, lt(calldatasize, 0x04))\n      shr(0xe0, calldataload(0x00))\n      dup1\n      0x1641deba\n      eq\n      tag_3\n      jumpi\n      dup1\n      0x434b405e\n      eq\n      tag_4\n      jumpi\n      dup1\n      0x7a7cbf93\n      eq\n      tag_5\n      jumpi\n      dup1\n      0xbd14598f\n      eq\n      tag_6\n      jumpi\n      dup1\n      0xe5c5e9a3\n      eq\n      tag_7\n      jumpi\n    tag_2:\n      revert(0x00, 0x00)\n        /* \"Introdu\\xc3\\xa7\\xc3\\xa3o ao Solidity/Aprenda Solidity/ABI.encode.sol\":666:814  function concatena(string memory s1, string memory s2) public pure returns (string memory){... */\n    tag_3:\n      tag_8\n      0x04\n      dup1\n      calldatasize\n      sub\n      dup2\n      add\n      swap1\n      tag_9\n      swap2\n      swap1\n      tag_10\n      jump\t// in\n    tag_9:\n      tag_11\n      jump\t// in\n    tag_8:\n      mload(0x40)\n      tag_12\n      swap2\n      swap1\n      tag_13\n      jump\t// in\n    tag_12:\n      mload(0x40)\n      dup1\n      swap2\n      sub\n      swap1\n      return\n        /* \"Introdu\\xc3\\xa7\\xc3\\xa3o ao Solidity/Aprenda Solidity/ABI.encode.sol\":518:658  function encodePacote() public pure returns (bytes memory){... */\n    tag_4:\n      tag_14\n      tag_15\n      jump\t// in\n    tag_14:\n      mload(0x40)\n      tag_16\n      swap2\n      swap1\n      tag_17\n      jump\t// in\n    tag_16:\n      mload(0x40)\n      dup1\n      swap2\n      sub\n      swap1\n      return\n        /* \"Introdu\\xc3\\xa7\\xc3\\xa3o ao Solidity/Aprenda Solidity/ABI.encode.sol\":205:338  function encodeSignature() public pure returns (bytes memory){... */\n    tag_5:\n      tag_18\n      tag_19\n      jump\t// in\n    tag_18:\n      mload(0x40)\n      tag_20\n      swap2\n      swap1\n      tag_17\n      jump\t// in\n    tag_20:\n      mload(0x40)\n      dup1\n      swap2\n      sub\n      swap1\n      return\n        /* \"Introdu\\xc3\\xa7\\xc3\\xa3o ao Solidity/Aprenda Solidity/ABI.encode.sol\":85:197  function encode() public pure returns (bytes memory){... */\n    tag_6:\n      tag_21\n      tag_22\n      jump\t// in\n    tag_21:\n      mload(0x40)\n      tag_23\n      swap2\n      swap1\n      tag_17\n      jump\t// in\n    tag_23:\n      mload(0x40)\n      dup1\n      swap2\n      sub\n      swap1\n      return\n        /* \"Introdu\\xc3\\xa7\\xc3\\xa3o ao Solidity/Aprenda Solidity/ABI.encode.sol\":346:510  function decode(bytes calldata _valor) public pure returns (uint, uint, string memory, bool){... */\n    tag_7:\n      tag_24\n      0x04\n      dup1\n      calldatasize\n      sub\n      dup2\n      add\n      swap1\n      tag_25\n      swap2\n      swap1\n      tag_26\n      jump\t// in\n    tag_25:\n      tag_27\n      jump\t// in\n    tag_24:\n      mload(0x40)\n      tag_28\n      swap5\n      swap4\n      swap3\n      swap2\n      swap1\n      tag_29\n      jump\t// in\n    tag_28:\n      mload(0x40)\n      dup1\n      swap2\n      sub\n      swap1\n      return\n        /* \"Introdu\\xc3\\xa7\\xc3\\xa3o ao Solidity/Aprenda Solidity/ABI.encode.sol\":666:814  function concatena(string memory s1, string memory s2) public pure returns (string memory){... */\n    tag_11:\n        /* \"Introdu\\xc3\\xa7\\xc3\\xa3o ao Solidity/Aprenda Solidity/ABI.encode.sol\":742:755  string memory */\n      0x60\n        /* \"Introdu\\xc3\\xa7\\xc3\\xa3o ao Solidity/Aprenda Solidity/ABI.encode.sol\":798:800  s1 */\n      dup3\n        /* \"Introdu\\xc3\\xa7\\xc3\\xa3o ao Solidity/Aprenda Solidity/ABI.encode.sol\":802:804  s2 */\n      dup3\n        /* \"Introdu\\xc3\\xa7\\xc3\\xa3o ao Solidity/Aprenda Solidity/ABI.encode.sol\":781:805  abi.encodePacked(s1, s2) */\n      add(0x20, mload(0x40))\n      tag_31\n      swap3\n      swap2\n      swap1\n      tag_32\n      jump\t// in\n    tag_31:\n      mload(0x40)\n      0x20\n      dup2\n      dup4\n      sub\n      sub\n      dup2\n      mstore\n      swap1\n      0x40\n      mstore\n        /* \"Introdu\\xc3\\xa7\\xc3\\xa3o ao Solidity/Aprenda Solidity/ABI.encode.sol\":767:806  return string(abi.encodePacked(s1, s2)) */\n      swap1\n      pop\n        /* \"Introdu\\xc3\\xa7\\xc3\\xa3o ao Solidity/Aprenda Solidity/ABI.encode.sol\":666:814  function concatena(string memory s1, string memory s2) public pure returns (string memory){... */\n      swap3\n      swap2\n      pop\n      pop\n      jump\t// out\n        /* \"Introdu\\xc3\\xa7\\xc3\\xa3o ao Solidity/Aprenda Solidity/ABI.encode.sol\":518:658  function encodePacote() public pure returns (bytes memory){... */\n    tag_15:\n        /* \"Introdu\\xc3\\xa7\\xc3\\xa3o ao Solidity/Aprenda Solidity/ABI.encode.sol\":563:575  bytes memory */\n      0x60\n        /* \"Introdu\\xc3\\xa7\\xc3\\xa3o ao Solidity/Aprenda Solidity/ABI.encode.sol\":618:619  3 */\n      0x03\n        /* \"Introdu\\xc3\\xa7\\xc3\\xa3o ao Solidity/Aprenda Solidity/ABI.encode.sol\":630:631  7 */\n      0x07\n        /* \"Introdu\\xc3\\xa7\\xc3\\xa3o ao Solidity/Aprenda Solidity/ABI.encode.sol\":634:649  string (\"Eryc\") */\n      mload(0x40)\n      dup1\n      0x40\n      add\n      0x40\n      mstore\n      dup1\n      0x04\n      dup2\n      mstore\n      0x20\n      add\n      0x4572796300000000000000000000000000000000000000000000000000000000\n      dup2\n      mstore\n      pop\n        /* \"Introdu\\xc3\\xa7\\xc3\\xa3o ao Solidity/Aprenda Solidity/ABI.encode.sol\":594:650  abi.encodePacked(uint8 (3), uint16 (7), string (\"Eryc\")) */\n      add(0x20, mload(0x40))\n      tag_34\n      swap4\n      swap3\n      swap2\n      swap1\n      tag_35\n      jump\t// in\n    tag_34:\n      mload(0x40)\n      0x20\n      dup2\n      dup4\n      sub\n      sub\n      dup2\n      mstore\n      swap1\n      0x40\n      mstore\n        /* \"Introdu\\xc3\\xa7\\xc3\\xa3o ao Solidity/Aprenda Solidity/ABI.encode.sol\":587:650  return abi.encodePacked(uint8 (3), uint16 (7), string (\"Eryc\")) */\n      swap1\n      pop\n        /* \"Introdu\\xc3\\xa7\\xc3\\xa3o ao Solidity/Aprenda Solidity/ABI.encode.sol\":518:658  function encodePacote() public pure returns (bytes memory){... */\n      swap1\n      jump\t// out\n        /* \"Introdu\\xc3\\xa7\\xc3\\xa3o ao Solidity/Aprenda Solidity/ABI.encode.sol\":205:338  function encodeSignature() public pure returns (bytes memory){... */\n    tag_19:\n        /* \"Introdu\\xc3\\xa7\\xc3\\xa3o ao Solidity/Aprenda Solidity/ABI.encode.sol\":253:265  bytes memory */\n      0x60\n        /* \"Introdu\\xc3\\xa7\\xc3\\xa3o ao Solidity/Aprenda Solidity/ABI.encode.sol\":328:329  5 */\n      0x05\n        /* \"Introdu\\xc3\\xa7\\xc3\\xa3o ao Solidity/Aprenda Solidity/ABI.encode.sol\":284:330  abi.encodeWithSignature(\"encoode(uint256)\", 5) */\n      add(0x24, mload(0x40))\n      tag_37\n      swap2\n      swap1\n      tag_38\n      jump\t// in\n    tag_37:\n      mload(0x40)\n      0x20\n      dup2\n      dup4\n      sub\n      sub\n      dup2\n      mstore\n      swap1\n      0x40\n      mstore\n      and(not(0xffffffffffffffffffffffffffffffffffffffffffffffffffffffff), 0xab5c160100000000000000000000000000000000000000000000000000000000)\n      0x20\n      dup3\n      add\n      dup1\n      mload\n      0xffffffffffffffffffffffffffffffffffffffffffffffffffffffff\n      dup4\n      dup2\n      dup4\n      and\n      or\n      dup4\n      mstore\n      pop\n      pop\n      pop\n      pop\n        /* \"Introdu\\xc3\\xa7\\xc3\\xa3o ao Solidity/Aprenda Solidity/ABI.encode.sol\":277:330  return abi.encodeWithSignature(\"encoode(uint256)\", 5) */\n      swap1\n      pop\n        /* \"Introdu\\xc3\\xa7\\xc3\\xa3o ao Solidity/Aprenda Solidity/ABI.encode.sol\":205:338  function encodeSignature() public pure returns (bytes memory){... */\n      swap1\n      jump\t// out\n        /* \"Introdu\\xc3\\xa7\\xc3\\xa3o ao Solidity/Aprenda Solidity/ABI.encode.sol\":85:197  function encode() public pure returns (bytes memory){... */\n    tag_22:\n        /* \"Introdu\\xc3\\xa7\\xc3\\xa3o ao Solidity/Aprenda Solidity/ABI.encode.sol\":124:136  bytes memory */\n      0x60\n        /* \"Introdu\\xc3\\xa7\\xc3\\xa3o ao Solidity/Aprenda Solidity/ABI.encode.sol\":166:170  2025 */\n      0x07e9\n        /* \"Introdu\\xc3\\xa7\\xc3\\xa3o ao Solidity/Aprenda Solidity/ABI.encode.sol\":172:174  20 */\n      0x14\n        /* \"Introdu\\xc3\\xa7\\xc3\\xa3o ao Solidity/Aprenda Solidity/ABI.encode.sol\":184:188  true */\n      0x01\n        /* \"Introdu\\xc3\\xa7\\xc3\\xa3o ao Solidity/Aprenda Solidity/ABI.encode.sol\":155:189  abi.encode(2025, 20, \"Eryc\", true) */\n      add(0x20, mload(0x40))\n      tag_40\n      swap4\n      swap3\n      swap2\n      swap1\n      tag_41\n      jump\t// in\n    tag_40:\n      mload(0x40)\n      0x20\n      dup2\n      dup4\n      sub\n      sub\n      dup2\n      mstore\n      swap1\n      0x40\n      mstore\n        /* \"Introdu\\xc3\\xa7\\xc3\\xa3o ao Solidity/Aprenda Solidity/ABI.encode.sol\":148:189  return abi.encode(2025, 20, \"Eryc\", true) */\n      swap1\n      pop\n        /* \"Introdu\\xc3\\xa7\\xc3\\xa3o ao Solidity/Aprenda Solidity/ABI.encode.sol\":85:197  function encode() public pure returns (bytes memory){... */\n      swap1\n      jump\t// out\n        /* \"Introdu\\xc3\\xa7\\xc3\\xa3o ao Solidity/Aprenda Solidity/ABI.encode.sol\":346:510  function decode(bytes calldata _valor) public pure returns (uint, uint, string memory, bool){... */\n    tag_27:\n        /* \"Introdu\\xc3\\xa7\\xc3\\xa3o ao Solidity/Aprenda Solidity/ABI.encode.sol\":406:410  uint */\n      0x00\n        /* \"Introdu\\xc3\\xa7\\xc3\\xa3o ao Solidity/Aprenda Solidity/ABI.encode.sol\":412:416  uint */\n      0x00\n        /* \"Introdu\\xc3\\xa7\\xc3\\xa3o ao Solidity/Aprenda Solidity/ABI.encode.sol\":418:431  string memory */\n      0x60\n        /* \"Introdu\\xc3\\xa7\\xc3\\xa3o ao Solidity/Aprenda Solidity/ABI.encode.sol\":433:437  bool */\n      0x00\n        /* \"Introdu\\xc3\\xa7\\xc3\\xa3o ao Solidity/Aprenda Solidity/ABI.encode.sol\":467:473  _valor */\n      dup6\n      dup6\n        /* \"Introdu\\xc3\\xa7\\xc3\\xa3o ao Solidity/Aprenda Solidity/ABI.encode.sol\":456:502  abi.decode(_valor, (uint, uint, string, bool)) */\n      dup2\n      add\n      swap1\n      tag_43\n      swap2\n      swap1\n      tag_44\n      jump\t// in\n    tag_43:\n        /* \"Introdu\\xc3\\xa7\\xc3\\xa3o ao Solidity/Aprenda Solidity/ABI.encode.sol\":449:502  return abi.decode(_valor, (uint, uint, string, bool)) */\n      swap4\n      pop\n      swap4\n      pop\n      swap4\n      pop\n      swap4\n      pop\n        /* \"Introdu\\xc3\\xa7\\xc3\\xa3o ao Solidity/Aprenda Solidity/ABI.encode.sol\":346:510  function decode(bytes calldata _valor) public pure returns (uint, uint, string memory, bool){... */\n      swap3\n      swap6\n      swap2\n      swap5\n      pop\n      swap3\n      pop\n      jump\t// out\n        /* \"#utility.yul\":7:82   */\n    tag_45:\n        /* \"#utility.yul\":40:46   */\n      0x00\n        /* \"#utility.yul\":73:75   */\n      0x40\n        /* \"#utility.yul\":67:76   */\n      mload\n        /* \"#utility.yul\":57:76   */\n      swap1\n      pop\n        /* \"#utility.yul\":7:82   */\n      swap1\n      jump\t// out\n        /* \"#utility.yul\":88:205   */\n    tag_46:\n        /* \"#utility.yul\":197:198   */\n      0x00\n        /* \"#utility.yul\":194:195   */\n      0x00\n        /* \"#utility.yul\":187:199   */\n      revert\n        /* \"#utility.yul\":211:328   */\n    tag_47:\n        /* \"#utility.yul\":320:321   */\n      0x00\n        /* \"#utility.yul\":317:318   */\n      0x00\n        /* \"#utility.yul\":310:322   */\n      revert\n        /* \"#utility.yul\":334:451   */\n    tag_48:\n        /* \"#utility.yul\":443:444   */\n      0x00\n        /* \"#utility.yul\":440:441   */\n      0x00\n        /* \"#utility.yul\":433:445   */\n      revert\n        /* \"#utility.yul\":457:574   */\n    tag_49:\n        /* \"#utility.yul\":566:567   */\n      0x00\n        /* \"#utility.yul\":563:564   */\n      0x00\n        /* \"#utility.yul\":556:568   */\n      revert\n        /* \"#utility.yul\":580:682   */\n    tag_50:\n        /* \"#utility.yul\":621:627   */\n      0x00\n        /* \"#utility.yul\":672:674   */\n      0x1f\n        /* \"#utility.yul\":668:675   */\n      not\n        /* \"#utility.yul\":663:665   */\n      0x1f\n        /* \"#utility.yul\":656:661   */\n      dup4\n        /* \"#utility.yul\":652:666   */\n      add\n        /* \"#utility.yul\":648:676   */\n      and\n        /* \"#utility.yul\":638:676   */\n      swap1\n      pop\n        /* \"#utility.yul\":580:682   */\n      swap2\n      swap1\n      pop\n      jump\t// out\n        /* \"#utility.yul\":688:868   */\n    tag_51:\n        /* \"#utility.yul\":736:813   */\n      0x4e487b7100000000000000000000000000000000000000000000000000000000\n        /* \"#utility.yul\":733:734   */\n      0x00\n        /* \"#utility.yul\":726:814   */\n      mstore\n        /* \"#utility.yul\":833:837   */\n      0x41\n        /* \"#utility.yul\":830:831   */\n      0x04\n        /* \"#utility.yul\":823:838   */\n      mstore\n        /* \"#utility.yul\":857:861   */\n      0x24\n        /* \"#utility.yul\":854:855   */\n      0x00\n        /* \"#utility.yul\":847:862   */\n      revert\n        /* \"#utility.yul\":874:1155   */\n    tag_52:\n        /* \"#utility.yul\":957:984   */\n      tag_107\n        /* \"#utility.yul\":979:983   */\n      dup3\n        /* \"#utility.yul\":957:984   */\n      tag_50\n      jump\t// in\n    tag_107:\n        /* \"#utility.yul\":949:955   */\n      dup2\n        /* \"#utility.yul\":945:985   */\n      add\n        /* \"#utility.yul\":1087:1093   */\n      dup2\n        /* \"#utility.yul\":1075:1085   */\n      dup2\n        /* \"#utility.yul\":1072:1094   */\n      lt\n        /* \"#utility.yul\":1051:1069   */\n      0xffffffffffffffff\n        /* \"#utility.yul\":1039:1049   */\n      dup3\n        /* \"#utility.yul\":1036:1070   */\n      gt\n        /* \"#utility.yul\":1033:1095   */\n      or\n        /* \"#utility.yul\":1030:1118   */\n      iszero\n      tag_108\n      jumpi\n        /* \"#utility.yul\":1098:1116   */\n      tag_109\n      tag_51\n      jump\t// in\n    tag_109:\n        /* \"#utility.yul\":1030:1118   */\n    tag_108:\n        /* \"#utility.yul\":1138:1148   */\n      dup1\n        /* \"#utility.yul\":1134:1136   */\n      0x40\n        /* \"#utility.yul\":1127:1149   */\n      mstore\n        /* \"#utility.yul\":917:1155   */\n      pop\n        /* \"#utility.yul\":874:1155   */\n      pop\n      pop\n      jump\t// out\n        /* \"#utility.yul\":1161:1290   */\n    tag_53:\n        /* \"#utility.yul\":1195:1201   */\n      0x00\n        /* \"#utility.yul\":1222:1242   */\n      tag_111\n      tag_45\n      jump\t// in\n    tag_111:\n        /* \"#utility.yul\":1212:1242   */\n      swap1\n      pop\n        /* \"#utility.yul\":1251:1284   */\n      tag_112\n        /* \"#utility.yul\":1279:1283   */\n      dup3\n        /* \"#utility.yul\":1271:1277   */\n      dup3\n        /* \"#utility.yul\":1251:1284   */\n      tag_52\n      jump\t// in\n    tag_112:\n        /* \"#utility.yul\":1161:1290   */\n      swap2\n      swap1\n      pop\n      jump\t// out\n        /* \"#utility.yul\":1296:1604   */\n    tag_54:\n        /* \"#utility.yul\":1358:1362   */\n      0x00\n        /* \"#utility.yul\":1448:1466   */\n      0xffffffffffffffff\n        /* \"#utility.yul\":1440:1446   */\n      dup3\n        /* \"#utility.yul\":1437:1467   */\n      gt\n        /* \"#utility.yul\":1434:1490   */\n      iszero\n      tag_114\n      jumpi\n        /* \"#utility.yul\":1470:1488   */\n      tag_115\n      tag_51\n      jump\t// in\n    tag_115:\n        /* \"#utility.yul\":1434:1490   */\n    tag_114:\n        /* \"#utility.yul\":1508:1537   */\n      tag_116\n        /* \"#utility.yul\":1530:1536   */\n      dup3\n        /* \"#utility.yul\":1508:1537   */\n      tag_50\n      jump\t// in\n    tag_116:\n        /* \"#utility.yul\":1500:1537   */\n      swap1\n      pop\n        /* \"#utility.yul\":1592:1596   */\n      0x20\n        /* \"#utility.yul\":1586:1590   */\n      dup2\n        /* \"#utility.yul\":1582:1597   */\n      add\n        /* \"#utility.yul\":1574:1597   */\n      swap1\n      pop\n        /* \"#utility.yul\":1296:1604   */\n      swap2\n      swap1\n      pop\n      jump\t// out\n        /* \"#utility.yul\":1610:1758   */\n    tag_55:\n        /* \"#utility.yul\":1708:1714   */\n      dup3\n        /* \"#utility.yul\":1703:1706   */\n      dup2\n        /* \"#utility.yul\":1698:1701   */\n      dup4\n        /* \"#utility.yul\":1685:1715   */\n      calldatacopy\n        /* \"#utility.yul\":1749:1750   */\n      0x00\n        /* \"#utility.yul\":1740:1746   */\n      dup4\n        /* \"#utility.yul\":1735:1738   */\n      dup4\n        /* \"#utility.yul\":1731:1747   */\n      add\n        /* \"#utility.yul\":1724:1751   */\n      mstore\n        /* \"#utility.yul\":1610:1758   */\n      pop\n      pop\n      pop\n      jump\t// out\n        /* \"#utility.yul\":1764:2189   */\n    tag_56:\n        /* \"#utility.yul\":1842:1847   */\n      0x00\n        /* \"#utility.yul\":1867:1933   */\n      tag_119\n        /* \"#utility.yul\":1883:1932   */\n      tag_120\n        /* \"#utility.yul\":1925:1931   */\n      dup5\n        /* \"#utility.yul\":1883:1932   */\n      tag_54\n      jump\t// in\n    tag_120:\n        /* \"#utility.yul\":1867:1933   */\n      tag_53\n      jump\t// in\n    tag_119:\n        /* \"#utility.yul\":1858:1933   */\n      swap1\n      pop\n        /* \"#utility.yul\":1956:1962   */\n      dup3\n        /* \"#utility.yul\":1949:1954   */\n      dup2\n        /* \"#utility.yul\":1942:1963   */\n      mstore\n        /* \"#utility.yul\":1994:1998   */\n      0x20\n        /* \"#utility.yul\":1987:1992   */\n      dup2\n        /* \"#utility.yul\":1983:1999   */\n      add\n        /* \"#utility.yul\":2032:2035   */\n      dup5\n        /* \"#utility.yul\":2023:2029   */\n      dup5\n        /* \"#utility.yul\":2018:2021   */\n      dup5\n        /* \"#utility.yul\":2014:2030   */\n      add\n        /* \"#utility.yul\":2011:2036   */\n      gt\n        /* \"#utility.yul\":2008:2120   */\n      iszero\n      tag_121\n      jumpi\n        /* \"#utility.yul\":2039:2118   */\n      tag_122\n      tag_49\n      jump\t// in\n    tag_122:\n        /* \"#utility.yul\":2008:2120   */\n    tag_121:\n        /* \"#utility.yul\":2129:2183   */\n      tag_123\n        /* \"#utility.yul\":2176:2182   */\n      dup5\n        /* \"#utility.yul\":2171:2174   */\n      dup3\n        /* \"#utility.yul\":2166:2169   */\n      dup6\n        /* \"#utility.yul\":2129:2183   */\n      tag_55\n      jump\t// in\n    tag_123:\n        /* \"#utility.yul\":1848:2189   */\n      pop\n        /* \"#utility.yul\":1764:2189   */\n      swap4\n      swap3\n      pop\n      pop\n      pop\n      jump\t// out\n        /* \"#utility.yul\":2209:2549   */\n    tag_57:\n        /* \"#utility.yul\":2265:2270   */\n      0x00\n        /* \"#utility.yul\":2314:2317   */\n      dup3\n        /* \"#utility.yul\":2307:2311   */\n      0x1f\n        /* \"#utility.yul\":2299:2305   */\n      dup4\n        /* \"#utility.yul\":2295:2312   */\n      add\n        /* \"#utility.yul\":2291:2318   */\n      slt\n        /* \"#utility.yul\":2281:2403   */\n      tag_125\n      jumpi\n        /* \"#utility.yul\":2322:2401   */\n      tag_126\n      tag_48\n      jump\t// in\n    tag_126:\n        /* \"#utility.yul\":2281:2403   */\n    tag_125:\n        /* \"#utility.yul\":2439:2445   */\n      dup2\n        /* \"#utility.yul\":2426:2446   */\n      calldataload\n        /* \"#utility.yul\":2464:2543   */\n      tag_127\n        /* \"#utility.yul\":2539:2542   */\n      dup5\n        /* \"#utility.yul\":2531:2537   */\n      dup3\n        /* \"#utility.yul\":2524:2528   */\n      0x20\n        /* \"#utility.yul\":2516:2522   */\n      dup7\n        /* \"#utility.yul\":2512:2529   */\n      add\n        /* \"#utility.yul\":2464:2543   */\n      tag_56\n      jump\t// in\n    tag_127:\n        /* \"#utility.yul\":2455:2543   */\n      swap2\n      pop\n        /* \"#utility.yul\":2271:2549   */\n      pop\n        /* \"#utility.yul\":2209:2549   */\n      swap3\n      swap2\n      pop\n      pop\n      jump\t// out\n        /* \"#utility.yul\":2555:3389   */\n    tag_10:\n        /* \"#utility.yul\":2643:2649   */\n      0x00\n        /* \"#utility.yul\":2651:2657   */\n      0x00\n        /* \"#utility.yul\":2700:2702   */\n      0x40\n        /* \"#utility.yul\":2688:2697   */\n      dup4\n        /* \"#utility.yul\":2679:2686   */\n      dup6\n        /* \"#utility.yul\":2675:2698   */\n      sub\n        /* \"#utility.yul\":2671:2703   */\n      slt\n        /* \"#utility.yul\":2668:2787   */\n      iszero\n      tag_129\n      jumpi\n        /* \"#utility.yul\":2706:2785   */\n      tag_130\n      tag_46\n      jump\t// in\n    tag_130:\n        /* \"#utility.yul\":2668:2787   */\n    tag_129:\n        /* \"#utility.yul\":2854:2855   */\n      0x00\n        /* \"#utility.yul\":2843:2852   */\n      dup4\n        /* \"#utility.yul\":2839:2856   */\n      add\n        /* \"#utility.yul\":2826:2857   */\n      calldataload\n        /* \"#utility.yul\":2884:2902   */\n      0xffffffffffffffff\n        /* \"#utility.yul\":2876:2882   */\n      dup2\n        /* \"#utility.yul\":2873:2903   */\n      gt\n        /* \"#utility.yul\":2870:2987   */\n      iszero\n      tag_131\n      jumpi\n        /* \"#utility.yul\":2906:2985   */\n      tag_132\n      tag_47\n      jump\t// in\n    tag_132:\n        /* \"#utility.yul\":2870:2987   */\n    tag_131:\n        /* \"#utility.yul\":3011:3074   */\n      tag_133\n        /* \"#utility.yul\":3066:3073   */\n      dup6\n        /* \"#utility.yul\":3057:3063   */\n      dup3\n        /* \"#utility.yul\":3046:3055   */\n      dup7\n        /* \"#utility.yul\":3042:3064   */\n      add\n        /* \"#utility.yul\":3011:3074   */\n      tag_57\n      jump\t// in\n    tag_133:\n        /* \"#utility.yul\":3001:3074   */\n      swap3\n      pop\n        /* \"#utility.yul\":2797:3084   */\n      pop\n        /* \"#utility.yul\":3151:3153   */\n      0x20\n        /* \"#utility.yul\":3140:3149   */\n      dup4\n        /* \"#utility.yul\":3136:3154   */\n      add\n        /* \"#utility.yul\":3123:3155   */\n      calldataload\n        /* \"#utility.yul\":3182:3200   */\n      0xffffffffffffffff\n        /* \"#utility.yul\":3174:3180   */\n      dup2\n        /* \"#utility.yul\":3171:3201   */\n      gt\n        /* \"#utility.yul\":3168:3285   */\n      iszero\n      tag_134\n      jumpi\n        /* \"#utility.yul\":3204:3283   */\n      tag_135\n      tag_47\n      jump\t// in\n    tag_135:\n        /* \"#utility.yul\":3168:3285   */\n    tag_134:\n        /* \"#utility.yul\":3309:3372   */\n      tag_136\n        /* \"#utility.yul\":3364:3371   */\n      dup6\n        /* \"#utility.yul\":3355:3361   */\n      dup3\n        /* \"#utility.yul\":3344:3353   */\n      dup7\n        /* \"#utility.yul\":3340:3362   */\n      add\n        /* \"#utility.yul\":3309:3372   */\n      tag_57\n      jump\t// in\n    tag_136:\n        /* \"#utility.yul\":3299:3372   */\n      swap2\n      pop\n        /* \"#utility.yul\":3094:3382   */\n      pop\n        /* \"#utility.yul\":2555:3389   */\n      swap3\n      pop\n      swap3\n      swap1\n      pop\n      jump\t// out\n        /* \"#utility.yul\":3395:3494   */\n    tag_58:\n        /* \"#utility.yul\":3447:3453   */\n      0x00\n        /* \"#utility.yul\":3481:3486   */\n      dup2\n        /* \"#utility.yul\":3475:3487   */\n      mload\n        /* \"#utility.yul\":3465:3487   */\n      swap1\n      pop\n        /* \"#utility.yul\":3395:3494   */\n      swap2\n      swap1\n      pop\n      jump\t// out\n        /* \"#utility.yul\":3500:3669   */\n    tag_59:\n        /* \"#utility.yul\":3584:3595   */\n      0x00\n        /* \"#utility.yul\":3618:3624   */\n      dup3\n        /* \"#utility.yul\":3613:3616   */\n      dup3\n        /* \"#utility.yul\":3606:3625   */\n      mstore\n        /* \"#utility.yul\":3658:3662   */\n      0x20\n        /* \"#utility.yul\":3653:3656   */\n      dup3\n        /* \"#utility.yul\":3649:3663   */\n      add\n        /* \"#utility.yul\":3634:3663   */\n      swap1\n      pop\n        /* \"#utility.yul\":3500:3669   */\n      swap3\n      swap2\n      pop\n      pop\n      jump\t// out\n        /* \"#utility.yul\":3675:3814   */\n    tag_60:\n        /* \"#utility.yul\":3764:3770   */\n      dup3\n        /* \"#utility.yul\":3759:3762   */\n      dup2\n        /* \"#utility.yul\":3754:3757   */\n      dup4\n        /* \"#utility.yul\":3748:3771   */\n      mcopy\n        /* \"#utility.yul\":3805:3806   */\n      0x00\n        /* \"#utility.yul\":3796:3802   */\n      dup4\n        /* \"#utility.yul\":3791:3794   */\n      dup4\n        /* \"#utility.yul\":3787:3803   */\n      add\n        /* \"#utility.yul\":3780:3807   */\n      mstore\n        /* \"#utility.yul\":3675:3814   */\n      pop\n      pop\n      pop\n      jump\t// out\n        /* \"#utility.yul\":3820:4197   */\n    tag_61:\n        /* \"#utility.yul\":3908:3911   */\n      0x00\n        /* \"#utility.yul\":3936:3975   */\n      tag_141\n        /* \"#utility.yul\":3969:3974   */\n      dup3\n        /* \"#utility.yul\":3936:3975   */\n      tag_58\n      jump\t// in\n    tag_141:\n        /* \"#utility.yul\":3991:4062   */\n      tag_142\n        /* \"#utility.yul\":4055:4061   */\n      dup2\n        /* \"#utility.yul\":4050:4053   */\n      dup6\n        /* \"#utility.yul\":3991:4062   */\n      tag_59\n      jump\t// in\n    tag_142:\n        /* \"#utility.yul\":3984:4062   */\n      swap4\n      pop\n        /* \"#utility.yul\":4071:4136   */\n      tag_143\n        /* \"#utility.yul\":4129:4135   */\n      dup2\n        /* \"#utility.yul\":4124:4127   */\n      dup6\n        /* \"#utility.yul\":4117:4121   */\n      0x20\n        /* \"#utility.yul\":4110:4115   */\n      dup7\n        /* \"#utility.yul\":4106:4122   */\n      add\n        /* \"#utility.yul\":4071:4136   */\n      tag_60\n      jump\t// in\n    tag_143:\n        /* \"#utility.yul\":4161:4190   */\n      tag_144\n        /* \"#utility.yul\":4183:4189   */\n      dup2\n        /* \"#utility.yul\":4161:4190   */\n      tag_50\n      jump\t// in\n    tag_144:\n        /* \"#utility.yul\":4156:4159   */\n      dup5\n        /* \"#utility.yul\":4152:4191   */\n      add\n        /* \"#utility.yul\":4145:4191   */\n      swap2\n      pop\n        /* \"#utility.yul\":3912:4197   */\n      pop\n        /* \"#utility.yul\":3820:4197   */\n      swap3\n      swap2\n      pop\n      pop\n      jump\t// out\n        /* \"#utility.yul\":4203:4516   */\n    tag_13:\n        /* \"#utility.yul\":4316:4320   */\n      0x00\n        /* \"#utility.yul\":4354:4356   */\n      0x20\n        /* \"#utility.yul\":4343:4352   */\n      dup3\n        /* \"#utility.yul\":4339:4357   */\n      add\n        /* \"#utility.yul\":4331:4357   */\n      swap1\n      pop\n        /* \"#utility.yul\":4403:4412   */\n      dup2\n        /* \"#utility.yul\":4397:4401   */\n      dup2\n        /* \"#utility.yul\":4393:4413   */\n      sub\n        /* \"#utility.yul\":4389:4390   */\n      0x00\n        /* \"#utility.yul\":4378:4387   */\n      dup4\n        /* \"#utility.yul\":4374:4391   */\n      add\n        /* \"#utility.yul\":4367:4414   */\n      mstore\n        /* \"#utility.yul\":4431:4509   */\n      tag_146\n        /* \"#utility.yul\":4504:4508   */\n      dup2\n        /* \"#utility.yul\":4495:4501   */\n      dup5\n        /* \"#utility.yul\":4431:4509   */\n      tag_61\n      jump\t// in\n    tag_146:\n        /* \"#utility.yul\":4423:4509   */\n      swap1\n      pop\n        /* \"#utility.yul\":4203:4516   */\n      swap3\n      swap2\n      pop\n      pop\n      jump\t// out\n        /* \"#utility.yul\":4522:4620   */\n    tag_62:\n        /* \"#utility.yul\":4573:4579   */\n      0x00\n        /* \"#utility.yul\":4607:4612   */\n      dup2\n        /* \"#utility.yul\":4601:4613   */\n      mload\n        /* \"#utility.yul\":4591:4613   */\n      swap1\n      pop\n        /* \"#utility.yul\":4522:4620   */\n      swap2\n      swap1\n      pop\n      jump\t// out\n        /* \"#utility.yul\":4626:4794   */\n    tag_63:\n        /* \"#utility.yul\":4709:4720   */\n      0x00\n        /* \"#utility.yul\":4743:4749   */\n      dup3\n        /* \"#utility.yul\":4738:4741   */\n      dup3\n        /* \"#utility.yul\":4731:4750   */\n      mstore\n        /* \"#utility.yul\":4783:4787   */\n      0x20\n        /* \"#utility.yul\":4778:4781   */\n      dup3\n        /* \"#utility.yul\":4774:4788   */\n      add\n        /* \"#utility.yul\":4759:4788   */\n      swap1\n      pop\n        /* \"#utility.yul\":4626:4794   */\n      swap3\n      swap2\n      pop\n      pop\n      jump\t// out\n        /* \"#utility.yul\":4800:5173   */\n    tag_64:\n        /* \"#utility.yul\":4886:4889   */\n      0x00\n        /* \"#utility.yul\":4914:4952   */\n      tag_150\n        /* \"#utility.yul\":4946:4951   */\n      dup3\n        /* \"#utility.yul\":4914:4952   */\n      tag_62\n      jump\t// in\n    tag_150:\n        /* \"#utility.yul\":4968:5038   */\n      tag_151\n        /* \"#utility.yul\":5031:5037   */\n      dup2\n        /* \"#utility.yul\":5026:5029   */\n      dup6\n        /* \"#utility.yul\":4968:5038   */\n      tag_63\n      jump\t// in\n    tag_151:\n        /* \"#utility.yul\":4961:5038   */\n      swap4\n      pop\n        /* \"#utility.yul\":5047:5112   */\n      tag_152\n        /* \"#utility.yul\":5105:5111   */\n      dup2\n        /* \"#utility.yul\":5100:5103   */\n      dup6\n        /* \"#utility.yul\":5093:5097   */\n      0x20\n        /* \"#utility.yul\":5086:5091   */\n      dup7\n        /* \"#utility.yul\":5082:5098   */\n      add\n        /* \"#utility.yul\":5047:5112   */\n      tag_60\n      jump\t// in\n    tag_152:\n        /* \"#utility.yul\":5137:5166   */\n      tag_153\n        /* \"#utility.yul\":5159:5165   */\n      dup2\n        /* \"#utility.yul\":5137:5166   */\n      tag_50\n      jump\t// in\n    tag_153:\n        /* \"#utility.yul\":5132:5135   */\n      dup5\n        /* \"#utility.yul\":5128:5167   */\n      add\n        /* \"#utility.yul\":5121:5167   */\n      swap2\n      pop\n        /* \"#utility.yul\":4890:5173   */\n      pop\n        /* \"#utility.yul\":4800:5173   */\n      swap3\n      swap2\n      pop\n      pop\n      jump\t// out\n        /* \"#utility.yul\":5179:5488   */\n    tag_17:\n        /* \"#utility.yul\":5290:5294   */\n      0x00\n        /* \"#utility.yul\":5328:5330   */\n      0x20\n        /* \"#utility.yul\":5317:5326   */\n      dup3\n        /* \"#utility.yul\":5313:5331   */\n      add\n        /* \"#utility.yul\":5305:5331   */\n      swap1\n      pop\n        /* \"#utility.yul\":5377:5386   */\n      dup2\n        /* \"#utility.yul\":5371:5375   */\n      dup2\n        /* \"#utility.yul\":5367:5387   */\n      sub\n        /* \"#utility.yul\":5363:5364   */\n      0x00\n        /* \"#utility.yul\":5352:5361   */\n      dup4\n        /* \"#utility.yul\":5348:5365   */\n      add\n        /* \"#utility.yul\":5341:5388   */\n      mstore\n        /* \"#utility.yul\":5405:5481   */\n      tag_155\n        /* \"#utility.yul\":5476:5480   */\n      dup2\n        /* \"#utility.yul\":5467:5473   */\n      dup5\n        /* \"#utility.yul\":5405:5481   */\n      tag_64\n      jump\t// in\n    tag_155:\n        /* \"#utility.yul\":5397:5481   */\n      swap1\n      pop\n        /* \"#utility.yul\":5179:5488   */\n      swap3\n      swap2\n      pop\n      pop\n      jump\t// out\n        /* \"#utility.yul\":5494:5611   */\n    tag_65:\n        /* \"#utility.yul\":5603:5604   */\n      0x00\n        /* \"#utility.yul\":5600:5601   */\n      0x00\n        /* \"#utility.yul\":5593:5605   */\n      revert\n        /* \"#utility.yul\":5617:5734   */\n    tag_66:\n        /* \"#utility.yul\":5726:5727   */\n      0x00\n        /* \"#utility.yul\":5723:5724   */\n      0x00\n        /* \"#utility.yul\":5716:5728   */\n      revert\n        /* \"#utility.yul\":5753:6305   */\n    tag_67:\n        /* \"#utility.yul\":5810:5818   */\n      0x00\n        /* \"#utility.yul\":5820:5826   */\n      0x00\n        /* \"#utility.yul\":5870:5873   */\n      dup4\n        /* \"#utility.yul\":5863:5867   */\n      0x1f\n        /* \"#utility.yul\":5855:5861   */\n      dup5\n        /* \"#utility.yul\":5851:5868   */\n      add\n        /* \"#utility.yul\":5847:5874   */\n      slt\n        /* \"#utility.yul\":5837:5959   */\n      tag_159\n      jumpi\n        /* \"#utility.yul\":5878:5957   */\n      tag_160\n      tag_48\n      jump\t// in\n    tag_160:\n        /* \"#utility.yul\":5837:5959   */\n    tag_159:\n        /* \"#utility.yul\":5991:5997   */\n      dup3\n        /* \"#utility.yul\":5978:5998   */\n      calldataload\n        /* \"#utility.yul\":5968:5998   */\n      swap1\n      pop\n        /* \"#utility.yul\":6021:6039   */\n      0xffffffffffffffff\n        /* \"#utility.yul\":6013:6019   */\n      dup2\n        /* \"#utility.yul\":6010:6040   */\n      gt\n        /* \"#utility.yul\":6007:6124   */\n      iszero\n      tag_161\n      jumpi\n        /* \"#utility.yul\":6043:6122   */\n      tag_162\n      tag_65\n      jump\t// in\n    tag_162:\n        /* \"#utility.yul\":6007:6124   */\n    tag_161:\n        /* \"#utility.yul\":6157:6161   */\n      0x20\n        /* \"#utility.yul\":6149:6155   */\n      dup4\n        /* \"#utility.yul\":6145:6162   */\n      add\n        /* \"#utility.yul\":6133:6162   */\n      swap2\n      pop\n        /* \"#utility.yul\":6211:6214   */\n      dup4\n        /* \"#utility.yul\":6203:6207   */\n      0x01\n        /* \"#utility.yul\":6195:6201   */\n      dup3\n        /* \"#utility.yul\":6191:6208   */\n      mul\n        /* \"#utility.yul\":6181:6189   */\n      dup4\n        /* \"#utility.yul\":6177:6209   */\n      add\n        /* \"#utility.yul\":6174:6215   */\n      gt\n        /* \"#utility.yul\":6171:6299   */\n      iszero\n      tag_163\n      jumpi\n        /* \"#utility.yul\":6218:6297   */\n      tag_164\n      tag_66\n      jump\t// in\n    tag_164:\n        /* \"#utility.yul\":6171:6299   */\n    tag_163:\n        /* \"#utility.yul\":5753:6305   */\n      swap3\n      pop\n      swap3\n      swap1\n      pop\n      jump\t// out\n        /* \"#utility.yul\":6311:6838   */\n    tag_26:\n        /* \"#utility.yul\":6381:6387   */\n      0x00\n        /* \"#utility.yul\":6389:6395   */\n      0x00\n        /* \"#utility.yul\":6438:6440   */\n      0x20\n        /* \"#utility.yul\":6426:6435   */\n      dup4\n        /* \"#utility.yul\":6417:6424   */\n      dup6\n        /* \"#utility.yul\":6413:6436   */\n      sub\n        /* \"#utility.yul\":6409:6441   */\n      slt\n        /* \"#utility.yul\":6406:6525   */\n      iszero\n      tag_166\n      jumpi\n        /* \"#utility.yul\":6444:6523   */\n      tag_167\n      tag_46\n      jump\t// in\n    tag_167:\n        /* \"#utility.yul\":6406:6525   */\n    tag_166:\n        /* \"#utility.yul\":6592:6593   */\n      0x00\n        /* \"#utility.yul\":6581:6590   */\n      dup4\n        /* \"#utility.yul\":6577:6594   */\n      add\n        /* \"#utility.yul\":6564:6595   */\n      calldataload\n        /* \"#utility.yul\":6622:6640   */\n      0xffffffffffffffff\n        /* \"#utility.yul\":6614:6620   */\n      dup2\n        /* \"#utility.yul\":6611:6641   */\n      gt\n        /* \"#utility.yul\":6608:6725   */\n      iszero\n      tag_168\n      jumpi\n        /* \"#utility.yul\":6644:6723   */\n      tag_169\n      tag_47\n      jump\t// in\n    tag_169:\n        /* \"#utility.yul\":6608:6725   */\n    tag_168:\n        /* \"#utility.yul\":6757:6821   */\n      tag_170\n        /* \"#utility.yul\":6813:6820   */\n      dup6\n        /* \"#utility.yul\":6804:6810   */\n      dup3\n        /* \"#utility.yul\":6793:6802   */\n      dup7\n        /* \"#utility.yul\":6789:6811   */\n      add\n        /* \"#utility.yul\":6757:6821   */\n      tag_67\n      jump\t// in\n    tag_170:\n        /* \"#utility.yul\":6739:6821   */\n      swap3\n      pop\n      swap3\n      pop\n        /* \"#utility.yul\":6535:6831   */\n      pop\n        /* \"#utility.yul\":6311:6838   */\n      swap3\n      pop\n      swap3\n      swap1\n      pop\n      jump\t// out\n        /* \"#utility.yul\":6844:6921   */\n    tag_68:\n        /* \"#utility.yul\":6881:6888   */\n      0x00\n        /* \"#utility.yul\":6910:6915   */\n      dup2\n        /* \"#utility.yul\":6899:6915   */\n      swap1\n      pop\n        /* \"#utility.yul\":6844:6921   */\n      swap2\n      swap1\n      pop\n      jump\t// out\n        /* \"#utility.yul\":6927:7045   */\n    tag_69:\n        /* \"#utility.yul\":7014:7038   */\n      tag_173\n        /* \"#utility.yul\":7032:7037   */\n      dup2\n        /* \"#utility.yul\":7014:7038   */\n      tag_68\n      jump\t// in\n    tag_173:\n        /* \"#utility.yul\":7009:7012   */\n      dup3\n        /* \"#utility.yul\":7002:7039   */\n      mstore\n        /* \"#utility.yul\":6927:7045   */\n      pop\n      pop\n      jump\t// out\n        /* \"#utility.yul\":7051:7141   */\n    tag_70:\n        /* \"#utility.yul\":7085:7092   */\n      0x00\n        /* \"#utility.yul\":7128:7133   */\n      dup2\n        /* \"#utility.yul\":7121:7134   */\n      iszero\n        /* \"#utility.yul\":7114:7135   */\n      iszero\n        /* \"#utility.yul\":7103:7135   */\n      swap1\n      pop\n        /* \"#utility.yul\":7051:7141   */\n      swap2\n      swap1\n      pop\n      jump\t// out\n        /* \"#utility.yul\":7147:7256   */\n    tag_71:\n        /* \"#utility.yul\":7228:7249   */\n      tag_176\n        /* \"#utility.yul\":7243:7248   */\n      dup2\n        /* \"#utility.yul\":7228:7249   */\n      tag_70\n      jump\t// in\n    tag_176:\n        /* \"#utility.yul\":7223:7226   */\n      dup3\n        /* \"#utility.yul\":7216:7250   */\n      mstore\n        /* \"#utility.yul\":7147:7256   */\n      pop\n      pop\n      jump\t// out\n        /* \"#utility.yul\":7262:7894   */\n    tag_29:\n        /* \"#utility.yul\":7453:7457   */\n      0x00\n        /* \"#utility.yul\":7491:7494   */\n      0x80\n        /* \"#utility.yul\":7480:7489   */\n      dup3\n        /* \"#utility.yul\":7476:7495   */\n      add\n        /* \"#utility.yul\":7468:7495   */\n      swap1\n      pop\n        /* \"#utility.yul\":7505:7576   */\n      tag_178\n        /* \"#utility.yul\":7573:7574   */\n      0x00\n        /* \"#utility.yul\":7562:7571   */\n      dup4\n        /* \"#utility.yul\":7558:7575   */\n      add\n        /* \"#utility.yul\":7549:7555   */\n      dup8\n        /* \"#utility.yul\":7505:7576   */\n      tag_69\n      jump\t// in\n    tag_178:\n        /* \"#utility.yul\":7586:7658   */\n      tag_179\n        /* \"#utility.yul\":7654:7656   */\n      0x20\n        /* \"#utility.yul\":7643:7652   */\n      dup4\n        /* \"#utility.yul\":7639:7657   */\n      add\n        /* \"#utility.yul\":7630:7636   */\n      dup7\n        /* \"#utility.yul\":7586:7658   */\n      tag_69\n      jump\t// in\n    tag_179:\n        /* \"#utility.yul\":7705:7714   */\n      dup2\n        /* \"#utility.yul\":7699:7703   */\n      dup2\n        /* \"#utility.yul\":7695:7715   */\n      sub\n        /* \"#utility.yul\":7690:7692   */\n      0x40\n        /* \"#utility.yul\":7679:7688   */\n      dup4\n        /* \"#utility.yul\":7675:7693   */\n      add\n        /* \"#utility.yul\":7668:7716   */\n      mstore\n        /* \"#utility.yul\":7733:7811   */\n      tag_180\n        /* \"#utility.yul\":7806:7810   */\n      dup2\n        /* \"#utility.yul\":7797:7803   */\n      dup6\n        /* \"#utility.yul\":7733:7811   */\n      tag_61\n      jump\t// in\n    tag_180:\n        /* \"#utility.yul\":7725:7811   */\n      swap1\n      pop\n        /* \"#utility.yul\":7821:7887   */\n      tag_181\n        /* \"#utility.yul\":7883:7885   */\n      0x60\n        /* \"#utility.yul\":7872:7881   */\n      dup4\n        /* \"#utility.yul\":7868:7886   */\n      add\n        /* \"#utility.yul\":7859:7865   */\n      dup5\n        /* \"#utility.yul\":7821:7887   */\n      tag_71\n      jump\t// in\n    tag_181:\n        /* \"#utility.yul\":7262:7894   */\n      swap6\n      swap5\n      pop\n      pop\n      pop\n      pop\n      pop\n      jump\t// out\n        /* \"#utility.yul\":7900:8048   */\n    tag_72:\n        /* \"#utility.yul\":8002:8013   */\n      0x00\n        /* \"#utility.yul\":8039:8042   */\n      dup2\n        /* \"#utility.yul\":8024:8042   */\n      swap1\n      pop\n        /* \"#utility.yul\":7900:8048   */\n      swap3\n      swap2\n      pop\n      pop\n      jump\t// out\n        /* \"#utility.yul\":8054:8444   */\n    tag_73:\n        /* \"#utility.yul\":8160:8163   */\n      0x00\n        /* \"#utility.yul\":8188:8227   */\n      tag_184\n        /* \"#utility.yul\":8221:8226   */\n      dup3\n        /* \"#utility.yul\":8188:8227   */\n      tag_58\n      jump\t// in\n    tag_184:\n        /* \"#utility.yul\":8243:8332   */\n      tag_185\n        /* \"#utility.yul\":8325:8331   */\n      dup2\n        /* \"#utility.yul\":8320:8323   */\n      dup6\n        /* \"#utility.yul\":8243:8332   */\n      tag_72\n      jump\t// in\n    tag_185:\n        /* \"#utility.yul\":8236:8332   */\n      swap4\n      pop\n        /* \"#utility.yul\":8341:8406   */\n      tag_186\n        /* \"#utility.yul\":8399:8405   */\n      dup2\n        /* \"#utility.yul\":8394:8397   */\n      dup6\n        /* \"#utility.yul\":8387:8391   */\n      0x20\n        /* \"#utility.yul\":8380:8385   */\n      dup7\n        /* \"#utility.yul\":8376:8392   */\n      add\n        /* \"#utility.yul\":8341:8406   */\n      tag_60\n      jump\t// in\n    tag_186:\n        /* \"#utility.yul\":8431:8437   */\n      dup1\n        /* \"#utility.yul\":8426:8429   */\n      dup5\n        /* \"#utility.yul\":8422:8438   */\n      add\n        /* \"#utility.yul\":8415:8438   */\n      swap2\n      pop\n        /* \"#utility.yul\":8164:8444   */\n      pop\n        /* \"#utility.yul\":8054:8444   */\n      swap3\n      swap2\n      pop\n      pop\n      jump\t// out\n        /* \"#utility.yul\":8450:8885   */\n    tag_32:\n        /* \"#utility.yul\":8630:8633   */\n      0x00\n        /* \"#utility.yul\":8652:8747   */\n      tag_188\n        /* \"#utility.yul\":8743:8746   */\n      dup3\n        /* \"#utility.yul\":8734:8740   */\n      dup6\n        /* \"#utility.yul\":8652:8747   */\n      tag_73\n      jump\t// in\n    tag_188:\n        /* \"#utility.yul\":8645:8747   */\n      swap2\n      pop\n        /* \"#utility.yul\":8764:8859   */\n      tag_189\n        /* \"#utility.yul\":8855:8858   */\n      dup3\n        /* \"#utility.yul\":8846:8852   */\n      dup5\n        /* \"#utility.yul\":8764:8859   */\n      tag_73\n      jump\t// in\n    tag_189:\n        /* \"#utility.yul\":8757:8859   */\n      swap2\n      pop\n        /* \"#utility.yul\":8876:8879   */\n      dup2\n        /* \"#utility.yul\":8869:8879   */\n      swap1\n      pop\n        /* \"#utility.yul\":8450:8885   */\n      swap4\n      swap3\n      pop\n      pop\n      pop\n      jump\t// out\n        /* \"#utility.yul\":8891:8977   */\n    tag_74:\n        /* \"#utility.yul\":8926:8933   */\n      0x00\n        /* \"#utility.yul\":8966:8970   */\n      0xff\n        /* \"#utility.yul\":8959:8964   */\n      dup3\n        /* \"#utility.yul\":8955:8971   */\n      and\n        /* \"#utility.yul\":8944:8971   */\n      swap1\n      pop\n        /* \"#utility.yul\":8891:8977   */\n      swap2\n      swap1\n      pop\n      jump\t// out\n        /* \"#utility.yul\":8983:9079   */\n    tag_75:\n        /* \"#utility.yul\":9017:9025   */\n      0x00\n        /* \"#utility.yul\":9066:9071   */\n      dup2\n        /* \"#utility.yul\":9061:9064   */\n      0xf8\n        /* \"#utility.yul\":9057:9072   */\n      shl\n        /* \"#utility.yul\":9036:9072   */\n      swap1\n      pop\n        /* \"#utility.yul\":8983:9079   */\n      swap2\n      swap1\n      pop\n      jump\t// out\n        /* \"#utility.yul\":9085:9178   */\n    tag_76:\n        /* \"#utility.yul\":9122:9129   */\n      0x00\n        /* \"#utility.yul\":9151:9172   */\n      tag_193\n        /* \"#utility.yul\":9166:9171   */\n      dup3\n        /* \"#utility.yul\":9151:9172   */\n      tag_75\n      jump\t// in\n    tag_193:\n        /* \"#utility.yul\":9140:9172   */\n      swap1\n      pop\n        /* \"#utility.yul\":9085:9178   */\n      swap2\n      swap1\n      pop\n      jump\t// out\n        /* \"#utility.yul\":9184:9333   */\n    tag_77:\n        /* \"#utility.yul\":9285:9326   */\n      tag_195\n        /* \"#utility.yul\":9303:9325   */\n      tag_196\n        /* \"#utility.yul\":9319:9324   */\n      dup3\n        /* \"#utility.yul\":9303:9325   */\n      tag_74\n      jump\t// in\n    tag_196:\n        /* \"#utility.yul\":9285:9326   */\n      tag_76\n      jump\t// in\n    tag_195:\n        /* \"#utility.yul\":9280:9283   */\n      dup3\n        /* \"#utility.yul\":9273:9327   */\n      mstore\n        /* \"#utility.yul\":9184:9333   */\n      pop\n      pop\n      jump\t// out\n        /* \"#utility.yul\":9339:9428   */\n    tag_78:\n        /* \"#utility.yul\":9375:9382   */\n      0x00\n        /* \"#utility.yul\":9415:9421   */\n      0xffff\n        /* \"#utility.yul\":9408:9413   */\n      dup3\n        /* \"#utility.yul\":9404:9422   */\n      and\n        /* \"#utility.yul\":9393:9422   */\n      swap1\n      pop\n        /* \"#utility.yul\":9339:9428   */\n      swap2\n      swap1\n      pop\n      jump\t// out\n        /* \"#utility.yul\":9434:9530   */\n    tag_79:\n        /* \"#utility.yul\":9468:9476   */\n      0x00\n        /* \"#utility.yul\":9517:9522   */\n      dup2\n        /* \"#utility.yul\":9512:9515   */\n      0xf0\n        /* \"#utility.yul\":9508:9523   */\n      shl\n        /* \"#utility.yul\":9487:9523   */\n      swap1\n      pop\n        /* \"#utility.yul\":9434:9530   */\n      swap2\n      swap1\n      pop\n      jump\t// out\n        /* \"#utility.yul\":9536:9630   */\n    tag_80:\n        /* \"#utility.yul\":9574:9581   */\n      0x00\n        /* \"#utility.yul\":9603:9624   */\n      tag_200\n        /* \"#utility.yul\":9618:9623   */\n      dup3\n        /* \"#utility.yul\":9603:9624   */\n      tag_79\n      jump\t// in\n    tag_200:\n        /* \"#utility.yul\":9592:9624   */\n      swap1\n      pop\n        /* \"#utility.yul\":9536:9630   */\n      swap2\n      swap1\n      pop\n      jump\t// out\n        /* \"#utility.yul\":9636:9789   */\n    tag_81:\n        /* \"#utility.yul\":9739:9782   */\n      tag_202\n        /* \"#utility.yul\":9758:9781   */\n      tag_203\n        /* \"#utility.yul\":9775:9780   */\n      dup3\n        /* \"#utility.yul\":9758:9781   */\n      tag_78\n      jump\t// in\n    tag_203:\n        /* \"#utility.yul\":9739:9782   */\n      tag_80\n      jump\t// in\n    tag_202:\n        /* \"#utility.yul\":9734:9737   */\n      dup3\n        /* \"#utility.yul\":9727:9783   */\n      mstore\n        /* \"#utility.yul\":9636:9789   */\n      pop\n      pop\n      jump\t// out\n        /* \"#utility.yul\":9795:10338   */\n    tag_35:\n        /* \"#utility.yul\":9977:9980   */\n      0x00\n        /* \"#utility.yul\":9992:10063   */\n      tag_205\n        /* \"#utility.yul\":10059:10062   */\n      dup3\n        /* \"#utility.yul\":10050:10056   */\n      dup7\n        /* \"#utility.yul\":9992:10063   */\n      tag_77\n      jump\t// in\n    tag_205:\n        /* \"#utility.yul\":10088:10089   */\n      0x01\n        /* \"#utility.yul\":10083:10086   */\n      dup3\n        /* \"#utility.yul\":10079:10090   */\n      add\n        /* \"#utility.yul\":10072:10090   */\n      swap2\n      pop\n        /* \"#utility.yul\":10100:10173   */\n      tag_206\n        /* \"#utility.yul\":10169:10172   */\n      dup3\n        /* \"#utility.yul\":10160:10166   */\n      dup6\n        /* \"#utility.yul\":10100:10173   */\n      tag_81\n      jump\t// in\n    tag_206:\n        /* \"#utility.yul\":10198:10199   */\n      0x02\n        /* \"#utility.yul\":10193:10196   */\n      dup3\n        /* \"#utility.yul\":10189:10200   */\n      add\n        /* \"#utility.yul\":10182:10200   */\n      swap2\n      pop\n        /* \"#utility.yul\":10217:10312   */\n      tag_207\n        /* \"#utility.yul\":10308:10311   */\n      dup3\n        /* \"#utility.yul\":10299:10305   */\n      dup5\n        /* \"#utility.yul\":10217:10312   */\n      tag_73\n      jump\t// in\n    tag_207:\n        /* \"#utility.yul\":10210:10312   */\n      swap2\n      pop\n        /* \"#utility.yul\":10329:10332   */\n      dup2\n        /* \"#utility.yul\":10322:10332   */\n      swap1\n      pop\n        /* \"#utility.yul\":9795:10338   */\n      swap5\n      swap4\n      pop\n      pop\n      pop\n      pop\n      jump\t// out\n        /* \"#utility.yul\":10344:10429   */\n    tag_82:\n        /* \"#utility.yul\":10389:10396   */\n      0x00\n        /* \"#utility.yul\":10418:10423   */\n      dup2\n        /* \"#utility.yul\":10407:10423   */\n      swap1\n      pop\n        /* \"#utility.yul\":10344:10429   */\n      swap2\n      swap1\n      pop\n      jump\t// out\n        /* \"#utility.yul\":10435:10495   */\n    tag_83:\n        /* \"#utility.yul\":10463:10466   */\n      0x00\n        /* \"#utility.yul\":10484:10489   */\n      dup2\n        /* \"#utility.yul\":10477:10489   */\n      swap1\n      pop\n        /* \"#utility.yul\":10435:10495   */\n      swap2\n      swap1\n      pop\n      jump\t// out\n        /* \"#utility.yul\":10501:10655   */\n    tag_84:\n        /* \"#utility.yul\":10557:10566   */\n      0x00\n        /* \"#utility.yul\":10590:10649   */\n      tag_211\n        /* \"#utility.yul\":10606:10648   */\n      tag_212\n        /* \"#utility.yul\":10615:10647   */\n      tag_213\n        /* \"#utility.yul\":10641:10646   */\n      dup5\n        /* \"#utility.yul\":10615:10647   */\n      tag_82\n      jump\t// in\n    tag_213:\n        /* \"#utility.yul\":10606:10648   */\n      tag_83\n      jump\t// in\n    tag_212:\n        /* \"#utility.yul\":10590:10649   */\n      tag_74\n      jump\t// in\n    tag_211:\n        /* \"#utility.yul\":10577:10649   */\n      swap1\n      pop\n        /* \"#utility.yul\":10501:10655   */\n      swap2\n      swap1\n      pop\n      jump\t// out\n        /* \"#utility.yul\":10661:10804   */\n    tag_85:\n        /* \"#utility.yul\":10754:10797   */\n      tag_215\n        /* \"#utility.yul\":10791:10796   */\n      dup2\n        /* \"#utility.yul\":10754:10797   */\n      tag_84\n      jump\t// in\n    tag_215:\n        /* \"#utility.yul\":10749:10752   */\n      dup3\n        /* \"#utility.yul\":10742:10798   */\n      mstore\n        /* \"#utility.yul\":10661:10804   */\n      pop\n      pop\n      jump\t// out\n        /* \"#utility.yul\":10810:11044   */\n    tag_38:\n        /* \"#utility.yul\":10909:10913   */\n      0x00\n        /* \"#utility.yul\":10947:10949   */\n      0x20\n        /* \"#utility.yul\":10936:10945   */\n      dup3\n        /* \"#utility.yul\":10932:10950   */\n      add\n        /* \"#utility.yul\":10924:10950   */\n      swap1\n      pop\n        /* \"#utility.yul\":10960:11037   */\n      tag_217\n        /* \"#utility.yul\":11034:11035   */\n      0x00\n        /* \"#utility.yul\":11023:11032   */\n      dup4\n        /* \"#utility.yul\":11019:11036   */\n      add\n        /* \"#utility.yul\":11010:11016   */\n      dup5\n        /* \"#utility.yul\":10960:11037   */\n      tag_85\n      jump\t// in\n    tag_217:\n        /* \"#utility.yul\":10810:11044   */\n      swap3\n      swap2\n      pop\n      pop\n      jump\t// out\n        /* \"#utility.yul\":11050:11138   */\n    tag_86:\n        /* \"#utility.yul\":11098:11105   */\n      0x00\n        /* \"#utility.yul\":11127:11132   */\n      dup2\n        /* \"#utility.yul\":11116:11132   */\n      swap1\n      pop\n        /* \"#utility.yul\":11050:11138   */\n      swap2\n      swap1\n      pop\n      jump\t// out\n        /* \"#utility.yul\":11144:11306   */\n    tag_87:\n        /* \"#utility.yul\":11204:11213   */\n      0x00\n        /* \"#utility.yul\":11237:11300   */\n      tag_220\n        /* \"#utility.yul\":11254:11299   */\n      tag_221\n        /* \"#utility.yul\":11263:11298   */\n      tag_222\n        /* \"#utility.yul\":11292:11297   */\n      dup5\n        /* \"#utility.yul\":11263:11298   */\n      tag_86\n      jump\t// in\n    tag_222:\n        /* \"#utility.yul\":11254:11299   */\n      tag_83\n      jump\t// in\n    tag_221:\n        /* \"#utility.yul\":11237:11300   */\n      tag_78\n      jump\t// in\n    tag_220:\n        /* \"#utility.yul\":11224:11300   */\n      swap1\n      pop\n        /* \"#utility.yul\":11144:11306   */\n      swap2\n      swap1\n      pop\n      jump\t// out\n        /* \"#utility.yul\":11312:11463   */\n    tag_88:\n        /* \"#utility.yul\":11409:11456   */\n      tag_224\n        /* \"#utility.yul\":11450:11455   */\n      dup2\n        /* \"#utility.yul\":11409:11456   */\n      tag_87\n      jump\t// in\n    tag_224:\n        /* \"#utility.yul\":11404:11407   */\n      dup3\n        /* \"#utility.yul\":11397:11457   */\n      mstore\n        /* \"#utility.yul\":11312:11463   */\n      pop\n      pop\n      jump\t// out\n        /* \"#utility.yul\":11469:11555   */\n    tag_89:\n        /* \"#utility.yul\":11515:11522   */\n      0x00\n        /* \"#utility.yul\":11544:11549   */\n      dup2\n        /* \"#utility.yul\":11533:11549   */\n      swap1\n      pop\n        /* \"#utility.yul\":11469:11555   */\n      swap2\n      swap1\n      pop\n      jump\t// out\n        /* \"#utility.yul\":11561:11717   */\n    tag_90:\n        /* \"#utility.yul\":11618:11627   */\n      0x00\n        /* \"#utility.yul\":11651:11711   */\n      tag_227\n        /* \"#utility.yul\":11667:11710   */\n      tag_228\n        /* \"#utility.yul\":11676:11709   */\n      tag_229\n        /* \"#utility.yul\":11703:11708   */\n      dup5\n        /* \"#utility.yul\":11676:11709   */\n      tag_89\n      jump\t// in\n    tag_229:\n        /* \"#utility.yul\":11667:11710   */\n      tag_83\n      jump\t// in\n    tag_228:\n        /* \"#utility.yul\":11651:11711   */\n      tag_74\n      jump\t// in\n    tag_227:\n        /* \"#utility.yul\":11638:11711   */\n      swap1\n      pop\n        /* \"#utility.yul\":11561:11717   */\n      swap2\n      swap1\n      pop\n      jump\t// out\n        /* \"#utility.yul\":11723:11868   */\n    tag_91:\n        /* \"#utility.yul\":11817:11861   */\n      tag_231\n        /* \"#utility.yul\":11855:11860   */\n      dup2\n        /* \"#utility.yul\":11817:11861   */\n      tag_90\n      jump\t// in\n    tag_231:\n        /* \"#utility.yul\":11812:11815   */\n      dup3\n        /* \"#utility.yul\":11805:11862   */\n      mstore\n        /* \"#utility.yul\":11723:11868   */\n      pop\n      pop\n      jump\t// out\n        /* \"#utility.yul\":11874:12028   */\n    tag_92:\n        /* \"#utility.yul\":12014:12020   */\n      0x4572796300000000000000000000000000000000000000000000000000000000\n        /* \"#utility.yul\":12010:12011   */\n      0x00\n        /* \"#utility.yul\":12002:12008   */\n      dup3\n        /* \"#utility.yul\":11998:12012   */\n      add\n        /* \"#utility.yul\":11991:12021   */\n      mstore\n        /* \"#utility.yul\":11874:12028   */\n      pop\n      jump\t// out\n        /* \"#utility.yul\":12034:12399   */\n    tag_93:\n        /* \"#utility.yul\":12176:12179   */\n      0x00\n        /* \"#utility.yul\":12197:12263   */\n      tag_234\n        /* \"#utility.yul\":12261:12262   */\n      0x04\n        /* \"#utility.yul\":12256:12259   */\n      dup4\n        /* \"#utility.yul\":12197:12263   */\n      tag_59\n      jump\t// in\n    tag_234:\n        /* \"#utility.yul\":12190:12263   */\n      swap2\n      pop\n        /* \"#utility.yul\":12272:12365   */\n      tag_235\n        /* \"#utility.yul\":12361:12364   */\n      dup3\n        /* \"#utility.yul\":12272:12365   */\n      tag_92\n      jump\t// in\n    tag_235:\n        /* \"#utility.yul\":12390:12392   */\n      0x20\n        /* \"#utility.yul\":12385:12388   */\n      dup3\n        /* \"#utility.yul\":12381:12393   */\n      add\n        /* \"#utility.yul\":12374:12393   */\n      swap1\n      pop\n        /* \"#utility.yul\":12034:12399   */\n      swap2\n      swap1\n      pop\n      jump\t// out\n        /* \"#utility.yul\":12405:13177   */\n    tag_41:\n        /* \"#utility.yul\":12666:12670   */\n      0x00\n        /* \"#utility.yul\":12704:12707   */\n      0x80\n        /* \"#utility.yul\":12693:12702   */\n      dup3\n        /* \"#utility.yul\":12689:12708   */\n      add\n        /* \"#utility.yul\":12681:12708   */\n      swap1\n      pop\n        /* \"#utility.yul\":12718:12799   */\n      tag_237\n        /* \"#utility.yul\":12796:12797   */\n      0x00\n        /* \"#utility.yul\":12785:12794   */\n      dup4\n        /* \"#utility.yul\":12781:12798   */\n      add\n        /* \"#utility.yul\":12772:12778   */\n      dup7\n        /* \"#utility.yul\":12718:12799   */\n      tag_88\n      jump\t// in\n    tag_237:\n        /* \"#utility.yul\":12809:12888   */\n      tag_238\n        /* \"#utility.yul\":12884:12886   */\n      0x20\n        /* \"#utility.yul\":12873:12882   */\n      dup4\n        /* \"#utility.yul\":12869:12887   */\n      add\n        /* \"#utility.yul\":12860:12866   */\n      dup6\n        /* \"#utility.yul\":12809:12888   */\n      tag_91\n      jump\t// in\n    tag_238:\n        /* \"#utility.yul\":12935:12944   */\n      dup2\n        /* \"#utility.yul\":12929:12933   */\n      dup2\n        /* \"#utility.yul\":12925:12945   */\n      sub\n        /* \"#utility.yul\":12920:12922   */\n      0x40\n        /* \"#utility.yul\":12909:12918   */\n      dup4\n        /* \"#utility.yul\":12905:12923   */\n      add\n        /* \"#utility.yul\":12898:12946   */\n      mstore\n        /* \"#utility.yul\":12963:13094   */\n      tag_239\n        /* \"#utility.yul\":13089:13093   */\n      dup2\n        /* \"#utility.yul\":12963:13094   */\n      tag_93\n      jump\t// in\n    tag_239:\n        /* \"#utility.yul\":12955:13094   */\n      swap1\n      pop\n        /* \"#utility.yul\":13104:13170   */\n      tag_240\n        /* \"#utility.yul\":13166:13168   */\n      0x60\n        /* \"#utility.yul\":13155:13164   */\n      dup4\n        /* \"#utility.yul\":13151:13169   */\n      add\n        /* \"#utility.yul\":13142:13148   */\n      dup5\n        /* \"#utility.yul\":13104:13170   */\n      tag_71\n      jump\t// in\n    tag_240:\n        /* \"#utility.yul\":12405:13177   */\n      swap5\n      swap4\n      pop\n      pop\n      pop\n      pop\n      jump\t// out\n        /* \"#utility.yul\":13183:13305   */\n    tag_94:\n        /* \"#utility.yul\":13256:13280   */\n      tag_242\n        /* \"#utility.yul\":13274:13279   */\n      dup2\n        /* \"#utility.yul\":13256:13280   */\n      tag_68\n      jump\t// in\n    tag_242:\n        /* \"#utility.yul\":13249:13254   */\n      dup2\n        /* \"#utility.yul\":13246:13281   */\n      eq\n        /* \"#utility.yul\":13236:13299   */\n      tag_243\n      jumpi\n        /* \"#utility.yul\":13295:13296   */\n      0x00\n        /* \"#utility.yul\":13292:13293   */\n      0x00\n        /* \"#utility.yul\":13285:13297   */\n      revert\n        /* \"#utility.yul\":13236:13299   */\n    tag_243:\n        /* \"#utility.yul\":13183:13305   */\n      pop\n      jump\t// out\n        /* \"#utility.yul\":13311:13450   */\n    tag_95:\n        /* \"#utility.yul\":13357:13362   */\n      0x00\n        /* \"#utility.yul\":13395:13401   */\n      dup2\n        /* \"#utility.yul\":13382:13402   */\n      calldataload\n        /* \"#utility.yul\":13373:13402   */\n      swap1\n      pop\n        /* \"#utility.yul\":13411:13444   */\n      tag_245\n        /* \"#utility.yul\":13438:13443   */\n      dup2\n        /* \"#utility.yul\":13411:13444   */\n      tag_94\n      jump\t// in\n    tag_245:\n        /* \"#utility.yul\":13311:13450   */\n      swap3\n      swap2\n      pop\n      pop\n      jump\t// out\n        /* \"#utility.yul\":13456:13572   */\n    tag_96:\n        /* \"#utility.yul\":13526:13547   */\n      tag_247\n        /* \"#utility.yul\":13541:13546   */\n      dup2\n        /* \"#utility.yul\":13526:13547   */\n      tag_70\n      jump\t// in\n    tag_247:\n        /* \"#utility.yul\":13519:13524   */\n      dup2\n        /* \"#utility.yul\":13516:13548   */\n      eq\n        /* \"#utility.yul\":13506:13566   */\n      tag_248\n      jumpi\n        /* \"#utility.yul\":13562:13563   */\n      0x00\n        /* \"#utility.yul\":13559:13560   */\n      0x00\n        /* \"#utility.yul\":13552:13564   */\n      revert\n        /* \"#utility.yul\":13506:13566   */\n    tag_248:\n        /* \"#utility.yul\":13456:13572   */\n      pop\n      jump\t// out\n        /* \"#utility.yul\":13578:13711   */\n    tag_97:\n        /* \"#utility.yul\":13621:13626   */\n      0x00\n        /* \"#utility.yul\":13659:13665   */\n      dup2\n        /* \"#utility.yul\":13646:13666   */\n      calldataload\n        /* \"#utility.yul\":13637:13666   */\n      swap1\n      pop\n        /* \"#utility.yul\":13675:13705   */\n      tag_250\n        /* \"#utility.yul\":13699:13704   */\n      dup2\n        /* \"#utility.yul\":13675:13705   */\n      tag_96\n      jump\t// in\n    tag_250:\n        /* \"#utility.yul\":13578:13711   */\n      swap3\n      swap2\n      pop\n      pop\n      jump\t// out\n        /* \"#utility.yul\":13717:14656   */\n    tag_44:\n        /* \"#utility.yul\":13810:13816   */\n      0x00\n        /* \"#utility.yul\":13818:13824   */\n      0x00\n        /* \"#utility.yul\":13826:13832   */\n      0x00\n        /* \"#utility.yul\":13834:13840   */\n      0x00\n        /* \"#utility.yul\":13883:13886   */\n      0x80\n        /* \"#utility.yul\":13871:13880   */\n      dup6\n        /* \"#utility.yul\":13862:13869   */\n      dup8\n        /* \"#utility.yul\":13858:13881   */\n      sub\n        /* \"#utility.yul\":13854:13887   */\n      slt\n        /* \"#utility.yul\":13851:13971   */\n      iszero\n      tag_252\n      jumpi\n        /* \"#utility.yul\":13890:13969   */\n      tag_253\n      tag_46\n      jump\t// in\n    tag_253:\n        /* \"#utility.yul\":13851:13971   */\n    tag_252:\n        /* \"#utility.yul\":14010:14011   */\n      0x00\n        /* \"#utility.yul\":14035:14088   */\n      tag_254\n        /* \"#utility.yul\":14080:14087   */\n      dup8\n        /* \"#utility.yul\":14071:14077   */\n      dup3\n        /* \"#utility.yul\":14060:14069   */\n      dup9\n        /* \"#utility.yul\":14056:14078   */\n      add\n        /* \"#utility.yul\":14035:14088   */\n      tag_95\n      jump\t// in\n    tag_254:\n        /* \"#utility.yul\":14025:14088   */\n      swap5\n      pop\n        /* \"#utility.yul\":13981:14098   */\n      pop\n        /* \"#utility.yul\":14137:14139   */\n      0x20\n        /* \"#utility.yul\":14163:14216   */\n      tag_255\n        /* \"#utility.yul\":14208:14215   */\n      dup8\n        /* \"#utility.yul\":14199:14205   */\n      dup3\n        /* \"#utility.yul\":14188:14197   */\n      dup9\n        /* \"#utility.yul\":14184:14206   */\n      add\n        /* \"#utility.yul\":14163:14216   */\n      tag_95\n      jump\t// in\n    tag_255:\n        /* \"#utility.yul\":14153:14216   */\n      swap4\n      pop\n        /* \"#utility.yul\":14108:14226   */\n      pop\n        /* \"#utility.yul\":14293:14295   */\n      0x40\n        /* \"#utility.yul\":14282:14291   */\n      dup6\n        /* \"#utility.yul\":14278:14296   */\n      add\n        /* \"#utility.yul\":14265:14297   */\n      calldataload\n        /* \"#utility.yul\":14324:14342   */\n      0xffffffffffffffff\n        /* \"#utility.yul\":14316:14322   */\n      dup2\n        /* \"#utility.yul\":14313:14343   */\n      gt\n        /* \"#utility.yul\":14310:14427   */\n      iszero\n      tag_256\n      jumpi\n        /* \"#utility.yul\":14346:14425   */\n      tag_257\n      tag_47\n      jump\t// in\n    tag_257:\n        /* \"#utility.yul\":14310:14427   */\n    tag_256:\n        /* \"#utility.yul\":14451:14514   */\n      tag_258\n        /* \"#utility.yul\":14506:14513   */\n      dup8\n        /* \"#utility.yul\":14497:14503   */\n      dup3\n        /* \"#utility.yul\":14486:14495   */\n      dup9\n        /* \"#utility.yul\":14482:14504   */\n      add\n        /* \"#utility.yul\":14451:14514   */\n      tag_57\n      jump\t// in\n    tag_258:\n        /* \"#utility.yul\":14441:14514   */\n      swap3\n      pop\n        /* \"#utility.yul\":14236:14524   */\n      pop\n        /* \"#utility.yul\":14563:14565   */\n      0x60\n        /* \"#utility.yul\":14589:14639   */\n      tag_259\n        /* \"#utility.yul\":14631:14638   */\n      dup8\n        /* \"#utility.yul\":14622:14628   */\n      dup3\n        /* \"#utility.yul\":14611:14620   */\n      dup9\n        /* \"#utility.yul\":14607:14629   */\n      add\n        /* \"#utility.yul\":14589:14639   */\n      tag_97\n      jump\t// in\n    tag_259:\n        /* \"#utility.yul\":14579:14639   */\n      swap2\n      pop\n        /* \"#utility.yul\":14534:14649   */\n      pop\n        /* \"#utility.yul\":13717:14656   */\n      swap3\n      swap6\n      swap2\n      swap5\n      pop\n      swap3\n      pop\n      jump\t// out\n\n    auxdata: 0xa26469706673582212207d9fc252def0b5cb90ec799e7f4e614a4f758d9a6b262c663240711e8a8dfa7564736f6c634300081e0033\n}\n",
				"bytecode": {
					"linkReferences": {},
					"object": "6080604052348015600e575f5ffd5b506109e68061001c5f395ff3fe608060405234801561000f575f5ffd5b5060043610610055575f3560e01c80631641deba14610059578063434b405e146100895780637a7cbf93146100a7578063bd14598f146100c5578063e5c5e9a3146100e3575b5f5ffd5b610073600480360381019061006e91906103db565b610116565b60405161008091906104b1565b60405180910390f35b610091610142565b60405161009e9190610523565b60405180910390f35b6100af6101a4565b6040516100bc9190610523565b60405180910390f35b6100cd61023a565b6040516100da9190610523565b60405180910390f35b6100fd60048036038101906100f891906105a0565b610269565b60405161010d949392919061061d565b60405180910390f35b6060828260405160200161012b9291906106a1565b604051602081830303815290604052905092915050565b6060600360076040518060400160405280600481526020017f457279630000000000000000000000000000000000000000000000000000000081525060405160200161019093929190610745565b604051602081830303815290604052905090565b606060056040516024016101b891906107bf565b6040516020818303038152906040527fab5c1601000000000000000000000000000000000000000000000000000000007bffffffffffffffffffffffffffffffffffffffffffffffffffffffff19166020820180517bffffffffffffffffffffffffffffffffffffffffffffffffffffffff8381831617835250505050905090565b60606107e96014600160405160200161025593929190610894565b604051602081830303815290604052905090565b5f5f60605f858581019061027d9190610930565b935093509350935092959194509250565b5f604051905090565b5f5ffd5b5f5ffd5b5f5ffd5b5f5ffd5b5f601f19601f8301169050919050565b7f4e487b71000000000000000000000000000000000000000000000000000000005f52604160045260245ffd5b6102ed826102a7565b810181811067ffffffffffffffff8211171561030c5761030b6102b7565b5b80604052505050565b5f61031e61028e565b905061032a82826102e4565b919050565b5f67ffffffffffffffff821115610349576103486102b7565b5b610352826102a7565b9050602081019050919050565b828183375f83830152505050565b5f61037f61037a8461032f565b610315565b90508281526020810184848401111561039b5761039a6102a3565b5b6103a684828561035f565b509392505050565b5f82601f8301126103c2576103c161029f565b5b81356103d284826020860161036d565b91505092915050565b5f5f604083850312156103f1576103f0610297565b5b5f83013567ffffffffffffffff81111561040e5761040d61029b565b5b61041a858286016103ae565b925050602083013567ffffffffffffffff81111561043b5761043a61029b565b5b610447858286016103ae565b9150509250929050565b5f81519050919050565b5f82825260208201905092915050565b8281835e5f83830152505050565b5f61048382610451565b61048d818561045b565b935061049d81856020860161046b565b6104a6816102a7565b840191505092915050565b5f6020820190508181035f8301526104c98184610479565b905092915050565b5f81519050919050565b5f82825260208201905092915050565b5f6104f5826104d1565b6104ff81856104db565b935061050f81856020860161046b565b610518816102a7565b840191505092915050565b5f6020820190508181035f83015261053b81846104eb565b905092915050565b5f5ffd5b5f5ffd5b5f5f83601f8401126105605761055f61029f565b5b8235905067ffffffffffffffff81111561057d5761057c610543565b5b60208301915083600182028301111561059957610598610547565b5b9250929050565b5f5f602083850312156105b6576105b5610297565b5b5f83013567ffffffffffffffff8111156105d3576105d261029b565b5b6105df8582860161054b565b92509250509250929050565b5f819050919050565b6105fd816105eb565b82525050565b5f8115159050919050565b61061781610603565b82525050565b5f6080820190506106305f8301876105f4565b61063d60208301866105f4565b818103604083015261064f8185610479565b905061065e606083018461060e565b95945050505050565b5f81905092915050565b5f61067b82610451565b6106858185610667565b935061069581856020860161046b565b80840191505092915050565b5f6106ac8285610671565b91506106b88284610671565b91508190509392505050565b5f60ff82169050919050565b5f8160f81b9050919050565b5f6106e6826106d0565b9050919050565b6106fe6106f9826106c4565b6106dc565b82525050565b5f61ffff82169050919050565b5f8160f01b9050919050565b5f61072782610711565b9050919050565b61073f61073a82610704565b61071d565b82525050565b5f61075082866106ed565b600182019150610760828561072e565b6002820191506107708284610671565b9150819050949350505050565b5f819050919050565b5f819050919050565b5f6107a96107a461079f8461077d565b610786565b6106c4565b9050919050565b6107b98161078f565b82525050565b5f6020820190506107d25f8301846107b0565b92915050565b5f819050919050565b5f6107fb6107f66107f1846107d8565b610786565b610704565b9050919050565b61080b816107e1565b82525050565b5f819050919050565b5f61083461082f61082a84610811565b610786565b6106c4565b9050919050565b6108448161081a565b82525050565b7f45727963000000000000000000000000000000000000000000000000000000005f82015250565b5f61087e60048361045b565b91506108898261084a565b602082019050919050565b5f6080820190506108a75f830186610802565b6108b4602083018561083b565b81810360408301526108c581610872565b90506108d4606083018461060e565b949350505050565b6108e5816105eb565b81146108ef575f5ffd5b50565b5f81359050610900816108dc565b92915050565b61090f81610603565b8114610919575f5ffd5b50565b5f8135905061092a81610906565b92915050565b5f5f5f5f6080858703121561094857610947610297565b5b5f610955878288016108f2565b9450506020610966878288016108f2565b935050604085013567ffffffffffffffff8111156109875761098661029b565b5b610993878288016103ae565b92505060606109a48782880161091c565b9150509295919450925056fea26469706673582212207d9fc252def0b5cb90ec799e7f4e614a4f758d9a6b262c663240711e8a8dfa7564736f6c634300081e0033",
					"opcodes": "PUSH1 0x80 PUSH1 0x40 MSTORE CALLVALUE DUP1 ISZERO PUSH1 0xE JUMPI PUSH0 PUSH0 REVERT JUMPDEST POP PUSH2 0x9E6 DUP1 PUSH2 0x1C PUSH0 CODECOPY PUSH0 RETURN INVALID PUSH1 0x80 PUSH1 0x40 MSTORE CALLVALUE DUP1 ISZERO PUSH2 0xF JUMPI PUSH0 PUSH0 REVERT JUMPDEST POP PUSH1 0x4 CALLDATASIZE LT PUSH2 0x55 JUMPI PUSH0 CALLDATALOAD PUSH1 0xE0 SHR DUP1 PUSH4 0x1641DEBA EQ PUSH2 0x59 JUMPI DUP1 PUSH4 0x434B405E EQ PUSH2 0x89 JUMPI DUP1 PUSH4 0x7A7CBF93 EQ PUSH2 0xA7 JUMPI DUP1 PUSH4 0xBD14598F EQ PUSH2 0xC5 JUMPI DUP1 PUSH4 0xE5C5E9A3 EQ PUSH2 0xE3 JUMPI JUMPDEST PUSH0 PUSH0 REVERT JUMPDEST PUSH2 0x73 PUSH1 0x4 DUP1 CALLDATASIZE SUB DUP2 ADD SWAP1 PUSH2 0x6E SWAP2 SWAP1 PUSH2 0x3DB JUMP JUMPDEST PUSH2 0x116 JUMP JUMPDEST PUSH1 0x40 MLOAD PUSH2 0x80 SWAP2 SWAP1 PUSH2 0x4B1 JUMP JUMPDEST PUSH1 0x40 MLOAD DUP1 SWAP2 SUB SWAP1 RETURN JUMPDEST PUSH2 0x91 PUSH2 0x142 JUMP JUMPDEST PUSH1 0x40 MLOAD PUSH2 0x9E SWAP2 SWAP1 PUSH2 0x523 JUMP JUMPDEST PUSH1 0x40 MLOAD DUP1 SWAP2 SUB SWAP1 RETURN JUMPDEST PUSH2 0xAF PUSH2 0x1A4 JUMP JUMPDEST PUSH1 0x40 MLOAD PUSH2 0xBC SWAP2 SWAP1 PUSH2 0x523 JUMP JUMPDEST PUSH1 0x40 MLOAD DUP1 SWAP2 SUB SWAP1 RETURN JUMPDEST PUSH2 0xCD PUSH2 0x23A JUMP JUMPDEST PUSH1 0x40 MLOAD PUSH2 0xDA SWAP2 SWAP1 PUSH2 0x523 JUMP JUMPDEST PUSH1 0x40 MLOAD DUP1 SWAP2 SUB SWAP1 RETURN JUMPDEST PUSH2 0xFD PUSH1 0x4 DUP1 CALLDATASIZE SUB DUP2 ADD SWAP1 PUSH2 0xF8 SWAP2 SWAP1 PUSH2 0x5A0 JUMP JUMPDEST PUSH2 0x269 JUMP JUMPDEST PUSH1 0x40 MLOAD PUSH2 0x10D SWAP5 SWAP4 SWAP3 SWAP2 SWAP1 PUSH2 0x61D JUMP JUMPDEST PUSH1 0x40 MLOAD DUP1 SWAP2 SUB SWAP1 RETURN JUMPDEST PUSH1 0x60 DUP3 DUP3 PUSH1 0x40 MLOAD PUSH1 0x20 ADD PUSH2 0x12B SWAP3 SWAP2 SWAP1 PUSH2 0x6A1 JUMP JUMPDEST PUSH1 0x40 MLOAD PUSH1 0x20 DUP2 DUP4 SUB SUB DUP2 MSTORE SWAP1 PUSH1 0x40 MSTORE SWAP1 POP SWAP3 SWAP2 POP POP JUMP JUMPDEST PUSH1 0x60 PUSH1 0x3 PUSH1 0x7 PUSH1 0x40 MLOAD DUP1 PUSH1 0x40 ADD PUSH1 0x40 MSTORE DUP1 PUSH1 0x4 DUP2 MSTORE PUSH1 0x20 ADD PUSH32 0x4572796300000000000000000000000000000000000000000000000000000000 DUP2 MSTORE POP PUSH1 0x40 MLOAD PUSH1 0x20 ADD PUSH2 0x190 SWAP4 SWAP3 SWAP2 SWAP1 PUSH2 0x745 JUMP JUMPDEST PUSH1 0x40 MLOAD PUSH1 0x20 DUP2 DUP4 SUB SUB DUP2 MSTORE SWAP1 PUSH1 0x40 MSTORE SWAP1 POP SWAP1 JUMP JUMPDEST PUSH1 0x60 PUSH1 0x5 PUSH1 0x40 MLOAD PUSH1 0x24 ADD PUSH2 0x1B8 SWAP2 SWAP1 PUSH2 0x7BF JUMP JUMPDEST PUSH1 0x40 MLOAD PUSH1 0x20 DUP2 DUP4 SUB SUB DUP2 MSTORE SWAP1 PUSH1 0x40 MSTORE PUSH32 0xAB5C160100000000000000000000000000000000000000000000000000000000 PUSH28 0xFFFFFFFFFFFFFFFFFFFFFFFFFFFFFFFFFFFFFFFFFFFFFFFFFFFFFFFF NOT AND PUSH1 0x20 DUP3 ADD DUP1 MLOAD PUSH28 0xFFFFFFFFFFFFFFFFFFFFFFFFFFFFFFFFFFFFFFFFFFFFFFFFFFFFFFFF DUP4 DUP2 DUP4 AND OR DUP4 MSTORE POP POP POP POP SWAP1 POP SWAP1 JUMP JUMPDEST PUSH1 0x60 PUSH2 0x7E9 PUSH1 0x14 PUSH1 0x1 PUSH1 0x40 MLOAD PUSH1 0x20 ADD PUSH2 0x255 SWAP4 SWAP3 SWAP2 SWAP1 PUSH2 0x894 JUMP JUMPDEST PUSH1 0x40 MLOAD PUSH1 0x20 DUP2 DUP4 SUB SUB DUP2 MSTORE SWAP1 PUSH1 0x40 MSTORE SWAP1 POP SWAP1 JUMP JUMPDEST PUSH0 PUSH0 PUSH1 0x60 PUSH0 DUP6 DUP6 DUP2 ADD SWAP1 PUSH2 0x27D SWAP2 SWAP1 PUSH2 0x930 JUMP JUMPDEST SWAP4 POP SWAP4 POP SWAP4 POP SWAP4 POP SWAP3 SWAP6 SWAP2 SWAP5 POP SWAP3 POP JUMP JUMPDEST PUSH0 PUSH1 0x40 MLOAD SWAP1 POP SWAP1 JUMP JUMPDEST PUSH0 PUSH0 REVERT JUMPDEST PUSH0 PUSH0 REVERT JUMPDEST PUSH0 PUSH0 REVERT JUMPDEST PUSH0 PUSH0 REVERT JUMPDEST PUSH0 PUSH1 0x1F NOT PUSH1 0x1F DUP4 ADD AND SWAP1 POP SWAP2 SWAP1 POP JUMP JUMPDEST PUSH32 0x4E487B7100000000000000000000000000000000000000000000000000000000 PUSH0 MSTORE PUSH1 0x41 PUSH1 0x4 MSTORE PUSH1 0x24 PUSH0 REVERT JUMPDEST PUSH2 0x2ED DUP3 PUSH2 0x2A7 JUMP JUMPDEST DUP2 ADD DUP2 DUP2 LT PUSH8 0xFFFFFFFFFFFFFFFF DUP3 GT OR ISZERO PUSH2 0x30C JUMPI PUSH2 0x30B PUSH2 0x2B7 JUMP JUMPDEST JUMPDEST DUP1 PUSH1 0x40 MSTORE POP POP POP JUMP JUMPDEST PUSH0 PUSH2 0x31E PUSH2 0x28E JUMP JUMPDEST SWAP1 POP PUSH2 0x32A DUP3 DUP3 PUSH2 0x2E4 JUMP JUMPDEST SWAP2 SWAP1 POP JUMP JUMPDEST PUSH0 PUSH8 0xFFFFFFFFFFFFFFFF DUP3 GT ISZERO PUSH2 0x349 JUMPI PUSH2 0x348 PUSH2 0x2B7 JUMP JUMPDEST JUMPDEST PUSH2 0x352 DUP3 PUSH2 0x2A7 JUMP JUMPDEST SWAP1 POP PUSH1 0x20 DUP2 ADD SWAP1 POP SWAP2 SWAP1 POP JUMP JUMPDEST DUP3 DUP2 DUP4 CALLDATACOPY PUSH0 DUP4 DUP4 ADD MSTORE POP POP POP JUMP JUMPDEST PUSH0 PUSH2 0x37F PUSH2 0x37A DUP5 PUSH2 0x32F JUMP JUMPDEST PUSH2 0x315 JUMP JUMPDEST SWAP1 POP DUP3 DUP2 MSTORE PUSH1 0x20 DUP2 ADD DUP5 DUP5 DUP5 ADD GT ISZERO PUSH2 0x39B JUMPI PUSH2 0x39A PUSH2 0x2A3 JUMP JUMPDEST JUMPDEST PUSH2 0x3A6 DUP5 DUP3 DUP6 PUSH2 0x35F JUMP JUMPDEST POP SWAP4 SWAP3 POP POP POP JUMP JUMPDEST PUSH0 DUP3 PUSH1 0x1F DUP4 ADD SLT PUSH2 0x3C2 JUMPI PUSH2 0x3C1 PUSH2 0x29F JUMP JUMPDEST JUMPDEST DUP2 CALLDATALOAD PUSH2 0x3D2 DUP5 DUP3 PUSH1 0x20 DUP7 ADD PUSH2 0x36D JUMP JUMPDEST SWAP2 POP POP SWAP3 SWAP2 POP POP JUMP JUMPDEST PUSH0 PUSH0 PUSH1 0x40 DUP4 DUP6 SUB SLT ISZERO PUSH2 0x3F1 JUMPI PUSH2 0x3F0 PUSH2 0x297 JUMP JUMPDEST JUMPDEST PUSH0 DUP4 ADD CALLDATALOAD PUSH8 0xFFFFFFFFFFFFFFFF DUP2 GT ISZERO PUSH2 0x40E JUMPI PUSH2 0x40D PUSH2 0x29B JUMP JUMPDEST JUMPDEST PUSH2 0x41A DUP6 DUP3 DUP7 ADD PUSH2 0x3AE JUMP JUMPDEST SWAP3 POP POP PUSH1 0x20 DUP4 ADD CALLDATALOAD PUSH8 0xFFFFFFFFFFFFFFFF DUP2 GT ISZERO PUSH2 0x43B JUMPI PUSH2 0x43A PUSH2 0x29B JUMP JUMPDEST JUMPDEST PUSH2 0x447 DUP6 DUP3 DUP7 ADD PUSH2 0x3AE JUMP JUMPDEST SWAP2 POP POP SWAP3 POP SWAP3 SWAP1 POP JUMP JUMPDEST PUSH0 DUP2 MLOAD SWAP1 POP SWAP2 SWAP1 POP JUMP JUMPDEST PUSH0 DUP3 DUP3 MSTORE PUSH1 0x20 DUP3 ADD SWAP1 POP SWAP3 SWAP2 POP POP JUMP JUMPDEST DUP3 DUP2 DUP4 MCOPY PUSH0 DUP4 DUP4 ADD MSTORE POP POP POP JUMP JUMPDEST PUSH0 PUSH2 0x483 DUP3 PUSH2 0x451 JUMP JUMPDEST PUSH2 0x48D DUP2 DUP6 PUSH2 0x45B JUMP JUMPDEST SWAP4 POP PUSH2 0x49D DUP2 DUP6 PUSH1 0x20 DUP7 ADD PUSH2 0x46B JUMP JUMPDEST PUSH2 0x4A6 DUP2 PUSH2 0x2A7 JUMP JUMPDEST DUP5 ADD SWAP2 POP POP SWAP3 SWAP2 POP POP JUMP JUMPDEST PUSH0 PUSH1 0x20 DUP3 ADD SWAP1 POP DUP2 DUP2 SUB PUSH0 DUP4 ADD MSTORE PUSH2 0x4C9 DUP2 DUP5 PUSH2 0x479 JUMP JUMPDEST SWAP1 POP SWAP3 SWAP2 POP POP JUMP JUMPDEST PUSH0 DUP2 MLOAD SWAP1 POP SWAP2 SWAP1 POP JUMP JUMPDEST PUSH0 DUP3 DUP3 MSTORE PUSH1 0x20 DUP3 ADD SWAP1 POP SWAP3 SWAP2 POP POP JUMP JUMPDEST PUSH0 PUSH2 0x4F5 DUP3 PUSH2 0x4D1 JUMP JUMPDEST PUSH2 0x4FF DUP2 DUP6 PUSH2 0x4DB JUMP JUMPDEST SWAP4 POP PUSH2 0x50F DUP2 DUP6 PUSH1 0x20 DUP7 ADD PUSH2 0x46B JUMP JUMPDEST PUSH2 0x518 DUP2 PUSH2 0x2A7 JUMP JUMPDEST DUP5 ADD SWAP2 POP POP SWAP3 SWAP2 POP POP JUMP JUMPDEST PUSH0 PUSH1 0x20 DUP3 ADD SWAP1 POP DUP2 DUP2 SUB PUSH0 DUP4 ADD MSTORE PUSH2 0x53B DUP2 DUP5 PUSH2 0x4EB JUMP JUMPDEST SWAP1 POP SWAP3 SWAP2 POP POP JUMP JUMPDEST PUSH0 PUSH0 REVERT JUMPDEST PUSH0 PUSH0 REVERT JUMPDEST PUSH0 PUSH0 DUP4 PUSH1 0x1F DUP5 ADD SLT PUSH2 0x560 JUMPI PUSH2 0x55F PUSH2 0x29F JUMP JUMPDEST JUMPDEST DUP3 CALLDATALOAD SWAP1 POP PUSH8 0xFFFFFFFFFFFFFFFF DUP2 GT ISZERO PUSH2 0x57D JUMPI PUSH2 0x57C PUSH2 0x543 JUMP JUMPDEST JUMPDEST PUSH1 0x20 DUP4 ADD SWAP2 POP DUP4 PUSH1 0x1 DUP3 MUL DUP4 ADD GT ISZERO PUSH2 0x599 JUMPI PUSH2 0x598 PUSH2 0x547 JUMP JUMPDEST JUMPDEST SWAP3 POP SWAP3 SWAP1 POP JUMP JUMPDEST PUSH0 PUSH0 PUSH1 0x20 DUP4 DUP6 SUB SLT ISZERO PUSH2 0x5B6 JUMPI PUSH2 0x5B5 PUSH2 0x297 JUMP JUMPDEST JUMPDEST PUSH0 DUP4 ADD CALLDATALOAD PUSH8 0xFFFFFFFFFFFFFFFF DUP2 GT ISZERO PUSH2 0x5D3 JUMPI PUSH2 0x5D2 PUSH2 0x29B JUMP JUMPDEST JUMPDEST PUSH2 0x5DF DUP6 DUP3 DUP7 ADD PUSH2 0x54B JUMP JUMPDEST SWAP3 POP SWAP3 POP POP SWAP3 POP SWAP3 SWAP1 POP JUMP JUMPDEST PUSH0 DUP2 SWAP1 POP SWAP2 SWAP1 POP JUMP JUMPDEST PUSH2 0x5FD DUP2 PUSH2 0x5EB JUMP JUMPDEST DUP3 MSTORE POP POP JUMP JUMPDEST PUSH0 DUP2 ISZERO ISZERO SWAP1 POP SWAP2 SWAP1 POP JUMP JUMPDEST PUSH2 0x617 DUP2 PUSH2 0x603 JUMP JUMPDEST DUP3 MSTORE POP POP JUMP JUMPDEST PUSH0 PUSH1 0x80 DUP3 ADD SWAP1 POP PUSH2 0x630 PUSH0 DUP4 ADD DUP8 PUSH2 0x5F4 JUMP JUMPDEST PUSH2 0x63D PUSH1 0x20 DUP4 ADD DUP7 PUSH2 0x5F4 JUMP JUMPDEST DUP2 DUP2 SUB PUSH1 0x40 DUP4 ADD MSTORE PUSH2 0x64F DUP2 DUP6 PUSH2 0x479 JUMP JUMPDEST SWAP1 POP PUSH2 0x65E PUSH1 0x60 DUP4 ADD DUP5 PUSH2 0x60E JUMP JUMPDEST SWAP6 SWAP5 POP POP POP POP POP JUMP JUMPDEST PUSH0 DUP2 SWAP1 POP SWAP3 SWAP2 POP POP JUMP JUMPDEST PUSH0 PUSH2 0x67B DUP3 PUSH2 0x451 JUMP JUMPDEST PUSH2 0x685 DUP2 DUP6 PUSH2 0x667 JUMP JUMPDEST SWAP4 POP PUSH2 0x695 DUP2 DUP6 PUSH1 0x20 DUP7 ADD PUSH2 0x46B JUMP JUMPDEST DUP1 DUP5 ADD SWAP2 POP POP SWAP3 SWAP2 POP POP JUMP JUMPDEST PUSH0 PUSH2 0x6AC DUP3 DUP6 PUSH2 0x671 JUMP JUMPDEST SWAP2 POP PUSH2 0x6B8 DUP3 DUP5 PUSH2 0x671 JUMP JUMPDEST SWAP2 POP DUP2 SWAP1 POP SWAP4 SWAP3 POP POP POP JUMP JUMPDEST PUSH0 PUSH1 0xFF DUP3 AND SWAP1 POP SWAP2 SWAP1 POP JUMP JUMPDEST PUSH0 DUP2 PUSH1 0xF8 SHL SWAP1 POP SWAP2 SWAP1 POP JUMP JUMPDEST PUSH0 PUSH2 0x6E6 DUP3 PUSH2 0x6D0 JUMP JUMPDEST SWAP1 POP SWAP2 SWAP1 POP JUMP JUMPDEST PUSH2 0x6FE PUSH2 0x6F9 DUP3 PUSH2 0x6C4 JUMP JUMPDEST PUSH2 0x6DC JUMP JUMPDEST DUP3 MSTORE POP POP JUMP JUMPDEST PUSH0 PUSH2 0xFFFF DUP3 AND SWAP1 POP SWAP2 SWAP1 POP JUMP JUMPDEST PUSH0 DUP2 PUSH1 0xF0 SHL SWAP1 POP SWAP2 SWAP1 POP JUMP JUMPDEST PUSH0 PUSH2 0x727 DUP3 PUSH2 0x711 JUMP JUMPDEST SWAP1 POP SWAP2 SWAP1 POP JUMP JUMPDEST PUSH2 0x73F PUSH2 0x73A DUP3 PUSH2 0x704 JUMP JUMPDEST PUSH2 0x71D JUMP JUMPDEST DUP3 MSTORE POP POP JUMP JUMPDEST PUSH0 PUSH2 0x750 DUP3 DUP7 PUSH2 0x6ED JUMP JUMPDEST PUSH1 0x1 DUP3 ADD SWAP2 POP PUSH2 0x760 DUP3 DUP6 PUSH2 0x72E JUMP JUMPDEST PUSH1 0x2 DUP3 ADD SWAP2 POP PUSH2 0x770 DUP3 DUP5 PUSH2 0x671 JUMP JUMPDEST SWAP2 POP DUP2 SWAP1 POP SWAP5 SWAP4 POP POP POP POP JUMP JUMPDEST PUSH0 DUP2 SWAP1 POP SWAP2 SWAP1 POP JUMP JUMPDEST PUSH0 DUP2 SWAP1 POP SWAP2 SWAP1 POP JUMP JUMPDEST PUSH0 PUSH2 0x7A9 PUSH2 0x7A4 PUSH2 0x79F DUP5 PUSH2 0x77D JUMP JUMPDEST PUSH2 0x786 JUMP JUMPDEST PUSH2 0x6C4 JUMP JUMPDEST SWAP1 POP SWAP2 SWAP1 POP JUMP JUMPDEST PUSH2 0x7B9 DUP2 PUSH2 0x78F JUMP JUMPDEST DUP3 MSTORE POP POP JUMP JUMPDEST PUSH0 PUSH1 0x20 DUP3 ADD SWAP1 POP PUSH2 0x7D2 PUSH0 DUP4 ADD DUP5 PUSH2 0x7B0 JUMP JUMPDEST SWAP3 SWAP2 POP POP JUMP JUMPDEST PUSH0 DUP2 SWAP1 POP SWAP2 SWAP1 POP JUMP JUMPDEST PUSH0 PUSH2 0x7FB PUSH2 0x7F6 PUSH2 0x7F1 DUP5 PUSH2 0x7D8 JUMP JUMPDEST PUSH2 0x786 JUMP JUMPDEST PUSH2 0x704 JUMP JUMPDEST SWAP1 POP SWAP2 SWAP1 POP JUMP JUMPDEST PUSH2 0x80B DUP2 PUSH2 0x7E1 JUMP JUMPDEST DUP3 MSTORE POP POP JUMP JUMPDEST PUSH0 DUP2 SWAP1 POP SWAP2 SWAP1 POP JUMP JUMPDEST PUSH0 PUSH2 0x834 PUSH2 0x82F PUSH2 0x82A DUP5 PUSH2 0x811 JUMP JUMPDEST PUSH2 0x786 JUMP JUMPDEST PUSH2 0x6C4 JUMP JUMPDEST SWAP1 POP SWAP2 SWAP1 POP JUMP JUMPDEST PUSH2 0x844 DUP2 PUSH2 0x81A JUMP JUMPDEST DUP3 MSTORE POP POP JUMP JUMPDEST PUSH32 0x4572796300000000000000000000000000000000000000000000000000000000 PUSH0 DUP3 ADD MSTORE POP JUMP JUMPDEST PUSH0 PUSH2 0x87E PUSH1 0x4 DUP4 PUSH2 0x45B JUMP JUMPDEST SWAP2 POP PUSH2 0x889 DUP3 PUSH2 0x84A JUMP JUMPDEST PUSH1 0x20 DUP3 ADD SWAP1 POP SWAP2 SWAP1 POP JUMP JUMPDEST PUSH0 PUSH1 0x80 DUP3 ADD SWAP1 POP PUSH2 0x8A7 PUSH0 DUP4 ADD DUP7 PUSH2 0x802 JUMP JUMPDEST PUSH2 0x8B4 PUSH1 0x20 DUP4 ADD DUP6 PUSH2 0x83B JUMP JUMPDEST DUP2 DUP2 SUB PUSH1 0x40 DUP4 ADD MSTORE PUSH2 0x8C5 DUP2 PUSH2 0x872 JUMP JUMPDEST SWAP1 POP PUSH2 0x8D4 PUSH1 0x60 DUP4 ADD DUP5 PUSH2 0x60E JUMP JUMPDEST SWAP5 SWAP4 POP POP POP POP JUMP JUMPDEST PUSH2 0x8E5 DUP2 PUSH2 0x5EB JUMP JUMPDEST DUP2 EQ PUSH2 0x8EF JUMPI PUSH0 PUSH0 REVERT JUMPDEST POP JUMP JUMPDEST PUSH0 DUP2 CALLDATALOAD SWAP1 POP PUSH2 0x900 DUP2 PUSH2 0x8DC JUMP JUMPDEST SWAP3 SWAP2 POP POP JUMP JUMPDEST PUSH2 0x90F DUP2 PUSH2 0x603 JUMP JUMPDEST DUP2 EQ PUSH2 0x919 JUMPI PUSH0 PUSH0 REVERT JUMPDEST POP JUMP JUMPDEST PUSH0 DUP2 CALLDATALOAD SWAP1 POP PUSH2 0x92A DUP2 PUSH2 0x906 JUMP JUMPDEST SWAP3 SWAP2 POP POP JUMP JUMPDEST PUSH0 PUSH0 PUSH0 PUSH0 PUSH1 0x80 DUP6 DUP8 SUB SLT ISZERO PUSH2 0x948 JUMPI PUSH2 0x947 PUSH2 0x297 JUMP JUMPDEST JUMPDEST PUSH0 PUSH2 0x955 DUP8 DUP3 DUP9 ADD PUSH2 0x8F2 JUMP JUMPDEST SWAP5 POP POP PUSH1 0x20 PUSH2 0x966 DUP8 DUP3 DUP9 ADD PUSH2 0x8F2 JUMP JUMPDEST SWAP4 POP POP PUSH1 0x40 DUP6 ADD CALLDATALOAD PUSH8 0xFFFFFFFFFFFFFFFF DUP2 GT ISZERO PUSH2 0x987 JUMPI PUSH2 0x986 PUSH2 0x29B JUMP JUMPDEST JUMPDEST PUSH2 0x993 DUP8 DUP3 DUP9 ADD PUSH2 0x3AE JUMP JUMPDEST SWAP3 POP POP PUSH1 0x60 PUSH2 0x9A4 DUP8 DUP3 DUP9 ADD PUSH2 0x91C JUMP JUMPDEST SWAP2 POP POP SWAP3 SWAP6 SWAP2 SWAP5 POP SWAP3 POP JUMP INVALID LOG2 PUSH5 0x6970667358 0x22 SLT KECCAK256 PUSH30 0x9FC252DEF0B5CB90EC799E7F4E614A4F758D9A6B262C663240711E8A8DFA PUSH22 0x64736F6C634300081E00330000000000000000000000 "
				},
				"gasEstimates": {
					"creation": {
						"codeDepositCost": "506800",
						"executionCost": "541",
						"totalCost": "507341"
					},
					"external": {
						"concatena(string,string)": "infinite",
						"decode(bytes)": "infinite",
						"encode()": "infinite",
						"encodePacote()": "infinite",
						"encodeSignature()": "infinite"
					}
				},
				"methodIdentifiers": {
					"concatena(string,string)": "1641deba",
					"decode(bytes)": "e5c5e9a3",
					"encode()": "bd14598f",
					"encodePacote()": "434b405e",
					"encodeSignature()": "7a7cbf93"
				}
			},
			"storageLayout": {
				"storage": [],
				"types": null
			},
			"userdoc": {
				"kind": "user",
				"methods": {},
				"version": 1
			}
		}
	}
}