{
	"Introdução ao Solidity/Aprenda Solidity/Bibliotecas externas.sol": {
		"meuContrato": {
			"abi": [
				{
					"inputs": [
						{
							"internalType": "uint256",
							"name": "x",
							"type": "uint256"
						}
					],
					"name": "usarquadrado",
					"outputs": [
						{
							"internalType": "uint256",
							"name": "",
							"type": "uint256"
						}
					],
					"stateMutability": "pure",
					"type": "function"
				}
			],
			"devdoc": {
				"kind": "dev",
				"methods": {},
				"version": 1
			},
			"evm": {
				"assembly": "    /* \"Introdu\\xc3\\xa7\\xc3\\xa3o ao Solidity/Aprenda Solidity/Bibliotecas externas.sol\":162:287  contract meuContrato{... */\n  mstore(0x40, 0x80)\n  callvalue\n  dup1\n  iszero\n  tag_1\n  jumpi\n  revert(0x00, 0x00)\ntag_1:\n  pop\n  dataSize(sub_0)\n  dup1\n  dataOffset(sub_0)\n  0x00\n  codecopy\n  0x00\n  return\nstop\n\nsub_0: assembly {\n        /* \"Introdu\\xc3\\xa7\\xc3\\xa3o ao Solidity/Aprenda Solidity/Bibliotecas externas.sol\":162:287  contract meuContrato{... */\n      mstore(0x40, 0x80)\n      callvalue\n      dup1\n      iszero\n      tag_1\n      jumpi\n      revert(0x00, 0x00)\n    tag_1:\n      pop\n      jumpi(tag_2, lt(calldatasize, 0x04))\n      shr(0xe0, calldataload(0x00))\n      dup1\n      0xc723c25d\n      eq\n      tag_3\n      jumpi\n    tag_2:\n      revert(0x00, 0x00)\n        /* \"Introdu\\xc3\\xa7\\xc3\\xa3o ao Solidity/Aprenda Solidity/Bibliotecas externas.sol\":189:285  function usarquadrado(uint x) public pure returns (uint){... */\n    tag_3:\n      tag_4\n      0x04\n      dup1\n      calldatasize\n      sub\n      dup2\n      add\n      swap1\n      tag_5\n      swap2\n      swap1\n      tag_6\n      jump\t// in\n    tag_5:\n      tag_7\n      jump\t// in\n    tag_4:\n      mload(0x40)\n      tag_8\n      swap2\n      swap1\n      tag_9\n      jump\t// in\n    tag_8:\n      mload(0x40)\n      dup1\n      swap2\n      sub\n      swap1\n      return\n    tag_7:\n        /* \"Introdu\\xc3\\xa7\\xc3\\xa3o ao Solidity/Aprenda Solidity/Bibliotecas externas.sol\":240:244  uint */\n      0x00\n        /* \"Introdu\\xc3\\xa7\\xc3\\xa3o ao Solidity/Aprenda Solidity/Bibliotecas externas.sol\":262:278  Quadro.quadro(x) */\n      tag_11\n        /* \"Introdu\\xc3\\xa7\\xc3\\xa3o ao Solidity/Aprenda Solidity/Bibliotecas externas.sol\":276:277  x */\n      dup3\n        /* \"Introdu\\xc3\\xa7\\xc3\\xa3o ao Solidity/Aprenda Solidity/Bibliotecas externas.sol\":262:275  Quadro.quadro */\n      tag_12\n        /* \"Introdu\\xc3\\xa7\\xc3\\xa3o ao Solidity/Aprenda Solidity/Bibliotecas externas.sol\":262:278  Quadro.quadro(x) */\n      jump\t// in\n    tag_11:\n        /* \"Introdu\\xc3\\xa7\\xc3\\xa3o ao Solidity/Aprenda Solidity/Bibliotecas externas.sol\":255:278  return Quadro.quadro(x) */\n      swap1\n      pop\n        /* \"Introdu\\xc3\\xa7\\xc3\\xa3o ao Solidity/Aprenda Solidity/Bibliotecas externas.sol\":189:285  function usarquadrado(uint x) public pure returns (uint){... */\n      swap2\n      swap1\n      pop\n      jump\t// out\n        /* \"Introdu\\xc3\\xa7\\xc3\\xa3o ao Solidity/Aprenda Solidity/Bibliotecas externas.sol\":79:159  function quadro(uint x) internal pure  returns (uint){... */\n    tag_12:\n        /* \"Introdu\\xc3\\xa7\\xc3\\xa3o ao Solidity/Aprenda Solidity/Bibliotecas externas.sol\":127:131  uint */\n      0x00\n        /* \"Introdu\\xc3\\xa7\\xc3\\xa3o ao Solidity/Aprenda Solidity/Bibliotecas externas.sol\":151:152  x */\n      dup2\n        /* \"Introdu\\xc3\\xa7\\xc3\\xa3o ao Solidity/Aprenda Solidity/Bibliotecas externas.sol\":149:150  x */\n      dup3\n        /* \"Introdu\\xc3\\xa7\\xc3\\xa3o ao Solidity/Aprenda Solidity/Bibliotecas externas.sol\":149:152  x*x */\n      tag_14\n      swap2\n      swap1\n      tag_15\n      jump\t// in\n    tag_14:\n        /* \"Introdu\\xc3\\xa7\\xc3\\xa3o ao Solidity/Aprenda Solidity/Bibliotecas externas.sol\":142:152  return x*x */\n      swap1\n      pop\n        /* \"Introdu\\xc3\\xa7\\xc3\\xa3o ao Solidity/Aprenda Solidity/Bibliotecas externas.sol\":79:159  function quadro(uint x) internal pure  returns (uint){... */\n      swap2\n      swap1\n      pop\n      jump\t// out\n        /* \"#utility.yul\":88:205   */\n    tag_17:\n        /* \"#utility.yul\":197:198   */\n      0x00\n        /* \"#utility.yul\":194:195   */\n      0x00\n        /* \"#utility.yul\":187:199   */\n      revert\n        /* \"#utility.yul\":334:411   */\n    tag_19:\n        /* \"#utility.yul\":371:378   */\n      0x00\n        /* \"#utility.yul\":400:405   */\n      dup2\n        /* \"#utility.yul\":389:405   */\n      swap1\n      pop\n        /* \"#utility.yul\":334:411   */\n      swap2\n      swap1\n      pop\n      jump\t// out\n        /* \"#utility.yul\":417:539   */\n    tag_20:\n        /* \"#utility.yul\":490:514   */\n      tag_30\n        /* \"#utility.yul\":508:513   */\n      dup2\n        /* \"#utility.yul\":490:514   */\n      tag_19\n      jump\t// in\n    tag_30:\n        /* \"#utility.yul\":483:488   */\n      dup2\n        /* \"#utility.yul\":480:515   */\n      eq\n        /* \"#utility.yul\":470:533   */\n      tag_31\n      jumpi\n        /* \"#utility.yul\":529:530   */\n      0x00\n        /* \"#utility.yul\":526:527   */\n      0x00\n        /* \"#utility.yul\":519:531   */\n      revert\n        /* \"#utility.yul\":470:533   */\n    tag_31:\n        /* \"#utility.yul\":417:539   */\n      pop\n      jump\t// out\n        /* \"#utility.yul\":545:684   */\n    tag_21:\n        /* \"#utility.yul\":591:596   */\n      0x00\n        /* \"#utility.yul\":629:635   */\n      dup2\n        /* \"#utility.yul\":616:636   */\n      calldataload\n        /* \"#utility.yul\":607:636   */\n      swap1\n      pop\n        /* \"#utility.yul\":645:678   */\n      tag_33\n        /* \"#utility.yul\":672:677   */\n      dup2\n        /* \"#utility.yul\":645:678   */\n      tag_20\n      jump\t// in\n    tag_33:\n        /* \"#utility.yul\":545:684   */\n      swap3\n      swap2\n      pop\n      pop\n      jump\t// out\n        /* \"#utility.yul\":690:1019   */\n    tag_6:\n        /* \"#utility.yul\":749:755   */\n      0x00\n        /* \"#utility.yul\":798:800   */\n      0x20\n        /* \"#utility.yul\":786:795   */\n      dup3\n        /* \"#utility.yul\":777:784   */\n      dup5\n        /* \"#utility.yul\":773:796   */\n      sub\n        /* \"#utility.yul\":769:801   */\n      slt\n        /* \"#utility.yul\":766:885   */\n      iszero\n      tag_35\n      jumpi\n        /* \"#utility.yul\":804:883   */\n      tag_36\n      tag_17\n      jump\t// in\n    tag_36:\n        /* \"#utility.yul\":766:885   */\n    tag_35:\n        /* \"#utility.yul\":924:925   */\n      0x00\n        /* \"#utility.yul\":949:1002   */\n      tag_37\n        /* \"#utility.yul\":994:1001   */\n      dup5\n        /* \"#utility.yul\":985:991   */\n      dup3\n        /* \"#utility.yul\":974:983   */\n      dup6\n        /* \"#utility.yul\":970:992   */\n      add\n        /* \"#utility.yul\":949:1002   */\n      tag_21\n      jump\t// in\n    tag_37:\n        /* \"#utility.yul\":939:1002   */\n      swap2\n      pop\n        /* \"#utility.yul\":895:1012   */\n      pop\n        /* \"#utility.yul\":690:1019   */\n      swap3\n      swap2\n      pop\n      pop\n      jump\t// out\n        /* \"#utility.yul\":1025:1143   */\n    tag_22:\n        /* \"#utility.yul\":1112:1136   */\n      tag_39\n        /* \"#utility.yul\":1130:1135   */\n      dup2\n        /* \"#utility.yul\":1112:1136   */\n      tag_19\n      jump\t// in\n    tag_39:\n        /* \"#utility.yul\":1107:1110   */\n      dup3\n        /* \"#utility.yul\":1100:1137   */\n      mstore\n        /* \"#utility.yul\":1025:1143   */\n      pop\n      pop\n      jump\t// out\n        /* \"#utility.yul\":1149:1371   */\n    tag_9:\n        /* \"#utility.yul\":1242:1246   */\n      0x00\n        /* \"#utility.yul\":1280:1282   */\n      0x20\n        /* \"#utility.yul\":1269:1278   */\n      dup3\n        /* \"#utility.yul\":1265:1283   */\n      add\n        /* \"#utility.yul\":1257:1283   */\n      swap1\n      pop\n        /* \"#utility.yul\":1293:1364   */\n      tag_41\n        /* \"#utility.yul\":1361:1362   */\n      0x00\n        /* \"#utility.yul\":1350:1359   */\n      dup4\n        /* \"#utility.yul\":1346:1363   */\n      add\n        /* \"#utility.yul\":1337:1343   */\n      dup5\n        /* \"#utility.yul\":1293:1364   */\n      tag_22\n      jump\t// in\n    tag_41:\n        /* \"#utility.yul\":1149:1371   */\n      swap3\n      swap2\n      pop\n      pop\n      jump\t// out\n        /* \"#utility.yul\":1377:1557   */\n    tag_23:\n        /* \"#utility.yul\":1425:1502   */\n      0x4e487b7100000000000000000000000000000000000000000000000000000000\n        /* \"#utility.yul\":1422:1423   */\n      0x00\n        /* \"#utility.yul\":1415:1503   */\n      mstore\n        /* \"#utility.yul\":1522:1526   */\n      0x11\n        /* \"#utility.yul\":1519:1520   */\n      0x04\n        /* \"#utility.yul\":1512:1527   */\n      mstore\n        /* \"#utility.yul\":1546:1550   */\n      0x24\n        /* \"#utility.yul\":1543:1544   */\n      0x00\n        /* \"#utility.yul\":1536:1551   */\n      revert\n        /* \"#utility.yul\":1563:1973   */\n    tag_15:\n        /* \"#utility.yul\":1603:1610   */\n      0x00\n        /* \"#utility.yul\":1626:1646   */\n      tag_44\n        /* \"#utility.yul\":1644:1645   */\n      dup3\n        /* \"#utility.yul\":1626:1646   */\n      tag_19\n      jump\t// in\n    tag_44:\n        /* \"#utility.yul\":1621:1646   */\n      swap2\n      pop\n        /* \"#utility.yul\":1660:1680   */\n      tag_45\n        /* \"#utility.yul\":1678:1679   */\n      dup4\n        /* \"#utility.yul\":1660:1680   */\n      tag_19\n      jump\t// in\n    tag_45:\n        /* \"#utility.yul\":1655:1680   */\n      swap3\n      pop\n        /* \"#utility.yul\":1715:1716   */\n      dup3\n        /* \"#utility.yul\":1712:1713   */\n      dup3\n        /* \"#utility.yul\":1708:1717   */\n      mul\n        /* \"#utility.yul\":1737:1767   */\n      tag_46\n        /* \"#utility.yul\":1755:1766   */\n      dup2\n        /* \"#utility.yul\":1737:1767   */\n      tag_19\n      jump\t// in\n    tag_46:\n        /* \"#utility.yul\":1726:1767   */\n      swap2\n      pop\n        /* \"#utility.yul\":1916:1917   */\n      dup3\n        /* \"#utility.yul\":1907:1914   */\n      dup3\n        /* \"#utility.yul\":1903:1918   */\n      div\n        /* \"#utility.yul\":1900:1901   */\n      dup5\n        /* \"#utility.yul\":1897:1919   */\n      eq\n        /* \"#utility.yul\":1877:1878   */\n      dup4\n        /* \"#utility.yul\":1870:1879   */\n      iszero\n        /* \"#utility.yul\":1850:1933   */\n      or\n        /* \"#utility.yul\":1827:1966   */\n      tag_47\n      jumpi\n        /* \"#utility.yul\":1946:1964   */\n      tag_48\n      tag_23\n      jump\t// in\n    tag_48:\n        /* \"#utility.yul\":1827:1966   */\n    tag_47:\n        /* \"#utility.yul\":1611:1973   */\n      pop\n        /* \"#utility.yul\":1563:1973   */\n      swap3\n      swap2\n      pop\n      pop\n      jump\t// out\n\n    auxdata: 0xa2646970667358221220a9abcd41dbfc4e987863588eb9c5affaab7e9e3d0a61eebe3ed95421daea197264736f6c634300081e0033\n}\n",
				"bytecode": {
					"linkReferences": {},
					"object": "6080604052348015600e575f5ffd5b506101b08061001c5f395ff3fe608060405234801561000f575f5ffd5b5060043610610029575f3560e01c8063c723c25d1461002d575b5f5ffd5b610047600480360381019061004291906100b9565b61005d565b60405161005491906100f3565b60405180910390f35b5f6100678261006e565b9050919050565b5f818261007b9190610139565b9050919050565b5f5ffd5b5f819050919050565b61009881610086565b81146100a2575f5ffd5b50565b5f813590506100b38161008f565b92915050565b5f602082840312156100ce576100cd610082565b5b5f6100db848285016100a5565b91505092915050565b6100ed81610086565b82525050565b5f6020820190506101065f8301846100e4565b92915050565b7f4e487b71000000000000000000000000000000000000000000000000000000005f52601160045260245ffd5b5f61014382610086565b915061014e83610086565b925082820261015c81610086565b915082820484148315176101735761017261010c565b5b509291505056fea2646970667358221220a9abcd41dbfc4e987863588eb9c5affaab7e9e3d0a61eebe3ed95421daea197264736f6c634300081e0033",
					"opcodes": "PUSH1 0x80 PUSH1 0x40 MSTORE CALLVALUE DUP1 ISZERO PUSH1 0xE JUMPI PUSH0 PUSH0 REVERT JUMPDEST POP PUSH2 0x1B0 DUP1 PUSH2 0x1C PUSH0 CODECOPY PUSH0 RETURN INVALID PUSH1 0x80 PUSH1 0x40 MSTORE CALLVALUE DUP1 ISZERO PUSH2 0xF JUMPI PUSH0 PUSH0 REVERT JUMPDEST POP PUSH1 0x4 CALLDATASIZE LT PUSH2 0x29 JUMPI PUSH0 CALLDATALOAD PUSH1 0xE0 SHR DUP1 PUSH4 0xC723C25D EQ PUSH2 0x2D JUMPI JUMPDEST PUSH0 PUSH0 REVERT JUMPDEST PUSH2 0x47 PUSH1 0x4 DUP1 CALLDATASIZE SUB DUP2 ADD SWAP1 PUSH2 0x42 SWAP2 SWAP1 PUSH2 0xB9 JUMP JUMPDEST PUSH2 0x5D JUMP JUMPDEST PUSH1 0x40 MLOAD PUSH2 0x54 SWAP2 SWAP1 PUSH2 0xF3 JUMP JUMPDEST PUSH1 0x40 MLOAD DUP1 SWAP2 SUB SWAP1 RETURN JUMPDEST PUSH0 PUSH2 0x67 DUP3 PUSH2 0x6E JUMP JUMPDEST SWAP1 POP SWAP2 SWAP1 POP JUMP JUMPDEST PUSH0 DUP2 DUP3 PUSH2 0x7B SWAP2 SWAP1 PUSH2 0x139 JUMP JUMPDEST SWAP1 POP SWAP2 SWAP1 POP JUMP JUMPDEST PUSH0 PUSH0 REVERT JUMPDEST PUSH0 DUP2 SWAP1 POP SWAP2 SWAP1 POP JUMP JUMPDEST PUSH2 0x98 DUP2 PUSH2 0x86 JUMP JUMPDEST DUP2 EQ PUSH2 0xA2 JUMPI PUSH0 PUSH0 REVERT JUMPDEST POP JUMP JUMPDEST PUSH0 DUP2 CALLDATALOAD SWAP1 POP PUSH2 0xB3 DUP2 PUSH2 0x8F JUMP JUMPDEST SWAP3 SWAP2 POP POP JUMP JUMPDEST PUSH0 PUSH1 0x20 DUP3 DUP5 SUB SLT ISZERO PUSH2 0xCE JUMPI PUSH2 0xCD PUSH2 0x82 JUMP JUMPDEST JUMPDEST PUSH0 PUSH2 0xDB DUP5 DUP3 DUP6 ADD PUSH2 0xA5 JUMP JUMPDEST SWAP2 POP POP SWAP3 SWAP2 POP POP JUMP JUMPDEST PUSH2 0xED DUP2 PUSH2 0x86 JUMP JUMPDEST DUP3 MSTORE POP POP JUMP JUMPDEST PUSH0 PUSH1 0x20 DUP3 ADD SWAP1 POP PUSH2 0x106 PUSH0 DUP4 ADD DUP5 PUSH2 0xE4 JUMP JUMPDEST SWAP3 SWAP2 POP POP JUMP JUMPDEST PUSH32 0x4E487B7100000000000000000000000000000000000000000000000000000000 PUSH0 MSTORE PUSH1 0x11 PUSH1 0x4 MSTORE PUSH1 0x24 PUSH0 REVERT JUMPDEST PUSH0 PUSH2 0x143 DUP3 PUSH2 0x86 JUMP JUMPDEST SWAP2 POP PUSH2 0x14E DUP4 PUSH2 0x86 JUMP JUMPDEST SWAP3 POP DUP3 DUP3 MUL PUSH2 0x15C DUP2 PUSH2 0x86 JUMP JUMPDEST SWAP2 POP DUP3 DUP3 DIV DUP5 EQ DUP4 ISZERO OR PUSH2 0x173 JUMPI PUSH2 0x172 PUSH2 0x10C JUMP JUMPDEST JUMPDEST POP SWAP3 SWAP2 POP POP JUMP INVALID LOG2 PUSH5 0x6970667358 0x22 SLT KECCAK256 0xA9 0xAB 0xCD COINBASE 0xDB 0xFC 0x4E SWAP9 PUSH25 0x63588EB9C5AFFAAB7E9E3D0A61EEBE3ED95421DAEA19726473 PUSH16 0x6C634300081E00330000000000000000 "
				},
				"gasEstimates": {
					"creation": {
						"codeDepositCost": "86400",
						"executionCost": "133",
						"totalCost": "86533"
					},
					"external": {
						"usarquadrado(uint256)": "infinite"
					}
				},
				"methodIdentifiers": {
					"usarquadrado(uint256)": "c723c25d"
				}
			},
			"storageLayout": {
				"storage": [],
				"types": null
			},
			"userdoc": {
				"kind": "user",
				"methods": {},
				"version": 1
			}
		}
	}
}