{
	"Introdução ao Solidity/ExerciciosDeTeste/Sistema de Pontos Simples.sol": {
		"SistemaPontos": {
			"abi": [
				{
					"inputs": [],
					"stateMutability": "nonpayable",
					"type": "constructor"
				},
				{
					"anonymous": false,
					"inputs": [
						{
							"indexed": true,
							"internalType": "address",
							"name": "_from",
							"type": "address"
						},
						{
							"indexed": true,
							"internalType": "address",
							"name": "_to",
							"type": "address"
						},
						{
							"indexed": false,
							"internalType": "uint256",
							"name": "_valor",
							"type": "uint256"
						}
					],
					"name": "Transfer",
					"type": "event"
				},
				{
					"inputs": [
						{
							"internalType": "address",
							"name": "_usuario",
							"type": "address"
						},
						{
							"internalType": "uint256",
							"name": "_ponto",
							"type": "uint256"
						}
					],
					"name": "AdicionarPontos",
					"outputs": [],
					"stateMutability": "nonpayable",
					"type": "function"
				},
				{
					"inputs": [
						{
							"internalType": "address",
							"name": "_usuario",
							"type": "address"
						}
					],
					"name": "BuscarPontos",
					"outputs": [
						{
							"internalType": "uint256",
							"name": "",
							"type": "uint256"
						}
					],
					"stateMutability": "view",
					"type": "function"
				},
				{
					"inputs": [],
					"name": "Owner",
					"outputs": [
						{
							"internalType": "address",
							"name": "",
							"type": "address"
						}
					],
					"stateMutability": "view",
					"type": "function"
				},
				{
					"inputs": [
						{
							"internalType": "address",
							"name": "_to",
							"type": "address"
						},
						{
							"internalType": "uint256",
							"name": "_valor",
							"type": "uint256"
						}
					],
					"name": "TransferPontos",
					"outputs": [
						{
							"internalType": "bool",
							"name": "sucesso",
							"type": "bool"
						}
					],
					"stateMutability": "nonpayable",
					"type": "function"
				},
				{
					"inputs": [],
					"name": "dobraPontos",
					"outputs": [],
					"stateMutability": "nonpayable",
					"type": "function"
				}
			],
			"devdoc": {
				"kind": "dev",
				"methods": {},
				"version": 1
			},
			"evm": {
				"assembly": "    /* \"Introdu\\xc3\\xa7\\xc3\\xa3o ao Solidity/ExerciciosDeTeste/Sistema de Pontos Simples.sol\":61:1175  contract SistemaPontos{... */\n  mstore(0x40, 0x80)\n    /* \"Introdu\\xc3\\xa7\\xc3\\xa3o ao Solidity/ExerciciosDeTeste/Sistema de Pontos Simples.sol\":164:214  constructor(){... */\n  callvalue\n  dup1\n  iszero\n  tag_1\n  jumpi\n  revert(0x00, 0x00)\ntag_1:\n  pop\n    /* \"Introdu\\xc3\\xa7\\xc3\\xa3o ao Solidity/ExerciciosDeTeste/Sistema de Pontos Simples.sol\":196:206  msg.sender */\n  caller\n    /* \"Introdu\\xc3\\xa7\\xc3\\xa3o ao Solidity/ExerciciosDeTeste/Sistema de Pontos Simples.sol\":188:193  Owner */\n  0x00\n  0x00\n    /* \"Introdu\\xc3\\xa7\\xc3\\xa3o ao Solidity/ExerciciosDeTeste/Sistema de Pontos Simples.sol\":188:206  Owner = msg.sender */\n  0x0100\n  exp\n  dup2\n  sload\n  dup2\n  0xffffffffffffffffffffffffffffffffffffffff\n  mul\n  not\n  and\n  swap1\n  dup4\n  0xffffffffffffffffffffffffffffffffffffffff\n  and\n  mul\n  or\n  swap1\n  sstore\n  pop\n    /* \"Introdu\\xc3\\xa7\\xc3\\xa3o ao Solidity/ExerciciosDeTeste/Sistema de Pontos Simples.sol\":61:1175  contract SistemaPontos{... */\n  dataSize(sub_0)\n  dup1\n  dataOffset(sub_0)\n  0x00\n  codecopy\n  0x00\n  return\nstop\n\nsub_0: assembly {\n        /* \"Introdu\\xc3\\xa7\\xc3\\xa3o ao Solidity/ExerciciosDeTeste/Sistema de Pontos Simples.sol\":61:1175  contract SistemaPontos{... */\n      mstore(0x40, 0x80)\n      callvalue\n      dup1\n      iszero\n      tag_1\n      jumpi\n      revert(0x00, 0x00)\n    tag_1:\n      pop\n      jumpi(tag_2, lt(calldatasize, 0x04))\n      shr(0xe0, calldataload(0x00))\n      dup1\n      0x344fb8d3\n      eq\n      tag_3\n      jumpi\n      dup1\n      0x97b75c52\n      eq\n      tag_4\n      jumpi\n      dup1\n      0x9ce0943f\n      eq\n      tag_5\n      jumpi\n      dup1\n      0xb4a99a4e\n      eq\n      tag_6\n      jumpi\n      dup1\n      0xc3213770\n      eq\n      tag_7\n      jumpi\n    tag_2:\n      revert(0x00, 0x00)\n        /* \"Introdu\\xc3\\xa7\\xc3\\xa3o ao Solidity/ExerciciosDeTeste/Sistema de Pontos Simples.sol\":479:589  function BuscarPontos(address _usuario) public view returns (uint){... */\n    tag_3:\n      tag_8\n      0x04\n      dup1\n      calldatasize\n      sub\n      dup2\n      add\n      swap1\n      tag_9\n      swap2\n      swap1\n      tag_10\n      jump\t// in\n    tag_9:\n      tag_11\n      jump\t// in\n    tag_8:\n      mload(0x40)\n      tag_12\n      swap2\n      swap1\n      tag_13\n      jump\t// in\n    tag_12:\n      mload(0x40)\n      dup1\n      swap2\n      sub\n      swap1\n      return\n        /* \"Introdu\\xc3\\xa7\\xc3\\xa3o ao Solidity/ExerciciosDeTeste/Sistema de Pontos Simples.sol\":597:963  function TransferPontos(address _to, uint _valor) public returns (bool sucesso) {... */\n    tag_4:\n      tag_14\n      0x04\n      dup1\n      calldatasize\n      sub\n      dup2\n      add\n      swap1\n      tag_15\n      swap2\n      swap1\n      tag_16\n      jump\t// in\n    tag_15:\n      tag_17\n      jump\t// in\n    tag_14:\n      mload(0x40)\n      tag_18\n      swap2\n      swap1\n      tag_19\n      jump\t// in\n    tag_18:\n      mload(0x40)\n      dup1\n      swap2\n      sub\n      swap1\n      return\n        /* \"Introdu\\xc3\\xa7\\xc3\\xa3o ao Solidity/ExerciciosDeTeste/Sistema de Pontos Simples.sol\":302:471  function AdicionarPontos(address _usuario, uint _ponto) public {... */\n    tag_5:\n      tag_20\n      0x04\n      dup1\n      calldatasize\n      sub\n      dup2\n      add\n      swap1\n      tag_21\n      swap2\n      swap1\n      tag_16\n      jump\t// in\n    tag_21:\n      tag_22\n      jump\t// in\n    tag_20:\n      stop\n        /* \"Introdu\\xc3\\xa7\\xc3\\xa3o ao Solidity/ExerciciosDeTeste/Sistema de Pontos Simples.sol\":96:116  address public Owner */\n    tag_6:\n      tag_23\n      tag_24\n      jump\t// in\n    tag_23:\n      mload(0x40)\n      tag_25\n      swap2\n      swap1\n      tag_26\n      jump\t// in\n    tag_25:\n      mload(0x40)\n      dup1\n      swap2\n      sub\n      swap1\n      return\n        /* \"Introdu\\xc3\\xa7\\xc3\\xa3o ao Solidity/ExerciciosDeTeste/Sistema de Pontos Simples.sol\":971:1172  function dobraPontos() public {... */\n    tag_7:\n      tag_27\n      tag_28\n      jump\t// in\n    tag_27:\n      stop\n        /* \"Introdu\\xc3\\xa7\\xc3\\xa3o ao Solidity/ExerciciosDeTeste/Sistema de Pontos Simples.sol\":479:589  function BuscarPontos(address _usuario) public view returns (uint){... */\n    tag_11:\n        /* \"Introdu\\xc3\\xa7\\xc3\\xa3o ao Solidity/ExerciciosDeTeste/Sistema de Pontos Simples.sol\":540:544  uint */\n      0x00\n        /* \"Introdu\\xc3\\xa7\\xc3\\xa3o ao Solidity/ExerciciosDeTeste/Sistema de Pontos Simples.sol\":564:570  pontos */\n      0x01\n        /* \"Introdu\\xc3\\xa7\\xc3\\xa3o ao Solidity/ExerciciosDeTeste/Sistema de Pontos Simples.sol\":564:580  pontos[_usuario] */\n      0x00\n        /* \"Introdu\\xc3\\xa7\\xc3\\xa3o ao Solidity/ExerciciosDeTeste/Sistema de Pontos Simples.sol\":571:579  _usuario */\n      dup4\n        /* \"Introdu\\xc3\\xa7\\xc3\\xa3o ao Solidity/ExerciciosDeTeste/Sistema de Pontos Simples.sol\":564:580  pontos[_usuario] */\n      0xffffffffffffffffffffffffffffffffffffffff\n      and\n      0xffffffffffffffffffffffffffffffffffffffff\n      and\n      dup2\n      mstore\n      0x20\n      add\n      swap1\n      dup2\n      mstore\n      0x20\n      add\n      0x00\n      keccak256\n      sload\n        /* \"Introdu\\xc3\\xa7\\xc3\\xa3o ao Solidity/ExerciciosDeTeste/Sistema de Pontos Simples.sol\":556:581  return (pontos[_usuario]) */\n      swap1\n      pop\n        /* \"Introdu\\xc3\\xa7\\xc3\\xa3o ao Solidity/ExerciciosDeTeste/Sistema de Pontos Simples.sol\":479:589  function BuscarPontos(address _usuario) public view returns (uint){... */\n      swap2\n      swap1\n      pop\n      jump\t// out\n        /* \"Introdu\\xc3\\xa7\\xc3\\xa3o ao Solidity/ExerciciosDeTeste/Sistema de Pontos Simples.sol\":597:963  function TransferPontos(address _to, uint _valor) public returns (bool sucesso) {... */\n    tag_17:\n        /* \"Introdu\\xc3\\xa7\\xc3\\xa3o ao Solidity/ExerciciosDeTeste/Sistema de Pontos Simples.sol\":663:675  bool sucesso */\n      0x00\n        /* \"Introdu\\xc3\\xa7\\xc3\\xa3o ao Solidity/ExerciciosDeTeste/Sistema de Pontos Simples.sol\":711:712  0 */\n      0x00\n        /* \"Introdu\\xc3\\xa7\\xc3\\xa3o ao Solidity/ExerciciosDeTeste/Sistema de Pontos Simples.sol\":696:713  _to != address(0) */\n      0xffffffffffffffffffffffffffffffffffffffff\n      and\n        /* \"Introdu\\xc3\\xa7\\xc3\\xa3o ao Solidity/ExerciciosDeTeste/Sistema de Pontos Simples.sol\":696:699  _to */\n      dup4\n        /* \"Introdu\\xc3\\xa7\\xc3\\xa3o ao Solidity/ExerciciosDeTeste/Sistema de Pontos Simples.sol\":696:713  _to != address(0) */\n      0xffffffffffffffffffffffffffffffffffffffff\n      and\n      sub\n        /* \"Introdu\\xc3\\xa7\\xc3\\xa3o ao Solidity/ExerciciosDeTeste/Sistema de Pontos Simples.sol\":688:736  require(_to != address(0), \"Endereco invalido.\") */\n      tag_31\n      jumpi\n      mload(0x40)\n      0x08c379a000000000000000000000000000000000000000000000000000000000\n      dup2\n      mstore\n      0x04\n      add\n      tag_32\n      swap1\n      tag_33\n      jump\t// in\n    tag_32:\n      mload(0x40)\n      dup1\n      swap2\n      sub\n      swap1\n      revert\n    tag_31:\n        /* \"Introdu\\xc3\\xa7\\xc3\\xa3o ao Solidity/ExerciciosDeTeste/Sistema de Pontos Simples.sol\":778:784  _valor */\n      dup2\n        /* \"Introdu\\xc3\\xa7\\xc3\\xa3o ao Solidity/ExerciciosDeTeste/Sistema de Pontos Simples.sol\":755:761  pontos */\n      0x01\n        /* \"Introdu\\xc3\\xa7\\xc3\\xa3o ao Solidity/ExerciciosDeTeste/Sistema de Pontos Simples.sol\":755:773  pontos[msg.sender] */\n      0x00\n        /* \"Introdu\\xc3\\xa7\\xc3\\xa3o ao Solidity/ExerciciosDeTeste/Sistema de Pontos Simples.sol\":762:772  msg.sender */\n      caller\n        /* \"Introdu\\xc3\\xa7\\xc3\\xa3o ao Solidity/ExerciciosDeTeste/Sistema de Pontos Simples.sol\":755:773  pontos[msg.sender] */\n      0xffffffffffffffffffffffffffffffffffffffff\n      and\n      0xffffffffffffffffffffffffffffffffffffffff\n      and\n      dup2\n      mstore\n      0x20\n      add\n      swap1\n      dup2\n      mstore\n      0x20\n      add\n      0x00\n      keccak256\n      sload\n        /* \"Introdu\\xc3\\xa7\\xc3\\xa3o ao Solidity/ExerciciosDeTeste/Sistema de Pontos Simples.sol\":755:784  pontos[msg.sender] >=  _valor */\n      lt\n      iszero\n        /* \"Introdu\\xc3\\xa7\\xc3\\xa3o ao Solidity/ExerciciosDeTeste/Sistema de Pontos Simples.sol\":747:809  require(pontos[msg.sender] >=  _valor, \"Pontos insuficiente.\") */\n      tag_34\n      jumpi\n      mload(0x40)\n      0x08c379a000000000000000000000000000000000000000000000000000000000\n      dup2\n      mstore\n      0x04\n      add\n      tag_35\n      swap1\n      tag_36\n      jump\t// in\n    tag_35:\n      mload(0x40)\n      dup1\n      swap2\n      sub\n      swap1\n      revert\n    tag_34:\n        /* \"Introdu\\xc3\\xa7\\xc3\\xa3o ao Solidity/ExerciciosDeTeste/Sistema de Pontos Simples.sol\":844:850  _valor */\n      dup2\n        /* \"Introdu\\xc3\\xa7\\xc3\\xa3o ao Solidity/ExerciciosDeTeste/Sistema de Pontos Simples.sol\":822:828  pontos */\n      0x01\n        /* \"Introdu\\xc3\\xa7\\xc3\\xa3o ao Solidity/ExerciciosDeTeste/Sistema de Pontos Simples.sol\":822:840  pontos[msg.sender] */\n      0x00\n        /* \"Introdu\\xc3\\xa7\\xc3\\xa3o ao Solidity/ExerciciosDeTeste/Sistema de Pontos Simples.sol\":829:839  msg.sender */\n      caller\n        /* \"Introdu\\xc3\\xa7\\xc3\\xa3o ao Solidity/ExerciciosDeTeste/Sistema de Pontos Simples.sol\":822:840  pontos[msg.sender] */\n      0xffffffffffffffffffffffffffffffffffffffff\n      and\n      0xffffffffffffffffffffffffffffffffffffffff\n      and\n      dup2\n      mstore\n      0x20\n      add\n      swap1\n      dup2\n      mstore\n      0x20\n      add\n      0x00\n      keccak256\n      0x00\n        /* \"Introdu\\xc3\\xa7\\xc3\\xa3o ao Solidity/ExerciciosDeTeste/Sistema de Pontos Simples.sol\":822:850  pontos[msg.sender] -= _valor */\n      dup3\n      dup3\n      sload\n      tag_37\n      swap2\n      swap1\n      tag_38\n      jump\t// in\n    tag_37:\n      swap3\n      pop\n      pop\n      dup2\n      swap1\n      sstore\n      pop\n        /* \"Introdu\\xc3\\xa7\\xc3\\xa3o ao Solidity/ExerciciosDeTeste/Sistema de Pontos Simples.sol\":876:882  _valor */\n      dup2\n        /* \"Introdu\\xc3\\xa7\\xc3\\xa3o ao Solidity/ExerciciosDeTeste/Sistema de Pontos Simples.sol\":861:867  pontos */\n      0x01\n        /* \"Introdu\\xc3\\xa7\\xc3\\xa3o ao Solidity/ExerciciosDeTeste/Sistema de Pontos Simples.sol\":861:872  pontos[_to] */\n      0x00\n        /* \"Introdu\\xc3\\xa7\\xc3\\xa3o ao Solidity/ExerciciosDeTeste/Sistema de Pontos Simples.sol\":868:871  _to */\n      dup6\n        /* \"Introdu\\xc3\\xa7\\xc3\\xa3o ao Solidity/ExerciciosDeTeste/Sistema de Pontos Simples.sol\":861:872  pontos[_to] */\n      0xffffffffffffffffffffffffffffffffffffffff\n      and\n      0xffffffffffffffffffffffffffffffffffffffff\n      and\n      dup2\n      mstore\n      0x20\n      add\n      swap1\n      dup2\n      mstore\n      0x20\n      add\n      0x00\n      keccak256\n      0x00\n        /* \"Introdu\\xc3\\xa7\\xc3\\xa3o ao Solidity/ExerciciosDeTeste/Sistema de Pontos Simples.sol\":861:882  pontos[_to] += _valor */\n      dup3\n      dup3\n      sload\n      tag_39\n      swap2\n      swap1\n      tag_40\n      jump\t// in\n    tag_39:\n      swap3\n      pop\n      pop\n      dup2\n      swap1\n      sstore\n      pop\n        /* \"Introdu\\xc3\\xa7\\xc3\\xa3o ao Solidity/ExerciciosDeTeste/Sistema de Pontos Simples.sol\":921:924  _to */\n      dup3\n        /* \"Introdu\\xc3\\xa7\\xc3\\xa3o ao Solidity/ExerciciosDeTeste/Sistema de Pontos Simples.sol\":900:933  Transfer(msg.sender, _to, _valor) */\n      0xffffffffffffffffffffffffffffffffffffffff\n      and\n        /* \"Introdu\\xc3\\xa7\\xc3\\xa3o ao Solidity/ExerciciosDeTeste/Sistema de Pontos Simples.sol\":909:919  msg.sender */\n      caller\n        /* \"Introdu\\xc3\\xa7\\xc3\\xa3o ao Solidity/ExerciciosDeTeste/Sistema de Pontos Simples.sol\":900:933  Transfer(msg.sender, _to, _valor) */\n      0xffffffffffffffffffffffffffffffffffffffff\n      and\n      0xddf252ad1be2c89b69c2b068fc378daa952ba7f163c4a11628f55a4df523b3ef\n        /* \"Introdu\\xc3\\xa7\\xc3\\xa3o ao Solidity/ExerciciosDeTeste/Sistema de Pontos Simples.sol\":926:932  _valor */\n      dup5\n        /* \"Introdu\\xc3\\xa7\\xc3\\xa3o ao Solidity/ExerciciosDeTeste/Sistema de Pontos Simples.sol\":900:933  Transfer(msg.sender, _to, _valor) */\n      mload(0x40)\n      tag_41\n      swap2\n      swap1\n      tag_13\n      jump\t// in\n    tag_41:\n      mload(0x40)\n      dup1\n      swap2\n      sub\n      swap1\n      log3\n        /* \"Introdu\\xc3\\xa7\\xc3\\xa3o ao Solidity/ExerciciosDeTeste/Sistema de Pontos Simples.sol\":951:955  true */\n      0x01\n        /* \"Introdu\\xc3\\xa7\\xc3\\xa3o ao Solidity/ExerciciosDeTeste/Sistema de Pontos Simples.sol\":944:955  return true */\n      swap1\n      pop\n        /* \"Introdu\\xc3\\xa7\\xc3\\xa3o ao Solidity/ExerciciosDeTeste/Sistema de Pontos Simples.sol\":597:963  function TransferPontos(address _to, uint _valor) public returns (bool sucesso) {... */\n      swap3\n      swap2\n      pop\n      pop\n      jump\t// out\n        /* \"Introdu\\xc3\\xa7\\xc3\\xa3o ao Solidity/ExerciciosDeTeste/Sistema de Pontos Simples.sol\":302:471  function AdicionarPontos(address _usuario, uint _ponto) public {... */\n    tag_22:\n        /* \"Introdu\\xc3\\xa7\\xc3\\xa3o ao Solidity/ExerciciosDeTeste/Sistema de Pontos Simples.sol\":398:403  Owner */\n      0x00\n      0x00\n      swap1\n      sload\n      swap1\n      0x0100\n      exp\n      swap1\n      div\n      0xffffffffffffffffffffffffffffffffffffffff\n      and\n        /* \"Introdu\\xc3\\xa7\\xc3\\xa3o ao Solidity/ExerciciosDeTeste/Sistema de Pontos Simples.sol\":384:403  msg.sender == Owner */\n      0xffffffffffffffffffffffffffffffffffffffff\n      and\n        /* \"Introdu\\xc3\\xa7\\xc3\\xa3o ao Solidity/ExerciciosDeTeste/Sistema de Pontos Simples.sol\":384:394  msg.sender */\n      caller\n        /* \"Introdu\\xc3\\xa7\\xc3\\xa3o ao Solidity/ExerciciosDeTeste/Sistema de Pontos Simples.sol\":384:403  msg.sender == Owner */\n      0xffffffffffffffffffffffffffffffffffffffff\n      and\n      eq\n        /* \"Introdu\\xc3\\xa7\\xc3\\xa3o ao Solidity/ExerciciosDeTeste/Sistema de Pontos Simples.sol\":376:426  require(msg.sender == Owner, \"Voce nao e o dono.\") */\n      tag_43\n      jumpi\n      mload(0x40)\n      0x08c379a000000000000000000000000000000000000000000000000000000000\n      dup2\n      mstore\n      0x04\n      add\n      tag_44\n      swap1\n      tag_45\n      jump\t// in\n    tag_44:\n      mload(0x40)\n      dup1\n      swap2\n      sub\n      swap1\n      revert\n    tag_43:\n        /* \"Introdu\\xc3\\xa7\\xc3\\xa3o ao Solidity/ExerciciosDeTeste/Sistema de Pontos Simples.sol\":457:463  _ponto */\n      dup1\n        /* \"Introdu\\xc3\\xa7\\xc3\\xa3o ao Solidity/ExerciciosDeTeste/Sistema de Pontos Simples.sol\":437:443  pontos */\n      0x01\n        /* \"Introdu\\xc3\\xa7\\xc3\\xa3o ao Solidity/ExerciciosDeTeste/Sistema de Pontos Simples.sol\":437:453  pontos[_usuario] */\n      0x00\n        /* \"Introdu\\xc3\\xa7\\xc3\\xa3o ao Solidity/ExerciciosDeTeste/Sistema de Pontos Simples.sol\":444:452  _usuario */\n      dup5\n        /* \"Introdu\\xc3\\xa7\\xc3\\xa3o ao Solidity/ExerciciosDeTeste/Sistema de Pontos Simples.sol\":437:453  pontos[_usuario] */\n      0xffffffffffffffffffffffffffffffffffffffff\n      and\n      0xffffffffffffffffffffffffffffffffffffffff\n      and\n      dup2\n      mstore\n      0x20\n      add\n      swap1\n      dup2\n      mstore\n      0x20\n      add\n      0x00\n      keccak256\n      0x00\n        /* \"Introdu\\xc3\\xa7\\xc3\\xa3o ao Solidity/ExerciciosDeTeste/Sistema de Pontos Simples.sol\":437:463  pontos[_usuario] += _ponto */\n      dup3\n      dup3\n      sload\n      tag_46\n      swap2\n      swap1\n      tag_40\n      jump\t// in\n    tag_46:\n      swap3\n      pop\n      pop\n      dup2\n      swap1\n      sstore\n      pop\n        /* \"Introdu\\xc3\\xa7\\xc3\\xa3o ao Solidity/ExerciciosDeTeste/Sistema de Pontos Simples.sol\":302:471  function AdicionarPontos(address _usuario, uint _ponto) public {... */\n      pop\n      pop\n      jump\t// out\n        /* \"Introdu\\xc3\\xa7\\xc3\\xa3o ao Solidity/ExerciciosDeTeste/Sistema de Pontos Simples.sol\":96:116  address public Owner */\n    tag_24:\n      0x00\n      0x00\n      swap1\n      sload\n      swap1\n      0x0100\n      exp\n      swap1\n      div\n      0xffffffffffffffffffffffffffffffffffffffff\n      and\n      dup2\n      jump\t// out\n        /* \"Introdu\\xc3\\xa7\\xc3\\xa3o ao Solidity/ExerciciosDeTeste/Sistema de Pontos Simples.sol\":971:1172  function dobraPontos() public {... */\n    tag_28:\n        /* \"Introdu\\xc3\\xa7\\xc3\\xa3o ao Solidity/ExerciciosDeTeste/Sistema de Pontos Simples.sol\":1012:1029  uint pontosAtuais */\n      0x00\n        /* \"Introdu\\xc3\\xa7\\xc3\\xa3o ao Solidity/ExerciciosDeTeste/Sistema de Pontos Simples.sol\":1032:1038  pontos */\n      0x01\n        /* \"Introdu\\xc3\\xa7\\xc3\\xa3o ao Solidity/ExerciciosDeTeste/Sistema de Pontos Simples.sol\":1032:1050  pontos[msg.sender] */\n      0x00\n        /* \"Introdu\\xc3\\xa7\\xc3\\xa3o ao Solidity/ExerciciosDeTeste/Sistema de Pontos Simples.sol\":1039:1049  msg.sender */\n      caller\n        /* \"Introdu\\xc3\\xa7\\xc3\\xa3o ao Solidity/ExerciciosDeTeste/Sistema de Pontos Simples.sol\":1032:1050  pontos[msg.sender] */\n      0xffffffffffffffffffffffffffffffffffffffff\n      and\n      0xffffffffffffffffffffffffffffffffffffffff\n      and\n      dup2\n      mstore\n      0x20\n      add\n      swap1\n      dup2\n      mstore\n      0x20\n      add\n      0x00\n      keccak256\n      sload\n        /* \"Introdu\\xc3\\xa7\\xc3\\xa3o ao Solidity/ExerciciosDeTeste/Sistema de Pontos Simples.sol\":1012:1050  uint pontosAtuais = pontos[msg.sender] */\n      swap1\n      pop\n        /* \"Introdu\\xc3\\xa7\\xc3\\xa3o ao Solidity/ExerciciosDeTeste/Sistema de Pontos Simples.sol\":1084:1087  100 */\n      0x64\n        /* \"Introdu\\xc3\\xa7\\xc3\\xa3o ao Solidity/ExerciciosDeTeste/Sistema de Pontos Simples.sol\":1069:1081  pontosAtuais */\n      dup2\n        /* \"Introdu\\xc3\\xa7\\xc3\\xa3o ao Solidity/ExerciciosDeTeste/Sistema de Pontos Simples.sol\":1069:1087  pontosAtuais < 100 */\n      lt\n        /* \"Introdu\\xc3\\xa7\\xc3\\xa3o ao Solidity/ExerciciosDeTeste/Sistema de Pontos Simples.sol\":1061:1114  require(pontosAtuais < 100, \"Saldo com mais de 100.\") */\n      tag_48\n      jumpi\n      mload(0x40)\n      0x08c379a000000000000000000000000000000000000000000000000000000000\n      dup2\n      mstore\n      0x04\n      add\n      tag_49\n      swap1\n      tag_50\n      jump\t// in\n    tag_49:\n      mload(0x40)\n      dup1\n      swap2\n      sub\n      swap1\n      revert\n    tag_48:\n        /* \"Introdu\\xc3\\xa7\\xc3\\xa3o ao Solidity/ExerciciosDeTeste/Sistema de Pontos Simples.sol\":1163:1164  2 */\n      0x02\n        /* \"Introdu\\xc3\\xa7\\xc3\\xa3o ao Solidity/ExerciciosDeTeste/Sistema de Pontos Simples.sol\":1148:1160  pontosAtuais */\n      dup2\n        /* \"Introdu\\xc3\\xa7\\xc3\\xa3o ao Solidity/ExerciciosDeTeste/Sistema de Pontos Simples.sol\":1148:1164  pontosAtuais * 2 */\n      tag_51\n      swap2\n      swap1\n      tag_52\n      jump\t// in\n    tag_51:\n        /* \"Introdu\\xc3\\xa7\\xc3\\xa3o ao Solidity/ExerciciosDeTeste/Sistema de Pontos Simples.sol\":1127:1133  pontos */\n      0x01\n        /* \"Introdu\\xc3\\xa7\\xc3\\xa3o ao Solidity/ExerciciosDeTeste/Sistema de Pontos Simples.sol\":1127:1145  pontos[msg.sender] */\n      0x00\n        /* \"Introdu\\xc3\\xa7\\xc3\\xa3o ao Solidity/ExerciciosDeTeste/Sistema de Pontos Simples.sol\":1134:1144  msg.sender */\n      caller\n        /* \"Introdu\\xc3\\xa7\\xc3\\xa3o ao Solidity/ExerciciosDeTeste/Sistema de Pontos Simples.sol\":1127:1145  pontos[msg.sender] */\n      0xffffffffffffffffffffffffffffffffffffffff\n      and\n      0xffffffffffffffffffffffffffffffffffffffff\n      and\n      dup2\n      mstore\n      0x20\n      add\n      swap1\n      dup2\n      mstore\n      0x20\n      add\n      0x00\n      keccak256\n        /* \"Introdu\\xc3\\xa7\\xc3\\xa3o ao Solidity/ExerciciosDeTeste/Sistema de Pontos Simples.sol\":1127:1164  pontos[msg.sender] = pontosAtuais * 2 */\n      dup2\n      swap1\n      sstore\n      pop\n        /* \"Introdu\\xc3\\xa7\\xc3\\xa3o ao Solidity/ExerciciosDeTeste/Sistema de Pontos Simples.sol\":1001:1172  {... */\n      pop\n        /* \"Introdu\\xc3\\xa7\\xc3\\xa3o ao Solidity/ExerciciosDeTeste/Sistema de Pontos Simples.sol\":971:1172  function dobraPontos() public {... */\n      jump\t// out\n        /* \"#utility.yul\":88:205   */\n    tag_54:\n        /* \"#utility.yul\":197:198   */\n      0x00\n        /* \"#utility.yul\":194:195   */\n      0x00\n        /* \"#utility.yul\":187:199   */\n      revert\n        /* \"#utility.yul\":334:460   */\n    tag_56:\n        /* \"#utility.yul\":371:378   */\n      0x00\n        /* \"#utility.yul\":411:453   */\n      0xffffffffffffffffffffffffffffffffffffffff\n        /* \"#utility.yul\":404:409   */\n      dup3\n        /* \"#utility.yul\":400:454   */\n      and\n        /* \"#utility.yul\":389:454   */\n      swap1\n      pop\n        /* \"#utility.yul\":334:460   */\n      swap2\n      swap1\n      pop\n      jump\t// out\n        /* \"#utility.yul\":466:562   */\n    tag_57:\n        /* \"#utility.yul\":503:510   */\n      0x00\n        /* \"#utility.yul\":532:556   */\n      tag_83\n        /* \"#utility.yul\":550:555   */\n      dup3\n        /* \"#utility.yul\":532:556   */\n      tag_56\n      jump\t// in\n    tag_83:\n        /* \"#utility.yul\":521:556   */\n      swap1\n      pop\n        /* \"#utility.yul\":466:562   */\n      swap2\n      swap1\n      pop\n      jump\t// out\n        /* \"#utility.yul\":568:690   */\n    tag_58:\n        /* \"#utility.yul\":641:665   */\n      tag_85\n        /* \"#utility.yul\":659:664   */\n      dup2\n        /* \"#utility.yul\":641:665   */\n      tag_57\n      jump\t// in\n    tag_85:\n        /* \"#utility.yul\":634:639   */\n      dup2\n        /* \"#utility.yul\":631:666   */\n      eq\n        /* \"#utility.yul\":621:684   */\n      tag_86\n      jumpi\n        /* \"#utility.yul\":680:681   */\n      0x00\n        /* \"#utility.yul\":677:678   */\n      0x00\n        /* \"#utility.yul\":670:682   */\n      revert\n        /* \"#utility.yul\":621:684   */\n    tag_86:\n        /* \"#utility.yul\":568:690   */\n      pop\n      jump\t// out\n        /* \"#utility.yul\":696:835   */\n    tag_59:\n        /* \"#utility.yul\":742:747   */\n      0x00\n        /* \"#utility.yul\":780:786   */\n      dup2\n        /* \"#utility.yul\":767:787   */\n      calldataload\n        /* \"#utility.yul\":758:787   */\n      swap1\n      pop\n        /* \"#utility.yul\":796:829   */\n      tag_88\n        /* \"#utility.yul\":823:828   */\n      dup2\n        /* \"#utility.yul\":796:829   */\n      tag_58\n      jump\t// in\n    tag_88:\n        /* \"#utility.yul\":696:835   */\n      swap3\n      swap2\n      pop\n      pop\n      jump\t// out\n        /* \"#utility.yul\":841:1170   */\n    tag_10:\n        /* \"#utility.yul\":900:906   */\n      0x00\n        /* \"#utility.yul\":949:951   */\n      0x20\n        /* \"#utility.yul\":937:946   */\n      dup3\n        /* \"#utility.yul\":928:935   */\n      dup5\n        /* \"#utility.yul\":924:947   */\n      sub\n        /* \"#utility.yul\":920:952   */\n      slt\n        /* \"#utility.yul\":917:1036   */\n      iszero\n      tag_90\n      jumpi\n        /* \"#utility.yul\":955:1034   */\n      tag_91\n      tag_54\n      jump\t// in\n    tag_91:\n        /* \"#utility.yul\":917:1036   */\n    tag_90:\n        /* \"#utility.yul\":1075:1076   */\n      0x00\n        /* \"#utility.yul\":1100:1153   */\n      tag_92\n        /* \"#utility.yul\":1145:1152   */\n      dup5\n        /* \"#utility.yul\":1136:1142   */\n      dup3\n        /* \"#utility.yul\":1125:1134   */\n      dup6\n        /* \"#utility.yul\":1121:1143   */\n      add\n        /* \"#utility.yul\":1100:1153   */\n      tag_59\n      jump\t// in\n    tag_92:\n        /* \"#utility.yul\":1090:1153   */\n      swap2\n      pop\n        /* \"#utility.yul\":1046:1163   */\n      pop\n        /* \"#utility.yul\":841:1170   */\n      swap3\n      swap2\n      pop\n      pop\n      jump\t// out\n        /* \"#utility.yul\":1176:1253   */\n    tag_60:\n        /* \"#utility.yul\":1213:1220   */\n      0x00\n        /* \"#utility.yul\":1242:1247   */\n      dup2\n        /* \"#utility.yul\":1231:1247   */\n      swap1\n      pop\n        /* \"#utility.yul\":1176:1253   */\n      swap2\n      swap1\n      pop\n      jump\t// out\n        /* \"#utility.yul\":1259:1377   */\n    tag_61:\n        /* \"#utility.yul\":1346:1370   */\n      tag_95\n        /* \"#utility.yul\":1364:1369   */\n      dup2\n        /* \"#utility.yul\":1346:1370   */\n      tag_60\n      jump\t// in\n    tag_95:\n        /* \"#utility.yul\":1341:1344   */\n      dup3\n        /* \"#utility.yul\":1334:1371   */\n      mstore\n        /* \"#utility.yul\":1259:1377   */\n      pop\n      pop\n      jump\t// out\n        /* \"#utility.yul\":1383:1605   */\n    tag_13:\n        /* \"#utility.yul\":1476:1480   */\n      0x00\n        /* \"#utility.yul\":1514:1516   */\n      0x20\n        /* \"#utility.yul\":1503:1512   */\n      dup3\n        /* \"#utility.yul\":1499:1517   */\n      add\n        /* \"#utility.yul\":1491:1517   */\n      swap1\n      pop\n        /* \"#utility.yul\":1527:1598   */\n      tag_97\n        /* \"#utility.yul\":1595:1596   */\n      0x00\n        /* \"#utility.yul\":1584:1593   */\n      dup4\n        /* \"#utility.yul\":1580:1597   */\n      add\n        /* \"#utility.yul\":1571:1577   */\n      dup5\n        /* \"#utility.yul\":1527:1598   */\n      tag_61\n      jump\t// in\n    tag_97:\n        /* \"#utility.yul\":1383:1605   */\n      swap3\n      swap2\n      pop\n      pop\n      jump\t// out\n        /* \"#utility.yul\":1611:1733   */\n    tag_62:\n        /* \"#utility.yul\":1684:1708   */\n      tag_99\n        /* \"#utility.yul\":1702:1707   */\n      dup2\n        /* \"#utility.yul\":1684:1708   */\n      tag_60\n      jump\t// in\n    tag_99:\n        /* \"#utility.yul\":1677:1682   */\n      dup2\n        /* \"#utility.yul\":1674:1709   */\n      eq\n        /* \"#utility.yul\":1664:1727   */\n      tag_100\n      jumpi\n        /* \"#utility.yul\":1723:1724   */\n      0x00\n        /* \"#utility.yul\":1720:1721   */\n      0x00\n        /* \"#utility.yul\":1713:1725   */\n      revert\n        /* \"#utility.yul\":1664:1727   */\n    tag_100:\n        /* \"#utility.yul\":1611:1733   */\n      pop\n      jump\t// out\n        /* \"#utility.yul\":1739:1878   */\n    tag_63:\n        /* \"#utility.yul\":1785:1790   */\n      0x00\n        /* \"#utility.yul\":1823:1829   */\n      dup2\n        /* \"#utility.yul\":1810:1830   */\n      calldataload\n        /* \"#utility.yul\":1801:1830   */\n      swap1\n      pop\n        /* \"#utility.yul\":1839:1872   */\n      tag_102\n        /* \"#utility.yul\":1866:1871   */\n      dup2\n        /* \"#utility.yul\":1839:1872   */\n      tag_62\n      jump\t// in\n    tag_102:\n        /* \"#utility.yul\":1739:1878   */\n      swap3\n      swap2\n      pop\n      pop\n      jump\t// out\n        /* \"#utility.yul\":1884:2358   */\n    tag_16:\n        /* \"#utility.yul\":1952:1958   */\n      0x00\n        /* \"#utility.yul\":1960:1966   */\n      0x00\n        /* \"#utility.yul\":2009:2011   */\n      0x40\n        /* \"#utility.yul\":1997:2006   */\n      dup4\n        /* \"#utility.yul\":1988:1995   */\n      dup6\n        /* \"#utility.yul\":1984:2007   */\n      sub\n        /* \"#utility.yul\":1980:2012   */\n      slt\n        /* \"#utility.yul\":1977:2096   */\n      iszero\n      tag_104\n      jumpi\n        /* \"#utility.yul\":2015:2094   */\n      tag_105\n      tag_54\n      jump\t// in\n    tag_105:\n        /* \"#utility.yul\":1977:2096   */\n    tag_104:\n        /* \"#utility.yul\":2135:2136   */\n      0x00\n        /* \"#utility.yul\":2160:2213   */\n      tag_106\n        /* \"#utility.yul\":2205:2212   */\n      dup6\n        /* \"#utility.yul\":2196:2202   */\n      dup3\n        /* \"#utility.yul\":2185:2194   */\n      dup7\n        /* \"#utility.yul\":2181:2203   */\n      add\n        /* \"#utility.yul\":2160:2213   */\n      tag_59\n      jump\t// in\n    tag_106:\n        /* \"#utility.yul\":2150:2213   */\n      swap3\n      pop\n        /* \"#utility.yul\":2106:2223   */\n      pop\n        /* \"#utility.yul\":2262:2264   */\n      0x20\n        /* \"#utility.yul\":2288:2341   */\n      tag_107\n        /* \"#utility.yul\":2333:2340   */\n      dup6\n        /* \"#utility.yul\":2324:2330   */\n      dup3\n        /* \"#utility.yul\":2313:2322   */\n      dup7\n        /* \"#utility.yul\":2309:2331   */\n      add\n        /* \"#utility.yul\":2288:2341   */\n      tag_63\n      jump\t// in\n    tag_107:\n        /* \"#utility.yul\":2278:2341   */\n      swap2\n      pop\n        /* \"#utility.yul\":2233:2351   */\n      pop\n        /* \"#utility.yul\":1884:2358   */\n      swap3\n      pop\n      swap3\n      swap1\n      pop\n      jump\t// out\n        /* \"#utility.yul\":2364:2454   */\n    tag_64:\n        /* \"#utility.yul\":2398:2405   */\n      0x00\n        /* \"#utility.yul\":2441:2446   */\n      dup2\n        /* \"#utility.yul\":2434:2447   */\n      iszero\n        /* \"#utility.yul\":2427:2448   */\n      iszero\n        /* \"#utility.yul\":2416:2448   */\n      swap1\n      pop\n        /* \"#utility.yul\":2364:2454   */\n      swap2\n      swap1\n      pop\n      jump\t// out\n        /* \"#utility.yul\":2460:2569   */\n    tag_65:\n        /* \"#utility.yul\":2541:2562   */\n      tag_110\n        /* \"#utility.yul\":2556:2561   */\n      dup2\n        /* \"#utility.yul\":2541:2562   */\n      tag_64\n      jump\t// in\n    tag_110:\n        /* \"#utility.yul\":2536:2539   */\n      dup3\n        /* \"#utility.yul\":2529:2563   */\n      mstore\n        /* \"#utility.yul\":2460:2569   */\n      pop\n      pop\n      jump\t// out\n        /* \"#utility.yul\":2575:2785   */\n    tag_19:\n        /* \"#utility.yul\":2662:2666   */\n      0x00\n        /* \"#utility.yul\":2700:2702   */\n      0x20\n        /* \"#utility.yul\":2689:2698   */\n      dup3\n        /* \"#utility.yul\":2685:2703   */\n      add\n        /* \"#utility.yul\":2677:2703   */\n      swap1\n      pop\n        /* \"#utility.yul\":2713:2778   */\n      tag_112\n        /* \"#utility.yul\":2775:2776   */\n      0x00\n        /* \"#utility.yul\":2764:2773   */\n      dup4\n        /* \"#utility.yul\":2760:2777   */\n      add\n        /* \"#utility.yul\":2751:2757   */\n      dup5\n        /* \"#utility.yul\":2713:2778   */\n      tag_65\n      jump\t// in\n    tag_112:\n        /* \"#utility.yul\":2575:2785   */\n      swap3\n      swap2\n      pop\n      pop\n      jump\t// out\n        /* \"#utility.yul\":2791:2909   */\n    tag_66:\n        /* \"#utility.yul\":2878:2902   */\n      tag_114\n        /* \"#utility.yul\":2896:2901   */\n      dup2\n        /* \"#utility.yul\":2878:2902   */\n      tag_57\n      jump\t// in\n    tag_114:\n        /* \"#utility.yul\":2873:2876   */\n      dup3\n        /* \"#utility.yul\":2866:2903   */\n      mstore\n        /* \"#utility.yul\":2791:2909   */\n      pop\n      pop\n      jump\t// out\n        /* \"#utility.yul\":2915:3137   */\n    tag_26:\n        /* \"#utility.yul\":3008:3012   */\n      0x00\n        /* \"#utility.yul\":3046:3048   */\n      0x20\n        /* \"#utility.yul\":3035:3044   */\n      dup3\n        /* \"#utility.yul\":3031:3049   */\n      add\n        /* \"#utility.yul\":3023:3049   */\n      swap1\n      pop\n        /* \"#utility.yul\":3059:3130   */\n      tag_116\n        /* \"#utility.yul\":3127:3128   */\n      0x00\n        /* \"#utility.yul\":3116:3125   */\n      dup4\n        /* \"#utility.yul\":3112:3129   */\n      add\n        /* \"#utility.yul\":3103:3109   */\n      dup5\n        /* \"#utility.yul\":3059:3130   */\n      tag_66\n      jump\t// in\n    tag_116:\n        /* \"#utility.yul\":2915:3137   */\n      swap3\n      swap2\n      pop\n      pop\n      jump\t// out\n        /* \"#utility.yul\":3143:3312   */\n    tag_67:\n        /* \"#utility.yul\":3227:3238   */\n      0x00\n        /* \"#utility.yul\":3261:3267   */\n      dup3\n        /* \"#utility.yul\":3256:3259   */\n      dup3\n        /* \"#utility.yul\":3249:3268   */\n      mstore\n        /* \"#utility.yul\":3301:3305   */\n      0x20\n        /* \"#utility.yul\":3296:3299   */\n      dup3\n        /* \"#utility.yul\":3292:3306   */\n      add\n        /* \"#utility.yul\":3277:3306   */\n      swap1\n      pop\n        /* \"#utility.yul\":3143:3312   */\n      swap3\n      swap2\n      pop\n      pop\n      jump\t// out\n        /* \"#utility.yul\":3318:3486   */\n    tag_68:\n        /* \"#utility.yul\":3458:3478   */\n      0x456e64657265636f20696e76616c69646f2e0000000000000000000000000000\n        /* \"#utility.yul\":3454:3455   */\n      0x00\n        /* \"#utility.yul\":3446:3452   */\n      dup3\n        /* \"#utility.yul\":3442:3456   */\n      add\n        /* \"#utility.yul\":3435:3479   */\n      mstore\n        /* \"#utility.yul\":3318:3486   */\n      pop\n      jump\t// out\n        /* \"#utility.yul\":3492:3858   */\n    tag_69:\n        /* \"#utility.yul\":3634:3637   */\n      0x00\n        /* \"#utility.yul\":3655:3722   */\n      tag_120\n        /* \"#utility.yul\":3719:3721   */\n      0x12\n        /* \"#utility.yul\":3714:3717   */\n      dup4\n        /* \"#utility.yul\":3655:3722   */\n      tag_67\n      jump\t// in\n    tag_120:\n        /* \"#utility.yul\":3648:3722   */\n      swap2\n      pop\n        /* \"#utility.yul\":3731:3824   */\n      tag_121\n        /* \"#utility.yul\":3820:3823   */\n      dup3\n        /* \"#utility.yul\":3731:3824   */\n      tag_68\n      jump\t// in\n    tag_121:\n        /* \"#utility.yul\":3849:3851   */\n      0x20\n        /* \"#utility.yul\":3844:3847   */\n      dup3\n        /* \"#utility.yul\":3840:3852   */\n      add\n        /* \"#utility.yul\":3833:3852   */\n      swap1\n      pop\n        /* \"#utility.yul\":3492:3858   */\n      swap2\n      swap1\n      pop\n      jump\t// out\n        /* \"#utility.yul\":3864:4283   */\n    tag_33:\n        /* \"#utility.yul\":4030:4034   */\n      0x00\n        /* \"#utility.yul\":4068:4070   */\n      0x20\n        /* \"#utility.yul\":4057:4066   */\n      dup3\n        /* \"#utility.yul\":4053:4071   */\n      add\n        /* \"#utility.yul\":4045:4071   */\n      swap1\n      pop\n        /* \"#utility.yul\":4117:4126   */\n      dup2\n        /* \"#utility.yul\":4111:4115   */\n      dup2\n        /* \"#utility.yul\":4107:4127   */\n      sub\n        /* \"#utility.yul\":4103:4104   */\n      0x00\n        /* \"#utility.yul\":4092:4101   */\n      dup4\n        /* \"#utility.yul\":4088:4105   */\n      add\n        /* \"#utility.yul\":4081:4128   */\n      mstore\n        /* \"#utility.yul\":4145:4276   */\n      tag_123\n        /* \"#utility.yul\":4271:4275   */\n      dup2\n        /* \"#utility.yul\":4145:4276   */\n      tag_69\n      jump\t// in\n    tag_123:\n        /* \"#utility.yul\":4137:4276   */\n      swap1\n      pop\n        /* \"#utility.yul\":3864:4283   */\n      swap2\n      swap1\n      pop\n      jump\t// out\n        /* \"#utility.yul\":4289:4459   */\n    tag_70:\n        /* \"#utility.yul\":4429:4451   */\n      0x506f6e746f7320696e737566696369656e74652e000000000000000000000000\n        /* \"#utility.yul\":4425:4426   */\n      0x00\n        /* \"#utility.yul\":4417:4423   */\n      dup3\n        /* \"#utility.yul\":4413:4427   */\n      add\n        /* \"#utility.yul\":4406:4452   */\n      mstore\n        /* \"#utility.yul\":4289:4459   */\n      pop\n      jump\t// out\n        /* \"#utility.yul\":4465:4831   */\n    tag_71:\n        /* \"#utility.yul\":4607:4610   */\n      0x00\n        /* \"#utility.yul\":4628:4695   */\n      tag_126\n        /* \"#utility.yul\":4692:4694   */\n      0x14\n        /* \"#utility.yul\":4687:4690   */\n      dup4\n        /* \"#utility.yul\":4628:4695   */\n      tag_67\n      jump\t// in\n    tag_126:\n        /* \"#utility.yul\":4621:4695   */\n      swap2\n      pop\n        /* \"#utility.yul\":4704:4797   */\n      tag_127\n        /* \"#utility.yul\":4793:4796   */\n      dup3\n        /* \"#utility.yul\":4704:4797   */\n      tag_70\n      jump\t// in\n    tag_127:\n        /* \"#utility.yul\":4822:4824   */\n      0x20\n        /* \"#utility.yul\":4817:4820   */\n      dup3\n        /* \"#utility.yul\":4813:4825   */\n      add\n        /* \"#utility.yul\":4806:4825   */\n      swap1\n      pop\n        /* \"#utility.yul\":4465:4831   */\n      swap2\n      swap1\n      pop\n      jump\t// out\n        /* \"#utility.yul\":4837:5256   */\n    tag_36:\n        /* \"#utility.yul\":5003:5007   */\n      0x00\n        /* \"#utility.yul\":5041:5043   */\n      0x20\n        /* \"#utility.yul\":5030:5039   */\n      dup3\n        /* \"#utility.yul\":5026:5044   */\n      add\n        /* \"#utility.yul\":5018:5044   */\n      swap1\n      pop\n        /* \"#utility.yul\":5090:5099   */\n      dup2\n        /* \"#utility.yul\":5084:5088   */\n      dup2\n        /* \"#utility.yul\":5080:5100   */\n      sub\n        /* \"#utility.yul\":5076:5077   */\n      0x00\n        /* \"#utility.yul\":5065:5074   */\n      dup4\n        /* \"#utility.yul\":5061:5078   */\n      add\n        /* \"#utility.yul\":5054:5101   */\n      mstore\n        /* \"#utility.yul\":5118:5249   */\n      tag_129\n        /* \"#utility.yul\":5244:5248   */\n      dup2\n        /* \"#utility.yul\":5118:5249   */\n      tag_71\n      jump\t// in\n    tag_129:\n        /* \"#utility.yul\":5110:5249   */\n      swap1\n      pop\n        /* \"#utility.yul\":4837:5256   */\n      swap2\n      swap1\n      pop\n      jump\t// out\n        /* \"#utility.yul\":5262:5442   */\n    tag_72:\n        /* \"#utility.yul\":5310:5387   */\n      0x4e487b7100000000000000000000000000000000000000000000000000000000\n        /* \"#utility.yul\":5307:5308   */\n      0x00\n        /* \"#utility.yul\":5300:5388   */\n      mstore\n        /* \"#utility.yul\":5407:5411   */\n      0x11\n        /* \"#utility.yul\":5404:5405   */\n      0x04\n        /* \"#utility.yul\":5397:5412   */\n      mstore\n        /* \"#utility.yul\":5431:5435   */\n      0x24\n        /* \"#utility.yul\":5428:5429   */\n      0x00\n        /* \"#utility.yul\":5421:5436   */\n      revert\n        /* \"#utility.yul\":5448:5642   */\n    tag_38:\n        /* \"#utility.yul\":5488:5492   */\n      0x00\n        /* \"#utility.yul\":5508:5528   */\n      tag_132\n        /* \"#utility.yul\":5526:5527   */\n      dup3\n        /* \"#utility.yul\":5508:5528   */\n      tag_60\n      jump\t// in\n    tag_132:\n        /* \"#utility.yul\":5503:5528   */\n      swap2\n      pop\n        /* \"#utility.yul\":5542:5562   */\n      tag_133\n        /* \"#utility.yul\":5560:5561   */\n      dup4\n        /* \"#utility.yul\":5542:5562   */\n      tag_60\n      jump\t// in\n    tag_133:\n        /* \"#utility.yul\":5537:5562   */\n      swap3\n      pop\n        /* \"#utility.yul\":5586:5587   */\n      dup3\n        /* \"#utility.yul\":5583:5584   */\n      dup3\n        /* \"#utility.yul\":5579:5588   */\n      sub\n        /* \"#utility.yul\":5571:5588   */\n      swap1\n      pop\n        /* \"#utility.yul\":5610:5611   */\n      dup2\n        /* \"#utility.yul\":5604:5608   */\n      dup2\n        /* \"#utility.yul\":5601:5612   */\n      gt\n        /* \"#utility.yul\":5598:5635   */\n      iszero\n      tag_134\n      jumpi\n        /* \"#utility.yul\":5615:5633   */\n      tag_135\n      tag_72\n      jump\t// in\n    tag_135:\n        /* \"#utility.yul\":5598:5635   */\n    tag_134:\n        /* \"#utility.yul\":5448:5642   */\n      swap3\n      swap2\n      pop\n      pop\n      jump\t// out\n        /* \"#utility.yul\":5648:5839   */\n    tag_40:\n        /* \"#utility.yul\":5688:5691   */\n      0x00\n        /* \"#utility.yul\":5707:5727   */\n      tag_137\n        /* \"#utility.yul\":5725:5726   */\n      dup3\n        /* \"#utility.yul\":5707:5727   */\n      tag_60\n      jump\t// in\n    tag_137:\n        /* \"#utility.yul\":5702:5727   */\n      swap2\n      pop\n        /* \"#utility.yul\":5741:5761   */\n      tag_138\n        /* \"#utility.yul\":5759:5760   */\n      dup4\n        /* \"#utility.yul\":5741:5761   */\n      tag_60\n      jump\t// in\n    tag_138:\n        /* \"#utility.yul\":5736:5761   */\n      swap3\n      pop\n        /* \"#utility.yul\":5784:5785   */\n      dup3\n        /* \"#utility.yul\":5781:5782   */\n      dup3\n        /* \"#utility.yul\":5777:5786   */\n      add\n        /* \"#utility.yul\":5770:5786   */\n      swap1\n      pop\n        /* \"#utility.yul\":5805:5808   */\n      dup1\n        /* \"#utility.yul\":5802:5803   */\n      dup3\n        /* \"#utility.yul\":5799:5809   */\n      gt\n        /* \"#utility.yul\":5796:5832   */\n      iszero\n      tag_139\n      jumpi\n        /* \"#utility.yul\":5812:5830   */\n      tag_140\n      tag_72\n      jump\t// in\n    tag_140:\n        /* \"#utility.yul\":5796:5832   */\n    tag_139:\n        /* \"#utility.yul\":5648:5839   */\n      swap3\n      swap2\n      pop\n      pop\n      jump\t// out\n        /* \"#utility.yul\":5845:6013   */\n    tag_73:\n        /* \"#utility.yul\":5985:6005   */\n      0x566f6365206e616f2065206f20646f6e6f2e0000000000000000000000000000\n        /* \"#utility.yul\":5981:5982   */\n      0x00\n        /* \"#utility.yul\":5973:5979   */\n      dup3\n        /* \"#utility.yul\":5969:5983   */\n      add\n        /* \"#utility.yul\":5962:6006   */\n      mstore\n        /* \"#utility.yul\":5845:6013   */\n      pop\n      jump\t// out\n        /* \"#utility.yul\":6019:6385   */\n    tag_74:\n        /* \"#utility.yul\":6161:6164   */\n      0x00\n        /* \"#utility.yul\":6182:6249   */\n      tag_143\n        /* \"#utility.yul\":6246:6248   */\n      0x12\n        /* \"#utility.yul\":6241:6244   */\n      dup4\n        /* \"#utility.yul\":6182:6249   */\n      tag_67\n      jump\t// in\n    tag_143:\n        /* \"#utility.yul\":6175:6249   */\n      swap2\n      pop\n        /* \"#utility.yul\":6258:6351   */\n      tag_144\n        /* \"#utility.yul\":6347:6350   */\n      dup3\n        /* \"#utility.yul\":6258:6351   */\n      tag_73\n      jump\t// in\n    tag_144:\n        /* \"#utility.yul\":6376:6378   */\n      0x20\n        /* \"#utility.yul\":6371:6374   */\n      dup3\n        /* \"#utility.yul\":6367:6379   */\n      add\n        /* \"#utility.yul\":6360:6379   */\n      swap1\n      pop\n        /* \"#utility.yul\":6019:6385   */\n      swap2\n      swap1\n      pop\n      jump\t// out\n        /* \"#utility.yul\":6391:6810   */\n    tag_45:\n        /* \"#utility.yul\":6557:6561   */\n      0x00\n        /* \"#utility.yul\":6595:6597   */\n      0x20\n        /* \"#utility.yul\":6584:6593   */\n      dup3\n        /* \"#utility.yul\":6580:6598   */\n      add\n        /* \"#utility.yul\":6572:6598   */\n      swap1\n      pop\n        /* \"#utility.yul\":6644:6653   */\n      dup2\n        /* \"#utility.yul\":6638:6642   */\n      dup2\n        /* \"#utility.yul\":6634:6654   */\n      sub\n        /* \"#utility.yul\":6630:6631   */\n      0x00\n        /* \"#utility.yul\":6619:6628   */\n      dup4\n        /* \"#utility.yul\":6615:6632   */\n      add\n        /* \"#utility.yul\":6608:6655   */\n      mstore\n        /* \"#utility.yul\":6672:6803   */\n      tag_146\n        /* \"#utility.yul\":6798:6802   */\n      dup2\n        /* \"#utility.yul\":6672:6803   */\n      tag_74\n      jump\t// in\n    tag_146:\n        /* \"#utility.yul\":6664:6803   */\n      swap1\n      pop\n        /* \"#utility.yul\":6391:6810   */\n      swap2\n      swap1\n      pop\n      jump\t// out\n        /* \"#utility.yul\":6816:6988   */\n    tag_75:\n        /* \"#utility.yul\":6956:6980   */\n      0x53616c646f20636f6d206d616973206465203130302e00000000000000000000\n        /* \"#utility.yul\":6952:6953   */\n      0x00\n        /* \"#utility.yul\":6944:6950   */\n      dup3\n        /* \"#utility.yul\":6940:6954   */\n      add\n        /* \"#utility.yul\":6933:6981   */\n      mstore\n        /* \"#utility.yul\":6816:6988   */\n      pop\n      jump\t// out\n        /* \"#utility.yul\":6994:7360   */\n    tag_76:\n        /* \"#utility.yul\":7136:7139   */\n      0x00\n        /* \"#utility.yul\":7157:7224   */\n      tag_149\n        /* \"#utility.yul\":7221:7223   */\n      0x16\n        /* \"#utility.yul\":7216:7219   */\n      dup4\n        /* \"#utility.yul\":7157:7224   */\n      tag_67\n      jump\t// in\n    tag_149:\n        /* \"#utility.yul\":7150:7224   */\n      swap2\n      pop\n        /* \"#utility.yul\":7233:7326   */\n      tag_150\n        /* \"#utility.yul\":7322:7325   */\n      dup3\n        /* \"#utility.yul\":7233:7326   */\n      tag_75\n      jump\t// in\n    tag_150:\n        /* \"#utility.yul\":7351:7353   */\n      0x20\n        /* \"#utility.yul\":7346:7349   */\n      dup3\n        /* \"#utility.yul\":7342:7354   */\n      add\n        /* \"#utility.yul\":7335:7354   */\n      swap1\n      pop\n        /* \"#utility.yul\":6994:7360   */\n      swap2\n      swap1\n      pop\n      jump\t// out\n        /* \"#utility.yul\":7366:7785   */\n    tag_50:\n        /* \"#utility.yul\":7532:7536   */\n      0x00\n        /* \"#utility.yul\":7570:7572   */\n      0x20\n        /* \"#utility.yul\":7559:7568   */\n      dup3\n        /* \"#utility.yul\":7555:7573   */\n      add\n        /* \"#utility.yul\":7547:7573   */\n      swap1\n      pop\n        /* \"#utility.yul\":7619:7628   */\n      dup2\n        /* \"#utility.yul\":7613:7617   */\n      dup2\n        /* \"#utility.yul\":7609:7629   */\n      sub\n        /* \"#utility.yul\":7605:7606   */\n      0x00\n        /* \"#utility.yul\":7594:7603   */\n      dup4\n        /* \"#utility.yul\":7590:7607   */\n      add\n        /* \"#utility.yul\":7583:7630   */\n      mstore\n        /* \"#utility.yul\":7647:7778   */\n      tag_152\n        /* \"#utility.yul\":7773:7777   */\n      dup2\n        /* \"#utility.yul\":7647:7778   */\n      tag_76\n      jump\t// in\n    tag_152:\n        /* \"#utility.yul\":7639:7778   */\n      swap1\n      pop\n        /* \"#utility.yul\":7366:7785   */\n      swap2\n      swap1\n      pop\n      jump\t// out\n        /* \"#utility.yul\":7791:8201   */\n    tag_52:\n        /* \"#utility.yul\":7831:7838   */\n      0x00\n        /* \"#utility.yul\":7854:7874   */\n      tag_154\n        /* \"#utility.yul\":7872:7873   */\n      dup3\n        /* \"#utility.yul\":7854:7874   */\n      tag_60\n      jump\t// in\n    tag_154:\n        /* \"#utility.yul\":7849:7874   */\n      swap2\n      pop\n        /* \"#utility.yul\":7888:7908   */\n      tag_155\n        /* \"#utility.yul\":7906:7907   */\n      dup4\n        /* \"#utility.yul\":7888:7908   */\n      tag_60\n      jump\t// in\n    tag_155:\n        /* \"#utility.yul\":7883:7908   */\n      swap3\n      pop\n        /* \"#utility.yul\":7943:7944   */\n      dup3\n        /* \"#utility.yul\":7940:7941   */\n      dup3\n        /* \"#utility.yul\":7936:7945   */\n      mul\n        /* \"#utility.yul\":7965:7995   */\n      tag_156\n        /* \"#utility.yul\":7983:7994   */\n      dup2\n        /* \"#utility.yul\":7965:7995   */\n      tag_60\n      jump\t// in\n    tag_156:\n        /* \"#utility.yul\":7954:7995   */\n      swap2\n      pop\n        /* \"#utility.yul\":8144:8145   */\n      dup3\n        /* \"#utility.yul\":8135:8142   */\n      dup3\n        /* \"#utility.yul\":8131:8146   */\n      div\n        /* \"#utility.yul\":8128:8129   */\n      dup5\n        /* \"#utility.yul\":8125:8147   */\n      eq\n        /* \"#utility.yul\":8105:8106   */\n      dup4\n        /* \"#utility.yul\":8098:8107   */\n      iszero\n        /* \"#utility.yul\":8078:8161   */\n      or\n        /* \"#utility.yul\":8055:8194   */\n      tag_157\n      jumpi\n        /* \"#utility.yul\":8174:8192   */\n      tag_158\n      tag_72\n      jump\t// in\n    tag_158:\n        /* \"#utility.yul\":8055:8194   */\n    tag_157:\n        /* \"#utility.yul\":7839:8201   */\n      pop\n        /* \"#utility.yul\":7791:8201   */\n      swap3\n      swap2\n      pop\n      pop\n      jump\t// out\n\n    auxdata: 0xa2646970667358221220bac8d8349ac716e43f69c6419b929a6d7b461e1319c44fa650359352b953d29064736f6c634300081e0033\n}\n",
				"bytecode": {
					"linkReferences": {},
					"object": "6080604052348015600e575f5ffd5b50335f5f6101000a81548173ffffffffffffffffffffffffffffffffffffffff021916908373ffffffffffffffffffffffffffffffffffffffff16021790555061095c8061005b5f395ff3fe608060405234801561000f575f5ffd5b5060043610610055575f3560e01c8063344fb8d31461005957806397b75c52146100895780639ce0943f146100b9578063b4a99a4e146100d5578063c3213770146100f3575b5f5ffd5b610073600480360381019061006e9190610583565b6100fd565b60405161008091906105c6565b60405180910390f35b6100a3600480360381019061009e9190610609565b610143565b6040516100b09190610661565b60405180910390f35b6100d360048036038101906100ce9190610609565b610347565b005b6100dd61042c565b6040516100ea9190610689565b60405180910390f35b6100fb610450565b005b5f60015f8373ffffffffffffffffffffffffffffffffffffffff1673ffffffffffffffffffffffffffffffffffffffff1681526020019081526020015f20549050919050565b5f5f73ffffffffffffffffffffffffffffffffffffffff168373ffffffffffffffffffffffffffffffffffffffff16036101b2576040517f08c379a00000000000000000000000000000000000000000000000000000000081526004016101a9906106fc565b60405180910390fd5b8160015f3373ffffffffffffffffffffffffffffffffffffffff1673ffffffffffffffffffffffffffffffffffffffff1681526020019081526020015f20541015610232576040517f08c379a000000000000000000000000000000000000000000000000000000000815260040161022990610764565b60405180910390fd5b8160015f3373ffffffffffffffffffffffffffffffffffffffff1673ffffffffffffffffffffffffffffffffffffffff1681526020019081526020015f205f82825461027e91906107af565b925050819055508160015f8573ffffffffffffffffffffffffffffffffffffffff1673ffffffffffffffffffffffffffffffffffffffff1681526020019081526020015f205f8282546102d191906107e2565b925050819055508273ffffffffffffffffffffffffffffffffffffffff163373ffffffffffffffffffffffffffffffffffffffff167fddf252ad1be2c89b69c2b068fc378daa952ba7f163c4a11628f55a4df523b3ef8460405161033591906105c6565b60405180910390a36001905092915050565b5f5f9054906101000a900473ffffffffffffffffffffffffffffffffffffffff1673ffffffffffffffffffffffffffffffffffffffff163373ffffffffffffffffffffffffffffffffffffffff16146103d5576040517f08c379a00000000000000000000000000000000000000000000000000000000081526004016103cc9061085f565b60405180910390fd5b8060015f8473ffffffffffffffffffffffffffffffffffffffff1673ffffffffffffffffffffffffffffffffffffffff1681526020019081526020015f205f82825461042191906107e2565b925050819055505050565b5f5f9054906101000a900473ffffffffffffffffffffffffffffffffffffffff1681565b5f60015f3373ffffffffffffffffffffffffffffffffffffffff1673ffffffffffffffffffffffffffffffffffffffff1681526020019081526020015f20549050606481106104d4576040517f08c379a00000000000000000000000000000000000000000000000000000000081526004016104cb906108c7565b60405180910390fd5b6002816104e191906108e5565b60015f3373ffffffffffffffffffffffffffffffffffffffff1673ffffffffffffffffffffffffffffffffffffffff1681526020019081526020015f208190555050565b5f5ffd5b5f73ffffffffffffffffffffffffffffffffffffffff82169050919050565b5f61055282610529565b9050919050565b61056281610548565b811461056c575f5ffd5b50565b5f8135905061057d81610559565b92915050565b5f6020828403121561059857610597610525565b5b5f6105a58482850161056f565b91505092915050565b5f819050919050565b6105c0816105ae565b82525050565b5f6020820190506105d95f8301846105b7565b92915050565b6105e8816105ae565b81146105f2575f5ffd5b50565b5f81359050610603816105df565b92915050565b5f5f6040838503121561061f5761061e610525565b5b5f61062c8582860161056f565b925050602061063d858286016105f5565b9150509250929050565b5f8115159050919050565b61065b81610647565b82525050565b5f6020820190506106745f830184610652565b92915050565b61068381610548565b82525050565b5f60208201905061069c5f83018461067a565b92915050565b5f82825260208201905092915050565b7f456e64657265636f20696e76616c69646f2e00000000000000000000000000005f82015250565b5f6106e66012836106a2565b91506106f1826106b2565b602082019050919050565b5f6020820190508181035f830152610713816106da565b9050919050565b7f506f6e746f7320696e737566696369656e74652e0000000000000000000000005f82015250565b5f61074e6014836106a2565b91506107598261071a565b602082019050919050565b5f6020820190508181035f83015261077b81610742565b9050919050565b7f4e487b71000000000000000000000000000000000000000000000000000000005f52601160045260245ffd5b5f6107b9826105ae565b91506107c4836105ae565b92508282039050818111156107dc576107db610782565b5b92915050565b5f6107ec826105ae565b91506107f7836105ae565b925082820190508082111561080f5761080e610782565b5b92915050565b7f566f6365206e616f2065206f20646f6e6f2e00000000000000000000000000005f82015250565b5f6108496012836106a2565b915061085482610815565b602082019050919050565b5f6020820190508181035f8301526108768161083d565b9050919050565b7f53616c646f20636f6d206d616973206465203130302e000000000000000000005f82015250565b5f6108b16016836106a2565b91506108bc8261087d565b602082019050919050565b5f6020820190508181035f8301526108de816108a5565b9050919050565b5f6108ef826105ae565b91506108fa836105ae565b9250828202610908816105ae565b9150828204841483151761091f5761091e610782565b5b509291505056fea2646970667358221220bac8d8349ac716e43f69c6419b929a6d7b461e1319c44fa650359352b953d29064736f6c634300081e0033",
					"opcodes": "PUSH1 0x80 PUSH1 0x40 MSTORE CALLVALUE DUP1 ISZERO PUSH1 0xE JUMPI PUSH0 PUSH0 REVERT JUMPDEST POP CALLER PUSH0 PUSH0 PUSH2 0x100 EXP DUP2 SLOAD DUP2 PUSH20 0xFFFFFFFFFFFFFFFFFFFFFFFFFFFFFFFFFFFFFFFF MUL NOT AND SWAP1 DUP4 PUSH20 0xFFFFFFFFFFFFFFFFFFFFFFFFFFFFFFFFFFFFFFFF AND MUL OR SWAP1 SSTORE POP PUSH2 0x95C DUP1 PUSH2 0x5B PUSH0 CODECOPY PUSH0 RETURN INVALID PUSH1 0x80 PUSH1 0x40 MSTORE CALLVALUE DUP1 ISZERO PUSH2 0xF JUMPI PUSH0 PUSH0 REVERT JUMPDEST POP PUSH1 0x4 CALLDATASIZE LT PUSH2 0x55 JUMPI PUSH0 CALLDATALOAD PUSH1 0xE0 SHR DUP1 PUSH4 0x344FB8D3 EQ PUSH2 0x59 JUMPI DUP1 PUSH4 0x97B75C52 EQ PUSH2 0x89 JUMPI DUP1 PUSH4 0x9CE0943F EQ PUSH2 0xB9 JUMPI DUP1 PUSH4 0xB4A99A4E EQ PUSH2 0xD5 JUMPI DUP1 PUSH4 0xC3213770 EQ PUSH2 0xF3 JUMPI JUMPDEST PUSH0 PUSH0 REVERT JUMPDEST PUSH2 0x73 PUSH1 0x4 DUP1 CALLDATASIZE SUB DUP2 ADD SWAP1 PUSH2 0x6E SWAP2 SWAP1 PUSH2 0x583 JUMP JUMPDEST PUSH2 0xFD JUMP JUMPDEST PUSH1 0x40 MLOAD PUSH2 0x80 SWAP2 SWAP1 PUSH2 0x5C6 JUMP JUMPDEST PUSH1 0x40 MLOAD DUP1 SWAP2 SUB SWAP1 RETURN JUMPDEST PUSH2 0xA3 PUSH1 0x4 DUP1 CALLDATASIZE SUB DUP2 ADD SWAP1 PUSH2 0x9E SWAP2 SWAP1 PUSH2 0x609 JUMP JUMPDEST PUSH2 0x143 JUMP JUMPDEST PUSH1 0x40 MLOAD PUSH2 0xB0 SWAP2 SWAP1 PUSH2 0x661 JUMP JUMPDEST PUSH1 0x40 MLOAD DUP1 SWAP2 SUB SWAP1 RETURN JUMPDEST PUSH2 0xD3 PUSH1 0x4 DUP1 CALLDATASIZE SUB DUP2 ADD SWAP1 PUSH2 0xCE SWAP2 SWAP1 PUSH2 0x609 JUMP JUMPDEST PUSH2 0x347 JUMP JUMPDEST STOP JUMPDEST PUSH2 0xDD PUSH2 0x42C JUMP JUMPDEST PUSH1 0x40 MLOAD PUSH2 0xEA SWAP2 SWAP1 PUSH2 0x689 JUMP JUMPDEST PUSH1 0x40 MLOAD DUP1 SWAP2 SUB SWAP1 RETURN JUMPDEST PUSH2 0xFB PUSH2 0x450 JUMP JUMPDEST STOP JUMPDEST PUSH0 PUSH1 0x1 PUSH0 DUP4 PUSH20 0xFFFFFFFFFFFFFFFFFFFFFFFFFFFFFFFFFFFFFFFF AND PUSH20 0xFFFFFFFFFFFFFFFFFFFFFFFFFFFFFFFFFFFFFFFF AND DUP2 MSTORE PUSH1 0x20 ADD SWAP1 DUP2 MSTORE PUSH1 0x20 ADD PUSH0 KECCAK256 SLOAD SWAP1 POP SWAP2 SWAP1 POP JUMP JUMPDEST PUSH0 PUSH0 PUSH20 0xFFFFFFFFFFFFFFFFFFFFFFFFFFFFFFFFFFFFFFFF AND DUP4 PUSH20 0xFFFFFFFFFFFFFFFFFFFFFFFFFFFFFFFFFFFFFFFF AND SUB PUSH2 0x1B2 JUMPI PUSH1 0x40 MLOAD PUSH32 0x8C379A000000000000000000000000000000000000000000000000000000000 DUP2 MSTORE PUSH1 0x4 ADD PUSH2 0x1A9 SWAP1 PUSH2 0x6FC JUMP JUMPDEST PUSH1 0x40 MLOAD DUP1 SWAP2 SUB SWAP1 REVERT JUMPDEST DUP2 PUSH1 0x1 PUSH0 CALLER PUSH20 0xFFFFFFFFFFFFFFFFFFFFFFFFFFFFFFFFFFFFFFFF AND PUSH20 0xFFFFFFFFFFFFFFFFFFFFFFFFFFFFFFFFFFFFFFFF AND DUP2 MSTORE PUSH1 0x20 ADD SWAP1 DUP2 MSTORE PUSH1 0x20 ADD PUSH0 KECCAK256 SLOAD LT ISZERO PUSH2 0x232 JUMPI PUSH1 0x40 MLOAD PUSH32 0x8C379A000000000000000000000000000000000000000000000000000000000 DUP2 MSTORE PUSH1 0x4 ADD PUSH2 0x229 SWAP1 PUSH2 0x764 JUMP JUMPDEST PUSH1 0x40 MLOAD DUP1 SWAP2 SUB SWAP1 REVERT JUMPDEST DUP2 PUSH1 0x1 PUSH0 CALLER PUSH20 0xFFFFFFFFFFFFFFFFFFFFFFFFFFFFFFFFFFFFFFFF AND PUSH20 0xFFFFFFFFFFFFFFFFFFFFFFFFFFFFFFFFFFFFFFFF AND DUP2 MSTORE PUSH1 0x20 ADD SWAP1 DUP2 MSTORE PUSH1 0x20 ADD PUSH0 KECCAK256 PUSH0 DUP3 DUP3 SLOAD PUSH2 0x27E SWAP2 SWAP1 PUSH2 0x7AF JUMP JUMPDEST SWAP3 POP POP DUP2 SWAP1 SSTORE POP DUP2 PUSH1 0x1 PUSH0 DUP6 PUSH20 0xFFFFFFFFFFFFFFFFFFFFFFFFFFFFFFFFFFFFFFFF AND PUSH20 0xFFFFFFFFFFFFFFFFFFFFFFFFFFFFFFFFFFFFFFFF AND DUP2 MSTORE PUSH1 0x20 ADD SWAP1 DUP2 MSTORE PUSH1 0x20 ADD PUSH0 KECCAK256 PUSH0 DUP3 DUP3 SLOAD PUSH2 0x2D1 SWAP2 SWAP1 PUSH2 0x7E2 JUMP JUMPDEST SWAP3 POP POP DUP2 SWAP1 SSTORE POP DUP3 PUSH20 0xFFFFFFFFFFFFFFFFFFFFFFFFFFFFFFFFFFFFFFFF AND CALLER PUSH20 0xFFFFFFFFFFFFFFFFFFFFFFFFFFFFFFFFFFFFFFFF AND PUSH32 0xDDF252AD1BE2C89B69C2B068FC378DAA952BA7F163C4A11628F55A4DF523B3EF DUP5 PUSH1 0x40 MLOAD PUSH2 0x335 SWAP2 SWAP1 PUSH2 0x5C6 JUMP JUMPDEST PUSH1 0x40 MLOAD DUP1 SWAP2 SUB SWAP1 LOG3 PUSH1 0x1 SWAP1 POP SWAP3 SWAP2 POP POP JUMP JUMPDEST PUSH0 PUSH0 SWAP1 SLOAD SWAP1 PUSH2 0x100 EXP SWAP1 DIV PUSH20 0xFFFFFFFFFFFFFFFFFFFFFFFFFFFFFFFFFFFFFFFF AND PUSH20 0xFFFFFFFFFFFFFFFFFFFFFFFFFFFFFFFFFFFFFFFF AND CALLER PUSH20 0xFFFFFFFFFFFFFFFFFFFFFFFFFFFFFFFFFFFFFFFF AND EQ PUSH2 0x3D5 JUMPI PUSH1 0x40 MLOAD PUSH32 0x8C379A000000000000000000000000000000000000000000000000000000000 DUP2 MSTORE PUSH1 0x4 ADD PUSH2 0x3CC SWAP1 PUSH2 0x85F JUMP JUMPDEST PUSH1 0x40 MLOAD DUP1 SWAP2 SUB SWAP1 REVERT JUMPDEST DUP1 PUSH1 0x1 PUSH0 DUP5 PUSH20 0xFFFFFFFFFFFFFFFFFFFFFFFFFFFFFFFFFFFFFFFF AND PUSH20 0xFFFFFFFFFFFFFFFFFFFFFFFFFFFFFFFFFFFFFFFF AND DUP2 MSTORE PUSH1 0x20 ADD SWAP1 DUP2 MSTORE PUSH1 0x20 ADD PUSH0 KECCAK256 PUSH0 DUP3 DUP3 SLOAD PUSH2 0x421 SWAP2 SWAP1 PUSH2 0x7E2 JUMP JUMPDEST SWAP3 POP POP DUP2 SWAP1 SSTORE POP POP POP JUMP JUMPDEST PUSH0 PUSH0 SWAP1 SLOAD SWAP1 PUSH2 0x100 EXP SWAP1 DIV PUSH20 0xFFFFFFFFFFFFFFFFFFFFFFFFFFFFFFFFFFFFFFFF AND DUP2 JUMP JUMPDEST PUSH0 PUSH1 0x1 PUSH0 CALLER PUSH20 0xFFFFFFFFFFFFFFFFFFFFFFFFFFFFFFFFFFFFFFFF AND PUSH20 0xFFFFFFFFFFFFFFFFFFFFFFFFFFFFFFFFFFFFFFFF AND DUP2 MSTORE PUSH1 0x20 ADD SWAP1 DUP2 MSTORE PUSH1 0x20 ADD PUSH0 KECCAK256 SLOAD SWAP1 POP PUSH1 0x64 DUP2 LT PUSH2 0x4D4 JUMPI PUSH1 0x40 MLOAD PUSH32 0x8C379A000000000000000000000000000000000000000000000000000000000 DUP2 MSTORE PUSH1 0x4 ADD PUSH2 0x4CB SWAP1 PUSH2 0x8C7 JUMP JUMPDEST PUSH1 0x40 MLOAD DUP1 SWAP2 SUB SWAP1 REVERT JUMPDEST PUSH1 0x2 DUP2 PUSH2 0x4E1 SWAP2 SWAP1 PUSH2 0x8E5 JUMP JUMPDEST PUSH1 0x1 PUSH0 CALLER PUSH20 0xFFFFFFFFFFFFFFFFFFFFFFFFFFFFFFFFFFFFFFFF AND PUSH20 0xFFFFFFFFFFFFFFFFFFFFFFFFFFFFFFFFFFFFFFFF AND DUP2 MSTORE PUSH1 0x20 ADD SWAP1 DUP2 MSTORE PUSH1 0x20 ADD PUSH0 KECCAK256 DUP2 SWAP1 SSTORE POP POP JUMP JUMPDEST PUSH0 PUSH0 REVERT JUMPDEST PUSH0 PUSH20 0xFFFFFFFFFFFFFFFFFFFFFFFFFFFFFFFFFFFFFFFF DUP3 AND SWAP1 POP SWAP2 SWAP1 POP JUMP JUMPDEST PUSH0 PUSH2 0x552 DUP3 PUSH2 0x529 JUMP JUMPDEST SWAP1 POP SWAP2 SWAP1 POP JUMP JUMPDEST PUSH2 0x562 DUP2 PUSH2 0x548 JUMP JUMPDEST DUP2 EQ PUSH2 0x56C JUMPI PUSH0 PUSH0 REVERT JUMPDEST POP JUMP JUMPDEST PUSH0 DUP2 CALLDATALOAD SWAP1 POP PUSH2 0x57D DUP2 PUSH2 0x559 JUMP JUMPDEST SWAP3 SWAP2 POP POP JUMP JUMPDEST PUSH0 PUSH1 0x20 DUP3 DUP5 SUB SLT ISZERO PUSH2 0x598 JUMPI PUSH2 0x597 PUSH2 0x525 JUMP JUMPDEST JUMPDEST PUSH0 PUSH2 0x5A5 DUP5 DUP3 DUP6 ADD PUSH2 0x56F JUMP JUMPDEST SWAP2 POP POP SWAP3 SWAP2 POP POP JUMP JUMPDEST PUSH0 DUP2 SWAP1 POP SWAP2 SWAP1 POP JUMP JUMPDEST PUSH2 0x5C0 DUP2 PUSH2 0x5AE JUMP JUMPDEST DUP3 MSTORE POP POP JUMP JUMPDEST PUSH0 PUSH1 0x20 DUP3 ADD SWAP1 POP PUSH2 0x5D9 PUSH0 DUP4 ADD DUP5 PUSH2 0x5B7 JUMP JUMPDEST SWAP3 SWAP2 POP POP JUMP JUMPDEST PUSH2 0x5E8 DUP2 PUSH2 0x5AE JUMP JUMPDEST DUP2 EQ PUSH2 0x5F2 JUMPI PUSH0 PUSH0 REVERT JUMPDEST POP JUMP JUMPDEST PUSH0 DUP2 CALLDATALOAD SWAP1 POP PUSH2 0x603 DUP2 PUSH2 0x5DF JUMP JUMPDEST SWAP3 SWAP2 POP POP JUMP JUMPDEST PUSH0 PUSH0 PUSH1 0x40 DUP4 DUP6 SUB SLT ISZERO PUSH2 0x61F JUMPI PUSH2 0x61E PUSH2 0x525 JUMP JUMPDEST JUMPDEST PUSH0 PUSH2 0x62C DUP6 DUP3 DUP7 ADD PUSH2 0x56F JUMP JUMPDEST SWAP3 POP POP PUSH1 0x20 PUSH2 0x63D DUP6 DUP3 DUP7 ADD PUSH2 0x5F5 JUMP JUMPDEST SWAP2 POP POP SWAP3 POP SWAP3 SWAP1 POP JUMP JUMPDEST PUSH0 DUP2 ISZERO ISZERO SWAP1 POP SWAP2 SWAP1 POP JUMP JUMPDEST PUSH2 0x65B DUP2 PUSH2 0x647 JUMP JUMPDEST DUP3 MSTORE POP POP JUMP JUMPDEST PUSH0 PUSH1 0x20 DUP3 ADD SWAP1 POP PUSH2 0x674 PUSH0 DUP4 ADD DUP5 PUSH2 0x652 JUMP JUMPDEST SWAP3 SWAP2 POP POP JUMP JUMPDEST PUSH2 0x683 DUP2 PUSH2 0x548 JUMP JUMPDEST DUP3 MSTORE POP POP JUMP JUMPDEST PUSH0 PUSH1 0x20 DUP3 ADD SWAP1 POP PUSH2 0x69C PUSH0 DUP4 ADD DUP5 PUSH2 0x67A JUMP JUMPDEST SWAP3 SWAP2 POP POP JUMP JUMPDEST PUSH0 DUP3 DUP3 MSTORE PUSH1 0x20 DUP3 ADD SWAP1 POP SWAP3 SWAP2 POP POP JUMP JUMPDEST PUSH32 0x456E64657265636F20696E76616C69646F2E0000000000000000000000000000 PUSH0 DUP3 ADD MSTORE POP JUMP JUMPDEST PUSH0 PUSH2 0x6E6 PUSH1 0x12 DUP4 PUSH2 0x6A2 JUMP JUMPDEST SWAP2 POP PUSH2 0x6F1 DUP3 PUSH2 0x6B2 JUMP JUMPDEST PUSH1 0x20 DUP3 ADD SWAP1 POP SWAP2 SWAP1 POP JUMP JUMPDEST PUSH0 PUSH1 0x20 DUP3 ADD SWAP1 POP DUP2 DUP2 SUB PUSH0 DUP4 ADD MSTORE PUSH2 0x713 DUP2 PUSH2 0x6DA JUMP JUMPDEST SWAP1 POP SWAP2 SWAP1 POP JUMP JUMPDEST PUSH32 0x506F6E746F7320696E737566696369656E74652E000000000000000000000000 PUSH0 DUP3 ADD MSTORE POP JUMP JUMPDEST PUSH0 PUSH2 0x74E PUSH1 0x14 DUP4 PUSH2 0x6A2 JUMP JUMPDEST SWAP2 POP PUSH2 0x759 DUP3 PUSH2 0x71A JUMP JUMPDEST PUSH1 0x20 DUP3 ADD SWAP1 POP SWAP2 SWAP1 POP JUMP JUMPDEST PUSH0 PUSH1 0x20 DUP3 ADD SWAP1 POP DUP2 DUP2 SUB PUSH0 DUP4 ADD MSTORE PUSH2 0x77B DUP2 PUSH2 0x742 JUMP JUMPDEST SWAP1 POP SWAP2 SWAP1 POP JUMP JUMPDEST PUSH32 0x4E487B7100000000000000000000000000000000000000000000000000000000 PUSH0 MSTORE PUSH1 0x11 PUSH1 0x4 MSTORE PUSH1 0x24 PUSH0 REVERT JUMPDEST PUSH0 PUSH2 0x7B9 DUP3 PUSH2 0x5AE JUMP JUMPDEST SWAP2 POP PUSH2 0x7C4 DUP4 PUSH2 0x5AE JUMP JUMPDEST SWAP3 POP DUP3 DUP3 SUB SWAP1 POP DUP2 DUP2 GT ISZERO PUSH2 0x7DC JUMPI PUSH2 0x7DB PUSH2 0x782 JUMP JUMPDEST JUMPDEST SWAP3 SWAP2 POP POP JUMP JUMPDEST PUSH0 PUSH2 0x7EC DUP3 PUSH2 0x5AE JUMP JUMPDEST SWAP2 POP PUSH2 0x7F7 DUP4 PUSH2 0x5AE JUMP JUMPDEST SWAP3 POP DUP3 DUP3 ADD SWAP1 POP DUP1 DUP3 GT ISZERO PUSH2 0x80F JUMPI PUSH2 0x80E PUSH2 0x782 JUMP JUMPDEST JUMPDEST SWAP3 SWAP2 POP POP JUMP JUMPDEST PUSH32 0x566F6365206E616F2065206F20646F6E6F2E0000000000000000000000000000 PUSH0 DUP3 ADD MSTORE POP JUMP JUMPDEST PUSH0 PUSH2 0x849 PUSH1 0x12 DUP4 PUSH2 0x6A2 JUMP JUMPDEST SWAP2 POP PUSH2 0x854 DUP3 PUSH2 0x815 JUMP JUMPDEST PUSH1 0x20 DUP3 ADD SWAP1 POP SWAP2 SWAP1 POP JUMP JUMPDEST PUSH0 PUSH1 0x20 DUP3 ADD SWAP1 POP DUP2 DUP2 SUB PUSH0 DUP4 ADD MSTORE PUSH2 0x876 DUP2 PUSH2 0x83D JUMP JUMPDEST SWAP1 POP SWAP2 SWAP1 POP JUMP JUMPDEST PUSH32 0x53616C646F20636F6D206D616973206465203130302E00000000000000000000 PUSH0 DUP3 ADD MSTORE POP JUMP JUMPDEST PUSH0 PUSH2 0x8B1 PUSH1 0x16 DUP4 PUSH2 0x6A2 JUMP JUMPDEST SWAP2 POP PUSH2 0x8BC DUP3 PUSH2 0x87D JUMP JUMPDEST PUSH1 0x20 DUP3 ADD SWAP1 POP SWAP2 SWAP1 POP JUMP JUMPDEST PUSH0 PUSH1 0x20 DUP3 ADD SWAP1 POP DUP2 DUP2 SUB PUSH0 DUP4 ADD MSTORE PUSH2 0x8DE DUP2 PUSH2 0x8A5 JUMP JUMPDEST SWAP1 POP SWAP2 SWAP1 POP JUMP JUMPDEST PUSH0 PUSH2 0x8EF DUP3 PUSH2 0x5AE JUMP JUMPDEST SWAP2 POP PUSH2 0x8FA DUP4 PUSH2 0x5AE JUMP JUMPDEST SWAP3 POP DUP3 DUP3 MUL PUSH2 0x908 DUP2 PUSH2 0x5AE JUMP JUMPDEST SWAP2 POP DUP3 DUP3 DIV DUP5 EQ DUP4 ISZERO OR PUSH2 0x91F JUMPI PUSH2 0x91E PUSH2 0x782 JUMP JUMPDEST JUMPDEST POP SWAP3 SWAP2 POP POP JUMP INVALID LOG2 PUSH5 0x6970667358 0x22 SLT KECCAK256 0xBA 0xC8 0xD8 CALLVALUE SWAP11 0xC7 AND RETF EXTCODEHASH PUSH10 0xC6419B929A6D7B461E13 NOT 0xC4 0x4F 0xA6 POP CALLDATALOAD SWAP4 MSTORE 0xB9 MSTORE8 0xD2 SWAP1 PUSH5 0x736F6C6343 STOP ADDMOD 0x1E STOP CALLER "
				},
				"gasEstimates": {
					"creation": {
						"codeDepositCost": "479200",
						"executionCost": "24773",
						"totalCost": "503973"
					},
					"external": {
						"AdicionarPontos(address,uint256)": "infinite",
						"BuscarPontos(address)": "2807",
						"Owner()": "2551",
						"TransferPontos(address,uint256)": "infinite",
						"dobraPontos()": "infinite"
					}
				},
				"methodIdentifiers": {
					"AdicionarPontos(address,uint256)": "9ce0943f",
					"BuscarPontos(address)": "344fb8d3",
					"Owner()": "b4a99a4e",
					"TransferPontos(address,uint256)": "97b75c52",
					"dobraPontos()": "c3213770"
				}
			},
			"storageLayout": {
				"storage": [
					{
						"astId": 3,
						"contract": "Introdução ao Solidity/ExerciciosDeTeste/Sistema de Pontos Simples.sol:SistemaPontos",
						"label": "Owner",
						"offset": 0,
						"slot": "0",
						"type": "t_address"
					},
					{
						"astId": 7,
						"contract": "Introdução ao Solidity/ExerciciosDeTeste/Sistema de Pontos Simples.sol:SistemaPontos",
						"label": "pontos",
						"offset": 0,
						"slot": "1",
						"type": "t_mapping(t_address,t_uint256)"
					}
				],
				"types": {
					"t_address": {
						"encoding": "inplace",
						"label": "address",
						"numberOfBytes": "20"
					},
					"t_mapping(t_address,t_uint256)": {
						"encoding": "mapping",
						"key": "t_address",
						"label": "mapping(address => uint256)",
						"numberOfBytes": "32",
						"value": "t_uint256"
					},
					"t_uint256": {
						"encoding": "inplace",
						"label": "uint256",
						"numberOfBytes": "32"
					}
				}
			},
			"userdoc": {
				"kind": "user",
				"methods": {},
				"version": 1
			}
		}
	}
}