{
	"Introdução ao Solidity/Solidity 0.8/O esquema de obelisco..sol": {
		"Obelisco": {
			"abi": [
				{
					"inputs": [],
					"name": "dono",
					"outputs": [
						{
							"internalType": "address",
							"name": "",
							"type": "address"
						}
					],
					"stateMutability": "view",
					"type": "function"
				},
				{
					"inputs": [],
					"name": "valorAtual",
					"outputs": [
						{
							"internalType": "uint256",
							"name": "",
							"type": "uint256"
						}
					],
					"stateMutability": "view",
					"type": "function"
				},
				{
					"inputs": [],
					"name": "viraDono",
					"outputs": [],
					"stateMutability": "payable",
					"type": "function"
				}
			],
			"devdoc": {
				"kind": "dev",
				"methods": {},
				"version": 1
			},
			"evm": {
				"assembly": "    /* \"Introdu\\xc3\\xa7\\xc3\\xa3o ao Solidity/Solidity 0.8/O esquema de obelisco..sol\":61:919  contract Obelisco {... */\n  mstore(0x40, 0x80)\n    /* \"Introdu\\xc3\\xa7\\xc3\\xa3o ao Solidity/Solidity 0.8/O esquema de obelisco..sol\":108:118  msg.sender */\n  caller\n    /* \"Introdu\\xc3\\xa7\\xc3\\xa3o ao Solidity/Solidity 0.8/O esquema de obelisco..sol\":86:118  address public dono = msg.sender */\n  0x00\n  exp(0x0100, 0x00)\n  dup2\n  sload\n  dup2\n  0xffffffffffffffffffffffffffffffffffffffff\n  mul\n  not\n  and\n  swap1\n  dup4\n  0xffffffffffffffffffffffffffffffffffffffff\n  and\n  mul\n  or\n  swap1\n  sstore\n  pop\n    /* \"Introdu\\xc3\\xa7\\xc3\\xa3o ao Solidity/Solidity 0.8/O esquema de obelisco..sol\":150:159  0.1 ether */\n  0x016345785d8a0000\n    /* \"Introdu\\xc3\\xa7\\xc3\\xa3o ao Solidity/Solidity 0.8/O esquema de obelisco..sol\":125:159  uint public valorAtual = 0.1 ether */\n  0x01\n  sstore\n    /* \"Introdu\\xc3\\xa7\\xc3\\xa3o ao Solidity/Solidity 0.8/O esquema de obelisco..sol\":61:919  contract Obelisco {... */\n  callvalue\n  dup1\n  iszero\n  tag_1\n  jumpi\n  revert(0x00, 0x00)\ntag_1:\n  pop\n  dataSize(sub_0)\n  dup1\n  dataOffset(sub_0)\n  0x00\n  codecopy\n  0x00\n  return\nstop\n\nsub_0: assembly {\n        /* \"Introdu\\xc3\\xa7\\xc3\\xa3o ao Solidity/Solidity 0.8/O esquema de obelisco..sol\":61:919  contract Obelisco {... */\n      mstore(0x40, 0x80)\n      jumpi(tag_1, lt(calldatasize, 0x04))\n      shr(0xe0, calldataload(0x00))\n      dup1\n      0x0db1da0d\n      eq\n      tag_2\n      jumpi\n      dup1\n      0x292c8b7e\n      eq\n      tag_3\n      jumpi\n      dup1\n      0x70514bea\n      eq\n      tag_4\n      jumpi\n    tag_1:\n      revert(0x00, 0x00)\n        /* \"Introdu\\xc3\\xa7\\xc3\\xa3o ao Solidity/Solidity 0.8/O esquema de obelisco..sol\":168:916  function viraDono() public payable {... */\n    tag_2:\n      tag_5\n      tag_6\n      jump\t// in\n    tag_5:\n      stop\n        /* \"Introdu\\xc3\\xa7\\xc3\\xa3o ao Solidity/Solidity 0.8/O esquema de obelisco..sol\":125:159  uint public valorAtual = 0.1 ether */\n    tag_3:\n      callvalue\n      dup1\n      iszero\n      tag_7\n      jumpi\n      revert(0x00, 0x00)\n    tag_7:\n      pop\n      tag_8\n      tag_9\n      jump\t// in\n    tag_8:\n      mload(0x40)\n      tag_10\n      swap2\n      swap1\n      tag_11\n      jump\t// in\n    tag_10:\n      mload(0x40)\n      dup1\n      swap2\n      sub\n      swap1\n      return\n        /* \"Introdu\\xc3\\xa7\\xc3\\xa3o ao Solidity/Solidity 0.8/O esquema de obelisco..sol\":86:118  address public dono = msg.sender */\n    tag_4:\n      callvalue\n      dup1\n      iszero\n      tag_12\n      jumpi\n      revert(0x00, 0x00)\n    tag_12:\n      pop\n      tag_13\n      tag_14\n      jump\t// in\n    tag_13:\n      mload(0x40)\n      tag_15\n      swap2\n      swap1\n      tag_16\n      jump\t// in\n    tag_15:\n      mload(0x40)\n      dup1\n      swap2\n      sub\n      swap1\n      return\n        /* \"Introdu\\xc3\\xa7\\xc3\\xa3o ao Solidity/Solidity 0.8/O esquema de obelisco..sol\":168:916  function viraDono() public payable {... */\n    tag_6:\n        /* \"Introdu\\xc3\\xa7\\xc3\\xa3o ao Solidity/Solidity 0.8/O esquema de obelisco..sol\":235:245  valorAtual */\n      sload(0x01)\n        /* \"Introdu\\xc3\\xa7\\xc3\\xa3o ao Solidity/Solidity 0.8/O esquema de obelisco..sol\":222:231  msg.value */\n      callvalue\n        /* \"Introdu\\xc3\\xa7\\xc3\\xa3o ao Solidity/Solidity 0.8/O esquema de obelisco..sol\":222:245  msg.value >= valorAtual */\n      lt\n      iszero\n        /* \"Introdu\\xc3\\xa7\\xc3\\xa3o ao Solidity/Solidity 0.8/O esquema de obelisco..sol\":214:268  require(msg.value >= valorAtual, \"Valor insuficiente\") */\n      tag_18\n      jumpi\n      mload(0x40)\n      0x08c379a000000000000000000000000000000000000000000000000000000000\n      dup2\n      mstore\n      0x04\n      add\n      tag_19\n      swap1\n      tag_20\n      jump\t// in\n    tag_19:\n      mload(0x40)\n      dup1\n      swap2\n      sub\n      swap1\n      revert\n    tag_18:\n        /* \"Introdu\\xc3\\xa7\\xc3\\xa3o ao Solidity/Solidity 0.8/O esquema de obelisco..sol\":279:289  uint troco */\n      0x00\n        /* \"Introdu\\xc3\\xa7\\xc3\\xa3o ao Solidity/Solidity 0.8/O esquema de obelisco..sol\":304:314  valorAtual */\n      sload(0x01)\n        /* \"Introdu\\xc3\\xa7\\xc3\\xa3o ao Solidity/Solidity 0.8/O esquema de obelisco..sol\":292:301  msg.value */\n      callvalue\n        /* \"Introdu\\xc3\\xa7\\xc3\\xa3o ao Solidity/Solidity 0.8/O esquema de obelisco..sol\":292:314  msg.value - valorAtual */\n      tag_21\n      swap2\n      swap1\n      tag_22\n      jump\t// in\n    tag_21:\n        /* \"Introdu\\xc3\\xa7\\xc3\\xa3o ao Solidity/Solidity 0.8/O esquema de obelisco..sol\":279:314  uint troco = msg.value - valorAtual */\n      swap1\n      pop\n        /* \"Introdu\\xc3\\xa7\\xc3\\xa3o ao Solidity/Solidity 0.8/O esquema de obelisco..sol\":382:391  bool sent */\n      0x00\n        /* \"Introdu\\xc3\\xa7\\xc3\\xa3o ao Solidity/Solidity 0.8/O esquema de obelisco..sol\":405:409  dono */\n      0x00\n      0x00\n      swap1\n      sload\n      swap1\n      0x0100\n      exp\n      swap1\n      div\n      0xffffffffffffffffffffffffffffffffffffffff\n      and\n        /* \"Introdu\\xc3\\xa7\\xc3\\xa3o ao Solidity/Solidity 0.8/O esquema de obelisco..sol\":397:415  payable(dono).call */\n      0xffffffffffffffffffffffffffffffffffffffff\n      and\n        /* \"Introdu\\xc3\\xa7\\xc3\\xa3o ao Solidity/Solidity 0.8/O esquema de obelisco..sol\":423:433  valorAtual */\n      sload(0x01)\n        /* \"Introdu\\xc3\\xa7\\xc3\\xa3o ao Solidity/Solidity 0.8/O esquema de obelisco..sol\":397:438  payable(dono).call{value: valorAtual}(\"\") */\n      mload(0x40)\n      tag_23\n      swap1\n      tag_24\n      jump\t// in\n    tag_23:\n      0x00\n      mload(0x40)\n      dup1\n      dup4\n      sub\n      dup2\n      dup6\n      dup8\n      gas\n      call\n      swap3\n      pop\n      pop\n      pop\n      returndatasize\n      dup1\n      0x00\n      dup2\n      eq\n      tag_27\n      jumpi\n      mload(0x40)\n      swap2\n      pop\n      and(add(returndatasize, 0x3f), not(0x1f))\n      dup3\n      add\n      0x40\n      mstore\n      returndatasize\n      dup3\n      mstore\n      returndatasize\n      0x00\n      0x20\n      dup5\n      add\n      returndatacopy\n      jump(tag_26)\n    tag_27:\n      0x60\n      swap2\n      pop\n    tag_26:\n      pop\n        /* \"Introdu\\xc3\\xa7\\xc3\\xa3o ao Solidity/Solidity 0.8/O esquema de obelisco..sol\":381:438  (bool sent, ) = payable(dono).call{value: valorAtual}(\"\") */\n      pop\n      swap1\n      pop\n        /* \"Introdu\\xc3\\xa7\\xc3\\xa3o ao Solidity/Solidity 0.8/O esquema de obelisco..sol\":453:457  sent */\n      dup1\n        /* \"Introdu\\xc3\\xa7\\xc3\\xa3o ao Solidity/Solidity 0.8/O esquema de obelisco..sol\":449:505  if(!sent) revert(\"Falha ao enviar para o dono anterior\") */\n      tag_28\n      jumpi\n        /* \"Introdu\\xc3\\xa7\\xc3\\xa3o ao Solidity/Solidity 0.8/O esquema de obelisco..sol\":459:505  revert(\"Falha ao enviar para o dono anterior\") */\n      mload(0x40)\n      0x08c379a000000000000000000000000000000000000000000000000000000000\n      dup2\n      mstore\n      0x04\n      add\n      tag_29\n      swap1\n      tag_30\n      jump\t// in\n    tag_29:\n      mload(0x40)\n      dup1\n      swap2\n      sub\n      swap1\n      revert\n        /* \"Introdu\\xc3\\xa7\\xc3\\xa3o ao Solidity/Solidity 0.8/O esquema de obelisco..sol\":449:505  if(!sent) revert(\"Falha ao enviar para o dono anterior\") */\n    tag_28:\n        /* \"Introdu\\xc3\\xa7\\xc3\\xa3o ao Solidity/Solidity 0.8/O esquema de obelisco..sol\":568:569  0 */\n      0x00\n        /* \"Introdu\\xc3\\xa7\\xc3\\xa3o ao Solidity/Solidity 0.8/O esquema de obelisco..sol\":560:565  troco */\n      dup3\n        /* \"Introdu\\xc3\\xa7\\xc3\\xa3o ao Solidity/Solidity 0.8/O esquema de obelisco..sol\":560:569  troco > 0 */\n      gt\n        /* \"Introdu\\xc3\\xa7\\xc3\\xa3o ao Solidity/Solidity 0.8/O esquema de obelisco..sol\":557:724  if(troco > 0){... */\n      iszero\n      tag_31\n      jumpi\n        /* \"Introdu\\xc3\\xa7\\xc3\\xa3o ao Solidity/Solidity 0.8/O esquema de obelisco..sol\":586:600  bool sentTroco */\n      0x00\n        /* \"Introdu\\xc3\\xa7\\xc3\\xa3o ao Solidity/Solidity 0.8/O esquema de obelisco..sol\":614:624  msg.sender */\n      caller\n        /* \"Introdu\\xc3\\xa7\\xc3\\xa3o ao Solidity/Solidity 0.8/O esquema de obelisco..sol\":606:630  payable(msg.sender).call */\n      0xffffffffffffffffffffffffffffffffffffffff\n      and\n        /* \"Introdu\\xc3\\xa7\\xc3\\xa3o ao Solidity/Solidity 0.8/O esquema de obelisco..sol\":638:643  troco */\n      dup4\n        /* \"Introdu\\xc3\\xa7\\xc3\\xa3o ao Solidity/Solidity 0.8/O esquema de obelisco..sol\":606:648  payable(msg.sender).call{value: troco}(\"\") */\n      mload(0x40)\n      tag_32\n      swap1\n      tag_24\n      jump\t// in\n    tag_32:\n      0x00\n      mload(0x40)\n      dup1\n      dup4\n      sub\n      dup2\n      dup6\n      dup8\n      gas\n      call\n      swap3\n      pop\n      pop\n      pop\n      returndatasize\n      dup1\n      0x00\n      dup2\n      eq\n      tag_35\n      jumpi\n      mload(0x40)\n      swap2\n      pop\n      and(add(returndatasize, 0x3f), not(0x1f))\n      dup3\n      add\n      0x40\n      mstore\n      returndatasize\n      dup3\n      mstore\n      returndatasize\n      0x00\n      0x20\n      dup5\n      add\n      returndatacopy\n      jump(tag_34)\n    tag_35:\n      0x60\n      swap2\n      pop\n    tag_34:\n      pop\n        /* \"Introdu\\xc3\\xa7\\xc3\\xa3o ao Solidity/Solidity 0.8/O esquema de obelisco..sol\":585:648  (bool sentTroco, ) = payable(msg.sender).call{value: troco}(\"\") */\n      pop\n      swap1\n      pop\n        /* \"Introdu\\xc3\\xa7\\xc3\\xa3o ao Solidity/Solidity 0.8/O esquema de obelisco..sol\":668:677  sentTroco */\n      dup1\n        /* \"Introdu\\xc3\\xa7\\xc3\\xa3o ao Solidity/Solidity 0.8/O esquema de obelisco..sol\":663:712  if (!sentTroco) revert(\"Falha ao devolver troco\") */\n      tag_36\n      jumpi\n        /* \"Introdu\\xc3\\xa7\\xc3\\xa3o ao Solidity/Solidity 0.8/O esquema de obelisco..sol\":679:712  revert(\"Falha ao devolver troco\") */\n      mload(0x40)\n      0x08c379a000000000000000000000000000000000000000000000000000000000\n      dup2\n      mstore\n      0x04\n      add\n      tag_37\n      swap1\n      tag_38\n      jump\t// in\n    tag_37:\n      mload(0x40)\n      dup1\n      swap2\n      sub\n      swap1\n      revert\n        /* \"Introdu\\xc3\\xa7\\xc3\\xa3o ao Solidity/Solidity 0.8/O esquema de obelisco..sol\":663:712  if (!sentTroco) revert(\"Falha ao devolver troco\") */\n    tag_36:\n        /* \"Introdu\\xc3\\xa7\\xc3\\xa3o ao Solidity/Solidity 0.8/O esquema de obelisco..sol\":570:724  {... */\n      pop\n        /* \"Introdu\\xc3\\xa7\\xc3\\xa3o ao Solidity/Solidity 0.8/O esquema de obelisco..sol\":557:724  if(troco > 0){... */\n    tag_31:\n        /* \"Introdu\\xc3\\xa7\\xc3\\xa3o ao Solidity/Solidity 0.8/O esquema de obelisco..sol\":816:825  0.1 ether */\n      0x016345785d8a0000\n        /* \"Introdu\\xc3\\xa7\\xc3\\xa3o ao Solidity/Solidity 0.8/O esquema de obelisco..sol\":803:813  valorAtual */\n      sload(0x01)\n        /* \"Introdu\\xc3\\xa7\\xc3\\xa3o ao Solidity/Solidity 0.8/O esquema de obelisco..sol\":803:825  valorAtual + 0.1 ether */\n      tag_39\n      swap2\n      swap1\n      tag_40\n      jump\t// in\n    tag_39:\n        /* \"Introdu\\xc3\\xa7\\xc3\\xa3o ao Solidity/Solidity 0.8/O esquema de obelisco..sol\":790:800  valorAtual */\n      0x01\n        /* \"Introdu\\xc3\\xa7\\xc3\\xa3o ao Solidity/Solidity 0.8/O esquema de obelisco..sol\":790:825  valorAtual = valorAtual + 0.1 ether */\n      dup2\n      swap1\n      sstore\n      pop\n        /* \"Introdu\\xc3\\xa7\\xc3\\xa3o ao Solidity/Solidity 0.8/O esquema de obelisco..sol\":898:908  msg.sender */\n      caller\n        /* \"Introdu\\xc3\\xa7\\xc3\\xa3o ao Solidity/Solidity 0.8/O esquema de obelisco..sol\":891:895  dono */\n      0x00\n      0x00\n        /* \"Introdu\\xc3\\xa7\\xc3\\xa3o ao Solidity/Solidity 0.8/O esquema de obelisco..sol\":891:908  dono = msg.sender */\n      0x0100\n      exp\n      dup2\n      sload\n      dup2\n      0xffffffffffffffffffffffffffffffffffffffff\n      mul\n      not\n      and\n      swap1\n      dup4\n      0xffffffffffffffffffffffffffffffffffffffff\n      and\n      mul\n      or\n      swap1\n      sstore\n      pop\n        /* \"Introdu\\xc3\\xa7\\xc3\\xa3o ao Solidity/Solidity 0.8/O esquema de obelisco..sol\":203:916  {... */\n      pop\n      pop\n        /* \"Introdu\\xc3\\xa7\\xc3\\xa3o ao Solidity/Solidity 0.8/O esquema de obelisco..sol\":168:916  function viraDono() public payable {... */\n      jump\t// out\n        /* \"Introdu\\xc3\\xa7\\xc3\\xa3o ao Solidity/Solidity 0.8/O esquema de obelisco..sol\":125:159  uint public valorAtual = 0.1 ether */\n    tag_9:\n      sload(0x01)\n      dup2\n      jump\t// out\n        /* \"Introdu\\xc3\\xa7\\xc3\\xa3o ao Solidity/Solidity 0.8/O esquema de obelisco..sol\":86:118  address public dono = msg.sender */\n    tag_14:\n      0x00\n      0x00\n      swap1\n      sload\n      swap1\n      0x0100\n      exp\n      swap1\n      div\n      0xffffffffffffffffffffffffffffffffffffffff\n      and\n      dup2\n      jump\t// out\n        /* \"#utility.yul\":7:84   */\n    tag_41:\n        /* \"#utility.yul\":44:51   */\n      0x00\n        /* \"#utility.yul\":73:78   */\n      dup2\n        /* \"#utility.yul\":62:78   */\n      swap1\n      pop\n        /* \"#utility.yul\":7:84   */\n      swap2\n      swap1\n      pop\n      jump\t// out\n        /* \"#utility.yul\":90:208   */\n    tag_42:\n        /* \"#utility.yul\":177:201   */\n      tag_60\n        /* \"#utility.yul\":195:200   */\n      dup2\n        /* \"#utility.yul\":177:201   */\n      tag_41\n      jump\t// in\n    tag_60:\n        /* \"#utility.yul\":172:175   */\n      dup3\n        /* \"#utility.yul\":165:202   */\n      mstore\n        /* \"#utility.yul\":90:208   */\n      pop\n      pop\n      jump\t// out\n        /* \"#utility.yul\":214:436   */\n    tag_11:\n        /* \"#utility.yul\":307:311   */\n      0x00\n        /* \"#utility.yul\":345:347   */\n      0x20\n        /* \"#utility.yul\":334:343   */\n      dup3\n        /* \"#utility.yul\":330:348   */\n      add\n        /* \"#utility.yul\":322:348   */\n      swap1\n      pop\n        /* \"#utility.yul\":358:429   */\n      tag_62\n        /* \"#utility.yul\":426:427   */\n      0x00\n        /* \"#utility.yul\":415:424   */\n      dup4\n        /* \"#utility.yul\":411:428   */\n      add\n        /* \"#utility.yul\":402:408   */\n      dup5\n        /* \"#utility.yul\":358:429   */\n      tag_42\n      jump\t// in\n    tag_62:\n        /* \"#utility.yul\":214:436   */\n      swap3\n      swap2\n      pop\n      pop\n      jump\t// out\n        /* \"#utility.yul\":442:568   */\n    tag_43:\n        /* \"#utility.yul\":479:486   */\n      0x00\n        /* \"#utility.yul\":519:561   */\n      0xffffffffffffffffffffffffffffffffffffffff\n        /* \"#utility.yul\":512:517   */\n      dup3\n        /* \"#utility.yul\":508:562   */\n      and\n        /* \"#utility.yul\":497:562   */\n      swap1\n      pop\n        /* \"#utility.yul\":442:568   */\n      swap2\n      swap1\n      pop\n      jump\t// out\n        /* \"#utility.yul\":574:670   */\n    tag_44:\n        /* \"#utility.yul\":611:618   */\n      0x00\n        /* \"#utility.yul\":640:664   */\n      tag_65\n        /* \"#utility.yul\":658:663   */\n      dup3\n        /* \"#utility.yul\":640:664   */\n      tag_43\n      jump\t// in\n    tag_65:\n        /* \"#utility.yul\":629:664   */\n      swap1\n      pop\n        /* \"#utility.yul\":574:670   */\n      swap2\n      swap1\n      pop\n      jump\t// out\n        /* \"#utility.yul\":676:794   */\n    tag_45:\n        /* \"#utility.yul\":763:787   */\n      tag_67\n        /* \"#utility.yul\":781:786   */\n      dup2\n        /* \"#utility.yul\":763:787   */\n      tag_44\n      jump\t// in\n    tag_67:\n        /* \"#utility.yul\":758:761   */\n      dup3\n        /* \"#utility.yul\":751:788   */\n      mstore\n        /* \"#utility.yul\":676:794   */\n      pop\n      pop\n      jump\t// out\n        /* \"#utility.yul\":800:1022   */\n    tag_16:\n        /* \"#utility.yul\":893:897   */\n      0x00\n        /* \"#utility.yul\":931:933   */\n      0x20\n        /* \"#utility.yul\":920:929   */\n      dup3\n        /* \"#utility.yul\":916:934   */\n      add\n        /* \"#utility.yul\":908:934   */\n      swap1\n      pop\n        /* \"#utility.yul\":944:1015   */\n      tag_69\n        /* \"#utility.yul\":1012:1013   */\n      0x00\n        /* \"#utility.yul\":1001:1010   */\n      dup4\n        /* \"#utility.yul\":997:1014   */\n      add\n        /* \"#utility.yul\":988:994   */\n      dup5\n        /* \"#utility.yul\":944:1015   */\n      tag_45\n      jump\t// in\n    tag_69:\n        /* \"#utility.yul\":800:1022   */\n      swap3\n      swap2\n      pop\n      pop\n      jump\t// out\n        /* \"#utility.yul\":1028:1197   */\n    tag_46:\n        /* \"#utility.yul\":1112:1123   */\n      0x00\n        /* \"#utility.yul\":1146:1152   */\n      dup3\n        /* \"#utility.yul\":1141:1144   */\n      dup3\n        /* \"#utility.yul\":1134:1153   */\n      mstore\n        /* \"#utility.yul\":1186:1190   */\n      0x20\n        /* \"#utility.yul\":1181:1184   */\n      dup3\n        /* \"#utility.yul\":1177:1191   */\n      add\n        /* \"#utility.yul\":1162:1191   */\n      swap1\n      pop\n        /* \"#utility.yul\":1028:1197   */\n      swap3\n      swap2\n      pop\n      pop\n      jump\t// out\n        /* \"#utility.yul\":1203:1371   */\n    tag_47:\n        /* \"#utility.yul\":1343:1363   */\n      0x56616c6f7220696e737566696369656e74650000000000000000000000000000\n        /* \"#utility.yul\":1339:1340   */\n      0x00\n        /* \"#utility.yul\":1331:1337   */\n      dup3\n        /* \"#utility.yul\":1327:1341   */\n      add\n        /* \"#utility.yul\":1320:1364   */\n      mstore\n        /* \"#utility.yul\":1203:1371   */\n      pop\n      jump\t// out\n        /* \"#utility.yul\":1377:1743   */\n    tag_48:\n        /* \"#utility.yul\":1519:1522   */\n      0x00\n        /* \"#utility.yul\":1540:1607   */\n      tag_73\n        /* \"#utility.yul\":1604:1606   */\n      0x12\n        /* \"#utility.yul\":1599:1602   */\n      dup4\n        /* \"#utility.yul\":1540:1607   */\n      tag_46\n      jump\t// in\n    tag_73:\n        /* \"#utility.yul\":1533:1607   */\n      swap2\n      pop\n        /* \"#utility.yul\":1616:1709   */\n      tag_74\n        /* \"#utility.yul\":1705:1708   */\n      dup3\n        /* \"#utility.yul\":1616:1709   */\n      tag_47\n      jump\t// in\n    tag_74:\n        /* \"#utility.yul\":1734:1736   */\n      0x20\n        /* \"#utility.yul\":1729:1732   */\n      dup3\n        /* \"#utility.yul\":1725:1737   */\n      add\n        /* \"#utility.yul\":1718:1737   */\n      swap1\n      pop\n        /* \"#utility.yul\":1377:1743   */\n      swap2\n      swap1\n      pop\n      jump\t// out\n        /* \"#utility.yul\":1749:2168   */\n    tag_20:\n        /* \"#utility.yul\":1915:1919   */\n      0x00\n        /* \"#utility.yul\":1953:1955   */\n      0x20\n        /* \"#utility.yul\":1942:1951   */\n      dup3\n        /* \"#utility.yul\":1938:1956   */\n      add\n        /* \"#utility.yul\":1930:1956   */\n      swap1\n      pop\n        /* \"#utility.yul\":2002:2011   */\n      dup2\n        /* \"#utility.yul\":1996:2000   */\n      dup2\n        /* \"#utility.yul\":1992:2012   */\n      sub\n        /* \"#utility.yul\":1988:1989   */\n      0x00\n        /* \"#utility.yul\":1977:1986   */\n      dup4\n        /* \"#utility.yul\":1973:1990   */\n      add\n        /* \"#utility.yul\":1966:2013   */\n      mstore\n        /* \"#utility.yul\":2030:2161   */\n      tag_76\n        /* \"#utility.yul\":2156:2160   */\n      dup2\n        /* \"#utility.yul\":2030:2161   */\n      tag_48\n      jump\t// in\n    tag_76:\n        /* \"#utility.yul\":2022:2161   */\n      swap1\n      pop\n        /* \"#utility.yul\":1749:2168   */\n      swap2\n      swap1\n      pop\n      jump\t// out\n        /* \"#utility.yul\":2174:2354   */\n    tag_49:\n        /* \"#utility.yul\":2222:2299   */\n      0x4e487b7100000000000000000000000000000000000000000000000000000000\n        /* \"#utility.yul\":2219:2220   */\n      0x00\n        /* \"#utility.yul\":2212:2300   */\n      mstore\n        /* \"#utility.yul\":2319:2323   */\n      0x11\n        /* \"#utility.yul\":2316:2317   */\n      0x04\n        /* \"#utility.yul\":2309:2324   */\n      mstore\n        /* \"#utility.yul\":2343:2347   */\n      0x24\n        /* \"#utility.yul\":2340:2341   */\n      0x00\n        /* \"#utility.yul\":2333:2348   */\n      revert\n        /* \"#utility.yul\":2360:2554   */\n    tag_22:\n        /* \"#utility.yul\":2400:2404   */\n      0x00\n        /* \"#utility.yul\":2420:2440   */\n      tag_79\n        /* \"#utility.yul\":2438:2439   */\n      dup3\n        /* \"#utility.yul\":2420:2440   */\n      tag_41\n      jump\t// in\n    tag_79:\n        /* \"#utility.yul\":2415:2440   */\n      swap2\n      pop\n        /* \"#utility.yul\":2454:2474   */\n      tag_80\n        /* \"#utility.yul\":2472:2473   */\n      dup4\n        /* \"#utility.yul\":2454:2474   */\n      tag_41\n      jump\t// in\n    tag_80:\n        /* \"#utility.yul\":2449:2474   */\n      swap3\n      pop\n        /* \"#utility.yul\":2498:2499   */\n      dup3\n        /* \"#utility.yul\":2495:2496   */\n      dup3\n        /* \"#utility.yul\":2491:2500   */\n      sub\n        /* \"#utility.yul\":2483:2500   */\n      swap1\n      pop\n        /* \"#utility.yul\":2522:2523   */\n      dup2\n        /* \"#utility.yul\":2516:2520   */\n      dup2\n        /* \"#utility.yul\":2513:2524   */\n      gt\n        /* \"#utility.yul\":2510:2547   */\n      iszero\n      tag_81\n      jumpi\n        /* \"#utility.yul\":2527:2545   */\n      tag_82\n      tag_49\n      jump\t// in\n    tag_82:\n        /* \"#utility.yul\":2510:2547   */\n    tag_81:\n        /* \"#utility.yul\":2360:2554   */\n      swap3\n      swap2\n      pop\n      pop\n      jump\t// out\n        /* \"#utility.yul\":2560:2707   */\n    tag_50:\n        /* \"#utility.yul\":2661:2672   */\n      0x00\n        /* \"#utility.yul\":2698:2701   */\n      dup2\n        /* \"#utility.yul\":2683:2701   */\n      swap1\n      pop\n        /* \"#utility.yul\":2560:2707   */\n      swap3\n      swap2\n      pop\n      pop\n      jump\t// out\n        /* \"#utility.yul\":2713:2827   */\n    tag_51:\n      pop\n      jump\t// out\n        /* \"#utility.yul\":2833:3231   */\n    tag_52:\n        /* \"#utility.yul\":2992:2995   */\n      0x00\n        /* \"#utility.yul\":3013:3096   */\n      tag_86\n        /* \"#utility.yul\":3094:3095   */\n      0x00\n        /* \"#utility.yul\":3089:3092   */\n      dup4\n        /* \"#utility.yul\":3013:3096   */\n      tag_50\n      jump\t// in\n    tag_86:\n        /* \"#utility.yul\":3006:3096   */\n      swap2\n      pop\n        /* \"#utility.yul\":3105:3198   */\n      tag_87\n        /* \"#utility.yul\":3194:3197   */\n      dup3\n        /* \"#utility.yul\":3105:3198   */\n      tag_51\n      jump\t// in\n    tag_87:\n        /* \"#utility.yul\":3223:3224   */\n      0x00\n        /* \"#utility.yul\":3218:3221   */\n      dup3\n        /* \"#utility.yul\":3214:3225   */\n      add\n        /* \"#utility.yul\":3207:3225   */\n      swap1\n      pop\n        /* \"#utility.yul\":2833:3231   */\n      swap2\n      swap1\n      pop\n      jump\t// out\n        /* \"#utility.yul\":3237:3616   */\n    tag_24:\n        /* \"#utility.yul\":3421:3424   */\n      0x00\n        /* \"#utility.yul\":3443:3590   */\n      tag_89\n        /* \"#utility.yul\":3586:3589   */\n      dup3\n        /* \"#utility.yul\":3443:3590   */\n      tag_52\n      jump\t// in\n    tag_89:\n        /* \"#utility.yul\":3436:3590   */\n      swap2\n      pop\n        /* \"#utility.yul\":3607:3610   */\n      dup2\n        /* \"#utility.yul\":3600:3610   */\n      swap1\n      pop\n        /* \"#utility.yul\":3237:3616   */\n      swap2\n      swap1\n      pop\n      jump\t// out\n        /* \"#utility.yul\":3622:3845   */\n    tag_53:\n        /* \"#utility.yul\":3762:3796   */\n      0x46616c686120616f20656e766961722070617261206f20646f6e6f20616e7465\n        /* \"#utility.yul\":3758:3759   */\n      0x00\n        /* \"#utility.yul\":3750:3756   */\n      dup3\n        /* \"#utility.yul\":3746:3760   */\n      add\n        /* \"#utility.yul\":3739:3797   */\n      mstore\n        /* \"#utility.yul\":3831:3837   */\n      0x72696f7200000000000000000000000000000000000000000000000000000000\n        /* \"#utility.yul\":3826:3828   */\n      0x20\n        /* \"#utility.yul\":3818:3824   */\n      dup3\n        /* \"#utility.yul\":3814:3829   */\n      add\n        /* \"#utility.yul\":3807:3838   */\n      mstore\n        /* \"#utility.yul\":3622:3845   */\n      pop\n      jump\t// out\n        /* \"#utility.yul\":3851:4217   */\n    tag_54:\n        /* \"#utility.yul\":3993:3996   */\n      0x00\n        /* \"#utility.yul\":4014:4081   */\n      tag_92\n        /* \"#utility.yul\":4078:4080   */\n      0x24\n        /* \"#utility.yul\":4073:4076   */\n      dup4\n        /* \"#utility.yul\":4014:4081   */\n      tag_46\n      jump\t// in\n    tag_92:\n        /* \"#utility.yul\":4007:4081   */\n      swap2\n      pop\n        /* \"#utility.yul\":4090:4183   */\n      tag_93\n        /* \"#utility.yul\":4179:4182   */\n      dup3\n        /* \"#utility.yul\":4090:4183   */\n      tag_53\n      jump\t// in\n    tag_93:\n        /* \"#utility.yul\":4208:4210   */\n      0x40\n        /* \"#utility.yul\":4203:4206   */\n      dup3\n        /* \"#utility.yul\":4199:4211   */\n      add\n        /* \"#utility.yul\":4192:4211   */\n      swap1\n      pop\n        /* \"#utility.yul\":3851:4217   */\n      swap2\n      swap1\n      pop\n      jump\t// out\n        /* \"#utility.yul\":4223:4642   */\n    tag_30:\n        /* \"#utility.yul\":4389:4393   */\n      0x00\n        /* \"#utility.yul\":4427:4429   */\n      0x20\n        /* \"#utility.yul\":4416:4425   */\n      dup3\n        /* \"#utility.yul\":4412:4430   */\n      add\n        /* \"#utility.yul\":4404:4430   */\n      swap1\n      pop\n        /* \"#utility.yul\":4476:4485   */\n      dup2\n        /* \"#utility.yul\":4470:4474   */\n      dup2\n        /* \"#utility.yul\":4466:4486   */\n      sub\n        /* \"#utility.yul\":4462:4463   */\n      0x00\n        /* \"#utility.yul\":4451:4460   */\n      dup4\n        /* \"#utility.yul\":4447:4464   */\n      add\n        /* \"#utility.yul\":4440:4487   */\n      mstore\n        /* \"#utility.yul\":4504:4635   */\n      tag_95\n        /* \"#utility.yul\":4630:4634   */\n      dup2\n        /* \"#utility.yul\":4504:4635   */\n      tag_54\n      jump\t// in\n    tag_95:\n        /* \"#utility.yul\":4496:4635   */\n      swap1\n      pop\n        /* \"#utility.yul\":4223:4642   */\n      swap2\n      swap1\n      pop\n      jump\t// out\n        /* \"#utility.yul\":4648:4821   */\n    tag_55:\n        /* \"#utility.yul\":4788:4813   */\n      0x46616c686120616f206465766f6c7665722074726f636f000000000000000000\n        /* \"#utility.yul\":4784:4785   */\n      0x00\n        /* \"#utility.yul\":4776:4782   */\n      dup3\n        /* \"#utility.yul\":4772:4786   */\n      add\n        /* \"#utility.yul\":4765:4814   */\n      mstore\n        /* \"#utility.yul\":4648:4821   */\n      pop\n      jump\t// out\n        /* \"#utility.yul\":4827:5193   */\n    tag_56:\n        /* \"#utility.yul\":4969:4972   */\n      0x00\n        /* \"#utility.yul\":4990:5057   */\n      tag_98\n        /* \"#utility.yul\":5054:5056   */\n      0x17\n        /* \"#utility.yul\":5049:5052   */\n      dup4\n        /* \"#utility.yul\":4990:5057   */\n      tag_46\n      jump\t// in\n    tag_98:\n        /* \"#utility.yul\":4983:5057   */\n      swap2\n      pop\n        /* \"#utility.yul\":5066:5159   */\n      tag_99\n        /* \"#utility.yul\":5155:5158   */\n      dup3\n        /* \"#utility.yul\":5066:5159   */\n      tag_55\n      jump\t// in\n    tag_99:\n        /* \"#utility.yul\":5184:5186   */\n      0x20\n        /* \"#utility.yul\":5179:5182   */\n      dup3\n        /* \"#utility.yul\":5175:5187   */\n      add\n        /* \"#utility.yul\":5168:5187   */\n      swap1\n      pop\n        /* \"#utility.yul\":4827:5193   */\n      swap2\n      swap1\n      pop\n      jump\t// out\n        /* \"#utility.yul\":5199:5618   */\n    tag_38:\n        /* \"#utility.yul\":5365:5369   */\n      0x00\n        /* \"#utility.yul\":5403:5405   */\n      0x20\n        /* \"#utility.yul\":5392:5401   */\n      dup3\n        /* \"#utility.yul\":5388:5406   */\n      add\n        /* \"#utility.yul\":5380:5406   */\n      swap1\n      pop\n        /* \"#utility.yul\":5452:5461   */\n      dup2\n        /* \"#utility.yul\":5446:5450   */\n      dup2\n        /* \"#utility.yul\":5442:5462   */\n      sub\n        /* \"#utility.yul\":5438:5439   */\n      0x00\n        /* \"#utility.yul\":5427:5436   */\n      dup4\n        /* \"#utility.yul\":5423:5440   */\n      add\n        /* \"#utility.yul\":5416:5463   */\n      mstore\n        /* \"#utility.yul\":5480:5611   */\n      tag_101\n        /* \"#utility.yul\":5606:5610   */\n      dup2\n        /* \"#utility.yul\":5480:5611   */\n      tag_56\n      jump\t// in\n    tag_101:\n        /* \"#utility.yul\":5472:5611   */\n      swap1\n      pop\n        /* \"#utility.yul\":5199:5618   */\n      swap2\n      swap1\n      pop\n      jump\t// out\n        /* \"#utility.yul\":5624:5815   */\n    tag_40:\n        /* \"#utility.yul\":5664:5667   */\n      0x00\n        /* \"#utility.yul\":5683:5703   */\n      tag_103\n        /* \"#utility.yul\":5701:5702   */\n      dup3\n        /* \"#utility.yul\":5683:5703   */\n      tag_41\n      jump\t// in\n    tag_103:\n        /* \"#utility.yul\":5678:5703   */\n      swap2\n      pop\n        /* \"#utility.yul\":5717:5737   */\n      tag_104\n        /* \"#utility.yul\":5735:5736   */\n      dup4\n        /* \"#utility.yul\":5717:5737   */\n      tag_41\n      jump\t// in\n    tag_104:\n        /* \"#utility.yul\":5712:5737   */\n      swap3\n      pop\n        /* \"#utility.yul\":5760:5761   */\n      dup3\n        /* \"#utility.yul\":5757:5758   */\n      dup3\n        /* \"#utility.yul\":5753:5762   */\n      add\n        /* \"#utility.yul\":5746:5762   */\n      swap1\n      pop\n        /* \"#utility.yul\":5781:5784   */\n      dup1\n        /* \"#utility.yul\":5778:5779   */\n      dup3\n        /* \"#utility.yul\":5775:5785   */\n      gt\n        /* \"#utility.yul\":5772:5808   */\n      iszero\n      tag_105\n      jumpi\n        /* \"#utility.yul\":5788:5806   */\n      tag_106\n      tag_49\n      jump\t// in\n    tag_106:\n        /* \"#utility.yul\":5772:5808   */\n    tag_105:\n        /* \"#utility.yul\":5624:5815   */\n      swap3\n      swap2\n      pop\n      pop\n      jump\t// out\n\n    auxdata: 0xa26469706673582212208a5c980ee68ec746d8c310a9c6544b82d3186c7ef5443cb29b99f8c0a3414c5264736f6c634300081e0033\n}\n",
				"bytecode": {
					"linkReferences": {},
					"object": "6080604052335f5f6101000a81548173ffffffffffffffffffffffffffffffffffffffff021916908373ffffffffffffffffffffffffffffffffffffffff16021790555067016345785d8a00006001553480156059575f5ffd5b506105f1806100675f395ff3fe608060405260043610610033575f3560e01c80630db1da0d14610037578063292c8b7e1461004157806370514bea1461006b575b5f5ffd5b61003f610095565b005b34801561004c575f5ffd5b506100556102c6565b6040516100629190610308565b60405180910390f35b348015610076575f5ffd5b5061007f6102cc565b60405161008c9190610360565b60405180910390f35b6001543410156100da576040517f08c379a00000000000000000000000000000000000000000000000000000000081526004016100d1906103d3565b60405180910390fd5b5f600154346100e9919061041e565b90505f5f5f9054906101000a900473ffffffffffffffffffffffffffffffffffffffff1673ffffffffffffffffffffffffffffffffffffffff166001546040516101329061047e565b5f6040518083038185875af1925050503d805f811461016c576040519150601f19603f3d011682016040523d82523d5f602084013e610171565b606091505b50509050806101b5576040517f08c379a00000000000000000000000000000000000000000000000000000000081526004016101ac90610502565b60405180910390fd5b5f821115610267575f3373ffffffffffffffffffffffffffffffffffffffff16836040516101e29061047e565b5f6040518083038185875af1925050503d805f811461021c576040519150601f19603f3d011682016040523d82523d5f602084013e610221565b606091505b5050905080610265576040517f08c379a000000000000000000000000000000000000000000000000000000000815260040161025c9061056a565b60405180910390fd5b505b67016345785d8a000060015461027d9190610588565b600181905550335f5f6101000a81548173ffffffffffffffffffffffffffffffffffffffff021916908373ffffffffffffffffffffffffffffffffffffffff1602179055505050565b60015481565b5f5f9054906101000a900473ffffffffffffffffffffffffffffffffffffffff1681565b5f819050919050565b610302816102f0565b82525050565b5f60208201905061031b5f8301846102f9565b92915050565b5f73ffffffffffffffffffffffffffffffffffffffff82169050919050565b5f61034a82610321565b9050919050565b61035a81610340565b82525050565b5f6020820190506103735f830184610351565b92915050565b5f82825260208201905092915050565b7f56616c6f7220696e737566696369656e746500000000000000000000000000005f82015250565b5f6103bd601283610379565b91506103c882610389565b602082019050919050565b5f6020820190508181035f8301526103ea816103b1565b9050919050565b7f4e487b71000000000000000000000000000000000000000000000000000000005f52601160045260245ffd5b5f610428826102f0565b9150610433836102f0565b925082820390508181111561044b5761044a6103f1565b5b92915050565b5f81905092915050565b50565b5f6104695f83610451565b91506104748261045b565b5f82019050919050565b5f6104888261045e565b9150819050919050565b7f46616c686120616f20656e766961722070617261206f20646f6e6f20616e74655f8201527f72696f7200000000000000000000000000000000000000000000000000000000602082015250565b5f6104ec602483610379565b91506104f782610492565b604082019050919050565b5f6020820190508181035f830152610519816104e0565b9050919050565b7f46616c686120616f206465766f6c7665722074726f636f0000000000000000005f82015250565b5f610554601783610379565b915061055f82610520565b602082019050919050565b5f6020820190508181035f83015261058181610548565b9050919050565b5f610592826102f0565b915061059d836102f0565b92508282019050808211156105b5576105b46103f1565b5b9291505056fea26469706673582212208a5c980ee68ec746d8c310a9c6544b82d3186c7ef5443cb29b99f8c0a3414c5264736f6c634300081e0033",
					"opcodes": "PUSH1 0x80 PUSH1 0x40 MSTORE CALLER PUSH0 PUSH0 PUSH2 0x100 EXP DUP2 SLOAD DUP2 PUSH20 0xFFFFFFFFFFFFFFFFFFFFFFFFFFFFFFFFFFFFFFFF MUL NOT AND SWAP1 DUP4 PUSH20 0xFFFFFFFFFFFFFFFFFFFFFFFFFFFFFFFFFFFFFFFF AND MUL OR SWAP1 SSTORE POP PUSH8 0x16345785D8A0000 PUSH1 0x1 SSTORE CALLVALUE DUP1 ISZERO PUSH1 0x59 JUMPI PUSH0 PUSH0 REVERT JUMPDEST POP PUSH2 0x5F1 DUP1 PUSH2 0x67 PUSH0 CODECOPY PUSH0 RETURN INVALID PUSH1 0x80 PUSH1 0x40 MSTORE PUSH1 0x4 CALLDATASIZE LT PUSH2 0x33 JUMPI PUSH0 CALLDATALOAD PUSH1 0xE0 SHR DUP1 PUSH4 0xDB1DA0D EQ PUSH2 0x37 JUMPI DUP1 PUSH4 0x292C8B7E EQ PUSH2 0x41 JUMPI DUP1 PUSH4 0x70514BEA EQ PUSH2 0x6B JUMPI JUMPDEST PUSH0 PUSH0 REVERT JUMPDEST PUSH2 0x3F PUSH2 0x95 JUMP JUMPDEST STOP JUMPDEST CALLVALUE DUP1 ISZERO PUSH2 0x4C JUMPI PUSH0 PUSH0 REVERT JUMPDEST POP PUSH2 0x55 PUSH2 0x2C6 JUMP JUMPDEST PUSH1 0x40 MLOAD PUSH2 0x62 SWAP2 SWAP1 PUSH2 0x308 JUMP JUMPDEST PUSH1 0x40 MLOAD DUP1 SWAP2 SUB SWAP1 RETURN JUMPDEST CALLVALUE DUP1 ISZERO PUSH2 0x76 JUMPI PUSH0 PUSH0 REVERT JUMPDEST POP PUSH2 0x7F PUSH2 0x2CC JUMP JUMPDEST PUSH1 0x40 MLOAD PUSH2 0x8C SWAP2 SWAP1 PUSH2 0x360 JUMP JUMPDEST PUSH1 0x40 MLOAD DUP1 SWAP2 SUB SWAP1 RETURN JUMPDEST PUSH1 0x1 SLOAD CALLVALUE LT ISZERO PUSH2 0xDA JUMPI PUSH1 0x40 MLOAD PUSH32 0x8C379A000000000000000000000000000000000000000000000000000000000 DUP2 MSTORE PUSH1 0x4 ADD PUSH2 0xD1 SWAP1 PUSH2 0x3D3 JUMP JUMPDEST PUSH1 0x40 MLOAD DUP1 SWAP2 SUB SWAP1 REVERT JUMPDEST PUSH0 PUSH1 0x1 SLOAD CALLVALUE PUSH2 0xE9 SWAP2 SWAP1 PUSH2 0x41E JUMP JUMPDEST SWAP1 POP PUSH0 PUSH0 PUSH0 SWAP1 SLOAD SWAP1 PUSH2 0x100 EXP SWAP1 DIV PUSH20 0xFFFFFFFFFFFFFFFFFFFFFFFFFFFFFFFFFFFFFFFF AND PUSH20 0xFFFFFFFFFFFFFFFFFFFFFFFFFFFFFFFFFFFFFFFF AND PUSH1 0x1 SLOAD PUSH1 0x40 MLOAD PUSH2 0x132 SWAP1 PUSH2 0x47E JUMP JUMPDEST PUSH0 PUSH1 0x40 MLOAD DUP1 DUP4 SUB DUP2 DUP6 DUP8 GAS CALL SWAP3 POP POP POP RETURNDATASIZE DUP1 PUSH0 DUP2 EQ PUSH2 0x16C JUMPI PUSH1 0x40 MLOAD SWAP2 POP PUSH1 0x1F NOT PUSH1 0x3F RETURNDATASIZE ADD AND DUP3 ADD PUSH1 0x40 MSTORE RETURNDATASIZE DUP3 MSTORE RETURNDATASIZE PUSH0 PUSH1 0x20 DUP5 ADD RETURNDATACOPY PUSH2 0x171 JUMP JUMPDEST PUSH1 0x60 SWAP2 POP JUMPDEST POP POP SWAP1 POP DUP1 PUSH2 0x1B5 JUMPI PUSH1 0x40 MLOAD PUSH32 0x8C379A000000000000000000000000000000000000000000000000000000000 DUP2 MSTORE PUSH1 0x4 ADD PUSH2 0x1AC SWAP1 PUSH2 0x502 JUMP JUMPDEST PUSH1 0x40 MLOAD DUP1 SWAP2 SUB SWAP1 REVERT JUMPDEST PUSH0 DUP3 GT ISZERO PUSH2 0x267 JUMPI PUSH0 CALLER PUSH20 0xFFFFFFFFFFFFFFFFFFFFFFFFFFFFFFFFFFFFFFFF AND DUP4 PUSH1 0x40 MLOAD PUSH2 0x1E2 SWAP1 PUSH2 0x47E JUMP JUMPDEST PUSH0 PUSH1 0x40 MLOAD DUP1 DUP4 SUB DUP2 DUP6 DUP8 GAS CALL SWAP3 POP POP POP RETURNDATASIZE DUP1 PUSH0 DUP2 EQ PUSH2 0x21C JUMPI PUSH1 0x40 MLOAD SWAP2 POP PUSH1 0x1F NOT PUSH1 0x3F RETURNDATASIZE ADD AND DUP3 ADD PUSH1 0x40 MSTORE RETURNDATASIZE DUP3 MSTORE RETURNDATASIZE PUSH0 PUSH1 0x20 DUP5 ADD RETURNDATACOPY PUSH2 0x221 JUMP JUMPDEST PUSH1 0x60 SWAP2 POP JUMPDEST POP POP SWAP1 POP DUP1 PUSH2 0x265 JUMPI PUSH1 0x40 MLOAD PUSH32 0x8C379A000000000000000000000000000000000000000000000000000000000 DUP2 MSTORE PUSH1 0x4 ADD PUSH2 0x25C SWAP1 PUSH2 0x56A JUMP JUMPDEST PUSH1 0x40 MLOAD DUP1 SWAP2 SUB SWAP1 REVERT JUMPDEST POP JUMPDEST PUSH8 0x16345785D8A0000 PUSH1 0x1 SLOAD PUSH2 0x27D SWAP2 SWAP1 PUSH2 0x588 JUMP JUMPDEST PUSH1 0x1 DUP2 SWAP1 SSTORE POP CALLER PUSH0 PUSH0 PUSH2 0x100 EXP DUP2 SLOAD DUP2 PUSH20 0xFFFFFFFFFFFFFFFFFFFFFFFFFFFFFFFFFFFFFFFF MUL NOT AND SWAP1 DUP4 PUSH20 0xFFFFFFFFFFFFFFFFFFFFFFFFFFFFFFFFFFFFFFFF AND MUL OR SWAP1 SSTORE POP POP POP JUMP JUMPDEST PUSH1 0x1 SLOAD DUP2 JUMP JUMPDEST PUSH0 PUSH0 SWAP1 SLOAD SWAP1 PUSH2 0x100 EXP SWAP1 DIV PUSH20 0xFFFFFFFFFFFFFFFFFFFFFFFFFFFFFFFFFFFFFFFF AND DUP2 JUMP JUMPDEST PUSH0 DUP2 SWAP1 POP SWAP2 SWAP1 POP JUMP JUMPDEST PUSH2 0x302 DUP2 PUSH2 0x2F0 JUMP JUMPDEST DUP3 MSTORE POP POP JUMP JUMPDEST PUSH0 PUSH1 0x20 DUP3 ADD SWAP1 POP PUSH2 0x31B PUSH0 DUP4 ADD DUP5 PUSH2 0x2F9 JUMP JUMPDEST SWAP3 SWAP2 POP POP JUMP JUMPDEST PUSH0 PUSH20 0xFFFFFFFFFFFFFFFFFFFFFFFFFFFFFFFFFFFFFFFF DUP3 AND SWAP1 POP SWAP2 SWAP1 POP JUMP JUMPDEST PUSH0 PUSH2 0x34A DUP3 PUSH2 0x321 JUMP JUMPDEST SWAP1 POP SWAP2 SWAP1 POP JUMP JUMPDEST PUSH2 0x35A DUP2 PUSH2 0x340 JUMP JUMPDEST DUP3 MSTORE POP POP JUMP JUMPDEST PUSH0 PUSH1 0x20 DUP3 ADD SWAP1 POP PUSH2 0x373 PUSH0 DUP4 ADD DUP5 PUSH2 0x351 JUMP JUMPDEST SWAP3 SWAP2 POP POP JUMP JUMPDEST PUSH0 DUP3 DUP3 MSTORE PUSH1 0x20 DUP3 ADD SWAP1 POP SWAP3 SWAP2 POP POP JUMP JUMPDEST PUSH32 0x56616C6F7220696E737566696369656E74650000000000000000000000000000 PUSH0 DUP3 ADD MSTORE POP JUMP JUMPDEST PUSH0 PUSH2 0x3BD PUSH1 0x12 DUP4 PUSH2 0x379 JUMP JUMPDEST SWAP2 POP PUSH2 0x3C8 DUP3 PUSH2 0x389 JUMP JUMPDEST PUSH1 0x20 DUP3 ADD SWAP1 POP SWAP2 SWAP1 POP JUMP JUMPDEST PUSH0 PUSH1 0x20 DUP3 ADD SWAP1 POP DUP2 DUP2 SUB PUSH0 DUP4 ADD MSTORE PUSH2 0x3EA DUP2 PUSH2 0x3B1 JUMP JUMPDEST SWAP1 POP SWAP2 SWAP1 POP JUMP JUMPDEST PUSH32 0x4E487B7100000000000000000000000000000000000000000000000000000000 PUSH0 MSTORE PUSH1 0x11 PUSH1 0x4 MSTORE PUSH1 0x24 PUSH0 REVERT JUMPDEST PUSH0 PUSH2 0x428 DUP3 PUSH2 0x2F0 JUMP JUMPDEST SWAP2 POP PUSH2 0x433 DUP4 PUSH2 0x2F0 JUMP JUMPDEST SWAP3 POP DUP3 DUP3 SUB SWAP1 POP DUP2 DUP2 GT ISZERO PUSH2 0x44B JUMPI PUSH2 0x44A PUSH2 0x3F1 JUMP JUMPDEST JUMPDEST SWAP3 SWAP2 POP POP JUMP JUMPDEST PUSH0 DUP2 SWAP1 POP SWAP3 SWAP2 POP POP JUMP JUMPDEST POP JUMP JUMPDEST PUSH0 PUSH2 0x469 PUSH0 DUP4 PUSH2 0x451 JUMP JUMPDEST SWAP2 POP PUSH2 0x474 DUP3 PUSH2 0x45B JUMP JUMPDEST PUSH0 DUP3 ADD SWAP1 POP SWAP2 SWAP1 POP JUMP JUMPDEST PUSH0 PUSH2 0x488 DUP3 PUSH2 0x45E JUMP JUMPDEST SWAP2 POP DUP2 SWAP1 POP SWAP2 SWAP1 POP JUMP JUMPDEST PUSH32 0x46616C686120616F20656E766961722070617261206F20646F6E6F20616E7465 PUSH0 DUP3 ADD MSTORE PUSH32 0x72696F7200000000000000000000000000000000000000000000000000000000 PUSH1 0x20 DUP3 ADD MSTORE POP JUMP JUMPDEST PUSH0 PUSH2 0x4EC PUSH1 0x24 DUP4 PUSH2 0x379 JUMP JUMPDEST SWAP2 POP PUSH2 0x4F7 DUP3 PUSH2 0x492 JUMP JUMPDEST PUSH1 0x40 DUP3 ADD SWAP1 POP SWAP2 SWAP1 POP JUMP JUMPDEST PUSH0 PUSH1 0x20 DUP3 ADD SWAP1 POP DUP2 DUP2 SUB PUSH0 DUP4 ADD MSTORE PUSH2 0x519 DUP2 PUSH2 0x4E0 JUMP JUMPDEST SWAP1 POP SWAP2 SWAP1 POP JUMP JUMPDEST PUSH32 0x46616C686120616F206465766F6C7665722074726F636F000000000000000000 PUSH0 DUP3 ADD MSTORE POP JUMP JUMPDEST PUSH0 PUSH2 0x554 PUSH1 0x17 DUP4 PUSH2 0x379 JUMP JUMPDEST SWAP2 POP PUSH2 0x55F DUP3 PUSH2 0x520 JUMP JUMPDEST PUSH1 0x20 DUP3 ADD SWAP1 POP SWAP2 SWAP1 POP JUMP JUMPDEST PUSH0 PUSH1 0x20 DUP3 ADD SWAP1 POP DUP2 DUP2 SUB PUSH0 DUP4 ADD MSTORE PUSH2 0x581 DUP2 PUSH2 0x548 JUMP JUMPDEST SWAP1 POP SWAP2 SWAP1 POP JUMP JUMPDEST PUSH0 PUSH2 0x592 DUP3 PUSH2 0x2F0 JUMP JUMPDEST SWAP2 POP PUSH2 0x59D DUP4 PUSH2 0x2F0 JUMP JUMPDEST SWAP3 POP DUP3 DUP3 ADD SWAP1 POP DUP1 DUP3 GT ISZERO PUSH2 0x5B5 JUMPI PUSH2 0x5B4 PUSH2 0x3F1 JUMP JUMPDEST JUMPDEST SWAP3 SWAP2 POP POP JUMP INVALID LOG2 PUSH5 0x6970667358 0x22 SLT KECCAK256 DUP11 TLOAD SWAP9 0xE DUPN 0x8E 0xC7 CHAINID 0xD8 0xC3 LT 0xA9 0xC6 SLOAD 0x4B DUP3 0xD3 XOR PUSH13 0x7EF5443CB29B99F8C0A3414C52 PUSH5 0x736F6C6343 STOP ADDMOD 0x1E STOP CALLER "
				},
				"gasEstimates": {
					"creation": {
						"codeDepositCost": "304200",
						"executionCost": "46711",
						"totalCost": "350911"
					},
					"external": {
						"dono()": "2529",
						"valorAtual()": "2425",
						"viraDono()": "infinite"
					}
				},
				"methodIdentifiers": {
					"dono()": "70514bea",
					"valorAtual()": "292c8b7e",
					"viraDono()": "0db1da0d"
				}
			},
			"storageLayout": {
				"storage": [
					{
						"astId": 5,
						"contract": "Introdução ao Solidity/Solidity 0.8/O esquema de obelisco..sol:Obelisco",
						"label": "dono",
						"offset": 0,
						"slot": "0",
						"type": "t_address"
					},
					{
						"astId": 8,
						"contract": "Introdução ao Solidity/Solidity 0.8/O esquema de obelisco..sol:Obelisco",
						"label": "valorAtual",
						"offset": 0,
						"slot": "1",
						"type": "t_uint256"
					}
				],
				"types": {
					"t_address": {
						"encoding": "inplace",
						"label": "address",
						"numberOfBytes": "20"
					},
					"t_uint256": {
						"encoding": "inplace",
						"label": "uint256",
						"numberOfBytes": "32"
					}
				}
			},
			"userdoc": {
				"kind": "user",
				"methods": {},
				"version": 1
			}
		}
	}
}