{
	"Introdução ao Solidity/Aprenda Solidity/Herança múltipla.sol": {
		"B": {
			"abi": [
				{
					"inputs": [
						{
							"internalType": "uint256",
							"name": "x",
							"type": "uint256"
						},
						{
							"internalType": "uint256",
							"name": "y",
							"type": "uint256"
						}
					],
					"name": "calculete",
					"outputs": [
						{
							"internalType": "uint256",
							"name": "",
							"type": "uint256"
						}
					],
					"stateMutability": "pure",
					"type": "function"
				},
				{
					"inputs": [],
					"name": "val2",
					"outputs": [
						{
							"internalType": "uint256",
							"name": "",
							"type": "uint256"
						}
					],
					"stateMutability": "view",
					"type": "function"
				}
			],
			"devdoc": {
				"kind": "dev",
				"methods": {},
				"version": 1
			},
			"evm": {
				"assembly": "    /* \"Introdu\\xc3\\xa7\\xc3\\xa3o ao Solidity/Aprenda Solidity/Heran\\xc3\\xa7a m\\xc3\\xbaltipla.sol\":202:344  contract B{... */\n  mstore(0x40, 0x80)\n    /* \"Introdu\\xc3\\xa7\\xc3\\xa3o ao Solidity/Aprenda Solidity/Heran\\xc3\\xa7a m\\xc3\\xbaltipla.sol\":238:239  2 */\n  0x02\n    /* \"Introdu\\xc3\\xa7\\xc3\\xa3o ao Solidity/Aprenda Solidity/Heran\\xc3\\xa7a m\\xc3\\xbaltipla.sol\":219:239  uint public val2 = 2 */\n  0x00\n  sstore\n    /* \"Introdu\\xc3\\xa7\\xc3\\xa3o ao Solidity/Aprenda Solidity/Heran\\xc3\\xa7a m\\xc3\\xbaltipla.sol\":202:344  contract B{... */\n  callvalue\n  dup1\n  iszero\n  tag_1\n  jumpi\n  revert(0x00, 0x00)\ntag_1:\n  pop\n  dataSize(sub_0)\n  dup1\n  dataOffset(sub_0)\n  0x00\n  codecopy\n  0x00\n  return\nstop\n\nsub_0: assembly {\n        /* \"Introdu\\xc3\\xa7\\xc3\\xa3o ao Solidity/Aprenda Solidity/Heran\\xc3\\xa7a m\\xc3\\xbaltipla.sol\":202:344  contract B{... */\n      mstore(0x40, 0x80)\n      callvalue\n      dup1\n      iszero\n      tag_1\n      jumpi\n      revert(0x00, 0x00)\n    tag_1:\n      pop\n      jumpi(tag_2, lt(calldatasize, 0x04))\n      shr(0xe0, calldataload(0x00))\n      dup1\n      0x95cacbe0\n      eq\n      tag_3\n      jumpi\n      dup1\n      0xa58dc1e7\n      eq\n      tag_4\n      jumpi\n    tag_2:\n      revert(0x00, 0x00)\n        /* \"Introdu\\xc3\\xa7\\xc3\\xa3o ao Solidity/Aprenda Solidity/Heran\\xc3\\xa7a m\\xc3\\xbaltipla.sol\":219:239  uint public val2 = 2 */\n    tag_3:\n      tag_5\n      tag_6\n      jump\t// in\n    tag_5:\n      mload(0x40)\n      tag_7\n      swap2\n      swap1\n      tag_8\n      jump\t// in\n    tag_7:\n      mload(0x40)\n      dup1\n      swap2\n      sub\n      swap1\n      return\n        /* \"Introdu\\xc3\\xa7\\xc3\\xa3o ao Solidity/Aprenda Solidity/Heran\\xc3\\xa7a m\\xc3\\xbaltipla.sol\":246:342  function calculete(uint x, uint y) public pure virtual returns (uint){... */\n    tag_4:\n      tag_9\n      0x04\n      dup1\n      calldatasize\n      sub\n      dup2\n      add\n      swap1\n      tag_10\n      swap2\n      swap1\n      tag_11\n      jump\t// in\n    tag_10:\n      tag_12\n      jump\t// in\n    tag_9:\n      mload(0x40)\n      tag_13\n      swap2\n      swap1\n      tag_8\n      jump\t// in\n    tag_13:\n      mload(0x40)\n      dup1\n      swap2\n      sub\n      swap1\n      return\n        /* \"Introdu\\xc3\\xa7\\xc3\\xa3o ao Solidity/Aprenda Solidity/Heran\\xc3\\xa7a m\\xc3\\xbaltipla.sol\":219:239  uint public val2 = 2 */\n    tag_6:\n      sload(0x00)\n      dup2\n      jump\t// out\n        /* \"Introdu\\xc3\\xa7\\xc3\\xa3o ao Solidity/Aprenda Solidity/Heran\\xc3\\xa7a m\\xc3\\xbaltipla.sol\":246:342  function calculete(uint x, uint y) public pure virtual returns (uint){... */\n    tag_12:\n        /* \"Introdu\\xc3\\xa7\\xc3\\xa3o ao Solidity/Aprenda Solidity/Heran\\xc3\\xa7a m\\xc3\\xbaltipla.sol\":310:314  uint */\n      0x00\n        /* \"Introdu\\xc3\\xa7\\xc3\\xa3o ao Solidity/Aprenda Solidity/Heran\\xc3\\xa7a m\\xc3\\xbaltipla.sol\":334:335  y */\n      dup2\n        /* \"Introdu\\xc3\\xa7\\xc3\\xa3o ao Solidity/Aprenda Solidity/Heran\\xc3\\xa7a m\\xc3\\xbaltipla.sol\":332:333  x */\n      dup4\n        /* \"Introdu\\xc3\\xa7\\xc3\\xa3o ao Solidity/Aprenda Solidity/Heran\\xc3\\xa7a m\\xc3\\xbaltipla.sol\":332:335  x*y */\n      tag_15\n      swap2\n      swap1\n      tag_16\n      jump\t// in\n    tag_15:\n        /* \"Introdu\\xc3\\xa7\\xc3\\xa3o ao Solidity/Aprenda Solidity/Heran\\xc3\\xa7a m\\xc3\\xbaltipla.sol\":325:335  return x*y */\n      swap1\n      pop\n        /* \"Introdu\\xc3\\xa7\\xc3\\xa3o ao Solidity/Aprenda Solidity/Heran\\xc3\\xa7a m\\xc3\\xbaltipla.sol\":246:342  function calculete(uint x, uint y) public pure virtual returns (uint){... */\n      swap3\n      swap2\n      pop\n      pop\n      jump\t// out\n        /* \"#utility.yul\":7:84   */\n    tag_17:\n        /* \"#utility.yul\":44:51   */\n      0x00\n        /* \"#utility.yul\":73:78   */\n      dup2\n        /* \"#utility.yul\":62:78   */\n      swap1\n      pop\n        /* \"#utility.yul\":7:84   */\n      swap2\n      swap1\n      pop\n      jump\t// out\n        /* \"#utility.yul\":90:208   */\n    tag_18:\n        /* \"#utility.yul\":177:201   */\n      tag_28\n        /* \"#utility.yul\":195:200   */\n      dup2\n        /* \"#utility.yul\":177:201   */\n      tag_17\n      jump\t// in\n    tag_28:\n        /* \"#utility.yul\":172:175   */\n      dup3\n        /* \"#utility.yul\":165:202   */\n      mstore\n        /* \"#utility.yul\":90:208   */\n      pop\n      pop\n      jump\t// out\n        /* \"#utility.yul\":214:436   */\n    tag_8:\n        /* \"#utility.yul\":307:311   */\n      0x00\n        /* \"#utility.yul\":345:347   */\n      0x20\n        /* \"#utility.yul\":334:343   */\n      dup3\n        /* \"#utility.yul\":330:348   */\n      add\n        /* \"#utility.yul\":322:348   */\n      swap1\n      pop\n        /* \"#utility.yul\":358:429   */\n      tag_30\n        /* \"#utility.yul\":426:427   */\n      0x00\n        /* \"#utility.yul\":415:424   */\n      dup4\n        /* \"#utility.yul\":411:428   */\n      add\n        /* \"#utility.yul\":402:408   */\n      dup5\n        /* \"#utility.yul\":358:429   */\n      tag_18\n      jump\t// in\n    tag_30:\n        /* \"#utility.yul\":214:436   */\n      swap3\n      swap2\n      pop\n      pop\n      jump\t// out\n        /* \"#utility.yul\":523:640   */\n    tag_20:\n        /* \"#utility.yul\":632:633   */\n      0x00\n        /* \"#utility.yul\":629:630   */\n      0x00\n        /* \"#utility.yul\":622:634   */\n      revert\n        /* \"#utility.yul\":769:891   */\n    tag_22:\n        /* \"#utility.yul\":842:866   */\n      tag_35\n        /* \"#utility.yul\":860:865   */\n      dup2\n        /* \"#utility.yul\":842:866   */\n      tag_17\n      jump\t// in\n    tag_35:\n        /* \"#utility.yul\":835:840   */\n      dup2\n        /* \"#utility.yul\":832:867   */\n      eq\n        /* \"#utility.yul\":822:885   */\n      tag_36\n      jumpi\n        /* \"#utility.yul\":881:882   */\n      0x00\n        /* \"#utility.yul\":878:879   */\n      0x00\n        /* \"#utility.yul\":871:883   */\n      revert\n        /* \"#utility.yul\":822:885   */\n    tag_36:\n        /* \"#utility.yul\":769:891   */\n      pop\n      jump\t// out\n        /* \"#utility.yul\":897:1036   */\n    tag_23:\n        /* \"#utility.yul\":943:948   */\n      0x00\n        /* \"#utility.yul\":981:987   */\n      dup2\n        /* \"#utility.yul\":968:988   */\n      calldataload\n        /* \"#utility.yul\":959:988   */\n      swap1\n      pop\n        /* \"#utility.yul\":997:1030   */\n      tag_38\n        /* \"#utility.yul\":1024:1029   */\n      dup2\n        /* \"#utility.yul\":997:1030   */\n      tag_22\n      jump\t// in\n    tag_38:\n        /* \"#utility.yul\":897:1036   */\n      swap3\n      swap2\n      pop\n      pop\n      jump\t// out\n        /* \"#utility.yul\":1042:1516   */\n    tag_11:\n        /* \"#utility.yul\":1110:1116   */\n      0x00\n        /* \"#utility.yul\":1118:1124   */\n      0x00\n        /* \"#utility.yul\":1167:1169   */\n      0x40\n        /* \"#utility.yul\":1155:1164   */\n      dup4\n        /* \"#utility.yul\":1146:1153   */\n      dup6\n        /* \"#utility.yul\":1142:1165   */\n      sub\n        /* \"#utility.yul\":1138:1170   */\n      slt\n        /* \"#utility.yul\":1135:1254   */\n      iszero\n      tag_40\n      jumpi\n        /* \"#utility.yul\":1173:1252   */\n      tag_41\n      tag_20\n      jump\t// in\n    tag_41:\n        /* \"#utility.yul\":1135:1254   */\n    tag_40:\n        /* \"#utility.yul\":1293:1294   */\n      0x00\n        /* \"#utility.yul\":1318:1371   */\n      tag_42\n        /* \"#utility.yul\":1363:1370   */\n      dup6\n        /* \"#utility.yul\":1354:1360   */\n      dup3\n        /* \"#utility.yul\":1343:1352   */\n      dup7\n        /* \"#utility.yul\":1339:1361   */\n      add\n        /* \"#utility.yul\":1318:1371   */\n      tag_23\n      jump\t// in\n    tag_42:\n        /* \"#utility.yul\":1308:1371   */\n      swap3\n      pop\n        /* \"#utility.yul\":1264:1381   */\n      pop\n        /* \"#utility.yul\":1420:1422   */\n      0x20\n        /* \"#utility.yul\":1446:1499   */\n      tag_43\n        /* \"#utility.yul\":1491:1498   */\n      dup6\n        /* \"#utility.yul\":1482:1488   */\n      dup3\n        /* \"#utility.yul\":1471:1480   */\n      dup7\n        /* \"#utility.yul\":1467:1489   */\n      add\n        /* \"#utility.yul\":1446:1499   */\n      tag_23\n      jump\t// in\n    tag_43:\n        /* \"#utility.yul\":1436:1499   */\n      swap2\n      pop\n        /* \"#utility.yul\":1391:1509   */\n      pop\n        /* \"#utility.yul\":1042:1516   */\n      swap3\n      pop\n      swap3\n      swap1\n      pop\n      jump\t// out\n        /* \"#utility.yul\":1522:1702   */\n    tag_24:\n        /* \"#utility.yul\":1570:1647   */\n      0x4e487b7100000000000000000000000000000000000000000000000000000000\n        /* \"#utility.yul\":1567:1568   */\n      0x00\n        /* \"#utility.yul\":1560:1648   */\n      mstore\n        /* \"#utility.yul\":1667:1671   */\n      0x11\n        /* \"#utility.yul\":1664:1665   */\n      0x04\n        /* \"#utility.yul\":1657:1672   */\n      mstore\n        /* \"#utility.yul\":1691:1695   */\n      0x24\n        /* \"#utility.yul\":1688:1689   */\n      0x00\n        /* \"#utility.yul\":1681:1696   */\n      revert\n        /* \"#utility.yul\":1708:2118   */\n    tag_16:\n        /* \"#utility.yul\":1748:1755   */\n      0x00\n        /* \"#utility.yul\":1771:1791   */\n      tag_46\n        /* \"#utility.yul\":1789:1790   */\n      dup3\n        /* \"#utility.yul\":1771:1791   */\n      tag_17\n      jump\t// in\n    tag_46:\n        /* \"#utility.yul\":1766:1791   */\n      swap2\n      pop\n        /* \"#utility.yul\":1805:1825   */\n      tag_47\n        /* \"#utility.yul\":1823:1824   */\n      dup4\n        /* \"#utility.yul\":1805:1825   */\n      tag_17\n      jump\t// in\n    tag_47:\n        /* \"#utility.yul\":1800:1825   */\n      swap3\n      pop\n        /* \"#utility.yul\":1860:1861   */\n      dup3\n        /* \"#utility.yul\":1857:1858   */\n      dup3\n        /* \"#utility.yul\":1853:1862   */\n      mul\n        /* \"#utility.yul\":1882:1912   */\n      tag_48\n        /* \"#utility.yul\":1900:1911   */\n      dup2\n        /* \"#utility.yul\":1882:1912   */\n      tag_17\n      jump\t// in\n    tag_48:\n        /* \"#utility.yul\":1871:1912   */\n      swap2\n      pop\n        /* \"#utility.yul\":2061:2062   */\n      dup3\n        /* \"#utility.yul\":2052:2059   */\n      dup3\n        /* \"#utility.yul\":2048:2063   */\n      div\n        /* \"#utility.yul\":2045:2046   */\n      dup5\n        /* \"#utility.yul\":2042:2064   */\n      eq\n        /* \"#utility.yul\":2022:2023   */\n      dup4\n        /* \"#utility.yul\":2015:2024   */\n      iszero\n        /* \"#utility.yul\":1995:2078   */\n      or\n        /* \"#utility.yul\":1972:2111   */\n      tag_49\n      jumpi\n        /* \"#utility.yul\":2091:2109   */\n      tag_50\n      tag_24\n      jump\t// in\n    tag_50:\n        /* \"#utility.yul\":1972:2111   */\n    tag_49:\n        /* \"#utility.yul\":1756:2118   */\n      pop\n        /* \"#utility.yul\":1708:2118   */\n      swap3\n      swap2\n      pop\n      pop\n      jump\t// out\n\n    auxdata: 0xa2646970667358221220c4a8fa6f67b1495ae490124495438ecc09996edd8c1f43a1bd80b3e4441f344664736f6c634300081e0033\n}\n",
				"bytecode": {
					"linkReferences": {},
					"object": "608060405260025f553480156012575f5ffd5b506101e1806100205f395ff3fe608060405234801561000f575f5ffd5b5060043610610034575f3560e01c806395cacbe014610038578063a58dc1e714610056575b5f5ffd5b610040610086565b60405161004d91906100b8565b60405180910390f35b610070600480360381019061006b91906100ff565b61008b565b60405161007d91906100b8565b60405180910390f35b5f5481565b5f8183610098919061016a565b905092915050565b5f819050919050565b6100b2816100a0565b82525050565b5f6020820190506100cb5f8301846100a9565b92915050565b5f5ffd5b6100de816100a0565b81146100e8575f5ffd5b50565b5f813590506100f9816100d5565b92915050565b5f5f60408385031215610115576101146100d1565b5b5f610122858286016100eb565b9250506020610133858286016100eb565b9150509250929050565b7f4e487b71000000000000000000000000000000000000000000000000000000005f52601160045260245ffd5b5f610174826100a0565b915061017f836100a0565b925082820261018d816100a0565b915082820484148315176101a4576101a361013d565b5b509291505056fea2646970667358221220c4a8fa6f67b1495ae490124495438ecc09996edd8c1f43a1bd80b3e4441f344664736f6c634300081e0033",
					"opcodes": "PUSH1 0x80 PUSH1 0x40 MSTORE PUSH1 0x2 PUSH0 SSTORE CALLVALUE DUP1 ISZERO PUSH1 0x12 JUMPI PUSH0 PUSH0 REVERT JUMPDEST POP PUSH2 0x1E1 DUP1 PUSH2 0x20 PUSH0 CODECOPY PUSH0 RETURN INVALID PUSH1 0x80 PUSH1 0x40 MSTORE CALLVALUE DUP1 ISZERO PUSH2 0xF JUMPI PUSH0 PUSH0 REVERT JUMPDEST POP PUSH1 0x4 CALLDATASIZE LT PUSH2 0x34 JUMPI PUSH0 CALLDATALOAD PUSH1 0xE0 SHR DUP1 PUSH4 0x95CACBE0 EQ PUSH2 0x38 JUMPI DUP1 PUSH4 0xA58DC1E7 EQ PUSH2 0x56 JUMPI JUMPDEST PUSH0 PUSH0 REVERT JUMPDEST PUSH2 0x40 PUSH2 0x86 JUMP JUMPDEST PUSH1 0x40 MLOAD PUSH2 0x4D SWAP2 SWAP1 PUSH2 0xB8 JUMP JUMPDEST PUSH1 0x40 MLOAD DUP1 SWAP2 SUB SWAP1 RETURN JUMPDEST PUSH2 0x70 PUSH1 0x4 DUP1 CALLDATASIZE SUB DUP2 ADD SWAP1 PUSH2 0x6B SWAP2 SWAP1 PUSH2 0xFF JUMP JUMPDEST PUSH2 0x8B JUMP JUMPDEST PUSH1 0x40 MLOAD PUSH2 0x7D SWAP2 SWAP1 PUSH2 0xB8 JUMP JUMPDEST PUSH1 0x40 MLOAD DUP1 SWAP2 SUB SWAP1 RETURN JUMPDEST PUSH0 SLOAD DUP2 JUMP JUMPDEST PUSH0 DUP2 DUP4 PUSH2 0x98 SWAP2 SWAP1 PUSH2 0x16A JUMP JUMPDEST SWAP1 POP SWAP3 SWAP2 POP POP JUMP JUMPDEST PUSH0 DUP2 SWAP1 POP SWAP2 SWAP1 POP JUMP JUMPDEST PUSH2 0xB2 DUP2 PUSH2 0xA0 JUMP JUMPDEST DUP3 MSTORE POP POP JUMP JUMPDEST PUSH0 PUSH1 0x20 DUP3 ADD SWAP1 POP PUSH2 0xCB PUSH0 DUP4 ADD DUP5 PUSH2 0xA9 JUMP JUMPDEST SWAP3 SWAP2 POP POP JUMP JUMPDEST PUSH0 PUSH0 REVERT JUMPDEST PUSH2 0xDE DUP2 PUSH2 0xA0 JUMP JUMPDEST DUP2 EQ PUSH2 0xE8 JUMPI PUSH0 PUSH0 REVERT JUMPDEST POP JUMP JUMPDEST PUSH0 DUP2 CALLDATALOAD SWAP1 POP PUSH2 0xF9 DUP2 PUSH2 0xD5 JUMP JUMPDEST SWAP3 SWAP2 POP POP JUMP JUMPDEST PUSH0 PUSH0 PUSH1 0x40 DUP4 DUP6 SUB SLT ISZERO PUSH2 0x115 JUMPI PUSH2 0x114 PUSH2 0xD1 JUMP JUMPDEST JUMPDEST PUSH0 PUSH2 0x122 DUP6 DUP3 DUP7 ADD PUSH2 0xEB JUMP JUMPDEST SWAP3 POP POP PUSH1 0x20 PUSH2 0x133 DUP6 DUP3 DUP7 ADD PUSH2 0xEB JUMP JUMPDEST SWAP2 POP POP SWAP3 POP SWAP3 SWAP1 POP JUMP JUMPDEST PUSH32 0x4E487B7100000000000000000000000000000000000000000000000000000000 PUSH0 MSTORE PUSH1 0x11 PUSH1 0x4 MSTORE PUSH1 0x24 PUSH0 REVERT JUMPDEST PUSH0 PUSH2 0x174 DUP3 PUSH2 0xA0 JUMP JUMPDEST SWAP2 POP PUSH2 0x17F DUP4 PUSH2 0xA0 JUMP JUMPDEST SWAP3 POP DUP3 DUP3 MUL PUSH2 0x18D DUP2 PUSH2 0xA0 JUMP JUMPDEST SWAP2 POP DUP3 DUP3 DIV DUP5 EQ DUP4 ISZERO OR PUSH2 0x1A4 JUMPI PUSH2 0x1A3 PUSH2 0x13D JUMP JUMPDEST JUMPDEST POP SWAP3 SWAP2 POP POP JUMP INVALID LOG2 PUSH5 0x6970667358 0x22 SLT KECCAK256 0xC4 0xA8 STATICCALL PUSH16 0x67B1495AE490124495438ECC09996EDD DUP13 0x1F NUMBER LOG1 0xBD DUP1 0xB3 RETF PREVRANDAO 0x1F CALLVALUE CHAINID PUSH5 0x736F6C6343 STOP ADDMOD 0x1E STOP CALLER "
				},
				"gasEstimates": {
					"creation": {
						"codeDepositCost": "96200",
						"executionCost": "22250",
						"totalCost": "118450"
					},
					"external": {
						"calculete(uint256,uint256)": "infinite",
						"val2()": "2402"
					}
				},
				"methodIdentifiers": {
					"calculete(uint256,uint256)": "a58dc1e7",
					"val2()": "95cacbe0"
				}
			},
			"storageLayout": {
				"storage": [
					{
						"astId": 22,
						"contract": "Introdução ao Solidity/Aprenda Solidity/Herança múltipla.sol:B",
						"label": "val2",
						"offset": 0,
						"slot": "0",
						"type": "t_uint256"
					}
				],
				"types": {
					"t_uint256": {
						"encoding": "inplace",
						"label": "uint256",
						"numberOfBytes": "32"
					}
				}
			},
			"userdoc": {
				"kind": "user",
				"methods": {},
				"version": 1
			}
		}
	}
}