{
	"Introdução ao Solidity/Aprenda Solidity/Herança múltipla.sol": {
		"C": {
			"abi": [
				{
					"inputs": [
						{
							"internalType": "uint256",
							"name": "x",
							"type": "uint256"
						},
						{
							"internalType": "uint256",
							"name": "y",
							"type": "uint256"
						}
					],
					"name": "calculete",
					"outputs": [
						{
							"internalType": "uint256",
							"name": "",
							"type": "uint256"
						}
					],
					"stateMutability": "pure",
					"type": "function"
				},
				{
					"inputs": [],
					"name": "val1",
					"outputs": [
						{
							"internalType": "uint256",
							"name": "",
							"type": "uint256"
						}
					],
					"stateMutability": "view",
					"type": "function"
				},
				{
					"inputs": [],
					"name": "val2",
					"outputs": [
						{
							"internalType": "uint256",
							"name": "",
							"type": "uint256"
						}
					],
					"stateMutability": "view",
					"type": "function"
				}
			],
			"devdoc": {
				"kind": "dev",
				"methods": {},
				"version": 1
			},
			"evm": {
				"assembly": "    /* \"Introdu\\xc3\\xa7\\xc3\\xa3o ao Solidity/Aprenda Solidity/Heran\\xc3\\xa7a m\\xc3\\xbaltipla.sol\":346:545  contract C is A,B{... */\n  mstore(0x40, 0x80)\n    /* \"Introdu\\xc3\\xa7\\xc3\\xa3o ao Solidity/Aprenda Solidity/Heran\\xc3\\xa7a m\\xc3\\xbaltipla.sol\":94:95  1 */\n  0x01\n    /* \"Introdu\\xc3\\xa7\\xc3\\xa3o ao Solidity/Aprenda Solidity/Heran\\xc3\\xa7a m\\xc3\\xbaltipla.sol\":75:95  uint public val1 = 1 */\n  0x00\n  sstore\n    /* \"Introdu\\xc3\\xa7\\xc3\\xa3o ao Solidity/Aprenda Solidity/Heran\\xc3\\xa7a m\\xc3\\xbaltipla.sol\":238:239  2 */\n  0x02\n    /* \"Introdu\\xc3\\xa7\\xc3\\xa3o ao Solidity/Aprenda Solidity/Heran\\xc3\\xa7a m\\xc3\\xbaltipla.sol\":219:239  uint public val2 = 2 */\n  0x01\n  sstore\n    /* \"Introdu\\xc3\\xa7\\xc3\\xa3o ao Solidity/Aprenda Solidity/Heran\\xc3\\xa7a m\\xc3\\xbaltipla.sol\":346:545  contract C is A,B{... */\n  callvalue\n  dup1\n  iszero\n  tag_1\n  jumpi\n  revert(0x00, 0x00)\ntag_1:\n  pop\n  dataSize(sub_0)\n  dup1\n  dataOffset(sub_0)\n  0x00\n  codecopy\n  0x00\n  return\nstop\n\nsub_0: assembly {\n        /* \"Introdu\\xc3\\xa7\\xc3\\xa3o ao Solidity/Aprenda Solidity/Heran\\xc3\\xa7a m\\xc3\\xbaltipla.sol\":346:545  contract C is A,B{... */\n      mstore(0x40, 0x80)\n      callvalue\n      dup1\n      iszero\n      tag_1\n      jumpi\n      revert(0x00, 0x00)\n    tag_1:\n      pop\n      jumpi(tag_2, lt(calldatasize, 0x04))\n      shr(0xe0, calldataload(0x00))\n      dup1\n      0x95cacbe0\n      eq\n      tag_3\n      jumpi\n      dup1\n      0xa58dc1e7\n      eq\n      tag_4\n      jumpi\n      dup1\n      0xc82fdf36\n      eq\n      tag_5\n      jumpi\n    tag_2:\n      revert(0x00, 0x00)\n        /* \"Introdu\\xc3\\xa7\\xc3\\xa3o ao Solidity/Aprenda Solidity/Heran\\xc3\\xa7a m\\xc3\\xbaltipla.sol\":219:239  uint public val2 = 2 */\n    tag_3:\n      tag_6\n      tag_7\n      jump\t// in\n    tag_6:\n      mload(0x40)\n      tag_8\n      swap2\n      swap1\n      tag_9\n      jump\t// in\n    tag_8:\n      mload(0x40)\n      dup1\n      swap2\n      sub\n      swap1\n      return\n        /* \"Introdu\\xc3\\xa7\\xc3\\xa3o ao Solidity/Aprenda Solidity/Heran\\xc3\\xa7a m\\xc3\\xbaltipla.sol\":370:543  function calculete(uint x, uint y) public pure override(A,B) returns (uint){... */\n    tag_4:\n      tag_10\n      0x04\n      dup1\n      calldatasize\n      sub\n      dup2\n      add\n      swap1\n      tag_11\n      swap2\n      swap1\n      tag_12\n      jump\t// in\n    tag_11:\n      tag_13\n      jump\t// in\n    tag_10:\n      mload(0x40)\n      tag_14\n      swap2\n      swap1\n      tag_9\n      jump\t// in\n    tag_14:\n      mload(0x40)\n      dup1\n      swap2\n      sub\n      swap1\n      return\n        /* \"Introdu\\xc3\\xa7\\xc3\\xa3o ao Solidity/Aprenda Solidity/Heran\\xc3\\xa7a m\\xc3\\xbaltipla.sol\":75:95  uint public val1 = 1 */\n    tag_5:\n      tag_15\n      tag_16\n      jump\t// in\n    tag_15:\n      mload(0x40)\n      tag_17\n      swap2\n      swap1\n      tag_9\n      jump\t// in\n    tag_17:\n      mload(0x40)\n      dup1\n      swap2\n      sub\n      swap1\n      return\n        /* \"Introdu\\xc3\\xa7\\xc3\\xa3o ao Solidity/Aprenda Solidity/Heran\\xc3\\xa7a m\\xc3\\xbaltipla.sol\":219:239  uint public val2 = 2 */\n    tag_7:\n      sload(0x01)\n      dup2\n      jump\t// out\n        /* \"Introdu\\xc3\\xa7\\xc3\\xa3o ao Solidity/Aprenda Solidity/Heran\\xc3\\xa7a m\\xc3\\xbaltipla.sol\":370:543  function calculete(uint x, uint y) public pure override(A,B) returns (uint){... */\n    tag_13:\n        /* \"Introdu\\xc3\\xa7\\xc3\\xa3o ao Solidity/Aprenda Solidity/Heran\\xc3\\xa7a m\\xc3\\xbaltipla.sol\":440:444  uint */\n      0x00\n        /* \"Introdu\\xc3\\xa7\\xc3\\xa3o ao Solidity/Aprenda Solidity/Heran\\xc3\\xa7a m\\xc3\\xbaltipla.sol\":467:468  y */\n      dup2\n        /* \"Introdu\\xc3\\xa7\\xc3\\xa3o ao Solidity/Aprenda Solidity/Heran\\xc3\\xa7a m\\xc3\\xbaltipla.sol\":462:463  x */\n      dup4\n        /* \"Introdu\\xc3\\xa7\\xc3\\xa3o ao Solidity/Aprenda Solidity/Heran\\xc3\\xa7a m\\xc3\\xbaltipla.sol\":462:468  x ** y */\n      tag_19\n      swap2\n      swap1\n      tag_20\n      jump\t// in\n    tag_19:\n        /* \"Introdu\\xc3\\xa7\\xc3\\xa3o ao Solidity/Aprenda Solidity/Heran\\xc3\\xa7a m\\xc3\\xbaltipla.sol\":455:468  return x ** y */\n      swap1\n      pop\n        /* \"Introdu\\xc3\\xa7\\xc3\\xa3o ao Solidity/Aprenda Solidity/Heran\\xc3\\xa7a m\\xc3\\xbaltipla.sol\":370:543  function calculete(uint x, uint y) public pure override(A,B) returns (uint){... */\n      swap3\n      swap2\n      pop\n      pop\n      jump\t// out\n        /* \"Introdu\\xc3\\xa7\\xc3\\xa3o ao Solidity/Aprenda Solidity/Heran\\xc3\\xa7a m\\xc3\\xbaltipla.sol\":75:95  uint public val1 = 1 */\n    tag_16:\n      sload(0x00)\n      dup2\n      jump\t// out\n        /* \"#utility.yul\":7:84   */\n    tag_21:\n        /* \"#utility.yul\":44:51   */\n      0x00\n        /* \"#utility.yul\":73:78   */\n      dup2\n        /* \"#utility.yul\":62:78   */\n      swap1\n      pop\n        /* \"#utility.yul\":7:84   */\n      swap2\n      swap1\n      pop\n      jump\t// out\n        /* \"#utility.yul\":90:208   */\n    tag_22:\n        /* \"#utility.yul\":177:201   */\n      tag_35\n        /* \"#utility.yul\":195:200   */\n      dup2\n        /* \"#utility.yul\":177:201   */\n      tag_21\n      jump\t// in\n    tag_35:\n        /* \"#utility.yul\":172:175   */\n      dup3\n        /* \"#utility.yul\":165:202   */\n      mstore\n        /* \"#utility.yul\":90:208   */\n      pop\n      pop\n      jump\t// out\n        /* \"#utility.yul\":214:436   */\n    tag_9:\n        /* \"#utility.yul\":307:311   */\n      0x00\n        /* \"#utility.yul\":345:347   */\n      0x20\n        /* \"#utility.yul\":334:343   */\n      dup3\n        /* \"#utility.yul\":330:348   */\n      add\n        /* \"#utility.yul\":322:348   */\n      swap1\n      pop\n        /* \"#utility.yul\":358:429   */\n      tag_37\n        /* \"#utility.yul\":426:427   */\n      0x00\n        /* \"#utility.yul\":415:424   */\n      dup4\n        /* \"#utility.yul\":411:428   */\n      add\n        /* \"#utility.yul\":402:408   */\n      dup5\n        /* \"#utility.yul\":358:429   */\n      tag_22\n      jump\t// in\n    tag_37:\n        /* \"#utility.yul\":214:436   */\n      swap3\n      swap2\n      pop\n      pop\n      jump\t// out\n        /* \"#utility.yul\":523:640   */\n    tag_24:\n        /* \"#utility.yul\":632:633   */\n      0x00\n        /* \"#utility.yul\":629:630   */\n      0x00\n        /* \"#utility.yul\":622:634   */\n      revert\n        /* \"#utility.yul\":769:891   */\n    tag_26:\n        /* \"#utility.yul\":842:866   */\n      tag_42\n        /* \"#utility.yul\":860:865   */\n      dup2\n        /* \"#utility.yul\":842:866   */\n      tag_21\n      jump\t// in\n    tag_42:\n        /* \"#utility.yul\":835:840   */\n      dup2\n        /* \"#utility.yul\":832:867   */\n      eq\n        /* \"#utility.yul\":822:885   */\n      tag_43\n      jumpi\n        /* \"#utility.yul\":881:882   */\n      0x00\n        /* \"#utility.yul\":878:879   */\n      0x00\n        /* \"#utility.yul\":871:883   */\n      revert\n        /* \"#utility.yul\":822:885   */\n    tag_43:\n        /* \"#utility.yul\":769:891   */\n      pop\n      jump\t// out\n        /* \"#utility.yul\":897:1036   */\n    tag_27:\n        /* \"#utility.yul\":943:948   */\n      0x00\n        /* \"#utility.yul\":981:987   */\n      dup2\n        /* \"#utility.yul\":968:988   */\n      calldataload\n        /* \"#utility.yul\":959:988   */\n      swap1\n      pop\n        /* \"#utility.yul\":997:1030   */\n      tag_45\n        /* \"#utility.yul\":1024:1029   */\n      dup2\n        /* \"#utility.yul\":997:1030   */\n      tag_26\n      jump\t// in\n    tag_45:\n        /* \"#utility.yul\":897:1036   */\n      swap3\n      swap2\n      pop\n      pop\n      jump\t// out\n        /* \"#utility.yul\":1042:1516   */\n    tag_12:\n        /* \"#utility.yul\":1110:1116   */\n      0x00\n        /* \"#utility.yul\":1118:1124   */\n      0x00\n        /* \"#utility.yul\":1167:1169   */\n      0x40\n        /* \"#utility.yul\":1155:1164   */\n      dup4\n        /* \"#utility.yul\":1146:1153   */\n      dup6\n        /* \"#utility.yul\":1142:1165   */\n      sub\n        /* \"#utility.yul\":1138:1170   */\n      slt\n        /* \"#utility.yul\":1135:1254   */\n      iszero\n      tag_47\n      jumpi\n        /* \"#utility.yul\":1173:1252   */\n      tag_48\n      tag_24\n      jump\t// in\n    tag_48:\n        /* \"#utility.yul\":1135:1254   */\n    tag_47:\n        /* \"#utility.yul\":1293:1294   */\n      0x00\n        /* \"#utility.yul\":1318:1371   */\n      tag_49\n        /* \"#utility.yul\":1363:1370   */\n      dup6\n        /* \"#utility.yul\":1354:1360   */\n      dup3\n        /* \"#utility.yul\":1343:1352   */\n      dup7\n        /* \"#utility.yul\":1339:1361   */\n      add\n        /* \"#utility.yul\":1318:1371   */\n      tag_27\n      jump\t// in\n    tag_49:\n        /* \"#utility.yul\":1308:1371   */\n      swap3\n      pop\n        /* \"#utility.yul\":1264:1381   */\n      pop\n        /* \"#utility.yul\":1420:1422   */\n      0x20\n        /* \"#utility.yul\":1446:1499   */\n      tag_50\n        /* \"#utility.yul\":1491:1498   */\n      dup6\n        /* \"#utility.yul\":1482:1488   */\n      dup3\n        /* \"#utility.yul\":1471:1480   */\n      dup7\n        /* \"#utility.yul\":1467:1489   */\n      add\n        /* \"#utility.yul\":1446:1499   */\n      tag_27\n      jump\t// in\n    tag_50:\n        /* \"#utility.yul\":1436:1499   */\n      swap2\n      pop\n        /* \"#utility.yul\":1391:1509   */\n      pop\n        /* \"#utility.yul\":1042:1516   */\n      swap3\n      pop\n      swap3\n      swap1\n      pop\n      jump\t// out\n        /* \"#utility.yul\":1522:1702   */\n    tag_28:\n        /* \"#utility.yul\":1570:1647   */\n      0x4e487b7100000000000000000000000000000000000000000000000000000000\n        /* \"#utility.yul\":1567:1568   */\n      0x00\n        /* \"#utility.yul\":1560:1648   */\n      mstore\n        /* \"#utility.yul\":1667:1671   */\n      0x11\n        /* \"#utility.yul\":1664:1665   */\n      0x04\n        /* \"#utility.yul\":1657:1672   */\n      mstore\n        /* \"#utility.yul\":1691:1695   */\n      0x24\n        /* \"#utility.yul\":1688:1689   */\n      0x00\n        /* \"#utility.yul\":1681:1696   */\n      revert\n        /* \"#utility.yul\":1708:1810   */\n    tag_29:\n        /* \"#utility.yul\":1750:1758   */\n      0x00\n        /* \"#utility.yul\":1797:1802   */\n      dup2\n        /* \"#utility.yul\":1794:1795   */\n      0x01\n        /* \"#utility.yul\":1790:1803   */\n      shr\n        /* \"#utility.yul\":1769:1803   */\n      swap1\n      pop\n        /* \"#utility.yul\":1708:1810   */\n      swap2\n      swap1\n      pop\n      jump\t// out\n        /* \"#utility.yul\":1816:2664   */\n    tag_30:\n        /* \"#utility.yul\":1877:1882   */\n      0x00\n        /* \"#utility.yul\":1884:1888   */\n      0x00\n        /* \"#utility.yul\":1908:1914   */\n      dup3\n        /* \"#utility.yul\":1899:1914   */\n      swap2\n      pop\n        /* \"#utility.yul\":1932:1937   */\n      dup4\n        /* \"#utility.yul\":1923:1937   */\n      swap1\n      pop\n        /* \"#utility.yul\":1946:2658   */\n    tag_54:\n        /* \"#utility.yul\":1967:1968   */\n      0x01\n        /* \"#utility.yul\":1957:1965   */\n      dup6\n        /* \"#utility.yul\":1954:1969   */\n      gt\n        /* \"#utility.yul\":1946:2658   */\n      iszero\n      tag_56\n      jumpi\n        /* \"#utility.yul\":2062:2066   */\n      dup1\n        /* \"#utility.yul\":2057:2060   */\n      dup7\n        /* \"#utility.yul\":2053:2067   */\n      div\n        /* \"#utility.yul\":2047:2051   */\n      dup2\n        /* \"#utility.yul\":2044:2068   */\n      gt\n        /* \"#utility.yul\":2041:2091   */\n      iszero\n      tag_57\n      jumpi\n        /* \"#utility.yul\":2071:2089   */\n      tag_58\n      tag_28\n      jump\t// in\n    tag_58:\n        /* \"#utility.yul\":2041:2091   */\n    tag_57:\n        /* \"#utility.yul\":2121:2122   */\n      0x01\n        /* \"#utility.yul\":2111:2119   */\n      dup6\n        /* \"#utility.yul\":2107:2123   */\n      and\n        /* \"#utility.yul\":2104:2555   */\n      iszero\n      tag_59\n      jumpi\n        /* \"#utility.yul\":2536:2540   */\n      dup1\n        /* \"#utility.yul\":2529:2534   */\n      dup3\n        /* \"#utility.yul\":2525:2541   */\n      mul\n        /* \"#utility.yul\":2516:2541   */\n      swap2\n      pop\n        /* \"#utility.yul\":2104:2555   */\n    tag_59:\n        /* \"#utility.yul\":2586:2590   */\n      dup1\n        /* \"#utility.yul\":2580:2584   */\n      dup2\n        /* \"#utility.yul\":2576:2591   */\n      mul\n        /* \"#utility.yul\":2568:2591   */\n      swap1\n      pop\n        /* \"#utility.yul\":2616:2648   */\n      tag_60\n        /* \"#utility.yul\":2639:2647   */\n      dup6\n        /* \"#utility.yul\":2616:2648   */\n      tag_29\n      jump\t// in\n    tag_60:\n        /* \"#utility.yul\":2604:2648   */\n      swap5\n      pop\n        /* \"#utility.yul\":1946:2658   */\n      jump(tag_54)\n    tag_56:\n        /* \"#utility.yul\":1816:2664   */\n      swap5\n      pop\n      swap5\n      swap3\n      pop\n      pop\n      pop\n      jump\t// out\n        /* \"#utility.yul\":2670:3743   */\n    tag_31:\n        /* \"#utility.yul\":2724:2729   */\n      0x00\n        /* \"#utility.yul\":2915:2923   */\n      dup3\n        /* \"#utility.yul\":2905:2945   */\n      tag_62\n      jumpi\n        /* \"#utility.yul\":2936:2937   */\n      0x01\n        /* \"#utility.yul\":2927:2937   */\n      swap1\n      pop\n        /* \"#utility.yul\":2938:2943   */\n      jump(tag_61)\n        /* \"#utility.yul\":2905:2945   */\n    tag_62:\n        /* \"#utility.yul\":2964:2968   */\n      dup2\n        /* \"#utility.yul\":2954:2990   */\n      tag_63\n      jumpi\n        /* \"#utility.yul\":2981:2982   */\n      0x00\n        /* \"#utility.yul\":2972:2982   */\n      swap1\n      pop\n        /* \"#utility.yul\":2983:2988   */\n      jump(tag_61)\n        /* \"#utility.yul\":2954:2990   */\n    tag_63:\n        /* \"#utility.yul\":3050:3054   */\n      dup2\n        /* \"#utility.yul\":3098:3099   */\n      0x01\n        /* \"#utility.yul\":3093:3120   */\n      dup2\n      eq\n      tag_65\n      jumpi\n        /* \"#utility.yul\":3134:3135   */\n      0x02\n        /* \"#utility.yul\":3129:3320   */\n      dup2\n      eq\n      tag_66\n      jumpi\n        /* \"#utility.yul\":3043:3320   */\n      jump(tag_64)\n        /* \"#utility.yul\":3093:3120   */\n    tag_65:\n        /* \"#utility.yul\":3111:3112   */\n      0x01\n        /* \"#utility.yul\":3102:3112   */\n      swap2\n      pop\n        /* \"#utility.yul\":3113:3118   */\n      pop\n      jump(tag_61)\n        /* \"#utility.yul\":3129:3320   */\n    tag_66:\n        /* \"#utility.yul\":3174:3177   */\n      0xff\n        /* \"#utility.yul\":3164:3172   */\n      dup5\n        /* \"#utility.yul\":3161:3178   */\n      gt\n        /* \"#utility.yul\":3158:3201   */\n      iszero\n      tag_67\n      jumpi\n        /* \"#utility.yul\":3181:3199   */\n      tag_68\n      tag_28\n      jump\t// in\n    tag_68:\n        /* \"#utility.yul\":3158:3201   */\n    tag_67:\n        /* \"#utility.yul\":3230:3238   */\n      dup4\n        /* \"#utility.yul\":3227:3228   */\n      0x02\n        /* \"#utility.yul\":3223:3239   */\n      exp\n        /* \"#utility.yul\":3214:3239   */\n      swap2\n      pop\n        /* \"#utility.yul\":3265:3268   */\n      dup5\n        /* \"#utility.yul\":3258:3263   */\n      dup3\n        /* \"#utility.yul\":3255:3269   */\n      gt\n        /* \"#utility.yul\":3252:3292   */\n      iszero\n      tag_69\n      jumpi\n        /* \"#utility.yul\":3272:3290   */\n      tag_70\n      tag_28\n      jump\t// in\n    tag_70:\n        /* \"#utility.yul\":3252:3292   */\n    tag_69:\n        /* \"#utility.yul\":3305:3310   */\n      pop\n      jump(tag_61)\n        /* \"#utility.yul\":3043:3320   */\n    tag_64:\n      pop\n        /* \"#utility.yul\":3429:3431   */\n      0x20\n        /* \"#utility.yul\":3419:3427   */\n      dup4\n        /* \"#utility.yul\":3416:3432   */\n      lt\n        /* \"#utility.yul\":3410:3413   */\n      0x0133\n        /* \"#utility.yul\":3404:3408   */\n      dup4\n        /* \"#utility.yul\":3401:3414   */\n      lt\n        /* \"#utility.yul\":3397:3433   */\n      and\n        /* \"#utility.yul\":3379:3381   */\n      0x4e\n        /* \"#utility.yul\":3369:3377   */\n      dup5\n        /* \"#utility.yul\":3366:3382   */\n      lt\n        /* \"#utility.yul\":3361:3363   */\n      0x0b\n        /* \"#utility.yul\":3355:3359   */\n      dup5\n        /* \"#utility.yul\":3352:3364   */\n      lt\n        /* \"#utility.yul\":3348:3383   */\n      and\n        /* \"#utility.yul\":3332:3443   */\n      or\n        /* \"#utility.yul\":3329:3575   */\n      iszero\n      tag_71\n      jumpi\n        /* \"#utility.yul\":3485:3493   */\n      dup3\n        /* \"#utility.yul\":3479:3483   */\n      dup3\n        /* \"#utility.yul\":3475:3494   */\n      exp\n        /* \"#utility.yul\":3466:3494   */\n      swap1\n      pop\n        /* \"#utility.yul\":3520:3523   */\n      dup4\n        /* \"#utility.yul\":3513:3518   */\n      dup2\n        /* \"#utility.yul\":3510:3524   */\n      gt\n        /* \"#utility.yul\":3507:3547   */\n      iszero\n      tag_72\n      jumpi\n        /* \"#utility.yul\":3527:3545   */\n      tag_73\n      tag_28\n      jump\t// in\n    tag_73:\n        /* \"#utility.yul\":3507:3547   */\n    tag_72:\n        /* \"#utility.yul\":3560:3565   */\n      jump(tag_61)\n        /* \"#utility.yul\":3329:3575   */\n    tag_71:\n        /* \"#utility.yul\":3600:3642   */\n      tag_74\n        /* \"#utility.yul\":3638:3641   */\n      dup5\n        /* \"#utility.yul\":3628:3636   */\n      dup5\n        /* \"#utility.yul\":3622:3626   */\n      dup5\n        /* \"#utility.yul\":3619:3620   */\n      0x01\n        /* \"#utility.yul\":3600:3642   */\n      tag_30\n      jump\t// in\n    tag_74:\n        /* \"#utility.yul\":3585:3642   */\n      swap3\n      pop\n      swap1\n      pop\n        /* \"#utility.yul\":3674:3678   */\n      dup2\n        /* \"#utility.yul\":3669:3672   */\n      dup5\n        /* \"#utility.yul\":3665:3679   */\n      div\n        /* \"#utility.yul\":3658:3663   */\n      dup2\n        /* \"#utility.yul\":3655:3680   */\n      gt\n        /* \"#utility.yul\":3652:3703   */\n      iszero\n      tag_75\n      jumpi\n        /* \"#utility.yul\":3683:3701   */\n      tag_76\n      tag_28\n      jump\t// in\n    tag_76:\n        /* \"#utility.yul\":3652:3703   */\n    tag_75:\n        /* \"#utility.yul\":3732:3736   */\n      dup2\n        /* \"#utility.yul\":3725:3730   */\n      dup2\n        /* \"#utility.yul\":3721:3737   */\n      mul\n        /* \"#utility.yul\":3712:3737   */\n      swap1\n      pop\n        /* \"#utility.yul\":2670:3743   */\n    tag_61:\n      swap4\n      swap3\n      pop\n      pop\n      pop\n      jump\t// out\n        /* \"#utility.yul\":3749:4034   */\n    tag_20:\n        /* \"#utility.yul\":3809:3814   */\n      0x00\n        /* \"#utility.yul\":3833:3856   */\n      tag_78\n        /* \"#utility.yul\":3851:3855   */\n      dup3\n        /* \"#utility.yul\":3833:3856   */\n      tag_21\n      jump\t// in\n    tag_78:\n        /* \"#utility.yul\":3825:3856   */\n      swap2\n      pop\n        /* \"#utility.yul\":3877:3904   */\n      tag_79\n        /* \"#utility.yul\":3895:3903   */\n      dup4\n        /* \"#utility.yul\":3877:3904   */\n      tag_21\n      jump\t// in\n    tag_79:\n        /* \"#utility.yul\":3865:3904   */\n      swap3\n      pop\n        /* \"#utility.yul\":3923:4027   */\n      tag_80\n        /* \"#utility.yul\":3960:4026   */\n      0xffffffffffffffffffffffffffffffffffffffffffffffffffffffffffffffff\n        /* \"#utility.yul\":3950:3958   */\n      dup5\n        /* \"#utility.yul\":3944:3948   */\n      dup5\n        /* \"#utility.yul\":3923:4027   */\n      tag_31\n      jump\t// in\n    tag_80:\n        /* \"#utility.yul\":3914:4027   */\n      swap1\n      pop\n        /* \"#utility.yul\":3749:4034   */\n      swap3\n      swap2\n      pop\n      pop\n      jump\t// out\n\n    auxdata: 0xa2646970667358221220ac13142574ae744ee7c50131af23372c30d21069591bf3540deee3b384212ec064736f6c634300081e0033\n}\n",
				"bytecode": {
					"linkReferences": {},
					"object": "608060405260015f5560026001553480156017575f5ffd5b50610348806100255f395ff3fe608060405234801561000f575f5ffd5b506004361061003f575f3560e01c806395cacbe014610043578063a58dc1e714610061578063c82fdf3614610091575b5f5ffd5b61004b6100af565b60405161005891906100e7565b60405180910390f35b61007b6004803603810190610076919061012e565b6100b5565b60405161008891906100e7565b60405180910390f35b6100996100ca565b6040516100a691906100e7565b60405180910390f35b60015481565b5f81836100c291906102c8565b905092915050565b5f5481565b5f819050919050565b6100e1816100cf565b82525050565b5f6020820190506100fa5f8301846100d8565b92915050565b5f5ffd5b61010d816100cf565b8114610117575f5ffd5b50565b5f8135905061012881610104565b92915050565b5f5f6040838503121561014457610143610100565b5b5f6101518582860161011a565b92505060206101628582860161011a565b9150509250929050565b7f4e487b71000000000000000000000000000000000000000000000000000000005f52601160045260245ffd5b5f8160011c9050919050565b5f5f8291508390505b60018511156101ee578086048111156101ca576101c961016c565b5b60018516156101d95780820291505b80810290506101e785610199565b94506101ae565b94509492505050565b5f8261020657600190506102c1565b81610213575f90506102c1565b8160018114610229576002811461023357610262565b60019150506102c1565b60ff8411156102455761024461016c565b5b8360020a91508482111561025c5761025b61016c565b5b506102c1565b5060208310610133831016604e8410600b84101617156102975782820a9050838111156102925761029161016c565b5b6102c1565b6102a484848460016101a5565b925090508184048111156102bb576102ba61016c565b5b81810290505b9392505050565b5f6102d2826100cf565b91506102dd836100cf565b925061030a7fffffffffffffffffffffffffffffffffffffffffffffffffffffffffffffffff84846101f7565b90509291505056fea2646970667358221220ac13142574ae744ee7c50131af23372c30d21069591bf3540deee3b384212ec064736f6c634300081e0033",
					"opcodes": "PUSH1 0x80 PUSH1 0x40 MSTORE PUSH1 0x1 PUSH0 SSTORE PUSH1 0x2 PUSH1 0x1 SSTORE CALLVALUE DUP1 ISZERO PUSH1 0x17 JUMPI PUSH0 PUSH0 REVERT JUMPDEST POP PUSH2 0x348 DUP1 PUSH2 0x25 PUSH0 CODECOPY PUSH0 RETURN INVALID PUSH1 0x80 PUSH1 0x40 MSTORE CALLVALUE DUP1 ISZERO PUSH2 0xF JUMPI PUSH0 PUSH0 REVERT JUMPDEST POP PUSH1 0x4 CALLDATASIZE LT PUSH2 0x3F JUMPI PUSH0 CALLDATALOAD PUSH1 0xE0 SHR DUP1 PUSH4 0x95CACBE0 EQ PUSH2 0x43 JUMPI DUP1 PUSH4 0xA58DC1E7 EQ PUSH2 0x61 JUMPI DUP1 PUSH4 0xC82FDF36 EQ PUSH2 0x91 JUMPI JUMPDEST PUSH0 PUSH0 REVERT JUMPDEST PUSH2 0x4B PUSH2 0xAF JUMP JUMPDEST PUSH1 0x40 MLOAD PUSH2 0x58 SWAP2 SWAP1 PUSH2 0xE7 JUMP JUMPDEST PUSH1 0x40 MLOAD DUP1 SWAP2 SUB SWAP1 RETURN JUMPDEST PUSH2 0x7B PUSH1 0x4 DUP1 CALLDATASIZE SUB DUP2 ADD SWAP1 PUSH2 0x76 SWAP2 SWAP1 PUSH2 0x12E JUMP JUMPDEST PUSH2 0xB5 JUMP JUMPDEST PUSH1 0x40 MLOAD PUSH2 0x88 SWAP2 SWAP1 PUSH2 0xE7 JUMP JUMPDEST PUSH1 0x40 MLOAD DUP1 SWAP2 SUB SWAP1 RETURN JUMPDEST PUSH2 0x99 PUSH2 0xCA JUMP JUMPDEST PUSH1 0x40 MLOAD PUSH2 0xA6 SWAP2 SWAP1 PUSH2 0xE7 JUMP JUMPDEST PUSH1 0x40 MLOAD DUP1 SWAP2 SUB SWAP1 RETURN JUMPDEST PUSH1 0x1 SLOAD DUP2 JUMP JUMPDEST PUSH0 DUP2 DUP4 PUSH2 0xC2 SWAP2 SWAP1 PUSH2 0x2C8 JUMP JUMPDEST SWAP1 POP SWAP3 SWAP2 POP POP JUMP JUMPDEST PUSH0 SLOAD DUP2 JUMP JUMPDEST PUSH0 DUP2 SWAP1 POP SWAP2 SWAP1 POP JUMP JUMPDEST PUSH2 0xE1 DUP2 PUSH2 0xCF JUMP JUMPDEST DUP3 MSTORE POP POP JUMP JUMPDEST PUSH0 PUSH1 0x20 DUP3 ADD SWAP1 POP PUSH2 0xFA PUSH0 DUP4 ADD DUP5 PUSH2 0xD8 JUMP JUMPDEST SWAP3 SWAP2 POP POP JUMP JUMPDEST PUSH0 PUSH0 REVERT JUMPDEST PUSH2 0x10D DUP2 PUSH2 0xCF JUMP JUMPDEST DUP2 EQ PUSH2 0x117 JUMPI PUSH0 PUSH0 REVERT JUMPDEST POP JUMP JUMPDEST PUSH0 DUP2 CALLDATALOAD SWAP1 POP PUSH2 0x128 DUP2 PUSH2 0x104 JUMP JUMPDEST SWAP3 SWAP2 POP POP JUMP JUMPDEST PUSH0 PUSH0 PUSH1 0x40 DUP4 DUP6 SUB SLT ISZERO PUSH2 0x144 JUMPI PUSH2 0x143 PUSH2 0x100 JUMP JUMPDEST JUMPDEST PUSH0 PUSH2 0x151 DUP6 DUP3 DUP7 ADD PUSH2 0x11A JUMP JUMPDEST SWAP3 POP POP PUSH1 0x20 PUSH2 0x162 DUP6 DUP3 DUP7 ADD PUSH2 0x11A JUMP JUMPDEST SWAP2 POP POP SWAP3 POP SWAP3 SWAP1 POP JUMP JUMPDEST PUSH32 0x4E487B7100000000000000000000000000000000000000000000000000000000 PUSH0 MSTORE PUSH1 0x11 PUSH1 0x4 MSTORE PUSH1 0x24 PUSH0 REVERT JUMPDEST PUSH0 DUP2 PUSH1 0x1 SHR SWAP1 POP SWAP2 SWAP1 POP JUMP JUMPDEST PUSH0 PUSH0 DUP3 SWAP2 POP DUP4 SWAP1 POP JUMPDEST PUSH1 0x1 DUP6 GT ISZERO PUSH2 0x1EE JUMPI DUP1 DUP7 DIV DUP2 GT ISZERO PUSH2 0x1CA JUMPI PUSH2 0x1C9 PUSH2 0x16C JUMP JUMPDEST JUMPDEST PUSH1 0x1 DUP6 AND ISZERO PUSH2 0x1D9 JUMPI DUP1 DUP3 MUL SWAP2 POP JUMPDEST DUP1 DUP2 MUL SWAP1 POP PUSH2 0x1E7 DUP6 PUSH2 0x199 JUMP JUMPDEST SWAP5 POP PUSH2 0x1AE JUMP JUMPDEST SWAP5 POP SWAP5 SWAP3 POP POP POP JUMP JUMPDEST PUSH0 DUP3 PUSH2 0x206 JUMPI PUSH1 0x1 SWAP1 POP PUSH2 0x2C1 JUMP JUMPDEST DUP2 PUSH2 0x213 JUMPI PUSH0 SWAP1 POP PUSH2 0x2C1 JUMP JUMPDEST DUP2 PUSH1 0x1 DUP2 EQ PUSH2 0x229 JUMPI PUSH1 0x2 DUP2 EQ PUSH2 0x233 JUMPI PUSH2 0x262 JUMP JUMPDEST PUSH1 0x1 SWAP2 POP POP PUSH2 0x2C1 JUMP JUMPDEST PUSH1 0xFF DUP5 GT ISZERO PUSH2 0x245 JUMPI PUSH2 0x244 PUSH2 0x16C JUMP JUMPDEST JUMPDEST DUP4 PUSH1 0x2 EXP SWAP2 POP DUP5 DUP3 GT ISZERO PUSH2 0x25C JUMPI PUSH2 0x25B PUSH2 0x16C JUMP JUMPDEST JUMPDEST POP PUSH2 0x2C1 JUMP JUMPDEST POP PUSH1 0x20 DUP4 LT PUSH2 0x133 DUP4 LT AND PUSH1 0x4E DUP5 LT PUSH1 0xB DUP5 LT AND OR ISZERO PUSH2 0x297 JUMPI DUP3 DUP3 EXP SWAP1 POP DUP4 DUP2 GT ISZERO PUSH2 0x292 JUMPI PUSH2 0x291 PUSH2 0x16C JUMP JUMPDEST JUMPDEST PUSH2 0x2C1 JUMP JUMPDEST PUSH2 0x2A4 DUP5 DUP5 DUP5 PUSH1 0x1 PUSH2 0x1A5 JUMP JUMPDEST SWAP3 POP SWAP1 POP DUP2 DUP5 DIV DUP2 GT ISZERO PUSH2 0x2BB JUMPI PUSH2 0x2BA PUSH2 0x16C JUMP JUMPDEST JUMPDEST DUP2 DUP2 MUL SWAP1 POP JUMPDEST SWAP4 SWAP3 POP POP POP JUMP JUMPDEST PUSH0 PUSH2 0x2D2 DUP3 PUSH2 0xCF JUMP JUMPDEST SWAP2 POP PUSH2 0x2DD DUP4 PUSH2 0xCF JUMP JUMPDEST SWAP3 POP PUSH2 0x30A PUSH32 0xFFFFFFFFFFFFFFFFFFFFFFFFFFFFFFFFFFFFFFFFFFFFFFFFFFFFFFFFFFFFFFFF DUP5 DUP5 PUSH2 0x1F7 JUMP JUMPDEST SWAP1 POP SWAP3 SWAP2 POP POP JUMP INVALID LOG2 PUSH5 0x6970667358 0x22 SLT KECCAK256 0xAC SGT EQ 0x25 PUSH21 0xAE744EE7C50131AF23372C30D21069591BF3540DEE CALLF 0xB384 0x21 0x2E 0xC0 PUSH5 0x736F6C6343 STOP ADDMOD 0x1E STOP CALLER "
				},
				"gasEstimates": {
					"creation": {
						"codeDepositCost": "168000",
						"executionCost": "44423",
						"totalCost": "212423"
					},
					"external": {
						"calculete(uint256,uint256)": "infinite",
						"val1()": "2446",
						"val2()": "2403"
					}
				},
				"methodIdentifiers": {
					"calculete(uint256,uint256)": "a58dc1e7",
					"val1()": "c82fdf36",
					"val2()": "95cacbe0"
				}
			},
			"storageLayout": {
				"storage": [
					{
						"astId": 4,
						"contract": "Introdução ao Solidity/Aprenda Solidity/Herança múltipla.sol:C",
						"label": "val1",
						"offset": 0,
						"slot": "0",
						"type": "t_uint256"
					},
					{
						"astId": 22,
						"contract": "Introdução ao Solidity/Aprenda Solidity/Herança múltipla.sol:C",
						"label": "val2",
						"offset": 0,
						"slot": "1",
						"type": "t_uint256"
					}
				],
				"types": {
					"t_uint256": {
						"encoding": "inplace",
						"label": "uint256",
						"numberOfBytes": "32"
					}
				}
			},
			"userdoc": {
				"kind": "user",
				"methods": {},
				"version": 1
			}
		}
	}
}