{
	"Introdução ao Solidity/Aprenda Solidity/Estrutura.sol": {
		"Estrutura": {
			"abi": [
				{
					"inputs": [],
					"name": "Buscar_Pessoa",
					"outputs": [
						{
							"internalType": "string",
							"name": "",
							"type": "string"
						},
						{
							"internalType": "string",
							"name": "",
							"type": "string"
						},
						{
							"internalType": "uint256",
							"name": "",
							"type": "uint256"
						}
					],
					"stateMutability": "view",
					"type": "function"
				},
				{
					"inputs": [
						{
							"internalType": "string",
							"name": "_nome",
							"type": "string"
						},
						{
							"internalType": "string",
							"name": "_Ulnome",
							"type": "string"
						},
						{
							"internalType": "uint256",
							"name": "_idade",
							"type": "uint256"
						}
					],
					"name": "Cadastrar",
					"outputs": [],
					"stateMutability": "nonpayable",
					"type": "function"
				},
				{
					"inputs": [],
					"name": "person",
					"outputs": [
						{
							"internalType": "string",
							"name": "Nome",
							"type": "string"
						},
						{
							"internalType": "string",
							"name": "UltimoNOme",
							"type": "string"
						},
						{
							"internalType": "uint256",
							"name": "Idade",
							"type": "uint256"
						}
					],
					"stateMutability": "view",
					"type": "function"
				}
			],
			"devdoc": {
				"kind": "dev",
				"methods": {},
				"version": 1
			},
			"evm": {
				"assembly": "    /* \"Introdu\\xc3\\xa7\\xc3\\xa3o ao Solidity/Aprenda Solidity/Estrutura.sol\":61:583  contract Estrutura{... */\n  mstore(0x40, 0x80)\n  callvalue\n  dup1\n  iszero\n  tag_1\n  jumpi\n  revert(0x00, 0x00)\ntag_1:\n  pop\n  dataSize(sub_0)\n  dup1\n  dataOffset(sub_0)\n  0x00\n  codecopy\n  0x00\n  return\nstop\n\nsub_0: assembly {\n        /* \"Introdu\\xc3\\xa7\\xc3\\xa3o ao Solidity/Aprenda Solidity/Estrutura.sol\":61:583  contract Estrutura{... */\n      mstore(0x40, 0x80)\n      callvalue\n      dup1\n      iszero\n      tag_1\n      jumpi\n      revert(0x00, 0x00)\n    tag_1:\n      pop\n      jumpi(tag_2, lt(calldatasize, 0x04))\n      shr(0xe0, calldataload(0x00))\n      dup1\n      0x17757f91\n      eq\n      tag_3\n      jumpi\n      dup1\n      0x77ec2b55\n      eq\n      tag_4\n      jumpi\n      dup1\n      0x8924cc23\n      eq\n      tag_5\n      jumpi\n    tag_2:\n      revert(0x00, 0x00)\n        /* \"Introdu\\xc3\\xa7\\xc3\\xa3o ao Solidity/Aprenda Solidity/Estrutura.sol\":217:418  function Cadastrar(string memory _nome, string memory _Ulnome, uint _idade) public {... */\n    tag_3:\n      tag_6\n      0x04\n      dup1\n      calldatasize\n      sub\n      dup2\n      add\n      swap1\n      tag_7\n      swap2\n      swap1\n      tag_8\n      jump\t// in\n    tag_7:\n      tag_9\n      jump\t// in\n    tag_6:\n      stop\n        /* \"Introdu\\xc3\\xa7\\xc3\\xa3o ao Solidity/Aprenda Solidity/Estrutura.sol\":188:208  Person public person */\n    tag_4:\n      tag_10\n      tag_11\n      jump\t// in\n    tag_10:\n      mload(0x40)\n      tag_12\n      swap4\n      swap3\n      swap2\n      swap1\n      tag_13\n      jump\t// in\n    tag_12:\n      mload(0x40)\n      dup1\n      swap2\n      sub\n      swap1\n      return\n        /* \"Introdu\\xc3\\xa7\\xc3\\xa3o ao Solidity/Aprenda Solidity/Estrutura.sol\":426:580  function Buscar_Pessoa() public view returns (string memory, string memory, uint) {... */\n    tag_5:\n      tag_14\n      tag_15\n      jump\t// in\n    tag_14:\n      mload(0x40)\n      tag_16\n      swap4\n      swap3\n      swap2\n      swap1\n      tag_13\n      jump\t// in\n    tag_16:\n      mload(0x40)\n      dup1\n      swap2\n      sub\n      swap1\n      return\n        /* \"Introdu\\xc3\\xa7\\xc3\\xa3o ao Solidity/Aprenda Solidity/Estrutura.sol\":217:418  function Cadastrar(string memory _nome, string memory _Ulnome, uint _idade) public {... */\n    tag_9:\n        /* \"Introdu\\xc3\\xa7\\xc3\\xa3o ao Solidity/Aprenda Solidity/Estrutura.sol\":325:330  _nome */\n      dup3\n        /* \"Introdu\\xc3\\xa7\\xc3\\xa3o ao Solidity/Aprenda Solidity/Estrutura.sol\":311:317  person */\n      0x00\n        /* \"Introdu\\xc3\\xa7\\xc3\\xa3o ao Solidity/Aprenda Solidity/Estrutura.sol\":311:322  person.Nome */\n      0x00\n      add\n        /* \"Introdu\\xc3\\xa7\\xc3\\xa3o ao Solidity/Aprenda Solidity/Estrutura.sol\":311:330  person.Nome = _nome */\n      swap1\n      dup2\n      tag_18\n      swap2\n      swap1\n      tag_19\n      jump\t// in\n    tag_18:\n      pop\n        /* \"Introdu\\xc3\\xa7\\xc3\\xa3o ao Solidity/Aprenda Solidity/Estrutura.sol\":363:370  _Ulnome */\n      dup2\n        /* \"Introdu\\xc3\\xa7\\xc3\\xa3o ao Solidity/Aprenda Solidity/Estrutura.sol\":341:347  person */\n      0x00\n        /* \"Introdu\\xc3\\xa7\\xc3\\xa3o ao Solidity/Aprenda Solidity/Estrutura.sol\":341:358  person.UltimoNOme */\n      0x01\n      add\n        /* \"Introdu\\xc3\\xa7\\xc3\\xa3o ao Solidity/Aprenda Solidity/Estrutura.sol\":341:370  person.UltimoNOme  =  _Ulnome */\n      swap1\n      dup2\n      tag_20\n      swap2\n      swap1\n      tag_19\n      jump\t// in\n    tag_20:\n      pop\n        /* \"Introdu\\xc3\\xa7\\xc3\\xa3o ao Solidity/Aprenda Solidity/Estrutura.sol\":396:402  _idade */\n      dup1\n        /* \"Introdu\\xc3\\xa7\\xc3\\xa3o ao Solidity/Aprenda Solidity/Estrutura.sol\":381:387  person */\n      0x00\n        /* \"Introdu\\xc3\\xa7\\xc3\\xa3o ao Solidity/Aprenda Solidity/Estrutura.sol\":381:393  person.Idade */\n      0x02\n      add\n        /* \"Introdu\\xc3\\xa7\\xc3\\xa3o ao Solidity/Aprenda Solidity/Estrutura.sol\":381:402  person.Idade = _idade */\n      dup2\n      swap1\n      sstore\n      pop\n        /* \"Introdu\\xc3\\xa7\\xc3\\xa3o ao Solidity/Aprenda Solidity/Estrutura.sol\":217:418  function Cadastrar(string memory _nome, string memory _Ulnome, uint _idade) public {... */\n      pop\n      pop\n      pop\n      jump\t// out\n        /* \"Introdu\\xc3\\xa7\\xc3\\xa3o ao Solidity/Aprenda Solidity/Estrutura.sol\":188:208  Person public person */\n    tag_11:\n      0x00\n      dup1\n      0x00\n      add\n      dup1\n      sload\n      tag_21\n      swap1\n      tag_22\n      jump\t// in\n    tag_21:\n      dup1\n      0x1f\n      add\n      0x20\n      dup1\n      swap2\n      div\n      mul\n      0x20\n      add\n      mload(0x40)\n      swap1\n      dup2\n      add\n      0x40\n      mstore\n      dup1\n      swap3\n      swap2\n      swap1\n      dup2\n      dup2\n      mstore\n      0x20\n      add\n      dup3\n      dup1\n      sload\n      tag_23\n      swap1\n      tag_22\n      jump\t// in\n    tag_23:\n      dup1\n      iszero\n      tag_24\n      jumpi\n      dup1\n      0x1f\n      lt\n      tag_25\n      jumpi\n      0x0100\n      dup1\n      dup4\n      sload\n      div\n      mul\n      dup4\n      mstore\n      swap2\n      0x20\n      add\n      swap2\n      jump(tag_24)\n    tag_25:\n      dup3\n      add\n      swap2\n      swap1\n      0x00\n      mstore\n      keccak256(0x00, 0x20)\n      swap1\n    tag_26:\n      dup2\n      sload\n      dup2\n      mstore\n      swap1\n      0x01\n      add\n      swap1\n      0x20\n      add\n      dup1\n      dup4\n      gt\n      tag_26\n      jumpi\n      dup3\n      swap1\n      sub\n      0x1f\n      and\n      dup3\n      add\n      swap2\n    tag_24:\n      pop\n      pop\n      pop\n      pop\n      pop\n      swap1\n      dup1\n      0x01\n      add\n      dup1\n      sload\n      tag_27\n      swap1\n      tag_22\n      jump\t// in\n    tag_27:\n      dup1\n      0x1f\n      add\n      0x20\n      dup1\n      swap2\n      div\n      mul\n      0x20\n      add\n      mload(0x40)\n      swap1\n      dup2\n      add\n      0x40\n      mstore\n      dup1\n      swap3\n      swap2\n      swap1\n      dup2\n      dup2\n      mstore\n      0x20\n      add\n      dup3\n      dup1\n      sload\n      tag_28\n      swap1\n      tag_22\n      jump\t// in\n    tag_28:\n      dup1\n      iszero\n      tag_29\n      jumpi\n      dup1\n      0x1f\n      lt\n      tag_30\n      jumpi\n      0x0100\n      dup1\n      dup4\n      sload\n      div\n      mul\n      dup4\n      mstore\n      swap2\n      0x20\n      add\n      swap2\n      jump(tag_29)\n    tag_30:\n      dup3\n      add\n      swap2\n      swap1\n      0x00\n      mstore\n      keccak256(0x00, 0x20)\n      swap1\n    tag_31:\n      dup2\n      sload\n      dup2\n      mstore\n      swap1\n      0x01\n      add\n      swap1\n      0x20\n      add\n      dup1\n      dup4\n      gt\n      tag_31\n      jumpi\n      dup3\n      swap1\n      sub\n      0x1f\n      and\n      dup3\n      add\n      swap2\n    tag_29:\n      pop\n      pop\n      pop\n      pop\n      pop\n      swap1\n      dup1\n      0x02\n      add\n      sload\n      swap1\n      pop\n      dup4\n      jump\t// out\n        /* \"Introdu\\xc3\\xa7\\xc3\\xa3o ao Solidity/Aprenda Solidity/Estrutura.sol\":426:580  function Buscar_Pessoa() public view returns (string memory, string memory, uint) {... */\n    tag_15:\n        /* \"Introdu\\xc3\\xa7\\xc3\\xa3o ao Solidity/Aprenda Solidity/Estrutura.sol\":472:485  string memory */\n      0x60\n        /* \"Introdu\\xc3\\xa7\\xc3\\xa3o ao Solidity/Aprenda Solidity/Estrutura.sol\":487:500  string memory */\n      dup1\n        /* \"Introdu\\xc3\\xa7\\xc3\\xa3o ao Solidity/Aprenda Solidity/Estrutura.sol\":502:506  uint */\n      0x00\n        /* \"Introdu\\xc3\\xa7\\xc3\\xa3o ao Solidity/Aprenda Solidity/Estrutura.sol\":527:533  person */\n      0x00\n        /* \"Introdu\\xc3\\xa7\\xc3\\xa3o ao Solidity/Aprenda Solidity/Estrutura.sol\":527:538  person.Nome */\n      0x00\n      add\n        /* \"Introdu\\xc3\\xa7\\xc3\\xa3o ao Solidity/Aprenda Solidity/Estrutura.sol\":540:546  person */\n      0x00\n        /* \"Introdu\\xc3\\xa7\\xc3\\xa3o ao Solidity/Aprenda Solidity/Estrutura.sol\":540:557  person.UltimoNOme */\n      0x01\n      add\n        /* \"Introdu\\xc3\\xa7\\xc3\\xa3o ao Solidity/Aprenda Solidity/Estrutura.sol\":559:565  person */\n      0x00\n        /* \"Introdu\\xc3\\xa7\\xc3\\xa3o ao Solidity/Aprenda Solidity/Estrutura.sol\":559:571  person.Idade */\n      0x02\n      add\n      sload\n        /* \"Introdu\\xc3\\xa7\\xc3\\xa3o ao Solidity/Aprenda Solidity/Estrutura.sol\":519:572  return (person.Nome, person.UltimoNOme, person.Idade) */\n      dup3\n      dup1\n      sload\n      tag_33\n      swap1\n      tag_22\n      jump\t// in\n    tag_33:\n      dup1\n      0x1f\n      add\n      0x20\n      dup1\n      swap2\n      div\n      mul\n      0x20\n      add\n      mload(0x40)\n      swap1\n      dup2\n      add\n      0x40\n      mstore\n      dup1\n      swap3\n      swap2\n      swap1\n      dup2\n      dup2\n      mstore\n      0x20\n      add\n      dup3\n      dup1\n      sload\n      tag_34\n      swap1\n      tag_22\n      jump\t// in\n    tag_34:\n      dup1\n      iszero\n      tag_35\n      jumpi\n      dup1\n      0x1f\n      lt\n      tag_36\n      jumpi\n      0x0100\n      dup1\n      dup4\n      sload\n      div\n      mul\n      dup4\n      mstore\n      swap2\n      0x20\n      add\n      swap2\n      jump(tag_35)\n    tag_36:\n      dup3\n      add\n      swap2\n      swap1\n      0x00\n      mstore\n      keccak256(0x00, 0x20)\n      swap1\n    tag_37:\n      dup2\n      sload\n      dup2\n      mstore\n      swap1\n      0x01\n      add\n      swap1\n      0x20\n      add\n      dup1\n      dup4\n      gt\n      tag_37\n      jumpi\n      dup3\n      swap1\n      sub\n      0x1f\n      and\n      dup3\n      add\n      swap2\n    tag_35:\n      pop\n      pop\n      pop\n      pop\n      pop\n      swap3\n      pop\n      dup2\n      dup1\n      sload\n      tag_38\n      swap1\n      tag_22\n      jump\t// in\n    tag_38:\n      dup1\n      0x1f\n      add\n      0x20\n      dup1\n      swap2\n      div\n      mul\n      0x20\n      add\n      mload(0x40)\n      swap1\n      dup2\n      add\n      0x40\n      mstore\n      dup1\n      swap3\n      swap2\n      swap1\n      dup2\n      dup2\n      mstore\n      0x20\n      add\n      dup3\n      dup1\n      sload\n      tag_39\n      swap1\n      tag_22\n      jump\t// in\n    tag_39:\n      dup1\n      iszero\n      tag_40\n      jumpi\n      dup1\n      0x1f\n      lt\n      tag_41\n      jumpi\n      0x0100\n      dup1\n      dup4\n      sload\n      div\n      mul\n      dup4\n      mstore\n      swap2\n      0x20\n      add\n      swap2\n      jump(tag_40)\n    tag_41:\n      dup3\n      add\n      swap2\n      swap1\n      0x00\n      mstore\n      keccak256(0x00, 0x20)\n      swap1\n    tag_42:\n      dup2\n      sload\n      dup2\n      mstore\n      swap1\n      0x01\n      add\n      swap1\n      0x20\n      add\n      dup1\n      dup4\n      gt\n      tag_42\n      jumpi\n      dup3\n      swap1\n      sub\n      0x1f\n      and\n      dup3\n      add\n      swap2\n    tag_40:\n      pop\n      pop\n      pop\n      pop\n      pop\n      swap2\n      pop\n      swap3\n      pop\n      swap3\n      pop\n      swap3\n      pop\n        /* \"Introdu\\xc3\\xa7\\xc3\\xa3o ao Solidity/Aprenda Solidity/Estrutura.sol\":426:580  function Buscar_Pessoa() public view returns (string memory, string memory, uint) {... */\n      swap1\n      swap2\n      swap3\n      jump\t// out\n        /* \"#utility.yul\":7:82   */\n    tag_43:\n        /* \"#utility.yul\":40:46   */\n      0x00\n        /* \"#utility.yul\":73:75   */\n      0x40\n        /* \"#utility.yul\":67:76   */\n      mload\n        /* \"#utility.yul\":57:76   */\n      swap1\n      pop\n        /* \"#utility.yul\":7:82   */\n      swap1\n      jump\t// out\n        /* \"#utility.yul\":88:205   */\n    tag_44:\n        /* \"#utility.yul\":197:198   */\n      0x00\n        /* \"#utility.yul\":194:195   */\n      0x00\n        /* \"#utility.yul\":187:199   */\n      revert\n        /* \"#utility.yul\":211:328   */\n    tag_45:\n        /* \"#utility.yul\":320:321   */\n      0x00\n        /* \"#utility.yul\":317:318   */\n      0x00\n        /* \"#utility.yul\":310:322   */\n      revert\n        /* \"#utility.yul\":334:451   */\n    tag_46:\n        /* \"#utility.yul\":443:444   */\n      0x00\n        /* \"#utility.yul\":440:441   */\n      0x00\n        /* \"#utility.yul\":433:445   */\n      revert\n        /* \"#utility.yul\":457:574   */\n    tag_47:\n        /* \"#utility.yul\":566:567   */\n      0x00\n        /* \"#utility.yul\":563:564   */\n      0x00\n        /* \"#utility.yul\":556:568   */\n      revert\n        /* \"#utility.yul\":580:682   */\n    tag_48:\n        /* \"#utility.yul\":621:627   */\n      0x00\n        /* \"#utility.yul\":672:674   */\n      0x1f\n        /* \"#utility.yul\":668:675   */\n      not\n        /* \"#utility.yul\":663:665   */\n      0x1f\n        /* \"#utility.yul\":656:661   */\n      dup4\n        /* \"#utility.yul\":652:666   */\n      add\n        /* \"#utility.yul\":648:676   */\n      and\n        /* \"#utility.yul\":638:676   */\n      swap1\n      pop\n        /* \"#utility.yul\":580:682   */\n      swap2\n      swap1\n      pop\n      jump\t// out\n        /* \"#utility.yul\":688:868   */\n    tag_49:\n        /* \"#utility.yul\":736:813   */\n      0x4e487b7100000000000000000000000000000000000000000000000000000000\n        /* \"#utility.yul\":733:734   */\n      0x00\n        /* \"#utility.yul\":726:814   */\n      mstore\n        /* \"#utility.yul\":833:837   */\n      0x41\n        /* \"#utility.yul\":830:831   */\n      0x04\n        /* \"#utility.yul\":823:838   */\n      mstore\n        /* \"#utility.yul\":857:861   */\n      0x24\n        /* \"#utility.yul\":854:855   */\n      0x00\n        /* \"#utility.yul\":847:862   */\n      revert\n        /* \"#utility.yul\":874:1155   */\n    tag_50:\n        /* \"#utility.yul\":957:984   */\n      tag_89\n        /* \"#utility.yul\":979:983   */\n      dup3\n        /* \"#utility.yul\":957:984   */\n      tag_48\n      jump\t// in\n    tag_89:\n        /* \"#utility.yul\":949:955   */\n      dup2\n        /* \"#utility.yul\":945:985   */\n      add\n        /* \"#utility.yul\":1087:1093   */\n      dup2\n        /* \"#utility.yul\":1075:1085   */\n      dup2\n        /* \"#utility.yul\":1072:1094   */\n      lt\n        /* \"#utility.yul\":1051:1069   */\n      0xffffffffffffffff\n        /* \"#utility.yul\":1039:1049   */\n      dup3\n        /* \"#utility.yul\":1036:1070   */\n      gt\n        /* \"#utility.yul\":1033:1095   */\n      or\n        /* \"#utility.yul\":1030:1118   */\n      iszero\n      tag_90\n      jumpi\n        /* \"#utility.yul\":1098:1116   */\n      tag_91\n      tag_49\n      jump\t// in\n    tag_91:\n        /* \"#utility.yul\":1030:1118   */\n    tag_90:\n        /* \"#utility.yul\":1138:1148   */\n      dup1\n        /* \"#utility.yul\":1134:1136   */\n      0x40\n        /* \"#utility.yul\":1127:1149   */\n      mstore\n        /* \"#utility.yul\":917:1155   */\n      pop\n        /* \"#utility.yul\":874:1155   */\n      pop\n      pop\n      jump\t// out\n        /* \"#utility.yul\":1161:1290   */\n    tag_51:\n        /* \"#utility.yul\":1195:1201   */\n      0x00\n        /* \"#utility.yul\":1222:1242   */\n      tag_93\n      tag_43\n      jump\t// in\n    tag_93:\n        /* \"#utility.yul\":1212:1242   */\n      swap1\n      pop\n        /* \"#utility.yul\":1251:1284   */\n      tag_94\n        /* \"#utility.yul\":1279:1283   */\n      dup3\n        /* \"#utility.yul\":1271:1277   */\n      dup3\n        /* \"#utility.yul\":1251:1284   */\n      tag_50\n      jump\t// in\n    tag_94:\n        /* \"#utility.yul\":1161:1290   */\n      swap2\n      swap1\n      pop\n      jump\t// out\n        /* \"#utility.yul\":1296:1604   */\n    tag_52:\n        /* \"#utility.yul\":1358:1362   */\n      0x00\n        /* \"#utility.yul\":1448:1466   */\n      0xffffffffffffffff\n        /* \"#utility.yul\":1440:1446   */\n      dup3\n        /* \"#utility.yul\":1437:1467   */\n      gt\n        /* \"#utility.yul\":1434:1490   */\n      iszero\n      tag_96\n      jumpi\n        /* \"#utility.yul\":1470:1488   */\n      tag_97\n      tag_49\n      jump\t// in\n    tag_97:\n        /* \"#utility.yul\":1434:1490   */\n    tag_96:\n        /* \"#utility.yul\":1508:1537   */\n      tag_98\n        /* \"#utility.yul\":1530:1536   */\n      dup3\n        /* \"#utility.yul\":1508:1537   */\n      tag_48\n      jump\t// in\n    tag_98:\n        /* \"#utility.yul\":1500:1537   */\n      swap1\n      pop\n        /* \"#utility.yul\":1592:1596   */\n      0x20\n        /* \"#utility.yul\":1586:1590   */\n      dup2\n        /* \"#utility.yul\":1582:1597   */\n      add\n        /* \"#utility.yul\":1574:1597   */\n      swap1\n      pop\n        /* \"#utility.yul\":1296:1604   */\n      swap2\n      swap1\n      pop\n      jump\t// out\n        /* \"#utility.yul\":1610:1758   */\n    tag_53:\n        /* \"#utility.yul\":1708:1714   */\n      dup3\n        /* \"#utility.yul\":1703:1706   */\n      dup2\n        /* \"#utility.yul\":1698:1701   */\n      dup4\n        /* \"#utility.yul\":1685:1715   */\n      calldatacopy\n        /* \"#utility.yul\":1749:1750   */\n      0x00\n        /* \"#utility.yul\":1740:1746   */\n      dup4\n        /* \"#utility.yul\":1735:1738   */\n      dup4\n        /* \"#utility.yul\":1731:1747   */\n      add\n        /* \"#utility.yul\":1724:1751   */\n      mstore\n        /* \"#utility.yul\":1610:1758   */\n      pop\n      pop\n      pop\n      jump\t// out\n        /* \"#utility.yul\":1764:2189   */\n    tag_54:\n        /* \"#utility.yul\":1842:1847   */\n      0x00\n        /* \"#utility.yul\":1867:1933   */\n      tag_101\n        /* \"#utility.yul\":1883:1932   */\n      tag_102\n        /* \"#utility.yul\":1925:1931   */\n      dup5\n        /* \"#utility.yul\":1883:1932   */\n      tag_52\n      jump\t// in\n    tag_102:\n        /* \"#utility.yul\":1867:1933   */\n      tag_51\n      jump\t// in\n    tag_101:\n        /* \"#utility.yul\":1858:1933   */\n      swap1\n      pop\n        /* \"#utility.yul\":1956:1962   */\n      dup3\n        /* \"#utility.yul\":1949:1954   */\n      dup2\n        /* \"#utility.yul\":1942:1963   */\n      mstore\n        /* \"#utility.yul\":1994:1998   */\n      0x20\n        /* \"#utility.yul\":1987:1992   */\n      dup2\n        /* \"#utility.yul\":1983:1999   */\n      add\n        /* \"#utility.yul\":2032:2035   */\n      dup5\n        /* \"#utility.yul\":2023:2029   */\n      dup5\n        /* \"#utility.yul\":2018:2021   */\n      dup5\n        /* \"#utility.yul\":2014:2030   */\n      add\n        /* \"#utility.yul\":2011:2036   */\n      gt\n        /* \"#utility.yul\":2008:2120   */\n      iszero\n      tag_103\n      jumpi\n        /* \"#utility.yul\":2039:2118   */\n      tag_104\n      tag_47\n      jump\t// in\n    tag_104:\n        /* \"#utility.yul\":2008:2120   */\n    tag_103:\n        /* \"#utility.yul\":2129:2183   */\n      tag_105\n        /* \"#utility.yul\":2176:2182   */\n      dup5\n        /* \"#utility.yul\":2171:2174   */\n      dup3\n        /* \"#utility.yul\":2166:2169   */\n      dup6\n        /* \"#utility.yul\":2129:2183   */\n      tag_53\n      jump\t// in\n    tag_105:\n        /* \"#utility.yul\":1848:2189   */\n      pop\n        /* \"#utility.yul\":1764:2189   */\n      swap4\n      swap3\n      pop\n      pop\n      pop\n      jump\t// out\n        /* \"#utility.yul\":2209:2549   */\n    tag_55:\n        /* \"#utility.yul\":2265:2270   */\n      0x00\n        /* \"#utility.yul\":2314:2317   */\n      dup3\n        /* \"#utility.yul\":2307:2311   */\n      0x1f\n        /* \"#utility.yul\":2299:2305   */\n      dup4\n        /* \"#utility.yul\":2295:2312   */\n      add\n        /* \"#utility.yul\":2291:2318   */\n      slt\n        /* \"#utility.yul\":2281:2403   */\n      tag_107\n      jumpi\n        /* \"#utility.yul\":2322:2401   */\n      tag_108\n      tag_46\n      jump\t// in\n    tag_108:\n        /* \"#utility.yul\":2281:2403   */\n    tag_107:\n        /* \"#utility.yul\":2439:2445   */\n      dup2\n        /* \"#utility.yul\":2426:2446   */\n      calldataload\n        /* \"#utility.yul\":2464:2543   */\n      tag_109\n        /* \"#utility.yul\":2539:2542   */\n      dup5\n        /* \"#utility.yul\":2531:2537   */\n      dup3\n        /* \"#utility.yul\":2524:2528   */\n      0x20\n        /* \"#utility.yul\":2516:2522   */\n      dup7\n        /* \"#utility.yul\":2512:2529   */\n      add\n        /* \"#utility.yul\":2464:2543   */\n      tag_54\n      jump\t// in\n    tag_109:\n        /* \"#utility.yul\":2455:2543   */\n      swap2\n      pop\n        /* \"#utility.yul\":2271:2549   */\n      pop\n        /* \"#utility.yul\":2209:2549   */\n      swap3\n      swap2\n      pop\n      pop\n      jump\t// out\n        /* \"#utility.yul\":2555:2632   */\n    tag_56:\n        /* \"#utility.yul\":2592:2599   */\n      0x00\n        /* \"#utility.yul\":2621:2626   */\n      dup2\n        /* \"#utility.yul\":2610:2626   */\n      swap1\n      pop\n        /* \"#utility.yul\":2555:2632   */\n      swap2\n      swap1\n      pop\n      jump\t// out\n        /* \"#utility.yul\":2638:2760   */\n    tag_57:\n        /* \"#utility.yul\":2711:2735   */\n      tag_112\n        /* \"#utility.yul\":2729:2734   */\n      dup2\n        /* \"#utility.yul\":2711:2735   */\n      tag_56\n      jump\t// in\n    tag_112:\n        /* \"#utility.yul\":2704:2709   */\n      dup2\n        /* \"#utility.yul\":2701:2736   */\n      eq\n        /* \"#utility.yul\":2691:2754   */\n      tag_113\n      jumpi\n        /* \"#utility.yul\":2750:2751   */\n      0x00\n        /* \"#utility.yul\":2747:2748   */\n      0x00\n        /* \"#utility.yul\":2740:2752   */\n      revert\n        /* \"#utility.yul\":2691:2754   */\n    tag_113:\n        /* \"#utility.yul\":2638:2760   */\n      pop\n      jump\t// out\n        /* \"#utility.yul\":2766:2905   */\n    tag_58:\n        /* \"#utility.yul\":2812:2817   */\n      0x00\n        /* \"#utility.yul\":2850:2856   */\n      dup2\n        /* \"#utility.yul\":2837:2857   */\n      calldataload\n        /* \"#utility.yul\":2828:2857   */\n      swap1\n      pop\n        /* \"#utility.yul\":2866:2899   */\n      tag_115\n        /* \"#utility.yul\":2893:2898   */\n      dup2\n        /* \"#utility.yul\":2866:2899   */\n      tag_57\n      jump\t// in\n    tag_115:\n        /* \"#utility.yul\":2766:2905   */\n      swap3\n      swap2\n      pop\n      pop\n      jump\t// out\n        /* \"#utility.yul\":2911:3890   */\n    tag_8:\n        /* \"#utility.yul\":3008:3014   */\n      0x00\n        /* \"#utility.yul\":3016:3022   */\n      0x00\n        /* \"#utility.yul\":3024:3030   */\n      0x00\n        /* \"#utility.yul\":3073:3075   */\n      0x60\n        /* \"#utility.yul\":3061:3070   */\n      dup5\n        /* \"#utility.yul\":3052:3059   */\n      dup7\n        /* \"#utility.yul\":3048:3071   */\n      sub\n        /* \"#utility.yul\":3044:3076   */\n      slt\n        /* \"#utility.yul\":3041:3160   */\n      iszero\n      tag_117\n      jumpi\n        /* \"#utility.yul\":3079:3158   */\n      tag_118\n      tag_44\n      jump\t// in\n    tag_118:\n        /* \"#utility.yul\":3041:3160   */\n    tag_117:\n        /* \"#utility.yul\":3227:3228   */\n      0x00\n        /* \"#utility.yul\":3216:3225   */\n      dup5\n        /* \"#utility.yul\":3212:3229   */\n      add\n        /* \"#utility.yul\":3199:3230   */\n      calldataload\n        /* \"#utility.yul\":3257:3275   */\n      0xffffffffffffffff\n        /* \"#utility.yul\":3249:3255   */\n      dup2\n        /* \"#utility.yul\":3246:3276   */\n      gt\n        /* \"#utility.yul\":3243:3360   */\n      iszero\n      tag_119\n      jumpi\n        /* \"#utility.yul\":3279:3358   */\n      tag_120\n      tag_45\n      jump\t// in\n    tag_120:\n        /* \"#utility.yul\":3243:3360   */\n    tag_119:\n        /* \"#utility.yul\":3384:3447   */\n      tag_121\n        /* \"#utility.yul\":3439:3446   */\n      dup7\n        /* \"#utility.yul\":3430:3436   */\n      dup3\n        /* \"#utility.yul\":3419:3428   */\n      dup8\n        /* \"#utility.yul\":3415:3437   */\n      add\n        /* \"#utility.yul\":3384:3447   */\n      tag_55\n      jump\t// in\n    tag_121:\n        /* \"#utility.yul\":3374:3447   */\n      swap4\n      pop\n        /* \"#utility.yul\":3170:3457   */\n      pop\n        /* \"#utility.yul\":3524:3526   */\n      0x20\n        /* \"#utility.yul\":3513:3522   */\n      dup5\n        /* \"#utility.yul\":3509:3527   */\n      add\n        /* \"#utility.yul\":3496:3528   */\n      calldataload\n        /* \"#utility.yul\":3555:3573   */\n      0xffffffffffffffff\n        /* \"#utility.yul\":3547:3553   */\n      dup2\n        /* \"#utility.yul\":3544:3574   */\n      gt\n        /* \"#utility.yul\":3541:3658   */\n      iszero\n      tag_122\n      jumpi\n        /* \"#utility.yul\":3577:3656   */\n      tag_123\n      tag_45\n      jump\t// in\n    tag_123:\n        /* \"#utility.yul\":3541:3658   */\n    tag_122:\n        /* \"#utility.yul\":3682:3745   */\n      tag_124\n        /* \"#utility.yul\":3737:3744   */\n      dup7\n        /* \"#utility.yul\":3728:3734   */\n      dup3\n        /* \"#utility.yul\":3717:3726   */\n      dup8\n        /* \"#utility.yul\":3713:3735   */\n      add\n        /* \"#utility.yul\":3682:3745   */\n      tag_55\n      jump\t// in\n    tag_124:\n        /* \"#utility.yul\":3672:3745   */\n      swap3\n      pop\n        /* \"#utility.yul\":3467:3755   */\n      pop\n        /* \"#utility.yul\":3794:3796   */\n      0x40\n        /* \"#utility.yul\":3820:3873   */\n      tag_125\n        /* \"#utility.yul\":3865:3872   */\n      dup7\n        /* \"#utility.yul\":3856:3862   */\n      dup3\n        /* \"#utility.yul\":3845:3854   */\n      dup8\n        /* \"#utility.yul\":3841:3863   */\n      add\n        /* \"#utility.yul\":3820:3873   */\n      tag_58\n      jump\t// in\n    tag_125:\n        /* \"#utility.yul\":3810:3873   */\n      swap2\n      pop\n        /* \"#utility.yul\":3765:3883   */\n      pop\n        /* \"#utility.yul\":2911:3890   */\n      swap3\n      pop\n      swap3\n      pop\n      swap3\n      jump\t// out\n        /* \"#utility.yul\":3896:3995   */\n    tag_59:\n        /* \"#utility.yul\":3948:3954   */\n      0x00\n        /* \"#utility.yul\":3982:3987   */\n      dup2\n        /* \"#utility.yul\":3976:3988   */\n      mload\n        /* \"#utility.yul\":3966:3988   */\n      swap1\n      pop\n        /* \"#utility.yul\":3896:3995   */\n      swap2\n      swap1\n      pop\n      jump\t// out\n        /* \"#utility.yul\":4001:4170   */\n    tag_60:\n        /* \"#utility.yul\":4085:4096   */\n      0x00\n        /* \"#utility.yul\":4119:4125   */\n      dup3\n        /* \"#utility.yul\":4114:4117   */\n      dup3\n        /* \"#utility.yul\":4107:4126   */\n      mstore\n        /* \"#utility.yul\":4159:4163   */\n      0x20\n        /* \"#utility.yul\":4154:4157   */\n      dup3\n        /* \"#utility.yul\":4150:4164   */\n      add\n        /* \"#utility.yul\":4135:4164   */\n      swap1\n      pop\n        /* \"#utility.yul\":4001:4170   */\n      swap3\n      swap2\n      pop\n      pop\n      jump\t// out\n        /* \"#utility.yul\":4176:4315   */\n    tag_61:\n        /* \"#utility.yul\":4265:4271   */\n      dup3\n        /* \"#utility.yul\":4260:4263   */\n      dup2\n        /* \"#utility.yul\":4255:4258   */\n      dup4\n        /* \"#utility.yul\":4249:4272   */\n      mcopy\n        /* \"#utility.yul\":4306:4307   */\n      0x00\n        /* \"#utility.yul\":4297:4303   */\n      dup4\n        /* \"#utility.yul\":4292:4295   */\n      dup4\n        /* \"#utility.yul\":4288:4304   */\n      add\n        /* \"#utility.yul\":4281:4308   */\n      mstore\n        /* \"#utility.yul\":4176:4315   */\n      pop\n      pop\n      pop\n      jump\t// out\n        /* \"#utility.yul\":4321:4698   */\n    tag_62:\n        /* \"#utility.yul\":4409:4412   */\n      0x00\n        /* \"#utility.yul\":4437:4476   */\n      tag_130\n        /* \"#utility.yul\":4470:4475   */\n      dup3\n        /* \"#utility.yul\":4437:4476   */\n      tag_59\n      jump\t// in\n    tag_130:\n        /* \"#utility.yul\":4492:4563   */\n      tag_131\n        /* \"#utility.yul\":4556:4562   */\n      dup2\n        /* \"#utility.yul\":4551:4554   */\n      dup6\n        /* \"#utility.yul\":4492:4563   */\n      tag_60\n      jump\t// in\n    tag_131:\n        /* \"#utility.yul\":4485:4563   */\n      swap4\n      pop\n        /* \"#utility.yul\":4572:4637   */\n      tag_132\n        /* \"#utility.yul\":4630:4636   */\n      dup2\n        /* \"#utility.yul\":4625:4628   */\n      dup6\n        /* \"#utility.yul\":4618:4622   */\n      0x20\n        /* \"#utility.yul\":4611:4616   */\n      dup7\n        /* \"#utility.yul\":4607:4623   */\n      add\n        /* \"#utility.yul\":4572:4637   */\n      tag_61\n      jump\t// in\n    tag_132:\n        /* \"#utility.yul\":4662:4691   */\n      tag_133\n        /* \"#utility.yul\":4684:4690   */\n      dup2\n        /* \"#utility.yul\":4662:4691   */\n      tag_48\n      jump\t// in\n    tag_133:\n        /* \"#utility.yul\":4657:4660   */\n      dup5\n        /* \"#utility.yul\":4653:4692   */\n      add\n        /* \"#utility.yul\":4646:4692   */\n      swap2\n      pop\n        /* \"#utility.yul\":4413:4698   */\n      pop\n        /* \"#utility.yul\":4321:4698   */\n      swap3\n      swap2\n      pop\n      pop\n      jump\t// out\n        /* \"#utility.yul\":4704:4822   */\n    tag_63:\n        /* \"#utility.yul\":4791:4815   */\n      tag_135\n        /* \"#utility.yul\":4809:4814   */\n      dup2\n        /* \"#utility.yul\":4791:4815   */\n      tag_56\n      jump\t// in\n    tag_135:\n        /* \"#utility.yul\":4786:4789   */\n      dup3\n        /* \"#utility.yul\":4779:4816   */\n      mstore\n        /* \"#utility.yul\":4704:4822   */\n      pop\n      pop\n      jump\t// out\n        /* \"#utility.yul\":4828:5452   */\n    tag_13:\n        /* \"#utility.yul\":5017:5021   */\n      0x00\n        /* \"#utility.yul\":5055:5057   */\n      0x60\n        /* \"#utility.yul\":5044:5053   */\n      dup3\n        /* \"#utility.yul\":5040:5058   */\n      add\n        /* \"#utility.yul\":5032:5058   */\n      swap1\n      pop\n        /* \"#utility.yul\":5104:5113   */\n      dup2\n        /* \"#utility.yul\":5098:5102   */\n      dup2\n        /* \"#utility.yul\":5094:5114   */\n      sub\n        /* \"#utility.yul\":5090:5091   */\n      0x00\n        /* \"#utility.yul\":5079:5088   */\n      dup4\n        /* \"#utility.yul\":5075:5092   */\n      add\n        /* \"#utility.yul\":5068:5115   */\n      mstore\n        /* \"#utility.yul\":5132:5210   */\n      tag_137\n        /* \"#utility.yul\":5205:5209   */\n      dup2\n        /* \"#utility.yul\":5196:5202   */\n      dup7\n        /* \"#utility.yul\":5132:5210   */\n      tag_62\n      jump\t// in\n    tag_137:\n        /* \"#utility.yul\":5124:5210   */\n      swap1\n      pop\n        /* \"#utility.yul\":5257:5266   */\n      dup2\n        /* \"#utility.yul\":5251:5255   */\n      dup2\n        /* \"#utility.yul\":5247:5267   */\n      sub\n        /* \"#utility.yul\":5242:5244   */\n      0x20\n        /* \"#utility.yul\":5231:5240   */\n      dup4\n        /* \"#utility.yul\":5227:5245   */\n      add\n        /* \"#utility.yul\":5220:5268   */\n      mstore\n        /* \"#utility.yul\":5285:5363   */\n      tag_138\n        /* \"#utility.yul\":5358:5362   */\n      dup2\n        /* \"#utility.yul\":5349:5355   */\n      dup6\n        /* \"#utility.yul\":5285:5363   */\n      tag_62\n      jump\t// in\n    tag_138:\n        /* \"#utility.yul\":5277:5363   */\n      swap1\n      pop\n        /* \"#utility.yul\":5373:5445   */\n      tag_139\n        /* \"#utility.yul\":5441:5443   */\n      0x40\n        /* \"#utility.yul\":5430:5439   */\n      dup4\n        /* \"#utility.yul\":5426:5444   */\n      add\n        /* \"#utility.yul\":5417:5423   */\n      dup5\n        /* \"#utility.yul\":5373:5445   */\n      tag_63\n      jump\t// in\n    tag_139:\n        /* \"#utility.yul\":4828:5452   */\n      swap5\n      swap4\n      pop\n      pop\n      pop\n      pop\n      jump\t// out\n        /* \"#utility.yul\":5458:5638   */\n    tag_64:\n        /* \"#utility.yul\":5506:5583   */\n      0x4e487b7100000000000000000000000000000000000000000000000000000000\n        /* \"#utility.yul\":5503:5504   */\n      0x00\n        /* \"#utility.yul\":5496:5584   */\n      mstore\n        /* \"#utility.yul\":5603:5607   */\n      0x22\n        /* \"#utility.yul\":5600:5601   */\n      0x04\n        /* \"#utility.yul\":5593:5608   */\n      mstore\n        /* \"#utility.yul\":5627:5631   */\n      0x24\n        /* \"#utility.yul\":5624:5625   */\n      0x00\n        /* \"#utility.yul\":5617:5632   */\n      revert\n        /* \"#utility.yul\":5644:5964   */\n    tag_22:\n        /* \"#utility.yul\":5688:5694   */\n      0x00\n        /* \"#utility.yul\":5725:5726   */\n      0x02\n        /* \"#utility.yul\":5719:5723   */\n      dup3\n        /* \"#utility.yul\":5715:5727   */\n      div\n        /* \"#utility.yul\":5705:5727   */\n      swap1\n      pop\n        /* \"#utility.yul\":5772:5773   */\n      0x01\n        /* \"#utility.yul\":5766:5770   */\n      dup3\n        /* \"#utility.yul\":5762:5774   */\n      and\n        /* \"#utility.yul\":5793:5811   */\n      dup1\n        /* \"#utility.yul\":5783:5864   */\n      tag_142\n      jumpi\n        /* \"#utility.yul\":5849:5853   */\n      0x7f\n        /* \"#utility.yul\":5841:5847   */\n      dup3\n        /* \"#utility.yul\":5837:5854   */\n      and\n        /* \"#utility.yul\":5827:5854   */\n      swap2\n      pop\n        /* \"#utility.yul\":5783:5864   */\n    tag_142:\n        /* \"#utility.yul\":5911:5913   */\n      0x20\n        /* \"#utility.yul\":5903:5909   */\n      dup3\n        /* \"#utility.yul\":5900:5914   */\n      lt\n        /* \"#utility.yul\":5880:5898   */\n      dup2\n        /* \"#utility.yul\":5877:5915   */\n      sub\n        /* \"#utility.yul\":5874:5958   */\n      tag_143\n      jumpi\n        /* \"#utility.yul\":5930:5948   */\n      tag_144\n      tag_64\n      jump\t// in\n    tag_144:\n        /* \"#utility.yul\":5874:5958   */\n    tag_143:\n        /* \"#utility.yul\":5695:5964   */\n      pop\n        /* \"#utility.yul\":5644:5964   */\n      swap2\n      swap1\n      pop\n      jump\t// out\n        /* \"#utility.yul\":5970:6111   */\n    tag_65:\n        /* \"#utility.yul\":6019:6023   */\n      0x00\n        /* \"#utility.yul\":6042:6045   */\n      dup2\n        /* \"#utility.yul\":6034:6045   */\n      swap1\n      pop\n        /* \"#utility.yul\":6065:6068   */\n      dup2\n        /* \"#utility.yul\":6062:6063   */\n      0x00\n        /* \"#utility.yul\":6055:6069   */\n      mstore\n        /* \"#utility.yul\":6099:6103   */\n      0x20\n        /* \"#utility.yul\":6096:6097   */\n      0x00\n        /* \"#utility.yul\":6086:6104   */\n      keccak256\n        /* \"#utility.yul\":6078:6104   */\n      swap1\n      pop\n        /* \"#utility.yul\":5970:6111   */\n      swap2\n      swap1\n      pop\n      jump\t// out\n        /* \"#utility.yul\":6117:6210   */\n    tag_66:\n        /* \"#utility.yul\":6154:6160   */\n      0x00\n        /* \"#utility.yul\":6201:6203   */\n      0x20\n        /* \"#utility.yul\":6196:6198   */\n      0x1f\n        /* \"#utility.yul\":6189:6194   */\n      dup4\n        /* \"#utility.yul\":6185:6199   */\n      add\n        /* \"#utility.yul\":6181:6204   */\n      div\n        /* \"#utility.yul\":6171:6204   */\n      swap1\n      pop\n        /* \"#utility.yul\":6117:6210   */\n      swap2\n      swap1\n      pop\n      jump\t// out\n        /* \"#utility.yul\":6216:6323   */\n    tag_67:\n        /* \"#utility.yul\":6260:6268   */\n      0x00\n        /* \"#utility.yul\":6310:6315   */\n      dup3\n        /* \"#utility.yul\":6304:6308   */\n      dup3\n        /* \"#utility.yul\":6300:6316   */\n      shl\n        /* \"#utility.yul\":6279:6316   */\n      swap1\n      pop\n        /* \"#utility.yul\":6216:6323   */\n      swap3\n      swap2\n      pop\n      pop\n      jump\t// out\n        /* \"#utility.yul\":6329:6722   */\n    tag_68:\n        /* \"#utility.yul\":6398:6404   */\n      0x00\n        /* \"#utility.yul\":6448:6449   */\n      0x08\n        /* \"#utility.yul\":6436:6446   */\n      dup4\n        /* \"#utility.yul\":6432:6450   */\n      mul\n        /* \"#utility.yul\":6471:6568   */\n      tag_149\n        /* \"#utility.yul\":6501:6567   */\n      0xffffffffffffffffffffffffffffffffffffffffffffffffffffffffffffffff\n        /* \"#utility.yul\":6490:6499   */\n      dup3\n        /* \"#utility.yul\":6471:6568   */\n      tag_67\n      jump\t// in\n    tag_149:\n        /* \"#utility.yul\":6589:6628   */\n      tag_150\n        /* \"#utility.yul\":6619:6627   */\n      dup7\n        /* \"#utility.yul\":6608:6617   */\n      dup4\n        /* \"#utility.yul\":6589:6628   */\n      tag_67\n      jump\t// in\n    tag_150:\n        /* \"#utility.yul\":6577:6628   */\n      swap6\n      pop\n        /* \"#utility.yul\":6661:6665   */\n      dup1\n        /* \"#utility.yul\":6657:6666   */\n      not\n        /* \"#utility.yul\":6650:6655   */\n      dup5\n        /* \"#utility.yul\":6646:6667   */\n      and\n        /* \"#utility.yul\":6637:6667   */\n      swap4\n      pop\n        /* \"#utility.yul\":6710:6714   */\n      dup1\n        /* \"#utility.yul\":6700:6708   */\n      dup7\n        /* \"#utility.yul\":6696:6715   */\n      and\n        /* \"#utility.yul\":6689:6694   */\n      dup5\n        /* \"#utility.yul\":6686:6716   */\n      or\n        /* \"#utility.yul\":6676:6716   */\n      swap3\n      pop\n        /* \"#utility.yul\":6405:6722   */\n      pop\n      pop\n        /* \"#utility.yul\":6329:6722   */\n      swap4\n      swap3\n      pop\n      pop\n      pop\n      jump\t// out\n        /* \"#utility.yul\":6728:6788   */\n    tag_69:\n        /* \"#utility.yul\":6756:6759   */\n      0x00\n        /* \"#utility.yul\":6777:6782   */\n      dup2\n        /* \"#utility.yul\":6770:6782   */\n      swap1\n      pop\n        /* \"#utility.yul\":6728:6788   */\n      swap2\n      swap1\n      pop\n      jump\t// out\n        /* \"#utility.yul\":6794:6936   */\n    tag_70:\n        /* \"#utility.yul\":6844:6853   */\n      0x00\n        /* \"#utility.yul\":6877:6930   */\n      tag_153\n        /* \"#utility.yul\":6895:6929   */\n      tag_154\n        /* \"#utility.yul\":6904:6928   */\n      tag_155\n        /* \"#utility.yul\":6922:6927   */\n      dup5\n        /* \"#utility.yul\":6904:6928   */\n      tag_56\n      jump\t// in\n    tag_155:\n        /* \"#utility.yul\":6895:6929   */\n      tag_69\n      jump\t// in\n    tag_154:\n        /* \"#utility.yul\":6877:6930   */\n      tag_56\n      jump\t// in\n    tag_153:\n        /* \"#utility.yul\":6864:6930   */\n      swap1\n      pop\n        /* \"#utility.yul\":6794:6936   */\n      swap2\n      swap1\n      pop\n      jump\t// out\n        /* \"#utility.yul\":6942:7017   */\n    tag_71:\n        /* \"#utility.yul\":6985:6988   */\n      0x00\n        /* \"#utility.yul\":7006:7011   */\n      dup2\n        /* \"#utility.yul\":6999:7011   */\n      swap1\n      pop\n        /* \"#utility.yul\":6942:7017   */\n      swap2\n      swap1\n      pop\n      jump\t// out\n        /* \"#utility.yul\":7023:7292   */\n    tag_72:\n        /* \"#utility.yul\":7133:7172   */\n      tag_158\n        /* \"#utility.yul\":7164:7171   */\n      dup4\n        /* \"#utility.yul\":7133:7172   */\n      tag_70\n      jump\t// in\n    tag_158:\n        /* \"#utility.yul\":7194:7285   */\n      tag_159\n        /* \"#utility.yul\":7243:7284   */\n      tag_160\n        /* \"#utility.yul\":7267:7283   */\n      dup3\n        /* \"#utility.yul\":7243:7284   */\n      tag_71\n      jump\t// in\n    tag_160:\n        /* \"#utility.yul\":7235:7241   */\n      dup5\n        /* \"#utility.yul\":7228:7232   */\n      dup5\n        /* \"#utility.yul\":7222:7233   */\n      sload\n        /* \"#utility.yul\":7194:7285   */\n      tag_68\n      jump\t// in\n    tag_159:\n        /* \"#utility.yul\":7188:7192   */\n      dup3\n        /* \"#utility.yul\":7181:7286   */\n      sstore\n        /* \"#utility.yul\":7099:7292   */\n      pop\n        /* \"#utility.yul\":7023:7292   */\n      pop\n      pop\n      pop\n      jump\t// out\n        /* \"#utility.yul\":7298:7371   */\n    tag_73:\n        /* \"#utility.yul\":7343:7346   */\n      0x00\n        /* \"#utility.yul\":7364:7365   */\n      0x00\n        /* \"#utility.yul\":7357:7365   */\n      swap1\n      pop\n        /* \"#utility.yul\":7298:7371   */\n      swap1\n      jump\t// out\n        /* \"#utility.yul\":7377:7566   */\n    tag_74:\n        /* \"#utility.yul\":7454:7486   */\n      tag_163\n      tag_73\n      jump\t// in\n    tag_163:\n        /* \"#utility.yul\":7495:7560   */\n      tag_164\n        /* \"#utility.yul\":7553:7559   */\n      dup2\n        /* \"#utility.yul\":7545:7551   */\n      dup5\n        /* \"#utility.yul\":7539:7543   */\n      dup5\n        /* \"#utility.yul\":7495:7560   */\n      tag_72\n      jump\t// in\n    tag_164:\n        /* \"#utility.yul\":7430:7566   */\n      pop\n        /* \"#utility.yul\":7377:7566   */\n      pop\n      pop\n      jump\t// out\n        /* \"#utility.yul\":7572:7758   */\n    tag_75:\n        /* \"#utility.yul\":7632:7752   */\n    tag_166:\n        /* \"#utility.yul\":7649:7652   */\n      dup2\n        /* \"#utility.yul\":7642:7647   */\n      dup2\n        /* \"#utility.yul\":7639:7653   */\n      lt\n        /* \"#utility.yul\":7632:7752   */\n      iszero\n      tag_168\n      jumpi\n        /* \"#utility.yul\":7703:7742   */\n      tag_169\n        /* \"#utility.yul\":7740:7741   */\n      0x00\n        /* \"#utility.yul\":7733:7738   */\n      dup3\n        /* \"#utility.yul\":7703:7742   */\n      tag_74\n      jump\t// in\n    tag_169:\n        /* \"#utility.yul\":7676:7677   */\n      0x01\n        /* \"#utility.yul\":7669:7674   */\n      dup2\n        /* \"#utility.yul\":7665:7678   */\n      add\n        /* \"#utility.yul\":7656:7678   */\n      swap1\n      pop\n        /* \"#utility.yul\":7632:7752   */\n      jump(tag_166)\n    tag_168:\n        /* \"#utility.yul\":7572:7758   */\n      pop\n      pop\n      jump\t// out\n        /* \"#utility.yul\":7764:8307   */\n    tag_76:\n        /* \"#utility.yul\":7865:7867   */\n      0x1f\n        /* \"#utility.yul\":7860:7863   */\n      dup3\n        /* \"#utility.yul\":7857:7868   */\n      gt\n        /* \"#utility.yul\":7854:8300   */\n      iszero\n      tag_171\n      jumpi\n        /* \"#utility.yul\":7899:7937   */\n      tag_172\n        /* \"#utility.yul\":7931:7936   */\n      dup2\n        /* \"#utility.yul\":7899:7937   */\n      tag_65\n      jump\t// in\n    tag_172:\n        /* \"#utility.yul\":7983:8012   */\n      tag_173\n        /* \"#utility.yul\":8001:8011   */\n      dup5\n        /* \"#utility.yul\":7983:8012   */\n      tag_66\n      jump\t// in\n    tag_173:\n        /* \"#utility.yul\":7973:7981   */\n      dup2\n        /* \"#utility.yul\":7969:8013   */\n      add\n        /* \"#utility.yul\":8166:8168   */\n      0x20\n        /* \"#utility.yul\":8154:8164   */\n      dup6\n        /* \"#utility.yul\":8151:8169   */\n      lt\n        /* \"#utility.yul\":8148:8197   */\n      iszero\n      tag_174\n      jumpi\n        /* \"#utility.yul\":8187:8195   */\n      dup2\n        /* \"#utility.yul\":8172:8195   */\n      swap1\n      pop\n        /* \"#utility.yul\":8148:8197   */\n    tag_174:\n        /* \"#utility.yul\":8210:8290   */\n      tag_175\n        /* \"#utility.yul\":8266:8288   */\n      tag_176\n        /* \"#utility.yul\":8284:8287   */\n      dup6\n        /* \"#utility.yul\":8266:8288   */\n      tag_66\n      jump\t// in\n    tag_176:\n        /* \"#utility.yul\":8256:8264   */\n      dup4\n        /* \"#utility.yul\":8252:8289   */\n      add\n        /* \"#utility.yul\":8239:8250   */\n      dup3\n        /* \"#utility.yul\":8210:8290   */\n      tag_75\n      jump\t// in\n    tag_175:\n        /* \"#utility.yul\":7869:8300   */\n      pop\n      pop\n        /* \"#utility.yul\":7854:8300   */\n    tag_171:\n        /* \"#utility.yul\":7764:8307   */\n      pop\n      pop\n      pop\n      jump\t// out\n        /* \"#utility.yul\":8313:8430   */\n    tag_77:\n        /* \"#utility.yul\":8367:8375   */\n      0x00\n        /* \"#utility.yul\":8417:8422   */\n      dup3\n        /* \"#utility.yul\":8411:8415   */\n      dup3\n        /* \"#utility.yul\":8407:8423   */\n      shr\n        /* \"#utility.yul\":8386:8423   */\n      swap1\n      pop\n        /* \"#utility.yul\":8313:8430   */\n      swap3\n      swap2\n      pop\n      pop\n      jump\t// out\n        /* \"#utility.yul\":8436:8605   */\n    tag_78:\n        /* \"#utility.yul\":8480:8486   */\n      0x00\n        /* \"#utility.yul\":8513:8564   */\n      tag_179\n        /* \"#utility.yul\":8561:8562   */\n      0x00\n        /* \"#utility.yul\":8557:8563   */\n      not\n        /* \"#utility.yul\":8549:8554   */\n      dup5\n        /* \"#utility.yul\":8546:8547   */\n      0x08\n        /* \"#utility.yul\":8542:8555   */\n      mul\n        /* \"#utility.yul\":8513:8564   */\n      tag_77\n      jump\t// in\n    tag_179:\n        /* \"#utility.yul\":8509:8565   */\n      not\n        /* \"#utility.yul\":8594:8598   */\n      dup1\n        /* \"#utility.yul\":8588:8592   */\n      dup4\n        /* \"#utility.yul\":8584:8599   */\n      and\n        /* \"#utility.yul\":8574:8599   */\n      swap2\n      pop\n        /* \"#utility.yul\":8487:8605   */\n      pop\n        /* \"#utility.yul\":8436:8605   */\n      swap3\n      swap2\n      pop\n      pop\n      jump\t// out\n        /* \"#utility.yul\":8610:8905   */\n    tag_79:\n        /* \"#utility.yul\":8686:8690   */\n      0x00\n        /* \"#utility.yul\":8832:8861   */\n      tag_181\n        /* \"#utility.yul\":8857:8860   */\n      dup4\n        /* \"#utility.yul\":8851:8855   */\n      dup4\n        /* \"#utility.yul\":8832:8861   */\n      tag_78\n      jump\t// in\n    tag_181:\n        /* \"#utility.yul\":8824:8861   */\n      swap2\n      pop\n        /* \"#utility.yul\":8894:8897   */\n      dup3\n        /* \"#utility.yul\":8891:8892   */\n      0x02\n        /* \"#utility.yul\":8887:8898   */\n      mul\n        /* \"#utility.yul\":8881:8885   */\n      dup3\n        /* \"#utility.yul\":8878:8899   */\n      or\n        /* \"#utility.yul\":8870:8899   */\n      swap1\n      pop\n        /* \"#utility.yul\":8610:8905   */\n      swap3\n      swap2\n      pop\n      pop\n      jump\t// out\n        /* \"#utility.yul\":8910:10305   */\n    tag_19:\n        /* \"#utility.yul\":9027:9064   */\n      tag_183\n        /* \"#utility.yul\":9060:9063   */\n      dup3\n        /* \"#utility.yul\":9027:9064   */\n      tag_59\n      jump\t// in\n    tag_183:\n        /* \"#utility.yul\":9129:9147   */\n      0xffffffffffffffff\n        /* \"#utility.yul\":9121:9127   */\n      dup2\n        /* \"#utility.yul\":9118:9148   */\n      gt\n        /* \"#utility.yul\":9115:9171   */\n      iszero\n      tag_184\n      jumpi\n        /* \"#utility.yul\":9151:9169   */\n      tag_185\n      tag_49\n      jump\t// in\n    tag_185:\n        /* \"#utility.yul\":9115:9171   */\n    tag_184:\n        /* \"#utility.yul\":9195:9233   */\n      tag_186\n        /* \"#utility.yul\":9227:9231   */\n      dup3\n        /* \"#utility.yul\":9221:9232   */\n      sload\n        /* \"#utility.yul\":9195:9233   */\n      tag_22\n      jump\t// in\n    tag_186:\n        /* \"#utility.yul\":9280:9347   */\n      tag_187\n        /* \"#utility.yul\":9340:9346   */\n      dup3\n        /* \"#utility.yul\":9332:9338   */\n      dup3\n        /* \"#utility.yul\":9326:9330   */\n      dup6\n        /* \"#utility.yul\":9280:9347   */\n      tag_76\n      jump\t// in\n    tag_187:\n        /* \"#utility.yul\":9374:9375   */\n      0x00\n        /* \"#utility.yul\":9398:9402   */\n      0x20\n        /* \"#utility.yul\":9385:9402   */\n      swap1\n      pop\n        /* \"#utility.yul\":9430:9432   */\n      0x1f\n        /* \"#utility.yul\":9422:9428   */\n      dup4\n        /* \"#utility.yul\":9419:9433   */\n      gt\n        /* \"#utility.yul\":9447:9448   */\n      0x01\n        /* \"#utility.yul\":9442:10060   */\n      dup2\n      eq\n      tag_189\n      jumpi\n        /* \"#utility.yul\":10104:10105   */\n      0x00\n        /* \"#utility.yul\":10121:10127   */\n      dup5\n        /* \"#utility.yul\":10118:10195   */\n      iszero\n      tag_190\n      jumpi\n        /* \"#utility.yul\":10170:10179   */\n      dup3\n        /* \"#utility.yul\":10165:10168   */\n      dup8\n        /* \"#utility.yul\":10161:10180   */\n      add\n        /* \"#utility.yul\":10155:10181   */\n      mload\n        /* \"#utility.yul\":10146:10181   */\n      swap1\n      pop\n        /* \"#utility.yul\":10118:10195   */\n    tag_190:\n        /* \"#utility.yul\":10221:10288   */\n      tag_191\n        /* \"#utility.yul\":10281:10287   */\n      dup6\n        /* \"#utility.yul\":10274:10279   */\n      dup3\n        /* \"#utility.yul\":10221:10288   */\n      tag_79\n      jump\t// in\n    tag_191:\n        /* \"#utility.yul\":10215:10219   */\n      dup7\n        /* \"#utility.yul\":10208:10289   */\n      sstore\n        /* \"#utility.yul\":10077:10299   */\n      pop\n        /* \"#utility.yul\":9412:10299   */\n      jump(tag_188)\n        /* \"#utility.yul\":9442:10060   */\n    tag_189:\n        /* \"#utility.yul\":9494:9498   */\n      0x1f\n        /* \"#utility.yul\":9490:9499   */\n      not\n        /* \"#utility.yul\":9482:9488   */\n      dup5\n        /* \"#utility.yul\":9478:9500   */\n      and\n        /* \"#utility.yul\":9528:9565   */\n      tag_192\n        /* \"#utility.yul\":9560:9564   */\n      dup7\n        /* \"#utility.yul\":9528:9565   */\n      tag_65\n      jump\t// in\n    tag_192:\n        /* \"#utility.yul\":9587:9588   */\n      0x00\n        /* \"#utility.yul\":9601:9809   */\n    tag_193:\n        /* \"#utility.yul\":9615:9622   */\n      dup3\n        /* \"#utility.yul\":9612:9613   */\n      dup2\n        /* \"#utility.yul\":9609:9623   */\n      lt\n        /* \"#utility.yul\":9601:9809   */\n      iszero\n      tag_195\n      jumpi\n        /* \"#utility.yul\":9694:9703   */\n      dup5\n        /* \"#utility.yul\":9689:9692   */\n      dup10\n        /* \"#utility.yul\":9685:9704   */\n      add\n        /* \"#utility.yul\":9679:9705   */\n      mload\n        /* \"#utility.yul\":9671:9677   */\n      dup3\n        /* \"#utility.yul\":9664:9706   */\n      sstore\n        /* \"#utility.yul\":9745:9746   */\n      0x01\n        /* \"#utility.yul\":9737:9743   */\n      dup3\n        /* \"#utility.yul\":9733:9747   */\n      add\n        /* \"#utility.yul\":9723:9747   */\n      swap2\n      pop\n        /* \"#utility.yul\":9792:9794   */\n      0x20\n        /* \"#utility.yul\":9781:9790   */\n      dup6\n        /* \"#utility.yul\":9777:9795   */\n      add\n        /* \"#utility.yul\":9764:9795   */\n      swap5\n      pop\n        /* \"#utility.yul\":9638:9642   */\n      0x20\n        /* \"#utility.yul\":9635:9636   */\n      dup2\n        /* \"#utility.yul\":9631:9643   */\n      add\n        /* \"#utility.yul\":9626:9643   */\n      swap1\n      pop\n        /* \"#utility.yul\":9601:9809   */\n      jump(tag_193)\n    tag_195:\n        /* \"#utility.yul\":9837:9843   */\n      dup7\n        /* \"#utility.yul\":9828:9835   */\n      dup4\n        /* \"#utility.yul\":9825:9844   */\n      lt\n        /* \"#utility.yul\":9822:10001   */\n      iszero\n      tag_196\n      jumpi\n        /* \"#utility.yul\":9895:9904   */\n      dup5\n        /* \"#utility.yul\":9890:9893   */\n      dup10\n        /* \"#utility.yul\":9886:9905   */\n      add\n        /* \"#utility.yul\":9880:9906   */\n      mload\n        /* \"#utility.yul\":9938:9986   */\n      tag_197\n        /* \"#utility.yul\":9980:9984   */\n      0x1f\n        /* \"#utility.yul\":9972:9978   */\n      dup10\n        /* \"#utility.yul\":9968:9985   */\n      and\n        /* \"#utility.yul\":9957:9966   */\n      dup3\n        /* \"#utility.yul\":9938:9986   */\n      tag_78\n      jump\t// in\n    tag_197:\n        /* \"#utility.yul\":9930:9936   */\n      dup4\n        /* \"#utility.yul\":9923:9987   */\n      sstore\n        /* \"#utility.yul\":9845:10001   */\n      pop\n        /* \"#utility.yul\":9822:10001   */\n    tag_196:\n        /* \"#utility.yul\":10047:10048   */\n      0x01\n        /* \"#utility.yul\":10043:10044   */\n      0x02\n        /* \"#utility.yul\":10035:10041   */\n      dup9\n        /* \"#utility.yul\":10031:10045   */\n      mul\n        /* \"#utility.yul\":10027:10049   */\n      add\n        /* \"#utility.yul\":10021:10025   */\n      dup9\n        /* \"#utility.yul\":10014:10050   */\n      sstore\n        /* \"#utility.yul\":9449:10060   */\n      pop\n      pop\n      pop\n        /* \"#utility.yul\":9412:10299   */\n    tag_188:\n      pop\n        /* \"#utility.yul\":9002:10305   */\n      pop\n      pop\n      pop\n        /* \"#utility.yul\":8910:10305   */\n      pop\n      pop\n      jump\t// out\n\n    auxdata: 0xa2646970667358221220db4b523a7137eda461727c1122e1fe20c647f7216da4969f195dc5aa86733e3464736f6c634300081e0033\n}\n",
				"bytecode": {
					"linkReferences": {},
					"object": "6080604052348015600e575f5ffd5b506108dd8061001c5f395ff3fe608060405234801561000f575f5ffd5b506004361061003f575f3560e01c806317757f911461004357806377ec2b551461005f5780638924cc231461007f575b5f5ffd5b61005d600480360381019061005891906104a1565b61009f565b005b6100676100d0565b60405161007693929190610598565b60405180910390f35b6100876101f2565b60405161009693929190610598565b60405180910390f35b825f5f0190816100af91906107d8565b50815f60010190816100c191906107d8565b50805f60020181905550505050565b5f805f0180546100df90610608565b80601f016020809104026020016040519081016040528092919081815260200182805461010b90610608565b80156101565780601f1061012d57610100808354040283529160200191610156565b820191905f5260205f20905b81548152906001019060200180831161013957829003601f168201915b50505050509080600101805461016b90610608565b80601f016020809104026020016040519081016040528092919081815260200182805461019790610608565b80156101e25780601f106101b9576101008083540402835291602001916101e2565b820191905f5260205f20905b8154815290600101906020018083116101c557829003601f168201915b5050505050908060020154905083565b6060805f5f5f015f6001015f6002015482805461020e90610608565b80601f016020809104026020016040519081016040528092919081815260200182805461023a90610608565b80156102855780601f1061025c57610100808354040283529160200191610285565b820191905f5260205f20905b81548152906001019060200180831161026857829003601f168201915b5050505050925081805461029890610608565b80601f01602080910402602001604051908101604052809291908181526020018280546102c490610608565b801561030f5780601f106102e65761010080835404028352916020019161030f565b820191905f5260205f20905b8154815290600101906020018083116102f257829003601f168201915b50505050509150925092509250909192565b5f604051905090565b5f5ffd5b5f5ffd5b5f5ffd5b5f5ffd5b5f601f19601f8301169050919050565b7f4e487b71000000000000000000000000000000000000000000000000000000005f52604160045260245ffd5b6103808261033a565b810181811067ffffffffffffffff8211171561039f5761039e61034a565b5b80604052505050565b5f6103b1610321565b90506103bd8282610377565b919050565b5f67ffffffffffffffff8211156103dc576103db61034a565b5b6103e58261033a565b9050602081019050919050565b828183375f83830152505050565b5f61041261040d846103c2565b6103a8565b90508281526020810184848401111561042e5761042d610336565b5b6104398482856103f2565b509392505050565b5f82601f83011261045557610454610332565b5b8135610465848260208601610400565b91505092915050565b5f819050919050565b6104808161046e565b811461048a575f5ffd5b50565b5f8135905061049b81610477565b92915050565b5f5f5f606084860312156104b8576104b761032a565b5b5f84013567ffffffffffffffff8111156104d5576104d461032e565b5b6104e186828701610441565b935050602084013567ffffffffffffffff8111156105025761050161032e565b5b61050e86828701610441565b925050604061051f8682870161048d565b9150509250925092565b5f81519050919050565b5f82825260208201905092915050565b8281835e5f83830152505050565b5f61055b82610529565b6105658185610533565b9350610575818560208601610543565b61057e8161033a565b840191505092915050565b6105928161046e565b82525050565b5f6060820190508181035f8301526105b08186610551565b905081810360208301526105c48185610551565b90506105d36040830184610589565b949350505050565b7f4e487b71000000000000000000000000000000000000000000000000000000005f52602260045260245ffd5b5f600282049050600182168061061f57607f821691505b602082108103610632576106316105db565b5b50919050565b5f819050815f5260205f209050919050565b5f6020601f8301049050919050565b5f82821b905092915050565b5f600883026106947fffffffffffffffffffffffffffffffffffffffffffffffffffffffffffffffff82610659565b61069e8683610659565b95508019841693508086168417925050509392505050565b5f819050919050565b5f6106d96106d46106cf8461046e565b6106b6565b61046e565b9050919050565b5f819050919050565b6106f2836106bf565b6107066106fe826106e0565b848454610665565b825550505050565b5f5f905090565b61071d61070e565b6107288184846106e9565b505050565b5b8181101561074b576107405f82610715565b60018101905061072e565b5050565b601f8211156107905761076181610638565b61076a8461064a565b81016020851015610779578190505b61078d6107858561064a565b83018261072d565b50505b505050565b5f82821c905092915050565b5f6107b05f1984600802610795565b1980831691505092915050565b5f6107c883836107a1565b9150826002028217905092915050565b6107e182610529565b67ffffffffffffffff8111156107fa576107f961034a565b5b6108048254610608565b61080f82828561074f565b5f60209050601f831160018114610840575f841561082e578287015190505b61083885826107bd565b86555061089f565b601f19841661084e86610638565b5f5b8281101561087557848901518255600182019150602085019450602081019050610850565b86831015610892578489015161088e601f8916826107a1565b8355505b6001600288020188555050505b50505050505056fea2646970667358221220db4b523a7137eda461727c1122e1fe20c647f7216da4969f195dc5aa86733e3464736f6c634300081e0033",
					"opcodes": "PUSH1 0x80 PUSH1 0x40 MSTORE CALLVALUE DUP1 ISZERO PUSH1 0xE JUMPI PUSH0 PUSH0 REVERT JUMPDEST POP PUSH2 0x8DD DUP1 PUSH2 0x1C PUSH0 CODECOPY PUSH0 RETURN INVALID PUSH1 0x80 PUSH1 0x40 MSTORE CALLVALUE DUP1 ISZERO PUSH2 0xF JUMPI PUSH0 PUSH0 REVERT JUMPDEST POP PUSH1 0x4 CALLDATASIZE LT PUSH2 0x3F JUMPI PUSH0 CALLDATALOAD PUSH1 0xE0 SHR DUP1 PUSH4 0x17757F91 EQ PUSH2 0x43 JUMPI DUP1 PUSH4 0x77EC2B55 EQ PUSH2 0x5F JUMPI DUP1 PUSH4 0x8924CC23 EQ PUSH2 0x7F JUMPI JUMPDEST PUSH0 PUSH0 REVERT JUMPDEST PUSH2 0x5D PUSH1 0x4 DUP1 CALLDATASIZE SUB DUP2 ADD SWAP1 PUSH2 0x58 SWAP2 SWAP1 PUSH2 0x4A1 JUMP JUMPDEST PUSH2 0x9F JUMP JUMPDEST STOP JUMPDEST PUSH2 0x67 PUSH2 0xD0 JUMP JUMPDEST PUSH1 0x40 MLOAD PUSH2 0x76 SWAP4 SWAP3 SWAP2 SWAP1 PUSH2 0x598 JUMP JUMPDEST PUSH1 0x40 MLOAD DUP1 SWAP2 SUB SWAP1 RETURN JUMPDEST PUSH2 0x87 PUSH2 0x1F2 JUMP JUMPDEST PUSH1 0x40 MLOAD PUSH2 0x96 SWAP4 SWAP3 SWAP2 SWAP1 PUSH2 0x598 JUMP JUMPDEST PUSH1 0x40 MLOAD DUP1 SWAP2 SUB SWAP1 RETURN JUMPDEST DUP3 PUSH0 PUSH0 ADD SWAP1 DUP2 PUSH2 0xAF SWAP2 SWAP1 PUSH2 0x7D8 JUMP JUMPDEST POP DUP2 PUSH0 PUSH1 0x1 ADD SWAP1 DUP2 PUSH2 0xC1 SWAP2 SWAP1 PUSH2 0x7D8 JUMP JUMPDEST POP DUP1 PUSH0 PUSH1 0x2 ADD DUP2 SWAP1 SSTORE POP POP POP POP JUMP JUMPDEST PUSH0 DUP1 PUSH0 ADD DUP1 SLOAD PUSH2 0xDF SWAP1 PUSH2 0x608 JUMP JUMPDEST DUP1 PUSH1 0x1F ADD PUSH1 0x20 DUP1 SWAP2 DIV MUL PUSH1 0x20 ADD PUSH1 0x40 MLOAD SWAP1 DUP2 ADD PUSH1 0x40 MSTORE DUP1 SWAP3 SWAP2 SWAP1 DUP2 DUP2 MSTORE PUSH1 0x20 ADD DUP3 DUP1 SLOAD PUSH2 0x10B SWAP1 PUSH2 0x608 JUMP JUMPDEST DUP1 ISZERO PUSH2 0x156 JUMPI DUP1 PUSH1 0x1F LT PUSH2 0x12D JUMPI PUSH2 0x100 DUP1 DUP4 SLOAD DIV MUL DUP4 MSTORE SWAP2 PUSH1 0x20 ADD SWAP2 PUSH2 0x156 JUMP JUMPDEST DUP3 ADD SWAP2 SWAP1 PUSH0 MSTORE PUSH1 0x20 PUSH0 KECCAK256 SWAP1 JUMPDEST DUP2 SLOAD DUP2 MSTORE SWAP1 PUSH1 0x1 ADD SWAP1 PUSH1 0x20 ADD DUP1 DUP4 GT PUSH2 0x139 JUMPI DUP3 SWAP1 SUB PUSH1 0x1F AND DUP3 ADD SWAP2 JUMPDEST POP POP POP POP POP SWAP1 DUP1 PUSH1 0x1 ADD DUP1 SLOAD PUSH2 0x16B SWAP1 PUSH2 0x608 JUMP JUMPDEST DUP1 PUSH1 0x1F ADD PUSH1 0x20 DUP1 SWAP2 DIV MUL PUSH1 0x20 ADD PUSH1 0x40 MLOAD SWAP1 DUP2 ADD PUSH1 0x40 MSTORE DUP1 SWAP3 SWAP2 SWAP1 DUP2 DUP2 MSTORE PUSH1 0x20 ADD DUP3 DUP1 SLOAD PUSH2 0x197 SWAP1 PUSH2 0x608 JUMP JUMPDEST DUP1 ISZERO PUSH2 0x1E2 JUMPI DUP1 PUSH1 0x1F LT PUSH2 0x1B9 JUMPI PUSH2 0x100 DUP1 DUP4 SLOAD DIV MUL DUP4 MSTORE SWAP2 PUSH1 0x20 ADD SWAP2 PUSH2 0x1E2 JUMP JUMPDEST DUP3 ADD SWAP2 SWAP1 PUSH0 MSTORE PUSH1 0x20 PUSH0 KECCAK256 SWAP1 JUMPDEST DUP2 SLOAD DUP2 MSTORE SWAP1 PUSH1 0x1 ADD SWAP1 PUSH1 0x20 ADD DUP1 DUP4 GT PUSH2 0x1C5 JUMPI DUP3 SWAP1 SUB PUSH1 0x1F AND DUP3 ADD SWAP2 JUMPDEST POP POP POP POP POP SWAP1 DUP1 PUSH1 0x2 ADD SLOAD SWAP1 POP DUP4 JUMP JUMPDEST PUSH1 0x60 DUP1 PUSH0 PUSH0 PUSH0 ADD PUSH0 PUSH1 0x1 ADD PUSH0 PUSH1 0x2 ADD SLOAD DUP3 DUP1 SLOAD PUSH2 0x20E SWAP1 PUSH2 0x608 JUMP JUMPDEST DUP1 PUSH1 0x1F ADD PUSH1 0x20 DUP1 SWAP2 DIV MUL PUSH1 0x20 ADD PUSH1 0x40 MLOAD SWAP1 DUP2 ADD PUSH1 0x40 MSTORE DUP1 SWAP3 SWAP2 SWAP1 DUP2 DUP2 MSTORE PUSH1 0x20 ADD DUP3 DUP1 SLOAD PUSH2 0x23A SWAP1 PUSH2 0x608 JUMP JUMPDEST DUP1 ISZERO PUSH2 0x285 JUMPI DUP1 PUSH1 0x1F LT PUSH2 0x25C JUMPI PUSH2 0x100 DUP1 DUP4 SLOAD DIV MUL DUP4 MSTORE SWAP2 PUSH1 0x20 ADD SWAP2 PUSH2 0x285 JUMP JUMPDEST DUP3 ADD SWAP2 SWAP1 PUSH0 MSTORE PUSH1 0x20 PUSH0 KECCAK256 SWAP1 JUMPDEST DUP2 SLOAD DUP2 MSTORE SWAP1 PUSH1 0x1 ADD SWAP1 PUSH1 0x20 ADD DUP1 DUP4 GT PUSH2 0x268 JUMPI DUP3 SWAP1 SUB PUSH1 0x1F AND DUP3 ADD SWAP2 JUMPDEST POP POP POP POP POP SWAP3 POP DUP2 DUP1 SLOAD PUSH2 0x298 SWAP1 PUSH2 0x608 JUMP JUMPDEST DUP1 PUSH1 0x1F ADD PUSH1 0x20 DUP1 SWAP2 DIV MUL PUSH1 0x20 ADD PUSH1 0x40 MLOAD SWAP1 DUP2 ADD PUSH1 0x40 MSTORE DUP1 SWAP3 SWAP2 SWAP1 DUP2 DUP2 MSTORE PUSH1 0x20 ADD DUP3 DUP1 SLOAD PUSH2 0x2C4 SWAP1 PUSH2 0x608 JUMP JUMPDEST DUP1 ISZERO PUSH2 0x30F JUMPI DUP1 PUSH1 0x1F LT PUSH2 0x2E6 JUMPI PUSH2 0x100 DUP1 DUP4 SLOAD DIV MUL DUP4 MSTORE SWAP2 PUSH1 0x20 ADD SWAP2 PUSH2 0x30F JUMP JUMPDEST DUP3 ADD SWAP2 SWAP1 PUSH0 MSTORE PUSH1 0x20 PUSH0 KECCAK256 SWAP1 JUMPDEST DUP2 SLOAD DUP2 MSTORE SWAP1 PUSH1 0x1 ADD SWAP1 PUSH1 0x20 ADD DUP1 DUP4 GT PUSH2 0x2F2 JUMPI DUP3 SWAP1 SUB PUSH1 0x1F AND DUP3 ADD SWAP2 JUMPDEST POP POP POP POP POP SWAP2 POP SWAP3 POP SWAP3 POP SWAP3 POP SWAP1 SWAP2 SWAP3 JUMP JUMPDEST PUSH0 PUSH1 0x40 MLOAD SWAP1 POP SWAP1 JUMP JUMPDEST PUSH0 PUSH0 REVERT JUMPDEST PUSH0 PUSH0 REVERT JUMPDEST PUSH0 PUSH0 REVERT JUMPDEST PUSH0 PUSH0 REVERT JUMPDEST PUSH0 PUSH1 0x1F NOT PUSH1 0x1F DUP4 ADD AND SWAP1 POP SWAP2 SWAP1 POP JUMP JUMPDEST PUSH32 0x4E487B7100000000000000000000000000000000000000000000000000000000 PUSH0 MSTORE PUSH1 0x41 PUSH1 0x4 MSTORE PUSH1 0x24 PUSH0 REVERT JUMPDEST PUSH2 0x380 DUP3 PUSH2 0x33A JUMP JUMPDEST DUP2 ADD DUP2 DUP2 LT PUSH8 0xFFFFFFFFFFFFFFFF DUP3 GT OR ISZERO PUSH2 0x39F JUMPI PUSH2 0x39E PUSH2 0x34A JUMP JUMPDEST JUMPDEST DUP1 PUSH1 0x40 MSTORE POP POP POP JUMP JUMPDEST PUSH0 PUSH2 0x3B1 PUSH2 0x321 JUMP JUMPDEST SWAP1 POP PUSH2 0x3BD DUP3 DUP3 PUSH2 0x377 JUMP JUMPDEST SWAP2 SWAP1 POP JUMP JUMPDEST PUSH0 PUSH8 0xFFFFFFFFFFFFFFFF DUP3 GT ISZERO PUSH2 0x3DC JUMPI PUSH2 0x3DB PUSH2 0x34A JUMP JUMPDEST JUMPDEST PUSH2 0x3E5 DUP3 PUSH2 0x33A JUMP JUMPDEST SWAP1 POP PUSH1 0x20 DUP2 ADD SWAP1 POP SWAP2 SWAP1 POP JUMP JUMPDEST DUP3 DUP2 DUP4 CALLDATACOPY PUSH0 DUP4 DUP4 ADD MSTORE POP POP POP JUMP JUMPDEST PUSH0 PUSH2 0x412 PUSH2 0x40D DUP5 PUSH2 0x3C2 JUMP JUMPDEST PUSH2 0x3A8 JUMP JUMPDEST SWAP1 POP DUP3 DUP2 MSTORE PUSH1 0x20 DUP2 ADD DUP5 DUP5 DUP5 ADD GT ISZERO PUSH2 0x42E JUMPI PUSH2 0x42D PUSH2 0x336 JUMP JUMPDEST JUMPDEST PUSH2 0x439 DUP5 DUP3 DUP6 PUSH2 0x3F2 JUMP JUMPDEST POP SWAP4 SWAP3 POP POP POP JUMP JUMPDEST PUSH0 DUP3 PUSH1 0x1F DUP4 ADD SLT PUSH2 0x455 JUMPI PUSH2 0x454 PUSH2 0x332 JUMP JUMPDEST JUMPDEST DUP2 CALLDATALOAD PUSH2 0x465 DUP5 DUP3 PUSH1 0x20 DUP7 ADD PUSH2 0x400 JUMP JUMPDEST SWAP2 POP POP SWAP3 SWAP2 POP POP JUMP JUMPDEST PUSH0 DUP2 SWAP1 POP SWAP2 SWAP1 POP JUMP JUMPDEST PUSH2 0x480 DUP2 PUSH2 0x46E JUMP JUMPDEST DUP2 EQ PUSH2 0x48A JUMPI PUSH0 PUSH0 REVERT JUMPDEST POP JUMP JUMPDEST PUSH0 DUP2 CALLDATALOAD SWAP1 POP PUSH2 0x49B DUP2 PUSH2 0x477 JUMP JUMPDEST SWAP3 SWAP2 POP POP JUMP JUMPDEST PUSH0 PUSH0 PUSH0 PUSH1 0x60 DUP5 DUP7 SUB SLT ISZERO PUSH2 0x4B8 JUMPI PUSH2 0x4B7 PUSH2 0x32A JUMP JUMPDEST JUMPDEST PUSH0 DUP5 ADD CALLDATALOAD PUSH8 0xFFFFFFFFFFFFFFFF DUP2 GT ISZERO PUSH2 0x4D5 JUMPI PUSH2 0x4D4 PUSH2 0x32E JUMP JUMPDEST JUMPDEST PUSH2 0x4E1 DUP7 DUP3 DUP8 ADD PUSH2 0x441 JUMP JUMPDEST SWAP4 POP POP PUSH1 0x20 DUP5 ADD CALLDATALOAD PUSH8 0xFFFFFFFFFFFFFFFF DUP2 GT ISZERO PUSH2 0x502 JUMPI PUSH2 0x501 PUSH2 0x32E JUMP JUMPDEST JUMPDEST PUSH2 0x50E DUP7 DUP3 DUP8 ADD PUSH2 0x441 JUMP JUMPDEST SWAP3 POP POP PUSH1 0x40 PUSH2 0x51F DUP7 DUP3 DUP8 ADD PUSH2 0x48D JUMP JUMPDEST SWAP2 POP POP SWAP3 POP SWAP3 POP SWAP3 JUMP JUMPDEST PUSH0 DUP2 MLOAD SWAP1 POP SWAP2 SWAP1 POP JUMP JUMPDEST PUSH0 DUP3 DUP3 MSTORE PUSH1 0x20 DUP3 ADD SWAP1 POP SWAP3 SWAP2 POP POP JUMP JUMPDEST DUP3 DUP2 DUP4 MCOPY PUSH0 DUP4 DUP4 ADD MSTORE POP POP POP JUMP JUMPDEST PUSH0 PUSH2 0x55B DUP3 PUSH2 0x529 JUMP JUMPDEST PUSH2 0x565 DUP2 DUP6 PUSH2 0x533 JUMP JUMPDEST SWAP4 POP PUSH2 0x575 DUP2 DUP6 PUSH1 0x20 DUP7 ADD PUSH2 0x543 JUMP JUMPDEST PUSH2 0x57E DUP2 PUSH2 0x33A JUMP JUMPDEST DUP5 ADD SWAP2 POP POP SWAP3 SWAP2 POP POP JUMP JUMPDEST PUSH2 0x592 DUP2 PUSH2 0x46E JUMP JUMPDEST DUP3 MSTORE POP POP JUMP JUMPDEST PUSH0 PUSH1 0x60 DUP3 ADD SWAP1 POP DUP2 DUP2 SUB PUSH0 DUP4 ADD MSTORE PUSH2 0x5B0 DUP2 DUP7 PUSH2 0x551 JUMP JUMPDEST SWAP1 POP DUP2 DUP2 SUB PUSH1 0x20 DUP4 ADD MSTORE PUSH2 0x5C4 DUP2 DUP6 PUSH2 0x551 JUMP JUMPDEST SWAP1 POP PUSH2 0x5D3 PUSH1 0x40 DUP4 ADD DUP5 PUSH2 0x589 JUMP JUMPDEST SWAP5 SWAP4 POP POP POP POP JUMP JUMPDEST PUSH32 0x4E487B7100000000000000000000000000000000000000000000000000000000 PUSH0 MSTORE PUSH1 0x22 PUSH1 0x4 MSTORE PUSH1 0x24 PUSH0 REVERT JUMPDEST PUSH0 PUSH1 0x2 DUP3 DIV SWAP1 POP PUSH1 0x1 DUP3 AND DUP1 PUSH2 0x61F JUMPI PUSH1 0x7F DUP3 AND SWAP2 POP JUMPDEST PUSH1 0x20 DUP3 LT DUP2 SUB PUSH2 0x632 JUMPI PUSH2 0x631 PUSH2 0x5DB JUMP JUMPDEST JUMPDEST POP SWAP2 SWAP1 POP JUMP JUMPDEST PUSH0 DUP2 SWAP1 POP DUP2 PUSH0 MSTORE PUSH1 0x20 PUSH0 KECCAK256 SWAP1 POP SWAP2 SWAP1 POP JUMP JUMPDEST PUSH0 PUSH1 0x20 PUSH1 0x1F DUP4 ADD DIV SWAP1 POP SWAP2 SWAP1 POP JUMP JUMPDEST PUSH0 DUP3 DUP3 SHL SWAP1 POP SWAP3 SWAP2 POP POP JUMP JUMPDEST PUSH0 PUSH1 0x8 DUP4 MUL PUSH2 0x694 PUSH32 0xFFFFFFFFFFFFFFFFFFFFFFFFFFFFFFFFFFFFFFFFFFFFFFFFFFFFFFFFFFFFFFFF DUP3 PUSH2 0x659 JUMP JUMPDEST PUSH2 0x69E DUP7 DUP4 PUSH2 0x659 JUMP JUMPDEST SWAP6 POP DUP1 NOT DUP5 AND SWAP4 POP DUP1 DUP7 AND DUP5 OR SWAP3 POP POP POP SWAP4 SWAP3 POP POP POP JUMP JUMPDEST PUSH0 DUP2 SWAP1 POP SWAP2 SWAP1 POP JUMP JUMPDEST PUSH0 PUSH2 0x6D9 PUSH2 0x6D4 PUSH2 0x6CF DUP5 PUSH2 0x46E JUMP JUMPDEST PUSH2 0x6B6 JUMP JUMPDEST PUSH2 0x46E JUMP JUMPDEST SWAP1 POP SWAP2 SWAP1 POP JUMP JUMPDEST PUSH0 DUP2 SWAP1 POP SWAP2 SWAP1 POP JUMP JUMPDEST PUSH2 0x6F2 DUP4 PUSH2 0x6BF JUMP JUMPDEST PUSH2 0x706 PUSH2 0x6FE DUP3 PUSH2 0x6E0 JUMP JUMPDEST DUP5 DUP5 SLOAD PUSH2 0x665 JUMP JUMPDEST DUP3 SSTORE POP POP POP POP JUMP JUMPDEST PUSH0 PUSH0 SWAP1 POP SWAP1 JUMP JUMPDEST PUSH2 0x71D PUSH2 0x70E JUMP JUMPDEST PUSH2 0x728 DUP2 DUP5 DUP5 PUSH2 0x6E9 JUMP JUMPDEST POP POP POP JUMP JUMPDEST JUMPDEST DUP2 DUP2 LT ISZERO PUSH2 0x74B JUMPI PUSH2 0x740 PUSH0 DUP3 PUSH2 0x715 JUMP JUMPDEST PUSH1 0x1 DUP2 ADD SWAP1 POP PUSH2 0x72E JUMP JUMPDEST POP POP JUMP JUMPDEST PUSH1 0x1F DUP3 GT ISZERO PUSH2 0x790 JUMPI PUSH2 0x761 DUP2 PUSH2 0x638 JUMP JUMPDEST PUSH2 0x76A DUP5 PUSH2 0x64A JUMP JUMPDEST DUP2 ADD PUSH1 0x20 DUP6 LT ISZERO PUSH2 0x779 JUMPI DUP2 SWAP1 POP JUMPDEST PUSH2 0x78D PUSH2 0x785 DUP6 PUSH2 0x64A JUMP JUMPDEST DUP4 ADD DUP3 PUSH2 0x72D JUMP JUMPDEST POP POP JUMPDEST POP POP POP JUMP JUMPDEST PUSH0 DUP3 DUP3 SHR SWAP1 POP SWAP3 SWAP2 POP POP JUMP JUMPDEST PUSH0 PUSH2 0x7B0 PUSH0 NOT DUP5 PUSH1 0x8 MUL PUSH2 0x795 JUMP JUMPDEST NOT DUP1 DUP4 AND SWAP2 POP POP SWAP3 SWAP2 POP POP JUMP JUMPDEST PUSH0 PUSH2 0x7C8 DUP4 DUP4 PUSH2 0x7A1 JUMP JUMPDEST SWAP2 POP DUP3 PUSH1 0x2 MUL DUP3 OR SWAP1 POP SWAP3 SWAP2 POP POP JUMP JUMPDEST PUSH2 0x7E1 DUP3 PUSH2 0x529 JUMP JUMPDEST PUSH8 0xFFFFFFFFFFFFFFFF DUP2 GT ISZERO PUSH2 0x7FA JUMPI PUSH2 0x7F9 PUSH2 0x34A JUMP JUMPDEST JUMPDEST PUSH2 0x804 DUP3 SLOAD PUSH2 0x608 JUMP JUMPDEST PUSH2 0x80F DUP3 DUP3 DUP6 PUSH2 0x74F JUMP JUMPDEST PUSH0 PUSH1 0x20 SWAP1 POP PUSH1 0x1F DUP4 GT PUSH1 0x1 DUP2 EQ PUSH2 0x840 JUMPI PUSH0 DUP5 ISZERO PUSH2 0x82E JUMPI DUP3 DUP8 ADD MLOAD SWAP1 POP JUMPDEST PUSH2 0x838 DUP6 DUP3 PUSH2 0x7BD JUMP JUMPDEST DUP7 SSTORE POP PUSH2 0x89F JUMP JUMPDEST PUSH1 0x1F NOT DUP5 AND PUSH2 0x84E DUP7 PUSH2 0x638 JUMP JUMPDEST PUSH0 JUMPDEST DUP3 DUP2 LT ISZERO PUSH2 0x875 JUMPI DUP5 DUP10 ADD MLOAD DUP3 SSTORE PUSH1 0x1 DUP3 ADD SWAP2 POP PUSH1 0x20 DUP6 ADD SWAP5 POP PUSH1 0x20 DUP2 ADD SWAP1 POP PUSH2 0x850 JUMP JUMPDEST DUP7 DUP4 LT ISZERO PUSH2 0x892 JUMPI DUP5 DUP10 ADD MLOAD PUSH2 0x88E PUSH1 0x1F DUP10 AND DUP3 PUSH2 0x7A1 JUMP JUMPDEST DUP4 SSTORE POP JUMPDEST PUSH1 0x1 PUSH1 0x2 DUP9 MUL ADD DUP9 SSTORE POP POP POP JUMPDEST POP POP POP POP POP POP JUMP INVALID LOG2 PUSH5 0x6970667358 0x22 SLT KECCAK256 0xDB 0x4B MSTORE GASPRICE PUSH18 0x37EDA461727C1122E1FE20C647F7216DA496 SWAP16 NOT TSTORE 0xC5 0xAA DUP7 PUSH20 0x3E3464736F6C634300081E003300000000000000 "
				},
				"gasEstimates": {
					"creation": {
						"codeDepositCost": "453800",
						"executionCost": "484",
						"totalCost": "454284"
					},
					"external": {
						"Buscar_Pessoa()": "infinite",
						"Cadastrar(string,string,uint256)": "infinite",
						"person()": "infinite"
					}
				},
				"methodIdentifiers": {
					"Buscar_Pessoa()": "8924cc23",
					"Cadastrar(string,string,uint256)": "17757f91",
					"person()": "77ec2b55"
				}
			},
			"storageLayout": {
				"storage": [
					{
						"astId": 11,
						"contract": "Introdução ao Solidity/Aprenda Solidity/Estrutura.sol:Estrutura",
						"label": "person",
						"offset": 0,
						"slot": "0",
						"type": "t_struct(Person)8_storage"
					}
				],
				"types": {
					"t_string_storage": {
						"encoding": "bytes",
						"label": "string",
						"numberOfBytes": "32"
					},
					"t_struct(Person)8_storage": {
						"encoding": "inplace",
						"label": "struct Estrutura.Person",
						"members": [
							{
								"astId": 3,
								"contract": "Introdução ao Solidity/Aprenda Solidity/Estrutura.sol:Estrutura",
								"label": "Nome",
								"offset": 0,
								"slot": "0",
								"type": "t_string_storage"
							},
							{
								"astId": 5,
								"contract": "Introdução ao Solidity/Aprenda Solidity/Estrutura.sol:Estrutura",
								"label": "UltimoNOme",
								"offset": 0,
								"slot": "1",
								"type": "t_string_storage"
							},
							{
								"astId": 7,
								"contract": "Introdução ao Solidity/Aprenda Solidity/Estrutura.sol:Estrutura",
								"label": "Idade",
								"offset": 0,
								"slot": "2",
								"type": "t_uint256"
							}
						],
						"numberOfBytes": "96"
					},
					"t_uint256": {
						"encoding": "inplace",
						"label": "uint256",
						"numberOfBytes": "32"
					}
				}
			},
			"userdoc": {
				"kind": "user",
				"methods": {},
				"version": 1
			}
		}
	}
}