{
	"Introdução ao Solidity/Aprenda Solidity/Contratos como classes.sol": {
		"Sum": {
			"abi": [
				{
					"inputs": [
						{
							"internalType": "uint256",
							"name": "_indice",
							"type": "uint256"
						}
					],
					"name": "PegarArray",
					"outputs": [
						{
							"internalType": "uint256",
							"name": "",
							"type": "uint256"
						}
					],
					"stateMutability": "view",
					"type": "function"
				},
				{
					"inputs": [
						{
							"internalType": "uint256",
							"name": "_x",
							"type": "uint256"
						},
						{
							"internalType": "uint256",
							"name": "_y",
							"type": "uint256"
						}
					],
					"name": "soma",
					"outputs": [
						{
							"internalType": "uint256",
							"name": "",
							"type": "uint256"
						}
					],
					"stateMutability": "nonpayable",
					"type": "function"
				}
			],
			"devdoc": {
				"kind": "dev",
				"methods": {},
				"version": 1
			},
			"evm": {
				"assembly": "    /* \"Introdu\\xc3\\xa7\\xc3\\xa3o ao Solidity/Aprenda Solidity/Contratos como classes.sol\":58:333  contract Sum{... */\n  mstore(0x40, 0x80)\n  callvalue\n  dup1\n  iszero\n  tag_1\n  jumpi\n  revert(0x00, 0x00)\ntag_1:\n  pop\n  dataSize(sub_0)\n  dup1\n  dataOffset(sub_0)\n  0x00\n  codecopy\n  0x00\n  return\nstop\n\nsub_0: assembly {\n        /* \"Introdu\\xc3\\xa7\\xc3\\xa3o ao Solidity/Aprenda Solidity/Contratos como classes.sol\":58:333  contract Sum{... */\n      mstore(0x40, 0x80)\n      callvalue\n      dup1\n      iszero\n      tag_1\n      jumpi\n      revert(0x00, 0x00)\n    tag_1:\n      pop\n      jumpi(tag_2, lt(calldatasize, 0x04))\n      shr(0xe0, calldataload(0x00))\n      dup1\n      0x15c50663\n      eq\n      tag_3\n      jumpi\n      dup1\n      0xb8b37f8e\n      eq\n      tag_4\n      jumpi\n    tag_2:\n      revert(0x00, 0x00)\n        /* \"Introdu\\xc3\\xa7\\xc3\\xa3o ao Solidity/Aprenda Solidity/Contratos como classes.sol\":96:227  function soma(uint _x, uint _y) public returns (uint){... */\n    tag_3:\n      tag_5\n      0x04\n      dup1\n      calldatasize\n      sub\n      dup2\n      add\n      swap1\n      tag_6\n      swap2\n      swap1\n      tag_7\n      jump\t// in\n    tag_6:\n      tag_8\n      jump\t// in\n    tag_5:\n      mload(0x40)\n      tag_9\n      swap2\n      swap1\n      tag_10\n      jump\t// in\n    tag_9:\n      mload(0x40)\n      dup1\n      swap2\n      sub\n      swap1\n      return\n        /* \"Introdu\\xc3\\xa7\\xc3\\xa3o ao Solidity/Aprenda Solidity/Contratos como classes.sol\":233:331  function PegarArray(uint _indice) public view returns (uint){... */\n    tag_4:\n      tag_11\n      0x04\n      dup1\n      calldatasize\n      sub\n      dup2\n      add\n      swap1\n      tag_12\n      swap2\n      swap1\n      tag_13\n      jump\t// in\n    tag_12:\n      tag_14\n      jump\t// in\n    tag_11:\n      mload(0x40)\n      tag_15\n      swap2\n      swap1\n      tag_10\n      jump\t// in\n    tag_15:\n      mload(0x40)\n      dup1\n      swap2\n      sub\n      swap1\n      return\n        /* \"Introdu\\xc3\\xa7\\xc3\\xa3o ao Solidity/Aprenda Solidity/Contratos como classes.sol\":96:227  function soma(uint _x, uint _y) public returns (uint){... */\n    tag_8:\n        /* \"Introdu\\xc3\\xa7\\xc3\\xa3o ao Solidity/Aprenda Solidity/Contratos como classes.sol\":144:148  uint */\n      0x00\n        /* \"Introdu\\xc3\\xa7\\xc3\\xa3o ao Solidity/Aprenda Solidity/Contratos como classes.sol\":168:173  array */\n      0x00\n        /* \"Introdu\\xc3\\xa7\\xc3\\xa3o ao Solidity/Aprenda Solidity/Contratos como classes.sol\":184:186  _y */\n      dup3\n        /* \"Introdu\\xc3\\xa7\\xc3\\xa3o ao Solidity/Aprenda Solidity/Contratos como classes.sol\":179:181  _x */\n      dup5\n        /* \"Introdu\\xc3\\xa7\\xc3\\xa3o ao Solidity/Aprenda Solidity/Contratos como classes.sol\":179:186  _x + _y */\n      tag_17\n      swap2\n      swap1\n      tag_18\n      jump\t// in\n    tag_17:\n        /* \"Introdu\\xc3\\xa7\\xc3\\xa3o ao Solidity/Aprenda Solidity/Contratos como classes.sol\":168:187  array.push(_x + _y) */\n      swap1\n      dup1\n      0x01\n      dup2\n      sload\n      add\n      dup1\n      dup3\n      sstore\n      dup1\n      swap2\n      pop\n      pop\n      0x01\n      swap1\n      sub\n      swap1\n      0x00\n      mstore\n      keccak256(0x00, 0x20)\n      add\n      0x00\n      swap1\n      swap2\n      swap1\n      swap2\n      swap1\n      swap2\n      pop\n      sstore\n        /* \"Introdu\\xc3\\xa7\\xc3\\xa3o ao Solidity/Aprenda Solidity/Contratos como classes.sol\":218:220  _y */\n      dup2\n        /* \"Introdu\\xc3\\xa7\\xc3\\xa3o ao Solidity/Aprenda Solidity/Contratos como classes.sol\":213:215  _x */\n      dup4\n        /* \"Introdu\\xc3\\xa7\\xc3\\xa3o ao Solidity/Aprenda Solidity/Contratos como classes.sol\":213:220  _x + _y */\n      tag_20\n      swap2\n      swap1\n      tag_18\n      jump\t// in\n    tag_20:\n        /* \"Introdu\\xc3\\xa7\\xc3\\xa3o ao Solidity/Aprenda Solidity/Contratos como classes.sol\":206:220  return _x + _y */\n      swap1\n      pop\n        /* \"Introdu\\xc3\\xa7\\xc3\\xa3o ao Solidity/Aprenda Solidity/Contratos como classes.sol\":96:227  function soma(uint _x, uint _y) public returns (uint){... */\n      swap3\n      swap2\n      pop\n      pop\n      jump\t// out\n        /* \"Introdu\\xc3\\xa7\\xc3\\xa3o ao Solidity/Aprenda Solidity/Contratos como classes.sol\":233:331  function PegarArray(uint _indice) public view returns (uint){... */\n    tag_14:\n        /* \"Introdu\\xc3\\xa7\\xc3\\xa3o ao Solidity/Aprenda Solidity/Contratos como classes.sol\":288:292  uint */\n      0x00\n        /* \"Introdu\\xc3\\xa7\\xc3\\xa3o ao Solidity/Aprenda Solidity/Contratos como classes.sol\":310:315  array */\n      0x00\n        /* \"Introdu\\xc3\\xa7\\xc3\\xa3o ao Solidity/Aprenda Solidity/Contratos como classes.sol\":316:323  _indice */\n      dup3\n        /* \"Introdu\\xc3\\xa7\\xc3\\xa3o ao Solidity/Aprenda Solidity/Contratos como classes.sol\":310:324  array[_indice] */\n      dup2\n      sload\n      dup2\n      lt\n      tag_22\n      jumpi\n      tag_23\n      tag_24\n      jump\t// in\n    tag_23:\n    tag_22:\n      swap1\n      0x00\n      mstore\n      keccak256(0x00, 0x20)\n      add\n      sload\n        /* \"Introdu\\xc3\\xa7\\xc3\\xa3o ao Solidity/Aprenda Solidity/Contratos como classes.sol\":303:324  return array[_indice] */\n      swap1\n      pop\n        /* \"Introdu\\xc3\\xa7\\xc3\\xa3o ao Solidity/Aprenda Solidity/Contratos como classes.sol\":233:331  function PegarArray(uint _indice) public view returns (uint){... */\n      swap2\n      swap1\n      pop\n      jump\t// out\n        /* \"#utility.yul\":88:205   */\n    tag_27:\n        /* \"#utility.yul\":197:198   */\n      0x00\n        /* \"#utility.yul\":194:195   */\n      0x00\n        /* \"#utility.yul\":187:199   */\n      revert\n        /* \"#utility.yul\":334:411   */\n    tag_29:\n        /* \"#utility.yul\":371:378   */\n      0x00\n        /* \"#utility.yul\":400:405   */\n      dup2\n        /* \"#utility.yul\":389:405   */\n      swap1\n      pop\n        /* \"#utility.yul\":334:411   */\n      swap2\n      swap1\n      pop\n      jump\t// out\n        /* \"#utility.yul\":417:539   */\n    tag_30:\n        /* \"#utility.yul\":490:514   */\n      tag_40\n        /* \"#utility.yul\":508:513   */\n      dup2\n        /* \"#utility.yul\":490:514   */\n      tag_29\n      jump\t// in\n    tag_40:\n        /* \"#utility.yul\":483:488   */\n      dup2\n        /* \"#utility.yul\":480:515   */\n      eq\n        /* \"#utility.yul\":470:533   */\n      tag_41\n      jumpi\n        /* \"#utility.yul\":529:530   */\n      0x00\n        /* \"#utility.yul\":526:527   */\n      0x00\n        /* \"#utility.yul\":519:531   */\n      revert\n        /* \"#utility.yul\":470:533   */\n    tag_41:\n        /* \"#utility.yul\":417:539   */\n      pop\n      jump\t// out\n        /* \"#utility.yul\":545:684   */\n    tag_31:\n        /* \"#utility.yul\":591:596   */\n      0x00\n        /* \"#utility.yul\":629:635   */\n      dup2\n        /* \"#utility.yul\":616:636   */\n      calldataload\n        /* \"#utility.yul\":607:636   */\n      swap1\n      pop\n        /* \"#utility.yul\":645:678   */\n      tag_43\n        /* \"#utility.yul\":672:677   */\n      dup2\n        /* \"#utility.yul\":645:678   */\n      tag_30\n      jump\t// in\n    tag_43:\n        /* \"#utility.yul\":545:684   */\n      swap3\n      swap2\n      pop\n      pop\n      jump\t// out\n        /* \"#utility.yul\":690:1164   */\n    tag_7:\n        /* \"#utility.yul\":758:764   */\n      0x00\n        /* \"#utility.yul\":766:772   */\n      0x00\n        /* \"#utility.yul\":815:817   */\n      0x40\n        /* \"#utility.yul\":803:812   */\n      dup4\n        /* \"#utility.yul\":794:801   */\n      dup6\n        /* \"#utility.yul\":790:813   */\n      sub\n        /* \"#utility.yul\":786:818   */\n      slt\n        /* \"#utility.yul\":783:902   */\n      iszero\n      tag_45\n      jumpi\n        /* \"#utility.yul\":821:900   */\n      tag_46\n      tag_27\n      jump\t// in\n    tag_46:\n        /* \"#utility.yul\":783:902   */\n    tag_45:\n        /* \"#utility.yul\":941:942   */\n      0x00\n        /* \"#utility.yul\":966:1019   */\n      tag_47\n        /* \"#utility.yul\":1011:1018   */\n      dup6\n        /* \"#utility.yul\":1002:1008   */\n      dup3\n        /* \"#utility.yul\":991:1000   */\n      dup7\n        /* \"#utility.yul\":987:1009   */\n      add\n        /* \"#utility.yul\":966:1019   */\n      tag_31\n      jump\t// in\n    tag_47:\n        /* \"#utility.yul\":956:1019   */\n      swap3\n      pop\n        /* \"#utility.yul\":912:1029   */\n      pop\n        /* \"#utility.yul\":1068:1070   */\n      0x20\n        /* \"#utility.yul\":1094:1147   */\n      tag_48\n        /* \"#utility.yul\":1139:1146   */\n      dup6\n        /* \"#utility.yul\":1130:1136   */\n      dup3\n        /* \"#utility.yul\":1119:1128   */\n      dup7\n        /* \"#utility.yul\":1115:1137   */\n      add\n        /* \"#utility.yul\":1094:1147   */\n      tag_31\n      jump\t// in\n    tag_48:\n        /* \"#utility.yul\":1084:1147   */\n      swap2\n      pop\n        /* \"#utility.yul\":1039:1157   */\n      pop\n        /* \"#utility.yul\":690:1164   */\n      swap3\n      pop\n      swap3\n      swap1\n      pop\n      jump\t// out\n        /* \"#utility.yul\":1170:1288   */\n    tag_32:\n        /* \"#utility.yul\":1257:1281   */\n      tag_50\n        /* \"#utility.yul\":1275:1280   */\n      dup2\n        /* \"#utility.yul\":1257:1281   */\n      tag_29\n      jump\t// in\n    tag_50:\n        /* \"#utility.yul\":1252:1255   */\n      dup3\n        /* \"#utility.yul\":1245:1282   */\n      mstore\n        /* \"#utility.yul\":1170:1288   */\n      pop\n      pop\n      jump\t// out\n        /* \"#utility.yul\":1294:1516   */\n    tag_10:\n        /* \"#utility.yul\":1387:1391   */\n      0x00\n        /* \"#utility.yul\":1425:1427   */\n      0x20\n        /* \"#utility.yul\":1414:1423   */\n      dup3\n        /* \"#utility.yul\":1410:1428   */\n      add\n        /* \"#utility.yul\":1402:1428   */\n      swap1\n      pop\n        /* \"#utility.yul\":1438:1509   */\n      tag_52\n        /* \"#utility.yul\":1506:1507   */\n      0x00\n        /* \"#utility.yul\":1495:1504   */\n      dup4\n        /* \"#utility.yul\":1491:1508   */\n      add\n        /* \"#utility.yul\":1482:1488   */\n      dup5\n        /* \"#utility.yul\":1438:1509   */\n      tag_32\n      jump\t// in\n    tag_52:\n        /* \"#utility.yul\":1294:1516   */\n      swap3\n      swap2\n      pop\n      pop\n      jump\t// out\n        /* \"#utility.yul\":1522:1851   */\n    tag_13:\n        /* \"#utility.yul\":1581:1587   */\n      0x00\n        /* \"#utility.yul\":1630:1632   */\n      0x20\n        /* \"#utility.yul\":1618:1627   */\n      dup3\n        /* \"#utility.yul\":1609:1616   */\n      dup5\n        /* \"#utility.yul\":1605:1628   */\n      sub\n        /* \"#utility.yul\":1601:1633   */\n      slt\n        /* \"#utility.yul\":1598:1717   */\n      iszero\n      tag_54\n      jumpi\n        /* \"#utility.yul\":1636:1715   */\n      tag_55\n      tag_27\n      jump\t// in\n    tag_55:\n        /* \"#utility.yul\":1598:1717   */\n    tag_54:\n        /* \"#utility.yul\":1756:1757   */\n      0x00\n        /* \"#utility.yul\":1781:1834   */\n      tag_56\n        /* \"#utility.yul\":1826:1833   */\n      dup5\n        /* \"#utility.yul\":1817:1823   */\n      dup3\n        /* \"#utility.yul\":1806:1815   */\n      dup6\n        /* \"#utility.yul\":1802:1824   */\n      add\n        /* \"#utility.yul\":1781:1834   */\n      tag_31\n      jump\t// in\n    tag_56:\n        /* \"#utility.yul\":1771:1834   */\n      swap2\n      pop\n        /* \"#utility.yul\":1727:1844   */\n      pop\n        /* \"#utility.yul\":1522:1851   */\n      swap3\n      swap2\n      pop\n      pop\n      jump\t// out\n        /* \"#utility.yul\":1857:2037   */\n    tag_33:\n        /* \"#utility.yul\":1905:1982   */\n      0x4e487b7100000000000000000000000000000000000000000000000000000000\n        /* \"#utility.yul\":1902:1903   */\n      0x00\n        /* \"#utility.yul\":1895:1983   */\n      mstore\n        /* \"#utility.yul\":2002:2006   */\n      0x11\n        /* \"#utility.yul\":1999:2000   */\n      0x04\n        /* \"#utility.yul\":1992:2007   */\n      mstore\n        /* \"#utility.yul\":2026:2030   */\n      0x24\n        /* \"#utility.yul\":2023:2024   */\n      0x00\n        /* \"#utility.yul\":2016:2031   */\n      revert\n        /* \"#utility.yul\":2043:2234   */\n    tag_18:\n        /* \"#utility.yul\":2083:2086   */\n      0x00\n        /* \"#utility.yul\":2102:2122   */\n      tag_59\n        /* \"#utility.yul\":2120:2121   */\n      dup3\n        /* \"#utility.yul\":2102:2122   */\n      tag_29\n      jump\t// in\n    tag_59:\n        /* \"#utility.yul\":2097:2122   */\n      swap2\n      pop\n        /* \"#utility.yul\":2136:2156   */\n      tag_60\n        /* \"#utility.yul\":2154:2155   */\n      dup4\n        /* \"#utility.yul\":2136:2156   */\n      tag_29\n      jump\t// in\n    tag_60:\n        /* \"#utility.yul\":2131:2156   */\n      swap3\n      pop\n        /* \"#utility.yul\":2179:2180   */\n      dup3\n        /* \"#utility.yul\":2176:2177   */\n      dup3\n        /* \"#utility.yul\":2172:2181   */\n      add\n        /* \"#utility.yul\":2165:2181   */\n      swap1\n      pop\n        /* \"#utility.yul\":2200:2203   */\n      dup1\n        /* \"#utility.yul\":2197:2198   */\n      dup3\n        /* \"#utility.yul\":2194:2204   */\n      gt\n        /* \"#utility.yul\":2191:2227   */\n      iszero\n      tag_61\n      jumpi\n        /* \"#utility.yul\":2207:2225   */\n      tag_62\n      tag_33\n      jump\t// in\n    tag_62:\n        /* \"#utility.yul\":2191:2227   */\n    tag_61:\n        /* \"#utility.yul\":2043:2234   */\n      swap3\n      swap2\n      pop\n      pop\n      jump\t// out\n        /* \"#utility.yul\":2240:2420   */\n    tag_24:\n        /* \"#utility.yul\":2288:2365   */\n      0x4e487b7100000000000000000000000000000000000000000000000000000000\n        /* \"#utility.yul\":2285:2286   */\n      0x00\n        /* \"#utility.yul\":2278:2366   */\n      mstore\n        /* \"#utility.yul\":2385:2389   */\n      0x32\n        /* \"#utility.yul\":2382:2383   */\n      0x04\n        /* \"#utility.yul\":2375:2390   */\n      mstore\n        /* \"#utility.yul\":2409:2413   */\n      0x24\n        /* \"#utility.yul\":2406:2407   */\n      0x00\n        /* \"#utility.yul\":2399:2414   */\n      revert\n\n    auxdata: 0xa2646970667358221220fb3f15137ee23043cfe9418dc71b67428ce4c412ca8f83a8ca3ef259e9af593f64736f6c634300081e0033\n}\n",
				"bytecode": {
					"linkReferences": {},
					"object": "6080604052348015600e575f5ffd5b5061028c8061001c5f395ff3fe608060405234801561000f575f5ffd5b5060043610610034575f3560e01c806315c5066314610038578063b8b37f8e14610068575b5f5ffd5b610052600480360381019061004d9190610138565b610098565b60405161005f9190610185565b60405180910390f35b610082600480360381019061007d919061019e565b6100dd565b60405161008f9190610185565b60405180910390f35b5f5f82846100a691906101f6565b908060018154018082558091505060019003905f5260205f20015f909190919091505581836100d591906101f6565b905092915050565b5f5f82815481106100f1576100f0610229565b5b905f5260205f2001549050919050565b5f5ffd5b5f819050919050565b61011781610105565b8114610121575f5ffd5b50565b5f813590506101328161010e565b92915050565b5f5f6040838503121561014e5761014d610101565b5b5f61015b85828601610124565b925050602061016c85828601610124565b9150509250929050565b61017f81610105565b82525050565b5f6020820190506101985f830184610176565b92915050565b5f602082840312156101b3576101b2610101565b5b5f6101c084828501610124565b91505092915050565b7f4e487b71000000000000000000000000000000000000000000000000000000005f52601160045260245ffd5b5f61020082610105565b915061020b83610105565b9250828201905080821115610223576102226101c9565b5b92915050565b7f4e487b71000000000000000000000000000000000000000000000000000000005f52603260045260245ffdfea2646970667358221220fb3f15137ee23043cfe9418dc71b67428ce4c412ca8f83a8ca3ef259e9af593f64736f6c634300081e0033",
					"opcodes": "PUSH1 0x80 PUSH1 0x40 MSTORE CALLVALUE DUP1 ISZERO PUSH1 0xE JUMPI PUSH0 PUSH0 REVERT JUMPDEST POP PUSH2 0x28C DUP1 PUSH2 0x1C PUSH0 CODECOPY PUSH0 RETURN INVALID PUSH1 0x80 PUSH1 0x40 MSTORE CALLVALUE DUP1 ISZERO PUSH2 0xF JUMPI PUSH0 PUSH0 REVERT JUMPDEST POP PUSH1 0x4 CALLDATASIZE LT PUSH2 0x34 JUMPI PUSH0 CALLDATALOAD PUSH1 0xE0 SHR DUP1 PUSH4 0x15C50663 EQ PUSH2 0x38 JUMPI DUP1 PUSH4 0xB8B37F8E EQ PUSH2 0x68 JUMPI JUMPDEST PUSH0 PUSH0 REVERT JUMPDEST PUSH2 0x52 PUSH1 0x4 DUP1 CALLDATASIZE SUB DUP2 ADD SWAP1 PUSH2 0x4D SWAP2 SWAP1 PUSH2 0x138 JUMP JUMPDEST PUSH2 0x98 JUMP JUMPDEST PUSH1 0x40 MLOAD PUSH2 0x5F SWAP2 SWAP1 PUSH2 0x185 JUMP JUMPDEST PUSH1 0x40 MLOAD DUP1 SWAP2 SUB SWAP1 RETURN JUMPDEST PUSH2 0x82 PUSH1 0x4 DUP1 CALLDATASIZE SUB DUP2 ADD SWAP1 PUSH2 0x7D SWAP2 SWAP1 PUSH2 0x19E JUMP JUMPDEST PUSH2 0xDD JUMP JUMPDEST PUSH1 0x40 MLOAD PUSH2 0x8F SWAP2 SWAP1 PUSH2 0x185 JUMP JUMPDEST PUSH1 0x40 MLOAD DUP1 SWAP2 SUB SWAP1 RETURN JUMPDEST PUSH0 PUSH0 DUP3 DUP5 PUSH2 0xA6 SWAP2 SWAP1 PUSH2 0x1F6 JUMP JUMPDEST SWAP1 DUP1 PUSH1 0x1 DUP2 SLOAD ADD DUP1 DUP3 SSTORE DUP1 SWAP2 POP POP PUSH1 0x1 SWAP1 SUB SWAP1 PUSH0 MSTORE PUSH1 0x20 PUSH0 KECCAK256 ADD PUSH0 SWAP1 SWAP2 SWAP1 SWAP2 SWAP1 SWAP2 POP SSTORE DUP2 DUP4 PUSH2 0xD5 SWAP2 SWAP1 PUSH2 0x1F6 JUMP JUMPDEST SWAP1 POP SWAP3 SWAP2 POP POP JUMP JUMPDEST PUSH0 PUSH0 DUP3 DUP2 SLOAD DUP2 LT PUSH2 0xF1 JUMPI PUSH2 0xF0 PUSH2 0x229 JUMP JUMPDEST JUMPDEST SWAP1 PUSH0 MSTORE PUSH1 0x20 PUSH0 KECCAK256 ADD SLOAD SWAP1 POP SWAP2 SWAP1 POP JUMP JUMPDEST PUSH0 PUSH0 REVERT JUMPDEST PUSH0 DUP2 SWAP1 POP SWAP2 SWAP1 POP JUMP JUMPDEST PUSH2 0x117 DUP2 PUSH2 0x105 JUMP JUMPDEST DUP2 EQ PUSH2 0x121 JUMPI PUSH0 PUSH0 REVERT JUMPDEST POP JUMP JUMPDEST PUSH0 DUP2 CALLDATALOAD SWAP1 POP PUSH2 0x132 DUP2 PUSH2 0x10E JUMP JUMPDEST SWAP3 SWAP2 POP POP JUMP JUMPDEST PUSH0 PUSH0 PUSH1 0x40 DUP4 DUP6 SUB SLT ISZERO PUSH2 0x14E JUMPI PUSH2 0x14D PUSH2 0x101 JUMP JUMPDEST JUMPDEST PUSH0 PUSH2 0x15B DUP6 DUP3 DUP7 ADD PUSH2 0x124 JUMP JUMPDEST SWAP3 POP POP PUSH1 0x20 PUSH2 0x16C DUP6 DUP3 DUP7 ADD PUSH2 0x124 JUMP JUMPDEST SWAP2 POP POP SWAP3 POP SWAP3 SWAP1 POP JUMP JUMPDEST PUSH2 0x17F DUP2 PUSH2 0x105 JUMP JUMPDEST DUP3 MSTORE POP POP JUMP JUMPDEST PUSH0 PUSH1 0x20 DUP3 ADD SWAP1 POP PUSH2 0x198 PUSH0 DUP4 ADD DUP5 PUSH2 0x176 JUMP JUMPDEST SWAP3 SWAP2 POP POP JUMP JUMPDEST PUSH0 PUSH1 0x20 DUP3 DUP5 SUB SLT ISZERO PUSH2 0x1B3 JUMPI PUSH2 0x1B2 PUSH2 0x101 JUMP JUMPDEST JUMPDEST PUSH0 PUSH2 0x1C0 DUP5 DUP3 DUP6 ADD PUSH2 0x124 JUMP JUMPDEST SWAP2 POP POP SWAP3 SWAP2 POP POP JUMP JUMPDEST PUSH32 0x4E487B7100000000000000000000000000000000000000000000000000000000 PUSH0 MSTORE PUSH1 0x11 PUSH1 0x4 MSTORE PUSH1 0x24 PUSH0 REVERT JUMPDEST PUSH0 PUSH2 0x200 DUP3 PUSH2 0x105 JUMP JUMPDEST SWAP2 POP PUSH2 0x20B DUP4 PUSH2 0x105 JUMP JUMPDEST SWAP3 POP DUP3 DUP3 ADD SWAP1 POP DUP1 DUP3 GT ISZERO PUSH2 0x223 JUMPI PUSH2 0x222 PUSH2 0x1C9 JUMP JUMPDEST JUMPDEST SWAP3 SWAP2 POP POP JUMP JUMPDEST PUSH32 0x4E487B7100000000000000000000000000000000000000000000000000000000 PUSH0 MSTORE PUSH1 0x32 PUSH1 0x4 MSTORE PUSH1 0x24 PUSH0 REVERT INVALID LOG2 PUSH5 0x6970667358 0x22 SLT KECCAK256 EXTSTATICCALL EXTCODEHASH ISZERO SGT PUSH31 0xE23043CFE9418DC71B67428CE4C412CA8F83A8CA3EF259E9AF593F64736F6C PUSH4 0x4300081E STOP CALLER "
				},
				"gasEstimates": {
					"creation": {
						"codeDepositCost": "130400",
						"executionCost": "175",
						"totalCost": "130575"
					},
					"external": {
						"PegarArray(uint256)": "infinite",
						"soma(uint256,uint256)": "infinite"
					}
				},
				"methodIdentifiers": {
					"PegarArray(uint256)": "b8b37f8e",
					"soma(uint256,uint256)": "15c50663"
				}
			},
			"storageLayout": {
				"storage": [
					{
						"astId": 4,
						"contract": "Introdução ao Solidity/Aprenda Solidity/Contratos como classes.sol:Sum",
						"label": "array",
						"offset": 0,
						"slot": "0",
						"type": "t_array(t_uint256)dyn_storage"
					}
				],
				"types": {
					"t_array(t_uint256)dyn_storage": {
						"base": "t_uint256",
						"encoding": "dynamic_array",
						"label": "uint256[]",
						"numberOfBytes": "32"
					},
					"t_uint256": {
						"encoding": "inplace",
						"label": "uint256",
						"numberOfBytes": "32"
					}
				}
			},
			"userdoc": {
				"kind": "user",
				"methods": {},
				"version": 1
			}
		}
	}
}