{
	"Introdução ao Solidity/Aprenda Solidity/Contratos como classes.sol": {
		"Fabrica": {
			"abi": [
				{
					"inputs": [],
					"name": "CriaNovosoma",
					"outputs": [],
					"stateMutability": "nonpayable",
					"type": "function"
				},
				{
					"inputs": [
						{
							"internalType": "uint256",
							"name": "",
							"type": "uint256"
						}
					],
					"name": "enderecos",
					"outputs": [
						{
							"internalType": "address",
							"name": "",
							"type": "address"
						}
					],
					"stateMutability": "view",
					"type": "function"
				}
			],
			"devdoc": {
				"kind": "dev",
				"methods": {},
				"version": 1
			},
			"evm": {
				"assembly": "    /* \"Introdu\\xc3\\xa7\\xc3\\xa3o ao Solidity/Aprenda Solidity/Contratos como classes.sol\":335:663  contract Fabrica{... */\n  mstore(0x40, 0x80)\n  callvalue\n  dup1\n  iszero\n  tag_1\n  jumpi\n  revert(0x00, 0x00)\ntag_1:\n  pop\n  dataSize(sub_0)\n  dup1\n  dataOffset(sub_0)\n  0x00\n  codecopy\n  0x00\n  return\nstop\n\nsub_0: assembly {\n        /* \"Introdu\\xc3\\xa7\\xc3\\xa3o ao Solidity/Aprenda Solidity/Contratos como classes.sol\":335:663  contract Fabrica{... */\n      mstore(0x40, 0x80)\n      callvalue\n      dup1\n      iszero\n      tag_1\n      jumpi\n      revert(0x00, 0x00)\n    tag_1:\n      pop\n      jumpi(tag_2, lt(calldatasize, 0x04))\n      shr(0xe0, calldataload(0x00))\n      dup1\n      0x383d2bbe\n      eq\n      tag_3\n      jumpi\n      dup1\n      0x60dca75f\n      eq\n      tag_4\n      jumpi\n    tag_2:\n      revert(0x00, 0x00)\n        /* \"Introdu\\xc3\\xa7\\xc3\\xa3o ao Solidity/Aprenda Solidity/Contratos como classes.sol\":358:384  address[] public enderecos */\n    tag_3:\n      tag_5\n      0x04\n      dup1\n      calldatasize\n      sub\n      dup2\n      add\n      swap1\n      tag_6\n      swap2\n      swap1\n      tag_7\n      jump\t// in\n    tag_6:\n      tag_8\n      jump\t// in\n    tag_5:\n      mload(0x40)\n      tag_9\n      swap2\n      swap1\n      tag_10\n      jump\t// in\n    tag_9:\n      mload(0x40)\n      dup1\n      swap2\n      sub\n      swap1\n      return\n        /* \"Introdu\\xc3\\xa7\\xc3\\xa3o ao Solidity/Aprenda Solidity/Contratos como classes.sol\":391:661  function CriaNovosoma() public {... */\n    tag_4:\n      tag_11\n      tag_12\n      jump\t// in\n    tag_11:\n      stop\n        /* \"Introdu\\xc3\\xa7\\xc3\\xa3o ao Solidity/Aprenda Solidity/Contratos como classes.sol\":358:384  address[] public enderecos */\n    tag_8:\n      0x00\n      dup2\n      dup2\n      sload\n      dup2\n      lt\n      tag_13\n      jumpi\n      0x00\n      dup1\n      revert\n    tag_13:\n      swap1\n      0x00\n      mstore\n      keccak256(0x00, 0x20)\n      add\n      0x00\n      swap2\n      pop\n      sload\n      swap1\n      0x0100\n      exp\n      swap1\n      div\n      0xffffffffffffffffffffffffffffffffffffffff\n      and\n      dup2\n      jump\t// out\n        /* \"Introdu\\xc3\\xa7\\xc3\\xa3o ao Solidity/Aprenda Solidity/Contratos como classes.sol\":391:661  function CriaNovosoma() public {... */\n    tag_12:\n        /* \"Introdu\\xc3\\xa7\\xc3\\xa3o ao Solidity/Aprenda Solidity/Contratos como classes.sol\":508:520  Sum NovoSoma */\n      0x00\n        /* \"Introdu\\xc3\\xa7\\xc3\\xa3o ao Solidity/Aprenda Solidity/Contratos como classes.sol\":523:532  new Sum() */\n      mload(0x40)\n      tag_16\n      swap1\n      tag_17\n      jump\t// in\n    tag_16:\n      mload(0x40)\n      dup1\n      swap2\n      sub\n      swap1\n      0x00\n      create\n      dup1\n      iszero\n      dup1\n      iszero\n      tag_18\n      jumpi\n      returndatacopy(0x00, 0x00, returndatasize)\n      revert(0x00, returndatasize)\n    tag_18:\n      pop\n        /* \"Introdu\\xc3\\xa7\\xc3\\xa3o ao Solidity/Aprenda Solidity/Contratos como classes.sol\":508:532  Sum NovoSoma = new Sum() */\n      swap1\n      pop\n        /* \"Introdu\\xc3\\xa7\\xc3\\xa3o ao Solidity/Aprenda Solidity/Contratos como classes.sol\":620:629  enderecos */\n      0x00\n        /* \"Introdu\\xc3\\xa7\\xc3\\xa3o ao Solidity/Aprenda Solidity/Contratos como classes.sol\":643:651  NovoSoma */\n      dup2\n        /* \"Introdu\\xc3\\xa7\\xc3\\xa3o ao Solidity/Aprenda Solidity/Contratos como classes.sol\":620:653  enderecos.push(address(NovoSoma)) */\n      swap1\n      dup1\n      0x01\n      dup2\n      sload\n      add\n      dup1\n      dup3\n      sstore\n      dup1\n      swap2\n      pop\n      pop\n      0x01\n      swap1\n      sub\n      swap1\n      0x00\n      mstore\n      keccak256(0x00, 0x20)\n      add\n      0x00\n      swap1\n      swap2\n      swap1\n      swap2\n      swap1\n      swap2\n      0x0100\n      exp\n      dup2\n      sload\n      dup2\n      0xffffffffffffffffffffffffffffffffffffffff\n      mul\n      not\n      and\n      swap1\n      dup4\n      0xffffffffffffffffffffffffffffffffffffffff\n      and\n      mul\n      or\n      swap1\n      sstore\n      pop\n        /* \"Introdu\\xc3\\xa7\\xc3\\xa3o ao Solidity/Aprenda Solidity/Contratos como classes.sol\":422:661  {... */\n      pop\n        /* \"Introdu\\xc3\\xa7\\xc3\\xa3o ao Solidity/Aprenda Solidity/Contratos como classes.sol\":391:661  function CriaNovosoma() public {... */\n      jump\t// out\n    tag_17:\n      dataSize(sub_0)\n      dup1\n      dataOffset(sub_0)\n      dup4\n      codecopy\n      add\n      swap1\n      jump\t// out\n        /* \"#utility.yul\":88:205   */\n    tag_21:\n        /* \"#utility.yul\":197:198   */\n      0x00\n        /* \"#utility.yul\":194:195   */\n      0x00\n        /* \"#utility.yul\":187:199   */\n      revert\n        /* \"#utility.yul\":334:411   */\n    tag_23:\n        /* \"#utility.yul\":371:378   */\n      0x00\n        /* \"#utility.yul\":400:405   */\n      dup2\n        /* \"#utility.yul\":389:405   */\n      swap1\n      pop\n        /* \"#utility.yul\":334:411   */\n      swap2\n      swap1\n      pop\n      jump\t// out\n        /* \"#utility.yul\":417:539   */\n    tag_24:\n        /* \"#utility.yul\":490:514   */\n      tag_35\n        /* \"#utility.yul\":508:513   */\n      dup2\n        /* \"#utility.yul\":490:514   */\n      tag_23\n      jump\t// in\n    tag_35:\n        /* \"#utility.yul\":483:488   */\n      dup2\n        /* \"#utility.yul\":480:515   */\n      eq\n        /* \"#utility.yul\":470:533   */\n      tag_36\n      jumpi\n        /* \"#utility.yul\":529:530   */\n      0x00\n        /* \"#utility.yul\":526:527   */\n      0x00\n        /* \"#utility.yul\":519:531   */\n      revert\n        /* \"#utility.yul\":470:533   */\n    tag_36:\n        /* \"#utility.yul\":417:539   */\n      pop\n      jump\t// out\n        /* \"#utility.yul\":545:684   */\n    tag_25:\n        /* \"#utility.yul\":591:596   */\n      0x00\n        /* \"#utility.yul\":629:635   */\n      dup2\n        /* \"#utility.yul\":616:636   */\n      calldataload\n        /* \"#utility.yul\":607:636   */\n      swap1\n      pop\n        /* \"#utility.yul\":645:678   */\n      tag_38\n        /* \"#utility.yul\":672:677   */\n      dup2\n        /* \"#utility.yul\":645:678   */\n      tag_24\n      jump\t// in\n    tag_38:\n        /* \"#utility.yul\":545:684   */\n      swap3\n      swap2\n      pop\n      pop\n      jump\t// out\n        /* \"#utility.yul\":690:1019   */\n    tag_7:\n        /* \"#utility.yul\":749:755   */\n      0x00\n        /* \"#utility.yul\":798:800   */\n      0x20\n        /* \"#utility.yul\":786:795   */\n      dup3\n        /* \"#utility.yul\":777:784   */\n      dup5\n        /* \"#utility.yul\":773:796   */\n      sub\n        /* \"#utility.yul\":769:801   */\n      slt\n        /* \"#utility.yul\":766:885   */\n      iszero\n      tag_40\n      jumpi\n        /* \"#utility.yul\":804:883   */\n      tag_41\n      tag_21\n      jump\t// in\n    tag_41:\n        /* \"#utility.yul\":766:885   */\n    tag_40:\n        /* \"#utility.yul\":924:925   */\n      0x00\n        /* \"#utility.yul\":949:1002   */\n      tag_42\n        /* \"#utility.yul\":994:1001   */\n      dup5\n        /* \"#utility.yul\":985:991   */\n      dup3\n        /* \"#utility.yul\":974:983   */\n      dup6\n        /* \"#utility.yul\":970:992   */\n      add\n        /* \"#utility.yul\":949:1002   */\n      tag_25\n      jump\t// in\n    tag_42:\n        /* \"#utility.yul\":939:1002   */\n      swap2\n      pop\n        /* \"#utility.yul\":895:1012   */\n      pop\n        /* \"#utility.yul\":690:1019   */\n      swap3\n      swap2\n      pop\n      pop\n      jump\t// out\n        /* \"#utility.yul\":1025:1151   */\n    tag_26:\n        /* \"#utility.yul\":1062:1069   */\n      0x00\n        /* \"#utility.yul\":1102:1144   */\n      0xffffffffffffffffffffffffffffffffffffffff\n        /* \"#utility.yul\":1095:1100   */\n      dup3\n        /* \"#utility.yul\":1091:1145   */\n      and\n        /* \"#utility.yul\":1080:1145   */\n      swap1\n      pop\n        /* \"#utility.yul\":1025:1151   */\n      swap2\n      swap1\n      pop\n      jump\t// out\n        /* \"#utility.yul\":1157:1253   */\n    tag_27:\n        /* \"#utility.yul\":1194:1201   */\n      0x00\n        /* \"#utility.yul\":1223:1247   */\n      tag_45\n        /* \"#utility.yul\":1241:1246   */\n      dup3\n        /* \"#utility.yul\":1223:1247   */\n      tag_26\n      jump\t// in\n    tag_45:\n        /* \"#utility.yul\":1212:1247   */\n      swap1\n      pop\n        /* \"#utility.yul\":1157:1253   */\n      swap2\n      swap1\n      pop\n      jump\t// out\n        /* \"#utility.yul\":1259:1377   */\n    tag_28:\n        /* \"#utility.yul\":1346:1370   */\n      tag_47\n        /* \"#utility.yul\":1364:1369   */\n      dup2\n        /* \"#utility.yul\":1346:1370   */\n      tag_27\n      jump\t// in\n    tag_47:\n        /* \"#utility.yul\":1341:1344   */\n      dup3\n        /* \"#utility.yul\":1334:1371   */\n      mstore\n        /* \"#utility.yul\":1259:1377   */\n      pop\n      pop\n      jump\t// out\n        /* \"#utility.yul\":1383:1605   */\n    tag_10:\n        /* \"#utility.yul\":1476:1480   */\n      0x00\n        /* \"#utility.yul\":1514:1516   */\n      0x20\n        /* \"#utility.yul\":1503:1512   */\n      dup3\n        /* \"#utility.yul\":1499:1517   */\n      add\n        /* \"#utility.yul\":1491:1517   */\n      swap1\n      pop\n        /* \"#utility.yul\":1527:1598   */\n      tag_49\n        /* \"#utility.yul\":1595:1596   */\n      0x00\n        /* \"#utility.yul\":1584:1593   */\n      dup4\n        /* \"#utility.yul\":1580:1597   */\n      add\n        /* \"#utility.yul\":1571:1577   */\n      dup5\n        /* \"#utility.yul\":1527:1598   */\n      tag_28\n      jump\t// in\n    tag_49:\n        /* \"#utility.yul\":1383:1605   */\n      swap3\n      swap2\n      pop\n      pop\n      jump\t// out\n    stop\n\n    sub_0: assembly {\n            /* \"Introdu\\xc3\\xa7\\xc3\\xa3o ao Solidity/Aprenda Solidity/Contratos como classes.sol\":58:333  contract Sum{... */\n          mstore(0x40, 0x80)\n          callvalue\n          dup1\n          iszero\n          tag_1\n          jumpi\n          revert(0x00, 0x00)\n        tag_1:\n          pop\n          dataSize(sub_0)\n          dup1\n          dataOffset(sub_0)\n          0x00\n          codecopy\n          0x00\n          return\n        stop\n\n        sub_0: assembly {\n                /* \"Introdu\\xc3\\xa7\\xc3\\xa3o ao Solidity/Aprenda Solidity/Contratos como classes.sol\":58:333  contract Sum{... */\n              mstore(0x40, 0x80)\n              callvalue\n              dup1\n              iszero\n              tag_1\n              jumpi\n              revert(0x00, 0x00)\n            tag_1:\n              pop\n              jumpi(tag_2, lt(calldatasize, 0x04))\n              shr(0xe0, calldataload(0x00))\n              dup1\n              0x15c50663\n              eq\n              tag_3\n              jumpi\n              dup1\n              0xb8b37f8e\n              eq\n              tag_4\n              jumpi\n            tag_2:\n              revert(0x00, 0x00)\n                /* \"Introdu\\xc3\\xa7\\xc3\\xa3o ao Solidity/Aprenda Solidity/Contratos como classes.sol\":96:227  function soma(uint _x, uint _y) public returns (uint){... */\n            tag_3:\n              tag_5\n              0x04\n              dup1\n              calldatasize\n              sub\n              dup2\n              add\n              swap1\n              tag_6\n              swap2\n              swap1\n              tag_7\n              jump\t// in\n            tag_6:\n              tag_8\n              jump\t// in\n            tag_5:\n              mload(0x40)\n              tag_9\n              swap2\n              swap1\n              tag_10\n              jump\t// in\n            tag_9:\n              mload(0x40)\n              dup1\n              swap2\n              sub\n              swap1\n              return\n                /* \"Introdu\\xc3\\xa7\\xc3\\xa3o ao Solidity/Aprenda Solidity/Contratos como classes.sol\":233:331  function PegarArray(uint _indice) public view returns (uint){... */\n            tag_4:\n              tag_11\n              0x04\n              dup1\n              calldatasize\n              sub\n              dup2\n              add\n              swap1\n              tag_12\n              swap2\n              swap1\n              tag_13\n              jump\t// in\n            tag_12:\n              tag_14\n              jump\t// in\n            tag_11:\n              mload(0x40)\n              tag_15\n              swap2\n              swap1\n              tag_10\n              jump\t// in\n            tag_15:\n              mload(0x40)\n              dup1\n              swap2\n              sub\n              swap1\n              return\n                /* \"Introdu\\xc3\\xa7\\xc3\\xa3o ao Solidity/Aprenda Solidity/Contratos como classes.sol\":96:227  function soma(uint _x, uint _y) public returns (uint){... */\n            tag_8:\n                /* \"Introdu\\xc3\\xa7\\xc3\\xa3o ao Solidity/Aprenda Solidity/Contratos como classes.sol\":144:148  uint */\n              0x00\n                /* \"Introdu\\xc3\\xa7\\xc3\\xa3o ao Solidity/Aprenda Solidity/Contratos como classes.sol\":168:173  array */\n              0x00\n                /* \"Introdu\\xc3\\xa7\\xc3\\xa3o ao Solidity/Aprenda Solidity/Contratos como classes.sol\":184:186  _y */\n              dup3\n                /* \"Introdu\\xc3\\xa7\\xc3\\xa3o ao Solidity/Aprenda Solidity/Contratos como classes.sol\":179:181  _x */\n              dup5\n                /* \"Introdu\\xc3\\xa7\\xc3\\xa3o ao Solidity/Aprenda Solidity/Contratos como classes.sol\":179:186  _x + _y */\n              tag_17\n              swap2\n              swap1\n              tag_18\n              jump\t// in\n            tag_17:\n                /* \"Introdu\\xc3\\xa7\\xc3\\xa3o ao Solidity/Aprenda Solidity/Contratos como classes.sol\":168:187  array.push(_x + _y) */\n              swap1\n              dup1\n              0x01\n              dup2\n              sload\n              add\n              dup1\n              dup3\n              sstore\n              dup1\n              swap2\n              pop\n              pop\n              0x01\n              swap1\n              sub\n              swap1\n              0x00\n              mstore\n              keccak256(0x00, 0x20)\n              add\n              0x00\n              swap1\n              swap2\n              swap1\n              swap2\n              swap1\n              swap2\n              pop\n              sstore\n                /* \"Introdu\\xc3\\xa7\\xc3\\xa3o ao Solidity/Aprenda Solidity/Contratos como classes.sol\":218:220  _y */\n              dup2\n                /* \"Introdu\\xc3\\xa7\\xc3\\xa3o ao Solidity/Aprenda Solidity/Contratos como classes.sol\":213:215  _x */\n              dup4\n                /* \"Introdu\\xc3\\xa7\\xc3\\xa3o ao Solidity/Aprenda Solidity/Contratos como classes.sol\":213:220  _x + _y */\n              tag_20\n              swap2\n              swap1\n              tag_18\n              jump\t// in\n            tag_20:\n                /* \"Introdu\\xc3\\xa7\\xc3\\xa3o ao Solidity/Aprenda Solidity/Contratos como classes.sol\":206:220  return _x + _y */\n              swap1\n              pop\n                /* \"Introdu\\xc3\\xa7\\xc3\\xa3o ao Solidity/Aprenda Solidity/Contratos como classes.sol\":96:227  function soma(uint _x, uint _y) public returns (uint){... */\n              swap3\n              swap2\n              pop\n              pop\n              jump\t// out\n                /* \"Introdu\\xc3\\xa7\\xc3\\xa3o ao Solidity/Aprenda Solidity/Contratos como classes.sol\":233:331  function PegarArray(uint _indice) public view returns (uint){... */\n            tag_14:\n                /* \"Introdu\\xc3\\xa7\\xc3\\xa3o ao Solidity/Aprenda Solidity/Contratos como classes.sol\":288:292  uint */\n              0x00\n                /* \"Introdu\\xc3\\xa7\\xc3\\xa3o ao Solidity/Aprenda Solidity/Contratos como classes.sol\":310:315  array */\n              0x00\n                /* \"Introdu\\xc3\\xa7\\xc3\\xa3o ao Solidity/Aprenda Solidity/Contratos como classes.sol\":316:323  _indice */\n              dup3\n                /* \"Introdu\\xc3\\xa7\\xc3\\xa3o ao Solidity/Aprenda Solidity/Contratos como classes.sol\":310:324  array[_indice] */\n              dup2\n              sload\n              dup2\n              lt\n              tag_22\n              jumpi\n              tag_23\n              tag_24\n              jump\t// in\n            tag_23:\n            tag_22:\n              swap1\n              0x00\n              mstore\n              keccak256(0x00, 0x20)\n              add\n              sload\n                /* \"Introdu\\xc3\\xa7\\xc3\\xa3o ao Solidity/Aprenda Solidity/Contratos como classes.sol\":303:324  return array[_indice] */\n              swap1\n              pop\n                /* \"Introdu\\xc3\\xa7\\xc3\\xa3o ao Solidity/Aprenda Solidity/Contratos como classes.sol\":233:331  function PegarArray(uint _indice) public view returns (uint){... */\n              swap2\n              swap1\n              pop\n              jump\t// out\n                /* \"#utility.yul\":88:205   */\n            tag_27:\n                /* \"#utility.yul\":197:198   */\n              0x00\n                /* \"#utility.yul\":194:195   */\n              0x00\n                /* \"#utility.yul\":187:199   */\n              revert\n                /* \"#utility.yul\":334:411   */\n            tag_29:\n                /* \"#utility.yul\":371:378   */\n              0x00\n                /* \"#utility.yul\":400:405   */\n              dup2\n                /* \"#utility.yul\":389:405   */\n              swap1\n              pop\n                /* \"#utility.yul\":334:411   */\n              swap2\n              swap1\n              pop\n              jump\t// out\n                /* \"#utility.yul\":417:539   */\n            tag_30:\n                /* \"#utility.yul\":490:514   */\n              tag_40\n                /* \"#utility.yul\":508:513   */\n              dup2\n                /* \"#utility.yul\":490:514   */\n              tag_29\n              jump\t// in\n            tag_40:\n                /* \"#utility.yul\":483:488   */\n              dup2\n                /* \"#utility.yul\":480:515   */\n              eq\n                /* \"#utility.yul\":470:533   */\n              tag_41\n              jumpi\n                /* \"#utility.yul\":529:530   */\n              0x00\n                /* \"#utility.yul\":526:527   */\n              0x00\n                /* \"#utility.yul\":519:531   */\n              revert\n                /* \"#utility.yul\":470:533   */\n            tag_41:\n                /* \"#utility.yul\":417:539   */\n              pop\n              jump\t// out\n                /* \"#utility.yul\":545:684   */\n            tag_31:\n                /* \"#utility.yul\":591:596   */\n              0x00\n                /* \"#utility.yul\":629:635   */\n              dup2\n                /* \"#utility.yul\":616:636   */\n              calldataload\n                /* \"#utility.yul\":607:636   */\n              swap1\n              pop\n                /* \"#utility.yul\":645:678   */\n              tag_43\n                /* \"#utility.yul\":672:677   */\n              dup2\n                /* \"#utility.yul\":645:678   */\n              tag_30\n              jump\t// in\n            tag_43:\n                /* \"#utility.yul\":545:684   */\n              swap3\n              swap2\n              pop\n              pop\n              jump\t// out\n                /* \"#utility.yul\":690:1164   */\n            tag_7:\n                /* \"#utility.yul\":758:764   */\n              0x00\n                /* \"#utility.yul\":766:772   */\n              0x00\n                /* \"#utility.yul\":815:817   */\n              0x40\n                /* \"#utility.yul\":803:812   */\n              dup4\n                /* \"#utility.yul\":794:801   */\n              dup6\n                /* \"#utility.yul\":790:813   */\n              sub\n                /* \"#utility.yul\":786:818   */\n              slt\n                /* \"#utility.yul\":783:902   */\n              iszero\n              tag_45\n              jumpi\n                /* \"#utility.yul\":821:900   */\n              tag_46\n              tag_27\n              jump\t// in\n            tag_46:\n                /* \"#utility.yul\":783:902   */\n            tag_45:\n                /* \"#utility.yul\":941:942   */\n              0x00\n                /* \"#utility.yul\":966:1019   */\n              tag_47\n                /* \"#utility.yul\":1011:1018   */\n              dup6\n                /* \"#utility.yul\":1002:1008   */\n              dup3\n                /* \"#utility.yul\":991:1000   */\n              dup7\n                /* \"#utility.yul\":987:1009   */\n              add\n                /* \"#utility.yul\":966:1019   */\n              tag_31\n              jump\t// in\n            tag_47:\n                /* \"#utility.yul\":956:1019   */\n              swap3\n              pop\n                /* \"#utility.yul\":912:1029   */\n              pop\n                /* \"#utility.yul\":1068:1070   */\n              0x20\n                /* \"#utility.yul\":1094:1147   */\n              tag_48\n                /* \"#utility.yul\":1139:1146   */\n              dup6\n                /* \"#utility.yul\":1130:1136   */\n              dup3\n                /* \"#utility.yul\":1119:1128   */\n              dup7\n                /* \"#utility.yul\":1115:1137   */\n              add\n                /* \"#utility.yul\":1094:1147   */\n              tag_31\n              jump\t// in\n            tag_48:\n                /* \"#utility.yul\":1084:1147   */\n              swap2\n              pop\n                /* \"#utility.yul\":1039:1157   */\n              pop\n                /* \"#utility.yul\":690:1164   */\n              swap3\n              pop\n              swap3\n              swap1\n              pop\n              jump\t// out\n                /* \"#utility.yul\":1170:1288   */\n            tag_32:\n                /* \"#utility.yul\":1257:1281   */\n              tag_50\n                /* \"#utility.yul\":1275:1280   */\n              dup2\n                /* \"#utility.yul\":1257:1281   */\n              tag_29\n              jump\t// in\n            tag_50:\n                /* \"#utility.yul\":1252:1255   */\n              dup3\n                /* \"#utility.yul\":1245:1282   */\n              mstore\n                /* \"#utility.yul\":1170:1288   */\n              pop\n              pop\n              jump\t// out\n                /* \"#utility.yul\":1294:1516   */\n            tag_10:\n                /* \"#utility.yul\":1387:1391   */\n              0x00\n                /* \"#utility.yul\":1425:1427   */\n              0x20\n                /* \"#utility.yul\":1414:1423   */\n              dup3\n                /* \"#utility.yul\":1410:1428   */\n              add\n                /* \"#utility.yul\":1402:1428   */\n              swap1\n              pop\n                /* \"#utility.yul\":1438:1509   */\n              tag_52\n                /* \"#utility.yul\":1506:1507   */\n              0x00\n                /* \"#utility.yul\":1495:1504   */\n              dup4\n                /* \"#utility.yul\":1491:1508   */\n              add\n                /* \"#utility.yul\":1482:1488   */\n              dup5\n                /* \"#utility.yul\":1438:1509   */\n              tag_32\n              jump\t// in\n            tag_52:\n                /* \"#utility.yul\":1294:1516   */\n              swap3\n              swap2\n              pop\n              pop\n              jump\t// out\n                /* \"#utility.yul\":1522:1851   */\n            tag_13:\n                /* \"#utility.yul\":1581:1587   */\n              0x00\n                /* \"#utility.yul\":1630:1632   */\n              0x20\n                /* \"#utility.yul\":1618:1627   */\n              dup3\n                /* \"#utility.yul\":1609:1616   */\n              dup5\n                /* \"#utility.yul\":1605:1628   */\n              sub\n                /* \"#utility.yul\":1601:1633   */\n              slt\n                /* \"#utility.yul\":1598:1717   */\n              iszero\n              tag_54\n              jumpi\n                /* \"#utility.yul\":1636:1715   */\n              tag_55\n              tag_27\n              jump\t// in\n            tag_55:\n                /* \"#utility.yul\":1598:1717   */\n            tag_54:\n                /* \"#utility.yul\":1756:1757   */\n              0x00\n                /* \"#utility.yul\":1781:1834   */\n              tag_56\n                /* \"#utility.yul\":1826:1833   */\n              dup5\n                /* \"#utility.yul\":1817:1823   */\n              dup3\n                /* \"#utility.yul\":1806:1815   */\n              dup6\n                /* \"#utility.yul\":1802:1824   */\n              add\n                /* \"#utility.yul\":1781:1834   */\n              tag_31\n              jump\t// in\n            tag_56:\n                /* \"#utility.yul\":1771:1834   */\n              swap2\n              pop\n                /* \"#utility.yul\":1727:1844   */\n              pop\n                /* \"#utility.yul\":1522:1851   */\n              swap3\n              swap2\n              pop\n              pop\n              jump\t// out\n                /* \"#utility.yul\":1857:2037   */\n            tag_33:\n                /* \"#utility.yul\":1905:1982   */\n              0x4e487b7100000000000000000000000000000000000000000000000000000000\n                /* \"#utility.yul\":1902:1903   */\n              0x00\n                /* \"#utility.yul\":1895:1983   */\n              mstore\n                /* \"#utility.yul\":2002:2006   */\n              0x11\n                /* \"#utility.yul\":1999:2000   */\n              0x04\n                /* \"#utility.yul\":1992:2007   */\n              mstore\n                /* \"#utility.yul\":2026:2030   */\n              0x24\n                /* \"#utility.yul\":2023:2024   */\n              0x00\n                /* \"#utility.yul\":2016:2031   */\n              revert\n                /* \"#utility.yul\":2043:2234   */\n            tag_18:\n                /* \"#utility.yul\":2083:2086   */\n              0x00\n                /* \"#utility.yul\":2102:2122   */\n              tag_59\n                /* \"#utility.yul\":2120:2121   */\n              dup3\n                /* \"#utility.yul\":2102:2122   */\n              tag_29\n              jump\t// in\n            tag_59:\n                /* \"#utility.yul\":2097:2122   */\n              swap2\n              pop\n                /* \"#utility.yul\":2136:2156   */\n              tag_60\n                /* \"#utility.yul\":2154:2155   */\n              dup4\n                /* \"#utility.yul\":2136:2156   */\n              tag_29\n              jump\t// in\n            tag_60:\n                /* \"#utility.yul\":2131:2156   */\n              swap3\n              pop\n                /* \"#utility.yul\":2179:2180   */\n              dup3\n                /* \"#utility.yul\":2176:2177   */\n              dup3\n                /* \"#utility.yul\":2172:2181   */\n              add\n                /* \"#utility.yul\":2165:2181   */\n              swap1\n              pop\n                /* \"#utility.yul\":2200:2203   */\n              dup1\n                /* \"#utility.yul\":2197:2198   */\n              dup3\n                /* \"#utility.yul\":2194:2204   */\n              gt\n                /* \"#utility.yul\":2191:2227   */\n              iszero\n              tag_61\n              jumpi\n                /* \"#utility.yul\":2207:2225   */\n              tag_62\n              tag_33\n              jump\t// in\n            tag_62:\n                /* \"#utility.yul\":2191:2227   */\n            tag_61:\n                /* \"#utility.yul\":2043:2234   */\n              swap3\n              swap2\n              pop\n              pop\n              jump\t// out\n                /* \"#utility.yul\":2240:2420   */\n            tag_24:\n                /* \"#utility.yul\":2288:2365   */\n              0x4e487b7100000000000000000000000000000000000000000000000000000000\n                /* \"#utility.yul\":2285:2286   */\n              0x00\n                /* \"#utility.yul\":2278:2366   */\n              mstore\n                /* \"#utility.yul\":2385:2389   */\n              0x32\n                /* \"#utility.yul\":2382:2383   */\n              0x04\n                /* \"#utility.yul\":2375:2390   */\n              mstore\n                /* \"#utility.yul\":2409:2413   */\n              0x24\n                /* \"#utility.yul\":2406:2407   */\n              0x00\n                /* \"#utility.yul\":2399:2414   */\n              revert\n\n            auxdata: 0xa2646970667358221220fb3f15137ee23043cfe9418dc71b67428ce4c412ca8f83a8ca3ef259e9af593f64736f6c634300081e0033\n        }\n    }\n\n    auxdata: 0xa2646970667358221220f6b5b6245a5cbf3a3c06f4264771123a4427a184309de8c3ea65b3d9bc3734a264736f6c634300081e0033\n}\n",
				"bytecode": {
					"linkReferences": {},
					"object": "6080604052348015600e575f5ffd5b506104dc8061001c5f395ff3fe608060405234801561000f575f5ffd5b5060043610610034575f3560e01c8063383d2bbe1461003857806360dca75f14610068575b5f5ffd5b610052600480360381019061004d919061017b565b610072565b60405161005f91906101e5565b60405180910390f35b6100706100ac565b005b5f8181548110610080575f80fd5b905f5260205f20015f915054906101000a900473ffffffffffffffffffffffffffffffffffffffff1681565b5f6040516100b990610137565b604051809103905ff0801580156100d2573d5f5f3e3d5ffd5b5090505f81908060018154018082558091505060019003905f5260205f20015f9091909190916101000a81548173ffffffffffffffffffffffffffffffffffffffff021916908373ffffffffffffffffffffffffffffffffffffffff16021790555050565b6102a8806101ff83390190565b5f5ffd5b5f819050919050565b61015a81610148565b8114610164575f5ffd5b50565b5f8135905061017581610151565b92915050565b5f602082840312156101905761018f610144565b5b5f61019d84828501610167565b91505092915050565b5f73ffffffffffffffffffffffffffffffffffffffff82169050919050565b5f6101cf826101a6565b9050919050565b6101df816101c5565b82525050565b5f6020820190506101f85f8301846101d6565b9291505056fe6080604052348015600e575f5ffd5b5061028c8061001c5f395ff3fe608060405234801561000f575f5ffd5b5060043610610034575f3560e01c806315c5066314610038578063b8b37f8e14610068575b5f5ffd5b610052600480360381019061004d9190610138565b610098565b60405161005f9190610185565b60405180910390f35b610082600480360381019061007d919061019e565b6100dd565b60405161008f9190610185565b60405180910390f35b5f5f82846100a691906101f6565b908060018154018082558091505060019003905f5260205f20015f909190919091505581836100d591906101f6565b905092915050565b5f5f82815481106100f1576100f0610229565b5b905f5260205f2001549050919050565b5f5ffd5b5f819050919050565b61011781610105565b8114610121575f5ffd5b50565b5f813590506101328161010e565b92915050565b5f5f6040838503121561014e5761014d610101565b5b5f61015b85828601610124565b925050602061016c85828601610124565b9150509250929050565b61017f81610105565b82525050565b5f6020820190506101985f830184610176565b92915050565b5f602082840312156101b3576101b2610101565b5b5f6101c084828501610124565b91505092915050565b7f4e487b71000000000000000000000000000000000000000000000000000000005f52601160045260245ffd5b5f61020082610105565b915061020b83610105565b9250828201905080821115610223576102226101c9565b5b92915050565b7f4e487b71000000000000000000000000000000000000000000000000000000005f52603260045260245ffdfea2646970667358221220fb3f15137ee23043cfe9418dc71b67428ce4c412ca8f83a8ca3ef259e9af593f64736f6c634300081e0033a2646970667358221220f6b5b6245a5cbf3a3c06f4264771123a4427a184309de8c3ea65b3d9bc3734a264736f6c634300081e0033",
					"opcodes": "PUSH1 0x80 PUSH1 0x40 MSTORE CALLVALUE DUP1 ISZERO PUSH1 0xE JUMPI PUSH0 PUSH0 REVERT JUMPDEST POP PUSH2 0x4DC DUP1 PUSH2 0x1C PUSH0 CODECOPY PUSH0 RETURN INVALID PUSH1 0x80 PUSH1 0x40 MSTORE CALLVALUE DUP1 ISZERO PUSH2 0xF JUMPI PUSH0 PUSH0 REVERT JUMPDEST POP PUSH1 0x4 CALLDATASIZE LT PUSH2 0x34 JUMPI PUSH0 CALLDATALOAD PUSH1 0xE0 SHR DUP1 PUSH4 0x383D2BBE EQ PUSH2 0x38 JUMPI DUP1 PUSH4 0x60DCA75F EQ PUSH2 0x68 JUMPI JUMPDEST PUSH0 PUSH0 REVERT JUMPDEST PUSH2 0x52 PUSH1 0x4 DUP1 CALLDATASIZE SUB DUP2 ADD SWAP1 PUSH2 0x4D SWAP2 SWAP1 PUSH2 0x17B JUMP JUMPDEST PUSH2 0x72 JUMP JUMPDEST PUSH1 0x40 MLOAD PUSH2 0x5F SWAP2 SWAP1 PUSH2 0x1E5 JUMP JUMPDEST PUSH1 0x40 MLOAD DUP1 SWAP2 SUB SWAP1 RETURN JUMPDEST PUSH2 0x70 PUSH2 0xAC JUMP JUMPDEST STOP JUMPDEST PUSH0 DUP2 DUP2 SLOAD DUP2 LT PUSH2 0x80 JUMPI PUSH0 DUP1 REVERT JUMPDEST SWAP1 PUSH0 MSTORE PUSH1 0x20 PUSH0 KECCAK256 ADD PUSH0 SWAP2 POP SLOAD SWAP1 PUSH2 0x100 EXP SWAP1 DIV PUSH20 0xFFFFFFFFFFFFFFFFFFFFFFFFFFFFFFFFFFFFFFFF AND DUP2 JUMP JUMPDEST PUSH0 PUSH1 0x40 MLOAD PUSH2 0xB9 SWAP1 PUSH2 0x137 JUMP JUMPDEST PUSH1 0x40 MLOAD DUP1 SWAP2 SUB SWAP1 PUSH0 CREATE DUP1 ISZERO DUP1 ISZERO PUSH2 0xD2 JUMPI RETURNDATASIZE PUSH0 PUSH0 RETURNDATACOPY RETURNDATASIZE PUSH0 REVERT JUMPDEST POP SWAP1 POP PUSH0 DUP2 SWAP1 DUP1 PUSH1 0x1 DUP2 SLOAD ADD DUP1 DUP3 SSTORE DUP1 SWAP2 POP POP PUSH1 0x1 SWAP1 SUB SWAP1 PUSH0 MSTORE PUSH1 0x20 PUSH0 KECCAK256 ADD PUSH0 SWAP1 SWAP2 SWAP1 SWAP2 SWAP1 SWAP2 PUSH2 0x100 EXP DUP2 SLOAD DUP2 PUSH20 0xFFFFFFFFFFFFFFFFFFFFFFFFFFFFFFFFFFFFFFFF MUL NOT AND SWAP1 DUP4 PUSH20 0xFFFFFFFFFFFFFFFFFFFFFFFFFFFFFFFFFFFFFFFF AND MUL OR SWAP1 SSTORE POP POP JUMP JUMPDEST PUSH2 0x2A8 DUP1 PUSH2 0x1FF DUP4 CODECOPY ADD SWAP1 JUMP JUMPDEST PUSH0 PUSH0 REVERT JUMPDEST PUSH0 DUP2 SWAP1 POP SWAP2 SWAP1 POP JUMP JUMPDEST PUSH2 0x15A DUP2 PUSH2 0x148 JUMP JUMPDEST DUP2 EQ PUSH2 0x164 JUMPI PUSH0 PUSH0 REVERT JUMPDEST POP JUMP JUMPDEST PUSH0 DUP2 CALLDATALOAD SWAP1 POP PUSH2 0x175 DUP2 PUSH2 0x151 JUMP JUMPDEST SWAP3 SWAP2 POP POP JUMP JUMPDEST PUSH0 PUSH1 0x20 DUP3 DUP5 SUB SLT ISZERO PUSH2 0x190 JUMPI PUSH2 0x18F PUSH2 0x144 JUMP JUMPDEST JUMPDEST PUSH0 PUSH2 0x19D DUP5 DUP3 DUP6 ADD PUSH2 0x167 JUMP JUMPDEST SWAP2 POP POP SWAP3 SWAP2 POP POP JUMP JUMPDEST PUSH0 PUSH20 0xFFFFFFFFFFFFFFFFFFFFFFFFFFFFFFFFFFFFFFFF DUP3 AND SWAP1 POP SWAP2 SWAP1 POP JUMP JUMPDEST PUSH0 PUSH2 0x1CF DUP3 PUSH2 0x1A6 JUMP JUMPDEST SWAP1 POP SWAP2 SWAP1 POP JUMP JUMPDEST PUSH2 0x1DF DUP2 PUSH2 0x1C5 JUMP JUMPDEST DUP3 MSTORE POP POP JUMP JUMPDEST PUSH0 PUSH1 0x20 DUP3 ADD SWAP1 POP PUSH2 0x1F8 PUSH0 DUP4 ADD DUP5 PUSH2 0x1D6 JUMP JUMPDEST SWAP3 SWAP2 POP POP JUMP INVALID PUSH1 0x80 PUSH1 0x40 MSTORE CALLVALUE DUP1 ISZERO PUSH1 0xE JUMPI PUSH0 PUSH0 REVERT JUMPDEST POP PUSH2 0x28C DUP1 PUSH2 0x1C PUSH0 CODECOPY PUSH0 RETURN INVALID PUSH1 0x80 PUSH1 0x40 MSTORE CALLVALUE DUP1 ISZERO PUSH2 0xF JUMPI PUSH0 PUSH0 REVERT JUMPDEST POP PUSH1 0x4 CALLDATASIZE LT PUSH2 0x34 JUMPI PUSH0 CALLDATALOAD PUSH1 0xE0 SHR DUP1 PUSH4 0x15C50663 EQ PUSH2 0x38 JUMPI DUP1 PUSH4 0xB8B37F8E EQ PUSH2 0x68 JUMPI JUMPDEST PUSH0 PUSH0 REVERT JUMPDEST PUSH2 0x52 PUSH1 0x4 DUP1 CALLDATASIZE SUB DUP2 ADD SWAP1 PUSH2 0x4D SWAP2 SWAP1 PUSH2 0x138 JUMP JUMPDEST PUSH2 0x98 JUMP JUMPDEST PUSH1 0x40 MLOAD PUSH2 0x5F SWAP2 SWAP1 PUSH2 0x185 JUMP JUMPDEST PUSH1 0x40 MLOAD DUP1 SWAP2 SUB SWAP1 RETURN JUMPDEST PUSH2 0x82 PUSH1 0x4 DUP1 CALLDATASIZE SUB DUP2 ADD SWAP1 PUSH2 0x7D SWAP2 SWAP1 PUSH2 0x19E JUMP JUMPDEST PUSH2 0xDD JUMP JUMPDEST PUSH1 0x40 MLOAD PUSH2 0x8F SWAP2 SWAP1 PUSH2 0x185 JUMP JUMPDEST PUSH1 0x40 MLOAD DUP1 SWAP2 SUB SWAP1 RETURN JUMPDEST PUSH0 PUSH0 DUP3 DUP5 PUSH2 0xA6 SWAP2 SWAP1 PUSH2 0x1F6 JUMP JUMPDEST SWAP1 DUP1 PUSH1 0x1 DUP2 SLOAD ADD DUP1 DUP3 SSTORE DUP1 SWAP2 POP POP PUSH1 0x1 SWAP1 SUB SWAP1 PUSH0 MSTORE PUSH1 0x20 PUSH0 KECCAK256 ADD PUSH0 SWAP1 SWAP2 SWAP1 SWAP2 SWAP1 SWAP2 POP SSTORE DUP2 DUP4 PUSH2 0xD5 SWAP2 SWAP1 PUSH2 0x1F6 JUMP JUMPDEST SWAP1 POP SWAP3 SWAP2 POP POP JUMP JUMPDEST PUSH0 PUSH0 DUP3 DUP2 SLOAD DUP2 LT PUSH2 0xF1 JUMPI PUSH2 0xF0 PUSH2 0x229 JUMP JUMPDEST JUMPDEST SWAP1 PUSH0 MSTORE PUSH1 0x20 PUSH0 KECCAK256 ADD SLOAD SWAP1 POP SWAP2 SWAP1 POP JUMP JUMPDEST PUSH0 PUSH0 REVERT JUMPDEST PUSH0 DUP2 SWAP1 POP SWAP2 SWAP1 POP JUMP JUMPDEST PUSH2 0x117 DUP2 PUSH2 0x105 JUMP JUMPDEST DUP2 EQ PUSH2 0x121 JUMPI PUSH0 PUSH0 REVERT JUMPDEST POP JUMP JUMPDEST PUSH0 DUP2 CALLDATALOAD SWAP1 POP PUSH2 0x132 DUP2 PUSH2 0x10E JUMP JUMPDEST SWAP3 SWAP2 POP POP JUMP JUMPDEST PUSH0 PUSH0 PUSH1 0x40 DUP4 DUP6 SUB SLT ISZERO PUSH2 0x14E JUMPI PUSH2 0x14D PUSH2 0x101 JUMP JUMPDEST JUMPDEST PUSH0 PUSH2 0x15B DUP6 DUP3 DUP7 ADD PUSH2 0x124 JUMP JUMPDEST SWAP3 POP POP PUSH1 0x20 PUSH2 0x16C DUP6 DUP3 DUP7 ADD PUSH2 0x124 JUMP JUMPDEST SWAP2 POP POP SWAP3 POP SWAP3 SWAP1 POP JUMP JUMPDEST PUSH2 0x17F DUP2 PUSH2 0x105 JUMP JUMPDEST DUP3 MSTORE POP POP JUMP JUMPDEST PUSH0 PUSH1 0x20 DUP3 ADD SWAP1 POP PUSH2 0x198 PUSH0 DUP4 ADD DUP5 PUSH2 0x176 JUMP JUMPDEST SWAP3 SWAP2 POP POP JUMP JUMPDEST PUSH0 PUSH1 0x20 DUP3 DUP5 SUB SLT ISZERO PUSH2 0x1B3 JUMPI PUSH2 0x1B2 PUSH2 0x101 JUMP JUMPDEST JUMPDEST PUSH0 PUSH2 0x1C0 DUP5 DUP3 DUP6 ADD PUSH2 0x124 JUMP JUMPDEST SWAP2 POP POP SWAP3 SWAP2 POP POP JUMP JUMPDEST PUSH32 0x4E487B7100000000000000000000000000000000000000000000000000000000 PUSH0 MSTORE PUSH1 0x11 PUSH1 0x4 MSTORE PUSH1 0x24 PUSH0 REVERT JUMPDEST PUSH0 PUSH2 0x200 DUP3 PUSH2 0x105 JUMP JUMPDEST SWAP2 POP PUSH2 0x20B DUP4 PUSH2 0x105 JUMP JUMPDEST SWAP3 POP DUP3 DUP3 ADD SWAP1 POP DUP1 DUP3 GT ISZERO PUSH2 0x223 JUMPI PUSH2 0x222 PUSH2 0x1C9 JUMP JUMPDEST JUMPDEST SWAP3 SWAP2 POP POP JUMP JUMPDEST PUSH32 0x4E487B7100000000000000000000000000000000000000000000000000000000 PUSH0 MSTORE PUSH1 0x32 PUSH1 0x4 MSTORE PUSH1 0x24 PUSH0 REVERT INVALID LOG2 PUSH5 0x6970667358 0x22 SLT KECCAK256 EXTSTATICCALL EXTCODEHASH ISZERO SGT PUSH31 0xE23043CFE9418DC71B67428CE4C412CA8F83A8CA3EF259E9AF593F64736F6C PUSH4 0x4300081E STOP CALLER LOG2 PUSH5 0x6970667358 0x22 SLT KECCAK256 0xF6 0xB5 0xB6 0x24 GAS TLOAD 0xBF GASPRICE EXTCODECOPY MOD DELEGATECALL 0x26 SELFBALANCE PUSH18 0x123A4427A184309DE8C3EA65B3D9BC3734A2 PUSH5 0x736F6C6343 STOP ADDMOD 0x1E STOP CALLER "
				},
				"gasEstimates": {
					"creation": {
						"codeDepositCost": "248800",
						"executionCost": "285",
						"totalCost": "249085"
					},
					"external": {
						"CriaNovosoma()": "infinite",
						"enderecos(uint256)": "4921"
					}
				},
				"methodIdentifiers": {
					"CriaNovosoma()": "60dca75f",
					"enderecos(uint256)": "383d2bbe"
				}
			},
			"storageLayout": {
				"storage": [
					{
						"astId": 42,
						"contract": "Introdução ao Solidity/Aprenda Solidity/Contratos como classes.sol:Fabrica",
						"label": "enderecos",
						"offset": 0,
						"slot": "0",
						"type": "t_array(t_address)dyn_storage"
					}
				],
				"types": {
					"t_address": {
						"encoding": "inplace",
						"label": "address",
						"numberOfBytes": "20"
					},
					"t_array(t_address)dyn_storage": {
						"base": "t_address",
						"encoding": "dynamic_array",
						"label": "address[]",
						"numberOfBytes": "32"
					}
				}
			},
			"userdoc": {
				"kind": "user",
				"methods": {},
				"version": 1
			}
		}
	}
}