{
	"Introdução ao Solidity/Aprenda Solidity/Bibliotecas internas.sol": {
		"MeuContrato": {
			"abi": [
				{
					"inputs": [
						{
							"internalType": "uint256",
							"name": "x",
							"type": "uint256"
						}
					],
					"name": "usarPotencia",
					"outputs": [
						{
							"internalType": "uint256",
							"name": "",
							"type": "uint256"
						}
					],
					"stateMutability": "pure",
					"type": "function"
				},
				{
					"inputs": [
						{
							"internalType": "uint256",
							"name": "_x",
							"type": "uint256"
						}
					],
					"name": "usarQuadra",
					"outputs": [
						{
							"internalType": "uint256",
							"name": "",
							"type": "uint256"
						}
					],
					"stateMutability": "pure",
					"type": "function"
				}
			],
			"devdoc": {
				"kind": "dev",
				"methods": {},
				"version": 1
			},
			"evm": {
				"assembly": "    /* \"Introdu\\xc3\\xa7\\xc3\\xa3o ao Solidity/Aprenda Solidity/Bibliotecas internas.sol\":202:437  contract MeuContrato{... */\n  mstore(0x40, 0x80)\n  callvalue\n  dup1\n  iszero\n  tag_1\n  jumpi\n  revert(0x00, 0x00)\ntag_1:\n  pop\n  dataSize(sub_0)\n  dup1\n  dataOffset(sub_0)\n  0x00\n  codecopy\n  0x00\n  return\nstop\n\nsub_0: assembly {\n        /* \"Introdu\\xc3\\xa7\\xc3\\xa3o ao Solidity/Aprenda Solidity/Bibliotecas internas.sol\":202:437  contract MeuContrato{... */\n      mstore(0x40, 0x80)\n      callvalue\n      dup1\n      iszero\n      tag_1\n      jumpi\n      revert(0x00, 0x00)\n    tag_1:\n      pop\n      jumpi(tag_2, lt(calldatasize, 0x04))\n      shr(0xe0, calldataload(0x00))\n      dup1\n      0x58a8f794\n      eq\n      tag_3\n      jumpi\n      dup1\n      0xe70b31f0\n      eq\n      tag_4\n      jumpi\n    tag_2:\n      revert(0x00, 0x00)\n        /* \"Introdu\\xc3\\xa7\\xc3\\xa3o ao Solidity/Aprenda Solidity/Bibliotecas internas.sol\":335:435  function usarPotencia(uint x) public pure returns (uint){... */\n    tag_3:\n      tag_5\n      0x04\n      dup1\n      calldatasize\n      sub\n      dup2\n      add\n      swap1\n      tag_6\n      swap2\n      swap1\n      tag_7\n      jump\t// in\n    tag_6:\n      tag_8\n      jump\t// in\n    tag_5:\n      mload(0x40)\n      tag_9\n      swap2\n      swap1\n      tag_10\n      jump\t// in\n    tag_9:\n      mload(0x40)\n      dup1\n      swap2\n      sub\n      swap1\n      return\n        /* \"Introdu\\xc3\\xa7\\xc3\\xa3o ao Solidity/Aprenda Solidity/Bibliotecas internas.sol\":229:329  function usarQuadra(uint _x) public pure returns (uint){... */\n    tag_4:\n      tag_11\n      0x04\n      dup1\n      calldatasize\n      sub\n      dup2\n      add\n      swap1\n      tag_12\n      swap2\n      swap1\n      tag_7\n      jump\t// in\n    tag_12:\n      tag_13\n      jump\t// in\n    tag_11:\n      mload(0x40)\n      tag_14\n      swap2\n      swap1\n      tag_10\n      jump\t// in\n    tag_14:\n      mload(0x40)\n      dup1\n      swap2\n      sub\n      swap1\n      return\n        /* \"Introdu\\xc3\\xa7\\xc3\\xa3o ao Solidity/Aprenda Solidity/Bibliotecas internas.sol\":335:435  function usarPotencia(uint x) public pure returns (uint){... */\n    tag_8:\n        /* \"Introdu\\xc3\\xa7\\xc3\\xa3o ao Solidity/Aprenda Solidity/Bibliotecas internas.sol\":386:390  uint */\n      0x00\n        /* \"Introdu\\xc3\\xa7\\xc3\\xa3o ao Solidity/Aprenda Solidity/Bibliotecas internas.sol\":408:428  Potencia.potencia(x) */\n      tag_16\n        /* \"Introdu\\xc3\\xa7\\xc3\\xa3o ao Solidity/Aprenda Solidity/Bibliotecas internas.sol\":426:427  x */\n      dup3\n        /* \"Introdu\\xc3\\xa7\\xc3\\xa3o ao Solidity/Aprenda Solidity/Bibliotecas internas.sol\":408:425  Potencia.potencia */\n      tag_17\n        /* \"Introdu\\xc3\\xa7\\xc3\\xa3o ao Solidity/Aprenda Solidity/Bibliotecas internas.sol\":408:428  Potencia.potencia(x) */\n      jump\t// in\n    tag_16:\n        /* \"Introdu\\xc3\\xa7\\xc3\\xa3o ao Solidity/Aprenda Solidity/Bibliotecas internas.sol\":401:428  return Potencia.potencia(x) */\n      swap1\n      pop\n        /* \"Introdu\\xc3\\xa7\\xc3\\xa3o ao Solidity/Aprenda Solidity/Bibliotecas internas.sol\":335:435  function usarPotencia(uint x) public pure returns (uint){... */\n      swap2\n      swap1\n      pop\n      jump\t// out\n        /* \"Introdu\\xc3\\xa7\\xc3\\xa3o ao Solidity/Aprenda Solidity/Bibliotecas internas.sol\":229:329  function usarQuadra(uint _x) public pure returns (uint){... */\n    tag_13:\n        /* \"Introdu\\xc3\\xa7\\xc3\\xa3o ao Solidity/Aprenda Solidity/Bibliotecas internas.sol\":279:283  uint */\n      0x00\n        /* \"Introdu\\xc3\\xa7\\xc3\\xa3o ao Solidity/Aprenda Solidity/Bibliotecas internas.sol\":301:322  biblioteca.quadra(_x) */\n      tag_19\n        /* \"Introdu\\xc3\\xa7\\xc3\\xa3o ao Solidity/Aprenda Solidity/Bibliotecas internas.sol\":319:321  _x */\n      dup3\n        /* \"Introdu\\xc3\\xa7\\xc3\\xa3o ao Solidity/Aprenda Solidity/Bibliotecas internas.sol\":301:318  biblioteca.quadra */\n      tag_20\n        /* \"Introdu\\xc3\\xa7\\xc3\\xa3o ao Solidity/Aprenda Solidity/Bibliotecas internas.sol\":301:322  biblioteca.quadra(_x) */\n      jump\t// in\n    tag_19:\n        /* \"Introdu\\xc3\\xa7\\xc3\\xa3o ao Solidity/Aprenda Solidity/Bibliotecas internas.sol\":294:322  return biblioteca.quadra(_x) */\n      swap1\n      pop\n        /* \"Introdu\\xc3\\xa7\\xc3\\xa3o ao Solidity/Aprenda Solidity/Bibliotecas internas.sol\":229:329  function usarQuadra(uint _x) public pure returns (uint){... */\n      swap2\n      swap1\n      pop\n      jump\t// out\n        /* \"Introdu\\xc3\\xa7\\xc3\\xa3o ao Solidity/Aprenda Solidity/libraryPotencia.sol\":81:166  function potencia(uint _x) internal pure returns (uint){... */\n    tag_17:\n        /* \"Introdu\\xc3\\xa7\\xc3\\xa3o ao Solidity/Aprenda Solidity/libraryPotencia.sol\":131:135  uint */\n      0x00\n        /* \"Introdu\\xc3\\xa7\\xc3\\xa3o ao Solidity/Aprenda Solidity/libraryPotencia.sol\":157:159  _x */\n      dup2\n        /* \"Introdu\\xc3\\xa7\\xc3\\xa3o ao Solidity/Aprenda Solidity/libraryPotencia.sol\":153:155  _x */\n      dup3\n        /* \"Introdu\\xc3\\xa7\\xc3\\xa3o ao Solidity/Aprenda Solidity/libraryPotencia.sol\":153:159  _x**_x */\n      tag_22\n      swap2\n      swap1\n      tag_23\n      jump\t// in\n    tag_22:\n        /* \"Introdu\\xc3\\xa7\\xc3\\xa3o ao Solidity/Aprenda Solidity/libraryPotencia.sol\":146:159  return _x**_x */\n      swap1\n      pop\n        /* \"Introdu\\xc3\\xa7\\xc3\\xa3o ao Solidity/Aprenda Solidity/libraryPotencia.sol\":81:166  function potencia(uint _x) internal pure returns (uint){... */\n      swap2\n      swap1\n      pop\n      jump\t// out\n        /* \"Introdu\\xc3\\xa7\\xc3\\xa3o ao Solidity/Aprenda Solidity/Bibliotecas internas.sol\":116:198  function quadra(uint _x) internal pure returns (uint){... */\n    tag_20:\n        /* \"Introdu\\xc3\\xa7\\xc3\\xa3o ao Solidity/Aprenda Solidity/Bibliotecas internas.sol\":164:168  uint */\n      0x00\n        /* \"Introdu\\xc3\\xa7\\xc3\\xa3o ao Solidity/Aprenda Solidity/Bibliotecas internas.sol\":189:191  _x */\n      dup2\n        /* \"Introdu\\xc3\\xa7\\xc3\\xa3o ao Solidity/Aprenda Solidity/Bibliotecas internas.sol\":186:188  _x */\n      dup3\n        /* \"Introdu\\xc3\\xa7\\xc3\\xa3o ao Solidity/Aprenda Solidity/Bibliotecas internas.sol\":186:191  _x*_x */\n      tag_25\n      swap2\n      swap1\n      tag_26\n      jump\t// in\n    tag_25:\n        /* \"Introdu\\xc3\\xa7\\xc3\\xa3o ao Solidity/Aprenda Solidity/Bibliotecas internas.sol\":179:191  return _x*_x */\n      swap1\n      pop\n        /* \"Introdu\\xc3\\xa7\\xc3\\xa3o ao Solidity/Aprenda Solidity/Bibliotecas internas.sol\":116:198  function quadra(uint _x) internal pure returns (uint){... */\n      swap2\n      swap1\n      pop\n      jump\t// out\n        /* \"#utility.yul\":88:205   */\n    tag_28:\n        /* \"#utility.yul\":197:198   */\n      0x00\n        /* \"#utility.yul\":194:195   */\n      0x00\n        /* \"#utility.yul\":187:199   */\n      revert\n        /* \"#utility.yul\":334:411   */\n    tag_30:\n        /* \"#utility.yul\":371:378   */\n      0x00\n        /* \"#utility.yul\":400:405   */\n      dup2\n        /* \"#utility.yul\":389:405   */\n      swap1\n      pop\n        /* \"#utility.yul\":334:411   */\n      swap2\n      swap1\n      pop\n      jump\t// out\n        /* \"#utility.yul\":417:539   */\n    tag_31:\n        /* \"#utility.yul\":490:514   */\n      tag_44\n        /* \"#utility.yul\":508:513   */\n      dup2\n        /* \"#utility.yul\":490:514   */\n      tag_30\n      jump\t// in\n    tag_44:\n        /* \"#utility.yul\":483:488   */\n      dup2\n        /* \"#utility.yul\":480:515   */\n      eq\n        /* \"#utility.yul\":470:533   */\n      tag_45\n      jumpi\n        /* \"#utility.yul\":529:530   */\n      0x00\n        /* \"#utility.yul\":526:527   */\n      0x00\n        /* \"#utility.yul\":519:531   */\n      revert\n        /* \"#utility.yul\":470:533   */\n    tag_45:\n        /* \"#utility.yul\":417:539   */\n      pop\n      jump\t// out\n        /* \"#utility.yul\":545:684   */\n    tag_32:\n        /* \"#utility.yul\":591:596   */\n      0x00\n        /* \"#utility.yul\":629:635   */\n      dup2\n        /* \"#utility.yul\":616:636   */\n      calldataload\n        /* \"#utility.yul\":607:636   */\n      swap1\n      pop\n        /* \"#utility.yul\":645:678   */\n      tag_47\n        /* \"#utility.yul\":672:677   */\n      dup2\n        /* \"#utility.yul\":645:678   */\n      tag_31\n      jump\t// in\n    tag_47:\n        /* \"#utility.yul\":545:684   */\n      swap3\n      swap2\n      pop\n      pop\n      jump\t// out\n        /* \"#utility.yul\":690:1019   */\n    tag_7:\n        /* \"#utility.yul\":749:755   */\n      0x00\n        /* \"#utility.yul\":798:800   */\n      0x20\n        /* \"#utility.yul\":786:795   */\n      dup3\n        /* \"#utility.yul\":777:784   */\n      dup5\n        /* \"#utility.yul\":773:796   */\n      sub\n        /* \"#utility.yul\":769:801   */\n      slt\n        /* \"#utility.yul\":766:885   */\n      iszero\n      tag_49\n      jumpi\n        /* \"#utility.yul\":804:883   */\n      tag_50\n      tag_28\n      jump\t// in\n    tag_50:\n        /* \"#utility.yul\":766:885   */\n    tag_49:\n        /* \"#utility.yul\":924:925   */\n      0x00\n        /* \"#utility.yul\":949:1002   */\n      tag_51\n        /* \"#utility.yul\":994:1001   */\n      dup5\n        /* \"#utility.yul\":985:991   */\n      dup3\n        /* \"#utility.yul\":974:983   */\n      dup6\n        /* \"#utility.yul\":970:992   */\n      add\n        /* \"#utility.yul\":949:1002   */\n      tag_32\n      jump\t// in\n    tag_51:\n        /* \"#utility.yul\":939:1002   */\n      swap2\n      pop\n        /* \"#utility.yul\":895:1012   */\n      pop\n        /* \"#utility.yul\":690:1019   */\n      swap3\n      swap2\n      pop\n      pop\n      jump\t// out\n        /* \"#utility.yul\":1025:1143   */\n    tag_33:\n        /* \"#utility.yul\":1112:1136   */\n      tag_53\n        /* \"#utility.yul\":1130:1135   */\n      dup2\n        /* \"#utility.yul\":1112:1136   */\n      tag_30\n      jump\t// in\n    tag_53:\n        /* \"#utility.yul\":1107:1110   */\n      dup3\n        /* \"#utility.yul\":1100:1137   */\n      mstore\n        /* \"#utility.yul\":1025:1143   */\n      pop\n      pop\n      jump\t// out\n        /* \"#utility.yul\":1149:1371   */\n    tag_10:\n        /* \"#utility.yul\":1242:1246   */\n      0x00\n        /* \"#utility.yul\":1280:1282   */\n      0x20\n        /* \"#utility.yul\":1269:1278   */\n      dup3\n        /* \"#utility.yul\":1265:1283   */\n      add\n        /* \"#utility.yul\":1257:1283   */\n      swap1\n      pop\n        /* \"#utility.yul\":1293:1364   */\n      tag_55\n        /* \"#utility.yul\":1361:1362   */\n      0x00\n        /* \"#utility.yul\":1350:1359   */\n      dup4\n        /* \"#utility.yul\":1346:1363   */\n      add\n        /* \"#utility.yul\":1337:1343   */\n      dup5\n        /* \"#utility.yul\":1293:1364   */\n      tag_33\n      jump\t// in\n    tag_55:\n        /* \"#utility.yul\":1149:1371   */\n      swap3\n      swap2\n      pop\n      pop\n      jump\t// out\n        /* \"#utility.yul\":1377:1557   */\n    tag_34:\n        /* \"#utility.yul\":1425:1502   */\n      0x4e487b7100000000000000000000000000000000000000000000000000000000\n        /* \"#utility.yul\":1422:1423   */\n      0x00\n        /* \"#utility.yul\":1415:1503   */\n      mstore\n        /* \"#utility.yul\":1522:1526   */\n      0x11\n        /* \"#utility.yul\":1519:1520   */\n      0x04\n        /* \"#utility.yul\":1512:1527   */\n      mstore\n        /* \"#utility.yul\":1546:1550   */\n      0x24\n        /* \"#utility.yul\":1543:1544   */\n      0x00\n        /* \"#utility.yul\":1536:1551   */\n      revert\n        /* \"#utility.yul\":1563:1665   */\n    tag_35:\n        /* \"#utility.yul\":1605:1613   */\n      0x00\n        /* \"#utility.yul\":1652:1657   */\n      dup2\n        /* \"#utility.yul\":1649:1650   */\n      0x01\n        /* \"#utility.yul\":1645:1658   */\n      shr\n        /* \"#utility.yul\":1624:1658   */\n      swap1\n      pop\n        /* \"#utility.yul\":1563:1665   */\n      swap2\n      swap1\n      pop\n      jump\t// out\n        /* \"#utility.yul\":1671:2519   */\n    tag_36:\n        /* \"#utility.yul\":1732:1737   */\n      0x00\n        /* \"#utility.yul\":1739:1743   */\n      0x00\n        /* \"#utility.yul\":1763:1769   */\n      dup3\n        /* \"#utility.yul\":1754:1769   */\n      swap2\n      pop\n        /* \"#utility.yul\":1787:1792   */\n      dup4\n        /* \"#utility.yul\":1778:1792   */\n      swap1\n      pop\n        /* \"#utility.yul\":1801:2513   */\n    tag_59:\n        /* \"#utility.yul\":1822:1823   */\n      0x01\n        /* \"#utility.yul\":1812:1820   */\n      dup6\n        /* \"#utility.yul\":1809:1824   */\n      gt\n        /* \"#utility.yul\":1801:2513   */\n      iszero\n      tag_61\n      jumpi\n        /* \"#utility.yul\":1917:1921   */\n      dup1\n        /* \"#utility.yul\":1912:1915   */\n      dup7\n        /* \"#utility.yul\":1908:1922   */\n      div\n        /* \"#utility.yul\":1902:1906   */\n      dup2\n        /* \"#utility.yul\":1899:1923   */\n      gt\n        /* \"#utility.yul\":1896:1946   */\n      iszero\n      tag_62\n      jumpi\n        /* \"#utility.yul\":1926:1944   */\n      tag_63\n      tag_34\n      jump\t// in\n    tag_63:\n        /* \"#utility.yul\":1896:1946   */\n    tag_62:\n        /* \"#utility.yul\":1976:1977   */\n      0x01\n        /* \"#utility.yul\":1966:1974   */\n      dup6\n        /* \"#utility.yul\":1962:1978   */\n      and\n        /* \"#utility.yul\":1959:2410   */\n      iszero\n      tag_64\n      jumpi\n        /* \"#utility.yul\":2391:2395   */\n      dup1\n        /* \"#utility.yul\":2384:2389   */\n      dup3\n        /* \"#utility.yul\":2380:2396   */\n      mul\n        /* \"#utility.yul\":2371:2396   */\n      swap2\n      pop\n        /* \"#utility.yul\":1959:2410   */\n    tag_64:\n        /* \"#utility.yul\":2441:2445   */\n      dup1\n        /* \"#utility.yul\":2435:2439   */\n      dup2\n        /* \"#utility.yul\":2431:2446   */\n      mul\n        /* \"#utility.yul\":2423:2446   */\n      swap1\n      pop\n        /* \"#utility.yul\":2471:2503   */\n      tag_65\n        /* \"#utility.yul\":2494:2502   */\n      dup6\n        /* \"#utility.yul\":2471:2503   */\n      tag_35\n      jump\t// in\n    tag_65:\n        /* \"#utility.yul\":2459:2503   */\n      swap5\n      pop\n        /* \"#utility.yul\":1801:2513   */\n      jump(tag_59)\n    tag_61:\n        /* \"#utility.yul\":1671:2519   */\n      swap5\n      pop\n      swap5\n      swap3\n      pop\n      pop\n      pop\n      jump\t// out\n        /* \"#utility.yul\":2525:3598   */\n    tag_37:\n        /* \"#utility.yul\":2579:2584   */\n      0x00\n        /* \"#utility.yul\":2770:2778   */\n      dup3\n        /* \"#utility.yul\":2760:2800   */\n      tag_67\n      jumpi\n        /* \"#utility.yul\":2791:2792   */\n      0x01\n        /* \"#utility.yul\":2782:2792   */\n      swap1\n      pop\n        /* \"#utility.yul\":2793:2798   */\n      jump(tag_66)\n        /* \"#utility.yul\":2760:2800   */\n    tag_67:\n        /* \"#utility.yul\":2819:2823   */\n      dup2\n        /* \"#utility.yul\":2809:2845   */\n      tag_68\n      jumpi\n        /* \"#utility.yul\":2836:2837   */\n      0x00\n        /* \"#utility.yul\":2827:2837   */\n      swap1\n      pop\n        /* \"#utility.yul\":2838:2843   */\n      jump(tag_66)\n        /* \"#utility.yul\":2809:2845   */\n    tag_68:\n        /* \"#utility.yul\":2905:2909   */\n      dup2\n        /* \"#utility.yul\":2953:2954   */\n      0x01\n        /* \"#utility.yul\":2948:2975   */\n      dup2\n      eq\n      tag_70\n      jumpi\n        /* \"#utility.yul\":2989:2990   */\n      0x02\n        /* \"#utility.yul\":2984:3175   */\n      dup2\n      eq\n      tag_71\n      jumpi\n        /* \"#utility.yul\":2898:3175   */\n      jump(tag_69)\n        /* \"#utility.yul\":2948:2975   */\n    tag_70:\n        /* \"#utility.yul\":2966:2967   */\n      0x01\n        /* \"#utility.yul\":2957:2967   */\n      swap2\n      pop\n        /* \"#utility.yul\":2968:2973   */\n      pop\n      jump(tag_66)\n        /* \"#utility.yul\":2984:3175   */\n    tag_71:\n        /* \"#utility.yul\":3029:3032   */\n      0xff\n        /* \"#utility.yul\":3019:3027   */\n      dup5\n        /* \"#utility.yul\":3016:3033   */\n      gt\n        /* \"#utility.yul\":3013:3056   */\n      iszero\n      tag_72\n      jumpi\n        /* \"#utility.yul\":3036:3054   */\n      tag_73\n      tag_34\n      jump\t// in\n    tag_73:\n        /* \"#utility.yul\":3013:3056   */\n    tag_72:\n        /* \"#utility.yul\":3085:3093   */\n      dup4\n        /* \"#utility.yul\":3082:3083   */\n      0x02\n        /* \"#utility.yul\":3078:3094   */\n      exp\n        /* \"#utility.yul\":3069:3094   */\n      swap2\n      pop\n        /* \"#utility.yul\":3120:3123   */\n      dup5\n        /* \"#utility.yul\":3113:3118   */\n      dup3\n        /* \"#utility.yul\":3110:3124   */\n      gt\n        /* \"#utility.yul\":3107:3147   */\n      iszero\n      tag_74\n      jumpi\n        /* \"#utility.yul\":3127:3145   */\n      tag_75\n      tag_34\n      jump\t// in\n    tag_75:\n        /* \"#utility.yul\":3107:3147   */\n    tag_74:\n        /* \"#utility.yul\":3160:3165   */\n      pop\n      jump(tag_66)\n        /* \"#utility.yul\":2898:3175   */\n    tag_69:\n      pop\n        /* \"#utility.yul\":3284:3286   */\n      0x20\n        /* \"#utility.yul\":3274:3282   */\n      dup4\n        /* \"#utility.yul\":3271:3287   */\n      lt\n        /* \"#utility.yul\":3265:3268   */\n      0x0133\n        /* \"#utility.yul\":3259:3263   */\n      dup4\n        /* \"#utility.yul\":3256:3269   */\n      lt\n        /* \"#utility.yul\":3252:3288   */\n      and\n        /* \"#utility.yul\":3234:3236   */\n      0x4e\n        /* \"#utility.yul\":3224:3232   */\n      dup5\n        /* \"#utility.yul\":3221:3237   */\n      lt\n        /* \"#utility.yul\":3216:3218   */\n      0x0b\n        /* \"#utility.yul\":3210:3214   */\n      dup5\n        /* \"#utility.yul\":3207:3219   */\n      lt\n        /* \"#utility.yul\":3203:3238   */\n      and\n        /* \"#utility.yul\":3187:3298   */\n      or\n        /* \"#utility.yul\":3184:3430   */\n      iszero\n      tag_76\n      jumpi\n        /* \"#utility.yul\":3340:3348   */\n      dup3\n        /* \"#utility.yul\":3334:3338   */\n      dup3\n        /* \"#utility.yul\":3330:3349   */\n      exp\n        /* \"#utility.yul\":3321:3349   */\n      swap1\n      pop\n        /* \"#utility.yul\":3375:3378   */\n      dup4\n        /* \"#utility.yul\":3368:3373   */\n      dup2\n        /* \"#utility.yul\":3365:3379   */\n      gt\n        /* \"#utility.yul\":3362:3402   */\n      iszero\n      tag_77\n      jumpi\n        /* \"#utility.yul\":3382:3400   */\n      tag_78\n      tag_34\n      jump\t// in\n    tag_78:\n        /* \"#utility.yul\":3362:3402   */\n    tag_77:\n        /* \"#utility.yul\":3415:3420   */\n      jump(tag_66)\n        /* \"#utility.yul\":3184:3430   */\n    tag_76:\n        /* \"#utility.yul\":3455:3497   */\n      tag_79\n        /* \"#utility.yul\":3493:3496   */\n      dup5\n        /* \"#utility.yul\":3483:3491   */\n      dup5\n        /* \"#utility.yul\":3477:3481   */\n      dup5\n        /* \"#utility.yul\":3474:3475   */\n      0x01\n        /* \"#utility.yul\":3455:3497   */\n      tag_36\n      jump\t// in\n    tag_79:\n        /* \"#utility.yul\":3440:3497   */\n      swap3\n      pop\n      swap1\n      pop\n        /* \"#utility.yul\":3529:3533   */\n      dup2\n        /* \"#utility.yul\":3524:3527   */\n      dup5\n        /* \"#utility.yul\":3520:3534   */\n      div\n        /* \"#utility.yul\":3513:3518   */\n      dup2\n        /* \"#utility.yul\":3510:3535   */\n      gt\n        /* \"#utility.yul\":3507:3558   */\n      iszero\n      tag_80\n      jumpi\n        /* \"#utility.yul\":3538:3556   */\n      tag_81\n      tag_34\n      jump\t// in\n    tag_81:\n        /* \"#utility.yul\":3507:3558   */\n    tag_80:\n        /* \"#utility.yul\":3587:3591   */\n      dup2\n        /* \"#utility.yul\":3580:3585   */\n      dup2\n        /* \"#utility.yul\":3576:3592   */\n      mul\n        /* \"#utility.yul\":3567:3592   */\n      swap1\n      pop\n        /* \"#utility.yul\":2525:3598   */\n    tag_66:\n      swap4\n      swap3\n      pop\n      pop\n      pop\n      jump\t// out\n        /* \"#utility.yul\":3604:3889   */\n    tag_23:\n        /* \"#utility.yul\":3664:3669   */\n      0x00\n        /* \"#utility.yul\":3688:3711   */\n      tag_83\n        /* \"#utility.yul\":3706:3710   */\n      dup3\n        /* \"#utility.yul\":3688:3711   */\n      tag_30\n      jump\t// in\n    tag_83:\n        /* \"#utility.yul\":3680:3711   */\n      swap2\n      pop\n        /* \"#utility.yul\":3732:3759   */\n      tag_84\n        /* \"#utility.yul\":3750:3758   */\n      dup4\n        /* \"#utility.yul\":3732:3759   */\n      tag_30\n      jump\t// in\n    tag_84:\n        /* \"#utility.yul\":3720:3759   */\n      swap3\n      pop\n        /* \"#utility.yul\":3778:3882   */\n      tag_85\n        /* \"#utility.yul\":3815:3881   */\n      0xffffffffffffffffffffffffffffffffffffffffffffffffffffffffffffffff\n        /* \"#utility.yul\":3805:3813   */\n      dup5\n        /* \"#utility.yul\":3799:3803   */\n      dup5\n        /* \"#utility.yul\":3778:3882   */\n      tag_37\n      jump\t// in\n    tag_85:\n        /* \"#utility.yul\":3769:3882   */\n      swap1\n      pop\n        /* \"#utility.yul\":3604:3889   */\n      swap3\n      swap2\n      pop\n      pop\n      jump\t// out\n        /* \"#utility.yul\":3895:4305   */\n    tag_26:\n        /* \"#utility.yul\":3935:3942   */\n      0x00\n        /* \"#utility.yul\":3958:3978   */\n      tag_87\n        /* \"#utility.yul\":3976:3977   */\n      dup3\n        /* \"#utility.yul\":3958:3978   */\n      tag_30\n      jump\t// in\n    tag_87:\n        /* \"#utility.yul\":3953:3978   */\n      swap2\n      pop\n        /* \"#utility.yul\":3992:4012   */\n      tag_88\n        /* \"#utility.yul\":4010:4011   */\n      dup4\n        /* \"#utility.yul\":3992:4012   */\n      tag_30\n      jump\t// in\n    tag_88:\n        /* \"#utility.yul\":3987:4012   */\n      swap3\n      pop\n        /* \"#utility.yul\":4047:4048   */\n      dup3\n        /* \"#utility.yul\":4044:4045   */\n      dup3\n        /* \"#utility.yul\":4040:4049   */\n      mul\n        /* \"#utility.yul\":4069:4099   */\n      tag_89\n        /* \"#utility.yul\":4087:4098   */\n      dup2\n        /* \"#utility.yul\":4069:4099   */\n      tag_30\n      jump\t// in\n    tag_89:\n        /* \"#utility.yul\":4058:4099   */\n      swap2\n      pop\n        /* \"#utility.yul\":4248:4249   */\n      dup3\n        /* \"#utility.yul\":4239:4246   */\n      dup3\n        /* \"#utility.yul\":4235:4250   */\n      div\n        /* \"#utility.yul\":4232:4233   */\n      dup5\n        /* \"#utility.yul\":4229:4251   */\n      eq\n        /* \"#utility.yul\":4209:4210   */\n      dup4\n        /* \"#utility.yul\":4202:4211   */\n      iszero\n        /* \"#utility.yul\":4182:4265   */\n      or\n        /* \"#utility.yul\":4159:4298   */\n      tag_90\n      jumpi\n        /* \"#utility.yul\":4278:4296   */\n      tag_91\n      tag_34\n      jump\t// in\n    tag_91:\n        /* \"#utility.yul\":4159:4298   */\n    tag_90:\n        /* \"#utility.yul\":3943:4305   */\n      pop\n        /* \"#utility.yul\":3895:4305   */\n      swap3\n      swap2\n      pop\n      pop\n      jump\t// out\n\n    auxdata: 0xa26469706673582212208cae27185ff37eab478831afe4b58abc61ebe95f9c4b266d37e342ab1d8e156964736f6c634300081e0033\n}\n",
				"bytecode": {
					"linkReferences": {},
					"object": "6080604052348015600e575f5ffd5b506103898061001c5f395ff3fe608060405234801561000f575f5ffd5b5060043610610034575f3560e01c806358a8f79414610038578063e70b31f014610068575b5f5ffd5b610052600480360381019061004d9190610119565b610098565b60405161005f9190610153565b60405180910390f35b610082600480360381019061007d9190610119565b6100a9565b60405161008f9190610153565b60405180910390f35b5f6100a2826100ba565b9050919050565b5f6100b3826100ce565b9050919050565b5f81826100c791906102c8565b9050919050565b5f81826100db9190610312565b9050919050565b5f5ffd5b5f819050919050565b6100f8816100e6565b8114610102575f5ffd5b50565b5f81359050610113816100ef565b92915050565b5f6020828403121561012e5761012d6100e2565b5b5f61013b84828501610105565b91505092915050565b61014d816100e6565b82525050565b5f6020820190506101665f830184610144565b92915050565b7f4e487b71000000000000000000000000000000000000000000000000000000005f52601160045260245ffd5b5f8160011c9050919050565b5f5f8291508390505b60018511156101ee578086048111156101ca576101c961016c565b5b60018516156101d95780820291505b80810290506101e785610199565b94506101ae565b94509492505050565b5f8261020657600190506102c1565b81610213575f90506102c1565b8160018114610229576002811461023357610262565b60019150506102c1565b60ff8411156102455761024461016c565b5b8360020a91508482111561025c5761025b61016c565b5b506102c1565b5060208310610133831016604e8410600b84101617156102975782820a9050838111156102925761029161016c565b5b6102c1565b6102a484848460016101a5565b925090508184048111156102bb576102ba61016c565b5b81810290505b9392505050565b5f6102d2826100e6565b91506102dd836100e6565b925061030a7fffffffffffffffffffffffffffffffffffffffffffffffffffffffffffffffff84846101f7565b905092915050565b5f61031c826100e6565b9150610327836100e6565b9250828202610335816100e6565b9150828204841483151761034c5761034b61016c565b5b509291505056fea26469706673582212208cae27185ff37eab478831afe4b58abc61ebe95f9c4b266d37e342ab1d8e156964736f6c634300081e0033",
					"opcodes": "PUSH1 0x80 PUSH1 0x40 MSTORE CALLVALUE DUP1 ISZERO PUSH1 0xE JUMPI PUSH0 PUSH0 REVERT JUMPDEST POP PUSH2 0x389 DUP1 PUSH2 0x1C PUSH0 CODECOPY PUSH0 RETURN INVALID PUSH1 0x80 PUSH1 0x40 MSTORE CALLVALUE DUP1 ISZERO PUSH2 0xF JUMPI PUSH0 PUSH0 REVERT JUMPDEST POP PUSH1 0x4 CALLDATASIZE LT PUSH2 0x34 JUMPI PUSH0 CALLDATALOAD PUSH1 0xE0 SHR DUP1 PUSH4 0x58A8F794 EQ PUSH2 0x38 JUMPI DUP1 PUSH4 0xE70B31F0 EQ PUSH2 0x68 JUMPI JUMPDEST PUSH0 PUSH0 REVERT JUMPDEST PUSH2 0x52 PUSH1 0x4 DUP1 CALLDATASIZE SUB DUP2 ADD SWAP1 PUSH2 0x4D SWAP2 SWAP1 PUSH2 0x119 JUMP JUMPDEST PUSH2 0x98 JUMP JUMPDEST PUSH1 0x40 MLOAD PUSH2 0x5F SWAP2 SWAP1 PUSH2 0x153 JUMP JUMPDEST PUSH1 0x40 MLOAD DUP1 SWAP2 SUB SWAP1 RETURN JUMPDEST PUSH2 0x82 PUSH1 0x4 DUP1 CALLDATASIZE SUB DUP2 ADD SWAP1 PUSH2 0x7D SWAP2 SWAP1 PUSH2 0x119 JUMP JUMPDEST PUSH2 0xA9 JUMP JUMPDEST PUSH1 0x40 MLOAD PUSH2 0x8F SWAP2 SWAP1 PUSH2 0x153 JUMP JUMPDEST PUSH1 0x40 MLOAD DUP1 SWAP2 SUB SWAP1 RETURN JUMPDEST PUSH0 PUSH2 0xA2 DUP3 PUSH2 0xBA JUMP JUMPDEST SWAP1 POP SWAP2 SWAP1 POP JUMP JUMPDEST PUSH0 PUSH2 0xB3 DUP3 PUSH2 0xCE JUMP JUMPDEST SWAP1 POP SWAP2 SWAP1 POP JUMP JUMPDEST PUSH0 DUP2 DUP3 PUSH2 0xC7 SWAP2 SWAP1 PUSH2 0x2C8 JUMP JUMPDEST SWAP1 POP SWAP2 SWAP1 POP JUMP JUMPDEST PUSH0 DUP2 DUP3 PUSH2 0xDB SWAP2 SWAP1 PUSH2 0x312 JUMP JUMPDEST SWAP1 POP SWAP2 SWAP1 POP JUMP JUMPDEST PUSH0 PUSH0 REVERT JUMPDEST PUSH0 DUP2 SWAP1 POP SWAP2 SWAP1 POP JUMP JUMPDEST PUSH2 0xF8 DUP2 PUSH2 0xE6 JUMP JUMPDEST DUP2 EQ PUSH2 0x102 JUMPI PUSH0 PUSH0 REVERT JUMPDEST POP JUMP JUMPDEST PUSH0 DUP2 CALLDATALOAD SWAP1 POP PUSH2 0x113 DUP2 PUSH2 0xEF JUMP JUMPDEST SWAP3 SWAP2 POP POP JUMP JUMPDEST PUSH0 PUSH1 0x20 DUP3 DUP5 SUB SLT ISZERO PUSH2 0x12E JUMPI PUSH2 0x12D PUSH2 0xE2 JUMP JUMPDEST JUMPDEST PUSH0 PUSH2 0x13B DUP5 DUP3 DUP6 ADD PUSH2 0x105 JUMP JUMPDEST SWAP2 POP POP SWAP3 SWAP2 POP POP JUMP JUMPDEST PUSH2 0x14D DUP2 PUSH2 0xE6 JUMP JUMPDEST DUP3 MSTORE POP POP JUMP JUMPDEST PUSH0 PUSH1 0x20 DUP3 ADD SWAP1 POP PUSH2 0x166 PUSH0 DUP4 ADD DUP5 PUSH2 0x144 JUMP JUMPDEST SWAP3 SWAP2 POP POP JUMP JUMPDEST PUSH32 0x4E487B7100000000000000000000000000000000000000000000000000000000 PUSH0 MSTORE PUSH1 0x11 PUSH1 0x4 MSTORE PUSH1 0x24 PUSH0 REVERT JUMPDEST PUSH0 DUP2 PUSH1 0x1 SHR SWAP1 POP SWAP2 SWAP1 POP JUMP JUMPDEST PUSH0 PUSH0 DUP3 SWAP2 POP DUP4 SWAP1 POP JUMPDEST PUSH1 0x1 DUP6 GT ISZERO PUSH2 0x1EE JUMPI DUP1 DUP7 DIV DUP2 GT ISZERO PUSH2 0x1CA JUMPI PUSH2 0x1C9 PUSH2 0x16C JUMP JUMPDEST JUMPDEST PUSH1 0x1 DUP6 AND ISZERO PUSH2 0x1D9 JUMPI DUP1 DUP3 MUL SWAP2 POP JUMPDEST DUP1 DUP2 MUL SWAP1 POP PUSH2 0x1E7 DUP6 PUSH2 0x199 JUMP JUMPDEST SWAP5 POP PUSH2 0x1AE JUMP JUMPDEST SWAP5 POP SWAP5 SWAP3 POP POP POP JUMP JUMPDEST PUSH0 DUP3 PUSH2 0x206 JUMPI PUSH1 0x1 SWAP1 POP PUSH2 0x2C1 JUMP JUMPDEST DUP2 PUSH2 0x213 JUMPI PUSH0 SWAP1 POP PUSH2 0x2C1 JUMP JUMPDEST DUP2 PUSH1 0x1 DUP2 EQ PUSH2 0x229 JUMPI PUSH1 0x2 DUP2 EQ PUSH2 0x233 JUMPI PUSH2 0x262 JUMP JUMPDEST PUSH1 0x1 SWAP2 POP POP PUSH2 0x2C1 JUMP JUMPDEST PUSH1 0xFF DUP5 GT ISZERO PUSH2 0x245 JUMPI PUSH2 0x244 PUSH2 0x16C JUMP JUMPDEST JUMPDEST DUP4 PUSH1 0x2 EXP SWAP2 POP DUP5 DUP3 GT ISZERO PUSH2 0x25C JUMPI PUSH2 0x25B PUSH2 0x16C JUMP JUMPDEST JUMPDEST POP PUSH2 0x2C1 JUMP JUMPDEST POP PUSH1 0x20 DUP4 LT PUSH2 0x133 DUP4 LT AND PUSH1 0x4E DUP5 LT PUSH1 0xB DUP5 LT AND OR ISZERO PUSH2 0x297 JUMPI DUP3 DUP3 EXP SWAP1 POP DUP4 DUP2 GT ISZERO PUSH2 0x292 JUMPI PUSH2 0x291 PUSH2 0x16C JUMP JUMPDEST JUMPDEST PUSH2 0x2C1 JUMP JUMPDEST PUSH2 0x2A4 DUP5 DUP5 DUP5 PUSH1 0x1 PUSH2 0x1A5 JUMP JUMPDEST SWAP3 POP SWAP1 POP DUP2 DUP5 DIV DUP2 GT ISZERO PUSH2 0x2BB JUMPI PUSH2 0x2BA PUSH2 0x16C JUMP JUMPDEST JUMPDEST DUP2 DUP2 MUL SWAP1 POP JUMPDEST SWAP4 SWAP3 POP POP POP JUMP JUMPDEST PUSH0 PUSH2 0x2D2 DUP3 PUSH2 0xE6 JUMP JUMPDEST SWAP2 POP PUSH2 0x2DD DUP4 PUSH2 0xE6 JUMP JUMPDEST SWAP3 POP PUSH2 0x30A PUSH32 0xFFFFFFFFFFFFFFFFFFFFFFFFFFFFFFFFFFFFFFFFFFFFFFFFFFFFFFFFFFFFFFFF DUP5 DUP5 PUSH2 0x1F7 JUMP JUMPDEST SWAP1 POP SWAP3 SWAP2 POP POP JUMP JUMPDEST PUSH0 PUSH2 0x31C DUP3 PUSH2 0xE6 JUMP JUMPDEST SWAP2 POP PUSH2 0x327 DUP4 PUSH2 0xE6 JUMP JUMPDEST SWAP3 POP DUP3 DUP3 MUL PUSH2 0x335 DUP2 PUSH2 0xE6 JUMP JUMPDEST SWAP2 POP DUP3 DUP3 DIV DUP5 EQ DUP4 ISZERO OR PUSH2 0x34C JUMPI PUSH2 0x34B PUSH2 0x16C JUMP JUMPDEST JUMPDEST POP SWAP3 SWAP2 POP POP JUMP INVALID LOG2 PUSH5 0x6970667358 0x22 SLT KECCAK256 DUP13 0xAE 0x27 XOR PUSH0 RETURN PUSH31 0xAB478831AFE4B58ABC61EBE95F9C4B266D37E342AB1D8E156964736F6C6343 STOP ADDMOD 0x1E STOP CALLER "
				},
				"gasEstimates": {
					"creation": {
						"codeDepositCost": "181000",
						"executionCost": "224",
						"totalCost": "181224"
					},
					"external": {
						"usarPotencia(uint256)": "infinite",
						"usarQuadra(uint256)": "infinite"
					}
				},
				"methodIdentifiers": {
					"usarPotencia(uint256)": "58a8f794",
					"usarQuadra(uint256)": "e70b31f0"
				}
			},
			"storageLayout": {
				"storage": [],
				"types": null
			},
			"userdoc": {
				"kind": "user",
				"methods": {},
				"version": 1
			}
		}
	}
}