{
  "contractName": "Criador",
  "abi": [
    {
      "inputs": [],
      "name": "endereco",
      "outputs": [
        {
          "internalType": "address",
          "name": "",
          "type": "address"
        }
      ],
      "stateMutability": "view",
      "type": "function",
      "constant": true
    },
    {
      "inputs": [],
      "name": "criarPadrao",
      "outputs": [],
      "stateMutability": "nonpayable",
      "type": "function"
    }
  ],
  "bytecode": "0x608060405234801561001057600080fd5b5061065a806100206000396000f3fe608060405234801561001057600080fd5b50600436106100365760003560e01c8063a6280cf41461003b578063f38b274314610045575b600080fd5b610043610063565b005b61004d6100d3565b60405161005a9190610113565b60405180910390f35b6000604051610071906100f7565b604051809103906000f08015801561008d573d6000803e3d6000fd5b509050806000806101000a81548173ffffffffffffffffffffffffffffffffffffffff021916908373ffffffffffffffffffffffffffffffffffffffff16021790555050565b60008054906101000a900473ffffffffffffffffffffffffffffffffffffffff1681565b6104c48061016183390190565b61010d8161012e565b82525050565b60006020820190506101286000830184610104565b92915050565b600061013982610140565b9050919050565b600073ffffffffffffffffffffffffffffffffffffffff8216905091905056fe608060405234801561001057600080fd5b506104a4806100206000396000f3fe608060405234801561001057600080fd5b50600436106100365760003560e01c806306fdde031461003b578063e5e1bf8f14610059575b600080fd5b610043610075565b60405161005091906102b2565b60405180910390f35b610073600480360381019061006e9190610230565b610103565b005b6000805461008290610388565b80601f01602080910402602001604051908101604052809291908181526020018280546100ae90610388565b80156100fb5780601f106100d0576101008083540402835291602001916100fb565b820191906000526020600020905b8154815290600101906020018083116100de57829003601f168201915b505050505081565b806000908051906020019061011992919061011d565b5050565b82805461012990610388565b90600052602060002090601f01602090048101928261014b5760008555610192565b82601f1061016457805160ff1916838001178555610192565b82800160010185558215610192579182015b82811115610191578251825591602001919060010190610176565b5b50905061019f91906101a3565b5090565b5b808211156101bc5760008160009055506001016101a4565b5090565b60006101d36101ce846102f9565b6102d4565b9050828152602081018484840111156101ef576101ee61044e565b5b6101fa848285610346565b509392505050565b600082601f83011261021757610216610449565b5b81356102278482602086016101c0565b91505092915050565b60006020828403121561024657610245610458565b5b600082013567ffffffffffffffff81111561026457610263610453565b5b61027084828501610202565b91505092915050565b60006102848261032a565b61028e8185610335565b935061029e818560208601610355565b6102a78161045d565b840191505092915050565b600060208201905081810360008301526102cc8184610279565b905092915050565b60006102de6102ef565b90506102ea82826103ba565b919050565b6000604051905090565b600067ffffffffffffffff8211156103145761031361041a565b5b61031d8261045d565b9050602081019050919050565b600081519050919050565b600082825260208201905092915050565b82818337600083830152505050565b60005b83811015610373578082015181840152602081019050610358565b83811115610382576000848401525b50505050565b600060028204905060018216806103a057607f821691505b602082108114156103b4576103b36103eb565b5b50919050565b6103c38261045d565b810181811067ffffffffffffffff821117156103e2576103e161041a565b5b80604052505050565b7f4e487b7100000000000000000000000000000000000000000000000000000000600052602260045260246000fd5b7f4e487b7100000000000000000000000000000000000000000000000000000000600052604160045260246000fd5b600080fd5b600080fd5b600080fd5b600080fd5b6000601f19601f830116905091905056fea2646970667358221220ac3e4f6d016e5356143b7f9d1dfb890f195063f58c6419850eb3d49752c5812664736f6c63430008070033a26469706673582212207b722a4ae8a855747878e044a1c7cb225746b6cfb12ee90e012115c272eb36c364736f6c63430008070033",
  "immutableReferences": {},
  "source": "// SPDX-License-Identifier: MIT \npragma solidity ^0.8.7;\n\nimport \"./Padrao.sol\";\n\ncontract Criador{\n\n    address public endereco;\n\n    function criarPadrao() public {\n\n        Padrao novoPadrao = new Padrao();\n        endereco = address(novoPadrao);\n    }\n}",
  "sourcePath": "/home/eryc/Documentos/GitHub/Estudos-sobre-Blockchian-Web3-Solidity/Progamação em Blockchain/aula-5/contracts/criador.sol",
  "compiler": {
    "name": "solc",
    "version": "0.8.7+commit.e28d00a7.Emscripten.clang"
  },
  "schemaVersion": "3.4.16",
  "updatedAt": "2026-02-18T18:40:49.296Z",
  "networkType": "ethereum",
  "devdoc": {
    "kind": "dev",
    "methods": {},
    "version": 1
  },
  "userdoc": {
    "kind": "user",
    "methods": {},
    "version": 1
  }
}