{
  "contractName": "ContratoPayable",
  "abi": [
    {
      "inputs": [],
      "stateMutability": "nonpayable",
      "type": "constructor"
    },
    {
      "inputs": [],
      "name": "endereco",
      "outputs": [
        {
          "internalType": "address",
          "name": "",
          "type": "address"
        }
      ],
      "stateMutability": "view",
      "type": "function",
      "constant": true
    },
    {
      "inputs": [],
      "name": "recebeDineiro",
      "outputs": [],
      "stateMutability": "payable",
      "type": "function",
      "payable": true
    }
  ],
  "bytecode": "0x608060405234801561001057600080fd5b50336000806101000a81548173ffffffffffffffffffffffffffffffffffffffff021916908373ffffffffffffffffffffffffffffffffffffffff1602179055506101c2806100606000396000f3fe6080604052600436106100295760003560e01c80634f5098fa1461002e578063f38b274314610038575b600080fd5b610036610063565b005b34801561004457600080fd5b5061004d61010c565b60405161005a9190610171565b60405180910390f35b60008054906101000a900473ffffffffffffffffffffffffffffffffffffffff1673ffffffffffffffffffffffffffffffffffffffff166108fc349081150290604051600060405180830381858888f193505050501580156100c9573d6000803e3d6000fd5b50336000806101000a81548173ffffffffffffffffffffffffffffffffffffffff021916908373ffffffffffffffffffffffffffffffffffffffff160217905550565b60008054906101000a900473ffffffffffffffffffffffffffffffffffffffff1681565b600073ffffffffffffffffffffffffffffffffffffffff82169050919050565b600061015b82610130565b9050919050565b61016b81610150565b82525050565b60006020820190506101866000830184610162565b9291505056fea264697066735822122062431e9b3d1771ba22735451ff1fce9cc8b07587c1b7999334f189ba1c2a1f5f64736f6c63430008130033",
  "immutableReferences": {},
  "source": "// SPDX-License-Identifier: MIT \npragma solidity ^0.8.19;\n\ncontract ContratoPayable{\n    \n    address public endereco;\n\n    constructor(){\n        endereco = msg.sender;\n    }\n\n    function recebeDineiro() public payable{\n\n        payable(endereco).transfer(msg.value);\n        endereco = msg.sender;\n    }\n}",
  "sourcePath": "/home/eryc/Documentos/GitHub/Estudos-sobre-Blockchian-Web3-Solidity/Progamação em Blockchain/aula-9/contracts/contratroPayable.sol",
  "compiler": {
    "name": "solc",
    "version": "0.8.19+commit.7dd6d404.Emscripten.clang"
  },
  "schemaVersion": "3.4.16",
  "updatedAt": "2026-02-21T00:13:29.661Z",
  "networkType": "ethereum",
  "devdoc": {
    "kind": "dev",
    "methods": {},
    "version": 1
  },
  "userdoc": {
    "kind": "user",
    "methods": {},
    "version": 1
  }
}