{
	"data": {
		"bytecode": {
			"linkReferences": {},
			"object": "6080604052348015600e575f5ffd5b506106658061001c5f395ff3fe608060405234801561000f575f5ffd5b5060043610610060575f3560e01c80631fd9e7ba1461006457806323932cf61461008057806369533c74146100b05780638c143869146100e0578063a72999d914610110578063fe101d6c1461012c575b5f5ffd5b61007e60048036038101906100799190610454565b61015c565b005b61009a60048036038101906100959190610492565b6101c3565b6040516100a79190610530565b60405180910390f35b6100ca60048036038101906100c5919061057c565b610214565b6040516100d791906105b6565b60405180910390f35b6100fa60048036038101906100f59190610492565b61024f565b6040516101079190610530565b60405180910390f35b61012a60048036038101906101259190610492565b61026b565b005b61014660048036038101906101419190610492565b610331565b60405161015391906105e9565b60405180910390f35b805f5f8473ffffffffffffffffffffffffffffffffffffffff1673ffffffffffffffffffffffffffffffffffffffff1681526020019081526020015f205f6101000a81548160ff021916908360028111156101ba576101b96104bd565b5b02179055505050565b5f5f5f8373ffffffffffffffffffffffffffffffffffffffff1673ffffffffffffffffffffffffffffffffffffffff1681526020019081526020015f205f9054906101000a900460ff169050919050565b60018181548110610223575f80fd5b905f5260205f20015f915054906101000a900473ffffffffffffffffffffffffffffffffffffffff1681565b5f602052805f5260405f205f915054906101000a900460ff1681565b600181908060018154018082558091505060019003905f5260205f20015f9091909190916101000a81548173ffffffffffffffffffffffffffffffffffffffff021916908373ffffffffffffffffffffffffffffffffffffffff1602179055505f5f5f8373ffffffffffffffffffffffffffffffffffffffff1673ffffffffffffffffffffffffffffffffffffffff1681526020019081526020015f205f6101000a81548160ff02191690836002811115610329576103286104bd565b5b021790555050565b5f5f5f90505b6001805490508110156103c9578273ffffffffffffffffffffffffffffffffffffffff166001828154811061036f5761036e610602565b5b905f5260205f20015f9054906101000a900473ffffffffffffffffffffffffffffffffffffffff1673ffffffffffffffffffffffffffffffffffffffff16036103bc5760019150506103ce565b8080600101915050610337565b505f90505b919050565b5f5ffd5b5f73ffffffffffffffffffffffffffffffffffffffff82169050919050565b5f610400826103d7565b9050919050565b610410816103f6565b811461041a575f5ffd5b50565b5f8135905061042b81610407565b92915050565b6003811061043d575f5ffd5b50565b5f8135905061044e81610431565b92915050565b5f5f6040838503121561046a576104696103d3565b5b5f6104778582860161041d565b925050602061048885828601610440565b9150509250929050565b5f602082840312156104a7576104a66103d3565b5b5f6104b48482850161041d565b91505092915050565b7f4e487b71000000000000000000000000000000000000000000000000000000005f52602160045260245ffd5b600381106104fb576104fa6104bd565b5b50565b5f81905061050b826104ea565b919050565b5f61051a826104fe565b9050919050565b61052a81610510565b82525050565b5f6020820190506105435f830184610521565b92915050565b5f819050919050565b61055b81610549565b8114610565575f5ffd5b50565b5f8135905061057681610552565b92915050565b5f60208284031215610591576105906103d3565b5b5f61059e84828501610568565b91505092915050565b6105b0816103f6565b82525050565b5f6020820190506105c95f8301846105a7565b92915050565b5f8115159050919050565b6105e3816105cf565b82525050565b5f6020820190506105fc5f8301846105da565b92915050565b7f4e487b71000000000000000000000000000000000000000000000000000000005f52603260045260245ffdfea2646970667358221220a63aeedaa9e07f1b928ea8dec8b58955df7fd9287759766f3b9fe5c953655d4064736f6c634300081e0033",
			"opcodes": "PUSH1 0x80 PUSH1 0x40 MSTORE CALLVALUE DUP1 ISZERO PUSH1 0xE JUMPI PUSH0 PUSH0 REVERT JUMPDEST POP PUSH2 0x665 DUP1 PUSH2 0x1C PUSH0 CODECOPY PUSH0 RETURN INVALID PUSH1 0x80 PUSH1 0x40 MSTORE CALLVALUE DUP1 ISZERO PUSH2 0xF JUMPI PUSH0 PUSH0 REVERT JUMPDEST POP PUSH1 0x4 CALLDATASIZE LT PUSH2 0x60 JUMPI PUSH0 CALLDATALOAD PUSH1 0xE0 SHR DUP1 PUSH4 0x1FD9E7BA EQ PUSH2 0x64 JUMPI DUP1 PUSH4 0x23932CF6 EQ PUSH2 0x80 JUMPI DUP1 PUSH4 0x69533C74 EQ PUSH2 0xB0 JUMPI DUP1 PUSH4 0x8C143869 EQ PUSH2 0xE0 JUMPI DUP1 PUSH4 0xA72999D9 EQ PUSH2 0x110 JUMPI DUP1 PUSH4 0xFE101D6C EQ PUSH2 0x12C JUMPI JUMPDEST PUSH0 PUSH0 REVERT JUMPDEST PUSH2 0x7E PUSH1 0x4 DUP1 CALLDATASIZE SUB DUP2 ADD SWAP1 PUSH2 0x79 SWAP2 SWAP1 PUSH2 0x454 JUMP JUMPDEST PUSH2 0x15C JUMP JUMPDEST STOP JUMPDEST PUSH2 0x9A PUSH1 0x4 DUP1 CALLDATASIZE SUB DUP2 ADD SWAP1 PUSH2 0x95 SWAP2 SWAP1 PUSH2 0x492 JUMP JUMPDEST PUSH2 0x1C3 JUMP JUMPDEST PUSH1 0x40 MLOAD PUSH2 0xA7 SWAP2 SWAP1 PUSH2 0x530 JUMP JUMPDEST PUSH1 0x40 MLOAD DUP1 SWAP2 SUB SWAP1 RETURN JUMPDEST PUSH2 0xCA PUSH1 0x4 DUP1 CALLDATASIZE SUB DUP2 ADD SWAP1 PUSH2 0xC5 SWAP2 SWAP1 PUSH2 0x57C JUMP JUMPDEST PUSH2 0x214 JUMP JUMPDEST PUSH1 0x40 MLOAD PUSH2 0xD7 SWAP2 SWAP1 PUSH2 0x5B6 JUMP JUMPDEST PUSH1 0x40 MLOAD DUP1 SWAP2 SUB SWAP1 RETURN JUMPDEST PUSH2 0xFA PUSH1 0x4 DUP1 CALLDATASIZE SUB DUP2 ADD SWAP1 PUSH2 0xF5 SWAP2 SWAP1 PUSH2 0x492 JUMP JUMPDEST PUSH2 0x24F JUMP JUMPDEST PUSH1 0x40 MLOAD PUSH2 0x107 SWAP2 SWAP1 PUSH2 0x530 JUMP JUMPDEST PUSH1 0x40 MLOAD DUP1 SWAP2 SUB SWAP1 RETURN JUMPDEST PUSH2 0x12A PUSH1 0x4 DUP1 CALLDATASIZE SUB DUP2 ADD SWAP1 PUSH2 0x125 SWAP2 SWAP1 PUSH2 0x492 JUMP JUMPDEST PUSH2 0x26B JUMP JUMPDEST STOP JUMPDEST PUSH2 0x146 PUSH1 0x4 DUP1 CALLDATASIZE SUB DUP2 ADD SWAP1 PUSH2 0x141 SWAP2 SWAP1 PUSH2 0x492 JUMP JUMPDEST PUSH2 0x331 JUMP JUMPDEST PUSH1 0x40 MLOAD PUSH2 0x153 SWAP2 SWAP1 PUSH2 0x5E9 JUMP JUMPDEST PUSH1 0x40 MLOAD DUP1 SWAP2 SUB SWAP1 RETURN JUMPDEST DUP1 PUSH0 PUSH0 DUP5 PUSH20 0xFFFFFFFFFFFFFFFFFFFFFFFFFFFFFFFFFFFFFFFF AND PUSH20 0xFFFFFFFFFFFFFFFFFFFFFFFFFFFFFFFFFFFFFFFF AND DUP2 MSTORE PUSH1 0x20 ADD SWAP1 DUP2 MSTORE PUSH1 0x20 ADD PUSH0 KECCAK256 PUSH0 PUSH2 0x100 EXP DUP2 SLOAD DUP2 PUSH1 0xFF MUL NOT AND SWAP1 DUP4 PUSH1 0x2 DUP2 GT ISZERO PUSH2 0x1BA JUMPI PUSH2 0x1B9 PUSH2 0x4BD JUMP JUMPDEST JUMPDEST MUL OR SWAP1 SSTORE POP POP POP JUMP JUMPDEST PUSH0 PUSH0 PUSH0 DUP4 PUSH20 0xFFFFFFFFFFFFFFFFFFFFFFFFFFFFFFFFFFFFFFFF AND PUSH20 0xFFFFFFFFFFFFFFFFFFFFFFFFFFFFFFFFFFFFFFFF AND DUP2 MSTORE PUSH1 0x20 ADD SWAP1 DUP2 MSTORE PUSH1 0x20 ADD PUSH0 KECCAK256 PUSH0 SWAP1 SLOAD SWAP1 PUSH2 0x100 EXP SWAP1 DIV PUSH1 0xFF AND SWAP1 POP SWAP2 SWAP1 POP JUMP JUMPDEST PUSH1 0x1 DUP2 DUP2 SLOAD DUP2 LT PUSH2 0x223 JUMPI PUSH0 DUP1 REVERT JUMPDEST SWAP1 PUSH0 MSTORE PUSH1 0x20 PUSH0 KECCAK256 ADD PUSH0 SWAP2 POP SLOAD SWAP1 PUSH2 0x100 EXP SWAP1 DIV PUSH20 0xFFFFFFFFFFFFFFFFFFFFFFFFFFFFFFFFFFFFFFFF AND DUP2 JUMP JUMPDEST PUSH0 PUSH1 0x20 MSTORE DUP1 PUSH0 MSTORE PUSH1 0x40 PUSH0 KECCAK256 PUSH0 SWAP2 POP SLOAD SWAP1 PUSH2 0x100 EXP SWAP1 DIV PUSH1 0xFF AND DUP2 JUMP JUMPDEST PUSH1 0x1 DUP2 SWAP1 DUP1 PUSH1 0x1 DUP2 SLOAD ADD DUP1 DUP3 SSTORE DUP1 SWAP2 POP POP PUSH1 0x1 SWAP1 SUB SWAP1 PUSH0 MSTORE PUSH1 0x20 PUSH0 KECCAK256 ADD PUSH0 SWAP1 SWAP2 SWAP1 SWAP2 SWAP1 SWAP2 PUSH2 0x100 EXP DUP2 SLOAD DUP2 PUSH20 0xFFFFFFFFFFFFFFFFFFFFFFFFFFFFFFFFFFFFFFFF MUL NOT AND SWAP1 DUP4 PUSH20 0xFFFFFFFFFFFFFFFFFFFFFFFFFFFFFFFFFFFFFFFF AND MUL OR SWAP1 SSTORE POP PUSH0 PUSH0 PUSH0 DUP4 PUSH20 0xFFFFFFFFFFFFFFFFFFFFFFFFFFFFFFFFFFFFFFFF AND PUSH20 0xFFFFFFFFFFFFFFFFFFFFFFFFFFFFFFFFFFFFFFFF AND DUP2 MSTORE PUSH1 0x20 ADD SWAP1 DUP2 MSTORE PUSH1 0x20 ADD PUSH0 KECCAK256 PUSH0 PUSH2 0x100 EXP DUP2 SLOAD DUP2 PUSH1 0xFF MUL NOT AND SWAP1 DUP4 PUSH1 0x2 DUP2 GT ISZERO PUSH2 0x329 JUMPI PUSH2 0x328 PUSH2 0x4BD JUMP JUMPDEST JUMPDEST MUL OR SWAP1 SSTORE POP POP JUMP JUMPDEST PUSH0 PUSH0 PUSH0 SWAP1 POP JUMPDEST PUSH1 0x1 DUP1 SLOAD SWAP1 POP DUP2 LT ISZERO PUSH2 0x3C9 JUMPI DUP3 PUSH20 0xFFFFFFFFFFFFFFFFFFFFFFFFFFFFFFFFFFFFFFFF AND PUSH1 0x1 DUP3 DUP2 SLOAD DUP2 LT PUSH2 0x36F JUMPI PUSH2 0x36E PUSH2 0x602 JUMP JUMPDEST JUMPDEST SWAP1 PUSH0 MSTORE PUSH1 0x20 PUSH0 KECCAK256 ADD PUSH0 SWAP1 SLOAD SWAP1 PUSH2 0x100 EXP SWAP1 DIV PUSH20 0xFFFFFFFFFFFFFFFFFFFFFFFFFFFFFFFFFFFFFFFF AND PUSH20 0xFFFFFFFFFFFFFFFFFFFFFFFFFFFFFFFFFFFFFFFF AND SUB PUSH2 0x3BC JUMPI PUSH1 0x1 SWAP2 POP POP PUSH2 0x3CE JUMP JUMPDEST DUP1 DUP1 PUSH1 0x1 ADD SWAP2 POP POP PUSH2 0x337 JUMP JUMPDEST POP PUSH0 SWAP1 POP JUMPDEST SWAP2 SWAP1 POP JUMP JUMPDEST PUSH0 PUSH0 REVERT JUMPDEST PUSH0 PUSH20 0xFFFFFFFFFFFFFFFFFFFFFFFFFFFFFFFFFFFFFFFF DUP3 AND SWAP1 POP SWAP2 SWAP1 POP JUMP JUMPDEST PUSH0 PUSH2 0x400 DUP3 PUSH2 0x3D7 JUMP JUMPDEST SWAP1 POP SWAP2 SWAP1 POP JUMP JUMPDEST PUSH2 0x410 DUP2 PUSH2 0x3F6 JUMP JUMPDEST DUP2 EQ PUSH2 0x41A JUMPI PUSH0 PUSH0 REVERT JUMPDEST POP JUMP JUMPDEST PUSH0 DUP2 CALLDATALOAD SWAP1 POP PUSH2 0x42B DUP2 PUSH2 0x407 JUMP JUMPDEST SWAP3 SWAP2 POP POP JUMP JUMPDEST PUSH1 0x3 DUP2 LT PUSH2 0x43D JUMPI PUSH0 PUSH0 REVERT JUMPDEST POP JUMP JUMPDEST PUSH0 DUP2 CALLDATALOAD SWAP1 POP PUSH2 0x44E DUP2 PUSH2 0x431 JUMP JUMPDEST SWAP3 SWAP2 POP POP JUMP JUMPDEST PUSH0 PUSH0 PUSH1 0x40 DUP4 DUP6 SUB SLT ISZERO PUSH2 0x46A JUMPI PUSH2 0x469 PUSH2 0x3D3 JUMP JUMPDEST JUMPDEST PUSH0 PUSH2 0x477 DUP6 DUP3 DUP7 ADD PUSH2 0x41D JUMP JUMPDEST SWAP3 POP POP PUSH1 0x20 PUSH2 0x488 DUP6 DUP3 DUP7 ADD PUSH2 0x440 JUMP JUMPDEST SWAP2 POP POP SWAP3 POP SWAP3 SWAP1 POP JUMP JUMPDEST PUSH0 PUSH1 0x20 DUP3 DUP5 SUB SLT ISZERO PUSH2 0x4A7 JUMPI PUSH2 0x4A6 PUSH2 0x3D3 JUMP JUMPDEST JUMPDEST PUSH0 PUSH2 0x4B4 DUP5 DUP3 DUP6 ADD PUSH2 0x41D JUMP JUMPDEST SWAP2 POP POP SWAP3 SWAP2 POP POP JUMP JUMPDEST PUSH32 0x4E487B7100000000000000000000000000000000000000000000000000000000 PUSH0 MSTORE PUSH1 0x21 PUSH1 0x4 MSTORE PUSH1 0x24 PUSH0 REVERT JUMPDEST PUSH1 0x3 DUP2 LT PUSH2 0x4FB JUMPI PUSH2 0x4FA PUSH2 0x4BD JUMP JUMPDEST JUMPDEST POP JUMP JUMPDEST PUSH0 DUP2 SWAP1 POP PUSH2 0x50B DUP3 PUSH2 0x4EA JUMP JUMPDEST SWAP2 SWAP1 POP JUMP JUMPDEST PUSH0 PUSH2 0x51A DUP3 PUSH2 0x4FE JUMP JUMPDEST SWAP1 POP SWAP2 SWAP1 POP JUMP JUMPDEST PUSH2 0x52A DUP2 PUSH2 0x510 JUMP JUMPDEST DUP3 MSTORE POP POP JUMP JUMPDEST PUSH0 PUSH1 0x20 DUP3 ADD SWAP1 POP PUSH2 0x543 PUSH0 DUP4 ADD DUP5 PUSH2 0x521 JUMP JUMPDEST SWAP3 SWAP2 POP POP JUMP JUMPDEST PUSH0 DUP2 SWAP1 POP SWAP2 SWAP1 POP JUMP JUMPDEST PUSH2 0x55B DUP2 PUSH2 0x549 JUMP JUMPDEST DUP2 EQ PUSH2 0x565 JUMPI PUSH0 PUSH0 REVERT JUMPDEST POP JUMP JUMPDEST PUSH0 DUP2 CALLDATALOAD SWAP1 POP PUSH2 0x576 DUP2 PUSH2 0x552 JUMP JUMPDEST SWAP3 SWAP2 POP POP JUMP JUMPDEST PUSH0 PUSH1 0x20 DUP3 DUP5 SUB SLT ISZERO PUSH2 0x591 JUMPI PUSH2 0x590 PUSH2 0x3D3 JUMP JUMPDEST JUMPDEST PUSH0 PUSH2 0x59E DUP5 DUP3 DUP6 ADD PUSH2 0x568 JUMP JUMPDEST SWAP2 POP POP SWAP3 SWAP2 POP POP JUMP JUMPDEST PUSH2 0x5B0 DUP2 PUSH2 0x3F6 JUMP JUMPDEST DUP3 MSTORE POP POP JUMP JUMPDEST PUSH0 PUSH1 0x20 DUP3 ADD SWAP1 POP PUSH2 0x5C9 PUSH0 DUP4 ADD DUP5 PUSH2 0x5A7 JUMP JUMPDEST SWAP3 SWAP2 POP POP JUMP JUMPDEST PUSH0 DUP2 ISZERO ISZERO SWAP1 POP SWAP2 SWAP1 POP JUMP JUMPDEST PUSH2 0x5E3 DUP2 PUSH2 0x5CF JUMP JUMPDEST DUP3 MSTORE POP POP JUMP JUMPDEST PUSH0 PUSH1 0x20 DUP3 ADD SWAP1 POP PUSH2 0x5FC PUSH0 DUP4 ADD DUP5 PUSH2 0x5DA JUMP JUMPDEST SWAP3 SWAP2 POP POP JUMP JUMPDEST PUSH32 0x4E487B7100000000000000000000000000000000000000000000000000000000 PUSH0 MSTORE PUSH1 0x32 PUSH1 0x4 MSTORE PUSH1 0x24 PUSH0 REVERT INVALID LOG2 PUSH5 0x6970667358 0x22 SLT KECCAK256 0xA6 GASPRICE RETURNCONTRACT 0xDA 0xA9 RJUMP 0x7F1B SWAP3 DUP15 0xA8 0xDE 0xC8 0xB5 DUP10 SSTORE 0xDF PUSH32 0xD9287759766F3B9FE5C953655D4064736F6C634300081E003300000000000000 "
		},
		"gasEstimates": {
			"creation": {
				"codeDepositCost": "327400",
				"executionCost": "366",
				"totalCost": "327766"
			},
			"external": {
				"AdicionarUsuario(address)": "73463",
				"ExisteUsuario(address)": "infinite",
				"ListaDeUsuario(uint256)": "4966",
				"ObeterStatus(address)": "2957",
				"alteraStatus(address,uint8)": "24928",
				"statusUsuario(address)": "2964"
			}
		},
		"methodIdentifiers": {
			"AdicionarUsuario(address)": "a72999d9",
			"ExisteUsuario(address)": "fe101d6c",
			"ListaDeUsuario(uint256)": "69533c74",
			"ObeterStatus(address)": "23932cf6",
			"alteraStatus(address,uint8)": "1fd9e7ba",
			"statusUsuario(address)": "8c143869"
		}
	},
	"abi": [
		{
			"inputs": [
				{
					"internalType": "address",
					"name": "_usuario",
					"type": "address"
				}
			],
			"name": "AdicionarUsuario",
			"outputs": [],
			"stateMutability": "nonpayable",
			"type": "function"
		},
		{
			"inputs": [
				{
					"internalType": "address",
					"name": "_usuario",
					"type": "address"
				}
			],
			"name": "ExisteUsuario",
			"outputs": [
				{
					"internalType": "bool",
					"name": "",
					"type": "bool"
				}
			],
			"stateMutability": "view",
			"type": "function"
		},
		{
			"inputs": [
				{
					"internalType": "uint256",
					"name": "",
					"type": "uint256"
				}
			],
			"name": "ListaDeUsuario",
			"outputs": [
				{
					"internalType": "address",
					"name": "",
					"type": "address"
				}
			],
			"stateMutability": "view",
			"type": "function"
		},
		{
			"inputs": [
				{
					"internalType": "address",
					"name": "_usuario",
					"type": "address"
				}
			],
			"name": "ObeterStatus",
			"outputs": [
				{
					"internalType": "enum DataType.status",
					"name": "",
					"type": "uint8"
				}
			],
			"stateMutability": "view",
			"type": "function"
		},
		{
			"inputs": [
				{
					"internalType": "address",
					"name": "_usuario",
					"type": "address"
				},
				{
					"internalType": "enum DataType.status",
					"name": "_NovoStatus",
					"type": "uint8"
				}
			],
			"name": "alteraStatus",
			"outputs": [],
			"stateMutability": "nonpayable",
			"type": "function"
		},
		{
			"inputs": [
				{
					"internalType": "address",
					"name": "",
					"type": "address"
				}
			],
			"name": "statusUsuario",
			"outputs": [
				{
					"internalType": "enum DataType.status",
					"name": "",
					"type": "uint8"
				}
			],
			"stateMutability": "view",
			"type": "function"
		}
	]
}