{
	"data": {
		"bytecode": {
			"linkReferences": {},
			"object": "6080604052348015600e575f5ffd5b5061025d8061001c5f395ff3fe608060405234801561000f575f5ffd5b5060043610610029575f3560e01c80636edfa2d21461002d575b5f5ffd5b610047600480360381019061004291906101cd565b610049565b005b5050565b5f604051905090565b5f5ffd5b5f5ffd5b5f819050919050565b6100708161005e565b811461007a575f5ffd5b50565b5f8135905061008b81610067565b92915050565b5f5ffd5b5f5ffd5b5f601f19601f8301169050919050565b7f4e487b71000000000000000000000000000000000000000000000000000000005f52604160045260245ffd5b6100df82610099565b810181811067ffffffffffffffff821117156100fe576100fd6100a9565b5b80604052505050565b5f61011061004d565b905061011c82826100d6565b919050565b5f67ffffffffffffffff82111561013b5761013a6100a9565b5b61014482610099565b9050602081019050919050565b828183375f83830152505050565b5f61017161016c84610121565b610107565b90508281526020810184848401111561018d5761018c610095565b5b610198848285610151565b509392505050565b5f82601f8301126101b4576101b3610091565b5b81356101c484826020860161015f565b91505092915050565b5f5f604083850312156101e3576101e2610056565b5b5f6101f08582860161007d565b925050602083013567ffffffffffffffff8111156102115761021061005a565b5b61021d858286016101a0565b915050925092905056fea26469706673582212205f858c786f0e4e9f51fd844a007b42cf1b12c7092ec2b2cbec8acc257eab6ce964736f6c634300081e0033",
			"opcodes": "PUSH1 0x80 PUSH1 0x40 MSTORE CALLVALUE DUP1 ISZERO PUSH1 0xE JUMPI PUSH0 PUSH0 REVERT JUMPDEST POP PUSH2 0x25D DUP1 PUSH2 0x1C PUSH0 CODECOPY PUSH0 RETURN INVALID PUSH1 0x80 PUSH1 0x40 MSTORE CALLVALUE DUP1 ISZERO PUSH2 0xF JUMPI PUSH0 PUSH0 REVERT JUMPDEST POP PUSH1 0x4 CALLDATASIZE LT PUSH2 0x29 JUMPI PUSH0 CALLDATALOAD PUSH1 0xE0 SHR DUP1 PUSH4 0x6EDFA2D2 EQ PUSH2 0x2D JUMPI JUMPDEST PUSH0 PUSH0 REVERT JUMPDEST PUSH2 0x47 PUSH1 0x4 DUP1 CALLDATASIZE SUB DUP2 ADD SWAP1 PUSH2 0x42 SWAP2 SWAP1 PUSH2 0x1CD JUMP JUMPDEST PUSH2 0x49 JUMP JUMPDEST STOP JUMPDEST POP POP JUMP JUMPDEST PUSH0 PUSH1 0x40 MLOAD SWAP1 POP SWAP1 JUMP JUMPDEST PUSH0 PUSH0 REVERT JUMPDEST PUSH0 PUSH0 REVERT JUMPDEST PUSH0 DUP2 SWAP1 POP SWAP2 SWAP1 POP JUMP JUMPDEST PUSH2 0x70 DUP2 PUSH2 0x5E JUMP JUMPDEST DUP2 EQ PUSH2 0x7A JUMPI PUSH0 PUSH0 REVERT JUMPDEST POP JUMP JUMPDEST PUSH0 DUP2 CALLDATALOAD SWAP1 POP PUSH2 0x8B DUP2 PUSH2 0x67 JUMP JUMPDEST SWAP3 SWAP2 POP POP JUMP JUMPDEST PUSH0 PUSH0 REVERT JUMPDEST PUSH0 PUSH0 REVERT JUMPDEST PUSH0 PUSH1 0x1F NOT PUSH1 0x1F DUP4 ADD AND SWAP1 POP SWAP2 SWAP1 POP JUMP JUMPDEST PUSH32 0x4E487B7100000000000000000000000000000000000000000000000000000000 PUSH0 MSTORE PUSH1 0x41 PUSH1 0x4 MSTORE PUSH1 0x24 PUSH0 REVERT JUMPDEST PUSH2 0xDF DUP3 PUSH2 0x99 JUMP JUMPDEST DUP2 ADD DUP2 DUP2 LT PUSH8 0xFFFFFFFFFFFFFFFF DUP3 GT OR ISZERO PUSH2 0xFE JUMPI PUSH2 0xFD PUSH2 0xA9 JUMP JUMPDEST JUMPDEST DUP1 PUSH1 0x40 MSTORE POP POP POP JUMP JUMPDEST PUSH0 PUSH2 0x110 PUSH2 0x4D JUMP JUMPDEST SWAP1 POP PUSH2 0x11C DUP3 DUP3 PUSH2 0xD6 JUMP JUMPDEST SWAP2 SWAP1 POP JUMP JUMPDEST PUSH0 PUSH8 0xFFFFFFFFFFFFFFFF DUP3 GT ISZERO PUSH2 0x13B JUMPI PUSH2 0x13A PUSH2 0xA9 JUMP JUMPDEST JUMPDEST PUSH2 0x144 DUP3 PUSH2 0x99 JUMP JUMPDEST SWAP1 POP PUSH1 0x20 DUP2 ADD SWAP1 POP SWAP2 SWAP1 POP JUMP JUMPDEST DUP3 DUP2 DUP4 CALLDATACOPY PUSH0 DUP4 DUP4 ADD MSTORE POP POP POP JUMP JUMPDEST PUSH0 PUSH2 0x171 PUSH2 0x16C DUP5 PUSH2 0x121 JUMP JUMPDEST PUSH2 0x107 JUMP JUMPDEST SWAP1 POP DUP3 DUP2 MSTORE PUSH1 0x20 DUP2 ADD DUP5 DUP5 DUP5 ADD GT ISZERO PUSH2 0x18D JUMPI PUSH2 0x18C PUSH2 0x95 JUMP JUMPDEST JUMPDEST PUSH2 0x198 DUP5 DUP3 DUP6 PUSH2 0x151 JUMP JUMPDEST POP SWAP4 SWAP3 POP POP POP JUMP JUMPDEST PUSH0 DUP3 PUSH1 0x1F DUP4 ADD SLT PUSH2 0x1B4 JUMPI PUSH2 0x1B3 PUSH2 0x91 JUMP JUMPDEST JUMPDEST DUP2 CALLDATALOAD PUSH2 0x1C4 DUP5 DUP3 PUSH1 0x20 DUP7 ADD PUSH2 0x15F JUMP JUMPDEST SWAP2 POP POP SWAP3 SWAP2 POP POP JUMP JUMPDEST PUSH0 PUSH0 PUSH1 0x40 DUP4 DUP6 SUB SLT ISZERO PUSH2 0x1E3 JUMPI PUSH2 0x1E2 PUSH2 0x56 JUMP JUMPDEST JUMPDEST PUSH0 PUSH2 0x1F0 DUP6 DUP3 DUP7 ADD PUSH2 0x7D JUMP JUMPDEST SWAP3 POP POP PUSH1 0x20 DUP4 ADD CALLDATALOAD PUSH8 0xFFFFFFFFFFFFFFFF DUP2 GT ISZERO PUSH2 0x211 JUMPI PUSH2 0x210 PUSH2 0x5A JUMP JUMPDEST JUMPDEST PUSH2 0x21D DUP6 DUP3 DUP7 ADD PUSH2 0x1A0 JUMP JUMPDEST SWAP2 POP POP SWAP3 POP SWAP3 SWAP1 POP JUMP INVALID LOG2 PUSH5 0x6970667358 0x22 SLT KECCAK256 PUSH0 DUP6 DUP13 PUSH25 0x6F0E4E9F51FD844A007B42CF1B12C7092EC2B2CBEC8ACC257E 0xAB PUSH13 0xE964736F6C634300081E003300 "
		},
		"gasEstimates": {
			"creation": {
				"codeDepositCost": "121000",
				"executionCost": "163",
				"totalCost": "121163"
			},
			"external": {
				"ADicionar_tarefa(uint256,string)": "infinite"
			}
		},
		"methodIdentifiers": {
			"ADicionar_tarefa(uint256,string)": "6edfa2d2"
		}
	},
	"abi": [
		{
			"inputs": [
				{
					"internalType": "uint256",
					"name": "_di",
					"type": "uint256"
				},
				{
					"internalType": "string",
					"name": "_descricao",
					"type": "string"
				}
			],
			"name": "ADicionar_tarefa",
			"outputs": [],
			"stateMutability": "nonpayable",
			"type": "function"
		}
	]
}