{
  "contractName": "simples",
  "abi": [
    {
      "inputs": [],
      "name": "name",
      "outputs": [
        {
          "internalType": "string",
          "name": "",
          "type": "string"
        }
      ],
      "stateMutability": "view",
      "type": "function",
      "constant": true
    },
    {
      "inputs": [],
      "name": "getName",
      "outputs": [
        {
          "internalType": "string",
          "name": "",
          "type": "string"
        }
      ],
      "stateMutability": "view",
      "type": "function",
      "constant": true
    },
    {
      "inputs": [
        {
          "internalType": "string",
          "name": "_name",
          "type": "string"
        }
      ],
      "name": "setName",
      "outputs": [],
      "stateMutability": "nonpayable",
      "type": "function"
    },
    {
      "inputs": [],
      "name": "getIdade",
      "outputs": [
        {
          "internalType": "uint256",
          "name": "",
          "type": "uint256"
        }
      ],
      "stateMutability": "view",
      "type": "function",
      "constant": true
    },
    {
      "inputs": [
        {
          "internalType": "uint256",
          "name": "_idade",
          "type": "uint256"
        }
      ],
      "name": "setIdade",
      "outputs": [],
      "stateMutability": "nonpayable",
      "type": "function"
    }
  ],
  "bytecode": "0x608060405234801561001057600080fd5b5061081a806100206000396000f3fe608060405234801561001057600080fd5b50600436106100575760003560e01c806306fdde031461005c57806317d7de7c1461007a578063bba88a4f14610098578063c47f0027146100b4578063e9128f0a146100d0575b600080fd5b6100646100ee565b60405161007191906102c5565b60405180910390f35b61008261017c565b60405161008f91906102c5565b60405180910390f35b6100b260048036038101906100ad9190610331565b61020e565b005b6100ce60048036038101906100c99190610493565b610218565b005b6100d861022b565b6040516100e591906104eb565b60405180910390f35b600080546100fb90610535565b80601f016020809104026020016040519081016040528092919081815260200182805461012790610535565b80156101745780601f1061014957610100808354040283529160200191610174565b820191906000526020600020905b81548152906001019060200180831161015757829003601f168201915b505050505081565b60606000805461018b90610535565b80601f01602080910402602001604051908101604052809291908181526020018280546101b790610535565b80156102045780601f106101d957610100808354040283529160200191610204565b820191906000526020600020905b8154815290600101906020018083116101e757829003601f168201915b5050505050905090565b8060018190555050565b80600090816102279190610712565b5050565b6000600154905090565b600081519050919050565b600082825260208201905092915050565b60005b8381101561026f578082015181840152602081019050610254565b60008484015250505050565b6000601f19601f8301169050919050565b600061029782610235565b6102a18185610240565b93506102b1818560208601610251565b6102ba8161027b565b840191505092915050565b600060208201905081810360008301526102df818461028c565b905092915050565b6000604051905090565b600080fd5b600080fd5b6000819050919050565b61030e816102fb565b811461031957600080fd5b50565b60008135905061032b81610305565b92915050565b600060208284031215610347576103466102f1565b5b60006103558482850161031c565b91505092915050565b600080fd5b600080fd5b7f4e487b7100000000000000000000000000000000000000000000000000000000600052604160045260246000fd5b6103a08261027b565b810181811067ffffffffffffffff821117156103bf576103be610368565b5b80604052505050565b60006103d26102e7565b90506103de8282610397565b919050565b600067ffffffffffffffff8211156103fe576103fd610368565b5b6104078261027b565b9050602081019050919050565b82818337600083830152505050565b6000610436610431846103e3565b6103c8565b90508281526020810184848401111561045257610451610363565b5b61045d848285610414565b509392505050565b600082601f83011261047a5761047961035e565b5b813561048a848260208601610423565b91505092915050565b6000602082840312156104a9576104a86102f1565b5b600082013567ffffffffffffffff8111156104c7576104c66102f6565b5b6104d384828501610465565b91505092915050565b6104e5816102fb565b82525050565b600060208201905061050060008301846104dc565b92915050565b7f4e487b7100000000000000000000000000000000000000000000000000000000600052602260045260246000fd5b6000600282049050600182168061054d57607f821691505b6020821081036105605761055f610506565b5b50919050565b60008190508160005260206000209050919050565b60006020601f8301049050919050565b600082821b905092915050565b6000600883026105c87fffffffffffffffffffffffffffffffffffffffffffffffffffffffffffffffff8261058b565b6105d2868361058b565b95508019841693508086168417925050509392505050565b6000819050919050565b600061060f61060a610605846102fb565b6105ea565b6102fb565b9050919050565b6000819050919050565b610629836105f4565b61063d61063582610616565b848454610598565b825550505050565b600090565b610652610645565b61065d818484610620565b505050565b5b818110156106815761067660008261064a565b600181019050610663565b5050565b601f8211156106c65761069781610566565b6106a08461057b565b810160208510156106af578190505b6106c36106bb8561057b565b830182610662565b50505b505050565b600082821c905092915050565b60006106e9600019846008026106cb565b1980831691505092915050565b600061070283836106d8565b9150826002028217905092915050565b61071b82610235565b67ffffffffffffffff81111561073457610733610368565b5b61073e8254610535565b610749828285610685565b600060209050601f83116001811461077c576000841561076a578287015190505b61077485826106f6565b8655506107dc565b601f19841661078a86610566565b60005b828110156107b25784890151825560018201915060208501945060208101905061078d565b868310156107cf57848901516107cb601f8916826106d8565b8355505b6001600288020188555050505b50505050505056fea2646970667358221220e7c423db40233f3a94f6af23e2d28c7941e3d492228a8196193ecfcd321b36cc64736f6c63430008130033",
  "immutableReferences": {},
  "source": "// SPDX-License-Identifier: MIT \npragma solidity ^0.8.19;\n\ncontract simples{\n\n    string public name;\n    uint idade;\n\n    function getName() public view returns(string memory){\n        return name;\n    }\n\n    function setName(string memory _name) public {\n        name = _name;\n    }\n\n    function getIdade() public view returns(uint){\n        return idade;\n    }\n\n    function setIdade(uint _idade) public {\n        idade = _idade;\n    }\n}",
  "sourcePath": "/home/eryc/Documentos/GitHub/Estudos-sobre-Blockchian-Web3-Solidity/Progamação em Blockchain/aula-14/contracts/simples.sol",
  "compiler": {
    "name": "solc",
    "version": "0.8.19+commit.7dd6d404.Emscripten.clang"
  },
  "schemaVersion": "3.4.16",
  "updatedAt": "2026-02-24T20:27:50.041Z",
  "networkType": "ethereum",
  "devdoc": {
    "kind": "dev",
    "methods": {},
    "version": 1
  },
  "userdoc": {
    "kind": "user",
    "methods": {},
    "version": 1
  }
}