{
	"data": {
		"bytecode": {
			"linkReferences": {},
			"object": "6080604052348015600e575f5ffd5b50610a058061001c5f395ff3fe608060405234801561000f575f5ffd5b506004361061007b575f3560e01c80639371cfd8116100595780639371cfd8146100e7578063a0a429c5146100f1578063cb1473471461010d578063f63821541461013d5761007b565b80631cb214c01461007f578063520dab1a146100af5780635cd9413e146100cb575b5f5ffd5b610099600480360381019061009491906103bb565b61015b565b6040516100a69190610408565b60405180910390f35b6100c960048036038101906100c49190610421565b610191565b005b6100e560048036038101906100e09190610588565b6101da565b005b6100ef61020e565b005b61010b600480360381019061010691906105cf565b61023c565b005b61012760048036038101906101229190610421565b610269565b6040516101349190610689565b60405180910390f35b610145610314565b6040516101529190610408565b60405180910390f35b6001828154811061016a575f80fd5b905f5260205f2001818154811061017f575f80fd5b905f5260205f20015f91509150505481565b5f8054905081106101a0575f5ffd5b60405180602001604052805f8152505f82815481106101c2576101c16106a9565b5b905f5260205f200190816101d691906108d3565b5050565b5f81908060018154018082558091505060019003905f5260205f20015f90919091909150908161020a91906108d3565b5050565b5f80548061021f5761021e6109a2565b5b600190038181905f5260205f20015f610238919061031f565b9055565b805f83815481106102505761024f6106a9565b5b905f5260205f2001908161026491906108d3565b505050565b60605f828154811061027e5761027d6106a9565b5b905f5260205f2001805461029190610703565b80601f01602080910402602001604051908101604052809291908181526020018280546102bd90610703565b80156103085780601f106102df57610100808354040283529160200191610308565b820191905f5260205f20905b8154815290600101906020018083116102eb57829003601f168201915b50505050509050919050565b5f5f80549050905090565b50805461032b90610703565b5f825580601f1061033c5750610359565b601f0160209004905f5260205f2090810190610358919061035c565b5b50565b5b80821115610373575f815f90555060010161035d565b5090565b5f604051905090565b5f5ffd5b5f5ffd5b5f819050919050565b61039a81610388565b81146103a4575f5ffd5b50565b5f813590506103b581610391565b92915050565b5f5f604083850312156103d1576103d0610380565b5b5f6103de858286016103a7565b92505060206103ef858286016103a7565b9150509250929050565b61040281610388565b82525050565b5f60208201905061041b5f8301846103f9565b92915050565b5f6020828403121561043657610435610380565b5b5f610443848285016103a7565b91505092915050565b5f5ffd5b5f5ffd5b5f601f19601f8301169050919050565b7f4e487b71000000000000000000000000000000000000000000000000000000005f52604160045260245ffd5b61049a82610454565b810181811067ffffffffffffffff821117156104b9576104b8610464565b5b80604052505050565b5f6104cb610377565b90506104d78282610491565b919050565b5f67ffffffffffffffff8211156104f6576104f5610464565b5b6104ff82610454565b9050602081019050919050565b828183375f83830152505050565b5f61052c610527846104dc565b6104c2565b90508281526020810184848401111561054857610547610450565b5b61055384828561050c565b509392505050565b5f82601f83011261056f5761056e61044c565b5b813561057f84826020860161051a565b91505092915050565b5f6020828403121561059d5761059c610380565b5b5f82013567ffffffffffffffff8111156105ba576105b9610384565b5b6105c68482850161055b565b91505092915050565b5f5f604083850312156105e5576105e4610380565b5b5f6105f2858286016103a7565b925050602083013567ffffffffffffffff81111561061357610612610384565b5b61061f8582860161055b565b9150509250929050565b5f81519050919050565b5f82825260208201905092915050565b8281835e5f83830152505050565b5f61065b82610629565b6106658185610633565b9350610675818560208601610643565b61067e81610454565b840191505092915050565b5f6020820190508181035f8301526106a18184610651565b905092915050565b7f4e487b71000000000000000000000000000000000000000000000000000000005f52603260045260245ffd5b7f4e487b71000000000000000000000000000000000000000000000000000000005f52602260045260245ffd5b5f600282049050600182168061071a57607f821691505b60208210810361072d5761072c6106d6565b5b50919050565b5f819050815f5260205f209050919050565b5f6020601f8301049050919050565b5f82821b905092915050565b5f6008830261078f7fffffffffffffffffffffffffffffffffffffffffffffffffffffffffffffffff82610754565b6107998683610754565b95508019841693508086168417925050509392505050565b5f819050919050565b5f6107d46107cf6107ca84610388565b6107b1565b610388565b9050919050565b5f819050919050565b6107ed836107ba565b6108016107f9826107db565b848454610760565b825550505050565b5f5f905090565b610818610809565b6108238184846107e4565b505050565b5b818110156108465761083b5f82610810565b600181019050610829565b5050565b601f82111561088b5761085c81610733565b61086584610745565b81016020851015610874578190505b61088861088085610745565b830182610828565b50505b505050565b5f82821c905092915050565b5f6108ab5f1984600802610890565b1980831691505092915050565b5f6108c3838361089c565b9150826002028217905092915050565b6108dc82610629565b67ffffffffffffffff8111156108f5576108f4610464565b5b6108ff8254610703565b61090a82828561084a565b5f60209050601f83116001811461093b575f8415610929578287015190505b61093385826108b8565b86555061099a565b601f19841661094986610733565b5f5b828110156109705784890151825560018201915060208501945060208101905061094b565b8683101561098d5784890151610989601f89168261089c565b8355505b6001600288020188555050505b505050505050565b7f4e487b71000000000000000000000000000000000000000000000000000000005f52603160045260245ffdfea2646970667358221220d0b9042bd5c42cd9922d7ad5d0615477b7ca08716b201a8a6c4e01e3fd5672b964736f6c634300081e0033",
			"opcodes": "PUSH1 0x80 PUSH1 0x40 MSTORE CALLVALUE DUP1 ISZERO PUSH1 0xE JUMPI PUSH0 PUSH0 REVERT JUMPDEST POP PUSH2 0xA05 DUP1 PUSH2 0x1C PUSH0 CODECOPY PUSH0 RETURN INVALID PUSH1 0x80 PUSH1 0x40 MSTORE CALLVALUE DUP1 ISZERO PUSH2 0xF JUMPI PUSH0 PUSH0 REVERT JUMPDEST POP PUSH1 0x4 CALLDATASIZE LT PUSH2 0x7B JUMPI PUSH0 CALLDATALOAD PUSH1 0xE0 SHR DUP1 PUSH4 0x9371CFD8 GT PUSH2 0x59 JUMPI DUP1 PUSH4 0x9371CFD8 EQ PUSH2 0xE7 JUMPI DUP1 PUSH4 0xA0A429C5 EQ PUSH2 0xF1 JUMPI DUP1 PUSH4 0xCB147347 EQ PUSH2 0x10D JUMPI DUP1 PUSH4 0xF6382154 EQ PUSH2 0x13D JUMPI PUSH2 0x7B JUMP JUMPDEST DUP1 PUSH4 0x1CB214C0 EQ PUSH2 0x7F JUMPI DUP1 PUSH4 0x520DAB1A EQ PUSH2 0xAF JUMPI DUP1 PUSH4 0x5CD9413E EQ PUSH2 0xCB JUMPI JUMPDEST PUSH0 PUSH0 REVERT JUMPDEST PUSH2 0x99 PUSH1 0x4 DUP1 CALLDATASIZE SUB DUP2 ADD SWAP1 PUSH2 0x94 SWAP2 SWAP1 PUSH2 0x3BB JUMP JUMPDEST PUSH2 0x15B JUMP JUMPDEST PUSH1 0x40 MLOAD PUSH2 0xA6 SWAP2 SWAP1 PUSH2 0x408 JUMP JUMPDEST PUSH1 0x40 MLOAD DUP1 SWAP2 SUB SWAP1 RETURN JUMPDEST PUSH2 0xC9 PUSH1 0x4 DUP1 CALLDATASIZE SUB DUP2 ADD SWAP1 PUSH2 0xC4 SWAP2 SWAP1 PUSH2 0x421 JUMP JUMPDEST PUSH2 0x191 JUMP JUMPDEST STOP JUMPDEST PUSH2 0xE5 PUSH1 0x4 DUP1 CALLDATASIZE SUB DUP2 ADD SWAP1 PUSH2 0xE0 SWAP2 SWAP1 PUSH2 0x588 JUMP JUMPDEST PUSH2 0x1DA JUMP JUMPDEST STOP JUMPDEST PUSH2 0xEF PUSH2 0x20E JUMP JUMPDEST STOP JUMPDEST PUSH2 0x10B PUSH1 0x4 DUP1 CALLDATASIZE SUB DUP2 ADD SWAP1 PUSH2 0x106 SWAP2 SWAP1 PUSH2 0x5CF JUMP JUMPDEST PUSH2 0x23C JUMP JUMPDEST STOP JUMPDEST PUSH2 0x127 PUSH1 0x4 DUP1 CALLDATASIZE SUB DUP2 ADD SWAP1 PUSH2 0x122 SWAP2 SWAP1 PUSH2 0x421 JUMP JUMPDEST PUSH2 0x269 JUMP JUMPDEST PUSH1 0x40 MLOAD PUSH2 0x134 SWAP2 SWAP1 PUSH2 0x689 JUMP JUMPDEST PUSH1 0x40 MLOAD DUP1 SWAP2 SUB SWAP1 RETURN JUMPDEST PUSH2 0x145 PUSH2 0x314 JUMP JUMPDEST PUSH1 0x40 MLOAD PUSH2 0x152 SWAP2 SWAP1 PUSH2 0x408 JUMP JUMPDEST PUSH1 0x40 MLOAD DUP1 SWAP2 SUB SWAP1 RETURN JUMPDEST PUSH1 0x1 DUP3 DUP2 SLOAD DUP2 LT PUSH2 0x16A JUMPI PUSH0 DUP1 REVERT JUMPDEST SWAP1 PUSH0 MSTORE PUSH1 0x20 PUSH0 KECCAK256 ADD DUP2 DUP2 SLOAD DUP2 LT PUSH2 0x17F JUMPI PUSH0 DUP1 REVERT JUMPDEST SWAP1 PUSH0 MSTORE PUSH1 0x20 PUSH0 KECCAK256 ADD PUSH0 SWAP2 POP SWAP2 POP POP SLOAD DUP2 JUMP JUMPDEST PUSH0 DUP1 SLOAD SWAP1 POP DUP2 LT PUSH2 0x1A0 JUMPI PUSH0 PUSH0 REVERT JUMPDEST PUSH1 0x40 MLOAD DUP1 PUSH1 0x20 ADD PUSH1 0x40 MSTORE DUP1 PUSH0 DUP2 MSTORE POP PUSH0 DUP3 DUP2 SLOAD DUP2 LT PUSH2 0x1C2 JUMPI PUSH2 0x1C1 PUSH2 0x6A9 JUMP JUMPDEST JUMPDEST SWAP1 PUSH0 MSTORE PUSH1 0x20 PUSH0 KECCAK256 ADD SWAP1 DUP2 PUSH2 0x1D6 SWAP2 SWAP1 PUSH2 0x8D3 JUMP JUMPDEST POP POP JUMP JUMPDEST PUSH0 DUP2 SWAP1 DUP1 PUSH1 0x1 DUP2 SLOAD ADD DUP1 DUP3 SSTORE DUP1 SWAP2 POP POP PUSH1 0x1 SWAP1 SUB SWAP1 PUSH0 MSTORE PUSH1 0x20 PUSH0 KECCAK256 ADD PUSH0 SWAP1 SWAP2 SWAP1 SWAP2 SWAP1 SWAP2 POP SWAP1 DUP2 PUSH2 0x20A SWAP2 SWAP1 PUSH2 0x8D3 JUMP JUMPDEST POP POP JUMP JUMPDEST PUSH0 DUP1 SLOAD DUP1 PUSH2 0x21F JUMPI PUSH2 0x21E PUSH2 0x9A2 JUMP JUMPDEST JUMPDEST PUSH1 0x1 SWAP1 SUB DUP2 DUP2 SWAP1 PUSH0 MSTORE PUSH1 0x20 PUSH0 KECCAK256 ADD PUSH0 PUSH2 0x238 SWAP2 SWAP1 PUSH2 0x31F JUMP JUMPDEST SWAP1 SSTORE JUMP JUMPDEST DUP1 PUSH0 DUP4 DUP2 SLOAD DUP2 LT PUSH2 0x250 JUMPI PUSH2 0x24F PUSH2 0x6A9 JUMP JUMPDEST JUMPDEST SWAP1 PUSH0 MSTORE PUSH1 0x20 PUSH0 KECCAK256 ADD SWAP1 DUP2 PUSH2 0x264 SWAP2 SWAP1 PUSH2 0x8D3 JUMP JUMPDEST POP POP POP JUMP JUMPDEST PUSH1 0x60 PUSH0 DUP3 DUP2 SLOAD DUP2 LT PUSH2 0x27E JUMPI PUSH2 0x27D PUSH2 0x6A9 JUMP JUMPDEST JUMPDEST SWAP1 PUSH0 MSTORE PUSH1 0x20 PUSH0 KECCAK256 ADD DUP1 SLOAD PUSH2 0x291 SWAP1 PUSH2 0x703 JUMP JUMPDEST DUP1 PUSH1 0x1F ADD PUSH1 0x20 DUP1 SWAP2 DIV MUL PUSH1 0x20 ADD PUSH1 0x40 MLOAD SWAP1 DUP2 ADD PUSH1 0x40 MSTORE DUP1 SWAP3 SWAP2 SWAP1 DUP2 DUP2 MSTORE PUSH1 0x20 ADD DUP3 DUP1 SLOAD PUSH2 0x2BD SWAP1 PUSH2 0x703 JUMP JUMPDEST DUP1 ISZERO PUSH2 0x308 JUMPI DUP1 PUSH1 0x1F LT PUSH2 0x2DF JUMPI PUSH2 0x100 DUP1 DUP4 SLOAD DIV MUL DUP4 MSTORE SWAP2 PUSH1 0x20 ADD SWAP2 PUSH2 0x308 JUMP JUMPDEST DUP3 ADD SWAP2 SWAP1 PUSH0 MSTORE PUSH1 0x20 PUSH0 KECCAK256 SWAP1 JUMPDEST DUP2 SLOAD DUP2 MSTORE SWAP1 PUSH1 0x1 ADD SWAP1 PUSH1 0x20 ADD DUP1 DUP4 GT PUSH2 0x2EB JUMPI DUP3 SWAP1 SUB PUSH1 0x1F AND DUP3 ADD SWAP2 JUMPDEST POP POP POP POP POP SWAP1 POP SWAP2 SWAP1 POP JUMP JUMPDEST PUSH0 PUSH0 DUP1 SLOAD SWAP1 POP SWAP1 POP SWAP1 JUMP JUMPDEST POP DUP1 SLOAD PUSH2 0x32B SWAP1 PUSH2 0x703 JUMP JUMPDEST PUSH0 DUP3 SSTORE DUP1 PUSH1 0x1F LT PUSH2 0x33C JUMPI POP PUSH2 0x359 JUMP JUMPDEST PUSH1 0x1F ADD PUSH1 0x20 SWAP1 DIV SWAP1 PUSH0 MSTORE PUSH1 0x20 PUSH0 KECCAK256 SWAP1 DUP2 ADD SWAP1 PUSH2 0x358 SWAP2 SWAP1 PUSH2 0x35C JUMP JUMPDEST JUMPDEST POP JUMP JUMPDEST JUMPDEST DUP1 DUP3 GT ISZERO PUSH2 0x373 JUMPI PUSH0 DUP2 PUSH0 SWAP1 SSTORE POP PUSH1 0x1 ADD PUSH2 0x35D JUMP JUMPDEST POP SWAP1 JUMP JUMPDEST PUSH0 PUSH1 0x40 MLOAD SWAP1 POP SWAP1 JUMP JUMPDEST PUSH0 PUSH0 REVERT JUMPDEST PUSH0 PUSH0 REVERT JUMPDEST PUSH0 DUP2 SWAP1 POP SWAP2 SWAP1 POP JUMP JUMPDEST PUSH2 0x39A DUP2 PUSH2 0x388 JUMP JUMPDEST DUP2 EQ PUSH2 0x3A4 JUMPI PUSH0 PUSH0 REVERT JUMPDEST POP JUMP JUMPDEST PUSH0 DUP2 CALLDATALOAD SWAP1 POP PUSH2 0x3B5 DUP2 PUSH2 0x391 JUMP JUMPDEST SWAP3 SWAP2 POP POP JUMP JUMPDEST PUSH0 PUSH0 PUSH1 0x40 DUP4 DUP6 SUB SLT ISZERO PUSH2 0x3D1 JUMPI PUSH2 0x3D0 PUSH2 0x380 JUMP JUMPDEST JUMPDEST PUSH0 PUSH2 0x3DE DUP6 DUP3 DUP7 ADD PUSH2 0x3A7 JUMP JUMPDEST SWAP3 POP POP PUSH1 0x20 PUSH2 0x3EF DUP6 DUP3 DUP7 ADD PUSH2 0x3A7 JUMP JUMPDEST SWAP2 POP POP SWAP3 POP SWAP3 SWAP1 POP JUMP JUMPDEST PUSH2 0x402 DUP2 PUSH2 0x388 JUMP JUMPDEST DUP3 MSTORE POP POP JUMP JUMPDEST PUSH0 PUSH1 0x20 DUP3 ADD SWAP1 POP PUSH2 0x41B PUSH0 DUP4 ADD DUP5 PUSH2 0x3F9 JUMP JUMPDEST SWAP3 SWAP2 POP POP JUMP JUMPDEST PUSH0 PUSH1 0x20 DUP3 DUP5 SUB SLT ISZERO PUSH2 0x436 JUMPI PUSH2 0x435 PUSH2 0x380 JUMP JUMPDEST JUMPDEST PUSH0 PUSH2 0x443 DUP5 DUP3 DUP6 ADD PUSH2 0x3A7 JUMP JUMPDEST SWAP2 POP POP SWAP3 SWAP2 POP POP JUMP JUMPDEST PUSH0 PUSH0 REVERT JUMPDEST PUSH0 PUSH0 REVERT JUMPDEST PUSH0 PUSH1 0x1F NOT PUSH1 0x1F DUP4 ADD AND SWAP1 POP SWAP2 SWAP1 POP JUMP JUMPDEST PUSH32 0x4E487B7100000000000000000000000000000000000000000000000000000000 PUSH0 MSTORE PUSH1 0x41 PUSH1 0x4 MSTORE PUSH1 0x24 PUSH0 REVERT JUMPDEST PUSH2 0x49A DUP3 PUSH2 0x454 JUMP JUMPDEST DUP2 ADD DUP2 DUP2 LT PUSH8 0xFFFFFFFFFFFFFFFF DUP3 GT OR ISZERO PUSH2 0x4B9 JUMPI PUSH2 0x4B8 PUSH2 0x464 JUMP JUMPDEST JUMPDEST DUP1 PUSH1 0x40 MSTORE POP POP POP JUMP JUMPDEST PUSH0 PUSH2 0x4CB PUSH2 0x377 JUMP JUMPDEST SWAP1 POP PUSH2 0x4D7 DUP3 DUP3 PUSH2 0x491 JUMP JUMPDEST SWAP2 SWAP1 POP JUMP JUMPDEST PUSH0 PUSH8 0xFFFFFFFFFFFFFFFF DUP3 GT ISZERO PUSH2 0x4F6 JUMPI PUSH2 0x4F5 PUSH2 0x464 JUMP JUMPDEST JUMPDEST PUSH2 0x4FF DUP3 PUSH2 0x454 JUMP JUMPDEST SWAP1 POP PUSH1 0x20 DUP2 ADD SWAP1 POP SWAP2 SWAP1 POP JUMP JUMPDEST DUP3 DUP2 DUP4 CALLDATACOPY PUSH0 DUP4 DUP4 ADD MSTORE POP POP POP JUMP JUMPDEST PUSH0 PUSH2 0x52C PUSH2 0x527 DUP5 PUSH2 0x4DC JUMP JUMPDEST PUSH2 0x4C2 JUMP JUMPDEST SWAP1 POP DUP3 DUP2 MSTORE PUSH1 0x20 DUP2 ADD DUP5 DUP5 DUP5 ADD GT ISZERO PUSH2 0x548 JUMPI PUSH2 0x547 PUSH2 0x450 JUMP JUMPDEST JUMPDEST PUSH2 0x553 DUP5 DUP3 DUP6 PUSH2 0x50C JUMP JUMPDEST POP SWAP4 SWAP3 POP POP POP JUMP JUMPDEST PUSH0 DUP3 PUSH1 0x1F DUP4 ADD SLT PUSH2 0x56F JUMPI PUSH2 0x56E PUSH2 0x44C JUMP JUMPDEST JUMPDEST DUP2 CALLDATALOAD PUSH2 0x57F DUP5 DUP3 PUSH1 0x20 DUP7 ADD PUSH2 0x51A JUMP JUMPDEST SWAP2 POP POP SWAP3 SWAP2 POP POP JUMP JUMPDEST PUSH0 PUSH1 0x20 DUP3 DUP5 SUB SLT ISZERO PUSH2 0x59D JUMPI PUSH2 0x59C PUSH2 0x380 JUMP JUMPDEST JUMPDEST PUSH0 DUP3 ADD CALLDATALOAD PUSH8 0xFFFFFFFFFFFFFFFF DUP2 GT ISZERO PUSH2 0x5BA JUMPI PUSH2 0x5B9 PUSH2 0x384 JUMP JUMPDEST JUMPDEST PUSH2 0x5C6 DUP5 DUP3 DUP6 ADD PUSH2 0x55B JUMP JUMPDEST SWAP2 POP POP SWAP3 SWAP2 POP POP JUMP JUMPDEST PUSH0 PUSH0 PUSH1 0x40 DUP4 DUP6 SUB SLT ISZERO PUSH2 0x5E5 JUMPI PUSH2 0x5E4 PUSH2 0x380 JUMP JUMPDEST JUMPDEST PUSH0 PUSH2 0x5F2 DUP6 DUP3 DUP7 ADD PUSH2 0x3A7 JUMP JUMPDEST SWAP3 POP POP PUSH1 0x20 DUP4 ADD CALLDATALOAD PUSH8 0xFFFFFFFFFFFFFFFF DUP2 GT ISZERO PUSH2 0x613 JUMPI PUSH2 0x612 PUSH2 0x384 JUMP JUMPDEST JUMPDEST PUSH2 0x61F DUP6 DUP3 DUP7 ADD PUSH2 0x55B JUMP JUMPDEST SWAP2 POP POP SWAP3 POP SWAP3 SWAP1 POP JUMP JUMPDEST PUSH0 DUP2 MLOAD SWAP1 POP SWAP2 SWAP1 POP JUMP JUMPDEST PUSH0 DUP3 DUP3 MSTORE PUSH1 0x20 DUP3 ADD SWAP1 POP SWAP3 SWAP2 POP POP JUMP JUMPDEST DUP3 DUP2 DUP4 MCOPY PUSH0 DUP4 DUP4 ADD MSTORE POP POP POP JUMP JUMPDEST PUSH0 PUSH2 0x65B DUP3 PUSH2 0x629 JUMP JUMPDEST PUSH2 0x665 DUP2 DUP6 PUSH2 0x633 JUMP JUMPDEST SWAP4 POP PUSH2 0x675 DUP2 DUP6 PUSH1 0x20 DUP7 ADD PUSH2 0x643 JUMP JUMPDEST PUSH2 0x67E DUP2 PUSH2 0x454 JUMP JUMPDEST DUP5 ADD SWAP2 POP POP SWAP3 SWAP2 POP POP JUMP JUMPDEST PUSH0 PUSH1 0x20 DUP3 ADD SWAP1 POP DUP2 DUP2 SUB PUSH0 DUP4 ADD MSTORE PUSH2 0x6A1 DUP2 DUP5 PUSH2 0x651 JUMP JUMPDEST SWAP1 POP SWAP3 SWAP2 POP POP JUMP JUMPDEST PUSH32 0x4E487B7100000000000000000000000000000000000000000000000000000000 PUSH0 MSTORE PUSH1 0x32 PUSH1 0x4 MSTORE PUSH1 0x24 PUSH0 REVERT JUMPDEST PUSH32 0x4E487B7100000000000000000000000000000000000000000000000000000000 PUSH0 MSTORE PUSH1 0x22 PUSH1 0x4 MSTORE PUSH1 0x24 PUSH0 REVERT JUMPDEST PUSH0 PUSH1 0x2 DUP3 DIV SWAP1 POP PUSH1 0x1 DUP3 AND DUP1 PUSH2 0x71A JUMPI PUSH1 0x7F DUP3 AND SWAP2 POP JUMPDEST PUSH1 0x20 DUP3 LT DUP2 SUB PUSH2 0x72D JUMPI PUSH2 0x72C PUSH2 0x6D6 JUMP JUMPDEST JUMPDEST POP SWAP2 SWAP1 POP JUMP JUMPDEST PUSH0 DUP2 SWAP1 POP DUP2 PUSH0 MSTORE PUSH1 0x20 PUSH0 KECCAK256 SWAP1 POP SWAP2 SWAP1 POP JUMP JUMPDEST PUSH0 PUSH1 0x20 PUSH1 0x1F DUP4 ADD DIV SWAP1 POP SWAP2 SWAP1 POP JUMP JUMPDEST PUSH0 DUP3 DUP3 SHL SWAP1 POP SWAP3 SWAP2 POP POP JUMP JUMPDEST PUSH0 PUSH1 0x8 DUP4 MUL PUSH2 0x78F PUSH32 0xFFFFFFFFFFFFFFFFFFFFFFFFFFFFFFFFFFFFFFFFFFFFFFFFFFFFFFFFFFFFFFFF DUP3 PUSH2 0x754 JUMP JUMPDEST PUSH2 0x799 DUP7 DUP4 PUSH2 0x754 JUMP JUMPDEST SWAP6 POP DUP1 NOT DUP5 AND SWAP4 POP DUP1 DUP7 AND DUP5 OR SWAP3 POP POP POP SWAP4 SWAP3 POP POP POP JUMP JUMPDEST PUSH0 DUP2 SWAP1 POP SWAP2 SWAP1 POP JUMP JUMPDEST PUSH0 PUSH2 0x7D4 PUSH2 0x7CF PUSH2 0x7CA DUP5 PUSH2 0x388 JUMP JUMPDEST PUSH2 0x7B1 JUMP JUMPDEST PUSH2 0x388 JUMP JUMPDEST SWAP1 POP SWAP2 SWAP1 POP JUMP JUMPDEST PUSH0 DUP2 SWAP1 POP SWAP2 SWAP1 POP JUMP JUMPDEST PUSH2 0x7ED DUP4 PUSH2 0x7BA JUMP JUMPDEST PUSH2 0x801 PUSH2 0x7F9 DUP3 PUSH2 0x7DB JUMP JUMPDEST DUP5 DUP5 SLOAD PUSH2 0x760 JUMP JUMPDEST DUP3 SSTORE POP POP POP POP JUMP JUMPDEST PUSH0 PUSH0 SWAP1 POP SWAP1 JUMP JUMPDEST PUSH2 0x818 PUSH2 0x809 JUMP JUMPDEST PUSH2 0x823 DUP2 DUP5 DUP5 PUSH2 0x7E4 JUMP JUMPDEST POP POP POP JUMP JUMPDEST JUMPDEST DUP2 DUP2 LT ISZERO PUSH2 0x846 JUMPI PUSH2 0x83B PUSH0 DUP3 PUSH2 0x810 JUMP JUMPDEST PUSH1 0x1 DUP2 ADD SWAP1 POP PUSH2 0x829 JUMP JUMPDEST POP POP JUMP JUMPDEST PUSH1 0x1F DUP3 GT ISZERO PUSH2 0x88B JUMPI PUSH2 0x85C DUP2 PUSH2 0x733 JUMP JUMPDEST PUSH2 0x865 DUP5 PUSH2 0x745 JUMP JUMPDEST DUP2 ADD PUSH1 0x20 DUP6 LT ISZERO PUSH2 0x874 JUMPI DUP2 SWAP1 POP JUMPDEST PUSH2 0x888 PUSH2 0x880 DUP6 PUSH2 0x745 JUMP JUMPDEST DUP4 ADD DUP3 PUSH2 0x828 JUMP JUMPDEST POP POP JUMPDEST POP POP POP JUMP JUMPDEST PUSH0 DUP3 DUP3 SHR SWAP1 POP SWAP3 SWAP2 POP POP JUMP JUMPDEST PUSH0 PUSH2 0x8AB PUSH0 NOT DUP5 PUSH1 0x8 MUL PUSH2 0x890 JUMP JUMPDEST NOT DUP1 DUP4 AND SWAP2 POP POP SWAP3 SWAP2 POP POP JUMP JUMPDEST PUSH0 PUSH2 0x8C3 DUP4 DUP4 PUSH2 0x89C JUMP JUMPDEST SWAP2 POP DUP3 PUSH1 0x2 MUL DUP3 OR SWAP1 POP SWAP3 SWAP2 POP POP JUMP JUMPDEST PUSH2 0x8DC DUP3 PUSH2 0x629 JUMP JUMPDEST PUSH8 0xFFFFFFFFFFFFFFFF DUP2 GT ISZERO PUSH2 0x8F5 JUMPI PUSH2 0x8F4 PUSH2 0x464 JUMP JUMPDEST JUMPDEST PUSH2 0x8FF DUP3 SLOAD PUSH2 0x703 JUMP JUMPDEST PUSH2 0x90A DUP3 DUP3 DUP6 PUSH2 0x84A JUMP JUMPDEST PUSH0 PUSH1 0x20 SWAP1 POP PUSH1 0x1F DUP4 GT PUSH1 0x1 DUP2 EQ PUSH2 0x93B JUMPI PUSH0 DUP5 ISZERO PUSH2 0x929 JUMPI DUP3 DUP8 ADD MLOAD SWAP1 POP JUMPDEST PUSH2 0x933 DUP6 DUP3 PUSH2 0x8B8 JUMP JUMPDEST DUP7 SSTORE POP PUSH2 0x99A JUMP JUMPDEST PUSH1 0x1F NOT DUP5 AND PUSH2 0x949 DUP7 PUSH2 0x733 JUMP JUMPDEST PUSH0 JUMPDEST DUP3 DUP2 LT ISZERO PUSH2 0x970 JUMPI DUP5 DUP10 ADD MLOAD DUP3 SSTORE PUSH1 0x1 DUP3 ADD SWAP2 POP PUSH1 0x20 DUP6 ADD SWAP5 POP PUSH1 0x20 DUP2 ADD SWAP1 POP PUSH2 0x94B JUMP JUMPDEST DUP7 DUP4 LT ISZERO PUSH2 0x98D JUMPI DUP5 DUP10 ADD MLOAD PUSH2 0x989 PUSH1 0x1F DUP10 AND DUP3 PUSH2 0x89C JUMP JUMPDEST DUP4 SSTORE POP JUMPDEST PUSH1 0x1 PUSH1 0x2 DUP9 MUL ADD DUP9 SSTORE POP POP POP JUMPDEST POP POP POP POP POP POP JUMP JUMPDEST PUSH32 0x4E487B7100000000000000000000000000000000000000000000000000000000 PUSH0 MSTORE PUSH1 0x31 PUSH1 0x4 MSTORE PUSH1 0x24 PUSH0 REVERT INVALID LOG2 PUSH5 0x6970667358 0x22 SLT KECCAK256 0xD0 0xB9 DIV 0x2B 0xD5 0xC4 0x2C 0xD9 SWAP3 0x2D PUSH27 0xD5D0615477B7CA08716B201A8A6C4E01E3FD5672B964736F6C6343 STOP ADDMOD 0x1E STOP CALLER "
		},
		"gasEstimates": {
			"creation": {
				"codeDepositCost": "513000",
				"executionCost": "547",
				"totalCost": "513547"
			},
			"external": {
				"AdicionarNome(string)": "infinite",
				"EscolherRemocao(uint256)": "infinite",
				"RemoverNome()": "infinite",
				"Tammanhhooarray()": "2505",
				"TrocarNome(uint256,string)": "infinite",
				"getNome(uint256)": "infinite",
				"pessoa(uint256,uint256)": "infinite"
			}
		},
		"methodIdentifiers": {
			"AdicionarNome(string)": "5cd9413e",
			"EscolherRemocao(uint256)": "520dab1a",
			"RemoverNome()": "9371cfd8",
			"Tammanhhooarray()": "f6382154",
			"TrocarNome(uint256,string)": "a0a429c5",
			"getNome(uint256)": "cb147347",
			"pessoa(uint256,uint256)": "1cb214c0"
		}
	},
	"abi": [
		{
			"inputs": [
				{
					"internalType": "string",
					"name": "_nome",
					"type": "string"
				}
			],
			"name": "AdicionarNome",
			"outputs": [],
			"stateMutability": "nonpayable",
			"type": "function"
		},
		{
			"inputs": [
				{
					"internalType": "uint256",
					"name": "_indice",
					"type": "uint256"
				}
			],
			"name": "EscolherRemocao",
			"outputs": [],
			"stateMutability": "nonpayable",
			"type": "function"
		},
		{
			"inputs": [],
			"name": "RemoverNome",
			"outputs": [],
			"stateMutability": "nonpayable",
			"type": "function"
		},
		{
			"inputs": [],
			"name": "Tammanhhooarray",
			"outputs": [
				{
					"internalType": "uint256",
					"name": "",
					"type": "uint256"
				}
			],
			"stateMutability": "view",
			"type": "function"
		},
		{
			"inputs": [
				{
					"internalType": "uint256",
					"name": "indice",
					"type": "uint256"
				},
				{
					"internalType": "string",
					"name": "novonome",
					"type": "string"
				}
			],
			"name": "TrocarNome",
			"outputs": [],
			"stateMutability": "nonpayable",
			"type": "function"
		},
		{
			"inputs": [
				{
					"internalType": "uint256",
					"name": "indice",
					"type": "uint256"
				}
			],
			"name": "getNome",
			"outputs": [
				{
					"internalType": "string",
					"name": "",
					"type": "string"
				}
			],
			"stateMutability": "view",
			"type": "function"
		},
		{
			"inputs": [
				{
					"internalType": "uint256",
					"name": "",
					"type": "uint256"
				},
				{
					"internalType": "uint256",
					"name": "",
					"type": "uint256"
				}
			],
			"name": "pessoa",
			"outputs": [
				{
					"internalType": "uint256",
					"name": "",
					"type": "uint256"
				}
			],
			"stateMutability": "view",
			"type": "function"
		}
	]
}