{
	"data": {
		"bytecode": {
			"linkReferences": {},
			"object": "60806040525f5f553480156011575f5ffd5b506105f58061001f5f395ff3fe608060405234801561000f575f5ffd5b506004361061004a575f3560e01c806329803b211461004e5780632bc977731461007f57806344b6f21c1461009b5780637c141f0a146100b9575b5f5ffd5b610068600480360381019061006391906102d9565b6100ea565b6040516100769291906103e9565b60405180910390f35b6100996004803603810190610094919061044a565b61013e565b005b6100a3610147565b6040516100b09190610484565b60405180910390f35b6100d360048036038101906100ce919061049d565b61014f565b6040516100e19291906104db565b60405180910390f35b60605f838360405160200161010092919061053c565b6040516020818303038152906040525f357fffffffff0000000000000000000000000000000000000000000000000000000016915091509250929050565b805f8190555050565b5f5f54905090565b5f5f828461015d919061058c565b5f357fffffffff0000000000000000000000000000000000000000000000000000000016915091509250929050565b5f604051905090565b5f5ffd5b5f5ffd5b5f5ffd5b5f5ffd5b5f601f19601f8301169050919050565b7f4e487b71000000000000000000000000000000000000000000000000000000005f52604160045260245ffd5b6101eb826101a5565b810181811067ffffffffffffffff8211171561020a576102096101b5565b5b80604052505050565b5f61021c61018c565b905061022882826101e2565b919050565b5f67ffffffffffffffff821115610247576102466101b5565b5b610250826101a5565b9050602081019050919050565b828183375f83830152505050565b5f61027d6102788461022d565b610213565b905082815260208101848484011115610299576102986101a1565b5b6102a484828561025d565b509392505050565b5f82601f8301126102c0576102bf61019d565b5b81356102d084826020860161026b565b91505092915050565b5f5f604083850312156102ef576102ee610195565b5b5f83013567ffffffffffffffff81111561030c5761030b610199565b5b610318858286016102ac565b925050602083013567ffffffffffffffff81111561033957610338610199565b5b610345858286016102ac565b9150509250929050565b5f81519050919050565b5f82825260208201905092915050565b8281835e5f83830152505050565b5f6103818261034f565b61038b8185610359565b935061039b818560208601610369565b6103a4816101a5565b840191505092915050565b5f7fffffffff0000000000000000000000000000000000000000000000000000000082169050919050565b6103e3816103af565b82525050565b5f6040820190508181035f8301526104018185610377565b905061041060208301846103da565b9392505050565b5f819050919050565b61042981610417565b8114610433575f5ffd5b50565b5f8135905061044481610420565b92915050565b5f6020828403121561045f5761045e610195565b5b5f61046c84828501610436565b91505092915050565b61047e81610417565b82525050565b5f6020820190506104975f830184610475565b92915050565b5f5f604083850312156104b3576104b2610195565b5b5f6104c085828601610436565b92505060206104d185828601610436565b9150509250929050565b5f6040820190506104ee5f830185610475565b6104fb60208301846103da565b9392505050565b5f81905092915050565b5f6105168261034f565b6105208185610502565b9350610530818560208601610369565b80840191505092915050565b5f610547828561050c565b9150610553828461050c565b91508190509392505050565b7f4e487b71000000000000000000000000000000000000000000000000000000005f52601160045260245ffd5b5f61059682610417565b91506105a183610417565b92508282019050808211156105b9576105b861055f565b5b9291505056fea2646970667358221220a62eaf8dade64aa216d6d07ae2c094b3574e7fe4f7186cdb03d20d01af5c273864736f6c634300081e0033",
			"opcodes": "PUSH1 0x80 PUSH1 0x40 MSTORE PUSH0 PUSH0 SSTORE CALLVALUE DUP1 ISZERO PUSH1 0x11 JUMPI PUSH0 PUSH0 REVERT JUMPDEST POP PUSH2 0x5F5 DUP1 PUSH2 0x1F PUSH0 CODECOPY PUSH0 RETURN INVALID PUSH1 0x80 PUSH1 0x40 MSTORE CALLVALUE DUP1 ISZERO PUSH2 0xF JUMPI PUSH0 PUSH0 REVERT JUMPDEST POP PUSH1 0x4 CALLDATASIZE LT PUSH2 0x4A JUMPI PUSH0 CALLDATALOAD PUSH1 0xE0 SHR DUP1 PUSH4 0x29803B21 EQ PUSH2 0x4E JUMPI DUP1 PUSH4 0x2BC97773 EQ PUSH2 0x7F JUMPI DUP1 PUSH4 0x44B6F21C EQ PUSH2 0x9B JUMPI DUP1 PUSH4 0x7C141F0A EQ PUSH2 0xB9 JUMPI JUMPDEST PUSH0 PUSH0 REVERT JUMPDEST PUSH2 0x68 PUSH1 0x4 DUP1 CALLDATASIZE SUB DUP2 ADD SWAP1 PUSH2 0x63 SWAP2 SWAP1 PUSH2 0x2D9 JUMP JUMPDEST PUSH2 0xEA JUMP JUMPDEST PUSH1 0x40 MLOAD PUSH2 0x76 SWAP3 SWAP2 SWAP1 PUSH2 0x3E9 JUMP JUMPDEST PUSH1 0x40 MLOAD DUP1 SWAP2 SUB SWAP1 RETURN JUMPDEST PUSH2 0x99 PUSH1 0x4 DUP1 CALLDATASIZE SUB DUP2 ADD SWAP1 PUSH2 0x94 SWAP2 SWAP1 PUSH2 0x44A JUMP JUMPDEST PUSH2 0x13E JUMP JUMPDEST STOP JUMPDEST PUSH2 0xA3 PUSH2 0x147 JUMP JUMPDEST PUSH1 0x40 MLOAD PUSH2 0xB0 SWAP2 SWAP1 PUSH2 0x484 JUMP JUMPDEST PUSH1 0x40 MLOAD DUP1 SWAP2 SUB SWAP1 RETURN JUMPDEST PUSH2 0xD3 PUSH1 0x4 DUP1 CALLDATASIZE SUB DUP2 ADD SWAP1 PUSH2 0xCE SWAP2 SWAP1 PUSH2 0x49D JUMP JUMPDEST PUSH2 0x14F JUMP JUMPDEST PUSH1 0x40 MLOAD PUSH2 0xE1 SWAP3 SWAP2 SWAP1 PUSH2 0x4DB JUMP JUMPDEST PUSH1 0x40 MLOAD DUP1 SWAP2 SUB SWAP1 RETURN JUMPDEST PUSH1 0x60 PUSH0 DUP4 DUP4 PUSH1 0x40 MLOAD PUSH1 0x20 ADD PUSH2 0x100 SWAP3 SWAP2 SWAP1 PUSH2 0x53C JUMP JUMPDEST PUSH1 0x40 MLOAD PUSH1 0x20 DUP2 DUP4 SUB SUB DUP2 MSTORE SWAP1 PUSH1 0x40 MSTORE PUSH0 CALLDATALOAD PUSH32 0xFFFFFFFF00000000000000000000000000000000000000000000000000000000 AND SWAP2 POP SWAP2 POP SWAP3 POP SWAP3 SWAP1 POP JUMP JUMPDEST DUP1 PUSH0 DUP2 SWAP1 SSTORE POP POP JUMP JUMPDEST PUSH0 PUSH0 SLOAD SWAP1 POP SWAP1 JUMP JUMPDEST PUSH0 PUSH0 DUP3 DUP5 PUSH2 0x15D SWAP2 SWAP1 PUSH2 0x58C JUMP JUMPDEST PUSH0 CALLDATALOAD PUSH32 0xFFFFFFFF00000000000000000000000000000000000000000000000000000000 AND SWAP2 POP SWAP2 POP SWAP3 POP SWAP3 SWAP1 POP JUMP JUMPDEST PUSH0 PUSH1 0x40 MLOAD SWAP1 POP SWAP1 JUMP JUMPDEST PUSH0 PUSH0 REVERT JUMPDEST PUSH0 PUSH0 REVERT JUMPDEST PUSH0 PUSH0 REVERT JUMPDEST PUSH0 PUSH0 REVERT JUMPDEST PUSH0 PUSH1 0x1F NOT PUSH1 0x1F DUP4 ADD AND SWAP1 POP SWAP2 SWAP1 POP JUMP JUMPDEST PUSH32 0x4E487B7100000000000000000000000000000000000000000000000000000000 PUSH0 MSTORE PUSH1 0x41 PUSH1 0x4 MSTORE PUSH1 0x24 PUSH0 REVERT JUMPDEST PUSH2 0x1EB DUP3 PUSH2 0x1A5 JUMP JUMPDEST DUP2 ADD DUP2 DUP2 LT PUSH8 0xFFFFFFFFFFFFFFFF DUP3 GT OR ISZERO PUSH2 0x20A JUMPI PUSH2 0x209 PUSH2 0x1B5 JUMP JUMPDEST JUMPDEST DUP1 PUSH1 0x40 MSTORE POP POP POP JUMP JUMPDEST PUSH0 PUSH2 0x21C PUSH2 0x18C JUMP JUMPDEST SWAP1 POP PUSH2 0x228 DUP3 DUP3 PUSH2 0x1E2 JUMP JUMPDEST SWAP2 SWAP1 POP JUMP JUMPDEST PUSH0 PUSH8 0xFFFFFFFFFFFFFFFF DUP3 GT ISZERO PUSH2 0x247 JUMPI PUSH2 0x246 PUSH2 0x1B5 JUMP JUMPDEST JUMPDEST PUSH2 0x250 DUP3 PUSH2 0x1A5 JUMP JUMPDEST SWAP1 POP PUSH1 0x20 DUP2 ADD SWAP1 POP SWAP2 SWAP1 POP JUMP JUMPDEST DUP3 DUP2 DUP4 CALLDATACOPY PUSH0 DUP4 DUP4 ADD MSTORE POP POP POP JUMP JUMPDEST PUSH0 PUSH2 0x27D PUSH2 0x278 DUP5 PUSH2 0x22D JUMP JUMPDEST PUSH2 0x213 JUMP JUMPDEST SWAP1 POP DUP3 DUP2 MSTORE PUSH1 0x20 DUP2 ADD DUP5 DUP5 DUP5 ADD GT ISZERO PUSH2 0x299 JUMPI PUSH2 0x298 PUSH2 0x1A1 JUMP JUMPDEST JUMPDEST PUSH2 0x2A4 DUP5 DUP3 DUP6 PUSH2 0x25D JUMP JUMPDEST POP SWAP4 SWAP3 POP POP POP JUMP JUMPDEST PUSH0 DUP3 PUSH1 0x1F DUP4 ADD SLT PUSH2 0x2C0 JUMPI PUSH2 0x2BF PUSH2 0x19D JUMP JUMPDEST JUMPDEST DUP2 CALLDATALOAD PUSH2 0x2D0 DUP5 DUP3 PUSH1 0x20 DUP7 ADD PUSH2 0x26B JUMP JUMPDEST SWAP2 POP POP SWAP3 SWAP2 POP POP JUMP JUMPDEST PUSH0 PUSH0 PUSH1 0x40 DUP4 DUP6 SUB SLT ISZERO PUSH2 0x2EF JUMPI PUSH2 0x2EE PUSH2 0x195 JUMP JUMPDEST JUMPDEST PUSH0 DUP4 ADD CALLDATALOAD PUSH8 0xFFFFFFFFFFFFFFFF DUP2 GT ISZERO PUSH2 0x30C JUMPI PUSH2 0x30B PUSH2 0x199 JUMP JUMPDEST JUMPDEST PUSH2 0x318 DUP6 DUP3 DUP7 ADD PUSH2 0x2AC JUMP JUMPDEST SWAP3 POP POP PUSH1 0x20 DUP4 ADD CALLDATALOAD PUSH8 0xFFFFFFFFFFFFFFFF DUP2 GT ISZERO PUSH2 0x339 JUMPI PUSH2 0x338 PUSH2 0x199 JUMP JUMPDEST JUMPDEST PUSH2 0x345 DUP6 DUP3 DUP7 ADD PUSH2 0x2AC JUMP JUMPDEST SWAP2 POP POP SWAP3 POP SWAP3 SWAP1 POP JUMP JUMPDEST PUSH0 DUP2 MLOAD SWAP1 POP SWAP2 SWAP1 POP JUMP JUMPDEST PUSH0 DUP3 DUP3 MSTORE PUSH1 0x20 DUP3 ADD SWAP1 POP SWAP3 SWAP2 POP POP JUMP JUMPDEST DUP3 DUP2 DUP4 MCOPY PUSH0 DUP4 DUP4 ADD MSTORE POP POP POP JUMP JUMPDEST PUSH0 PUSH2 0x381 DUP3 PUSH2 0x34F JUMP JUMPDEST PUSH2 0x38B DUP2 DUP6 PUSH2 0x359 JUMP JUMPDEST SWAP4 POP PUSH2 0x39B DUP2 DUP6 PUSH1 0x20 DUP7 ADD PUSH2 0x369 JUMP JUMPDEST PUSH2 0x3A4 DUP2 PUSH2 0x1A5 JUMP JUMPDEST DUP5 ADD SWAP2 POP POP SWAP3 SWAP2 POP POP JUMP JUMPDEST PUSH0 PUSH32 0xFFFFFFFF00000000000000000000000000000000000000000000000000000000 DUP3 AND SWAP1 POP SWAP2 SWAP1 POP JUMP JUMPDEST PUSH2 0x3E3 DUP2 PUSH2 0x3AF JUMP JUMPDEST DUP3 MSTORE POP POP JUMP JUMPDEST PUSH0 PUSH1 0x40 DUP3 ADD SWAP1 POP DUP2 DUP2 SUB PUSH0 DUP4 ADD MSTORE PUSH2 0x401 DUP2 DUP6 PUSH2 0x377 JUMP JUMPDEST SWAP1 POP PUSH2 0x410 PUSH1 0x20 DUP4 ADD DUP5 PUSH2 0x3DA JUMP JUMPDEST SWAP4 SWAP3 POP POP POP JUMP JUMPDEST PUSH0 DUP2 SWAP1 POP SWAP2 SWAP1 POP JUMP JUMPDEST PUSH2 0x429 DUP2 PUSH2 0x417 JUMP JUMPDEST DUP2 EQ PUSH2 0x433 JUMPI PUSH0 PUSH0 REVERT JUMPDEST POP JUMP JUMPDEST PUSH0 DUP2 CALLDATALOAD SWAP1 POP PUSH2 0x444 DUP2 PUSH2 0x420 JUMP JUMPDEST SWAP3 SWAP2 POP POP JUMP JUMPDEST PUSH0 PUSH1 0x20 DUP3 DUP5 SUB SLT ISZERO PUSH2 0x45F JUMPI PUSH2 0x45E PUSH2 0x195 JUMP JUMPDEST JUMPDEST PUSH0 PUSH2 0x46C DUP5 DUP3 DUP6 ADD PUSH2 0x436 JUMP JUMPDEST SWAP2 POP POP SWAP3 SWAP2 POP POP JUMP JUMPDEST PUSH2 0x47E DUP2 PUSH2 0x417 JUMP JUMPDEST DUP3 MSTORE POP POP JUMP JUMPDEST PUSH0 PUSH1 0x20 DUP3 ADD SWAP1 POP PUSH2 0x497 PUSH0 DUP4 ADD DUP5 PUSH2 0x475 JUMP JUMPDEST SWAP3 SWAP2 POP POP JUMP JUMPDEST PUSH0 PUSH0 PUSH1 0x40 DUP4 DUP6 SUB SLT ISZERO PUSH2 0x4B3 JUMPI PUSH2 0x4B2 PUSH2 0x195 JUMP JUMPDEST JUMPDEST PUSH0 PUSH2 0x4C0 DUP6 DUP3 DUP7 ADD PUSH2 0x436 JUMP JUMPDEST SWAP3 POP POP PUSH1 0x20 PUSH2 0x4D1 DUP6 DUP3 DUP7 ADD PUSH2 0x436 JUMP JUMPDEST SWAP2 POP POP SWAP3 POP SWAP3 SWAP1 POP JUMP JUMPDEST PUSH0 PUSH1 0x40 DUP3 ADD SWAP1 POP PUSH2 0x4EE PUSH0 DUP4 ADD DUP6 PUSH2 0x475 JUMP JUMPDEST PUSH2 0x4FB PUSH1 0x20 DUP4 ADD DUP5 PUSH2 0x3DA JUMP JUMPDEST SWAP4 SWAP3 POP POP POP JUMP JUMPDEST PUSH0 DUP2 SWAP1 POP SWAP3 SWAP2 POP POP JUMP JUMPDEST PUSH0 PUSH2 0x516 DUP3 PUSH2 0x34F JUMP JUMPDEST PUSH2 0x520 DUP2 DUP6 PUSH2 0x502 JUMP JUMPDEST SWAP4 POP PUSH2 0x530 DUP2 DUP6 PUSH1 0x20 DUP7 ADD PUSH2 0x369 JUMP JUMPDEST DUP1 DUP5 ADD SWAP2 POP POP SWAP3 SWAP2 POP POP JUMP JUMPDEST PUSH0 PUSH2 0x547 DUP3 DUP6 PUSH2 0x50C JUMP JUMPDEST SWAP2 POP PUSH2 0x553 DUP3 DUP5 PUSH2 0x50C JUMP JUMPDEST SWAP2 POP DUP2 SWAP1 POP SWAP4 SWAP3 POP POP POP JUMP JUMPDEST PUSH32 0x4E487B7100000000000000000000000000000000000000000000000000000000 PUSH0 MSTORE PUSH1 0x11 PUSH1 0x4 MSTORE PUSH1 0x24 PUSH0 REVERT JUMPDEST PUSH0 PUSH2 0x596 DUP3 PUSH2 0x417 JUMP JUMPDEST SWAP2 POP PUSH2 0x5A1 DUP4 PUSH2 0x417 JUMP JUMPDEST SWAP3 POP DUP3 DUP3 ADD SWAP1 POP DUP1 DUP3 GT ISZERO PUSH2 0x5B9 JUMPI PUSH2 0x5B8 PUSH2 0x55F JUMP JUMPDEST JUMPDEST SWAP3 SWAP2 POP POP JUMP INVALID LOG2 PUSH5 0x6970667358 0x22 SLT KECCAK256 0xA6 0x2E 0xAF DUP14 0xAD DUPN 0x4A LOG2 AND 0xD6 0xD0 PUSH27 0xE2C094B3574E7FE4F7186CDB03D20D01AF5C273864736F6C634300 ADDMOD 0x1E STOP CALLER "
		},
		"gasEstimates": {
			"creation": {
				"codeDepositCost": "305000",
				"executionCost": "5345",
				"totalCost": "310345"
			},
			"external": {
				"Soma(uint256,uint256)": "infinite",
				"alteraNumero(uint256)": "22514",
				"join(string,string)": "infinite",
				"pegarNumero()": "2453"
			}
		},
		"methodIdentifiers": {
			"Soma(uint256,uint256)": "7c141f0a",
			"alteraNumero(uint256)": "2bc97773",
			"join(string,string)": "29803b21",
			"pegarNumero()": "44b6f21c"
		}
	},
	"abi": [
		{
			"inputs": [
				{
					"internalType": "uint256",
					"name": "_x",
					"type": "uint256"
				},
				{
					"internalType": "uint256",
					"name": "_y",
					"type": "uint256"
				}
			],
			"name": "Soma",
			"outputs": [
				{
					"internalType": "uint256",
					"name": "",
					"type": "uint256"
				},
				{
					"internalType": "bytes4",
					"name": "",
					"type": "bytes4"
				}
			],
			"stateMutability": "pure",
			"type": "function"
		},
		{
			"inputs": [
				{
					"internalType": "uint256",
					"name": "_numero",
					"type": "uint256"
				}
			],
			"name": "alteraNumero",
			"outputs": [],
			"stateMutability": "nonpayable",
			"type": "function"
		},
		{
			"inputs": [
				{
					"internalType": "string",
					"name": "first",
					"type": "string"
				},
				{
					"internalType": "string",
					"name": "last",
					"type": "string"
				}
			],
			"name": "join",
			"outputs": [
				{
					"internalType": "string",
					"name": "",
					"type": "string"
				},
				{
					"internalType": "bytes4",
					"name": "",
					"type": "bytes4"
				}
			],
			"stateMutability": "pure",
			"type": "function"
		},
		{
			"inputs": [],
			"name": "pegarNumero",
			"outputs": [
				{
					"internalType": "uint256",
					"name": "",
					"type": "uint256"
				}
			],
			"stateMutability": "view",
			"type": "function"
		}
	]
}