{
	"data": {
		"bytecode": {
			"linkReferences": {},
			"object": "6080604052731c91347f2a44538ce62453bebd9aa907c662b4bd5f5f6101000a81548173ffffffffffffffffffffffffffffffffffffffff021916908373ffffffffffffffffffffffffffffffffffffffff1602179055503480156061575f5ffd5b506102d58061006f5f395ff3fe608060405234801561000f575f5ffd5b5060043610610029575f3560e01c8063e598992d1461002d575b5f5ffd5b610047600480360381019061004291906101d1565b610049565b005b8173ffffffffffffffffffffffffffffffffffffffff1681604051602401610071919061021e565b6040516020818303038152906040527f428706be000000000000000000000000000000000000000000000000000000007bffffffffffffffffffffffffffffffffffffffffffffffffffffffff19166020820180517bffffffffffffffffffffffffffffffffffffffffffffffffffffffff83818316178352505050506040516100fb9190610289565b5f604051808303815f865af19150503d805f8114610134576040519150601f19603f3d011682016040523d82523d5f602084013e610139565b606091505b5050505050565b5f5ffd5b5f73ffffffffffffffffffffffffffffffffffffffff82169050919050565b5f61016d82610144565b9050919050565b61017d81610163565b8114610187575f5ffd5b50565b5f8135905061019881610174565b92915050565b5f819050919050565b6101b08161019e565b81146101ba575f5ffd5b50565b5f813590506101cb816101a7565b92915050565b5f5f604083850312156101e7576101e6610140565b5b5f6101f48582860161018a565b9250506020610205858286016101bd565b9150509250929050565b6102188161019e565b82525050565b5f6020820190506102315f83018461020f565b92915050565b5f81519050919050565b5f81905092915050565b8281835e5f83830152505050565b5f61026382610237565b61026d8185610241565b935061027d81856020860161024b565b80840191505092915050565b5f6102948284610259565b91508190509291505056fea26469706673582212209ebad0c098e7d99ce7d5ef534d7efe79088f72c6a2e6cfae7348ee1b6e0967ae64736f6c634300081e0033",
			"opcodes": "PUSH1 0x80 PUSH1 0x40 MSTORE PUSH20 0x1C91347F2A44538CE62453BEBD9AA907C662B4BD PUSH0 PUSH0 PUSH2 0x100 EXP DUP2 SLOAD DUP2 PUSH20 0xFFFFFFFFFFFFFFFFFFFFFFFFFFFFFFFFFFFFFFFF MUL NOT AND SWAP1 DUP4 PUSH20 0xFFFFFFFFFFFFFFFFFFFFFFFFFFFFFFFFFFFFFFFF AND MUL OR SWAP1 SSTORE POP CALLVALUE DUP1 ISZERO PUSH1 0x61 JUMPI PUSH0 PUSH0 REVERT JUMPDEST POP PUSH2 0x2D5 DUP1 PUSH2 0x6F PUSH0 CODECOPY PUSH0 RETURN INVALID PUSH1 0x80 PUSH1 0x40 MSTORE CALLVALUE DUP1 ISZERO PUSH2 0xF JUMPI PUSH0 PUSH0 REVERT JUMPDEST POP PUSH1 0x4 CALLDATASIZE LT PUSH2 0x29 JUMPI PUSH0 CALLDATALOAD PUSH1 0xE0 SHR DUP1 PUSH4 0xE598992D EQ PUSH2 0x2D JUMPI JUMPDEST PUSH0 PUSH0 REVERT JUMPDEST PUSH2 0x47 PUSH1 0x4 DUP1 CALLDATASIZE SUB DUP2 ADD SWAP1 PUSH2 0x42 SWAP2 SWAP1 PUSH2 0x1D1 JUMP JUMPDEST PUSH2 0x49 JUMP JUMPDEST STOP JUMPDEST DUP2 PUSH20 0xFFFFFFFFFFFFFFFFFFFFFFFFFFFFFFFFFFFFFFFF AND DUP2 PUSH1 0x40 MLOAD PUSH1 0x24 ADD PUSH2 0x71 SWAP2 SWAP1 PUSH2 0x21E JUMP JUMPDEST PUSH1 0x40 MLOAD PUSH1 0x20 DUP2 DUP4 SUB SUB DUP2 MSTORE SWAP1 PUSH1 0x40 MSTORE PUSH32 0x428706BE00000000000000000000000000000000000000000000000000000000 PUSH28 0xFFFFFFFFFFFFFFFFFFFFFFFFFFFFFFFFFFFFFFFFFFFFFFFFFFFFFFFF NOT AND PUSH1 0x20 DUP3 ADD DUP1 MLOAD PUSH28 0xFFFFFFFFFFFFFFFFFFFFFFFFFFFFFFFFFFFFFFFFFFFFFFFFFFFFFFFF DUP4 DUP2 DUP4 AND OR DUP4 MSTORE POP POP POP POP PUSH1 0x40 MLOAD PUSH2 0xFB SWAP2 SWAP1 PUSH2 0x289 JUMP JUMPDEST PUSH0 PUSH1 0x40 MLOAD DUP1 DUP4 SUB DUP2 PUSH0 DUP7 GAS CALL SWAP2 POP POP RETURNDATASIZE DUP1 PUSH0 DUP2 EQ PUSH2 0x134 JUMPI PUSH1 0x40 MLOAD SWAP2 POP PUSH1 0x1F NOT PUSH1 0x3F RETURNDATASIZE ADD AND DUP3 ADD PUSH1 0x40 MSTORE RETURNDATASIZE DUP3 MSTORE RETURNDATASIZE PUSH0 PUSH1 0x20 DUP5 ADD RETURNDATACOPY PUSH2 0x139 JUMP JUMPDEST PUSH1 0x60 SWAP2 POP JUMPDEST POP POP POP POP POP JUMP JUMPDEST PUSH0 PUSH0 REVERT JUMPDEST PUSH0 PUSH20 0xFFFFFFFFFFFFFFFFFFFFFFFFFFFFFFFFFFFFFFFF DUP3 AND SWAP1 POP SWAP2 SWAP1 POP JUMP JUMPDEST PUSH0 PUSH2 0x16D DUP3 PUSH2 0x144 JUMP JUMPDEST SWAP1 POP SWAP2 SWAP1 POP JUMP JUMPDEST PUSH2 0x17D DUP2 PUSH2 0x163 JUMP JUMPDEST DUP2 EQ PUSH2 0x187 JUMPI PUSH0 PUSH0 REVERT JUMPDEST POP JUMP JUMPDEST PUSH0 DUP2 CALLDATALOAD SWAP1 POP PUSH2 0x198 DUP2 PUSH2 0x174 JUMP JUMPDEST SWAP3 SWAP2 POP POP JUMP JUMPDEST PUSH0 DUP2 SWAP1 POP SWAP2 SWAP1 POP JUMP JUMPDEST PUSH2 0x1B0 DUP2 PUSH2 0x19E JUMP JUMPDEST DUP2 EQ PUSH2 0x1BA JUMPI PUSH0 PUSH0 REVERT JUMPDEST POP JUMP JUMPDEST PUSH0 DUP2 CALLDATALOAD SWAP1 POP PUSH2 0x1CB DUP2 PUSH2 0x1A7 JUMP JUMPDEST SWAP3 SWAP2 POP POP JUMP JUMPDEST PUSH0 PUSH0 PUSH1 0x40 DUP4 DUP6 SUB SLT ISZERO PUSH2 0x1E7 JUMPI PUSH2 0x1E6 PUSH2 0x140 JUMP JUMPDEST JUMPDEST PUSH0 PUSH2 0x1F4 DUP6 DUP3 DUP7 ADD PUSH2 0x18A JUMP JUMPDEST SWAP3 POP POP PUSH1 0x20 PUSH2 0x205 DUP6 DUP3 DUP7 ADD PUSH2 0x1BD JUMP JUMPDEST SWAP2 POP POP SWAP3 POP SWAP3 SWAP1 POP JUMP JUMPDEST PUSH2 0x218 DUP2 PUSH2 0x19E JUMP JUMPDEST DUP3 MSTORE POP POP JUMP JUMPDEST PUSH0 PUSH1 0x20 DUP3 ADD SWAP1 POP PUSH2 0x231 PUSH0 DUP4 ADD DUP5 PUSH2 0x20F JUMP JUMPDEST SWAP3 SWAP2 POP POP JUMP JUMPDEST PUSH0 DUP2 MLOAD SWAP1 POP SWAP2 SWAP1 POP JUMP JUMPDEST PUSH0 DUP2 SWAP1 POP SWAP3 SWAP2 POP POP JUMP JUMPDEST DUP3 DUP2 DUP4 MCOPY PUSH0 DUP4 DUP4 ADD MSTORE POP POP POP JUMP JUMPDEST PUSH0 PUSH2 0x263 DUP3 PUSH2 0x237 JUMP JUMPDEST PUSH2 0x26D DUP2 DUP6 PUSH2 0x241 JUMP JUMPDEST SWAP4 POP PUSH2 0x27D DUP2 DUP6 PUSH1 0x20 DUP7 ADD PUSH2 0x24B JUMP JUMPDEST DUP1 DUP5 ADD SWAP2 POP POP SWAP3 SWAP2 POP POP JUMP JUMPDEST PUSH0 PUSH2 0x294 DUP3 DUP5 PUSH2 0x259 JUMP JUMPDEST SWAP2 POP DUP2 SWAP1 POP SWAP3 SWAP2 POP POP JUMP INVALID LOG2 PUSH5 0x6970667358 0x22 SLT KECCAK256 SWAP15 0xBA 0xD0 0xC0 SWAP9 SWAPN 0xD9 SWAP13 SWAPN 0xD5 0xEF MSTORE8 0x4D PUSH31 0xFE79088F72C6A2E6CFAE7348EE1B6E0967AE64736F6C634300081E00330000 "
		},
		"gasEstimates": {
			"creation": {
				"codeDepositCost": "145000",
				"executionCost": "24453",
				"totalCost": "169453"
			},
			"external": {
				"callsetValor(address,uint256)": "infinite"
			}
		},
		"methodIdentifiers": {
			"callsetValor(address,uint256)": "e598992d"
		}
	},
	"abi": [
		{
			"inputs": [
				{
					"internalType": "address",
					"name": "endereco",
					"type": "address"
				},
				{
					"internalType": "uint256",
					"name": "_valor",
					"type": "uint256"
				}
			],
			"name": "callsetValor",
			"outputs": [],
			"stateMutability": "nonpayable",
			"type": "function"
		}
	]
}