{
	"data": {
		"bytecode": {
			"linkReferences": {},
			"object": "6080604052348015600e575f5ffd5b506107618061001c5f395ff3fe608060405234801561000f575f5ffd5b506004361061003f575f3560e01c80637a7cbf9314610043578063bd14598f14610061578063e5c5e9a31461007f575b5f5ffd5b61004b6100b2565b604051610058919061020c565b60405180910390f35b610069610148565b604051610076919061020c565b60405180910390f35b6100996004803603810190610094919061029e565b610177565b6040516100a9949392919061036d565b60405180910390f35b606060056040516024016100c69190610405565b6040516020818303038152906040527fab5c1601000000000000000000000000000000000000000000000000000000007bffffffffffffffffffffffffffffffffffffffffffffffffffffffff19166020820180517bffffffffffffffffffffffffffffffffffffffffffffffffffffffff8381831617835250505050905090565b60606107e960146001604051602001610163939291906104e7565b604051602081830303815290604052905090565b5f5f60605f858581019061018b91906106ab565b935093509350935092959194509250565b5f81519050919050565b5f82825260208201905092915050565b8281835e5f83830152505050565b5f601f19601f8301169050919050565b5f6101de8261019c565b6101e881856101a6565b93506101f88185602086016101b6565b610201816101c4565b840191505092915050565b5f6020820190508181035f83015261022481846101d4565b905092915050565b5f604051905090565b5f5ffd5b5f5ffd5b5f5ffd5b5f5ffd5b5f5ffd5b5f5f83601f84011261025e5761025d61023d565b5b8235905067ffffffffffffffff81111561027b5761027a610241565b5b60208301915083600182028301111561029757610296610245565b5b9250929050565b5f5f602083850312156102b4576102b3610235565b5b5f83013567ffffffffffffffff8111156102d1576102d0610239565b5b6102dd85828601610249565b92509250509250929050565b5f819050919050565b6102fb816102e9565b82525050565b5f81519050919050565b5f82825260208201905092915050565b5f61032582610301565b61032f818561030b565b935061033f8185602086016101b6565b610348816101c4565b840191505092915050565b5f8115159050919050565b61036781610353565b82525050565b5f6080820190506103805f8301876102f2565b61038d60208301866102f2565b818103604083015261039f818561031b565b90506103ae606083018461035e565b95945050505050565b5f819050919050565b5f60ff82169050919050565b5f819050919050565b5f6103ef6103ea6103e5846103b7565b6103cc565b6103c0565b9050919050565b6103ff816103d5565b82525050565b5f6020820190506104185f8301846103f6565b92915050565b5f819050919050565b5f61ffff82169050919050565b5f61044e6104496104448461041e565b6103cc565b610427565b9050919050565b61045e81610434565b82525050565b5f819050919050565b5f61048761048261047d84610464565b6103cc565b6103c0565b9050919050565b6104978161046d565b82525050565b7f45727963000000000000000000000000000000000000000000000000000000005f82015250565b5f6104d160048361030b565b91506104dc8261049d565b602082019050919050565b5f6080820190506104fa5f830186610455565b610507602083018561048e565b8181036040830152610518816104c5565b9050610527606083018461035e565b949350505050565b610538816102e9565b8114610542575f5ffd5b50565b5f813590506105538161052f565b92915050565b5f5ffd5b7f4e487b71000000000000000000000000000000000000000000000000000000005f52604160045260245ffd5b610593826101c4565b810181811067ffffffffffffffff821117156105b2576105b161055d565b5b80604052505050565b5f6105c461022c565b90506105d0828261058a565b919050565b5f67ffffffffffffffff8211156105ef576105ee61055d565b5b6105f8826101c4565b9050602081019050919050565b828183375f83830152505050565b5f610625610620846105d5565b6105bb565b90508281526020810184848401111561064157610640610559565b5b61064c848285610605565b509392505050565b5f82601f8301126106685761066761023d565b5b8135610678848260208601610613565b91505092915050565b61068a81610353565b8114610694575f5ffd5b50565b5f813590506106a581610681565b92915050565b5f5f5f5f608085870312156106c3576106c2610235565b5b5f6106d087828801610545565b94505060206106e187828801610545565b935050604085013567ffffffffffffffff81111561070257610701610239565b5b61070e87828801610654565b925050606061071f87828801610697565b9150509295919450925056fea264697066735822122093491e3a820ea49f7bfbd37717306ed68395feea7d0d205e614c1e9446bce3ff64736f6c634300081e0033",
			"opcodes": "PUSH1 0x80 PUSH1 0x40 MSTORE CALLVALUE DUP1 ISZERO PUSH1 0xE JUMPI PUSH0 PUSH0 REVERT JUMPDEST POP PUSH2 0x761 DUP1 PUSH2 0x1C PUSH0 CODECOPY PUSH0 RETURN INVALID PUSH1 0x80 PUSH1 0x40 MSTORE CALLVALUE DUP1 ISZERO PUSH2 0xF JUMPI PUSH0 PUSH0 REVERT JUMPDEST POP PUSH1 0x4 CALLDATASIZE LT PUSH2 0x3F JUMPI PUSH0 CALLDATALOAD PUSH1 0xE0 SHR DUP1 PUSH4 0x7A7CBF93 EQ PUSH2 0x43 JUMPI DUP1 PUSH4 0xBD14598F EQ PUSH2 0x61 JUMPI DUP1 PUSH4 0xE5C5E9A3 EQ PUSH2 0x7F JUMPI JUMPDEST PUSH0 PUSH0 REVERT JUMPDEST PUSH2 0x4B PUSH2 0xB2 JUMP JUMPDEST PUSH1 0x40 MLOAD PUSH2 0x58 SWAP2 SWAP1 PUSH2 0x20C JUMP JUMPDEST PUSH1 0x40 MLOAD DUP1 SWAP2 SUB SWAP1 RETURN JUMPDEST PUSH2 0x69 PUSH2 0x148 JUMP JUMPDEST PUSH1 0x40 MLOAD PUSH2 0x76 SWAP2 SWAP1 PUSH2 0x20C JUMP JUMPDEST PUSH1 0x40 MLOAD DUP1 SWAP2 SUB SWAP1 RETURN JUMPDEST PUSH2 0x99 PUSH1 0x4 DUP1 CALLDATASIZE SUB DUP2 ADD SWAP1 PUSH2 0x94 SWAP2 SWAP1 PUSH2 0x29E JUMP JUMPDEST PUSH2 0x177 JUMP JUMPDEST PUSH1 0x40 MLOAD PUSH2 0xA9 SWAP5 SWAP4 SWAP3 SWAP2 SWAP1 PUSH2 0x36D JUMP JUMPDEST PUSH1 0x40 MLOAD DUP1 SWAP2 SUB SWAP1 RETURN JUMPDEST PUSH1 0x60 PUSH1 0x5 PUSH1 0x40 MLOAD PUSH1 0x24 ADD PUSH2 0xC6 SWAP2 SWAP1 PUSH2 0x405 JUMP JUMPDEST PUSH1 0x40 MLOAD PUSH1 0x20 DUP2 DUP4 SUB SUB DUP2 MSTORE SWAP1 PUSH1 0x40 MSTORE PUSH32 0xAB5C160100000000000000000000000000000000000000000000000000000000 PUSH28 0xFFFFFFFFFFFFFFFFFFFFFFFFFFFFFFFFFFFFFFFFFFFFFFFFFFFFFFFF NOT AND PUSH1 0x20 DUP3 ADD DUP1 MLOAD PUSH28 0xFFFFFFFFFFFFFFFFFFFFFFFFFFFFFFFFFFFFFFFFFFFFFFFFFFFFFFFF DUP4 DUP2 DUP4 AND OR DUP4 MSTORE POP POP POP POP SWAP1 POP SWAP1 JUMP JUMPDEST PUSH1 0x60 PUSH2 0x7E9 PUSH1 0x14 PUSH1 0x1 PUSH1 0x40 MLOAD PUSH1 0x20 ADD PUSH2 0x163 SWAP4 SWAP3 SWAP2 SWAP1 PUSH2 0x4E7 JUMP JUMPDEST PUSH1 0x40 MLOAD PUSH1 0x20 DUP2 DUP4 SUB SUB DUP2 MSTORE SWAP1 PUSH1 0x40 MSTORE SWAP1 POP SWAP1 JUMP JUMPDEST PUSH0 PUSH0 PUSH1 0x60 PUSH0 DUP6 DUP6 DUP2 ADD SWAP1 PUSH2 0x18B SWAP2 SWAP1 PUSH2 0x6AB JUMP JUMPDEST SWAP4 POP SWAP4 POP SWAP4 POP SWAP4 POP SWAP3 SWAP6 SWAP2 SWAP5 POP SWAP3 POP JUMP JUMPDEST PUSH0 DUP2 MLOAD SWAP1 POP SWAP2 SWAP1 POP JUMP JUMPDEST PUSH0 DUP3 DUP3 MSTORE PUSH1 0x20 DUP3 ADD SWAP1 POP SWAP3 SWAP2 POP POP JUMP JUMPDEST DUP3 DUP2 DUP4 MCOPY PUSH0 DUP4 DUP4 ADD MSTORE POP POP POP JUMP JUMPDEST PUSH0 PUSH1 0x1F NOT PUSH1 0x1F DUP4 ADD AND SWAP1 POP SWAP2 SWAP1 POP JUMP JUMPDEST PUSH0 PUSH2 0x1DE DUP3 PUSH2 0x19C JUMP JUMPDEST PUSH2 0x1E8 DUP2 DUP6 PUSH2 0x1A6 JUMP JUMPDEST SWAP4 POP PUSH2 0x1F8 DUP2 DUP6 PUSH1 0x20 DUP7 ADD PUSH2 0x1B6 JUMP JUMPDEST PUSH2 0x201 DUP2 PUSH2 0x1C4 JUMP JUMPDEST DUP5 ADD SWAP2 POP POP SWAP3 SWAP2 POP POP JUMP JUMPDEST PUSH0 PUSH1 0x20 DUP3 ADD SWAP1 POP DUP2 DUP2 SUB PUSH0 DUP4 ADD MSTORE PUSH2 0x224 DUP2 DUP5 PUSH2 0x1D4 JUMP JUMPDEST SWAP1 POP SWAP3 SWAP2 POP POP JUMP JUMPDEST PUSH0 PUSH1 0x40 MLOAD SWAP1 POP SWAP1 JUMP JUMPDEST PUSH0 PUSH0 REVERT JUMPDEST PUSH0 PUSH0 REVERT JUMPDEST PUSH0 PUSH0 REVERT JUMPDEST PUSH0 PUSH0 REVERT JUMPDEST PUSH0 PUSH0 REVERT JUMPDEST PUSH0 PUSH0 DUP4 PUSH1 0x1F DUP5 ADD SLT PUSH2 0x25E JUMPI PUSH2 0x25D PUSH2 0x23D JUMP JUMPDEST JUMPDEST DUP3 CALLDATALOAD SWAP1 POP PUSH8 0xFFFFFFFFFFFFFFFF DUP2 GT ISZERO PUSH2 0x27B JUMPI PUSH2 0x27A PUSH2 0x241 JUMP JUMPDEST JUMPDEST PUSH1 0x20 DUP4 ADD SWAP2 POP DUP4 PUSH1 0x1 DUP3 MUL DUP4 ADD GT ISZERO PUSH2 0x297 JUMPI PUSH2 0x296 PUSH2 0x245 JUMP JUMPDEST JUMPDEST SWAP3 POP SWAP3 SWAP1 POP JUMP JUMPDEST PUSH0 PUSH0 PUSH1 0x20 DUP4 DUP6 SUB SLT ISZERO PUSH2 0x2B4 JUMPI PUSH2 0x2B3 PUSH2 0x235 JUMP JUMPDEST JUMPDEST PUSH0 DUP4 ADD CALLDATALOAD PUSH8 0xFFFFFFFFFFFFFFFF DUP2 GT ISZERO PUSH2 0x2D1 JUMPI PUSH2 0x2D0 PUSH2 0x239 JUMP JUMPDEST JUMPDEST PUSH2 0x2DD DUP6 DUP3 DUP7 ADD PUSH2 0x249 JUMP JUMPDEST SWAP3 POP SWAP3 POP POP SWAP3 POP SWAP3 SWAP1 POP JUMP JUMPDEST PUSH0 DUP2 SWAP1 POP SWAP2 SWAP1 POP JUMP JUMPDEST PUSH2 0x2FB DUP2 PUSH2 0x2E9 JUMP JUMPDEST DUP3 MSTORE POP POP JUMP JUMPDEST PUSH0 DUP2 MLOAD SWAP1 POP SWAP2 SWAP1 POP JUMP JUMPDEST PUSH0 DUP3 DUP3 MSTORE PUSH1 0x20 DUP3 ADD SWAP1 POP SWAP3 SWAP2 POP POP JUMP JUMPDEST PUSH0 PUSH2 0x325 DUP3 PUSH2 0x301 JUMP JUMPDEST PUSH2 0x32F DUP2 DUP6 PUSH2 0x30B JUMP JUMPDEST SWAP4 POP PUSH2 0x33F DUP2 DUP6 PUSH1 0x20 DUP7 ADD PUSH2 0x1B6 JUMP JUMPDEST PUSH2 0x348 DUP2 PUSH2 0x1C4 JUMP JUMPDEST DUP5 ADD SWAP2 POP POP SWAP3 SWAP2 POP POP JUMP JUMPDEST PUSH0 DUP2 ISZERO ISZERO SWAP1 POP SWAP2 SWAP1 POP JUMP JUMPDEST PUSH2 0x367 DUP2 PUSH2 0x353 JUMP JUMPDEST DUP3 MSTORE POP POP JUMP JUMPDEST PUSH0 PUSH1 0x80 DUP3 ADD SWAP1 POP PUSH2 0x380 PUSH0 DUP4 ADD DUP8 PUSH2 0x2F2 JUMP JUMPDEST PUSH2 0x38D PUSH1 0x20 DUP4 ADD DUP7 PUSH2 0x2F2 JUMP JUMPDEST DUP2 DUP2 SUB PUSH1 0x40 DUP4 ADD MSTORE PUSH2 0x39F DUP2 DUP6 PUSH2 0x31B JUMP JUMPDEST SWAP1 POP PUSH2 0x3AE PUSH1 0x60 DUP4 ADD DUP5 PUSH2 0x35E JUMP JUMPDEST SWAP6 SWAP5 POP POP POP POP POP JUMP JUMPDEST PUSH0 DUP2 SWAP1 POP SWAP2 SWAP1 POP JUMP JUMPDEST PUSH0 PUSH1 0xFF DUP3 AND SWAP1 POP SWAP2 SWAP1 POP JUMP JUMPDEST PUSH0 DUP2 SWAP1 POP SWAP2 SWAP1 POP JUMP JUMPDEST PUSH0 PUSH2 0x3EF PUSH2 0x3EA PUSH2 0x3E5 DUP5 PUSH2 0x3B7 JUMP JUMPDEST PUSH2 0x3CC JUMP JUMPDEST PUSH2 0x3C0 JUMP JUMPDEST SWAP1 POP SWAP2 SWAP1 POP JUMP JUMPDEST PUSH2 0x3FF DUP2 PUSH2 0x3D5 JUMP JUMPDEST DUP3 MSTORE POP POP JUMP JUMPDEST PUSH0 PUSH1 0x20 DUP3 ADD SWAP1 POP PUSH2 0x418 PUSH0 DUP4 ADD DUP5 PUSH2 0x3F6 JUMP JUMPDEST SWAP3 SWAP2 POP POP JUMP JUMPDEST PUSH0 DUP2 SWAP1 POP SWAP2 SWAP1 POP JUMP JUMPDEST PUSH0 PUSH2 0xFFFF DUP3 AND SWAP1 POP SWAP2 SWAP1 POP JUMP JUMPDEST PUSH0 PUSH2 0x44E PUSH2 0x449 PUSH2 0x444 DUP5 PUSH2 0x41E JUMP JUMPDEST PUSH2 0x3CC JUMP JUMPDEST PUSH2 0x427 JUMP JUMPDEST SWAP1 POP SWAP2 SWAP1 POP JUMP JUMPDEST PUSH2 0x45E DUP2 PUSH2 0x434 JUMP JUMPDEST DUP3 MSTORE POP POP JUMP JUMPDEST PUSH0 DUP2 SWAP1 POP SWAP2 SWAP1 POP JUMP JUMPDEST PUSH0 PUSH2 0x487 PUSH2 0x482 PUSH2 0x47D DUP5 PUSH2 0x464 JUMP JUMPDEST PUSH2 0x3CC JUMP JUMPDEST PUSH2 0x3C0 JUMP JUMPDEST SWAP1 POP SWAP2 SWAP1 POP JUMP JUMPDEST PUSH2 0x497 DUP2 PUSH2 0x46D JUMP JUMPDEST DUP3 MSTORE POP POP JUMP JUMPDEST PUSH32 0x4572796300000000000000000000000000000000000000000000000000000000 PUSH0 DUP3 ADD MSTORE POP JUMP JUMPDEST PUSH0 PUSH2 0x4D1 PUSH1 0x4 DUP4 PUSH2 0x30B JUMP JUMPDEST SWAP2 POP PUSH2 0x4DC DUP3 PUSH2 0x49D JUMP JUMPDEST PUSH1 0x20 DUP3 ADD SWAP1 POP SWAP2 SWAP1 POP JUMP JUMPDEST PUSH0 PUSH1 0x80 DUP3 ADD SWAP1 POP PUSH2 0x4FA PUSH0 DUP4 ADD DUP7 PUSH2 0x455 JUMP JUMPDEST PUSH2 0x507 PUSH1 0x20 DUP4 ADD DUP6 PUSH2 0x48E JUMP JUMPDEST DUP2 DUP2 SUB PUSH1 0x40 DUP4 ADD MSTORE PUSH2 0x518 DUP2 PUSH2 0x4C5 JUMP JUMPDEST SWAP1 POP PUSH2 0x527 PUSH1 0x60 DUP4 ADD DUP5 PUSH2 0x35E JUMP JUMPDEST SWAP5 SWAP4 POP POP POP POP JUMP JUMPDEST PUSH2 0x538 DUP2 PUSH2 0x2E9 JUMP JUMPDEST DUP2 EQ PUSH2 0x542 JUMPI PUSH0 PUSH0 REVERT JUMPDEST POP JUMP JUMPDEST PUSH0 DUP2 CALLDATALOAD SWAP1 POP PUSH2 0x553 DUP2 PUSH2 0x52F JUMP JUMPDEST SWAP3 SWAP2 POP POP JUMP JUMPDEST PUSH0 PUSH0 REVERT JUMPDEST PUSH32 0x4E487B7100000000000000000000000000000000000000000000000000000000 PUSH0 MSTORE PUSH1 0x41 PUSH1 0x4 MSTORE PUSH1 0x24 PUSH0 REVERT JUMPDEST PUSH2 0x593 DUP3 PUSH2 0x1C4 JUMP JUMPDEST DUP2 ADD DUP2 DUP2 LT PUSH8 0xFFFFFFFFFFFFFFFF DUP3 GT OR ISZERO PUSH2 0x5B2 JUMPI PUSH2 0x5B1 PUSH2 0x55D JUMP JUMPDEST JUMPDEST DUP1 PUSH1 0x40 MSTORE POP POP POP JUMP JUMPDEST PUSH0 PUSH2 0x5C4 PUSH2 0x22C JUMP JUMPDEST SWAP1 POP PUSH2 0x5D0 DUP3 DUP3 PUSH2 0x58A JUMP JUMPDEST SWAP2 SWAP1 POP JUMP JUMPDEST PUSH0 PUSH8 0xFFFFFFFFFFFFFFFF DUP3 GT ISZERO PUSH2 0x5EF JUMPI PUSH2 0x5EE PUSH2 0x55D JUMP JUMPDEST JUMPDEST PUSH2 0x5F8 DUP3 PUSH2 0x1C4 JUMP JUMPDEST SWAP1 POP PUSH1 0x20 DUP2 ADD SWAP1 POP SWAP2 SWAP1 POP JUMP JUMPDEST DUP3 DUP2 DUP4 CALLDATACOPY PUSH0 DUP4 DUP4 ADD MSTORE POP POP POP JUMP JUMPDEST PUSH0 PUSH2 0x625 PUSH2 0x620 DUP5 PUSH2 0x5D5 JUMP JUMPDEST PUSH2 0x5BB JUMP JUMPDEST SWAP1 POP DUP3 DUP2 MSTORE PUSH1 0x20 DUP2 ADD DUP5 DUP5 DUP5 ADD GT ISZERO PUSH2 0x641 JUMPI PUSH2 0x640 PUSH2 0x559 JUMP JUMPDEST JUMPDEST PUSH2 0x64C DUP5 DUP3 DUP6 PUSH2 0x605 JUMP JUMPDEST POP SWAP4 SWAP3 POP POP POP JUMP JUMPDEST PUSH0 DUP3 PUSH1 0x1F DUP4 ADD SLT PUSH2 0x668 JUMPI PUSH2 0x667 PUSH2 0x23D JUMP JUMPDEST JUMPDEST DUP2 CALLDATALOAD PUSH2 0x678 DUP5 DUP3 PUSH1 0x20 DUP7 ADD PUSH2 0x613 JUMP JUMPDEST SWAP2 POP POP SWAP3 SWAP2 POP POP JUMP JUMPDEST PUSH2 0x68A DUP2 PUSH2 0x353 JUMP JUMPDEST DUP2 EQ PUSH2 0x694 JUMPI PUSH0 PUSH0 REVERT JUMPDEST POP JUMP JUMPDEST PUSH0 DUP2 CALLDATALOAD SWAP1 POP PUSH2 0x6A5 DUP2 PUSH2 0x681 JUMP JUMPDEST SWAP3 SWAP2 POP POP JUMP JUMPDEST PUSH0 PUSH0 PUSH0 PUSH0 PUSH1 0x80 DUP6 DUP8 SUB SLT ISZERO PUSH2 0x6C3 JUMPI PUSH2 0x6C2 PUSH2 0x235 JUMP JUMPDEST JUMPDEST PUSH0 PUSH2 0x6D0 DUP8 DUP3 DUP9 ADD PUSH2 0x545 JUMP JUMPDEST SWAP5 POP POP PUSH1 0x20 PUSH2 0x6E1 DUP8 DUP3 DUP9 ADD PUSH2 0x545 JUMP JUMPDEST SWAP4 POP POP PUSH1 0x40 DUP6 ADD CALLDATALOAD PUSH8 0xFFFFFFFFFFFFFFFF DUP2 GT ISZERO PUSH2 0x702 JUMPI PUSH2 0x701 PUSH2 0x239 JUMP JUMPDEST JUMPDEST PUSH2 0x70E DUP8 DUP3 DUP9 ADD PUSH2 0x654 JUMP JUMPDEST SWAP3 POP POP PUSH1 0x60 PUSH2 0x71F DUP8 DUP3 DUP9 ADD PUSH2 0x697 JUMP JUMPDEST SWAP2 POP POP SWAP3 SWAP6 SWAP2 SWAP5 POP SWAP3 POP JUMP INVALID LOG2 PUSH5 0x6970667358 0x22 SLT KECCAK256 SWAP4 BLOBHASH 0x1E GASPRICE DUP3 0xE LOG4 SWAP16 PUSH28 0xFBD37717306ED68395FEEA7D0D205E614C1E9446BCE3FF64736F6C63 NUMBER STOP ADDMOD 0x1E STOP CALLER "
		},
		"gasEstimates": {
			"creation": {
				"codeDepositCost": "377800",
				"executionCost": "416",
				"totalCost": "378216"
			},
			"external": {
				"decode(bytes)": "infinite",
				"encode()": "infinite",
				"encodeSignature()": "infinite"
			}
		},
		"methodIdentifiers": {
			"decode(bytes)": "e5c5e9a3",
			"encode()": "bd14598f",
			"encodeSignature()": "7a7cbf93"
		}
	},
	"abi": [
		{
			"inputs": [
				{
					"internalType": "bytes",
					"name": "_valor",
					"type": "bytes"
				}
			],
			"name": "decode",
			"outputs": [
				{
					"internalType": "uint256",
					"name": "",
					"type": "uint256"
				},
				{
					"internalType": "uint256",
					"name": "",
					"type": "uint256"
				},
				{
					"internalType": "string",
					"name": "",
					"type": "string"
				},
				{
					"internalType": "bool",
					"name": "",
					"type": "bool"
				}
			],
			"stateMutability": "pure",
			"type": "function"
		},
		{
			"inputs": [],
			"name": "encode",
			"outputs": [
				{
					"internalType": "bytes",
					"name": "",
					"type": "bytes"
				}
			],
			"stateMutability": "pure",
			"type": "function"
		},
		{
			"inputs": [],
			"name": "encodeSignature",
			"outputs": [
				{
					"internalType": "bytes",
					"name": "",
					"type": "bytes"
				}
			],
			"stateMutability": "pure",
			"type": "function"
		}
	]
}