{
	"data": {
		"bytecode": {
			"linkReferences": {},
			"object": "6080604052348015600e575f5ffd5b50607e80601a5f395ff3fe6080604052348015600e575f5ffd5b50600436106030575f3560e01c806314e9206e146034578063442ce25f14603c575b5f5ffd5b603a6044565b005b60426046565b005b565b56fea2646970667358221220a33d778f61ff1701c051237ed29efb7e0b250de04504257f7f8c7c24daf8b65964736f6c634300081e0033",
			"opcodes": "PUSH1 0x80 PUSH1 0x40 MSTORE CALLVALUE DUP1 ISZERO PUSH1 0xE JUMPI PUSH0 PUSH0 REVERT JUMPDEST POP PUSH1 0x7E DUP1 PUSH1 0x1A PUSH0 CODECOPY PUSH0 RETURN INVALID PUSH1 0x80 PUSH1 0x40 MSTORE CALLVALUE DUP1 ISZERO PUSH1 0xE JUMPI PUSH0 PUSH0 REVERT JUMPDEST POP PUSH1 0x4 CALLDATASIZE LT PUSH1 0x30 JUMPI PUSH0 CALLDATALOAD PUSH1 0xE0 SHR DUP1 PUSH4 0x14E9206E EQ PUSH1 0x34 JUMPI DUP1 PUSH4 0x442CE25F EQ PUSH1 0x3C JUMPI JUMPDEST PUSH0 PUSH0 REVERT JUMPDEST PUSH1 0x3A PUSH1 0x44 JUMP JUMPDEST STOP JUMPDEST PUSH1 0x42 PUSH1 0x46 JUMP JUMPDEST STOP JUMPDEST JUMP JUMPDEST JUMP INVALID LOG2 PUSH5 0x6970667358 0x22 SLT KECCAK256 LOG3 RETURNDATASIZE PUSH24 0x8F61FF1701C051237ED29EFB7E0B250DE04504257F7F8C7C 0x24 0xDA EXTCALL 0xB6 MSIZE PUSH5 0x736F6C6343 STOP ADDMOD 0x1E STOP CALLER "
		},
		"gasEstimates": {
			"creation": {
				"codeDepositCost": "25200",
				"executionCost": "73",
				"totalCost": "25273"
			},
			"external": {
				"converte()": "143",
				"converte2()": "121"
			}
		},
		"methodIdentifiers": {
			"converte()": "442ce25f",
			"converte2()": "14e9206e"
		}
	},
	"abi": [
		{
			"inputs": [],
			"name": "converte",
			"outputs": [],
			"stateMutability": "pure",
			"type": "function"
		},
		{
			"inputs": [],
			"name": "converte2",
			"outputs": [],
			"stateMutability": "pure",
			"type": "function"
		}
	]
}