{
	"data": {
		"bytecode": {
			"linkReferences": {},
			"object": "6080604052348015600e575f5ffd5b506104ff8061001c5f395ff3fe608060405234801561000f575f5ffd5b5060043610610034575f3560e01c8063c571ef6114610038578063e05d29b014610069575b5f5ffd5b610052600480360381019061004d91906102fd565b61009a565b6040516100609291906103b2565b60405180910390f35b610083600480360381019061007e9190610413565b610196565b6040516100919291906103b2565b60405180910390f35b5f60605f5f8473ffffffffffffffffffffffffffffffffffffffff166040516024016040516020818303038152906040527f96a0eeeb000000000000000000000000000000000000000000000000000000007bffffffffffffffffffffffffffffffffffffffffffffffffffffffff19166020820180517bffffffffffffffffffffffffffffffffffffffffffffffffffffffff8381831617835250505050604051610146919061048b565b5f604051808303815f865af19150503d805f811461017f576040519150601f19603f3d011682016040523d82523d5f602084013e610184565b606091505b50915091508181935093505050915091565b5f60605f5f8573ffffffffffffffffffffffffffffffffffffffff16856040516024016101c391906104b0565b6040516020818303038152906040527f51f83361000000000000000000000000000000000000000000000000000000007bffffffffffffffffffffffffffffffffffffffffffffffffffffffff19166020820180517bffffffffffffffffffffffffffffffffffffffffffffffffffffffff838183161783525050505060405161024d919061048b565b5f604051808303815f865af19150503d805f8114610286576040519150601f19603f3d011682016040523d82523d5f602084013e61028b565b606091505b509150915081819350935050509250929050565b5f5ffd5b5f73ffffffffffffffffffffffffffffffffffffffff82169050919050565b5f6102cc826102a3565b9050919050565b6102dc816102c2565b81146102e6575f5ffd5b50565b5f813590506102f7816102d3565b92915050565b5f602082840312156103125761031161029f565b5b5f61031f848285016102e9565b91505092915050565b5f8115159050919050565b61033c81610328565b82525050565b5f81519050919050565b5f82825260208201905092915050565b8281835e5f83830152505050565b5f601f19601f8301169050919050565b5f61038482610342565b61038e818561034c565b935061039e81856020860161035c565b6103a78161036a565b840191505092915050565b5f6040820190506103c55f830185610333565b81810360208301526103d7818461037a565b90509392505050565b5f819050919050565b6103f2816103e0565b81146103fc575f5ffd5b50565b5f8135905061040d816103e9565b92915050565b5f5f604083850312156104295761042861029f565b5b5f610436858286016102e9565b9250506020610447858286016103ff565b9150509250929050565b5f81905092915050565b5f61046582610342565b61046f8185610451565b935061047f81856020860161035c565b80840191505092915050565b5f610496828461045b565b915081905092915050565b6104aa816103e0565b82525050565b5f6020820190506104c35f8301846104a1565b9291505056fea264697066735822122091918af1d4cea10c5e1ffd902b2ecf56f9e3e486a50f6e73f3fb946b7f3cd29564736f6c634300081e0033",
			"opcodes": "PUSH1 0x80 PUSH1 0x40 MSTORE CALLVALUE DUP1 ISZERO PUSH1 0xE JUMPI PUSH0 PUSH0 REVERT JUMPDEST POP PUSH2 0x4FF DUP1 PUSH2 0x1C PUSH0 CODECOPY PUSH0 RETURN INVALID PUSH1 0x80 PUSH1 0x40 MSTORE CALLVALUE DUP1 ISZERO PUSH2 0xF JUMPI PUSH0 PUSH0 REVERT JUMPDEST POP PUSH1 0x4 CALLDATASIZE LT PUSH2 0x34 JUMPI PUSH0 CALLDATALOAD PUSH1 0xE0 SHR DUP1 PUSH4 0xC571EF61 EQ PUSH2 0x38 JUMPI DUP1 PUSH4 0xE05D29B0 EQ PUSH2 0x69 JUMPI JUMPDEST PUSH0 PUSH0 REVERT JUMPDEST PUSH2 0x52 PUSH1 0x4 DUP1 CALLDATASIZE SUB DUP2 ADD SWAP1 PUSH2 0x4D SWAP2 SWAP1 PUSH2 0x2FD JUMP JUMPDEST PUSH2 0x9A JUMP JUMPDEST PUSH1 0x40 MLOAD PUSH2 0x60 SWAP3 SWAP2 SWAP1 PUSH2 0x3B2 JUMP JUMPDEST PUSH1 0x40 MLOAD DUP1 SWAP2 SUB SWAP1 RETURN JUMPDEST PUSH2 0x83 PUSH1 0x4 DUP1 CALLDATASIZE SUB DUP2 ADD SWAP1 PUSH2 0x7E SWAP2 SWAP1 PUSH2 0x413 JUMP JUMPDEST PUSH2 0x196 JUMP JUMPDEST PUSH1 0x40 MLOAD PUSH2 0x91 SWAP3 SWAP2 SWAP1 PUSH2 0x3B2 JUMP JUMPDEST PUSH1 0x40 MLOAD DUP1 SWAP2 SUB SWAP1 RETURN JUMPDEST PUSH0 PUSH1 0x60 PUSH0 PUSH0 DUP5 PUSH20 0xFFFFFFFFFFFFFFFFFFFFFFFFFFFFFFFFFFFFFFFF AND PUSH1 0x40 MLOAD PUSH1 0x24 ADD PUSH1 0x40 MLOAD PUSH1 0x20 DUP2 DUP4 SUB SUB DUP2 MSTORE SWAP1 PUSH1 0x40 MSTORE PUSH32 0x96A0EEEB00000000000000000000000000000000000000000000000000000000 PUSH28 0xFFFFFFFFFFFFFFFFFFFFFFFFFFFFFFFFFFFFFFFFFFFFFFFFFFFFFFFF NOT AND PUSH1 0x20 DUP3 ADD DUP1 MLOAD PUSH28 0xFFFFFFFFFFFFFFFFFFFFFFFFFFFFFFFFFFFFFFFFFFFFFFFFFFFFFFFF DUP4 DUP2 DUP4 AND OR DUP4 MSTORE POP POP POP POP PUSH1 0x40 MLOAD PUSH2 0x146 SWAP2 SWAP1 PUSH2 0x48B JUMP JUMPDEST PUSH0 PUSH1 0x40 MLOAD DUP1 DUP4 SUB DUP2 PUSH0 DUP7 GAS CALL SWAP2 POP POP RETURNDATASIZE DUP1 PUSH0 DUP2 EQ PUSH2 0x17F JUMPI PUSH1 0x40 MLOAD SWAP2 POP PUSH1 0x1F NOT PUSH1 0x3F RETURNDATASIZE ADD AND DUP3 ADD PUSH1 0x40 MSTORE RETURNDATASIZE DUP3 MSTORE RETURNDATASIZE PUSH0 PUSH1 0x20 DUP5 ADD RETURNDATACOPY PUSH2 0x184 JUMP JUMPDEST PUSH1 0x60 SWAP2 POP JUMPDEST POP SWAP2 POP SWAP2 POP DUP2 DUP2 SWAP4 POP SWAP4 POP POP POP SWAP2 POP SWAP2 JUMP JUMPDEST PUSH0 PUSH1 0x60 PUSH0 PUSH0 DUP6 PUSH20 0xFFFFFFFFFFFFFFFFFFFFFFFFFFFFFFFFFFFFFFFF AND DUP6 PUSH1 0x40 MLOAD PUSH1 0x24 ADD PUSH2 0x1C3 SWAP2 SWAP1 PUSH2 0x4B0 JUMP JUMPDEST PUSH1 0x40 MLOAD PUSH1 0x20 DUP2 DUP4 SUB SUB DUP2 MSTORE SWAP1 PUSH1 0x40 MSTORE PUSH32 0x51F8336100000000000000000000000000000000000000000000000000000000 PUSH28 0xFFFFFFFFFFFFFFFFFFFFFFFFFFFFFFFFFFFFFFFFFFFFFFFFFFFFFFFF NOT AND PUSH1 0x20 DUP3 ADD DUP1 MLOAD PUSH28 0xFFFFFFFFFFFFFFFFFFFFFFFFFFFFFFFFFFFFFFFFFFFFFFFFFFFFFFFF DUP4 DUP2 DUP4 AND OR DUP4 MSTORE POP POP POP POP PUSH1 0x40 MLOAD PUSH2 0x24D SWAP2 SWAP1 PUSH2 0x48B JUMP JUMPDEST PUSH0 PUSH1 0x40 MLOAD DUP1 DUP4 SUB DUP2 PUSH0 DUP7 GAS CALL SWAP2 POP POP RETURNDATASIZE DUP1 PUSH0 DUP2 EQ PUSH2 0x286 JUMPI PUSH1 0x40 MLOAD SWAP2 POP PUSH1 0x1F NOT PUSH1 0x3F RETURNDATASIZE ADD AND DUP3 ADD PUSH1 0x40 MSTORE RETURNDATASIZE DUP3 MSTORE RETURNDATASIZE PUSH0 PUSH1 0x20 DUP5 ADD RETURNDATACOPY PUSH2 0x28B JUMP JUMPDEST PUSH1 0x60 SWAP2 POP JUMPDEST POP SWAP2 POP SWAP2 POP DUP2 DUP2 SWAP4 POP SWAP4 POP POP POP SWAP3 POP SWAP3 SWAP1 POP JUMP JUMPDEST PUSH0 PUSH0 REVERT JUMPDEST PUSH0 PUSH20 0xFFFFFFFFFFFFFFFFFFFFFFFFFFFFFFFFFFFFFFFF DUP3 AND SWAP1 POP SWAP2 SWAP1 POP JUMP JUMPDEST PUSH0 PUSH2 0x2CC DUP3 PUSH2 0x2A3 JUMP JUMPDEST SWAP1 POP SWAP2 SWAP1 POP JUMP JUMPDEST PUSH2 0x2DC DUP2 PUSH2 0x2C2 JUMP JUMPDEST DUP2 EQ PUSH2 0x2E6 JUMPI PUSH0 PUSH0 REVERT JUMPDEST POP JUMP JUMPDEST PUSH0 DUP2 CALLDATALOAD SWAP1 POP PUSH2 0x2F7 DUP2 PUSH2 0x2D3 JUMP JUMPDEST SWAP3 SWAP2 POP POP JUMP JUMPDEST PUSH0 PUSH1 0x20 DUP3 DUP5 SUB SLT ISZERO PUSH2 0x312 JUMPI PUSH2 0x311 PUSH2 0x29F JUMP JUMPDEST JUMPDEST PUSH0 PUSH2 0x31F DUP5 DUP3 DUP6 ADD PUSH2 0x2E9 JUMP JUMPDEST SWAP2 POP POP SWAP3 SWAP2 POP POP JUMP JUMPDEST PUSH0 DUP2 ISZERO ISZERO SWAP1 POP SWAP2 SWAP1 POP JUMP JUMPDEST PUSH2 0x33C DUP2 PUSH2 0x328 JUMP JUMPDEST DUP3 MSTORE POP POP JUMP JUMPDEST PUSH0 DUP2 MLOAD SWAP1 POP SWAP2 SWAP1 POP JUMP JUMPDEST PUSH0 DUP3 DUP3 MSTORE PUSH1 0x20 DUP3 ADD SWAP1 POP SWAP3 SWAP2 POP POP JUMP JUMPDEST DUP3 DUP2 DUP4 MCOPY PUSH0 DUP4 DUP4 ADD MSTORE POP POP POP JUMP JUMPDEST PUSH0 PUSH1 0x1F NOT PUSH1 0x1F DUP4 ADD AND SWAP1 POP SWAP2 SWAP1 POP JUMP JUMPDEST PUSH0 PUSH2 0x384 DUP3 PUSH2 0x342 JUMP JUMPDEST PUSH2 0x38E DUP2 DUP6 PUSH2 0x34C JUMP JUMPDEST SWAP4 POP PUSH2 0x39E DUP2 DUP6 PUSH1 0x20 DUP7 ADD PUSH2 0x35C JUMP JUMPDEST PUSH2 0x3A7 DUP2 PUSH2 0x36A JUMP JUMPDEST DUP5 ADD SWAP2 POP POP SWAP3 SWAP2 POP POP JUMP JUMPDEST PUSH0 PUSH1 0x40 DUP3 ADD SWAP1 POP PUSH2 0x3C5 PUSH0 DUP4 ADD DUP6 PUSH2 0x333 JUMP JUMPDEST DUP2 DUP2 SUB PUSH1 0x20 DUP4 ADD MSTORE PUSH2 0x3D7 DUP2 DUP5 PUSH2 0x37A JUMP JUMPDEST SWAP1 POP SWAP4 SWAP3 POP POP POP JUMP JUMPDEST PUSH0 DUP2 SWAP1 POP SWAP2 SWAP1 POP JUMP JUMPDEST PUSH2 0x3F2 DUP2 PUSH2 0x3E0 JUMP JUMPDEST DUP2 EQ PUSH2 0x3FC JUMPI PUSH0 PUSH0 REVERT JUMPDEST POP JUMP JUMPDEST PUSH0 DUP2 CALLDATALOAD SWAP1 POP PUSH2 0x40D DUP2 PUSH2 0x3E9 JUMP JUMPDEST SWAP3 SWAP2 POP POP JUMP JUMPDEST PUSH0 PUSH0 PUSH1 0x40 DUP4 DUP6 SUB SLT ISZERO PUSH2 0x429 JUMPI PUSH2 0x428 PUSH2 0x29F JUMP JUMPDEST JUMPDEST PUSH0 PUSH2 0x436 DUP6 DUP3 DUP7 ADD PUSH2 0x2E9 JUMP JUMPDEST SWAP3 POP POP PUSH1 0x20 PUSH2 0x447 DUP6 DUP3 DUP7 ADD PUSH2 0x3FF JUMP JUMPDEST SWAP2 POP POP SWAP3 POP SWAP3 SWAP1 POP JUMP JUMPDEST PUSH0 DUP2 SWAP1 POP SWAP3 SWAP2 POP POP JUMP JUMPDEST PUSH0 PUSH2 0x465 DUP3 PUSH2 0x342 JUMP JUMPDEST PUSH2 0x46F DUP2 DUP6 PUSH2 0x451 JUMP JUMPDEST SWAP4 POP PUSH2 0x47F DUP2 DUP6 PUSH1 0x20 DUP7 ADD PUSH2 0x35C JUMP JUMPDEST DUP1 DUP5 ADD SWAP2 POP POP SWAP3 SWAP2 POP POP JUMP JUMPDEST PUSH0 PUSH2 0x496 DUP3 DUP5 PUSH2 0x45B JUMP JUMPDEST SWAP2 POP DUP2 SWAP1 POP SWAP3 SWAP2 POP POP JUMP JUMPDEST PUSH2 0x4AA DUP2 PUSH2 0x3E0 JUMP JUMPDEST DUP3 MSTORE POP POP JUMP JUMPDEST PUSH0 PUSH1 0x20 DUP3 ADD SWAP1 POP PUSH2 0x4C3 PUSH0 DUP4 ADD DUP5 PUSH2 0x4A1 JUMP JUMPDEST SWAP3 SWAP2 POP POP JUMP INVALID LOG2 PUSH5 0x6970667358 0x22 SLT KECCAK256 SWAP2 SWAP2 DUP11 CALL 0xD4 0xCE LOG1 0xC MCOPY 0x1F REVERT SWAP1 0x2B 0x2E 0xCF JUMP EXTDELEGATECALL CALLF 0xE486 0xA5 0xF PUSH15 0x73F3FB946B7F3CD29564736F6C6343 STOP ADDMOD 0x1E STOP CALLER "
		},
		"gasEstimates": {
			"creation": {
				"codeDepositCost": "255800",
				"executionCost": "292",
				"totalCost": "256092"
			},
			"external": {
				"getModificar(address,uint256)": "infinite",
				"setModifucar(address)": "infinite"
			}
		},
		"methodIdentifiers": {
			"getModificar(address,uint256)": "e05d29b0",
			"setModifucar(address)": "c571ef61"
		}
	},
	"abi": [
		{
			"inputs": [
				{
					"internalType": "address",
					"name": "endereco",
					"type": "address"
				},
				{
					"internalType": "uint256",
					"name": "_valor",
					"type": "uint256"
				}
			],
			"name": "getModificar",
			"outputs": [
				{
					"internalType": "bool",
					"name": "",
					"type": "bool"
				},
				{
					"internalType": "bytes",
					"name": "",
					"type": "bytes"
				}
			],
			"stateMutability": "nonpayable",
			"type": "function"
		},
		{
			"inputs": [
				{
					"internalType": "address",
					"name": "endereco",
					"type": "address"
				}
			],
			"name": "setModifucar",
			"outputs": [
				{
					"internalType": "bool",
					"name": "",
					"type": "bool"
				},
				{
					"internalType": "bytes",
					"name": "",
					"type": "bytes"
				}
			],
			"stateMutability": "nonpayable",
			"type": "function"
		}
	]
}