{
	"data": {
		"bytecode": {
			"linkReferences": {},
			"object": "6080604052600a5f556014600155601e600255348015601c575f5ffd5b506101308061002a5f395ff3fe6080604052348015600e575f5ffd5b5060043610603a575f3560e01c80632c99c87014603e5780633ce42e56146058578063b43c46a2146072575b5f5ffd5b6044608d565b604051604f919060c0565b60405180910390f35b605e6092565b6040516069919060c0565b60405180910390f35b6078609a565b604051608492919060d7565b60405180910390f35b5f5481565b5f5f54905090565b5f5f600154600254915091509091565b5f819050919050565b60ba8160aa565b82525050565b5f60208201905060d15f83018460b3565b92915050565b5f60408201905060e85f83018560b3565b60f3602083018460b3565b939250505056fea2646970667358221220c09ab4b0b552d692f6088dd0a3310a113dc7461be11d4feda672971d7ae7ff2964736f6c634300081e0033",
			"opcodes": "PUSH1 0x80 PUSH1 0x40 MSTORE PUSH1 0xA PUSH0 SSTORE PUSH1 0x14 PUSH1 0x1 SSTORE PUSH1 0x1E PUSH1 0x2 SSTORE CALLVALUE DUP1 ISZERO PUSH1 0x1C JUMPI PUSH0 PUSH0 REVERT JUMPDEST POP PUSH2 0x130 DUP1 PUSH2 0x2A PUSH0 CODECOPY PUSH0 RETURN INVALID PUSH1 0x80 PUSH1 0x40 MSTORE CALLVALUE DUP1 ISZERO PUSH1 0xE JUMPI PUSH0 PUSH0 REVERT JUMPDEST POP PUSH1 0x4 CALLDATASIZE LT PUSH1 0x3A JUMPI PUSH0 CALLDATALOAD PUSH1 0xE0 SHR DUP1 PUSH4 0x2C99C870 EQ PUSH1 0x3E JUMPI DUP1 PUSH4 0x3CE42E56 EQ PUSH1 0x58 JUMPI DUP1 PUSH4 0xB43C46A2 EQ PUSH1 0x72 JUMPI JUMPDEST PUSH0 PUSH0 REVERT JUMPDEST PUSH1 0x44 PUSH1 0x8D JUMP JUMPDEST PUSH1 0x40 MLOAD PUSH1 0x4F SWAP2 SWAP1 PUSH1 0xC0 JUMP JUMPDEST PUSH1 0x40 MLOAD DUP1 SWAP2 SUB SWAP1 RETURN JUMPDEST PUSH1 0x5E PUSH1 0x92 JUMP JUMPDEST PUSH1 0x40 MLOAD PUSH1 0x69 SWAP2 SWAP1 PUSH1 0xC0 JUMP JUMPDEST PUSH1 0x40 MLOAD DUP1 SWAP2 SUB SWAP1 RETURN JUMPDEST PUSH1 0x78 PUSH1 0x9A JUMP JUMPDEST PUSH1 0x40 MLOAD PUSH1 0x84 SWAP3 SWAP2 SWAP1 PUSH1 0xD7 JUMP JUMPDEST PUSH1 0x40 MLOAD DUP1 SWAP2 SUB SWAP1 RETURN JUMPDEST PUSH0 SLOAD DUP2 JUMP JUMPDEST PUSH0 PUSH0 SLOAD SWAP1 POP SWAP1 JUMP JUMPDEST PUSH0 PUSH0 PUSH1 0x1 SLOAD PUSH1 0x2 SLOAD SWAP2 POP SWAP2 POP SWAP1 SWAP2 JUMP JUMPDEST PUSH0 DUP2 SWAP1 POP SWAP2 SWAP1 POP JUMP JUMPDEST PUSH1 0xBA DUP2 PUSH1 0xAA JUMP JUMPDEST DUP3 MSTORE POP POP JUMP JUMPDEST PUSH0 PUSH1 0x20 DUP3 ADD SWAP1 POP PUSH1 0xD1 PUSH0 DUP4 ADD DUP5 PUSH1 0xB3 JUMP JUMPDEST SWAP3 SWAP2 POP POP JUMP JUMPDEST PUSH0 PUSH1 0x40 DUP3 ADD SWAP1 POP PUSH1 0xE8 PUSH0 DUP4 ADD DUP6 PUSH1 0xB3 JUMP JUMPDEST PUSH1 0xF3 PUSH1 0x20 DUP4 ADD DUP5 PUSH1 0xB3 JUMP JUMPDEST SWAP4 SWAP3 POP POP POP JUMP INVALID LOG2 PUSH5 0x6970667358 0x22 SLT KECCAK256 0xC0 SWAP11 0xB4 0xB0 0xB5 MSTORE 0xD6 SWAP3 0xF6 ADDMOD DUP14 0xD0 LOG3 BALANCE EXP GT RETURNDATASIZE 0xC7 CHAINID SHL RJUMPI 0x1D4F 0xED 0xA6 PUSH19 0x971D7AE7FF2964736F6C634300081E00330000 "
		},
		"gasEstimates": {
			"creation": {
				"codeDepositCost": "60800",
				"executionCost": "66426",
				"totalCost": "127226"
			},
			"external": {
				"Funcao_externa()": "infinite",
				"Funcao_publica()": "2431",
				"publica()": "2402"
			},
			"internal": {
				"Funcao_interna()": "infinite",
				"Funcao_privada()": "infinite"
			}
		},
		"methodIdentifiers": {
			"Funcao_externa()": "b43c46a2",
			"Funcao_publica()": "3ce42e56",
			"publica()": "2c99c870"
		}
	},
	"abi": [
		{
			"inputs": [],
			"name": "Funcao_externa",
			"outputs": [
				{
					"internalType": "uint256",
					"name": "",
					"type": "uint256"
				},
				{
					"internalType": "uint256",
					"name": "",
					"type": "uint256"
				}
			],
			"stateMutability": "view",
			"type": "function"
		},
		{
			"inputs": [],
			"name": "Funcao_publica",
			"outputs": [
				{
					"internalType": "uint256",
					"name": "",
					"type": "uint256"
				}
			],
			"stateMutability": "view",
			"type": "function"
		},
		{
			"inputs": [],
			"name": "publica",
			"outputs": [
				{
					"internalType": "uint256",
					"name": "",
					"type": "uint256"
				}
			],
			"stateMutability": "view",
			"type": "function"
		}
	]
}