{
	"data": {
		"bytecode": {
			"linkReferences": {},
			"object": "6080604052348015600e575f5ffd5b506102148061001c5f395ff3fe608060405234801561000f575f5ffd5b506004361061003f575f3560e01c80630c591b8f14610043578063495d32cb14610061578063f3581e631461007f575b5f5ffd5b61004b610089565b60405161005891906100f4565b60405180910390f35b61006961008f565b60405161007691906100f4565b60405180910390f35b610087610094565b005b60015481565b5f5481565b5f6002426100a2919061013a565b036100c2575f5f8154809291906100b890610197565b91905055506100da565b60015f8154809291906100d490610197565b91905055505b565b5f819050919050565b6100ee816100dc565b82525050565b5f6020820190506101075f8301846100e5565b92915050565b7f4e487b71000000000000000000000000000000000000000000000000000000005f52601260045260245ffd5b5f610144826100dc565b915061014f836100dc565b92508261015f5761015e61010d565b5b828206905092915050565b7f4e487b71000000000000000000000000000000000000000000000000000000005f52601160045260245ffd5b5f6101a1826100dc565b91507fffffffffffffffffffffffffffffffffffffffffffffffffffffffffffffffff82036101d3576101d261016a565b5b60018201905091905056fea2646970667358221220a901adb2b0eb3df8baf27a2e5134507e75ed893446a9da6f62395a59e446ab8264736f6c634300081e0033",
			"opcodes": "PUSH1 0x80 PUSH1 0x40 MSTORE CALLVALUE DUP1 ISZERO PUSH1 0xE JUMPI PUSH0 PUSH0 REVERT JUMPDEST POP PUSH2 0x214 DUP1 PUSH2 0x1C PUSH0 CODECOPY PUSH0 RETURN INVALID PUSH1 0x80 PUSH1 0x40 MSTORE CALLVALUE DUP1 ISZERO PUSH2 0xF JUMPI PUSH0 PUSH0 REVERT JUMPDEST POP PUSH1 0x4 CALLDATASIZE LT PUSH2 0x3F JUMPI PUSH0 CALLDATALOAD PUSH1 0xE0 SHR DUP1 PUSH4 0xC591B8F EQ PUSH2 0x43 JUMPI DUP1 PUSH4 0x495D32CB EQ PUSH2 0x61 JUMPI DUP1 PUSH4 0xF3581E63 EQ PUSH2 0x7F JUMPI JUMPDEST PUSH0 PUSH0 REVERT JUMPDEST PUSH2 0x4B PUSH2 0x89 JUMP JUMPDEST PUSH1 0x40 MLOAD PUSH2 0x58 SWAP2 SWAP1 PUSH2 0xF4 JUMP JUMPDEST PUSH1 0x40 MLOAD DUP1 SWAP2 SUB SWAP1 RETURN JUMPDEST PUSH2 0x69 PUSH2 0x8F JUMP JUMPDEST PUSH1 0x40 MLOAD PUSH2 0x76 SWAP2 SWAP1 PUSH2 0xF4 JUMP JUMPDEST PUSH1 0x40 MLOAD DUP1 SWAP2 SUB SWAP1 RETURN JUMPDEST PUSH2 0x87 PUSH2 0x94 JUMP JUMPDEST STOP JUMPDEST PUSH1 0x1 SLOAD DUP2 JUMP JUMPDEST PUSH0 SLOAD DUP2 JUMP JUMPDEST PUSH0 PUSH1 0x2 TIMESTAMP PUSH2 0xA2 SWAP2 SWAP1 PUSH2 0x13A JUMP JUMPDEST SUB PUSH2 0xC2 JUMPI PUSH0 PUSH0 DUP2 SLOAD DUP1 SWAP3 SWAP2 SWAP1 PUSH2 0xB8 SWAP1 PUSH2 0x197 JUMP JUMPDEST SWAP2 SWAP1 POP SSTORE POP PUSH2 0xDA JUMP JUMPDEST PUSH1 0x1 PUSH0 DUP2 SLOAD DUP1 SWAP3 SWAP2 SWAP1 PUSH2 0xD4 SWAP1 PUSH2 0x197 JUMP JUMPDEST SWAP2 SWAP1 POP SSTORE POP JUMPDEST JUMP JUMPDEST PUSH0 DUP2 SWAP1 POP SWAP2 SWAP1 POP JUMP JUMPDEST PUSH2 0xEE DUP2 PUSH2 0xDC JUMP JUMPDEST DUP3 MSTORE POP POP JUMP JUMPDEST PUSH0 PUSH1 0x20 DUP3 ADD SWAP1 POP PUSH2 0x107 PUSH0 DUP4 ADD DUP5 PUSH2 0xE5 JUMP JUMPDEST SWAP3 SWAP2 POP POP JUMP JUMPDEST PUSH32 0x4E487B7100000000000000000000000000000000000000000000000000000000 PUSH0 MSTORE PUSH1 0x12 PUSH1 0x4 MSTORE PUSH1 0x24 PUSH0 REVERT JUMPDEST PUSH0 PUSH2 0x144 DUP3 PUSH2 0xDC JUMP JUMPDEST SWAP2 POP PUSH2 0x14F DUP4 PUSH2 0xDC JUMP JUMPDEST SWAP3 POP DUP3 PUSH2 0x15F JUMPI PUSH2 0x15E PUSH2 0x10D JUMP JUMPDEST JUMPDEST DUP3 DUP3 MOD SWAP1 POP SWAP3 SWAP2 POP POP JUMP JUMPDEST PUSH32 0x4E487B7100000000000000000000000000000000000000000000000000000000 PUSH0 MSTORE PUSH1 0x11 PUSH1 0x4 MSTORE PUSH1 0x24 PUSH0 REVERT JUMPDEST PUSH0 PUSH2 0x1A1 DUP3 PUSH2 0xDC JUMP JUMPDEST SWAP2 POP PUSH32 0xFFFFFFFFFFFFFFFFFFFFFFFFFFFFFFFFFFFFFFFFFFFFFFFFFFFFFFFFFFFFFFFF DUP3 SUB PUSH2 0x1D3 JUMPI PUSH2 0x1D2 PUSH2 0x16A JUMP JUMPDEST JUMPDEST PUSH1 0x1 DUP3 ADD SWAP1 POP SWAP2 SWAP1 POP JUMP INVALID LOG2 PUSH5 0x6970667358 0x22 SLT KECCAK256 0xA9 ADD 0xAD 0xB2 0xB0 0xEB RETURNDATASIZE EXTCALL 0xBA CALLCODE PUSH27 0x2E5134507E75ED893446A9DA6F62395A59E446AB8264736F6C6343 STOP ADDMOD 0x1E STOP CALLER "
		},
		"gasEstimates": {
			"creation": {
				"codeDepositCost": "106400",
				"executionCost": "151",
				"totalCost": "106551"
			},
			"external": {
				"Incrementa()": "infinite",
				"impar()": "2403",
				"par()": "2424"
			}
		},
		"methodIdentifiers": {
			"Incrementa()": "f3581e63",
			"impar()": "0c591b8f",
			"par()": "495d32cb"
		}
	},
	"abi": [
		{
			"inputs": [],
			"name": "Incrementa",
			"outputs": [],
			"stateMutability": "nonpayable",
			"type": "function"
		},
		{
			"inputs": [],
			"name": "impar",
			"outputs": [
				{
					"internalType": "uint256",
					"name": "",
					"type": "uint256"
				}
			],
			"stateMutability": "view",
			"type": "function"
		},
		{
			"inputs": [],
			"name": "par",
			"outputs": [
				{
					"internalType": "uint256",
					"name": "",
					"type": "uint256"
				}
			],
			"stateMutability": "view",
			"type": "function"
		}
	]
}