{
	"data": {
		"bytecode": {
			"linkReferences": {},
			"object": "6080604052348015600e575f5ffd5b506102a18061001c5f395ff3fe608060405234801561000f575f5ffd5b5060043610610038575f3560e01c80632fbebd381461003b578063f31a69691461005757610039565b5b005b610055600480360381019061005091906100bd565b610073565b005b610071600480360381019061006c9190610224565b610076565b005b50565b50565b5f604051905090565b5f5ffd5b5f5ffd5b5f819050919050565b61009c8161008a565b81146100a6575f5ffd5b50565b5f813590506100b781610093565b92915050565b5f602082840312156100d2576100d1610082565b5b5f6100df848285016100a9565b91505092915050565b5f5ffd5b5f5ffd5b5f601f19601f8301169050919050565b7f4e487b71000000000000000000000000000000000000000000000000000000005f52604160045260245ffd5b610136826100f0565b810181811067ffffffffffffffff8211171561015557610154610100565b5b80604052505050565b5f610167610079565b9050610173828261012d565b919050565b5f67ffffffffffffffff82111561019257610191610100565b5b61019b826100f0565b9050602081019050919050565b828183375f83830152505050565b5f6101c86101c384610178565b61015e565b9050828152602081018484840111156101e4576101e36100ec565b5b6101ef8482856101a8565b509392505050565b5f82601f83011261020b5761020a6100e8565b5b813561021b8482602086016101b6565b91505092915050565b5f6020828403121561023957610238610082565b5b5f82013567ffffffffffffffff81111561025657610255610086565b5b610262848285016101f7565b9150509291505056fea26469706673582212204e886a814feef125fbdbc1a619a6894c560b98b01ffbfcc8e85f73eab7cd72fb64736f6c634300081e0033",
			"opcodes": "PUSH1 0x80 PUSH1 0x40 MSTORE CALLVALUE DUP1 ISZERO PUSH1 0xE JUMPI PUSH0 PUSH0 REVERT JUMPDEST POP PUSH2 0x2A1 DUP1 PUSH2 0x1C PUSH0 CODECOPY PUSH0 RETURN INVALID PUSH1 0x80 PUSH1 0x40 MSTORE CALLVALUE DUP1 ISZERO PUSH2 0xF JUMPI PUSH0 PUSH0 REVERT JUMPDEST POP PUSH1 0x4 CALLDATASIZE LT PUSH2 0x38 JUMPI PUSH0 CALLDATALOAD PUSH1 0xE0 SHR DUP1 PUSH4 0x2FBEBD38 EQ PUSH2 0x3B JUMPI DUP1 PUSH4 0xF31A6969 EQ PUSH2 0x57 JUMPI PUSH2 0x39 JUMP JUMPDEST JUMPDEST STOP JUMPDEST PUSH2 0x55 PUSH1 0x4 DUP1 CALLDATASIZE SUB DUP2 ADD SWAP1 PUSH2 0x50 SWAP2 SWAP1 PUSH2 0xBD JUMP JUMPDEST PUSH2 0x73 JUMP JUMPDEST STOP JUMPDEST PUSH2 0x71 PUSH1 0x4 DUP1 CALLDATASIZE SUB DUP2 ADD SWAP1 PUSH2 0x6C SWAP2 SWAP1 PUSH2 0x224 JUMP JUMPDEST PUSH2 0x76 JUMP JUMPDEST STOP JUMPDEST POP JUMP JUMPDEST POP JUMP JUMPDEST PUSH0 PUSH1 0x40 MLOAD SWAP1 POP SWAP1 JUMP JUMPDEST PUSH0 PUSH0 REVERT JUMPDEST PUSH0 PUSH0 REVERT JUMPDEST PUSH0 DUP2 SWAP1 POP SWAP2 SWAP1 POP JUMP JUMPDEST PUSH2 0x9C DUP2 PUSH2 0x8A JUMP JUMPDEST DUP2 EQ PUSH2 0xA6 JUMPI PUSH0 PUSH0 REVERT JUMPDEST POP JUMP JUMPDEST PUSH0 DUP2 CALLDATALOAD SWAP1 POP PUSH2 0xB7 DUP2 PUSH2 0x93 JUMP JUMPDEST SWAP3 SWAP2 POP POP JUMP JUMPDEST PUSH0 PUSH1 0x20 DUP3 DUP5 SUB SLT ISZERO PUSH2 0xD2 JUMPI PUSH2 0xD1 PUSH2 0x82 JUMP JUMPDEST JUMPDEST PUSH0 PUSH2 0xDF DUP5 DUP3 DUP6 ADD PUSH2 0xA9 JUMP JUMPDEST SWAP2 POP POP SWAP3 SWAP2 POP POP JUMP JUMPDEST PUSH0 PUSH0 REVERT JUMPDEST PUSH0 PUSH0 REVERT JUMPDEST PUSH0 PUSH1 0x1F NOT PUSH1 0x1F DUP4 ADD AND SWAP1 POP SWAP2 SWAP1 POP JUMP JUMPDEST PUSH32 0x4E487B7100000000000000000000000000000000000000000000000000000000 PUSH0 MSTORE PUSH1 0x41 PUSH1 0x4 MSTORE PUSH1 0x24 PUSH0 REVERT JUMPDEST PUSH2 0x136 DUP3 PUSH2 0xF0 JUMP JUMPDEST DUP2 ADD DUP2 DUP2 LT PUSH8 0xFFFFFFFFFFFFFFFF DUP3 GT OR ISZERO PUSH2 0x155 JUMPI PUSH2 0x154 PUSH2 0x100 JUMP JUMPDEST JUMPDEST DUP1 PUSH1 0x40 MSTORE POP POP POP JUMP JUMPDEST PUSH0 PUSH2 0x167 PUSH2 0x79 JUMP JUMPDEST SWAP1 POP PUSH2 0x173 DUP3 DUP3 PUSH2 0x12D JUMP JUMPDEST SWAP2 SWAP1 POP JUMP JUMPDEST PUSH0 PUSH8 0xFFFFFFFFFFFFFFFF DUP3 GT ISZERO PUSH2 0x192 JUMPI PUSH2 0x191 PUSH2 0x100 JUMP JUMPDEST JUMPDEST PUSH2 0x19B DUP3 PUSH2 0xF0 JUMP JUMPDEST SWAP1 POP PUSH1 0x20 DUP2 ADD SWAP1 POP SWAP2 SWAP1 POP JUMP JUMPDEST DUP3 DUP2 DUP4 CALLDATACOPY PUSH0 DUP4 DUP4 ADD MSTORE POP POP POP JUMP JUMPDEST PUSH0 PUSH2 0x1C8 PUSH2 0x1C3 DUP5 PUSH2 0x178 JUMP JUMPDEST PUSH2 0x15E JUMP JUMPDEST SWAP1 POP DUP3 DUP2 MSTORE PUSH1 0x20 DUP2 ADD DUP5 DUP5 DUP5 ADD GT ISZERO PUSH2 0x1E4 JUMPI PUSH2 0x1E3 PUSH2 0xEC JUMP JUMPDEST JUMPDEST PUSH2 0x1EF DUP5 DUP3 DUP6 PUSH2 0x1A8 JUMP JUMPDEST POP SWAP4 SWAP3 POP POP POP JUMP JUMPDEST PUSH0 DUP3 PUSH1 0x1F DUP4 ADD SLT PUSH2 0x20B JUMPI PUSH2 0x20A PUSH2 0xE8 JUMP JUMPDEST JUMPDEST DUP2 CALLDATALOAD PUSH2 0x21B DUP5 DUP3 PUSH1 0x20 DUP7 ADD PUSH2 0x1B6 JUMP JUMPDEST SWAP2 POP POP SWAP3 SWAP2 POP POP JUMP JUMPDEST PUSH0 PUSH1 0x20 DUP3 DUP5 SUB SLT ISZERO PUSH2 0x239 JUMPI PUSH2 0x238 PUSH2 0x82 JUMP JUMPDEST JUMPDEST PUSH0 DUP3 ADD CALLDATALOAD PUSH8 0xFFFFFFFFFFFFFFFF DUP2 GT ISZERO PUSH2 0x256 JUMPI PUSH2 0x255 PUSH2 0x86 JUMP JUMPDEST JUMPDEST PUSH2 0x262 DUP5 DUP3 DUP6 ADD PUSH2 0x1F7 JUMP JUMPDEST SWAP2 POP POP SWAP3 SWAP2 POP POP JUMP INVALID LOG2 PUSH5 0x6970667358 0x22 SLT KECCAK256 0x4E DUP9 PUSH11 0x814FEEF125FBDBC1A619A6 DUP10 0x4C JUMP SIGNEXTEND SWAP9 0xB0 0x1F EXTSTATICCALL 0xFC 0xC8 0xE8 PUSH0 PUSH20 0xEAB7CD72FB64736F6C634300081E003300000000 "
		},
		"gasEstimates": {
			"creation": {
				"codeDepositCost": "134600",
				"executionCost": "181",
				"totalCost": "134781"
			},
			"external": {
				"": "130",
				"foo(string)": "infinite",
				"foo(uint256)": "379"
			}
		},
		"methodIdentifiers": {
			"foo(string)": "f31a6969",
			"foo(uint256)": "2fbebd38"
		}
	},
	"abi": [
		{
			"stateMutability": "nonpayable",
			"type": "fallback"
		},
		{
			"inputs": [
				{
					"internalType": "uint256",
					"name": "",
					"type": "uint256"
				}
			],
			"name": "foo",
			"outputs": [],
			"stateMutability": "nonpayable",
			"type": "function"
		},
		{
			"inputs": [
				{
					"internalType": "string",
					"name": "",
					"type": "string"
				}
			],
			"name": "foo",
			"outputs": [],
			"stateMutability": "nonpayable",
			"type": "function"
		}
	]
}