{
	"data": {
		"bytecode": {
			"linkReferences": {},
			"object": "6080604052348015600e575f5ffd5b506109308061001c5f395ff3fe608060405234801561000f575f5ffd5b506004361061003f575f3560e01c8063210871a41461004357806355a7cb871461005f578063a2f9eac61461007b575b5f5ffd5b61005d6004803603810190610058919061049f565b6100ad565b005b610079600480360381019061007491906104e6565b61010e565b005b61009560048036038101906100909190610524565b61013e565b6040516100a4939291906105be565b60405180910390f35b5f81908060018154018082558091505060019003905f5260205f2090600302015f909190919091505f820151815f0190816100e891906107fe565b5060208201518160010190816100fe91906107fe565b5060408201518160020155505050565b5f5f8381548110610122576101216108cd565b5b905f5260205f2090600302019050818160020181905550505050565b5f818154811061014c575f80fd5b905f5260205f2090600302015f91509050805f01805461016b9061062e565b80601f01602080910402602001604051908101604052809291908181526020018280546101979061062e565b80156101e25780601f106101b9576101008083540402835291602001916101e2565b820191905f5260205f20905b8154815290600101906020018083116101c557829003601f168201915b5050505050908060010180546101f79061062e565b80601f01602080910402602001604051908101604052809291908181526020018280546102239061062e565b801561026e5780601f106102455761010080835404028352916020019161026e565b820191905f5260205f20905b81548152906001019060200180831161025157829003601f168201915b5050505050908060020154905083565b5f604051905090565b5f5ffd5b5f5ffd5b5f5ffd5b5f601f19601f8301169050919050565b7f4e487b71000000000000000000000000000000000000000000000000000000005f52604160045260245ffd5b6102d982610293565b810181811067ffffffffffffffff821117156102f8576102f76102a3565b5b80604052505050565b5f61030a61027e565b905061031682826102d0565b919050565b5f5ffd5b5f5ffd5b5f5ffd5b5f67ffffffffffffffff821115610341576103406102a3565b5b61034a82610293565b9050602081019050919050565b828183375f83830152505050565b5f61037761037284610327565b610301565b90508281526020810184848401111561039357610392610323565b5b61039e848285610357565b509392505050565b5f82601f8301126103ba576103b961031f565b5b81356103ca848260208601610365565b91505092915050565b5f819050919050565b6103e5816103d3565b81146103ef575f5ffd5b50565b5f81359050610400816103dc565b92915050565b5f6060828403121561041b5761041a61028f565b5b6104256060610301565b90505f82013567ffffffffffffffff8111156104445761044361031b565b5b610450848285016103a6565b5f83015250602082013567ffffffffffffffff8111156104735761047261031b565b5b61047f848285016103a6565b6020830152506040610493848285016103f2565b60408301525092915050565b5f602082840312156104b4576104b3610287565b5b5f82013567ffffffffffffffff8111156104d1576104d061028b565b5b6104dd84828501610406565b91505092915050565b5f5f604083850312156104fc576104fb610287565b5b5f610509858286016103f2565b925050602061051a858286016103f2565b9150509250929050565b5f6020828403121561053957610538610287565b5b5f610546848285016103f2565b91505092915050565b5f81519050919050565b5f82825260208201905092915050565b8281835e5f83830152505050565b5f6105818261054f565b61058b8185610559565b935061059b818560208601610569565b6105a481610293565b840191505092915050565b6105b8816103d3565b82525050565b5f6060820190508181035f8301526105d68186610577565b905081810360208301526105ea8185610577565b90506105f960408301846105af565b949350505050565b7f4e487b71000000000000000000000000000000000000000000000000000000005f52602260045260245ffd5b5f600282049050600182168061064557607f821691505b60208210810361065857610657610601565b5b50919050565b5f819050815f5260205f209050919050565b5f6020601f8301049050919050565b5f82821b905092915050565b5f600883026106ba7fffffffffffffffffffffffffffffffffffffffffffffffffffffffffffffffff8261067f565b6106c4868361067f565b95508019841693508086168417925050509392505050565b5f819050919050565b5f6106ff6106fa6106f5846103d3565b6106dc565b6103d3565b9050919050565b5f819050919050565b610718836106e5565b61072c61072482610706565b84845461068b565b825550505050565b5f5f905090565b610743610734565b61074e81848461070f565b505050565b5b81811015610771576107665f8261073b565b600181019050610754565b5050565b601f8211156107b6576107878161065e565b61079084610670565b8101602085101561079f578190505b6107b36107ab85610670565b830182610753565b50505b505050565b5f82821c905092915050565b5f6107d65f19846008026107bb565b1980831691505092915050565b5f6107ee83836107c7565b9150826002028217905092915050565b6108078261054f565b67ffffffffffffffff8111156108205761081f6102a3565b5b61082a825461062e565b610835828285610775565b5f60209050601f831160018114610866575f8415610854578287015190505b61085e85826107e3565b8655506108c5565b601f1984166108748661065e565b5f5b8281101561089b57848901518255600182019150602085019450602081019050610876565b868310156108b857848901516108b4601f8916826107c7565b8355505b6001600288020188555050505b505050505050565b7f4e487b71000000000000000000000000000000000000000000000000000000005f52603260045260245ffdfea2646970667358221220915a4a3b2eee985452a8f338177c292ae3a41e4bcb7b8c4f970e79aaad4d18a164736f6c634300081e0033",
			"opcodes": "PUSH1 0x80 PUSH1 0x40 MSTORE CALLVALUE DUP1 ISZERO PUSH1 0xE JUMPI PUSH0 PUSH0 REVERT JUMPDEST POP PUSH2 0x930 DUP1 PUSH2 0x1C PUSH0 CODECOPY PUSH0 RETURN INVALID PUSH1 0x80 PUSH1 0x40 MSTORE CALLVALUE DUP1 ISZERO PUSH2 0xF JUMPI PUSH0 PUSH0 REVERT JUMPDEST POP PUSH1 0x4 CALLDATASIZE LT PUSH2 0x3F JUMPI PUSH0 CALLDATALOAD PUSH1 0xE0 SHR DUP1 PUSH4 0x210871A4 EQ PUSH2 0x43 JUMPI DUP1 PUSH4 0x55A7CB87 EQ PUSH2 0x5F JUMPI DUP1 PUSH4 0xA2F9EAC6 EQ PUSH2 0x7B JUMPI JUMPDEST PUSH0 PUSH0 REVERT JUMPDEST PUSH2 0x5D PUSH1 0x4 DUP1 CALLDATASIZE SUB DUP2 ADD SWAP1 PUSH2 0x58 SWAP2 SWAP1 PUSH2 0x49F JUMP JUMPDEST PUSH2 0xAD JUMP JUMPDEST STOP JUMPDEST PUSH2 0x79 PUSH1 0x4 DUP1 CALLDATASIZE SUB DUP2 ADD SWAP1 PUSH2 0x74 SWAP2 SWAP1 PUSH2 0x4E6 JUMP JUMPDEST PUSH2 0x10E JUMP JUMPDEST STOP JUMPDEST PUSH2 0x95 PUSH1 0x4 DUP1 CALLDATASIZE SUB DUP2 ADD SWAP1 PUSH2 0x90 SWAP2 SWAP1 PUSH2 0x524 JUMP JUMPDEST PUSH2 0x13E JUMP JUMPDEST PUSH1 0x40 MLOAD PUSH2 0xA4 SWAP4 SWAP3 SWAP2 SWAP1 PUSH2 0x5BE JUMP JUMPDEST PUSH1 0x40 MLOAD DUP1 SWAP2 SUB SWAP1 RETURN JUMPDEST PUSH0 DUP2 SWAP1 DUP1 PUSH1 0x1 DUP2 SLOAD ADD DUP1 DUP3 SSTORE DUP1 SWAP2 POP POP PUSH1 0x1 SWAP1 SUB SWAP1 PUSH0 MSTORE PUSH1 0x20 PUSH0 KECCAK256 SWAP1 PUSH1 0x3 MUL ADD PUSH0 SWAP1 SWAP2 SWAP1 SWAP2 SWAP1 SWAP2 POP PUSH0 DUP3 ADD MLOAD DUP2 PUSH0 ADD SWAP1 DUP2 PUSH2 0xE8 SWAP2 SWAP1 PUSH2 0x7FE JUMP JUMPDEST POP PUSH1 0x20 DUP3 ADD MLOAD DUP2 PUSH1 0x1 ADD SWAP1 DUP2 PUSH2 0xFE SWAP2 SWAP1 PUSH2 0x7FE JUMP JUMPDEST POP PUSH1 0x40 DUP3 ADD MLOAD DUP2 PUSH1 0x2 ADD SSTORE POP POP POP JUMP JUMPDEST PUSH0 PUSH0 DUP4 DUP2 SLOAD DUP2 LT PUSH2 0x122 JUMPI PUSH2 0x121 PUSH2 0x8CD JUMP JUMPDEST JUMPDEST SWAP1 PUSH0 MSTORE PUSH1 0x20 PUSH0 KECCAK256 SWAP1 PUSH1 0x3 MUL ADD SWAP1 POP DUP2 DUP2 PUSH1 0x2 ADD DUP2 SWAP1 SSTORE POP POP POP POP JUMP JUMPDEST PUSH0 DUP2 DUP2 SLOAD DUP2 LT PUSH2 0x14C JUMPI PUSH0 DUP1 REVERT JUMPDEST SWAP1 PUSH0 MSTORE PUSH1 0x20 PUSH0 KECCAK256 SWAP1 PUSH1 0x3 MUL ADD PUSH0 SWAP2 POP SWAP1 POP DUP1 PUSH0 ADD DUP1 SLOAD PUSH2 0x16B SWAP1 PUSH2 0x62E JUMP JUMPDEST DUP1 PUSH1 0x1F ADD PUSH1 0x20 DUP1 SWAP2 DIV MUL PUSH1 0x20 ADD PUSH1 0x40 MLOAD SWAP1 DUP2 ADD PUSH1 0x40 MSTORE DUP1 SWAP3 SWAP2 SWAP1 DUP2 DUP2 MSTORE PUSH1 0x20 ADD DUP3 DUP1 SLOAD PUSH2 0x197 SWAP1 PUSH2 0x62E JUMP JUMPDEST DUP1 ISZERO PUSH2 0x1E2 JUMPI DUP1 PUSH1 0x1F LT PUSH2 0x1B9 JUMPI PUSH2 0x100 DUP1 DUP4 SLOAD DIV MUL DUP4 MSTORE SWAP2 PUSH1 0x20 ADD SWAP2 PUSH2 0x1E2 JUMP JUMPDEST DUP3 ADD SWAP2 SWAP1 PUSH0 MSTORE PUSH1 0x20 PUSH0 KECCAK256 SWAP1 JUMPDEST DUP2 SLOAD DUP2 MSTORE SWAP1 PUSH1 0x1 ADD SWAP1 PUSH1 0x20 ADD DUP1 DUP4 GT PUSH2 0x1C5 JUMPI DUP3 SWAP1 SUB PUSH1 0x1F AND DUP3 ADD SWAP2 JUMPDEST POP POP POP POP POP SWAP1 DUP1 PUSH1 0x1 ADD DUP1 SLOAD PUSH2 0x1F7 SWAP1 PUSH2 0x62E JUMP JUMPDEST DUP1 PUSH1 0x1F ADD PUSH1 0x20 DUP1 SWAP2 DIV MUL PUSH1 0x20 ADD PUSH1 0x40 MLOAD SWAP1 DUP2 ADD PUSH1 0x40 MSTORE DUP1 SWAP3 SWAP2 SWAP1 DUP2 DUP2 MSTORE PUSH1 0x20 ADD DUP3 DUP1 SLOAD PUSH2 0x223 SWAP1 PUSH2 0x62E JUMP JUMPDEST DUP1 ISZERO PUSH2 0x26E JUMPI DUP1 PUSH1 0x1F LT PUSH2 0x245 JUMPI PUSH2 0x100 DUP1 DUP4 SLOAD DIV MUL DUP4 MSTORE SWAP2 PUSH1 0x20 ADD SWAP2 PUSH2 0x26E JUMP JUMPDEST DUP3 ADD SWAP2 SWAP1 PUSH0 MSTORE PUSH1 0x20 PUSH0 KECCAK256 SWAP1 JUMPDEST DUP2 SLOAD DUP2 MSTORE SWAP1 PUSH1 0x1 ADD SWAP1 PUSH1 0x20 ADD DUP1 DUP4 GT PUSH2 0x251 JUMPI DUP3 SWAP1 SUB PUSH1 0x1F AND DUP3 ADD SWAP2 JUMPDEST POP POP POP POP POP SWAP1 DUP1 PUSH1 0x2 ADD SLOAD SWAP1 POP DUP4 JUMP JUMPDEST PUSH0 PUSH1 0x40 MLOAD SWAP1 POP SWAP1 JUMP JUMPDEST PUSH0 PUSH0 REVERT JUMPDEST PUSH0 PUSH0 REVERT JUMPDEST PUSH0 PUSH0 REVERT JUMPDEST PUSH0 PUSH1 0x1F NOT PUSH1 0x1F DUP4 ADD AND SWAP1 POP SWAP2 SWAP1 POP JUMP JUMPDEST PUSH32 0x4E487B7100000000000000000000000000000000000000000000000000000000 PUSH0 MSTORE PUSH1 0x41 PUSH1 0x4 MSTORE PUSH1 0x24 PUSH0 REVERT JUMPDEST PUSH2 0x2D9 DUP3 PUSH2 0x293 JUMP JUMPDEST DUP2 ADD DUP2 DUP2 LT PUSH8 0xFFFFFFFFFFFFFFFF DUP3 GT OR ISZERO PUSH2 0x2F8 JUMPI PUSH2 0x2F7 PUSH2 0x2A3 JUMP JUMPDEST JUMPDEST DUP1 PUSH1 0x40 MSTORE POP POP POP JUMP JUMPDEST PUSH0 PUSH2 0x30A PUSH2 0x27E JUMP JUMPDEST SWAP1 POP PUSH2 0x316 DUP3 DUP3 PUSH2 0x2D0 JUMP JUMPDEST SWAP2 SWAP1 POP JUMP JUMPDEST PUSH0 PUSH0 REVERT JUMPDEST PUSH0 PUSH0 REVERT JUMPDEST PUSH0 PUSH0 REVERT JUMPDEST PUSH0 PUSH8 0xFFFFFFFFFFFFFFFF DUP3 GT ISZERO PUSH2 0x341 JUMPI PUSH2 0x340 PUSH2 0x2A3 JUMP JUMPDEST JUMPDEST PUSH2 0x34A DUP3 PUSH2 0x293 JUMP JUMPDEST SWAP1 POP PUSH1 0x20 DUP2 ADD SWAP1 POP SWAP2 SWAP1 POP JUMP JUMPDEST DUP3 DUP2 DUP4 CALLDATACOPY PUSH0 DUP4 DUP4 ADD MSTORE POP POP POP JUMP JUMPDEST PUSH0 PUSH2 0x377 PUSH2 0x372 DUP5 PUSH2 0x327 JUMP JUMPDEST PUSH2 0x301 JUMP JUMPDEST SWAP1 POP DUP3 DUP2 MSTORE PUSH1 0x20 DUP2 ADD DUP5 DUP5 DUP5 ADD GT ISZERO PUSH2 0x393 JUMPI PUSH2 0x392 PUSH2 0x323 JUMP JUMPDEST JUMPDEST PUSH2 0x39E DUP5 DUP3 DUP6 PUSH2 0x357 JUMP JUMPDEST POP SWAP4 SWAP3 POP POP POP JUMP JUMPDEST PUSH0 DUP3 PUSH1 0x1F DUP4 ADD SLT PUSH2 0x3BA JUMPI PUSH2 0x3B9 PUSH2 0x31F JUMP JUMPDEST JUMPDEST DUP2 CALLDATALOAD PUSH2 0x3CA DUP5 DUP3 PUSH1 0x20 DUP7 ADD PUSH2 0x365 JUMP JUMPDEST SWAP2 POP POP SWAP3 SWAP2 POP POP JUMP JUMPDEST PUSH0 DUP2 SWAP1 POP SWAP2 SWAP1 POP JUMP JUMPDEST PUSH2 0x3E5 DUP2 PUSH2 0x3D3 JUMP JUMPDEST DUP2 EQ PUSH2 0x3EF JUMPI PUSH0 PUSH0 REVERT JUMPDEST POP JUMP JUMPDEST PUSH0 DUP2 CALLDATALOAD SWAP1 POP PUSH2 0x400 DUP2 PUSH2 0x3DC JUMP JUMPDEST SWAP3 SWAP2 POP POP JUMP JUMPDEST PUSH0 PUSH1 0x60 DUP3 DUP5 SUB SLT ISZERO PUSH2 0x41B JUMPI PUSH2 0x41A PUSH2 0x28F JUMP JUMPDEST JUMPDEST PUSH2 0x425 PUSH1 0x60 PUSH2 0x301 JUMP JUMPDEST SWAP1 POP PUSH0 DUP3 ADD CALLDATALOAD PUSH8 0xFFFFFFFFFFFFFFFF DUP2 GT ISZERO PUSH2 0x444 JUMPI PUSH2 0x443 PUSH2 0x31B JUMP JUMPDEST JUMPDEST PUSH2 0x450 DUP5 DUP3 DUP6 ADD PUSH2 0x3A6 JUMP JUMPDEST PUSH0 DUP4 ADD MSTORE POP PUSH1 0x20 DUP3 ADD CALLDATALOAD PUSH8 0xFFFFFFFFFFFFFFFF DUP2 GT ISZERO PUSH2 0x473 JUMPI PUSH2 0x472 PUSH2 0x31B JUMP JUMPDEST JUMPDEST PUSH2 0x47F DUP5 DUP3 DUP6 ADD PUSH2 0x3A6 JUMP JUMPDEST PUSH1 0x20 DUP4 ADD MSTORE POP PUSH1 0x40 PUSH2 0x493 DUP5 DUP3 DUP6 ADD PUSH2 0x3F2 JUMP JUMPDEST PUSH1 0x40 DUP4 ADD MSTORE POP SWAP3 SWAP2 POP POP JUMP JUMPDEST PUSH0 PUSH1 0x20 DUP3 DUP5 SUB SLT ISZERO PUSH2 0x4B4 JUMPI PUSH2 0x4B3 PUSH2 0x287 JUMP JUMPDEST JUMPDEST PUSH0 DUP3 ADD CALLDATALOAD PUSH8 0xFFFFFFFFFFFFFFFF DUP2 GT ISZERO PUSH2 0x4D1 JUMPI PUSH2 0x4D0 PUSH2 0x28B JUMP JUMPDEST JUMPDEST PUSH2 0x4DD DUP5 DUP3 DUP6 ADD PUSH2 0x406 JUMP JUMPDEST SWAP2 POP POP SWAP3 SWAP2 POP POP JUMP JUMPDEST PUSH0 PUSH0 PUSH1 0x40 DUP4 DUP6 SUB SLT ISZERO PUSH2 0x4FC JUMPI PUSH2 0x4FB PUSH2 0x287 JUMP JUMPDEST JUMPDEST PUSH0 PUSH2 0x509 DUP6 DUP3 DUP7 ADD PUSH2 0x3F2 JUMP JUMPDEST SWAP3 POP POP PUSH1 0x20 PUSH2 0x51A DUP6 DUP3 DUP7 ADD PUSH2 0x3F2 JUMP JUMPDEST SWAP2 POP POP SWAP3 POP SWAP3 SWAP1 POP JUMP JUMPDEST PUSH0 PUSH1 0x20 DUP3 DUP5 SUB SLT ISZERO PUSH2 0x539 JUMPI PUSH2 0x538 PUSH2 0x287 JUMP JUMPDEST JUMPDEST PUSH0 PUSH2 0x546 DUP5 DUP3 DUP6 ADD PUSH2 0x3F2 JUMP JUMPDEST SWAP2 POP POP SWAP3 SWAP2 POP POP JUMP JUMPDEST PUSH0 DUP2 MLOAD SWAP1 POP SWAP2 SWAP1 POP JUMP JUMPDEST PUSH0 DUP3 DUP3 MSTORE PUSH1 0x20 DUP3 ADD SWAP1 POP SWAP3 SWAP2 POP POP JUMP JUMPDEST DUP3 DUP2 DUP4 MCOPY PUSH0 DUP4 DUP4 ADD MSTORE POP POP POP JUMP JUMPDEST PUSH0 PUSH2 0x581 DUP3 PUSH2 0x54F JUMP JUMPDEST PUSH2 0x58B DUP2 DUP6 PUSH2 0x559 JUMP JUMPDEST SWAP4 POP PUSH2 0x59B DUP2 DUP6 PUSH1 0x20 DUP7 ADD PUSH2 0x569 JUMP JUMPDEST PUSH2 0x5A4 DUP2 PUSH2 0x293 JUMP JUMPDEST DUP5 ADD SWAP2 POP POP SWAP3 SWAP2 POP POP JUMP JUMPDEST PUSH2 0x5B8 DUP2 PUSH2 0x3D3 JUMP JUMPDEST DUP3 MSTORE POP POP JUMP JUMPDEST PUSH0 PUSH1 0x60 DUP3 ADD SWAP1 POP DUP2 DUP2 SUB PUSH0 DUP4 ADD MSTORE PUSH2 0x5D6 DUP2 DUP7 PUSH2 0x577 JUMP JUMPDEST SWAP1 POP DUP2 DUP2 SUB PUSH1 0x20 DUP4 ADD MSTORE PUSH2 0x5EA DUP2 DUP6 PUSH2 0x577 JUMP JUMPDEST SWAP1 POP PUSH2 0x5F9 PUSH1 0x40 DUP4 ADD DUP5 PUSH2 0x5AF JUMP JUMPDEST SWAP5 SWAP4 POP POP POP POP JUMP JUMPDEST PUSH32 0x4E487B7100000000000000000000000000000000000000000000000000000000 PUSH0 MSTORE PUSH1 0x22 PUSH1 0x4 MSTORE PUSH1 0x24 PUSH0 REVERT JUMPDEST PUSH0 PUSH1 0x2 DUP3 DIV SWAP1 POP PUSH1 0x1 DUP3 AND DUP1 PUSH2 0x645 JUMPI PUSH1 0x7F DUP3 AND SWAP2 POP JUMPDEST PUSH1 0x20 DUP3 LT DUP2 SUB PUSH2 0x658 JUMPI PUSH2 0x657 PUSH2 0x601 JUMP JUMPDEST JUMPDEST POP SWAP2 SWAP1 POP JUMP JUMPDEST PUSH0 DUP2 SWAP1 POP DUP2 PUSH0 MSTORE PUSH1 0x20 PUSH0 KECCAK256 SWAP1 POP SWAP2 SWAP1 POP JUMP JUMPDEST PUSH0 PUSH1 0x20 PUSH1 0x1F DUP4 ADD DIV SWAP1 POP SWAP2 SWAP1 POP JUMP JUMPDEST PUSH0 DUP3 DUP3 SHL SWAP1 POP SWAP3 SWAP2 POP POP JUMP JUMPDEST PUSH0 PUSH1 0x8 DUP4 MUL PUSH2 0x6BA PUSH32 0xFFFFFFFFFFFFFFFFFFFFFFFFFFFFFFFFFFFFFFFFFFFFFFFFFFFFFFFFFFFFFFFF DUP3 PUSH2 0x67F JUMP JUMPDEST PUSH2 0x6C4 DUP7 DUP4 PUSH2 0x67F JUMP JUMPDEST SWAP6 POP DUP1 NOT DUP5 AND SWAP4 POP DUP1 DUP7 AND DUP5 OR SWAP3 POP POP POP SWAP4 SWAP3 POP POP POP JUMP JUMPDEST PUSH0 DUP2 SWAP1 POP SWAP2 SWAP1 POP JUMP JUMPDEST PUSH0 PUSH2 0x6FF PUSH2 0x6FA PUSH2 0x6F5 DUP5 PUSH2 0x3D3 JUMP JUMPDEST PUSH2 0x6DC JUMP JUMPDEST PUSH2 0x3D3 JUMP JUMPDEST SWAP1 POP SWAP2 SWAP1 POP JUMP JUMPDEST PUSH0 DUP2 SWAP1 POP SWAP2 SWAP1 POP JUMP JUMPDEST PUSH2 0x718 DUP4 PUSH2 0x6E5 JUMP JUMPDEST PUSH2 0x72C PUSH2 0x724 DUP3 PUSH2 0x706 JUMP JUMPDEST DUP5 DUP5 SLOAD PUSH2 0x68B JUMP JUMPDEST DUP3 SSTORE POP POP POP POP JUMP JUMPDEST PUSH0 PUSH0 SWAP1 POP SWAP1 JUMP JUMPDEST PUSH2 0x743 PUSH2 0x734 JUMP JUMPDEST PUSH2 0x74E DUP2 DUP5 DUP5 PUSH2 0x70F JUMP JUMPDEST POP POP POP JUMP JUMPDEST JUMPDEST DUP2 DUP2 LT ISZERO PUSH2 0x771 JUMPI PUSH2 0x766 PUSH0 DUP3 PUSH2 0x73B JUMP JUMPDEST PUSH1 0x1 DUP2 ADD SWAP1 POP PUSH2 0x754 JUMP JUMPDEST POP POP JUMP JUMPDEST PUSH1 0x1F DUP3 GT ISZERO PUSH2 0x7B6 JUMPI PUSH2 0x787 DUP2 PUSH2 0x65E JUMP JUMPDEST PUSH2 0x790 DUP5 PUSH2 0x670 JUMP JUMPDEST DUP2 ADD PUSH1 0x20 DUP6 LT ISZERO PUSH2 0x79F JUMPI DUP2 SWAP1 POP JUMPDEST PUSH2 0x7B3 PUSH2 0x7AB DUP6 PUSH2 0x670 JUMP JUMPDEST DUP4 ADD DUP3 PUSH2 0x753 JUMP JUMPDEST POP POP JUMPDEST POP POP POP JUMP JUMPDEST PUSH0 DUP3 DUP3 SHR SWAP1 POP SWAP3 SWAP2 POP POP JUMP JUMPDEST PUSH0 PUSH2 0x7D6 PUSH0 NOT DUP5 PUSH1 0x8 MUL PUSH2 0x7BB JUMP JUMPDEST NOT DUP1 DUP4 AND SWAP2 POP POP SWAP3 SWAP2 POP POP JUMP JUMPDEST PUSH0 PUSH2 0x7EE DUP4 DUP4 PUSH2 0x7C7 JUMP JUMPDEST SWAP2 POP DUP3 PUSH1 0x2 MUL DUP3 OR SWAP1 POP SWAP3 SWAP2 POP POP JUMP JUMPDEST PUSH2 0x807 DUP3 PUSH2 0x54F JUMP JUMPDEST PUSH8 0xFFFFFFFFFFFFFFFF DUP2 GT ISZERO PUSH2 0x820 JUMPI PUSH2 0x81F PUSH2 0x2A3 JUMP JUMPDEST JUMPDEST PUSH2 0x82A DUP3 SLOAD PUSH2 0x62E JUMP JUMPDEST PUSH2 0x835 DUP3 DUP3 DUP6 PUSH2 0x775 JUMP JUMPDEST PUSH0 PUSH1 0x20 SWAP1 POP PUSH1 0x1F DUP4 GT PUSH1 0x1 DUP2 EQ PUSH2 0x866 JUMPI PUSH0 DUP5 ISZERO PUSH2 0x854 JUMPI DUP3 DUP8 ADD MLOAD SWAP1 POP JUMPDEST PUSH2 0x85E DUP6 DUP3 PUSH2 0x7E3 JUMP JUMPDEST DUP7 SSTORE POP PUSH2 0x8C5 JUMP JUMPDEST PUSH1 0x1F NOT DUP5 AND PUSH2 0x874 DUP7 PUSH2 0x65E JUMP JUMPDEST PUSH0 JUMPDEST DUP3 DUP2 LT ISZERO PUSH2 0x89B JUMPI DUP5 DUP10 ADD MLOAD DUP3 SSTORE PUSH1 0x1 DUP3 ADD SWAP2 POP PUSH1 0x20 DUP6 ADD SWAP5 POP PUSH1 0x20 DUP2 ADD SWAP1 POP PUSH2 0x876 JUMP JUMPDEST DUP7 DUP4 LT ISZERO PUSH2 0x8B8 JUMPI DUP5 DUP10 ADD MLOAD PUSH2 0x8B4 PUSH1 0x1F DUP10 AND DUP3 PUSH2 0x7C7 JUMP JUMPDEST DUP4 SSTORE POP JUMPDEST PUSH1 0x1 PUSH1 0x2 DUP9 MUL ADD DUP9 SSTORE POP POP POP JUMPDEST POP POP POP POP POP POP JUMP JUMPDEST PUSH32 0x4E487B7100000000000000000000000000000000000000000000000000000000 PUSH0 MSTORE PUSH1 0x32 PUSH1 0x4 MSTORE PUSH1 0x24 PUSH0 REVERT INVALID LOG2 PUSH5 0x6970667358 0x22 SLT KECCAK256 SWAP2 GAS BLOBBASEFEE EXTCODESIZE 0x2E RETURNCONTRACT 0x98 SLOAD MSTORE 0xA8 RETURN CODESIZE OR PUSH29 0x292AE3A41E4BCB7B8C4F970E79AAAD4D18A164736F6C634300081E0033 "
		},
		"gasEstimates": {
			"creation": {
				"codeDepositCost": "470400",
				"executionCost": "503",
				"totalCost": "470903"
			},
			"external": {
				"ChangeAge(uint256,uint256)": "infinite",
				"addperson((string,string,uint256))": "infinite",
				"persons(uint256)": "infinite"
			}
		},
		"methodIdentifiers": {
			"ChangeAge(uint256,uint256)": "55a7cb87",
			"addperson((string,string,uint256))": "210871a4",
			"persons(uint256)": "a2f9eac6"
		}
	},
	"abi": [
		{
			"inputs": [
				{
					"internalType": "uint256",
					"name": "_indice",
					"type": "uint256"
				},
				{
					"internalType": "uint256",
					"name": "_NovaIdade",
					"type": "uint256"
				}
			],
			"name": "ChangeAge",
			"outputs": [],
			"stateMutability": "nonpayable",
			"type": "function"
		},
		{
			"inputs": [
				{
					"components": [
						{
							"internalType": "string",
							"name": "nome",
							"type": "string"
						},
						{
							"internalType": "string",
							"name": "sobrenome",
							"type": "string"
						},
						{
							"internalType": "uint256",
							"name": "idade",
							"type": "uint256"
						}
					],
					"internalType": "struct persson.Person",
					"name": "_person",
					"type": "tuple"
				}
			],
			"name": "addperson",
			"outputs": [],
			"stateMutability": "nonpayable",
			"type": "function"
		},
		{
			"inputs": [
				{
					"internalType": "uint256",
					"name": "",
					"type": "uint256"
				}
			],
			"name": "persons",
			"outputs": [
				{
					"internalType": "string",
					"name": "nome",
					"type": "string"
				},
				{
					"internalType": "string",
					"name": "sobrenome",
					"type": "string"
				},
				{
					"internalType": "uint256",
					"name": "idade",
					"type": "uint256"
				}
			],
			"stateMutability": "view",
			"type": "function"
		}
	]
}