{
	"data": {
		"bytecode": {
			"linkReferences": {},
			"object": "6080604052348015600e575f5ffd5b5061055a8061001c5f395ff3fe608060405234801561000f575f5ffd5b5060043610610034575f3560e01c80634795b38a14610038578063611af46914610068575b5f5ffd5b610052600480360381019061004d919061027a565b610098565b60405161005f91906102d9565b60405180910390f35b610082600480360381019061007d9190610371565b6100d3565b60405161008f9190610414565b60405180910390f35b5f5f82805190602001209050806040516020016100b591906104a1565b60405160208183030381529060405280519060200120915050919050565b5f6001858560f81c85856040515f81526020016040526040516100f994939291906104e1565b6020604051602081039080840390855afa158015610119573d5f5f3e3d5ffd5b505050602060405103519050949350505050565b5f604051905090565b5f5ffd5b5f5ffd5b5f5ffd5b5f5ffd5b5f601f19601f8301169050919050565b7f4e487b71000000000000000000000000000000000000000000000000000000005f52604160045260245ffd5b61018c82610146565b810181811067ffffffffffffffff821117156101ab576101aa610156565b5b80604052505050565b5f6101bd61012d565b90506101c98282610183565b919050565b5f67ffffffffffffffff8211156101e8576101e7610156565b5b6101f182610146565b9050602081019050919050565b828183375f83830152505050565b5f61021e610219846101ce565b6101b4565b90508281526020810184848401111561023a57610239610142565b5b6102458482856101fe565b509392505050565b5f82601f8301126102615761026061013e565b5b813561027184826020860161020c565b91505092915050565b5f6020828403121561028f5761028e610136565b5b5f82013567ffffffffffffffff8111156102ac576102ab61013a565b5b6102b88482850161024d565b91505092915050565b5f819050919050565b6102d3816102c1565b82525050565b5f6020820190506102ec5f8301846102ca565b92915050565b6102fb816102c1565b8114610305575f5ffd5b50565b5f81359050610316816102f2565b92915050565b5f7fff0000000000000000000000000000000000000000000000000000000000000082169050919050565b6103508161031c565b811461035a575f5ffd5b50565b5f8135905061036b81610347565b92915050565b5f5f5f5f6080858703121561038957610388610136565b5b5f61039687828801610308565b94505060206103a78782880161035d565b93505060406103b887828801610308565b92505060606103c987828801610308565b91505092959194509250565b5f73ffffffffffffffffffffffffffffffffffffffff82169050919050565b5f6103fe826103d5565b9050919050565b61040e816103f4565b82525050565b5f6020820190506104275f830184610405565b92915050565b5f81905092915050565b7f19457468657265756d205369676e6564204d6573736167653a0a3332000000005f82015250565b5f61046b601c8361042d565b915061047682610437565b601c82019050919050565b5f819050919050565b61049b610496826102c1565b610481565b82525050565b5f6104ab8261045f565b91506104b7828461048a565b60208201915081905092915050565b5f60ff82169050919050565b6104db816104c6565b82525050565b5f6080820190506104f45f8301876102ca565b61050160208301866104d2565b61050e60408301856102ca565b61051b60608301846102ca565b9594505050505056fea2646970667358221220165e6b7d46512f932df26b124da4563b7f003b467be8339b0c28023244c8d4b764736f6c634300081e0033",
			"opcodes": "PUSH1 0x80 PUSH1 0x40 MSTORE CALLVALUE DUP1 ISZERO PUSH1 0xE JUMPI PUSH0 PUSH0 REVERT JUMPDEST POP PUSH2 0x55A DUP1 PUSH2 0x1C PUSH0 CODECOPY PUSH0 RETURN INVALID PUSH1 0x80 PUSH1 0x40 MSTORE CALLVALUE DUP1 ISZERO PUSH2 0xF JUMPI PUSH0 PUSH0 REVERT JUMPDEST POP PUSH1 0x4 CALLDATASIZE LT PUSH2 0x34 JUMPI PUSH0 CALLDATALOAD PUSH1 0xE0 SHR DUP1 PUSH4 0x4795B38A EQ PUSH2 0x38 JUMPI DUP1 PUSH4 0x611AF469 EQ PUSH2 0x68 JUMPI JUMPDEST PUSH0 PUSH0 REVERT JUMPDEST PUSH2 0x52 PUSH1 0x4 DUP1 CALLDATASIZE SUB DUP2 ADD SWAP1 PUSH2 0x4D SWAP2 SWAP1 PUSH2 0x27A JUMP JUMPDEST PUSH2 0x98 JUMP JUMPDEST PUSH1 0x40 MLOAD PUSH2 0x5F SWAP2 SWAP1 PUSH2 0x2D9 JUMP JUMPDEST PUSH1 0x40 MLOAD DUP1 SWAP2 SUB SWAP1 RETURN JUMPDEST PUSH2 0x82 PUSH1 0x4 DUP1 CALLDATASIZE SUB DUP2 ADD SWAP1 PUSH2 0x7D SWAP2 SWAP1 PUSH2 0x371 JUMP JUMPDEST PUSH2 0xD3 JUMP JUMPDEST PUSH1 0x40 MLOAD PUSH2 0x8F SWAP2 SWAP1 PUSH2 0x414 JUMP JUMPDEST PUSH1 0x40 MLOAD DUP1 SWAP2 SUB SWAP1 RETURN JUMPDEST PUSH0 PUSH0 DUP3 DUP1 MLOAD SWAP1 PUSH1 0x20 ADD KECCAK256 SWAP1 POP DUP1 PUSH1 0x40 MLOAD PUSH1 0x20 ADD PUSH2 0xB5 SWAP2 SWAP1 PUSH2 0x4A1 JUMP JUMPDEST PUSH1 0x40 MLOAD PUSH1 0x20 DUP2 DUP4 SUB SUB DUP2 MSTORE SWAP1 PUSH1 0x40 MSTORE DUP1 MLOAD SWAP1 PUSH1 0x20 ADD KECCAK256 SWAP2 POP POP SWAP2 SWAP1 POP JUMP JUMPDEST PUSH0 PUSH1 0x1 DUP6 DUP6 PUSH1 0xF8 SHR DUP6 DUP6 PUSH1 0x40 MLOAD PUSH0 DUP2 MSTORE PUSH1 0x20 ADD PUSH1 0x40 MSTORE PUSH1 0x40 MLOAD PUSH2 0xF9 SWAP5 SWAP4 SWAP3 SWAP2 SWAP1 PUSH2 0x4E1 JUMP JUMPDEST PUSH1 0x20 PUSH1 0x40 MLOAD PUSH1 0x20 DUP2 SUB SWAP1 DUP1 DUP5 SUB SWAP1 DUP6 GAS STATICCALL ISZERO DUP1 ISZERO PUSH2 0x119 JUMPI RETURNDATASIZE PUSH0 PUSH0 RETURNDATACOPY RETURNDATASIZE PUSH0 REVERT JUMPDEST POP POP POP PUSH1 0x20 PUSH1 0x40 MLOAD SUB MLOAD SWAP1 POP SWAP5 SWAP4 POP POP POP POP JUMP JUMPDEST PUSH0 PUSH1 0x40 MLOAD SWAP1 POP SWAP1 JUMP JUMPDEST PUSH0 PUSH0 REVERT JUMPDEST PUSH0 PUSH0 REVERT JUMPDEST PUSH0 PUSH0 REVERT JUMPDEST PUSH0 PUSH0 REVERT JUMPDEST PUSH0 PUSH1 0x1F NOT PUSH1 0x1F DUP4 ADD AND SWAP1 POP SWAP2 SWAP1 POP JUMP JUMPDEST PUSH32 0x4E487B7100000000000000000000000000000000000000000000000000000000 PUSH0 MSTORE PUSH1 0x41 PUSH1 0x4 MSTORE PUSH1 0x24 PUSH0 REVERT JUMPDEST PUSH2 0x18C DUP3 PUSH2 0x146 JUMP JUMPDEST DUP2 ADD DUP2 DUP2 LT PUSH8 0xFFFFFFFFFFFFFFFF DUP3 GT OR ISZERO PUSH2 0x1AB JUMPI PUSH2 0x1AA PUSH2 0x156 JUMP JUMPDEST JUMPDEST DUP1 PUSH1 0x40 MSTORE POP POP POP JUMP JUMPDEST PUSH0 PUSH2 0x1BD PUSH2 0x12D JUMP JUMPDEST SWAP1 POP PUSH2 0x1C9 DUP3 DUP3 PUSH2 0x183 JUMP JUMPDEST SWAP2 SWAP1 POP JUMP JUMPDEST PUSH0 PUSH8 0xFFFFFFFFFFFFFFFF DUP3 GT ISZERO PUSH2 0x1E8 JUMPI PUSH2 0x1E7 PUSH2 0x156 JUMP JUMPDEST JUMPDEST PUSH2 0x1F1 DUP3 PUSH2 0x146 JUMP JUMPDEST SWAP1 POP PUSH1 0x20 DUP2 ADD SWAP1 POP SWAP2 SWAP1 POP JUMP JUMPDEST DUP3 DUP2 DUP4 CALLDATACOPY PUSH0 DUP4 DUP4 ADD MSTORE POP POP POP JUMP JUMPDEST PUSH0 PUSH2 0x21E PUSH2 0x219 DUP5 PUSH2 0x1CE JUMP JUMPDEST PUSH2 0x1B4 JUMP JUMPDEST SWAP1 POP DUP3 DUP2 MSTORE PUSH1 0x20 DUP2 ADD DUP5 DUP5 DUP5 ADD GT ISZERO PUSH2 0x23A JUMPI PUSH2 0x239 PUSH2 0x142 JUMP JUMPDEST JUMPDEST PUSH2 0x245 DUP5 DUP3 DUP6 PUSH2 0x1FE JUMP JUMPDEST POP SWAP4 SWAP3 POP POP POP JUMP JUMPDEST PUSH0 DUP3 PUSH1 0x1F DUP4 ADD SLT PUSH2 0x261 JUMPI PUSH2 0x260 PUSH2 0x13E JUMP JUMPDEST JUMPDEST DUP2 CALLDATALOAD PUSH2 0x271 DUP5 DUP3 PUSH1 0x20 DUP7 ADD PUSH2 0x20C JUMP JUMPDEST SWAP2 POP POP SWAP3 SWAP2 POP POP JUMP JUMPDEST PUSH0 PUSH1 0x20 DUP3 DUP5 SUB SLT ISZERO PUSH2 0x28F JUMPI PUSH2 0x28E PUSH2 0x136 JUMP JUMPDEST JUMPDEST PUSH0 DUP3 ADD CALLDATALOAD PUSH8 0xFFFFFFFFFFFFFFFF DUP2 GT ISZERO PUSH2 0x2AC JUMPI PUSH2 0x2AB PUSH2 0x13A JUMP JUMPDEST JUMPDEST PUSH2 0x2B8 DUP5 DUP3 DUP6 ADD PUSH2 0x24D JUMP JUMPDEST SWAP2 POP POP SWAP3 SWAP2 POP POP JUMP JUMPDEST PUSH0 DUP2 SWAP1 POP SWAP2 SWAP1 POP JUMP JUMPDEST PUSH2 0x2D3 DUP2 PUSH2 0x2C1 JUMP JUMPDEST DUP3 MSTORE POP POP JUMP JUMPDEST PUSH0 PUSH1 0x20 DUP3 ADD SWAP1 POP PUSH2 0x2EC PUSH0 DUP4 ADD DUP5 PUSH2 0x2CA JUMP JUMPDEST SWAP3 SWAP2 POP POP JUMP JUMPDEST PUSH2 0x2FB DUP2 PUSH2 0x2C1 JUMP JUMPDEST DUP2 EQ PUSH2 0x305 JUMPI PUSH0 PUSH0 REVERT JUMPDEST POP JUMP JUMPDEST PUSH0 DUP2 CALLDATALOAD SWAP1 POP PUSH2 0x316 DUP2 PUSH2 0x2F2 JUMP JUMPDEST SWAP3 SWAP2 POP POP JUMP JUMPDEST PUSH0 PUSH32 0xFF00000000000000000000000000000000000000000000000000000000000000 DUP3 AND SWAP1 POP SWAP2 SWAP1 POP JUMP JUMPDEST PUSH2 0x350 DUP2 PUSH2 0x31C JUMP JUMPDEST DUP2 EQ PUSH2 0x35A JUMPI PUSH0 PUSH0 REVERT JUMPDEST POP JUMP JUMPDEST PUSH0 DUP2 CALLDATALOAD SWAP1 POP PUSH2 0x36B DUP2 PUSH2 0x347 JUMP JUMPDEST SWAP3 SWAP2 POP POP JUMP JUMPDEST PUSH0 PUSH0 PUSH0 PUSH0 PUSH1 0x80 DUP6 DUP8 SUB SLT ISZERO PUSH2 0x389 JUMPI PUSH2 0x388 PUSH2 0x136 JUMP JUMPDEST JUMPDEST PUSH0 PUSH2 0x396 DUP8 DUP3 DUP9 ADD PUSH2 0x308 JUMP JUMPDEST SWAP5 POP POP PUSH1 0x20 PUSH2 0x3A7 DUP8 DUP3 DUP9 ADD PUSH2 0x35D JUMP JUMPDEST SWAP4 POP POP PUSH1 0x40 PUSH2 0x3B8 DUP8 DUP3 DUP9 ADD PUSH2 0x308 JUMP JUMPDEST SWAP3 POP POP PUSH1 0x60 PUSH2 0x3C9 DUP8 DUP3 DUP9 ADD PUSH2 0x308 JUMP JUMPDEST SWAP2 POP POP SWAP3 SWAP6 SWAP2 SWAP5 POP SWAP3 POP JUMP JUMPDEST PUSH0 PUSH20 0xFFFFFFFFFFFFFFFFFFFFFFFFFFFFFFFFFFFFFFFF DUP3 AND SWAP1 POP SWAP2 SWAP1 POP JUMP JUMPDEST PUSH0 PUSH2 0x3FE DUP3 PUSH2 0x3D5 JUMP JUMPDEST SWAP1 POP SWAP2 SWAP1 POP JUMP JUMPDEST PUSH2 0x40E DUP2 PUSH2 0x3F4 JUMP JUMPDEST DUP3 MSTORE POP POP JUMP JUMPDEST PUSH0 PUSH1 0x20 DUP3 ADD SWAP1 POP PUSH2 0x427 PUSH0 DUP4 ADD DUP5 PUSH2 0x405 JUMP JUMPDEST SWAP3 SWAP2 POP POP JUMP JUMPDEST PUSH0 DUP2 SWAP1 POP SWAP3 SWAP2 POP POP JUMP JUMPDEST PUSH32 0x19457468657265756D205369676E6564204D6573736167653A0A333200000000 PUSH0 DUP3 ADD MSTORE POP JUMP JUMPDEST PUSH0 PUSH2 0x46B PUSH1 0x1C DUP4 PUSH2 0x42D JUMP JUMPDEST SWAP2 POP PUSH2 0x476 DUP3 PUSH2 0x437 JUMP JUMPDEST PUSH1 0x1C DUP3 ADD SWAP1 POP SWAP2 SWAP1 POP JUMP JUMPDEST PUSH0 DUP2 SWAP1 POP SWAP2 SWAP1 POP JUMP JUMPDEST PUSH2 0x49B PUSH2 0x496 DUP3 PUSH2 0x2C1 JUMP JUMPDEST PUSH2 0x481 JUMP JUMPDEST DUP3 MSTORE POP POP JUMP JUMPDEST PUSH0 PUSH2 0x4AB DUP3 PUSH2 0x45F JUMP JUMPDEST SWAP2 POP PUSH2 0x4B7 DUP3 DUP5 PUSH2 0x48A JUMP JUMPDEST PUSH1 0x20 DUP3 ADD SWAP2 POP DUP2 SWAP1 POP SWAP3 SWAP2 POP POP JUMP JUMPDEST PUSH0 PUSH1 0xFF DUP3 AND SWAP1 POP SWAP2 SWAP1 POP JUMP JUMPDEST PUSH2 0x4DB DUP2 PUSH2 0x4C6 JUMP JUMPDEST DUP3 MSTORE POP POP JUMP JUMPDEST PUSH0 PUSH1 0x80 DUP3 ADD SWAP1 POP PUSH2 0x4F4 PUSH0 DUP4 ADD DUP8 PUSH2 0x2CA JUMP JUMPDEST PUSH2 0x501 PUSH1 0x20 DUP4 ADD DUP7 PUSH2 0x4D2 JUMP JUMPDEST PUSH2 0x50E PUSH1 0x40 DUP4 ADD DUP6 PUSH2 0x2CA JUMP JUMPDEST PUSH2 0x51B PUSH1 0x60 DUP4 ADD DUP5 PUSH2 0x2CA JUMP JUMPDEST SWAP6 SWAP5 POP POP POP POP POP JUMP INVALID LOG2 PUSH5 0x6970667358 0x22 SLT KECCAK256 AND MCOPY PUSH12 0x7D46512F932DF26B124DA456 EXTCODESIZE PUSH32 0x3B467BE8339B0C28023244C8D4B764736F6C634300081E0033000000000000 "
		},
		"gasEstimates": {
			"creation": {
				"codeDepositCost": "274000",
				"executionCost": "310",
				"totalCost": "274310"
			},
			"external": {
				"geraHashFinal(string)": "infinite",
				"recupera(bytes32,bytes1,bytes32,bytes32)": "infinite"
			}
		},
		"methodIdentifiers": {
			"geraHashFinal(string)": "4795b38a",
			"recupera(bytes32,bytes1,bytes32,bytes32)": "611af469"
		}
	},
	"abi": [
		{
			"inputs": [
				{
					"internalType": "string",
					"name": "mensagem",
					"type": "string"
				}
			],
			"name": "geraHashFinal",
			"outputs": [
				{
					"internalType": "bytes32",
					"name": "",
					"type": "bytes32"
				}
			],
			"stateMutability": "pure",
			"type": "function"
		},
		{
			"inputs": [
				{
					"internalType": "bytes32",
					"name": "hash",
					"type": "bytes32"
				},
				{
					"internalType": "bytes1",
					"name": "v",
					"type": "bytes1"
				},
				{
					"internalType": "bytes32",
					"name": "r",
					"type": "bytes32"
				},
				{
					"internalType": "bytes32",
					"name": "s",
					"type": "bytes32"
				}
			],
			"name": "recupera",
			"outputs": [
				{
					"internalType": "address",
					"name": "",
					"type": "address"
				}
			],
			"stateMutability": "pure",
			"type": "function"
		}
	]
}