{
	"data": {
		"bytecode": {
			"linkReferences": {},
			"object": "6080604052348015600e575f5ffd5b506101d38061001c5f395ff3fe608060405234801561000f575f5ffd5b506004361061004a575f3560e01c8063087077d91461004e5780631ebf89d71461006c57806339d175441461008b578063d46854d9146100a9575b5f5ffd5b6100566100c5565b6040516100639190610104565b60405180910390f35b6100746100cd565b60405161008292919061011d565b60405180910390f35b6100936100db565b6040516100a09190610104565b60405180910390f35b6100c360048036038101906100be9190610172565b6100e3565b005b5f5f54905090565b5f5f5f545f54915091509091565b5f5f54905090565b805f8190555050565b5f819050919050565b6100fe816100ec565b82525050565b5f6020820190506101175f8301846100f5565b92915050565b5f6040820190506101305f8301856100f5565b61013d60208301846100f5565b9392505050565b5f5ffd5b610151816100ec565b811461015b575f5ffd5b50565b5f8135905061016c81610148565b92915050565b5f6020828403121561018757610186610144565b5b5f6101948482850161015e565b9150509291505056fea2646970667358221220896ff80b5513b3be97be45c3870913eb36782b0da8da2ee6240a218e4cf69a7864736f6c634300081e0033",
			"opcodes": "PUSH1 0x80 PUSH1 0x40 MSTORE CALLVALUE DUP1 ISZERO PUSH1 0xE JUMPI PUSH0 PUSH0 REVERT JUMPDEST POP PUSH2 0x1D3 DUP1 PUSH2 0x1C PUSH0 CODECOPY PUSH0 RETURN INVALID PUSH1 0x80 PUSH1 0x40 MSTORE CALLVALUE DUP1 ISZERO PUSH2 0xF JUMPI PUSH0 PUSH0 REVERT JUMPDEST POP PUSH1 0x4 CALLDATASIZE LT PUSH2 0x4A JUMPI PUSH0 CALLDATALOAD PUSH1 0xE0 SHR DUP1 PUSH4 0x87077D9 EQ PUSH2 0x4E JUMPI DUP1 PUSH4 0x1EBF89D7 EQ PUSH2 0x6C JUMPI DUP1 PUSH4 0x39D17544 EQ PUSH2 0x8B JUMPI DUP1 PUSH4 0xD46854D9 EQ PUSH2 0xA9 JUMPI JUMPDEST PUSH0 PUSH0 REVERT JUMPDEST PUSH2 0x56 PUSH2 0xC5 JUMP JUMPDEST PUSH1 0x40 MLOAD PUSH2 0x63 SWAP2 SWAP1 PUSH2 0x104 JUMP JUMPDEST PUSH1 0x40 MLOAD DUP1 SWAP2 SUB SWAP1 RETURN JUMPDEST PUSH2 0x74 PUSH2 0xCD JUMP JUMPDEST PUSH1 0x40 MLOAD PUSH2 0x82 SWAP3 SWAP2 SWAP1 PUSH2 0x11D JUMP JUMPDEST PUSH1 0x40 MLOAD DUP1 SWAP2 SUB SWAP1 RETURN JUMPDEST PUSH2 0x93 PUSH2 0xDB JUMP JUMPDEST PUSH1 0x40 MLOAD PUSH2 0xA0 SWAP2 SWAP1 PUSH2 0x104 JUMP JUMPDEST PUSH1 0x40 MLOAD DUP1 SWAP2 SUB SWAP1 RETURN JUMPDEST PUSH2 0xC3 PUSH1 0x4 DUP1 CALLDATASIZE SUB DUP2 ADD SWAP1 PUSH2 0xBE SWAP2 SWAP1 PUSH2 0x172 JUMP JUMPDEST PUSH2 0xE3 JUMP JUMPDEST STOP JUMPDEST PUSH0 PUSH0 SLOAD SWAP1 POP SWAP1 JUMP JUMPDEST PUSH0 PUSH0 PUSH0 SLOAD PUSH0 SLOAD SWAP2 POP SWAP2 POP SWAP1 SWAP2 JUMP JUMPDEST PUSH0 PUSH0 SLOAD SWAP1 POP SWAP1 JUMP JUMPDEST DUP1 PUSH0 DUP2 SWAP1 SSTORE POP POP JUMP JUMPDEST PUSH0 DUP2 SWAP1 POP SWAP2 SWAP1 POP JUMP JUMPDEST PUSH2 0xFE DUP2 PUSH2 0xEC JUMP JUMPDEST DUP3 MSTORE POP POP JUMP JUMPDEST PUSH0 PUSH1 0x20 DUP3 ADD SWAP1 POP PUSH2 0x117 PUSH0 DUP4 ADD DUP5 PUSH2 0xF5 JUMP JUMPDEST SWAP3 SWAP2 POP POP JUMP JUMPDEST PUSH0 PUSH1 0x40 DUP3 ADD SWAP1 POP PUSH2 0x130 PUSH0 DUP4 ADD DUP6 PUSH2 0xF5 JUMP JUMPDEST PUSH2 0x13D PUSH1 0x20 DUP4 ADD DUP5 PUSH2 0xF5 JUMP JUMPDEST SWAP4 SWAP3 POP POP POP JUMP JUMPDEST PUSH0 PUSH0 REVERT JUMPDEST PUSH2 0x151 DUP2 PUSH2 0xEC JUMP JUMPDEST DUP2 EQ PUSH2 0x15B JUMPI PUSH0 PUSH0 REVERT JUMPDEST POP JUMP JUMPDEST PUSH0 DUP2 CALLDATALOAD SWAP1 POP PUSH2 0x16C DUP2 PUSH2 0x148 JUMP JUMPDEST SWAP3 SWAP2 POP POP JUMP JUMPDEST PUSH0 PUSH1 0x20 DUP3 DUP5 SUB SLT ISZERO PUSH2 0x187 JUMPI PUSH2 0x186 PUSH2 0x144 JUMP JUMPDEST JUMPDEST PUSH0 PUSH2 0x194 DUP5 DUP3 DUP6 ADD PUSH2 0x15E JUMP JUMPDEST SWAP2 POP POP SWAP3 SWAP2 POP POP JUMP INVALID LOG2 PUSH5 0x6970667358 0x22 SLT KECCAK256 DUP10 PUSH16 0xF80B5513B3BE97BE45C3870913EB3678 0x2B 0xD 0xA8 0xDA 0x2E DUPN 0x24 EXP 0x21 DUP15 0x4C 0xF6 SWAP11 PUSH25 0x64736F6C634300081E00330000000000000000000000000000 "
		},
		"gasEstimates": {
			"creation": {
				"codeDepositCost": "93400",
				"executionCost": "139",
				"totalCost": "93539"
			},
			"external": {
				"AlteraContagem(int256)": "22558",
				"reotrnaDuasContagem3()": "infinite",
				"retornaComtagem1()": "2409",
				"retornaComtagem2()": "2453"
			}
		},
		"methodIdentifiers": {
			"AlteraContagem(int256)": "d46854d9",
			"reotrnaDuasContagem3()": "1ebf89d7",
			"retornaComtagem1()": "087077d9",
			"retornaComtagem2()": "39d17544"
		}
	},
	"abi": [
		{
			"inputs": [
				{
					"internalType": "int256",
					"name": "alteraNumero",
					"type": "int256"
				}
			],
			"name": "AlteraContagem",
			"outputs": [],
			"stateMutability": "nonpayable",
			"type": "function"
		},
		{
			"inputs": [],
			"name": "reotrnaDuasContagem3",
			"outputs": [
				{
					"internalType": "int256",
					"name": "",
					"type": "int256"
				},
				{
					"internalType": "int256",
					"name": "",
					"type": "int256"
				}
			],
			"stateMutability": "view",
			"type": "function"
		},
		{
			"inputs": [],
			"name": "retornaComtagem1",
			"outputs": [
				{
					"internalType": "int256",
					"name": "",
					"type": "int256"
				}
			],
			"stateMutability": "view",
			"type": "function"
		},
		{
			"inputs": [],
			"name": "retornaComtagem2",
			"outputs": [
				{
					"internalType": "int256",
					"name": "retorna",
					"type": "int256"
				}
			],
			"stateMutability": "view",
			"type": "function"
		}
	]
}