{
	"data": {
		"bytecode": {
			"linkReferences": {},
			"object": "6080604052348015600e575f5ffd5b506101ef8061001c5f395ff3fe608060405234801561000f575f5ffd5b506004361061004a575f3560e01c8063087077d91461004e5780631ebf89d71461006c57806339d175441461008b578063ee72fa7e146100a9575b5f5ffd5b6100566100c5565b604051610063919061010d565b60405180910390f35b6100746100cd565b604051610082929190610126565b60405180910390f35b6100936100dc565b6040516100a0919061010d565b60405180910390f35b6100c360048036038101906100be919061017b565b6100e4565b005b5f5f54905090565b5f5f5f54600154915091509091565b5f5f54905090565b815f81905550806001819055505050565b5f819050919050565b610107816100f5565b82525050565b5f6020820190506101205f8301846100fe565b92915050565b5f6040820190506101395f8301856100fe565b61014660208301846100fe565b9392505050565b5f5ffd5b61015a816100f5565b8114610164575f5ffd5b50565b5f8135905061017581610151565b92915050565b5f5f604083850312156101915761019061014d565b5b5f61019e85828601610167565b92505060206101af85828601610167565b915050925092905056fea26469706673582212204822ef38d23210bd1c202e3e6ee1c3e0188acb6b94ae1234bf5c9227254189d364736f6c634300081e0033",
			"opcodes": "PUSH1 0x80 PUSH1 0x40 MSTORE CALLVALUE DUP1 ISZERO PUSH1 0xE JUMPI PUSH0 PUSH0 REVERT JUMPDEST POP PUSH2 0x1EF DUP1 PUSH2 0x1C PUSH0 CODECOPY PUSH0 RETURN INVALID PUSH1 0x80 PUSH1 0x40 MSTORE CALLVALUE DUP1 ISZERO PUSH2 0xF JUMPI PUSH0 PUSH0 REVERT JUMPDEST POP PUSH1 0x4 CALLDATASIZE LT PUSH2 0x4A JUMPI PUSH0 CALLDATALOAD PUSH1 0xE0 SHR DUP1 PUSH4 0x87077D9 EQ PUSH2 0x4E JUMPI DUP1 PUSH4 0x1EBF89D7 EQ PUSH2 0x6C JUMPI DUP1 PUSH4 0x39D17544 EQ PUSH2 0x8B JUMPI DUP1 PUSH4 0xEE72FA7E EQ PUSH2 0xA9 JUMPI JUMPDEST PUSH0 PUSH0 REVERT JUMPDEST PUSH2 0x56 PUSH2 0xC5 JUMP JUMPDEST PUSH1 0x40 MLOAD PUSH2 0x63 SWAP2 SWAP1 PUSH2 0x10D JUMP JUMPDEST PUSH1 0x40 MLOAD DUP1 SWAP2 SUB SWAP1 RETURN JUMPDEST PUSH2 0x74 PUSH2 0xCD JUMP JUMPDEST PUSH1 0x40 MLOAD PUSH2 0x82 SWAP3 SWAP2 SWAP1 PUSH2 0x126 JUMP JUMPDEST PUSH1 0x40 MLOAD DUP1 SWAP2 SUB SWAP1 RETURN JUMPDEST PUSH2 0x93 PUSH2 0xDC JUMP JUMPDEST PUSH1 0x40 MLOAD PUSH2 0xA0 SWAP2 SWAP1 PUSH2 0x10D JUMP JUMPDEST PUSH1 0x40 MLOAD DUP1 SWAP2 SUB SWAP1 RETURN JUMPDEST PUSH2 0xC3 PUSH1 0x4 DUP1 CALLDATASIZE SUB DUP2 ADD SWAP1 PUSH2 0xBE SWAP2 SWAP1 PUSH2 0x17B JUMP JUMPDEST PUSH2 0xE4 JUMP JUMPDEST STOP JUMPDEST PUSH0 PUSH0 SLOAD SWAP1 POP SWAP1 JUMP JUMPDEST PUSH0 PUSH0 PUSH0 SLOAD PUSH1 0x1 SLOAD SWAP2 POP SWAP2 POP SWAP1 SWAP2 JUMP JUMPDEST PUSH0 PUSH0 SLOAD SWAP1 POP SWAP1 JUMP JUMPDEST DUP2 PUSH0 DUP2 SWAP1 SSTORE POP DUP1 PUSH1 0x1 DUP2 SWAP1 SSTORE POP POP POP JUMP JUMPDEST PUSH0 DUP2 SWAP1 POP SWAP2 SWAP1 POP JUMP JUMPDEST PUSH2 0x107 DUP2 PUSH2 0xF5 JUMP JUMPDEST DUP3 MSTORE POP POP JUMP JUMPDEST PUSH0 PUSH1 0x20 DUP3 ADD SWAP1 POP PUSH2 0x120 PUSH0 DUP4 ADD DUP5 PUSH2 0xFE JUMP JUMPDEST SWAP3 SWAP2 POP POP JUMP JUMPDEST PUSH0 PUSH1 0x40 DUP3 ADD SWAP1 POP PUSH2 0x139 PUSH0 DUP4 ADD DUP6 PUSH2 0xFE JUMP JUMPDEST PUSH2 0x146 PUSH1 0x20 DUP4 ADD DUP5 PUSH2 0xFE JUMP JUMPDEST SWAP4 SWAP3 POP POP POP JUMP JUMPDEST PUSH0 PUSH0 REVERT JUMPDEST PUSH2 0x15A DUP2 PUSH2 0xF5 JUMP JUMPDEST DUP2 EQ PUSH2 0x164 JUMPI PUSH0 PUSH0 REVERT JUMPDEST POP JUMP JUMPDEST PUSH0 DUP2 CALLDATALOAD SWAP1 POP PUSH2 0x175 DUP2 PUSH2 0x151 JUMP JUMPDEST SWAP3 SWAP2 POP POP JUMP JUMPDEST PUSH0 PUSH0 PUSH1 0x40 DUP4 DUP6 SUB SLT ISZERO PUSH2 0x191 JUMPI PUSH2 0x190 PUSH2 0x14D JUMP JUMPDEST JUMPDEST PUSH0 PUSH2 0x19E DUP6 DUP3 DUP7 ADD PUSH2 0x167 JUMP JUMPDEST SWAP3 POP POP PUSH1 0x20 PUSH2 0x1AF DUP6 DUP3 DUP7 ADD PUSH2 0x167 JUMP JUMPDEST SWAP2 POP POP SWAP3 POP SWAP3 SWAP1 POP JUMP INVALID LOG2 PUSH5 0x6970667358 0x22 SLT KECCAK256 BASEFEE 0x22 0xEF CODESIZE 0xD2 ORIGIN LT 0xBD SHR KECCAK256 0x2E RETURNDATACOPY PUSH15 0xE1C3E0188ACB6B94AE1234BF5C9227 0x25 COINBASE DUP10 0xD3 PUSH5 0x736F6C6343 STOP ADDMOD 0x1E STOP CALLER "
		},
		"gasEstimates": {
			"creation": {
				"codeDepositCost": "99000",
				"executionCost": "145",
				"totalCost": "99145"
			},
			"external": {
				"AlteraContagem(int256,int256)": "infinite",
				"reotrnaDuasContagem3()": "infinite",
				"retornaComtagem1()": "2409",
				"retornaComtagem2()": "2453"
			}
		},
		"methodIdentifiers": {
			"AlteraContagem(int256,int256)": "ee72fa7e",
			"reotrnaDuasContagem3()": "1ebf89d7",
			"retornaComtagem1()": "087077d9",
			"retornaComtagem2()": "39d17544"
		}
	},
	"abi": [
		{
			"inputs": [
				{
					"internalType": "int256",
					"name": "alteraNumero1",
					"type": "int256"
				},
				{
					"internalType": "int256",
					"name": "alteraNumero2",
					"type": "int256"
				}
			],
			"name": "AlteraContagem",
			"outputs": [],
			"stateMutability": "nonpayable",
			"type": "function"
		},
		{
			"inputs": [],
			"name": "reotrnaDuasContagem3",
			"outputs": [
				{
					"internalType": "int256",
					"name": "",
					"type": "int256"
				},
				{
					"internalType": "int256",
					"name": "",
					"type": "int256"
				}
			],
			"stateMutability": "view",
			"type": "function"
		},
		{
			"inputs": [],
			"name": "retornaComtagem1",
			"outputs": [
				{
					"internalType": "int256",
					"name": "",
					"type": "int256"
				}
			],
			"stateMutability": "view",
			"type": "function"
		},
		{
			"inputs": [],
			"name": "retornaComtagem2",
			"outputs": [
				{
					"internalType": "int256",
					"name": "retorna",
					"type": "int256"
				}
			],
			"stateMutability": "view",
			"type": "function"
		}
	]
}