{
	"data": {
		"bytecode": {
			"linkReferences": {},
			"object": "6080604052348015600e575f5ffd5b50335f5f6101000a81548173ffffffffffffffffffffffffffffffffffffffff021916908373ffffffffffffffffffffffffffffffffffffffff16021790555061094d8061005b5f395ff3fe608060405234801561000f575f5ffd5b5060043610610055575f3560e01c8063352acb0a146100595780635aa26d47146100755780639dd74c76146100a5578063a23cd357146100c1578063b4a99a4e146100f1575b5f5ffd5b610073600480360381019061006e9190610420565b61010f565b005b61008f600480360381019061008a91906104c1565b61019b565b60405161009c9190610506565b60405180910390f35b6100bf60048036038101906100ba9190610552565b6101b8565b005b6100db60048036038101906100d69190610552565b61029a565b6040516100e8919061058c565b60405180910390f35b6100f96102af565b60405161010691906105b4565b60405180910390f35b3373ffffffffffffffffffffffffffffffffffffffff165f5f9054906101000a900473ffffffffffffffffffffffffffffffffffffffff1673ffffffffffffffffffffffffffffffffffffffff1614610166575f5ffd5b600181908060018154018082558091505060019003905f5260205f20015f90919091909150908161019791906107d4565b5050565b6003602052805f5260405f205f915054906101000a900460ff1681565b6001805490508111156101c9575f5ffd5b60035f3373ffffffffffffffffffffffffffffffffffffffff1673ffffffffffffffffffffffffffffffffffffffff1681526020019081526020015f205f9054906101000a900460ff161561021c575f5ffd5b60025f8281526020019081526020015f205f81548092919061023d906108d0565b9190505550600160035f3373ffffffffffffffffffffffffffffffffffffffff1673ffffffffffffffffffffffffffffffffffffffff1681526020019081526020015f205f6101000a81548160ff02191690831515021790555050565b6002602052805f5260405f205f915090505481565b5f5f9054906101000a900473ffffffffffffffffffffffffffffffffffffffff1681565b5f604051905090565b5f5ffd5b5f5ffd5b5f5ffd5b5f5ffd5b5f601f19601f8301169050919050565b7f4e487b71000000000000000000000000000000000000000000000000000000005f52604160045260245ffd5b610332826102ec565b810181811067ffffffffffffffff82111715610351576103506102fc565b5b80604052505050565b5f6103636102d3565b905061036f8282610329565b919050565b5f67ffffffffffffffff82111561038e5761038d6102fc565b5b610397826102ec565b9050602081019050919050565b828183375f83830152505050565b5f6103c46103bf84610374565b61035a565b9050828152602081018484840111156103e0576103df6102e8565b5b6103eb8482856103a4565b509392505050565b5f82601f830112610407576104066102e4565b5b81356104178482602086016103b2565b91505092915050565b5f60208284031215610435576104346102dc565b5b5f82013567ffffffffffffffff811115610452576104516102e0565b5b61045e848285016103f3565b91505092915050565b5f73ffffffffffffffffffffffffffffffffffffffff82169050919050565b5f61049082610467565b9050919050565b6104a081610486565b81146104aa575f5ffd5b50565b5f813590506104bb81610497565b92915050565b5f602082840312156104d6576104d56102dc565b5b5f6104e3848285016104ad565b91505092915050565b5f8115159050919050565b610500816104ec565b82525050565b5f6020820190506105195f8301846104f7565b92915050565b5f819050919050565b6105318161051f565b811461053b575f5ffd5b50565b5f8135905061054c81610528565b92915050565b5f60208284031215610567576105666102dc565b5b5f6105748482850161053e565b91505092915050565b6105868161051f565b82525050565b5f60208201905061059f5f83018461057d565b92915050565b6105ae81610486565b82525050565b5f6020820190506105c75f8301846105a5565b92915050565b5f81519050919050565b7f4e487b71000000000000000000000000000000000000000000000000000000005f52602260045260245ffd5b5f600282049050600182168061061b57607f821691505b60208210810361062e5761062d6105d7565b5b50919050565b5f819050815f5260205f209050919050565b5f6020601f8301049050919050565b5f82821b905092915050565b5f600883026106907fffffffffffffffffffffffffffffffffffffffffffffffffffffffffffffffff82610655565b61069a8683610655565b95508019841693508086168417925050509392505050565b5f819050919050565b5f6106d56106d06106cb8461051f565b6106b2565b61051f565b9050919050565b5f819050919050565b6106ee836106bb565b6107026106fa826106dc565b848454610661565b825550505050565b5f5f905090565b61071961070a565b6107248184846106e5565b505050565b5b818110156107475761073c5f82610711565b60018101905061072a565b5050565b601f82111561078c5761075d81610634565b61076684610646565b81016020851015610775578190505b61078961078185610646565b830182610729565b50505b505050565b5f82821c905092915050565b5f6107ac5f1984600802610791565b1980831691505092915050565b5f6107c4838361079d565b9150826002028217905092915050565b6107dd826105cd565b67ffffffffffffffff8111156107f6576107f56102fc565b5b6108008254610604565b61080b82828561074b565b5f60209050601f83116001811461083c575f841561082a578287015190505b61083485826107b9565b86555061089b565b601f19841661084a86610634565b5f5b828110156108715784890151825560018201915060208501945060208101905061084c565b8683101561088e578489015161088a601f89168261079d565b8355505b6001600288020188555050505b505050505050565b7f4e487b71000000000000000000000000000000000000000000000000000000005f52601160045260245ffd5b5f6108da8261051f565b91507fffffffffffffffffffffffffffffffffffffffffffffffffffffffffffffffff820361090c5761090b6108a3565b5b60018201905091905056fea264697066735822122028c7750995acc7ef98df804e1ec7bd2ead66fcc7e5cfdd0fe7db7bba311ea72e64736f6c634300081e0033",
			"opcodes": "PUSH1 0x80 PUSH1 0x40 MSTORE CALLVALUE DUP1 ISZERO PUSH1 0xE JUMPI PUSH0 PUSH0 REVERT JUMPDEST POP CALLER PUSH0 PUSH0 PUSH2 0x100 EXP DUP2 SLOAD DUP2 PUSH20 0xFFFFFFFFFFFFFFFFFFFFFFFFFFFFFFFFFFFFFFFF MUL NOT AND SWAP1 DUP4 PUSH20 0xFFFFFFFFFFFFFFFFFFFFFFFFFFFFFFFFFFFFFFFF AND MUL OR SWAP1 SSTORE POP PUSH2 0x94D DUP1 PUSH2 0x5B PUSH0 CODECOPY PUSH0 RETURN INVALID PUSH1 0x80 PUSH1 0x40 MSTORE CALLVALUE DUP1 ISZERO PUSH2 0xF JUMPI PUSH0 PUSH0 REVERT JUMPDEST POP PUSH1 0x4 CALLDATASIZE LT PUSH2 0x55 JUMPI PUSH0 CALLDATALOAD PUSH1 0xE0 SHR DUP1 PUSH4 0x352ACB0A EQ PUSH2 0x59 JUMPI DUP1 PUSH4 0x5AA26D47 EQ PUSH2 0x75 JUMPI DUP1 PUSH4 0x9DD74C76 EQ PUSH2 0xA5 JUMPI DUP1 PUSH4 0xA23CD357 EQ PUSH2 0xC1 JUMPI DUP1 PUSH4 0xB4A99A4E EQ PUSH2 0xF1 JUMPI JUMPDEST PUSH0 PUSH0 REVERT JUMPDEST PUSH2 0x73 PUSH1 0x4 DUP1 CALLDATASIZE SUB DUP2 ADD SWAP1 PUSH2 0x6E SWAP2 SWAP1 PUSH2 0x420 JUMP JUMPDEST PUSH2 0x10F JUMP JUMPDEST STOP JUMPDEST PUSH2 0x8F PUSH1 0x4 DUP1 CALLDATASIZE SUB DUP2 ADD SWAP1 PUSH2 0x8A SWAP2 SWAP1 PUSH2 0x4C1 JUMP JUMPDEST PUSH2 0x19B JUMP JUMPDEST PUSH1 0x40 MLOAD PUSH2 0x9C SWAP2 SWAP1 PUSH2 0x506 JUMP JUMPDEST PUSH1 0x40 MLOAD DUP1 SWAP2 SUB SWAP1 RETURN JUMPDEST PUSH2 0xBF PUSH1 0x4 DUP1 CALLDATASIZE SUB DUP2 ADD SWAP1 PUSH2 0xBA SWAP2 SWAP1 PUSH2 0x552 JUMP JUMPDEST PUSH2 0x1B8 JUMP JUMPDEST STOP JUMPDEST PUSH2 0xDB PUSH1 0x4 DUP1 CALLDATASIZE SUB DUP2 ADD SWAP1 PUSH2 0xD6 SWAP2 SWAP1 PUSH2 0x552 JUMP JUMPDEST PUSH2 0x29A JUMP JUMPDEST PUSH1 0x40 MLOAD PUSH2 0xE8 SWAP2 SWAP1 PUSH2 0x58C JUMP JUMPDEST PUSH1 0x40 MLOAD DUP1 SWAP2 SUB SWAP1 RETURN JUMPDEST PUSH2 0xF9 PUSH2 0x2AF JUMP JUMPDEST PUSH1 0x40 MLOAD PUSH2 0x106 SWAP2 SWAP1 PUSH2 0x5B4 JUMP JUMPDEST PUSH1 0x40 MLOAD DUP1 SWAP2 SUB SWAP1 RETURN JUMPDEST CALLER PUSH20 0xFFFFFFFFFFFFFFFFFFFFFFFFFFFFFFFFFFFFFFFF AND PUSH0 PUSH0 SWAP1 SLOAD SWAP1 PUSH2 0x100 EXP SWAP1 DIV PUSH20 0xFFFFFFFFFFFFFFFFFFFFFFFFFFFFFFFFFFFFFFFF AND PUSH20 0xFFFFFFFFFFFFFFFFFFFFFFFFFFFFFFFFFFFFFFFF AND EQ PUSH2 0x166 JUMPI PUSH0 PUSH0 REVERT JUMPDEST PUSH1 0x1 DUP2 SWAP1 DUP1 PUSH1 0x1 DUP2 SLOAD ADD DUP1 DUP3 SSTORE DUP1 SWAP2 POP POP PUSH1 0x1 SWAP1 SUB SWAP1 PUSH0 MSTORE PUSH1 0x20 PUSH0 KECCAK256 ADD PUSH0 SWAP1 SWAP2 SWAP1 SWAP2 SWAP1 SWAP2 POP SWAP1 DUP2 PUSH2 0x197 SWAP2 SWAP1 PUSH2 0x7D4 JUMP JUMPDEST POP POP JUMP JUMPDEST PUSH1 0x3 PUSH1 0x20 MSTORE DUP1 PUSH0 MSTORE PUSH1 0x40 PUSH0 KECCAK256 PUSH0 SWAP2 POP SLOAD SWAP1 PUSH2 0x100 EXP SWAP1 DIV PUSH1 0xFF AND DUP2 JUMP JUMPDEST PUSH1 0x1 DUP1 SLOAD SWAP1 POP DUP2 GT ISZERO PUSH2 0x1C9 JUMPI PUSH0 PUSH0 REVERT JUMPDEST PUSH1 0x3 PUSH0 CALLER PUSH20 0xFFFFFFFFFFFFFFFFFFFFFFFFFFFFFFFFFFFFFFFF AND PUSH20 0xFFFFFFFFFFFFFFFFFFFFFFFFFFFFFFFFFFFFFFFF AND DUP2 MSTORE PUSH1 0x20 ADD SWAP1 DUP2 MSTORE PUSH1 0x20 ADD PUSH0 KECCAK256 PUSH0 SWAP1 SLOAD SWAP1 PUSH2 0x100 EXP SWAP1 DIV PUSH1 0xFF AND ISZERO PUSH2 0x21C JUMPI PUSH0 PUSH0 REVERT JUMPDEST PUSH1 0x2 PUSH0 DUP3 DUP2 MSTORE PUSH1 0x20 ADD SWAP1 DUP2 MSTORE PUSH1 0x20 ADD PUSH0 KECCAK256 PUSH0 DUP2 SLOAD DUP1 SWAP3 SWAP2 SWAP1 PUSH2 0x23D SWAP1 PUSH2 0x8D0 JUMP JUMPDEST SWAP2 SWAP1 POP SSTORE POP PUSH1 0x1 PUSH1 0x3 PUSH0 CALLER PUSH20 0xFFFFFFFFFFFFFFFFFFFFFFFFFFFFFFFFFFFFFFFF AND PUSH20 0xFFFFFFFFFFFFFFFFFFFFFFFFFFFFFFFFFFFFFFFF AND DUP2 MSTORE PUSH1 0x20 ADD SWAP1 DUP2 MSTORE PUSH1 0x20 ADD PUSH0 KECCAK256 PUSH0 PUSH2 0x100 EXP DUP2 SLOAD DUP2 PUSH1 0xFF MUL NOT AND SWAP1 DUP4 ISZERO ISZERO MUL OR SWAP1 SSTORE POP POP JUMP JUMPDEST PUSH1 0x2 PUSH1 0x20 MSTORE DUP1 PUSH0 MSTORE PUSH1 0x40 PUSH0 KECCAK256 PUSH0 SWAP2 POP SWAP1 POP SLOAD DUP2 JUMP JUMPDEST PUSH0 PUSH0 SWAP1 SLOAD SWAP1 PUSH2 0x100 EXP SWAP1 DIV PUSH20 0xFFFFFFFFFFFFFFFFFFFFFFFFFFFFFFFFFFFFFFFF AND DUP2 JUMP JUMPDEST PUSH0 PUSH1 0x40 MLOAD SWAP1 POP SWAP1 JUMP JUMPDEST PUSH0 PUSH0 REVERT JUMPDEST PUSH0 PUSH0 REVERT JUMPDEST PUSH0 PUSH0 REVERT JUMPDEST PUSH0 PUSH0 REVERT JUMPDEST PUSH0 PUSH1 0x1F NOT PUSH1 0x1F DUP4 ADD AND SWAP1 POP SWAP2 SWAP1 POP JUMP JUMPDEST PUSH32 0x4E487B7100000000000000000000000000000000000000000000000000000000 PUSH0 MSTORE PUSH1 0x41 PUSH1 0x4 MSTORE PUSH1 0x24 PUSH0 REVERT JUMPDEST PUSH2 0x332 DUP3 PUSH2 0x2EC JUMP JUMPDEST DUP2 ADD DUP2 DUP2 LT PUSH8 0xFFFFFFFFFFFFFFFF DUP3 GT OR ISZERO PUSH2 0x351 JUMPI PUSH2 0x350 PUSH2 0x2FC JUMP JUMPDEST JUMPDEST DUP1 PUSH1 0x40 MSTORE POP POP POP JUMP JUMPDEST PUSH0 PUSH2 0x363 PUSH2 0x2D3 JUMP JUMPDEST SWAP1 POP PUSH2 0x36F DUP3 DUP3 PUSH2 0x329 JUMP JUMPDEST SWAP2 SWAP1 POP JUMP JUMPDEST PUSH0 PUSH8 0xFFFFFFFFFFFFFFFF DUP3 GT ISZERO PUSH2 0x38E JUMPI PUSH2 0x38D PUSH2 0x2FC JUMP JUMPDEST JUMPDEST PUSH2 0x397 DUP3 PUSH2 0x2EC JUMP JUMPDEST SWAP1 POP PUSH1 0x20 DUP2 ADD SWAP1 POP SWAP2 SWAP1 POP JUMP JUMPDEST DUP3 DUP2 DUP4 CALLDATACOPY PUSH0 DUP4 DUP4 ADD MSTORE POP POP POP JUMP JUMPDEST PUSH0 PUSH2 0x3C4 PUSH2 0x3BF DUP5 PUSH2 0x374 JUMP JUMPDEST PUSH2 0x35A JUMP JUMPDEST SWAP1 POP DUP3 DUP2 MSTORE PUSH1 0x20 DUP2 ADD DUP5 DUP5 DUP5 ADD GT ISZERO PUSH2 0x3E0 JUMPI PUSH2 0x3DF PUSH2 0x2E8 JUMP JUMPDEST JUMPDEST PUSH2 0x3EB DUP5 DUP3 DUP6 PUSH2 0x3A4 JUMP JUMPDEST POP SWAP4 SWAP3 POP POP POP JUMP JUMPDEST PUSH0 DUP3 PUSH1 0x1F DUP4 ADD SLT PUSH2 0x407 JUMPI PUSH2 0x406 PUSH2 0x2E4 JUMP JUMPDEST JUMPDEST DUP2 CALLDATALOAD PUSH2 0x417 DUP5 DUP3 PUSH1 0x20 DUP7 ADD PUSH2 0x3B2 JUMP JUMPDEST SWAP2 POP POP SWAP3 SWAP2 POP POP JUMP JUMPDEST PUSH0 PUSH1 0x20 DUP3 DUP5 SUB SLT ISZERO PUSH2 0x435 JUMPI PUSH2 0x434 PUSH2 0x2DC JUMP JUMPDEST JUMPDEST PUSH0 DUP3 ADD CALLDATALOAD PUSH8 0xFFFFFFFFFFFFFFFF DUP2 GT ISZERO PUSH2 0x452 JUMPI PUSH2 0x451 PUSH2 0x2E0 JUMP JUMPDEST JUMPDEST PUSH2 0x45E DUP5 DUP3 DUP6 ADD PUSH2 0x3F3 JUMP JUMPDEST SWAP2 POP POP SWAP3 SWAP2 POP POP JUMP JUMPDEST PUSH0 PUSH20 0xFFFFFFFFFFFFFFFFFFFFFFFFFFFFFFFFFFFFFFFF DUP3 AND SWAP1 POP SWAP2 SWAP1 POP JUMP JUMPDEST PUSH0 PUSH2 0x490 DUP3 PUSH2 0x467 JUMP JUMPDEST SWAP1 POP SWAP2 SWAP1 POP JUMP JUMPDEST PUSH2 0x4A0 DUP2 PUSH2 0x486 JUMP JUMPDEST DUP2 EQ PUSH2 0x4AA JUMPI PUSH0 PUSH0 REVERT JUMPDEST POP JUMP JUMPDEST PUSH0 DUP2 CALLDATALOAD SWAP1 POP PUSH2 0x4BB DUP2 PUSH2 0x497 JUMP JUMPDEST SWAP3 SWAP2 POP POP JUMP JUMPDEST PUSH0 PUSH1 0x20 DUP3 DUP5 SUB SLT ISZERO PUSH2 0x4D6 JUMPI PUSH2 0x4D5 PUSH2 0x2DC JUMP JUMPDEST JUMPDEST PUSH0 PUSH2 0x4E3 DUP5 DUP3 DUP6 ADD PUSH2 0x4AD JUMP JUMPDEST SWAP2 POP POP SWAP3 SWAP2 POP POP JUMP JUMPDEST PUSH0 DUP2 ISZERO ISZERO SWAP1 POP SWAP2 SWAP1 POP JUMP JUMPDEST PUSH2 0x500 DUP2 PUSH2 0x4EC JUMP JUMPDEST DUP3 MSTORE POP POP JUMP JUMPDEST PUSH0 PUSH1 0x20 DUP3 ADD SWAP1 POP PUSH2 0x519 PUSH0 DUP4 ADD DUP5 PUSH2 0x4F7 JUMP JUMPDEST SWAP3 SWAP2 POP POP JUMP JUMPDEST PUSH0 DUP2 SWAP1 POP SWAP2 SWAP1 POP JUMP JUMPDEST PUSH2 0x531 DUP2 PUSH2 0x51F JUMP JUMPDEST DUP2 EQ PUSH2 0x53B JUMPI PUSH0 PUSH0 REVERT JUMPDEST POP JUMP JUMPDEST PUSH0 DUP2 CALLDATALOAD SWAP1 POP PUSH2 0x54C DUP2 PUSH2 0x528 JUMP JUMPDEST SWAP3 SWAP2 POP POP JUMP JUMPDEST PUSH0 PUSH1 0x20 DUP3 DUP5 SUB SLT ISZERO PUSH2 0x567 JUMPI PUSH2 0x566 PUSH2 0x2DC JUMP JUMPDEST JUMPDEST PUSH0 PUSH2 0x574 DUP5 DUP3 DUP6 ADD PUSH2 0x53E JUMP JUMPDEST SWAP2 POP POP SWAP3 SWAP2 POP POP JUMP JUMPDEST PUSH2 0x586 DUP2 PUSH2 0x51F JUMP JUMPDEST DUP3 MSTORE POP POP JUMP JUMPDEST PUSH0 PUSH1 0x20 DUP3 ADD SWAP1 POP PUSH2 0x59F PUSH0 DUP4 ADD DUP5 PUSH2 0x57D JUMP JUMPDEST SWAP3 SWAP2 POP POP JUMP JUMPDEST PUSH2 0x5AE DUP2 PUSH2 0x486 JUMP JUMPDEST DUP3 MSTORE POP POP JUMP JUMPDEST PUSH0 PUSH1 0x20 DUP3 ADD SWAP1 POP PUSH2 0x5C7 PUSH0 DUP4 ADD DUP5 PUSH2 0x5A5 JUMP JUMPDEST SWAP3 SWAP2 POP POP JUMP JUMPDEST PUSH0 DUP2 MLOAD SWAP1 POP SWAP2 SWAP1 POP JUMP JUMPDEST PUSH32 0x4E487B7100000000000000000000000000000000000000000000000000000000 PUSH0 MSTORE PUSH1 0x22 PUSH1 0x4 MSTORE PUSH1 0x24 PUSH0 REVERT JUMPDEST PUSH0 PUSH1 0x2 DUP3 DIV SWAP1 POP PUSH1 0x1 DUP3 AND DUP1 PUSH2 0x61B JUMPI PUSH1 0x7F DUP3 AND SWAP2 POP JUMPDEST PUSH1 0x20 DUP3 LT DUP2 SUB PUSH2 0x62E JUMPI PUSH2 0x62D PUSH2 0x5D7 JUMP JUMPDEST JUMPDEST POP SWAP2 SWAP1 POP JUMP JUMPDEST PUSH0 DUP2 SWAP1 POP DUP2 PUSH0 MSTORE PUSH1 0x20 PUSH0 KECCAK256 SWAP1 POP SWAP2 SWAP1 POP JUMP JUMPDEST PUSH0 PUSH1 0x20 PUSH1 0x1F DUP4 ADD DIV SWAP1 POP SWAP2 SWAP1 POP JUMP JUMPDEST PUSH0 DUP3 DUP3 SHL SWAP1 POP SWAP3 SWAP2 POP POP JUMP JUMPDEST PUSH0 PUSH1 0x8 DUP4 MUL PUSH2 0x690 PUSH32 0xFFFFFFFFFFFFFFFFFFFFFFFFFFFFFFFFFFFFFFFFFFFFFFFFFFFFFFFFFFFFFFFF DUP3 PUSH2 0x655 JUMP JUMPDEST PUSH2 0x69A DUP7 DUP4 PUSH2 0x655 JUMP JUMPDEST SWAP6 POP DUP1 NOT DUP5 AND SWAP4 POP DUP1 DUP7 AND DUP5 OR SWAP3 POP POP POP SWAP4 SWAP3 POP POP POP JUMP JUMPDEST PUSH0 DUP2 SWAP1 POP SWAP2 SWAP1 POP JUMP JUMPDEST PUSH0 PUSH2 0x6D5 PUSH2 0x6D0 PUSH2 0x6CB DUP5 PUSH2 0x51F JUMP JUMPDEST PUSH2 0x6B2 JUMP JUMPDEST PUSH2 0x51F JUMP JUMPDEST SWAP1 POP SWAP2 SWAP1 POP JUMP JUMPDEST PUSH0 DUP2 SWAP1 POP SWAP2 SWAP1 POP JUMP JUMPDEST PUSH2 0x6EE DUP4 PUSH2 0x6BB JUMP JUMPDEST PUSH2 0x702 PUSH2 0x6FA DUP3 PUSH2 0x6DC JUMP JUMPDEST DUP5 DUP5 SLOAD PUSH2 0x661 JUMP JUMPDEST DUP3 SSTORE POP POP POP POP JUMP JUMPDEST PUSH0 PUSH0 SWAP1 POP SWAP1 JUMP JUMPDEST PUSH2 0x719 PUSH2 0x70A JUMP JUMPDEST PUSH2 0x724 DUP2 DUP5 DUP5 PUSH2 0x6E5 JUMP JUMPDEST POP POP POP JUMP JUMPDEST JUMPDEST DUP2 DUP2 LT ISZERO PUSH2 0x747 JUMPI PUSH2 0x73C PUSH0 DUP3 PUSH2 0x711 JUMP JUMPDEST PUSH1 0x1 DUP2 ADD SWAP1 POP PUSH2 0x72A JUMP JUMPDEST POP POP JUMP JUMPDEST PUSH1 0x1F DUP3 GT ISZERO PUSH2 0x78C JUMPI PUSH2 0x75D DUP2 PUSH2 0x634 JUMP JUMPDEST PUSH2 0x766 DUP5 PUSH2 0x646 JUMP JUMPDEST DUP2 ADD PUSH1 0x20 DUP6 LT ISZERO PUSH2 0x775 JUMPI DUP2 SWAP1 POP JUMPDEST PUSH2 0x789 PUSH2 0x781 DUP6 PUSH2 0x646 JUMP JUMPDEST DUP4 ADD DUP3 PUSH2 0x729 JUMP JUMPDEST POP POP JUMPDEST POP POP POP JUMP JUMPDEST PUSH0 DUP3 DUP3 SHR SWAP1 POP SWAP3 SWAP2 POP POP JUMP JUMPDEST PUSH0 PUSH2 0x7AC PUSH0 NOT DUP5 PUSH1 0x8 MUL PUSH2 0x791 JUMP JUMPDEST NOT DUP1 DUP4 AND SWAP2 POP POP SWAP3 SWAP2 POP POP JUMP JUMPDEST PUSH0 PUSH2 0x7C4 DUP4 DUP4 PUSH2 0x79D JUMP JUMPDEST SWAP2 POP DUP3 PUSH1 0x2 MUL DUP3 OR SWAP1 POP SWAP3 SWAP2 POP POP JUMP JUMPDEST PUSH2 0x7DD DUP3 PUSH2 0x5CD JUMP JUMPDEST PUSH8 0xFFFFFFFFFFFFFFFF DUP2 GT ISZERO PUSH2 0x7F6 JUMPI PUSH2 0x7F5 PUSH2 0x2FC JUMP JUMPDEST JUMPDEST PUSH2 0x800 DUP3 SLOAD PUSH2 0x604 JUMP JUMPDEST PUSH2 0x80B DUP3 DUP3 DUP6 PUSH2 0x74B JUMP JUMPDEST PUSH0 PUSH1 0x20 SWAP1 POP PUSH1 0x1F DUP4 GT PUSH1 0x1 DUP2 EQ PUSH2 0x83C JUMPI PUSH0 DUP5 ISZERO PUSH2 0x82A JUMPI DUP3 DUP8 ADD MLOAD SWAP1 POP JUMPDEST PUSH2 0x834 DUP6 DUP3 PUSH2 0x7B9 JUMP JUMPDEST DUP7 SSTORE POP PUSH2 0x89B JUMP JUMPDEST PUSH1 0x1F NOT DUP5 AND PUSH2 0x84A DUP7 PUSH2 0x634 JUMP JUMPDEST PUSH0 JUMPDEST DUP3 DUP2 LT ISZERO PUSH2 0x871 JUMPI DUP5 DUP10 ADD MLOAD DUP3 SSTORE PUSH1 0x1 DUP3 ADD SWAP2 POP PUSH1 0x20 DUP6 ADD SWAP5 POP PUSH1 0x20 DUP2 ADD SWAP1 POP PUSH2 0x84C JUMP JUMPDEST DUP7 DUP4 LT ISZERO PUSH2 0x88E JUMPI DUP5 DUP10 ADD MLOAD PUSH2 0x88A PUSH1 0x1F DUP10 AND DUP3 PUSH2 0x79D JUMP JUMPDEST DUP4 SSTORE POP JUMPDEST PUSH1 0x1 PUSH1 0x2 DUP9 MUL ADD DUP9 SSTORE POP POP POP JUMPDEST POP POP POP POP POP POP JUMP JUMPDEST PUSH32 0x4E487B7100000000000000000000000000000000000000000000000000000000 PUSH0 MSTORE PUSH1 0x11 PUSH1 0x4 MSTORE PUSH1 0x24 PUSH0 REVERT JUMPDEST PUSH0 PUSH2 0x8DA DUP3 PUSH2 0x51F JUMP JUMPDEST SWAP2 POP PUSH32 0xFFFFFFFFFFFFFFFFFFFFFFFFFFFFFFFFFFFFFFFFFFFFFFFFFFFFFFFFFFFFFFFF DUP3 SUB PUSH2 0x90C JUMPI PUSH2 0x90B PUSH2 0x8A3 JUMP JUMPDEST JUMPDEST PUSH1 0x1 DUP3 ADD SWAP1 POP SWAP2 SWAP1 POP JUMP INVALID LOG2 PUSH5 0x6970667358 0x22 SLT KECCAK256 0x28 0xC7 PUSH22 0x995ACC7EF98DF804E1EC7BD2EAD66FCC7E5CFDD0FE7 0xDB PUSH28 0xBA311EA72E64736F6C634300081E0033000000000000000000000000 "
		},
		"gasEstimates": {
			"creation": {
				"codeDepositCost": "476200",
				"executionCost": "24773",
				"totalCost": "500973"
			},
			"external": {
				"AdicionarCanditatos(string)": "infinite",
				"JaVotou(address)": "2833",
				"Owner()": "2573",
				"VotarCandidato(uint256)": "infinite",
				"VotosCanditados(uint256)": "infinite"
			}
		},
		"methodIdentifiers": {
			"AdicionarCanditatos(string)": "352acb0a",
			"JaVotou(address)": "5aa26d47",
			"Owner()": "b4a99a4e",
			"VotarCandidato(uint256)": "9dd74c76",
			"VotosCanditados(uint256)": "a23cd357"
		}
	},
	"abi": [
		{
			"inputs": [],
			"stateMutability": "nonpayable",
			"type": "constructor"
		},
		{
			"inputs": [
				{
					"internalType": "string",
					"name": "Candidato",
					"type": "string"
				}
			],
			"name": "AdicionarCanditatos",
			"outputs": [],
			"stateMutability": "nonpayable",
			"type": "function"
		},
		{
			"inputs": [
				{
					"internalType": "address",
					"name": "",
					"type": "address"
				}
			],
			"name": "JaVotou",
			"outputs": [
				{
					"internalType": "bool",
					"name": "",
					"type": "bool"
				}
			],
			"stateMutability": "view",
			"type": "function"
		},
		{
			"inputs": [],
			"name": "Owner",
			"outputs": [
				{
					"internalType": "address",
					"name": "",
					"type": "address"
				}
			],
			"stateMutability": "view",
			"type": "function"
		},
		{
			"inputs": [
				{
					"internalType": "uint256",
					"name": "NumeroDoCandidato",
					"type": "uint256"
				}
			],
			"name": "VotarCandidato",
			"outputs": [],
			"stateMutability": "nonpayable",
			"type": "function"
		},
		{
			"inputs": [
				{
					"internalType": "uint256",
					"name": "",
					"type": "uint256"
				}
			],
			"name": "VotosCanditados",
			"outputs": [
				{
					"internalType": "uint256",
					"name": "",
					"type": "uint256"
				}
			],
			"stateMutability": "view",
			"type": "function"
		}
	]
}