{
	"data": {
		"bytecode": {
			"linkReferences": {},
			"object": "6080604052348015600e575f5ffd5b505f54805f81905550506103af806100255f395ff3fe608060405234801561000f575f5ffd5b506004361061003f575f3560e01c80639d0afbaa14610043578063a58dc1e714610073578063ecbac7cf146100a3575b5f5ffd5b61005d6004803603810190610058919061013a565b6100c1565b60405161006a9190610187565b60405180910390f35b61008d6004803603810190610088919061013a565b6100d4565b60405161009a9190610187565b60405180910390f35b6100ab6100e9565b6040516100b89190610187565b60405180910390f35b5f6100cc83836100ee565b905092915050565b5f81836100e191906102fc565b905092915050565b5f5481565b5f81836100fb9190610346565b905092915050565b5f5ffd5b5f819050919050565b61011981610107565b8114610123575f5ffd5b50565b5f8135905061013481610110565b92915050565b5f5f604083850312156101505761014f610103565b5b5f61015d85828601610126565b925050602061016e85828601610126565b9150509250929050565b61018181610107565b82525050565b5f60208201905061019a5f830184610178565b92915050565b7f4e487b71000000000000000000000000000000000000000000000000000000005f52601160045260245ffd5b5f8160011c9050919050565b5f5f8291508390505b6001851115610222578086048111156101fe576101fd6101a0565b5b600185161561020d5780820291505b808102905061021b856101cd565b94506101e2565b94509492505050565b5f8261023a57600190506102f5565b81610247575f90506102f5565b816001811461025d576002811461026757610296565b60019150506102f5565b60ff841115610279576102786101a0565b5b8360020a9150848211156102905761028f6101a0565b5b506102f5565b5060208310610133831016604e8410600b84101617156102cb5782820a9050838111156102c6576102c56101a0565b5b6102f5565b6102d884848460016101d9565b925090508184048111156102ef576102ee6101a0565b5b81810290505b9392505050565b5f61030682610107565b915061031183610107565b925061033e7fffffffffffffffffffffffffffffffffffffffffffffffffffffffffffffffff848461022b565b905092915050565b5f61035082610107565b915061035b83610107565b9250828201905080821115610373576103726101a0565b5b9291505056fea26469706673582212206885aa1fdf50f57ba5593913ff1f00937b7728a9fb52d43c96a8975d1aacc90764736f6c634300081e0033",
			"opcodes": "PUSH1 0x80 PUSH1 0x40 MSTORE CALLVALUE DUP1 ISZERO PUSH1 0xE JUMPI PUSH0 PUSH0 REVERT JUMPDEST POP PUSH0 SLOAD DUP1 PUSH0 DUP2 SWAP1 SSTORE POP POP PUSH2 0x3AF DUP1 PUSH2 0x25 PUSH0 CODECOPY PUSH0 RETURN INVALID PUSH1 0x80 PUSH1 0x40 MSTORE CALLVALUE DUP1 ISZERO PUSH2 0xF JUMPI PUSH0 PUSH0 REVERT JUMPDEST POP PUSH1 0x4 CALLDATASIZE LT PUSH2 0x3F JUMPI PUSH0 CALLDATALOAD PUSH1 0xE0 SHR DUP1 PUSH4 0x9D0AFBAA EQ PUSH2 0x43 JUMPI DUP1 PUSH4 0xA58DC1E7 EQ PUSH2 0x73 JUMPI DUP1 PUSH4 0xECBAC7CF EQ PUSH2 0xA3 JUMPI JUMPDEST PUSH0 PUSH0 REVERT JUMPDEST PUSH2 0x5D PUSH1 0x4 DUP1 CALLDATASIZE SUB DUP2 ADD SWAP1 PUSH2 0x58 SWAP2 SWAP1 PUSH2 0x13A JUMP JUMPDEST PUSH2 0xC1 JUMP JUMPDEST PUSH1 0x40 MLOAD PUSH2 0x6A SWAP2 SWAP1 PUSH2 0x187 JUMP JUMPDEST PUSH1 0x40 MLOAD DUP1 SWAP2 SUB SWAP1 RETURN JUMPDEST PUSH2 0x8D PUSH1 0x4 DUP1 CALLDATASIZE SUB DUP2 ADD SWAP1 PUSH2 0x88 SWAP2 SWAP1 PUSH2 0x13A JUMP JUMPDEST PUSH2 0xD4 JUMP JUMPDEST PUSH1 0x40 MLOAD PUSH2 0x9A SWAP2 SWAP1 PUSH2 0x187 JUMP JUMPDEST PUSH1 0x40 MLOAD DUP1 SWAP2 SUB SWAP1 RETURN JUMPDEST PUSH2 0xAB PUSH2 0xE9 JUMP JUMPDEST PUSH1 0x40 MLOAD PUSH2 0xB8 SWAP2 SWAP1 PUSH2 0x187 JUMP JUMPDEST PUSH1 0x40 MLOAD DUP1 SWAP2 SUB SWAP1 RETURN JUMPDEST PUSH0 PUSH2 0xCC DUP4 DUP4 PUSH2 0xEE JUMP JUMPDEST SWAP1 POP SWAP3 SWAP2 POP POP JUMP JUMPDEST PUSH0 DUP2 DUP4 PUSH2 0xE1 SWAP2 SWAP1 PUSH2 0x2FC JUMP JUMPDEST SWAP1 POP SWAP3 SWAP2 POP POP JUMP JUMPDEST PUSH0 SLOAD DUP2 JUMP JUMPDEST PUSH0 DUP2 DUP4 PUSH2 0xFB SWAP2 SWAP1 PUSH2 0x346 JUMP JUMPDEST SWAP1 POP SWAP3 SWAP2 POP POP JUMP JUMPDEST PUSH0 PUSH0 REVERT JUMPDEST PUSH0 DUP2 SWAP1 POP SWAP2 SWAP1 POP JUMP JUMPDEST PUSH2 0x119 DUP2 PUSH2 0x107 JUMP JUMPDEST DUP2 EQ PUSH2 0x123 JUMPI PUSH0 PUSH0 REVERT JUMPDEST POP JUMP JUMPDEST PUSH0 DUP2 CALLDATALOAD SWAP1 POP PUSH2 0x134 DUP2 PUSH2 0x110 JUMP JUMPDEST SWAP3 SWAP2 POP POP JUMP JUMPDEST PUSH0 PUSH0 PUSH1 0x40 DUP4 DUP6 SUB SLT ISZERO PUSH2 0x150 JUMPI PUSH2 0x14F PUSH2 0x103 JUMP JUMPDEST JUMPDEST PUSH0 PUSH2 0x15D DUP6 DUP3 DUP7 ADD PUSH2 0x126 JUMP JUMPDEST SWAP3 POP POP PUSH1 0x20 PUSH2 0x16E DUP6 DUP3 DUP7 ADD PUSH2 0x126 JUMP JUMPDEST SWAP2 POP POP SWAP3 POP SWAP3 SWAP1 POP JUMP JUMPDEST PUSH2 0x181 DUP2 PUSH2 0x107 JUMP JUMPDEST DUP3 MSTORE POP POP JUMP JUMPDEST PUSH0 PUSH1 0x20 DUP3 ADD SWAP1 POP PUSH2 0x19A PUSH0 DUP4 ADD DUP5 PUSH2 0x178 JUMP JUMPDEST SWAP3 SWAP2 POP POP JUMP JUMPDEST PUSH32 0x4E487B7100000000000000000000000000000000000000000000000000000000 PUSH0 MSTORE PUSH1 0x11 PUSH1 0x4 MSTORE PUSH1 0x24 PUSH0 REVERT JUMPDEST PUSH0 DUP2 PUSH1 0x1 SHR SWAP1 POP SWAP2 SWAP1 POP JUMP JUMPDEST PUSH0 PUSH0 DUP3 SWAP2 POP DUP4 SWAP1 POP JUMPDEST PUSH1 0x1 DUP6 GT ISZERO PUSH2 0x222 JUMPI DUP1 DUP7 DIV DUP2 GT ISZERO PUSH2 0x1FE JUMPI PUSH2 0x1FD PUSH2 0x1A0 JUMP JUMPDEST JUMPDEST PUSH1 0x1 DUP6 AND ISZERO PUSH2 0x20D JUMPI DUP1 DUP3 MUL SWAP2 POP JUMPDEST DUP1 DUP2 MUL SWAP1 POP PUSH2 0x21B DUP6 PUSH2 0x1CD JUMP JUMPDEST SWAP5 POP PUSH2 0x1E2 JUMP JUMPDEST SWAP5 POP SWAP5 SWAP3 POP POP POP JUMP JUMPDEST PUSH0 DUP3 PUSH2 0x23A JUMPI PUSH1 0x1 SWAP1 POP PUSH2 0x2F5 JUMP JUMPDEST DUP2 PUSH2 0x247 JUMPI PUSH0 SWAP1 POP PUSH2 0x2F5 JUMP JUMPDEST DUP2 PUSH1 0x1 DUP2 EQ PUSH2 0x25D JUMPI PUSH1 0x2 DUP2 EQ PUSH2 0x267 JUMPI PUSH2 0x296 JUMP JUMPDEST PUSH1 0x1 SWAP2 POP POP PUSH2 0x2F5 JUMP JUMPDEST PUSH1 0xFF DUP5 GT ISZERO PUSH2 0x279 JUMPI PUSH2 0x278 PUSH2 0x1A0 JUMP JUMPDEST JUMPDEST DUP4 PUSH1 0x2 EXP SWAP2 POP DUP5 DUP3 GT ISZERO PUSH2 0x290 JUMPI PUSH2 0x28F PUSH2 0x1A0 JUMP JUMPDEST JUMPDEST POP PUSH2 0x2F5 JUMP JUMPDEST POP PUSH1 0x20 DUP4 LT PUSH2 0x133 DUP4 LT AND PUSH1 0x4E DUP5 LT PUSH1 0xB DUP5 LT AND OR ISZERO PUSH2 0x2CB JUMPI DUP3 DUP3 EXP SWAP1 POP DUP4 DUP2 GT ISZERO PUSH2 0x2C6 JUMPI PUSH2 0x2C5 PUSH2 0x1A0 JUMP JUMPDEST JUMPDEST PUSH2 0x2F5 JUMP JUMPDEST PUSH2 0x2D8 DUP5 DUP5 DUP5 PUSH1 0x1 PUSH2 0x1D9 JUMP JUMPDEST SWAP3 POP SWAP1 POP DUP2 DUP5 DIV DUP2 GT ISZERO PUSH2 0x2EF JUMPI PUSH2 0x2EE PUSH2 0x1A0 JUMP JUMPDEST JUMPDEST DUP2 DUP2 MUL SWAP1 POP JUMPDEST SWAP4 SWAP3 POP POP POP JUMP JUMPDEST PUSH0 PUSH2 0x306 DUP3 PUSH2 0x107 JUMP JUMPDEST SWAP2 POP PUSH2 0x311 DUP4 PUSH2 0x107 JUMP JUMPDEST SWAP3 POP PUSH2 0x33E PUSH32 0xFFFFFFFFFFFFFFFFFFFFFFFFFFFFFFFFFFFFFFFFFFFFFFFFFFFFFFFFFFFFFFFF DUP5 DUP5 PUSH2 0x22B JUMP JUMPDEST SWAP1 POP SWAP3 SWAP2 POP POP JUMP JUMPDEST PUSH0 PUSH2 0x350 DUP3 PUSH2 0x107 JUMP JUMPDEST SWAP2 POP PUSH2 0x35B DUP4 PUSH2 0x107 JUMP JUMPDEST SWAP3 POP DUP3 DUP3 ADD SWAP1 POP DUP1 DUP3 GT ISZERO PUSH2 0x373 JUMPI PUSH2 0x372 PUSH2 0x1A0 JUMP JUMPDEST JUMPDEST SWAP3 SWAP2 POP POP JUMP INVALID LOG2 PUSH5 0x6970667358 0x22 SLT KECCAK256 PUSH9 0x85AA1FDF50F57BA559 CODECOPY SGT SELFDESTRUCT 0x1F STOP SWAP4 PUSH28 0x7728A9FB52D43C96A8975D1AACC90764736F6C634300081E00330000 "
		},
		"gasEstimates": {
			"creation": {
				"codeDepositCost": "188600",
				"executionCost": "24447",
				"totalCost": "213047"
			},
			"external": {
				"calculete(uint256,uint256)": "infinite",
				"callcalculete(uint256,uint256)": "infinite",
				"valor()": "2446"
			}
		},
		"methodIdentifiers": {
			"calculete(uint256,uint256)": "a58dc1e7",
			"callcalculete(uint256,uint256)": "9d0afbaa",
			"valor()": "ecbac7cf"
		}
	},
	"abi": [
		{
			"inputs": [
				{
					"internalType": "uint256",
					"name": "x",
					"type": "uint256"
				},
				{
					"internalType": "uint256",
					"name": "y",
					"type": "uint256"
				}
			],
			"name": "calculete",
			"outputs": [
				{
					"internalType": "uint256",
					"name": "",
					"type": "uint256"
				}
			],
			"stateMutability": "pure",
			"type": "function"
		},
		{
			"inputs": [
				{
					"internalType": "uint256",
					"name": "x",
					"type": "uint256"
				},
				{
					"internalType": "uint256",
					"name": "y",
					"type": "uint256"
				}
			],
			"name": "callcalculete",
			"outputs": [
				{
					"internalType": "uint256",
					"name": "",
					"type": "uint256"
				}
			],
			"stateMutability": "pure",
			"type": "function"
		},
		{
			"inputs": [],
			"name": "valor",
			"outputs": [
				{
					"internalType": "uint256",
					"name": "",
					"type": "uint256"
				}
			],
			"stateMutability": "view",
			"type": "function"
		}
	]
}