{
	"data": {
		"bytecode": {
			"linkReferences": {},
			"object": "608060405234801561000f575f5ffd5b50604051610855380380610855833981810160405281019061003191906101e4565b335f5f6101000a81548173ffffffffffffffffffffffffffffffffffffffff021916908373ffffffffffffffffffffffffffffffffffffffff160217905550816002908161007f919061046a565b50806003908161008f919061046a565b505050610539565b5f604051905090565b5f5ffd5b5f5ffd5b5f5ffd5b5f5ffd5b5f601f19601f8301169050919050565b7f4e487b71000000000000000000000000000000000000000000000000000000005f52604160045260245ffd5b6100f6826100b0565b810181811067ffffffffffffffff82111715610115576101146100c0565b5b80604052505050565b5f610127610097565b905061013382826100ed565b919050565b5f67ffffffffffffffff821115610152576101516100c0565b5b61015b826100b0565b9050602081019050919050565b8281835e5f83830152505050565b5f61018861018384610138565b61011e565b9050828152602081018484840111156101a4576101a36100ac565b5b6101af848285610168565b509392505050565b5f82601f8301126101cb576101ca6100a8565b5b81516101db848260208601610176565b91505092915050565b5f5f604083850312156101fa576101f96100a0565b5b5f83015167ffffffffffffffff811115610217576102166100a4565b5b610223858286016101b7565b925050602083015167ffffffffffffffff811115610244576102436100a4565b5b610250858286016101b7565b9150509250929050565b5f81519050919050565b7f4e487b71000000000000000000000000000000000000000000000000000000005f52602260045260245ffd5b5f60028204905060018216806102a857607f821691505b6020821081036102bb576102ba610264565b5b50919050565b5f819050815f5260205f209050919050565b5f6020601f8301049050919050565b5f82821b905092915050565b5f6008830261031d7fffffffffffffffffffffffffffffffffffffffffffffffffffffffffffffffff826102e2565b61032786836102e2565b95508019841693508086168417925050509392505050565b5f819050919050565b5f819050919050565b5f61036b6103666103618461033f565b610348565b61033f565b9050919050565b5f819050919050565b61038483610351565b61039861039082610372565b8484546102ee565b825550505050565b5f5f905090565b6103af6103a0565b6103ba81848461037b565b505050565b5b818110156103dd576103d25f826103a7565b6001810190506103c0565b5050565b601f821115610422576103f3816102c1565b6103fc846102d3565b8101602085101561040b578190505b61041f610417856102d3565b8301826103bf565b50505b505050565b5f82821c905092915050565b5f6104425f1984600802610427565b1980831691505092915050565b5f61045a8383610433565b9150826002028217905092915050565b6104738261025a565b67ffffffffffffffff81111561048c5761048b6100c0565b5b6104968254610291565b6104a18282856103e1565b5f60209050601f8311600181146104d2575f84156104c0578287015190505b6104ca858261044f565b865550610531565b601f1984166104e0866102c1565b5f5b82811015610507578489015182556001820191506020850194506020810190506104e2565b868310156105245784890151610520601f891682610433565b8355505b6001600288020188555050505b505050505050565b61030f806105465f395ff3fe608060405234801561000f575f5ffd5b5060043610610034575f3560e01c80639e6586d314610038578063f851a44014610054575b5f5ffd5b610052600480360381019061004d91906101e9565b610072565b005b61005c61010e565b6040516100699190610248565b60405180910390f35b5f5f9054906101000a900473ffffffffffffffffffffffffffffffffffffffff1673ffffffffffffffffffffffffffffffffffffffff163373ffffffffffffffffffffffffffffffffffffffff1614610100576040517f08c379a00000000000000000000000000000000000000000000000000000000081526004016100f7906102bb565b60405180910390fd5b610108610132565b50505050565b5f5f9054906101000a900473ffffffffffffffffffffffffffffffffffffffff1681565b60405180608001604052805f81526020015f81526020015f81526020015f151581525090565b5f5ffd5b5f73ffffffffffffffffffffffffffffffffffffffff82169050919050565b5f6101858261015c565b9050919050565b6101958161017b565b811461019f575f5ffd5b50565b5f813590506101b08161018c565b92915050565b5f819050919050565b6101c8816101b6565b81146101d2575f5ffd5b50565b5f813590506101e3816101bf565b92915050565b5f5f5f60608486031215610200576101ff610158565b5b5f61020d868287016101a2565b935050602061021e868287016101d5565b925050604061022f868287016101d5565b9150509250925092565b6102428161017b565b82525050565b5f60208201905061025b5f830184610239565b92915050565b5f82825260208201905092915050565b7f4f6e6c7920746865204f6e7765722063616e2063616c6c20746869732e0000005f82015250565b5f6102a5601d83610261565b91506102b082610271565b602082019050919050565b5f6020820190508181035f8301526102d281610299565b905091905056fea2646970667358221220fb3aa75669afedaac9808743a16f012d89612782c0c632b72a22053a92dab6c764736f6c634300081e0033",
			"opcodes": "PUSH1 0x80 PUSH1 0x40 MSTORE CALLVALUE DUP1 ISZERO PUSH2 0xF JUMPI PUSH0 PUSH0 REVERT JUMPDEST POP PUSH1 0x40 MLOAD PUSH2 0x855 CODESIZE SUB DUP1 PUSH2 0x855 DUP4 CODECOPY DUP2 DUP2 ADD PUSH1 0x40 MSTORE DUP2 ADD SWAP1 PUSH2 0x31 SWAP2 SWAP1 PUSH2 0x1E4 JUMP JUMPDEST CALLER PUSH0 PUSH0 PUSH2 0x100 EXP DUP2 SLOAD DUP2 PUSH20 0xFFFFFFFFFFFFFFFFFFFFFFFFFFFFFFFFFFFFFFFF MUL NOT AND SWAP1 DUP4 PUSH20 0xFFFFFFFFFFFFFFFFFFFFFFFFFFFFFFFFFFFFFFFF AND MUL OR SWAP1 SSTORE POP DUP2 PUSH1 0x2 SWAP1 DUP2 PUSH2 0x7F SWAP2 SWAP1 PUSH2 0x46A JUMP JUMPDEST POP DUP1 PUSH1 0x3 SWAP1 DUP2 PUSH2 0x8F SWAP2 SWAP1 PUSH2 0x46A JUMP JUMPDEST POP POP POP PUSH2 0x539 JUMP JUMPDEST PUSH0 PUSH1 0x40 MLOAD SWAP1 POP SWAP1 JUMP JUMPDEST PUSH0 PUSH0 REVERT JUMPDEST PUSH0 PUSH0 REVERT JUMPDEST PUSH0 PUSH0 REVERT JUMPDEST PUSH0 PUSH0 REVERT JUMPDEST PUSH0 PUSH1 0x1F NOT PUSH1 0x1F DUP4 ADD AND SWAP1 POP SWAP2 SWAP1 POP JUMP JUMPDEST PUSH32 0x4E487B7100000000000000000000000000000000000000000000000000000000 PUSH0 MSTORE PUSH1 0x41 PUSH1 0x4 MSTORE PUSH1 0x24 PUSH0 REVERT JUMPDEST PUSH2 0xF6 DUP3 PUSH2 0xB0 JUMP JUMPDEST DUP2 ADD DUP2 DUP2 LT PUSH8 0xFFFFFFFFFFFFFFFF DUP3 GT OR ISZERO PUSH2 0x115 JUMPI PUSH2 0x114 PUSH2 0xC0 JUMP JUMPDEST JUMPDEST DUP1 PUSH1 0x40 MSTORE POP POP POP JUMP JUMPDEST PUSH0 PUSH2 0x127 PUSH2 0x97 JUMP JUMPDEST SWAP1 POP PUSH2 0x133 DUP3 DUP3 PUSH2 0xED JUMP JUMPDEST SWAP2 SWAP1 POP JUMP JUMPDEST PUSH0 PUSH8 0xFFFFFFFFFFFFFFFF DUP3 GT ISZERO PUSH2 0x152 JUMPI PUSH2 0x151 PUSH2 0xC0 JUMP JUMPDEST JUMPDEST PUSH2 0x15B DUP3 PUSH2 0xB0 JUMP JUMPDEST SWAP1 POP PUSH1 0x20 DUP2 ADD SWAP1 POP SWAP2 SWAP1 POP JUMP JUMPDEST DUP3 DUP2 DUP4 MCOPY PUSH0 DUP4 DUP4 ADD MSTORE POP POP POP JUMP JUMPDEST PUSH0 PUSH2 0x188 PUSH2 0x183 DUP5 PUSH2 0x138 JUMP JUMPDEST PUSH2 0x11E JUMP JUMPDEST SWAP1 POP DUP3 DUP2 MSTORE PUSH1 0x20 DUP2 ADD DUP5 DUP5 DUP5 ADD GT ISZERO PUSH2 0x1A4 JUMPI PUSH2 0x1A3 PUSH2 0xAC JUMP JUMPDEST JUMPDEST PUSH2 0x1AF DUP5 DUP3 DUP6 PUSH2 0x168 JUMP JUMPDEST POP SWAP4 SWAP3 POP POP POP JUMP JUMPDEST PUSH0 DUP3 PUSH1 0x1F DUP4 ADD SLT PUSH2 0x1CB JUMPI PUSH2 0x1CA PUSH2 0xA8 JUMP JUMPDEST JUMPDEST DUP2 MLOAD PUSH2 0x1DB DUP5 DUP3 PUSH1 0x20 DUP7 ADD PUSH2 0x176 JUMP JUMPDEST SWAP2 POP POP SWAP3 SWAP2 POP POP JUMP JUMPDEST PUSH0 PUSH0 PUSH1 0x40 DUP4 DUP6 SUB SLT ISZERO PUSH2 0x1FA JUMPI PUSH2 0x1F9 PUSH2 0xA0 JUMP JUMPDEST JUMPDEST PUSH0 DUP4 ADD MLOAD PUSH8 0xFFFFFFFFFFFFFFFF DUP2 GT ISZERO PUSH2 0x217 JUMPI PUSH2 0x216 PUSH2 0xA4 JUMP JUMPDEST JUMPDEST PUSH2 0x223 DUP6 DUP3 DUP7 ADD PUSH2 0x1B7 JUMP JUMPDEST SWAP3 POP POP PUSH1 0x20 DUP4 ADD MLOAD PUSH8 0xFFFFFFFFFFFFFFFF DUP2 GT ISZERO PUSH2 0x244 JUMPI PUSH2 0x243 PUSH2 0xA4 JUMP JUMPDEST JUMPDEST PUSH2 0x250 DUP6 DUP3 DUP7 ADD PUSH2 0x1B7 JUMP JUMPDEST SWAP2 POP POP SWAP3 POP SWAP3 SWAP1 POP JUMP JUMPDEST PUSH0 DUP2 MLOAD SWAP1 POP SWAP2 SWAP1 POP JUMP JUMPDEST PUSH32 0x4E487B7100000000000000000000000000000000000000000000000000000000 PUSH0 MSTORE PUSH1 0x22 PUSH1 0x4 MSTORE PUSH1 0x24 PUSH0 REVERT JUMPDEST PUSH0 PUSH1 0x2 DUP3 DIV SWAP1 POP PUSH1 0x1 DUP3 AND DUP1 PUSH2 0x2A8 JUMPI PUSH1 0x7F DUP3 AND SWAP2 POP JUMPDEST PUSH1 0x20 DUP3 LT DUP2 SUB PUSH2 0x2BB JUMPI PUSH2 0x2BA PUSH2 0x264 JUMP JUMPDEST JUMPDEST POP SWAP2 SWAP1 POP JUMP JUMPDEST PUSH0 DUP2 SWAP1 POP DUP2 PUSH0 MSTORE PUSH1 0x20 PUSH0 KECCAK256 SWAP1 POP SWAP2 SWAP1 POP JUMP JUMPDEST PUSH0 PUSH1 0x20 PUSH1 0x1F DUP4 ADD DIV SWAP1 POP SWAP2 SWAP1 POP JUMP JUMPDEST PUSH0 DUP3 DUP3 SHL SWAP1 POP SWAP3 SWAP2 POP POP JUMP JUMPDEST PUSH0 PUSH1 0x8 DUP4 MUL PUSH2 0x31D PUSH32 0xFFFFFFFFFFFFFFFFFFFFFFFFFFFFFFFFFFFFFFFFFFFFFFFFFFFFFFFFFFFFFFFF DUP3 PUSH2 0x2E2 JUMP JUMPDEST PUSH2 0x327 DUP7 DUP4 PUSH2 0x2E2 JUMP JUMPDEST SWAP6 POP DUP1 NOT DUP5 AND SWAP4 POP DUP1 DUP7 AND DUP5 OR SWAP3 POP POP POP SWAP4 SWAP3 POP POP POP JUMP JUMPDEST PUSH0 DUP2 SWAP1 POP SWAP2 SWAP1 POP JUMP JUMPDEST PUSH0 DUP2 SWAP1 POP SWAP2 SWAP1 POP JUMP JUMPDEST PUSH0 PUSH2 0x36B PUSH2 0x366 PUSH2 0x361 DUP5 PUSH2 0x33F JUMP JUMPDEST PUSH2 0x348 JUMP JUMPDEST PUSH2 0x33F JUMP JUMPDEST SWAP1 POP SWAP2 SWAP1 POP JUMP JUMPDEST PUSH0 DUP2 SWAP1 POP SWAP2 SWAP1 POP JUMP JUMPDEST PUSH2 0x384 DUP4 PUSH2 0x351 JUMP JUMPDEST PUSH2 0x398 PUSH2 0x390 DUP3 PUSH2 0x372 JUMP JUMPDEST DUP5 DUP5 SLOAD PUSH2 0x2EE JUMP JUMPDEST DUP3 SSTORE POP POP POP POP JUMP JUMPDEST PUSH0 PUSH0 SWAP1 POP SWAP1 JUMP JUMPDEST PUSH2 0x3AF PUSH2 0x3A0 JUMP JUMPDEST PUSH2 0x3BA DUP2 DUP5 DUP5 PUSH2 0x37B JUMP JUMPDEST POP POP POP JUMP JUMPDEST JUMPDEST DUP2 DUP2 LT ISZERO PUSH2 0x3DD JUMPI PUSH2 0x3D2 PUSH0 DUP3 PUSH2 0x3A7 JUMP JUMPDEST PUSH1 0x1 DUP2 ADD SWAP1 POP PUSH2 0x3C0 JUMP JUMPDEST POP POP JUMP JUMPDEST PUSH1 0x1F DUP3 GT ISZERO PUSH2 0x422 JUMPI PUSH2 0x3F3 DUP2 PUSH2 0x2C1 JUMP JUMPDEST PUSH2 0x3FC DUP5 PUSH2 0x2D3 JUMP JUMPDEST DUP2 ADD PUSH1 0x20 DUP6 LT ISZERO PUSH2 0x40B JUMPI DUP2 SWAP1 POP JUMPDEST PUSH2 0x41F PUSH2 0x417 DUP6 PUSH2 0x2D3 JUMP JUMPDEST DUP4 ADD DUP3 PUSH2 0x3BF JUMP JUMPDEST POP POP JUMPDEST POP POP POP JUMP JUMPDEST PUSH0 DUP3 DUP3 SHR SWAP1 POP SWAP3 SWAP2 POP POP JUMP JUMPDEST PUSH0 PUSH2 0x442 PUSH0 NOT DUP5 PUSH1 0x8 MUL PUSH2 0x427 JUMP JUMPDEST NOT DUP1 DUP4 AND SWAP2 POP POP SWAP3 SWAP2 POP POP JUMP JUMPDEST PUSH0 PUSH2 0x45A DUP4 DUP4 PUSH2 0x433 JUMP JUMPDEST SWAP2 POP DUP3 PUSH1 0x2 MUL DUP3 OR SWAP1 POP SWAP3 SWAP2 POP POP JUMP JUMPDEST PUSH2 0x473 DUP3 PUSH2 0x25A JUMP JUMPDEST PUSH8 0xFFFFFFFFFFFFFFFF DUP2 GT ISZERO PUSH2 0x48C JUMPI PUSH2 0x48B PUSH2 0xC0 JUMP JUMPDEST JUMPDEST PUSH2 0x496 DUP3 SLOAD PUSH2 0x291 JUMP JUMPDEST PUSH2 0x4A1 DUP3 DUP3 DUP6 PUSH2 0x3E1 JUMP JUMPDEST PUSH0 PUSH1 0x20 SWAP1 POP PUSH1 0x1F DUP4 GT PUSH1 0x1 DUP2 EQ PUSH2 0x4D2 JUMPI PUSH0 DUP5 ISZERO PUSH2 0x4C0 JUMPI DUP3 DUP8 ADD MLOAD SWAP1 POP JUMPDEST PUSH2 0x4CA DUP6 DUP3 PUSH2 0x44F JUMP JUMPDEST DUP7 SSTORE POP PUSH2 0x531 JUMP JUMPDEST PUSH1 0x1F NOT DUP5 AND PUSH2 0x4E0 DUP7 PUSH2 0x2C1 JUMP JUMPDEST PUSH0 JUMPDEST DUP3 DUP2 LT ISZERO PUSH2 0x507 JUMPI DUP5 DUP10 ADD MLOAD DUP3 SSTORE PUSH1 0x1 DUP3 ADD SWAP2 POP PUSH1 0x20 DUP6 ADD SWAP5 POP PUSH1 0x20 DUP2 ADD SWAP1 POP PUSH2 0x4E2 JUMP JUMPDEST DUP7 DUP4 LT ISZERO PUSH2 0x524 JUMPI DUP5 DUP10 ADD MLOAD PUSH2 0x520 PUSH1 0x1F DUP10 AND DUP3 PUSH2 0x433 JUMP JUMPDEST DUP4 SSTORE POP JUMPDEST PUSH1 0x1 PUSH1 0x2 DUP9 MUL ADD DUP9 SSTORE POP POP POP JUMPDEST POP POP POP POP POP POP JUMP JUMPDEST PUSH2 0x30F DUP1 PUSH2 0x546 PUSH0 CODECOPY PUSH0 RETURN INVALID PUSH1 0x80 PUSH1 0x40 MSTORE CALLVALUE DUP1 ISZERO PUSH2 0xF JUMPI PUSH0 PUSH0 REVERT JUMPDEST POP PUSH1 0x4 CALLDATASIZE LT PUSH2 0x34 JUMPI PUSH0 CALLDATALOAD PUSH1 0xE0 SHR DUP1 PUSH4 0x9E6586D3 EQ PUSH2 0x38 JUMPI DUP1 PUSH4 0xF851A440 EQ PUSH2 0x54 JUMPI JUMPDEST PUSH0 PUSH0 REVERT JUMPDEST PUSH2 0x52 PUSH1 0x4 DUP1 CALLDATASIZE SUB DUP2 ADD SWAP1 PUSH2 0x4D SWAP2 SWAP1 PUSH2 0x1E9 JUMP JUMPDEST PUSH2 0x72 JUMP JUMPDEST STOP JUMPDEST PUSH2 0x5C PUSH2 0x10E JUMP JUMPDEST PUSH1 0x40 MLOAD PUSH2 0x69 SWAP2 SWAP1 PUSH2 0x248 JUMP JUMPDEST PUSH1 0x40 MLOAD DUP1 SWAP2 SUB SWAP1 RETURN JUMPDEST PUSH0 PUSH0 SWAP1 SLOAD SWAP1 PUSH2 0x100 EXP SWAP1 DIV PUSH20 0xFFFFFFFFFFFFFFFFFFFFFFFFFFFFFFFFFFFFFFFF AND PUSH20 0xFFFFFFFFFFFFFFFFFFFFFFFFFFFFFFFFFFFFFFFF AND CALLER PUSH20 0xFFFFFFFFFFFFFFFFFFFFFFFFFFFFFFFFFFFFFFFF AND EQ PUSH2 0x100 JUMPI PUSH1 0x40 MLOAD PUSH32 0x8C379A000000000000000000000000000000000000000000000000000000000 DUP2 MSTORE PUSH1 0x4 ADD PUSH2 0xF7 SWAP1 PUSH2 0x2BB JUMP JUMPDEST PUSH1 0x40 MLOAD DUP1 SWAP2 SUB SWAP1 REVERT JUMPDEST PUSH2 0x108 PUSH2 0x132 JUMP JUMPDEST POP POP POP POP JUMP JUMPDEST PUSH0 PUSH0 SWAP1 SLOAD SWAP1 PUSH2 0x100 EXP SWAP1 DIV PUSH20 0xFFFFFFFFFFFFFFFFFFFFFFFFFFFFFFFFFFFFFFFF AND DUP2 JUMP JUMPDEST PUSH1 0x40 MLOAD DUP1 PUSH1 0x80 ADD PUSH1 0x40 MSTORE DUP1 PUSH0 DUP2 MSTORE PUSH1 0x20 ADD PUSH0 DUP2 MSTORE PUSH1 0x20 ADD PUSH0 DUP2 MSTORE PUSH1 0x20 ADD PUSH0 ISZERO ISZERO DUP2 MSTORE POP SWAP1 JUMP JUMPDEST PUSH0 PUSH0 REVERT JUMPDEST PUSH0 PUSH20 0xFFFFFFFFFFFFFFFFFFFFFFFFFFFFFFFFFFFFFFFF DUP3 AND SWAP1 POP SWAP2 SWAP1 POP JUMP JUMPDEST PUSH0 PUSH2 0x185 DUP3 PUSH2 0x15C JUMP JUMPDEST SWAP1 POP SWAP2 SWAP1 POP JUMP JUMPDEST PUSH2 0x195 DUP2 PUSH2 0x17B JUMP JUMPDEST DUP2 EQ PUSH2 0x19F JUMPI PUSH0 PUSH0 REVERT JUMPDEST POP JUMP JUMPDEST PUSH0 DUP2 CALLDATALOAD SWAP1 POP PUSH2 0x1B0 DUP2 PUSH2 0x18C JUMP JUMPDEST SWAP3 SWAP2 POP POP JUMP JUMPDEST PUSH0 DUP2 SWAP1 POP SWAP2 SWAP1 POP JUMP JUMPDEST PUSH2 0x1C8 DUP2 PUSH2 0x1B6 JUMP JUMPDEST DUP2 EQ PUSH2 0x1D2 JUMPI PUSH0 PUSH0 REVERT JUMPDEST POP JUMP JUMPDEST PUSH0 DUP2 CALLDATALOAD SWAP1 POP PUSH2 0x1E3 DUP2 PUSH2 0x1BF JUMP JUMPDEST SWAP3 SWAP2 POP POP JUMP JUMPDEST PUSH0 PUSH0 PUSH0 PUSH1 0x60 DUP5 DUP7 SUB SLT ISZERO PUSH2 0x200 JUMPI PUSH2 0x1FF PUSH2 0x158 JUMP JUMPDEST JUMPDEST PUSH0 PUSH2 0x20D DUP7 DUP3 DUP8 ADD PUSH2 0x1A2 JUMP JUMPDEST SWAP4 POP POP PUSH1 0x20 PUSH2 0x21E DUP7 DUP3 DUP8 ADD PUSH2 0x1D5 JUMP JUMPDEST SWAP3 POP POP PUSH1 0x40 PUSH2 0x22F DUP7 DUP3 DUP8 ADD PUSH2 0x1D5 JUMP JUMPDEST SWAP2 POP POP SWAP3 POP SWAP3 POP SWAP3 JUMP JUMPDEST PUSH2 0x242 DUP2 PUSH2 0x17B JUMP JUMPDEST DUP3 MSTORE POP POP JUMP JUMPDEST PUSH0 PUSH1 0x20 DUP3 ADD SWAP1 POP PUSH2 0x25B PUSH0 DUP4 ADD DUP5 PUSH2 0x239 JUMP JUMPDEST SWAP3 SWAP2 POP POP JUMP JUMPDEST PUSH0 DUP3 DUP3 MSTORE PUSH1 0x20 DUP3 ADD SWAP1 POP SWAP3 SWAP2 POP POP JUMP JUMPDEST PUSH32 0x4F6E6C7920746865204F6E7765722063616E2063616C6C20746869732E000000 PUSH0 DUP3 ADD MSTORE POP JUMP JUMPDEST PUSH0 PUSH2 0x2A5 PUSH1 0x1D DUP4 PUSH2 0x261 JUMP JUMPDEST SWAP2 POP PUSH2 0x2B0 DUP3 PUSH2 0x271 JUMP JUMPDEST PUSH1 0x20 DUP3 ADD SWAP1 POP SWAP2 SWAP1 POP JUMP JUMPDEST PUSH0 PUSH1 0x20 DUP3 ADD SWAP1 POP DUP2 DUP2 SUB PUSH0 DUP4 ADD MSTORE PUSH2 0x2D2 DUP2 PUSH2 0x299 JUMP JUMPDEST SWAP1 POP SWAP2 SWAP1 POP JUMP INVALID LOG2 PUSH5 0x6970667358 0x22 SLT KECCAK256 EXTSTATICCALL GASPRICE 0xA7 JUMP PUSH10 0xAFEDAAC9808743A16F01 0x2D DUP10 PUSH2 0x2782 0xC0 0xC6 ORIGIN 0xB7 0x2A 0x22 SDIV GASPRICE SWAP3 0xDA 0xB6 0xC7 PUSH5 0x736F6C6343 STOP ADDMOD 0x1E STOP CALLER "
		},
		"gasEstimates": {
			"creation": {
				"codeDepositCost": "156600",
				"executionCost": "infinite",
				"totalCost": "infinite"
			},
			"external": {
				"RegisttreUser(address,uint256,uint256)": "infinite",
				"admin()": "2507"
			}
		},
		"methodIdentifiers": {
			"RegisttreUser(address,uint256,uint256)": "9e6586d3",
			"admin()": "f851a440"
		}
	},
	"abi": [
		{
			"inputs": [
				{
					"internalType": "string",
					"name": "_name",
					"type": "string"
				},
				{
					"internalType": "string",
					"name": "_symbol",
					"type": "string"
				}
			],
			"stateMutability": "nonpayable",
			"type": "constructor"
		},
		{
			"anonymous": false,
			"inputs": [
				{
					"indexed": true,
					"internalType": "address",
					"name": "user",
					"type": "address"
				},
				{
					"indexed": false,
					"internalType": "uint256",
					"name": "newReputation",
					"type": "uint256"
				}
			],
			"name": "ReputationChanged",
			"type": "event"
		},
		{
			"anonymous": false,
			"inputs": [
				{
					"indexed": true,
					"internalType": "address",
					"name": "from",
					"type": "address"
				},
				{
					"indexed": true,
					"internalType": "address",
					"name": "to",
					"type": "address"
				},
				{
					"indexed": false,
					"internalType": "uint256",
					"name": "amount",
					"type": "uint256"
				}
			],
			"name": "Transfer",
			"type": "event"
		},
		{
			"anonymous": false,
			"inputs": [
				{
					"indexed": true,
					"internalType": "address",
					"name": "user",
					"type": "address"
				}
			],
			"name": "UserRegistered",
			"type": "event"
		},
		{
			"inputs": [
				{
					"internalType": "address",
					"name": "_user",
					"type": "address"
				},
				{
					"internalType": "uint256",
					"name": "inicialbalance",
					"type": "uint256"
				},
				{
					"internalType": "uint256",
					"name": "inicialreputation",
					"type": "uint256"
				}
			],
			"name": "RegisttreUser",
			"outputs": [],
			"stateMutability": "nonpayable",
			"type": "function"
		},
		{
			"inputs": [],
			"name": "admin",
			"outputs": [
				{
					"internalType": "address",
					"name": "",
					"type": "address"
				}
			],
			"stateMutability": "view",
			"type": "function"
		}
	]
}