{
	"data": {
		"bytecode": {
			"linkReferences": {},
			"object": "6080604052348015600e575f5ffd5b506103b88061001c5f395ff3fe608060405234801561000f575f5ffd5b506004361061007b575f3560e01c8063c7e1157911610059578063c7e11579146100d9578063dc46cc1c146100f7578063f38b274314610115578063f712f2d8146101335761007b565b80635984e2201461007f5780635e2fc05a1461009d578063b624cb54146100bb575b5f5ffd5b610087610151565b60405161009491906101f8565b60405180910390f35b6100a5610164565b6040516100b2919061024b565b60405180910390f35b6100c3610176565b6040516100d0919061027c565b60405180910390f35b6100e161017c565b6040516100ee91906102ad565b60405180910390f35b6100ff610182565b60405161010c91906102de565b60405180910390f35b61011d610188565b60405161012a9190610336565b60405180910390f35b61013b6101ad565b6040516101489190610369565b60405180910390f35b600360019054906101000a900460f01b81565b60035f9054906101000a900460f81b81565b60015481565b60025481565b60045481565b60055f9054906101000a900473ffffffffffffffffffffffffffffffffffffffff1681565b5f5f9054906101000a900460ff1681565b5f7fffff00000000000000000000000000000000000000000000000000000000000082169050919050565b6101f2816101be565b82525050565b5f60208201905061020b5f8301846101e9565b92915050565b5f7fff0000000000000000000000000000000000000000000000000000000000000082169050919050565b61024581610211565b82525050565b5f60208201905061025e5f83018461023c565b92915050565b5f819050919050565b61027681610264565b82525050565b5f60208201905061028f5f83018461026d565b92915050565b5f819050919050565b6102a781610295565b82525050565b5f6020820190506102c05f83018461029e565b92915050565b5f819050919050565b6102d8816102c6565b82525050565b5f6020820190506102f15f8301846102cf565b92915050565b5f73ffffffffffffffffffffffffffffffffffffffff82169050919050565b5f610320826102f7565b9050919050565b61033081610316565b82525050565b5f6020820190506103495f830184610327565b92915050565b5f8115159050919050565b6103638161034f565b82525050565b5f60208201905061037c5f83018461035a565b9291505056fea2646970667358221220e7472e281a4a8af61aaa640952ca8dced3ebcde80ce4ffb239557325e0cd10b564736f6c634300081e0033",
			"opcodes": "PUSH1 0x80 PUSH1 0x40 MSTORE CALLVALUE DUP1 ISZERO PUSH1 0xE JUMPI PUSH0 PUSH0 REVERT JUMPDEST POP PUSH2 0x3B8 DUP1 PUSH2 0x1C PUSH0 CODECOPY PUSH0 RETURN INVALID PUSH1 0x80 PUSH1 0x40 MSTORE CALLVALUE DUP1 ISZERO PUSH2 0xF JUMPI PUSH0 PUSH0 REVERT JUMPDEST POP PUSH1 0x4 CALLDATASIZE LT PUSH2 0x7B JUMPI PUSH0 CALLDATALOAD PUSH1 0xE0 SHR DUP1 PUSH4 0xC7E11579 GT PUSH2 0x59 JUMPI DUP1 PUSH4 0xC7E11579 EQ PUSH2 0xD9 JUMPI DUP1 PUSH4 0xDC46CC1C EQ PUSH2 0xF7 JUMPI DUP1 PUSH4 0xF38B2743 EQ PUSH2 0x115 JUMPI DUP1 PUSH4 0xF712F2D8 EQ PUSH2 0x133 JUMPI PUSH2 0x7B JUMP JUMPDEST DUP1 PUSH4 0x5984E220 EQ PUSH2 0x7F JUMPI DUP1 PUSH4 0x5E2FC05A EQ PUSH2 0x9D JUMPI DUP1 PUSH4 0xB624CB54 EQ PUSH2 0xBB JUMPI JUMPDEST PUSH0 PUSH0 REVERT JUMPDEST PUSH2 0x87 PUSH2 0x151 JUMP JUMPDEST PUSH1 0x40 MLOAD PUSH2 0x94 SWAP2 SWAP1 PUSH2 0x1F8 JUMP JUMPDEST PUSH1 0x40 MLOAD DUP1 SWAP2 SUB SWAP1 RETURN JUMPDEST PUSH2 0xA5 PUSH2 0x164 JUMP JUMPDEST PUSH1 0x40 MLOAD PUSH2 0xB2 SWAP2 SWAP1 PUSH2 0x24B JUMP JUMPDEST PUSH1 0x40 MLOAD DUP1 SWAP2 SUB SWAP1 RETURN JUMPDEST PUSH2 0xC3 PUSH2 0x176 JUMP JUMPDEST PUSH1 0x40 MLOAD PUSH2 0xD0 SWAP2 SWAP1 PUSH2 0x27C JUMP JUMPDEST PUSH1 0x40 MLOAD DUP1 SWAP2 SUB SWAP1 RETURN JUMPDEST PUSH2 0xE1 PUSH2 0x17C JUMP JUMPDEST PUSH1 0x40 MLOAD PUSH2 0xEE SWAP2 SWAP1 PUSH2 0x2AD JUMP JUMPDEST PUSH1 0x40 MLOAD DUP1 SWAP2 SUB SWAP1 RETURN JUMPDEST PUSH2 0xFF PUSH2 0x182 JUMP JUMPDEST PUSH1 0x40 MLOAD PUSH2 0x10C SWAP2 SWAP1 PUSH2 0x2DE JUMP JUMPDEST PUSH1 0x40 MLOAD DUP1 SWAP2 SUB SWAP1 RETURN JUMPDEST PUSH2 0x11D PUSH2 0x188 JUMP JUMPDEST PUSH1 0x40 MLOAD PUSH2 0x12A SWAP2 SWAP1 PUSH2 0x336 JUMP JUMPDEST PUSH1 0x40 MLOAD DUP1 SWAP2 SUB SWAP1 RETURN JUMPDEST PUSH2 0x13B PUSH2 0x1AD JUMP JUMPDEST PUSH1 0x40 MLOAD PUSH2 0x148 SWAP2 SWAP1 PUSH2 0x369 JUMP JUMPDEST PUSH1 0x40 MLOAD DUP1 SWAP2 SUB SWAP1 RETURN JUMPDEST PUSH1 0x3 PUSH1 0x1 SWAP1 SLOAD SWAP1 PUSH2 0x100 EXP SWAP1 DIV PUSH1 0xF0 SHL DUP2 JUMP JUMPDEST PUSH1 0x3 PUSH0 SWAP1 SLOAD SWAP1 PUSH2 0x100 EXP SWAP1 DIV PUSH1 0xF8 SHL DUP2 JUMP JUMPDEST PUSH1 0x1 SLOAD DUP2 JUMP JUMPDEST PUSH1 0x2 SLOAD DUP2 JUMP JUMPDEST PUSH1 0x4 SLOAD DUP2 JUMP JUMPDEST PUSH1 0x5 PUSH0 SWAP1 SLOAD SWAP1 PUSH2 0x100 EXP SWAP1 DIV PUSH20 0xFFFFFFFFFFFFFFFFFFFFFFFFFFFFFFFFFFFFFFFF AND DUP2 JUMP JUMPDEST PUSH0 PUSH0 SWAP1 SLOAD SWAP1 PUSH2 0x100 EXP SWAP1 DIV PUSH1 0xFF AND DUP2 JUMP JUMPDEST PUSH0 PUSH32 0xFFFF000000000000000000000000000000000000000000000000000000000000 DUP3 AND SWAP1 POP SWAP2 SWAP1 POP JUMP JUMPDEST PUSH2 0x1F2 DUP2 PUSH2 0x1BE JUMP JUMPDEST DUP3 MSTORE POP POP JUMP JUMPDEST PUSH0 PUSH1 0x20 DUP3 ADD SWAP1 POP PUSH2 0x20B PUSH0 DUP4 ADD DUP5 PUSH2 0x1E9 JUMP JUMPDEST SWAP3 SWAP2 POP POP JUMP JUMPDEST PUSH0 PUSH32 0xFF00000000000000000000000000000000000000000000000000000000000000 DUP3 AND SWAP1 POP SWAP2 SWAP1 POP JUMP JUMPDEST PUSH2 0x245 DUP2 PUSH2 0x211 JUMP JUMPDEST DUP3 MSTORE POP POP JUMP JUMPDEST PUSH0 PUSH1 0x20 DUP3 ADD SWAP1 POP PUSH2 0x25E PUSH0 DUP4 ADD DUP5 PUSH2 0x23C JUMP JUMPDEST SWAP3 SWAP2 POP POP JUMP JUMPDEST PUSH0 DUP2 SWAP1 POP SWAP2 SWAP1 POP JUMP JUMPDEST PUSH2 0x276 DUP2 PUSH2 0x264 JUMP JUMPDEST DUP3 MSTORE POP POP JUMP JUMPDEST PUSH0 PUSH1 0x20 DUP3 ADD SWAP1 POP PUSH2 0x28F PUSH0 DUP4 ADD DUP5 PUSH2 0x26D JUMP JUMPDEST SWAP3 SWAP2 POP POP JUMP JUMPDEST PUSH0 DUP2 SWAP1 POP SWAP2 SWAP1 POP JUMP JUMPDEST PUSH2 0x2A7 DUP2 PUSH2 0x295 JUMP JUMPDEST DUP3 MSTORE POP POP JUMP JUMPDEST PUSH0 PUSH1 0x20 DUP3 ADD SWAP1 POP PUSH2 0x2C0 PUSH0 DUP4 ADD DUP5 PUSH2 0x29E JUMP JUMPDEST SWAP3 SWAP2 POP POP JUMP JUMPDEST PUSH0 DUP2 SWAP1 POP SWAP2 SWAP1 POP JUMP JUMPDEST PUSH2 0x2D8 DUP2 PUSH2 0x2C6 JUMP JUMPDEST DUP3 MSTORE POP POP JUMP JUMPDEST PUSH0 PUSH1 0x20 DUP3 ADD SWAP1 POP PUSH2 0x2F1 PUSH0 DUP4 ADD DUP5 PUSH2 0x2CF JUMP JUMPDEST SWAP3 SWAP2 POP POP JUMP JUMPDEST PUSH0 PUSH20 0xFFFFFFFFFFFFFFFFFFFFFFFFFFFFFFFFFFFFFFFF DUP3 AND SWAP1 POP SWAP2 SWAP1 POP JUMP JUMPDEST PUSH0 PUSH2 0x320 DUP3 PUSH2 0x2F7 JUMP JUMPDEST SWAP1 POP SWAP2 SWAP1 POP JUMP JUMPDEST PUSH2 0x330 DUP2 PUSH2 0x316 JUMP JUMPDEST DUP3 MSTORE POP POP JUMP JUMPDEST PUSH0 PUSH1 0x20 DUP3 ADD SWAP1 POP PUSH2 0x349 PUSH0 DUP4 ADD DUP5 PUSH2 0x327 JUMP JUMPDEST SWAP3 SWAP2 POP POP JUMP JUMPDEST PUSH0 DUP2 ISZERO ISZERO SWAP1 POP SWAP2 SWAP1 POP JUMP JUMPDEST PUSH2 0x363 DUP2 PUSH2 0x34F JUMP JUMPDEST DUP3 MSTORE POP POP JUMP JUMPDEST PUSH0 PUSH1 0x20 DUP3 ADD SWAP1 POP PUSH2 0x37C PUSH0 DUP4 ADD DUP5 PUSH2 0x35A JUMP JUMPDEST SWAP3 SWAP2 POP POP JUMP INVALID LOG2 PUSH5 0x6970667358 0x22 SLT KECCAK256 SWAPN 0x47 0x2E 0x28 BYTE BLOBBASEFEE DUP11 0xF6 BYTE 0xAA PUSH5 0x952CA8DCE 0xD3 0xEB 0xCD 0xE8 0xC RETF SELFDESTRUCT 0xB2 CODECOPY SSTORE PUSH20 0x25E0CD10B564736F6C634300081E003300000000 "
		},
		"gasEstimates": {
			"creation": {
				"codeDepositCost": "190400",
				"executionCost": "230",
				"totalCost": "190630"
			},
			"external": {
				"Umbytes()": "2489",
				"booleana()": "2531",
				"doisbytes()": "2518",
				"endereco()": "2552",
				"inteiro()": "2470",
				"tresdoisbytes()": "2447",
				"uinteiro()": "2425"
			}
		},
		"methodIdentifiers": {
			"Umbytes()": "5e2fc05a",
			"booleana()": "f712f2d8",
			"doisbytes()": "5984e220",
			"endereco()": "f38b2743",
			"inteiro()": "b624cb54",
			"tresdoisbytes()": "dc46cc1c",
			"uinteiro()": "c7e11579"
		}
	},
	"abi": [
		{
			"inputs": [],
			"name": "Umbytes",
			"outputs": [
				{
					"internalType": "bytes1",
					"name": "",
					"type": "bytes1"
				}
			],
			"stateMutability": "view",
			"type": "function"
		},
		{
			"inputs": [],
			"name": "booleana",
			"outputs": [
				{
					"internalType": "bool",
					"name": "",
					"type": "bool"
				}
			],
			"stateMutability": "view",
			"type": "function"
		},
		{
			"inputs": [],
			"name": "doisbytes",
			"outputs": [
				{
					"internalType": "bytes2",
					"name": "",
					"type": "bytes2"
				}
			],
			"stateMutability": "view",
			"type": "function"
		},
		{
			"inputs": [],
			"name": "endereco",
			"outputs": [
				{
					"internalType": "address",
					"name": "",
					"type": "address"
				}
			],
			"stateMutability": "view",
			"type": "function"
		},
		{
			"inputs": [],
			"name": "inteiro",
			"outputs": [
				{
					"internalType": "int256",
					"name": "",
					"type": "int256"
				}
			],
			"stateMutability": "view",
			"type": "function"
		},
		{
			"inputs": [],
			"name": "tresdoisbytes",
			"outputs": [
				{
					"internalType": "bytes32",
					"name": "",
					"type": "bytes32"
				}
			],
			"stateMutability": "view",
			"type": "function"
		},
		{
			"inputs": [],
			"name": "uinteiro",
			"outputs": [
				{
					"internalType": "uint256",
					"name": "",
					"type": "uint256"
				}
			],
			"stateMutability": "view",
			"type": "function"
		}
	]
}