{
	"data": {
		"bytecode": {
			"linkReferences": {},
			"object": "6080604052348015600e575f5ffd5b5061028f8061001c5f395ff3fe608060405234801561000f575f5ffd5b506004361061003f575f3560e01c80630b07fc341461004357806316f7396b14610062578063d2c73a3814610080575b5f5ffd5b61004b61009f565b604051610059929190610172565b60405180910390f35b61006a6100e2565b6040516100779190610199565b60405180910390f35b610088610117565b604051610096929190610172565b60405180910390f35b5f5f5f5f5b600a81116100d65780806100b7906101df565b91505060058103156100d65781806100ce906101df565b9250506100a4565b81819350935050509091565b5f5f5f5b600a811161010f5780806100f9906101df565b91505081816101089190610226565b91506100e6565b819250505090565b5f5f5f5f5b600a811161014e57808061012f906101df565b915050600581031561011c578180610146906101df565b92505061011c565b81819350935050509091565b5f819050919050565b61016c8161015a565b82525050565b5f6040820190506101855f830185610163565b6101926020830184610163565b9392505050565b5f6020820190506101ac5f830184610163565b92915050565b7f4e487b71000000000000000000000000000000000000000000000000000000005f52601160045260245ffd5b5f6101e98261015a565b91507fffffffffffffffffffffffffffffffffffffffffffffffffffffffffffffffff820361021b5761021a6101b2565b5b600182019050919050565b5f6102308261015a565b915061023b8361015a565b9250828201905080821115610253576102526101b2565b5b9291505056fea264697066735822122056309da3a08929159c08e9ade0121a547847e4df3aa9dc350eb764a8bf1091c564736f6c634300081e0033",
			"opcodes": "PUSH1 0x80 PUSH1 0x40 MSTORE CALLVALUE DUP1 ISZERO PUSH1 0xE JUMPI PUSH0 PUSH0 REVERT JUMPDEST POP PUSH2 0x28F DUP1 PUSH2 0x1C PUSH0 CODECOPY PUSH0 RETURN INVALID PUSH1 0x80 PUSH1 0x40 MSTORE CALLVALUE DUP1 ISZERO PUSH2 0xF JUMPI PUSH0 PUSH0 REVERT JUMPDEST POP PUSH1 0x4 CALLDATASIZE LT PUSH2 0x3F JUMPI PUSH0 CALLDATALOAD PUSH1 0xE0 SHR DUP1 PUSH4 0xB07FC34 EQ PUSH2 0x43 JUMPI DUP1 PUSH4 0x16F7396B EQ PUSH2 0x62 JUMPI DUP1 PUSH4 0xD2C73A38 EQ PUSH2 0x80 JUMPI JUMPDEST PUSH0 PUSH0 REVERT JUMPDEST PUSH2 0x4B PUSH2 0x9F JUMP JUMPDEST PUSH1 0x40 MLOAD PUSH2 0x59 SWAP3 SWAP2 SWAP1 PUSH2 0x172 JUMP JUMPDEST PUSH1 0x40 MLOAD DUP1 SWAP2 SUB SWAP1 RETURN JUMPDEST PUSH2 0x6A PUSH2 0xE2 JUMP JUMPDEST PUSH1 0x40 MLOAD PUSH2 0x77 SWAP2 SWAP1 PUSH2 0x199 JUMP JUMPDEST PUSH1 0x40 MLOAD DUP1 SWAP2 SUB SWAP1 RETURN JUMPDEST PUSH2 0x88 PUSH2 0x117 JUMP JUMPDEST PUSH1 0x40 MLOAD PUSH2 0x96 SWAP3 SWAP2 SWAP1 PUSH2 0x172 JUMP JUMPDEST PUSH1 0x40 MLOAD DUP1 SWAP2 SUB SWAP1 RETURN JUMPDEST PUSH0 PUSH0 PUSH0 PUSH0 JUMPDEST PUSH1 0xA DUP2 GT PUSH2 0xD6 JUMPI DUP1 DUP1 PUSH2 0xB7 SWAP1 PUSH2 0x1DF JUMP JUMPDEST SWAP2 POP POP PUSH1 0x5 DUP2 SUB ISZERO PUSH2 0xD6 JUMPI DUP2 DUP1 PUSH2 0xCE SWAP1 PUSH2 0x1DF JUMP JUMPDEST SWAP3 POP POP PUSH2 0xA4 JUMP JUMPDEST DUP2 DUP2 SWAP4 POP SWAP4 POP POP POP SWAP1 SWAP2 JUMP JUMPDEST PUSH0 PUSH0 PUSH0 JUMPDEST PUSH1 0xA DUP2 GT PUSH2 0x10F JUMPI DUP1 DUP1 PUSH2 0xF9 SWAP1 PUSH2 0x1DF JUMP JUMPDEST SWAP2 POP POP DUP2 DUP2 PUSH2 0x108 SWAP2 SWAP1 PUSH2 0x226 JUMP JUMPDEST SWAP2 POP PUSH2 0xE6 JUMP JUMPDEST DUP2 SWAP3 POP POP POP SWAP1 JUMP JUMPDEST PUSH0 PUSH0 PUSH0 PUSH0 JUMPDEST PUSH1 0xA DUP2 GT PUSH2 0x14E JUMPI DUP1 DUP1 PUSH2 0x12F SWAP1 PUSH2 0x1DF JUMP JUMPDEST SWAP2 POP POP PUSH1 0x5 DUP2 SUB ISZERO PUSH2 0x11C JUMPI DUP2 DUP1 PUSH2 0x146 SWAP1 PUSH2 0x1DF JUMP JUMPDEST SWAP3 POP POP PUSH2 0x11C JUMP JUMPDEST DUP2 DUP2 SWAP4 POP SWAP4 POP POP POP SWAP1 SWAP2 JUMP JUMPDEST PUSH0 DUP2 SWAP1 POP SWAP2 SWAP1 POP JUMP JUMPDEST PUSH2 0x16C DUP2 PUSH2 0x15A JUMP JUMPDEST DUP3 MSTORE POP POP JUMP JUMPDEST PUSH0 PUSH1 0x40 DUP3 ADD SWAP1 POP PUSH2 0x185 PUSH0 DUP4 ADD DUP6 PUSH2 0x163 JUMP JUMPDEST PUSH2 0x192 PUSH1 0x20 DUP4 ADD DUP5 PUSH2 0x163 JUMP JUMPDEST SWAP4 SWAP3 POP POP POP JUMP JUMPDEST PUSH0 PUSH1 0x20 DUP3 ADD SWAP1 POP PUSH2 0x1AC PUSH0 DUP4 ADD DUP5 PUSH2 0x163 JUMP JUMPDEST SWAP3 SWAP2 POP POP JUMP JUMPDEST PUSH32 0x4E487B7100000000000000000000000000000000000000000000000000000000 PUSH0 MSTORE PUSH1 0x11 PUSH1 0x4 MSTORE PUSH1 0x24 PUSH0 REVERT JUMPDEST PUSH0 PUSH2 0x1E9 DUP3 PUSH2 0x15A JUMP JUMPDEST SWAP2 POP PUSH32 0xFFFFFFFFFFFFFFFFFFFFFFFFFFFFFFFFFFFFFFFFFFFFFFFFFFFFFFFFFFFFFFFF DUP3 SUB PUSH2 0x21B JUMPI PUSH2 0x21A PUSH2 0x1B2 JUMP JUMPDEST JUMPDEST PUSH1 0x1 DUP3 ADD SWAP1 POP SWAP2 SWAP1 POP JUMP JUMPDEST PUSH0 PUSH2 0x230 DUP3 PUSH2 0x15A JUMP JUMPDEST SWAP2 POP PUSH2 0x23B DUP4 PUSH2 0x15A JUMP JUMPDEST SWAP3 POP DUP3 DUP3 ADD SWAP1 POP DUP1 DUP3 GT ISZERO PUSH2 0x253 JUMPI PUSH2 0x252 PUSH2 0x1B2 JUMP JUMPDEST JUMPDEST SWAP3 SWAP2 POP POP JUMP INVALID LOG2 PUSH5 0x6970667358 0x22 SLT KECCAK256 JUMP ADDRESS SWAP14 LOG3 LOG0 DUP10 0x29 ISZERO SWAP13 ADDMOD 0xE9 0xAD RJUMP 0x121A SLOAD PUSH25 0x47E4DF3AA9DC350EB764A8BF1091C564736F6C634300081E00 CALLER "
		},
		"gasEstimates": {
			"creation": {
				"codeDepositCost": "131000",
				"executionCost": "175",
				"totalCost": "131175"
			},
			"external": {
				"repetir()": "infinite",
				"repetirBreak()": "infinite",
				"repetirContinue()": "infinite"
			}
		},
		"methodIdentifiers": {
			"repetir()": "16f7396b",
			"repetirBreak()": "0b07fc34",
			"repetirContinue()": "d2c73a38"
		}
	},
	"abi": [
		{
			"inputs": [],
			"name": "repetir",
			"outputs": [
				{
					"internalType": "uint256",
					"name": "",
					"type": "uint256"
				}
			],
			"stateMutability": "pure",
			"type": "function"
		},
		{
			"inputs": [],
			"name": "repetirBreak",
			"outputs": [
				{
					"internalType": "uint256",
					"name": "",
					"type": "uint256"
				},
				{
					"internalType": "uint256",
					"name": "",
					"type": "uint256"
				}
			],
			"stateMutability": "pure",
			"type": "function"
		},
		{
			"inputs": [],
			"name": "repetirContinue",
			"outputs": [
				{
					"internalType": "uint256",
					"name": "",
					"type": "uint256"
				},
				{
					"internalType": "uint256",
					"name": "",
					"type": "uint256"
				}
			],
			"stateMutability": "pure",
			"type": "function"
		}
	]
}